{
	"contracts/BadSammyNFTStore.sol": {
		"BadSammyNFTStore": {
			"abi": [
				{
					"inputs": [
						{
							"internalType": "address",
							"name": "initialOwner",
							"type": "address"
						},
						{
							"internalType": "address payable",
							"name": "_treasury",
							"type": "address"
						},
						{
							"internalType": "address",
							"name": "usdc",
							"type": "address"
						}
					],
					"stateMutability": "nonpayable",
					"type": "constructor"
				},
				{
					"inputs": [],
					"name": "InvalidTier",
					"type": "error"
				},
				{
					"inputs": [
						{
							"internalType": "address",
							"name": "owner",
							"type": "address"
						}
					],
					"name": "OwnableInvalidOwner",
					"type": "error"
				},
				{
					"inputs": [
						{
							"internalType": "address",
							"name": "account",
							"type": "address"
						}
					],
					"name": "OwnableUnauthorizedAccount",
					"type": "error"
				},
				{
					"inputs": [],
					"name": "PaymentIncorrect",
					"type": "error"
				},
				{
					"inputs": [
						{
							"internalType": "address",
							"name": "token",
							"type": "address"
						}
					],
					"name": "SafeERC20FailedOperation",
					"type": "error"
				},
				{
					"inputs": [],
					"name": "SoldOut",
					"type": "error"
				},
				{
					"inputs": [],
					"name": "TierDisabled",
					"type": "error"
				},
				{
					"inputs": [],
					"name": "ZeroAddress",
					"type": "error"
				},
				{
					"anonymous": false,
					"inputs": [
						{
							"indexed": true,
							"internalType": "address",
							"name": "previousOwner",
							"type": "address"
						},
						{
							"indexed": true,
							"internalType": "address",
							"name": "newOwner",
							"type": "address"
						}
					],
					"name": "OwnershipTransferred",
					"type": "event"
				},
				{
					"inputs": [],
					"name": "USDC",
					"outputs": [
						{
							"internalType": "contract IERC20",
							"name": "",
							"type": "address"
						}
					],
					"stateMutability": "view",
					"type": "function"
				},
				{
					"inputs": [
						{
							"internalType": "uint256",
							"name": "tierId",
							"type": "uint256"
						}
					],
					"name": "buyWithUSDC",
					"outputs": [],
					"stateMutability": "nonpayable",
					"type": "function"
				},
				{
					"inputs": [
						{
							"internalType": "uint256",
							"name": "tierId",
							"type": "uint256"
						},
						{
							"internalType": "uint256",
							"name": "value",
							"type": "uint256"
						},
						{
							"internalType": "uint256",
							"name": "deadline",
							"type": "uint256"
						},
						{
							"internalType": "uint8",
							"name": "v",
							"type": "uint8"
						},
						{
							"internalType": "bytes32",
							"name": "r",
							"type": "bytes32"
						},
						{
							"internalType": "bytes32",
							"name": "s",
							"type": "bytes32"
						}
					],
					"name": "buyWithUSDCPermit",
					"outputs": [],
					"stateMutability": "nonpayable",
					"type": "function"
				},
				{
					"inputs": [
						{
							"internalType": "address",
							"name": "",
							"type": "address"
						},
						{
							"internalType": "address",
							"name": "",
							"type": "address"
						},
						{
							"internalType": "uint256",
							"name": "",
							"type": "uint256"
						},
						{
							"internalType": "bytes",
							"name": "",
							"type": "bytes"
						}
					],
					"name": "onERC721Received",
					"outputs": [
						{
							"internalType": "bytes4",
							"name": "",
							"type": "bytes4"
						}
					],
					"stateMutability": "pure",
					"type": "function"
				},
				{
					"inputs": [],
					"name": "owner",
					"outputs": [
						{
							"internalType": "address",
							"name": "",
							"type": "address"
						}
					],
					"stateMutability": "view",
					"type": "function"
				},
				{
					"inputs": [],
					"name": "renounceOwnership",
					"outputs": [],
					"stateMutability": "nonpayable",
					"type": "function"
				},
				{
					"inputs": [
						{
							"internalType": "uint256",
							"name": "tierId",
							"type": "uint256"
						},
						{
							"internalType": "address",
							"name": "nftAddress",
							"type": "address"
						},
						{
							"internalType": "uint256",
							"name": "priceUsdcUnits",
							"type": "uint256"
						},
						{
							"internalType": "bool",
							"name": "enabled",
							"type": "bool"
						}
					],
					"name": "setTier",
					"outputs": [],
					"stateMutability": "nonpayable",
					"type": "function"
				},
				{
					"inputs": [
						{
							"internalType": "address payable",
							"name": "_treasury",
							"type": "address"
						}
					],
					"name": "setTreasury",
					"outputs": [],
					"stateMutability": "nonpayable",
					"type": "function"
				},
				{
					"inputs": [
						{
							"internalType": "address",
							"name": "token",
							"type": "address"
						},
						{
							"internalType": "address",
							"name": "to",
							"type": "address"
						}
					],
					"name": "sweepERC20",
					"outputs": [],
					"stateMutability": "nonpayable",
					"type": "function"
				},
				{
					"inputs": [
						{
							"internalType": "uint256",
							"name": "",
							"type": "uint256"
						}
					],
					"name": "tiers",
					"outputs": [
						{
							"internalType": "address",
							"name": "nft",
							"type": "address"
						},
						{
							"internalType": "uint256",
							"name": "priceUsdc",
							"type": "uint256"
						},
						{
							"internalType": "bool",
							"name": "enabled",
							"type": "bool"
						}
					],
					"stateMutability": "view",
					"type": "function"
				},
				{
					"inputs": [
						{
							"internalType": "address",
							"name": "newOwner",
							"type": "address"
						}
					],
					"name": "transferOwnership",
					"outputs": [],
					"stateMutability": "nonpayable",
					"type": "function"
				},
				{
					"inputs": [],
					"name": "treasury",
					"outputs": [
						{
							"internalType": "address payable",
							"name": "",
							"type": "address"
						}
					],
					"stateMutability": "view",
					"type": "function"
				},
				{
					"inputs": [
						{
							"internalType": "uint256",
							"name": "tierId",
							"type": "uint256"
						},
						{
							"internalType": "address",
							"name": "to",
							"type": "address"
						}
					],
					"name": "withdrawAll",
					"outputs": [],
					"stateMutability": "nonpayable",
					"type": "function"
				},
				{
					"inputs": [
						{
							"internalType": "uint256",
							"name": "tierId",
							"type": "uint256"
						},
						{
							"internalType": "uint256",
							"name": "quantity",
							"type": "uint256"
						},
						{
							"internalType": "address",
							"name": "to",
							"type": "address"
						}
					],
					"name": "withdrawN",
					"outputs": [],
					"stateMutability": "nonpayable",
					"type": "function"
				},
				{
					"inputs": [
						{
							"internalType": "uint256",
							"name": "tierId",
							"type": "uint256"
						},
						{
							"internalType": "uint256",
							"name": "tokenId",
							"type": "uint256"
						},
						{
							"internalType": "address",
							"name": "to",
							"type": "address"
						}
					],
					"name": "withdrawNFT",
					"outputs": [],
					"stateMutability": "nonpayable",
					"type": "function"
				},
				{
					"stateMutability": "payable",
					"type": "receive"
				}
			],
			"devdoc": {
				"errors": {
					"OwnableInvalidOwner(address)": [
						{
							"details": "The owner is not a valid owner account. (eg. `address(0)`)"
						}
					],
					"OwnableUnauthorizedAccount(address)": [
						{
							"details": "The caller account is not authorized to perform an operation."
						}
					],
					"SafeERC20FailedOperation(address)": [
						{
							"details": "An operation with an ERC-20 token failed."
						}
					]
				},
				"kind": "dev",
				"methods": {
					"owner()": {
						"details": "Returns the address of the current owner."
					},
					"renounceOwnership()": {
						"details": "Leaves the contract without owner. It will not be possible to call `onlyOwner` functions. Can only be called by the current owner. NOTE: Renouncing ownership will leave the contract without an owner, thereby disabling any functionality that is only available to the owner."
					},
					"transferOwnership(address)": {
						"details": "Transfers ownership of the contract to a new account (`newOwner`). Can only be called by the current owner."
					}
				},
				"version": 1
			},
			"evm": {
				"assembly": "    /* \"contracts/BadSammyNFTStore.sol\":909:6537  contract BadSammyNFTStore is ReentrancyGuard, Ownable, IERC721Receiver {... */\n  mstore(0x40, 0xa0)\n    /* \"contracts/BadSammyNFTStore.sol\":1703:2226  constructor(... */\n  callvalue\n  dup1\n  iszero\n  tag_1\n  jumpi\n  0x00\n  dup1\n  revert\ntag_1:\n  pop\n  mload(0x40)\n  sub(codesize, bytecodeSize)\n  dup1\n  bytecodeSize\n  dup4\n  codecopy\n  dup2\n  dup2\n  add\n  0x40\n  mstore\n  dup2\n  add\n  swap1\n  tag_2\n  swap2\n  swap1\n  tag_3\n  jump\t// in\ntag_2:\n    /* \"contracts/BadSammyNFTStore.sol\":1912:1924  initialOwner */\n  dup3\n    /* \"@openzeppelin/contracts/security/ReentrancyGuard.sol\":1716:1717  1 */\n  0x01\n    /* \"@openzeppelin/contracts/security/ReentrancyGuard.sol\":1821:1828  _status */\n  0x00\n    /* \"@openzeppelin/contracts/security/ReentrancyGuard.sol\":1821:1843  _status = _NOT_ENTERED */\n  dup2\n  swap1\n  sstore\n  pop\n    /* \"@openzeppelin/contracts/access/Ownable.sol\":1297:1298  0 */\n  0x00\n    /* \"@openzeppelin/contracts/access/Ownable.sol\":1273:1299  initialOwner == address(0) */\n  0xffffffffffffffffffffffffffffffffffffffff\n  and\n    /* \"@openzeppelin/contracts/access/Ownable.sol\":1273:1285  initialOwner */\n  dup2\n    /* \"@openzeppelin/contracts/access/Ownable.sol\":1273:1299  initialOwner == address(0) */\n  0xffffffffffffffffffffffffffffffffffffffff\n  and\n  sub\n    /* \"@openzeppelin/contracts/access/Ownable.sol\":1269:1364  if (initialOwner == address(0)) {... */\n  tag_9\n  jumpi\n    /* \"@openzeppelin/contracts/access/Ownable.sol\":1350:1351  0 */\n  0x00\n    /* \"@openzeppelin/contracts/access/Ownable.sol\":1322:1353  OwnableInvalidOwner(address(0)) */\n  mload(0x40)\n  0x1e4fbdf700000000000000000000000000000000000000000000000000000000\n  dup2\n  mstore\n  0x04\n  add\n  tag_10\n  swap2\n  swap1\n  tag_11\n  jump\t// in\ntag_10:\n  mload(0x40)\n  dup1\n  swap2\n  sub\n  swap1\n  revert\n    /* \"@openzeppelin/contracts/access/Ownable.sol\":1269:1364  if (initialOwner == address(0)) {... */\ntag_9:\n    /* \"@openzeppelin/contracts/access/Ownable.sol\":1373:1405  _transferOwnership(initialOwner) */\n  tag_12\n    /* \"@openzeppelin/contracts/access/Ownable.sol\":1392:1404  initialOwner */\n  dup2\n    /* \"@openzeppelin/contracts/access/Ownable.sol\":1373:1391  _transferOwnership */\n  shl(0x20, tag_13)\n    /* \"@openzeppelin/contracts/access/Ownable.sol\":1373:1405  _transferOwnership(initialOwner) */\n  0x20\n  shr\n  jump\t// in\ntag_12:\n    /* \"@openzeppelin/contracts/access/Ownable.sol\":1225:1412  constructor(address initialOwner) {... */\n  pop\n    /* \"contracts/BadSammyNFTStore.sol\":1966:1967  0 */\n  0x00\n    /* \"contracts/BadSammyNFTStore.sol\":1945:1968  _treasury == address(0) */\n  0xffffffffffffffffffffffffffffffffffffffff\n  and\n    /* \"contracts/BadSammyNFTStore.sol\":1945:1954  _treasury */\n  dup3\n    /* \"contracts/BadSammyNFTStore.sol\":1945:1968  _treasury == address(0) */\n  0xffffffffffffffffffffffffffffffffffffffff\n  and\n  eq\n    /* \"contracts/BadSammyNFTStore.sol\":1945:1990  _treasury == address(0) || usdc == address(0) */\n  dup1\n  tag_15\n  jumpi\n  pop\n    /* \"contracts/BadSammyNFTStore.sol\":1988:1989  0 */\n  0x00\n    /* \"contracts/BadSammyNFTStore.sol\":1972:1990  usdc == address(0) */\n  0xffffffffffffffffffffffffffffffffffffffff\n  and\n    /* \"contracts/BadSammyNFTStore.sol\":1972:1976  usdc */\n  dup2\n    /* \"contracts/BadSammyNFTStore.sol\":1972:1990  usdc == address(0) */\n  0xffffffffffffffffffffffffffffffffffffffff\n  and\n  eq\n    /* \"contracts/BadSammyNFTStore.sol\":1945:1990  _treasury == address(0) || usdc == address(0) */\ntag_15:\n    /* \"contracts/BadSammyNFTStore.sol\":1941:2037  if (_treasury == address(0) || usdc == address(0)) {... */\n  iszero\n  tag_16\n  jumpi\n    /* \"contracts/BadSammyNFTStore.sol\":2013:2026  ZeroAddress() */\n  mload(0x40)\n  0xd92e233d00000000000000000000000000000000000000000000000000000000\n  dup2\n  mstore\n  0x04\n  add\n  mload(0x40)\n  dup1\n  swap2\n  sub\n  swap1\n  revert\n    /* \"contracts/BadSammyNFTStore.sol\":1941:2037  if (_treasury == address(0) || usdc == address(0)) {... */\ntag_16:\n    /* \"contracts/BadSammyNFTStore.sol\":2058:2067  _treasury */\n  dup2\n    /* \"contracts/BadSammyNFTStore.sol\":2047:2055  treasury */\n  0x03\n  0x00\n    /* \"contracts/BadSammyNFTStore.sol\":2047:2067  treasury = _treasury */\n  0x0100\n  exp\n  dup2\n  sload\n  dup2\n  0xffffffffffffffffffffffffffffffffffffffff\n  mul\n  not\n  and\n  swap1\n  dup4\n  0xffffffffffffffffffffffffffffffffffffffff\n  and\n  mul\n  or\n  swap1\n  sstore\n  pop\n    /* \"contracts/BadSammyNFTStore.sol\":2091:2095  usdc */\n  dup1\n    /* \"contracts/BadSammyNFTStore.sol\":2077:2096  USDC = IERC20(usdc) */\n  0xffffffffffffffffffffffffffffffffffffffff\n  and\n  0x80\n  dup2\n  0xffffffffffffffffffffffffffffffffffffffff\n  and\n  dup2\n  mstore\n  pop\n  pop\n    /* \"contracts/BadSammyNFTStore.sol\":1703:2226  constructor(... */\n  pop\n  pop\n  pop\n    /* \"contracts/BadSammyNFTStore.sol\":909:6537  contract BadSammyNFTStore is ReentrancyGuard, Ownable, IERC721Receiver {... */\n  jump(tag_17)\n    /* \"@openzeppelin/contracts/access/Ownable.sol\":2912:3099  function _transferOwnership(address newOwner) internal virtual {... */\ntag_13:\n    /* \"@openzeppelin/contracts/access/Ownable.sol\":2985:3001  address oldOwner */\n  0x00\n    /* \"@openzeppelin/contracts/access/Ownable.sol\":3004:3010  _owner */\n  0x01\n  0x00\n  swap1\n  sload\n  swap1\n  0x0100\n  exp\n  swap1\n  div\n  0xffffffffffffffffffffffffffffffffffffffff\n  and\n    /* \"@openzeppelin/contracts/access/Ownable.sol\":2985:3010  address oldOwner = _owner */\n  swap1\n  pop\n    /* \"@openzeppelin/contracts/access/Ownable.sol\":3029:3037  newOwner */\n  dup2\n    /* \"@openzeppelin/contracts/access/Ownable.sol\":3020:3026  _owner */\n  0x01\n  0x00\n    /* \"@openzeppelin/contracts/access/Ownable.sol\":3020:3037  _owner = newOwner */\n  0x0100\n  exp\n  dup2\n  sload\n  dup2\n  0xffffffffffffffffffffffffffffffffffffffff\n  mul\n  not\n  and\n  swap1\n  dup4\n  0xffffffffffffffffffffffffffffffffffffffff\n  and\n  mul\n  or\n  swap1\n  sstore\n  pop\n    /* \"@openzeppelin/contracts/access/Ownable.sol\":3083:3091  newOwner */\n  dup2\n    /* \"@openzeppelin/contracts/access/Ownable.sol\":3052:3092  OwnershipTransferred(oldOwner, newOwner) */\n  0xffffffffffffffffffffffffffffffffffffffff\n  and\n    /* \"@openzeppelin/contracts/access/Ownable.sol\":3073:3081  oldOwner */\n  dup2\n    /* \"@openzeppelin/contracts/access/Ownable.sol\":3052:3092  OwnershipTransferred(oldOwner, newOwner) */\n  0xffffffffffffffffffffffffffffffffffffffff\n  and\n  0x8be0079c531659141344cd1fd0a4f28419497f9722a3daafe3b4186f6b6457e0\n  mload(0x40)\n  mload(0x40)\n  dup1\n  swap2\n  sub\n  swap1\n  log3\n    /* \"@openzeppelin/contracts/access/Ownable.sol\":2975:3099  {... */\n  pop\n    /* \"@openzeppelin/contracts/access/Ownable.sol\":2912:3099  function _transferOwnership(address newOwner) internal virtual {... */\n  pop\n  jump\t// out\n    /* \"#utility.yul\":88:205   */\ntag_20:\n    /* \"#utility.yul\":197:198   */\n  0x00\n    /* \"#utility.yul\":194:195   */\n  dup1\n    /* \"#utility.yul\":187:199   */\n  revert\n    /* \"#utility.yul\":334:460   */\ntag_22:\n    /* \"#utility.yul\":371:378   */\n  0x00\n    /* \"#utility.yul\":411:453   */\n  0xffffffffffffffffffffffffffffffffffffffff\n    /* \"#utility.yul\":404:409   */\n  dup3\n    /* \"#utility.yul\":400:454   */\n  and\n    /* \"#utility.yul\":389:454   */\n  swap1\n  pop\n    /* \"#utility.yul\":334:460   */\n  swap2\n  swap1\n  pop\n  jump\t// out\n    /* \"#utility.yul\":466:562   */\ntag_23:\n    /* \"#utility.yul\":503:510   */\n  0x00\n    /* \"#utility.yul\":532:556   */\n  tag_36\n    /* \"#utility.yul\":550:555   */\n  dup3\n    /* \"#utility.yul\":532:556   */\n  tag_22\n  jump\t// in\ntag_36:\n    /* \"#utility.yul\":521:556   */\n  swap1\n  pop\n    /* \"#utility.yul\":466:562   */\n  swap2\n  swap1\n  pop\n  jump\t// out\n    /* \"#utility.yul\":568:690   */\ntag_24:\n    /* \"#utility.yul\":641:665   */\n  tag_38\n    /* \"#utility.yul\":659:664   */\n  dup2\n    /* \"#utility.yul\":641:665   */\n  tag_23\n  jump\t// in\ntag_38:\n    /* \"#utility.yul\":634:639   */\n  dup2\n    /* \"#utility.yul\":631:666   */\n  eq\n    /* \"#utility.yul\":621:684   */\n  tag_39\n  jumpi\n    /* \"#utility.yul\":680:681   */\n  0x00\n    /* \"#utility.yul\":677:678   */\n  dup1\n    /* \"#utility.yul\":670:682   */\n  revert\n    /* \"#utility.yul\":621:684   */\ntag_39:\n    /* \"#utility.yul\":568:690   */\n  pop\n  jump\t// out\n    /* \"#utility.yul\":696:839   */\ntag_25:\n    /* \"#utility.yul\":753:758   */\n  0x00\n    /* \"#utility.yul\":784:790   */\n  dup2\n    /* \"#utility.yul\":778:791   */\n  mload\n    /* \"#utility.yul\":769:791   */\n  swap1\n  pop\n    /* \"#utility.yul\":800:833   */\n  tag_41\n    /* \"#utility.yul\":827:832   */\n  dup2\n    /* \"#utility.yul\":800:833   */\n  tag_24\n  jump\t// in\ntag_41:\n    /* \"#utility.yul\":696:839   */\n  swap3\n  swap2\n  pop\n  pop\n  jump\t// out\n    /* \"#utility.yul\":845:949   */\ntag_26:\n    /* \"#utility.yul\":890:897   */\n  0x00\n    /* \"#utility.yul\":919:943   */\n  tag_43\n    /* \"#utility.yul\":937:942   */\n  dup3\n    /* \"#utility.yul\":919:943   */\n  tag_22\n  jump\t// in\ntag_43:\n    /* \"#utility.yul\":908:943   */\n  swap1\n  pop\n    /* \"#utility.yul\":845:949   */\n  swap2\n  swap1\n  pop\n  jump\t// out\n    /* \"#utility.yul\":955:1093   */\ntag_27:\n    /* \"#utility.yul\":1036:1068   */\n  tag_45\n    /* \"#utility.yul\":1062:1067   */\n  dup2\n    /* \"#utility.yul\":1036:1068   */\n  tag_26\n  jump\t// in\ntag_45:\n    /* \"#utility.yul\":1029:1034   */\n  dup2\n    /* \"#utility.yul\":1026:1069   */\n  eq\n    /* \"#utility.yul\":1016:1087   */\n  tag_46\n  jumpi\n    /* \"#utility.yul\":1083:1084   */\n  0x00\n    /* \"#utility.yul\":1080:1081   */\n  dup1\n    /* \"#utility.yul\":1073:1085   */\n  revert\n    /* \"#utility.yul\":1016:1087   */\ntag_46:\n    /* \"#utility.yul\":955:1093   */\n  pop\n  jump\t// out\n    /* \"#utility.yul\":1099:1258   */\ntag_28:\n    /* \"#utility.yul\":1164:1169   */\n  0x00\n    /* \"#utility.yul\":1195:1201   */\n  dup2\n    /* \"#utility.yul\":1189:1202   */\n  mload\n    /* \"#utility.yul\":1180:1202   */\n  swap1\n  pop\n    /* \"#utility.yul\":1211:1252   */\n  tag_48\n    /* \"#utility.yul\":1246:1251   */\n  dup2\n    /* \"#utility.yul\":1211:1252   */\n  tag_27\n  jump\t// in\ntag_48:\n    /* \"#utility.yul\":1099:1258   */\n  swap3\n  swap2\n  pop\n  pop\n  jump\t// out\n    /* \"#utility.yul\":1264:1943   */\ntag_3:\n    /* \"#utility.yul\":1360:1366   */\n  0x00\n    /* \"#utility.yul\":1368:1374   */\n  dup1\n    /* \"#utility.yul\":1376:1382   */\n  0x00\n    /* \"#utility.yul\":1425:1427   */\n  0x60\n    /* \"#utility.yul\":1413:1422   */\n  dup5\n    /* \"#utility.yul\":1404:1411   */\n  dup7\n    /* \"#utility.yul\":1400:1423   */\n  sub\n    /* \"#utility.yul\":1396:1428   */\n  slt\n    /* \"#utility.yul\":1393:1512   */\n  iszero\n  tag_50\n  jumpi\n    /* \"#utility.yul\":1431:1510   */\n  tag_51\n  tag_20\n  jump\t// in\ntag_51:\n    /* \"#utility.yul\":1393:1512   */\ntag_50:\n    /* \"#utility.yul\":1551:1552   */\n  0x00\n    /* \"#utility.yul\":1576:1640   */\n  tag_52\n    /* \"#utility.yul\":1632:1639   */\n  dup7\n    /* \"#utility.yul\":1623:1629   */\n  dup3\n    /* \"#utility.yul\":1612:1621   */\n  dup8\n    /* \"#utility.yul\":1608:1630   */\n  add\n    /* \"#utility.yul\":1576:1640   */\n  tag_25\n  jump\t// in\ntag_52:\n    /* \"#utility.yul\":1566:1640   */\n  swap4\n  pop\n    /* \"#utility.yul\":1522:1650   */\n  pop\n    /* \"#utility.yul\":1689:1691   */\n  0x20\n    /* \"#utility.yul\":1715:1787   */\n  tag_53\n    /* \"#utility.yul\":1779:1786   */\n  dup7\n    /* \"#utility.yul\":1770:1776   */\n  dup3\n    /* \"#utility.yul\":1759:1768   */\n  dup8\n    /* \"#utility.yul\":1755:1777   */\n  add\n    /* \"#utility.yul\":1715:1787   */\n  tag_28\n  jump\t// in\ntag_53:\n    /* \"#utility.yul\":1705:1787   */\n  swap3\n  pop\n    /* \"#utility.yul\":1660:1797   */\n  pop\n    /* \"#utility.yul\":1836:1838   */\n  0x40\n    /* \"#utility.yul\":1862:1926   */\n  tag_54\n    /* \"#utility.yul\":1918:1925   */\n  dup7\n    /* \"#utility.yul\":1909:1915   */\n  dup3\n    /* \"#utility.yul\":1898:1907   */\n  dup8\n    /* \"#utility.yul\":1894:1916   */\n  add\n    /* \"#utility.yul\":1862:1926   */\n  tag_25\n  jump\t// in\ntag_54:\n    /* \"#utility.yul\":1852:1926   */\n  swap2\n  pop\n    /* \"#utility.yul\":1807:1936   */\n  pop\n    /* \"#utility.yul\":1264:1943   */\n  swap3\n  pop\n  swap3\n  pop\n  swap3\n  jump\t// out\n    /* \"#utility.yul\":1949:2067   */\ntag_29:\n    /* \"#utility.yul\":2036:2060   */\n  tag_56\n    /* \"#utility.yul\":2054:2059   */\n  dup2\n    /* \"#utility.yul\":2036:2060   */\n  tag_23\n  jump\t// in\ntag_56:\n    /* \"#utility.yul\":2031:2034   */\n  dup3\n    /* \"#utility.yul\":2024:2061   */\n  mstore\n    /* \"#utility.yul\":1949:2067   */\n  pop\n  pop\n  jump\t// out\n    /* \"#utility.yul\":2073:2295   */\ntag_11:\n    /* \"#utility.yul\":2166:2170   */\n  0x00\n    /* \"#utility.yul\":2204:2206   */\n  0x20\n    /* \"#utility.yul\":2193:2202   */\n  dup3\n    /* \"#utility.yul\":2189:2207   */\n  add\n    /* \"#utility.yul\":2181:2207   */\n  swap1\n  pop\n    /* \"#utility.yul\":2217:2288   */\n  tag_58\n    /* \"#utility.yul\":2285:2286   */\n  0x00\n    /* \"#utility.yul\":2274:2283   */\n  dup4\n    /* \"#utility.yul\":2270:2287   */\n  add\n    /* \"#utility.yul\":2261:2267   */\n  dup5\n    /* \"#utility.yul\":2217:2288   */\n  tag_29\n  jump\t// in\ntag_58:\n    /* \"#utility.yul\":2073:2295   */\n  swap3\n  swap2\n  pop\n  pop\n  jump\t// out\n    /* \"contracts/BadSammyNFTStore.sol\":909:6537  contract BadSammyNFTStore is ReentrancyGuard, Ownable, IERC721Receiver {... */\ntag_17:\n  mload(0x80)\n  codecopy(0x00, dataOffset(sub_0), dataSize(sub_0))\n  0x00\n  assignImmutable(\"0xea1c3a463a334d4502a6bc7c1ce6676ab071cb26e08d8d603278a360d97dc14c\")\n  return(0x00, dataSize(sub_0))\nstop\n\nsub_0: assembly {\n        /* \"contracts/BadSammyNFTStore.sol\":909:6537  contract BadSammyNFTStore is ReentrancyGuard, Ownable, IERC721Receiver {... */\n      mstore(0x40, 0x80)\n      jumpi(tag_1, lt(calldatasize, 0x04))\n      shr(0xe0, calldataload(0x00))\n      dup1\n      0x8da5cb5b\n      gt\n      tag_18\n      jumpi\n      dup1\n      0xbb6416ae\n      gt\n      tag_19\n      jumpi\n      dup1\n      0xbb6416ae\n      eq\n      tag_14\n      jumpi\n      dup1\n      0xddd32898\n      eq\n      tag_15\n      jumpi\n      dup1\n      0xf0f44260\n      eq\n      tag_16\n      jumpi\n      dup1\n      0xf2fde38b\n      eq\n      tag_17\n      jumpi\n      jump(tag_2)\n    tag_19:\n      dup1\n      0x8da5cb5b\n      eq\n      tag_10\n      jumpi\n      dup1\n      0x9079b243\n      eq\n      tag_11\n      jumpi\n      dup1\n      0x9c66fb7e\n      eq\n      tag_12\n      jumpi\n      dup1\n      0xaeccf735\n      eq\n      tag_13\n      jumpi\n      jump(tag_2)\n    tag_18:\n      dup1\n      0x582515c7\n      gt\n      tag_20\n      jumpi\n      dup1\n      0x582515c7\n      eq\n      tag_6\n      jumpi\n      dup1\n      0x61d027b3\n      eq\n      tag_7\n      jumpi\n      dup1\n      0x715018a6\n      eq\n      tag_8\n      jumpi\n      dup1\n      0x89a30271\n      eq\n      tag_9\n      jumpi\n      jump(tag_2)\n    tag_20:\n      dup1\n      0x039af9eb\n      eq\n      tag_3\n      jumpi\n      dup1\n      0x150b7a02\n      eq\n      tag_4\n      jumpi\n      dup1\n      0x4c2233a5\n      eq\n      tag_5\n      jumpi\n      jump(tag_2)\n    tag_1:\n      jumpi(tag_2, calldatasize)\n      stop\n    tag_2:\n      0x00\n      dup1\n      revert\n        /* \"contracts/BadSammyNFTStore.sol\":1216:1253  mapping(uint256 => Tier) public tiers */\n    tag_3:\n      callvalue\n      dup1\n      iszero\n      tag_23\n      jumpi\n      0x00\n      dup1\n      revert\n    tag_23:\n      pop\n      tag_24\n      0x04\n      dup1\n      calldatasize\n      sub\n      dup2\n      add\n      swap1\n      tag_25\n      swap2\n      swap1\n      tag_26\n      jump\t// in\n    tag_25:\n      tag_27\n      jump\t// in\n    tag_24:\n      mload(0x40)\n      tag_28\n      swap4\n      swap3\n      swap2\n      swap1\n      tag_29\n      jump\t// in\n    tag_28:\n      mload(0x40)\n      dup1\n      swap2\n      sub\n      swap1\n      return\n        /* \"contracts/BadSammyNFTStore.sol\":6272:6460  function onERC721Received(address, address, uint256, bytes calldata) ... */\n    tag_4:\n      callvalue\n      dup1\n      iszero\n      tag_30\n      jumpi\n      0x00\n      dup1\n      revert\n    tag_30:\n      pop\n      tag_31\n      0x04\n      dup1\n      calldatasize\n      sub\n      dup2\n      add\n      swap1\n      tag_32\n      swap2\n      swap1\n      tag_33\n      jump\t// in\n    tag_32:\n      tag_34\n      jump\t// in\n    tag_31:\n      mload(0x40)\n      tag_35\n      swap2\n      swap1\n      tag_36\n      jump\t// in\n    tag_35:\n      mload(0x40)\n      dup1\n      swap2\n      sub\n      swap1\n      return\n        /* \"contracts/BadSammyNFTStore.sol\":5758:6238  function withdrawAll(uint256 tierId, address to) external onlyOwner {... */\n    tag_5:\n      callvalue\n      dup1\n      iszero\n      tag_37\n      jumpi\n      0x00\n      dup1\n      revert\n    tag_37:\n      pop\n      tag_38\n      0x04\n      dup1\n      calldatasize\n      sub\n      dup2\n      add\n      swap1\n      tag_39\n      swap2\n      swap1\n      tag_40\n      jump\t// in\n    tag_39:\n      tag_41\n      jump\t// in\n    tag_38:\n      stop\n        /* \"contracts/BadSammyNFTStore.sol\":4762:4938  function sweepERC20(address token, address to) external onlyOwner {... */\n    tag_6:\n      callvalue\n      dup1\n      iszero\n      tag_42\n      jumpi\n      0x00\n      dup1\n      revert\n    tag_42:\n      pop\n      tag_43\n      0x04\n      dup1\n      calldatasize\n      sub\n      dup2\n      add\n      swap1\n      tag_44\n      swap2\n      swap1\n      tag_45\n      jump\t// in\n    tag_44:\n      tag_46\n      jump\t// in\n    tag_43:\n      stop\n        /* \"contracts/BadSammyNFTStore.sol\":1260:1291  address payable public treasury */\n    tag_7:\n      callvalue\n      dup1\n      iszero\n      tag_47\n      jumpi\n      0x00\n      dup1\n      revert\n    tag_47:\n      pop\n      tag_48\n      tag_49\n      jump\t// in\n    tag_48:\n      mload(0x40)\n      tag_50\n      swap2\n      swap1\n      tag_51\n      jump\t// in\n    tag_50:\n      mload(0x40)\n      dup1\n      swap2\n      sub\n      swap1\n      return\n        /* \"@openzeppelin/contracts/access/Ownable.sol\":2293:2394  function renounceOwnership() public virtual onlyOwner {... */\n    tag_8:\n      callvalue\n      dup1\n      iszero\n      tag_52\n      jumpi\n      0x00\n      dup1\n      revert\n    tag_52:\n      pop\n      tag_53\n      tag_54\n      jump\t// in\n    tag_53:\n      stop\n        /* \"contracts/BadSammyNFTStore.sol\":1324:1352  IERC20 public immutable USDC */\n    tag_9:\n      callvalue\n      dup1\n      iszero\n      tag_55\n      jumpi\n      0x00\n      dup1\n      revert\n    tag_55:\n      pop\n      tag_56\n      tag_57\n      jump\t// in\n    tag_56:\n      mload(0x40)\n      tag_58\n      swap2\n      swap1\n      tag_59\n      jump\t// in\n    tag_58:\n      mload(0x40)\n      dup1\n      swap2\n      sub\n      swap1\n      return\n        /* \"@openzeppelin/contracts/access/Ownable.sol\":1638:1723  function owner() public view virtual returns (address) {... */\n    tag_10:\n      callvalue\n      dup1\n      iszero\n      tag_60\n      jumpi\n      0x00\n      dup1\n      revert\n    tag_60:\n      pop\n      tag_61\n      tag_62\n      jump\t// in\n    tag_61:\n      mload(0x40)\n      tag_63\n      swap2\n      swap1\n      tag_64\n      jump\t// in\n    tag_63:\n      mload(0x40)\n      dup1\n      swap2\n      sub\n      swap1\n      return\n        /* \"contracts/BadSammyNFTStore.sol\":2504:2799  function setTier(... */\n    tag_11:\n      callvalue\n      dup1\n      iszero\n      tag_65\n      jumpi\n      0x00\n      dup1\n      revert\n    tag_65:\n      pop\n      tag_66\n      0x04\n      dup1\n      calldatasize\n      sub\n      dup2\n      add\n      swap1\n      tag_67\n      swap2\n      swap1\n      tag_68\n      jump\t// in\n    tag_67:\n      tag_69\n      jump\t// in\n    tag_66:\n      stop\n        /* \"contracts/BadSammyNFTStore.sol\":4944:5200  function withdrawNFT(uint256 tierId, uint256 tokenId, address to) external onlyOwner {... */\n    tag_12:\n      callvalue\n      dup1\n      iszero\n      tag_70\n      jumpi\n      0x00\n      dup1\n      revert\n    tag_70:\n      pop\n      tag_71\n      0x04\n      dup1\n      calldatasize\n      sub\n      dup2\n      add\n      swap1\n      tag_72\n      swap2\n      swap1\n      tag_73\n      jump\t// in\n    tag_72:\n      tag_74\n      jump\t// in\n    tag_71:\n      stop\n        /* \"contracts/BadSammyNFTStore.sol\":3596:4067  function buyWithUSDC(uint256 tierId) public nonReentrant {... */\n    tag_13:\n      callvalue\n      dup1\n      iszero\n      tag_75\n      jumpi\n      0x00\n      dup1\n      revert\n    tag_75:\n      pop\n      tag_76\n      0x04\n      dup1\n      calldatasize\n      sub\n      dup2\n      add\n      swap1\n      tag_77\n      swap2\n      swap1\n      tag_26\n      jump\t// in\n    tag_77:\n      tag_78\n      jump\t// in\n    tag_76:\n      stop\n        /* \"contracts/BadSammyNFTStore.sol\":4073:4638  function buyWithUSDCPermit(... */\n    tag_14:\n      callvalue\n      dup1\n      iszero\n      tag_79\n      jumpi\n      0x00\n      dup1\n      revert\n    tag_79:\n      pop\n      tag_80\n      0x04\n      dup1\n      calldatasize\n      sub\n      dup2\n      add\n      swap1\n      tag_81\n      swap2\n      swap1\n      tag_82\n      jump\t// in\n    tag_81:\n      tag_83\n      jump\t// in\n    tag_80:\n      stop\n        /* \"contracts/BadSammyNFTStore.sol\":5206:5752  function withdrawN(uint256 tierId, uint256 quantity, address to) external onlyOwner {... */\n    tag_15:\n      callvalue\n      dup1\n      iszero\n      tag_84\n      jumpi\n      0x00\n      dup1\n      revert\n    tag_84:\n      pop\n      tag_85\n      0x04\n      dup1\n      calldatasize\n      sub\n      dup2\n      add\n      swap1\n      tag_86\n      swap2\n      swap1\n      tag_73\n      jump\t// in\n    tag_86:\n      tag_87\n      jump\t// in\n    tag_85:\n      stop\n        /* \"contracts/BadSammyNFTStore.sol\":2335:2498  function setTreasury(address payable _treasury) external onlyOwner {... */\n    tag_16:\n      callvalue\n      dup1\n      iszero\n      tag_88\n      jumpi\n      0x00\n      dup1\n      revert\n    tag_88:\n      pop\n      tag_89\n      0x04\n      dup1\n      calldatasize\n      sub\n      dup2\n      add\n      swap1\n      tag_90\n      swap2\n      swap1\n      tag_91\n      jump\t// in\n    tag_90:\n      tag_92\n      jump\t// in\n    tag_89:\n      stop\n        /* \"@openzeppelin/contracts/access/Ownable.sol\":2543:2758  function transferOwnership(address newOwner) public virtual onlyOwner {... */\n    tag_17:\n      callvalue\n      dup1\n      iszero\n      tag_93\n      jumpi\n      0x00\n      dup1\n      revert\n    tag_93:\n      pop\n      tag_94\n      0x04\n      dup1\n      calldatasize\n      sub\n      dup2\n      add\n      swap1\n      tag_95\n      swap2\n      swap1\n      tag_96\n      jump\t// in\n    tag_95:\n      tag_97\n      jump\t// in\n    tag_94:\n      stop\n        /* \"contracts/BadSammyNFTStore.sol\":1216:1253  mapping(uint256 => Tier) public tiers */\n    tag_27:\n      mstore(0x20, 0x02)\n      dup1\n      0x00\n      mstore\n      keccak256(0x00, 0x40)\n      0x00\n      swap2\n      pop\n      swap1\n      pop\n      dup1\n      0x00\n      add\n      0x00\n      swap1\n      sload\n      swap1\n      0x0100\n      exp\n      swap1\n      div\n      0xffffffffffffffffffffffffffffffffffffffff\n      and\n      swap1\n      dup1\n      0x01\n      add\n      sload\n      swap1\n      dup1\n      0x02\n      add\n      0x00\n      swap1\n      sload\n      swap1\n      0x0100\n      exp\n      swap1\n      div\n      0xff\n      and\n      swap1\n      pop\n      dup4\n      jump\t// out\n        /* \"contracts/BadSammyNFTStore.sol\":6272:6460  function onERC721Received(address, address, uint256, bytes calldata) ... */\n    tag_34:\n        /* \"contracts/BadSammyNFTStore.sol\":6382:6388  bytes4 */\n      0x00\n        /* \"contracts/BadSammyNFTStore.sol\":6412:6453  IERC721Receiver.onERC721Received.selector */\n      shl(0xe0, 0x150b7a02)\n        /* \"contracts/BadSammyNFTStore.sol\":6405:6453  return IERC721Receiver.onERC721Received.selector */\n      swap1\n      pop\n        /* \"contracts/BadSammyNFTStore.sol\":6272:6460  function onERC721Received(address, address, uint256, bytes calldata) ... */\n      swap6\n      swap5\n      pop\n      pop\n      pop\n      pop\n      pop\n      jump\t// out\n        /* \"contracts/BadSammyNFTStore.sol\":5758:6238  function withdrawAll(uint256 tierId, address to) external onlyOwner {... */\n    tag_41:\n        /* \"@openzeppelin/contracts/access/Ownable.sol\":1531:1544  _checkOwner() */\n      tag_100\n        /* \"@openzeppelin/contracts/access/Ownable.sol\":1531:1542  _checkOwner */\n      tag_101\n        /* \"@openzeppelin/contracts/access/Ownable.sol\":1531:1544  _checkOwner() */\n      jump\t// in\n    tag_100:\n        /* \"contracts/BadSammyNFTStore.sol\":5836:5849  Tier memory t */\n      0x00\n        /* \"contracts/BadSammyNFTStore.sol\":5852:5857  tiers */\n      0x02\n        /* \"contracts/BadSammyNFTStore.sol\":5852:5865  tiers[tierId] */\n      0x00\n        /* \"contracts/BadSammyNFTStore.sol\":5858:5864  tierId */\n      dup5\n        /* \"contracts/BadSammyNFTStore.sol\":5852:5865  tiers[tierId] */\n      dup2\n      mstore\n      0x20\n      add\n      swap1\n      dup2\n      mstore\n      0x20\n      add\n      0x00\n      keccak256\n        /* \"contracts/BadSammyNFTStore.sol\":5836:5865  Tier memory t = tiers[tierId] */\n      mload(0x40)\n      dup1\n      0x60\n      add\n      0x40\n      mstore\n      swap1\n      dup2\n      0x00\n      dup3\n      add\n      0x00\n      swap1\n      sload\n      swap1\n      0x0100\n      exp\n      swap1\n      div\n      0xffffffffffffffffffffffffffffffffffffffff\n      and\n      0xffffffffffffffffffffffffffffffffffffffff\n      and\n      0xffffffffffffffffffffffffffffffffffffffff\n      and\n      dup2\n      mstore\n      0x20\n      add\n      0x01\n      dup3\n      add\n      sload\n      dup2\n      mstore\n      0x20\n      add\n      0x02\n      dup3\n      add\n      0x00\n      swap1\n      sload\n      swap1\n      0x0100\n      exp\n      swap1\n      div\n      0xff\n      and\n      iszero\n      iszero\n      iszero\n      iszero\n      dup2\n      mstore\n      pop\n      pop\n      swap1\n      pop\n        /* \"contracts/BadSammyNFTStore.sol\":5896:5897  0 */\n      0x00\n        /* \"contracts/BadSammyNFTStore.sol\":5879:5898  t.nft == address(0) */\n      0xffffffffffffffffffffffffffffffffffffffff\n      and\n        /* \"contracts/BadSammyNFTStore.sol\":5879:5880  t */\n      dup2\n        /* \"contracts/BadSammyNFTStore.sol\":5879:5884  t.nft */\n      0x00\n      add\n      mload\n        /* \"contracts/BadSammyNFTStore.sol\":5879:5898  t.nft == address(0) */\n      0xffffffffffffffffffffffffffffffffffffffff\n      and\n      sub\n        /* \"contracts/BadSammyNFTStore.sol\":5875:5920  if (t.nft == address(0)) revert InvalidTier() */\n      tag_103\n      jumpi\n        /* \"contracts/BadSammyNFTStore.sol\":5907:5920  InvalidTier() */\n      mload(0x40)\n      0xe142361700000000000000000000000000000000000000000000000000000000\n      dup2\n      mstore\n      0x04\n      add\n      mload(0x40)\n      dup1\n      swap2\n      sub\n      swap1\n      revert\n        /* \"contracts/BadSammyNFTStore.sol\":5875:5920  if (t.nft == address(0)) revert InvalidTier() */\n    tag_103:\n        /* \"contracts/BadSammyNFTStore.sol\":5931:5952  IERC721Enumerable nft */\n      0x00\n        /* \"contracts/BadSammyNFTStore.sol\":5973:5974  t */\n      dup2\n        /* \"contracts/BadSammyNFTStore.sol\":5973:5978  t.nft */\n      0x00\n      add\n      mload\n        /* \"contracts/BadSammyNFTStore.sol\":5931:5979  IERC721Enumerable nft = IERC721Enumerable(t.nft) */\n      swap1\n      pop\n        /* \"contracts/BadSammyNFTStore.sol\":5989:6000  uint256 bal */\n      0x00\n        /* \"contracts/BadSammyNFTStore.sol\":6003:6006  nft */\n      dup2\n        /* \"contracts/BadSammyNFTStore.sol\":6003:6016  nft.balanceOf */\n      0xffffffffffffffffffffffffffffffffffffffff\n      and\n      0x70a08231\n        /* \"contracts/BadSammyNFTStore.sol\":6025:6029  this */\n      address\n        /* \"contracts/BadSammyNFTStore.sol\":6003:6031  nft.balanceOf(address(this)) */\n      mload(0x40)\n      dup3\n      0xffffffff\n      and\n      0xe0\n      shl\n      dup2\n      mstore\n      0x04\n      add\n      tag_104\n      swap2\n      swap1\n      tag_64\n      jump\t// in\n    tag_104:\n      0x20\n      mload(0x40)\n      dup1\n      dup4\n      sub\n      dup2\n      dup7\n      gas\n      staticcall\n      iszero\n      dup1\n      iszero\n      tag_106\n      jumpi\n      returndatasize\n      0x00\n      dup1\n      returndatacopy\n      revert(0x00, returndatasize)\n    tag_106:\n      pop\n      pop\n      pop\n      pop\n      mload(0x40)\n      returndatasize\n      not(0x1f)\n      0x1f\n      dup3\n      add\n      and\n      dup3\n      add\n      dup1\n      0x40\n      mstore\n      pop\n      dup2\n      add\n      swap1\n      tag_107\n      swap2\n      swap1\n      tag_108\n      jump\t// in\n    tag_107:\n        /* \"contracts/BadSammyNFTStore.sol\":5989:6031  uint256 bal = nft.balanceOf(address(this)) */\n      swap1\n      pop\n        /* \"contracts/BadSammyNFTStore.sol\":6046:6055  uint256 i */\n      0x00\n        /* \"contracts/BadSammyNFTStore.sol\":6041:6232  for (uint256 i = 0; i < bal; i++) {... */\n    tag_109:\n        /* \"contracts/BadSammyNFTStore.sol\":6065:6068  bal */\n      dup2\n        /* \"contracts/BadSammyNFTStore.sol\":6061:6062  i */\n      dup2\n        /* \"contracts/BadSammyNFTStore.sol\":6061:6068  i < bal */\n      lt\n        /* \"contracts/BadSammyNFTStore.sol\":6041:6232  for (uint256 i = 0; i < bal; i++) {... */\n      iszero\n      tag_110\n      jumpi\n        /* \"contracts/BadSammyNFTStore.sol\":6089:6104  uint256 tokenId */\n      0x00\n        /* \"contracts/BadSammyNFTStore.sol\":6107:6110  nft */\n      dup4\n        /* \"contracts/BadSammyNFTStore.sol\":6107:6130  nft.tokenOfOwnerByIndex */\n      0xffffffffffffffffffffffffffffffffffffffff\n      and\n      0x2f745c59\n        /* \"contracts/BadSammyNFTStore.sol\":6139:6143  this */\n      address\n        /* \"contracts/BadSammyNFTStore.sol\":6146:6147  0 */\n      0x00\n        /* \"contracts/BadSammyNFTStore.sol\":6107:6148  nft.tokenOfOwnerByIndex(address(this), 0) */\n      mload(0x40)\n      dup4\n      0xffffffff\n      and\n      0xe0\n      shl\n      dup2\n      mstore\n      0x04\n      add\n      tag_112\n      swap3\n      swap2\n      swap1\n      tag_113\n      jump\t// in\n    tag_112:\n      0x20\n      mload(0x40)\n      dup1\n      dup4\n      sub\n      dup2\n      dup7\n      gas\n      staticcall\n      iszero\n      dup1\n      iszero\n      tag_115\n      jumpi\n      returndatasize\n      0x00\n      dup1\n      returndatacopy\n      revert(0x00, returndatasize)\n    tag_115:\n      pop\n      pop\n      pop\n      pop\n      mload(0x40)\n      returndatasize\n      not(0x1f)\n      0x1f\n      dup3\n      add\n      and\n      dup3\n      add\n      dup1\n      0x40\n      mstore\n      pop\n      dup2\n      add\n      swap1\n      tag_116\n      swap2\n      swap1\n      tag_108\n      jump\t// in\n    tag_116:\n        /* \"contracts/BadSammyNFTStore.sol\":6089:6148  uint256 tokenId = nft.tokenOfOwnerByIndex(address(this), 0) */\n      swap1\n      pop\n        /* \"contracts/BadSammyNFTStore.sol\":6170:6171  t */\n      dup5\n        /* \"contracts/BadSammyNFTStore.sol\":6170:6175  t.nft */\n      0x00\n      add\n      mload\n        /* \"contracts/BadSammyNFTStore.sol\":6162:6193  IERC721(t.nft).safeTransferFrom */\n      0xffffffffffffffffffffffffffffffffffffffff\n      and\n      0x42842e0e\n        /* \"contracts/BadSammyNFTStore.sol\":6202:6206  this */\n      address\n        /* \"contracts/BadSammyNFTStore.sol\":6209:6211  to */\n      dup9\n        /* \"contracts/BadSammyNFTStore.sol\":6213:6220  tokenId */\n      dup5\n        /* \"contracts/BadSammyNFTStore.sol\":6162:6221  IERC721(t.nft).safeTransferFrom(address(this), to, tokenId) */\n      mload(0x40)\n      dup5\n      0xffffffff\n      and\n      0xe0\n      shl\n      dup2\n      mstore\n      0x04\n      add\n      tag_117\n      swap4\n      swap3\n      swap2\n      swap1\n      tag_118\n      jump\t// in\n    tag_117:\n      0x00\n      mload(0x40)\n      dup1\n      dup4\n      sub\n      dup2\n      0x00\n      dup8\n      dup1\n      extcodesize\n      iszero\n      dup1\n      iszero\n      tag_119\n      jumpi\n      0x00\n      dup1\n      revert\n    tag_119:\n      pop\n      gas\n      call\n      iszero\n      dup1\n      iszero\n      tag_121\n      jumpi\n      returndatasize\n      0x00\n      dup1\n      returndatacopy\n      revert(0x00, returndatasize)\n    tag_121:\n      pop\n      pop\n      pop\n      pop\n        /* \"contracts/BadSammyNFTStore.sol\":6075:6232  {... */\n      pop\n        /* \"contracts/BadSammyNFTStore.sol\":6070:6073  i++ */\n      dup1\n      dup1\n      tag_122\n      swap1\n      tag_123\n      jump\t// in\n    tag_122:\n      swap2\n      pop\n      pop\n        /* \"contracts/BadSammyNFTStore.sol\":6041:6232  for (uint256 i = 0; i < bal; i++) {... */\n      jump(tag_109)\n    tag_110:\n      pop\n        /* \"contracts/BadSammyNFTStore.sol\":5826:6238  {... */\n      pop\n      pop\n      pop\n        /* \"contracts/BadSammyNFTStore.sol\":5758:6238  function withdrawAll(uint256 tierId, address to) external onlyOwner {... */\n      pop\n      pop\n      jump\t// out\n        /* \"contracts/BadSammyNFTStore.sol\":4762:4938  function sweepERC20(address token, address to) external onlyOwner {... */\n    tag_46:\n        /* \"@openzeppelin/contracts/access/Ownable.sol\":1531:1544  _checkOwner() */\n      tag_125\n        /* \"@openzeppelin/contracts/access/Ownable.sol\":1531:1542  _checkOwner */\n      tag_101\n        /* \"@openzeppelin/contracts/access/Ownable.sol\":1531:1544  _checkOwner() */\n      jump\t// in\n    tag_125:\n        /* \"contracts/BadSammyNFTStore.sol\":4838:4849  uint256 bal */\n      0x00\n        /* \"contracts/BadSammyNFTStore.sol\":4859:4864  token */\n      dup3\n        /* \"contracts/BadSammyNFTStore.sol\":4852:4875  IERC20(token).balanceOf */\n      0xffffffffffffffffffffffffffffffffffffffff\n      and\n      0x70a08231\n        /* \"contracts/BadSammyNFTStore.sol\":4884:4888  this */\n      address\n        /* \"contracts/BadSammyNFTStore.sol\":4852:4890  IERC20(token).balanceOf(address(this)) */\n      mload(0x40)\n      dup3\n      0xffffffff\n      and\n      0xe0\n      shl\n      dup2\n      mstore\n      0x04\n      add\n      tag_127\n      swap2\n      swap1\n      tag_64\n      jump\t// in\n    tag_127:\n      0x20\n      mload(0x40)\n      dup1\n      dup4\n      sub\n      dup2\n      dup7\n      gas\n      staticcall\n      iszero\n      dup1\n      iszero\n      tag_129\n      jumpi\n      returndatasize\n      0x00\n      dup1\n      returndatacopy\n      revert(0x00, returndatasize)\n    tag_129:\n      pop\n      pop\n      pop\n      pop\n      mload(0x40)\n      returndatasize\n      not(0x1f)\n      0x1f\n      dup3\n      add\n      and\n      dup3\n      add\n      dup1\n      0x40\n      mstore\n      pop\n      dup2\n      add\n      swap1\n      tag_130\n      swap2\n      swap1\n      tag_108\n      jump\t// in\n    tag_130:\n        /* \"contracts/BadSammyNFTStore.sol\":4838:4890  uint256 bal = IERC20(token).balanceOf(address(this)) */\n      swap1\n      pop\n        /* \"contracts/BadSammyNFTStore.sol\":4907:4912  token */\n      dup3\n        /* \"contracts/BadSammyNFTStore.sol\":4900:4922  IERC20(token).transfer */\n      0xffffffffffffffffffffffffffffffffffffffff\n      and\n      0xa9059cbb\n        /* \"contracts/BadSammyNFTStore.sol\":4923:4925  to */\n      dup4\n        /* \"contracts/BadSammyNFTStore.sol\":4927:4930  bal */\n      dup4\n        /* \"contracts/BadSammyNFTStore.sol\":4900:4931  IERC20(token).transfer(to, bal) */\n      mload(0x40)\n      dup4\n      0xffffffff\n      and\n      0xe0\n      shl\n      dup2\n      mstore\n      0x04\n      add\n      tag_131\n      swap3\n      swap2\n      swap1\n      tag_132\n      jump\t// in\n    tag_131:\n      0x20\n      mload(0x40)\n      dup1\n      dup4\n      sub\n      dup2\n      0x00\n      dup8\n      gas\n      call\n      iszero\n      dup1\n      iszero\n      tag_134\n      jumpi\n      returndatasize\n      0x00\n      dup1\n      returndatacopy\n      revert(0x00, returndatasize)\n    tag_134:\n      pop\n      pop\n      pop\n      pop\n      mload(0x40)\n      returndatasize\n      not(0x1f)\n      0x1f\n      dup3\n      add\n      and\n      dup3\n      add\n      dup1\n      0x40\n      mstore\n      pop\n      dup2\n      add\n      swap1\n      tag_135\n      swap2\n      swap1\n      tag_136\n      jump\t// in\n    tag_135:\n      pop\n        /* \"contracts/BadSammyNFTStore.sol\":4828:4938  {... */\n      pop\n        /* \"contracts/BadSammyNFTStore.sol\":4762:4938  function sweepERC20(address token, address to) external onlyOwner {... */\n      pop\n      pop\n      jump\t// out\n        /* \"contracts/BadSammyNFTStore.sol\":1260:1291  address payable public treasury */\n    tag_49:\n      0x03\n      0x00\n      swap1\n      sload\n      swap1\n      0x0100\n      exp\n      swap1\n      div\n      0xffffffffffffffffffffffffffffffffffffffff\n      and\n      dup2\n      jump\t// out\n        /* \"@openzeppelin/contracts/access/Ownable.sol\":2293:2394  function renounceOwnership() public virtual onlyOwner {... */\n    tag_54:\n        /* \"@openzeppelin/contracts/access/Ownable.sol\":1531:1544  _checkOwner() */\n      tag_138\n        /* \"@openzeppelin/contracts/access/Ownable.sol\":1531:1542  _checkOwner */\n      tag_101\n        /* \"@openzeppelin/contracts/access/Ownable.sol\":1531:1544  _checkOwner() */\n      jump\t// in\n    tag_138:\n        /* \"@openzeppelin/contracts/access/Ownable.sol\":2357:2387  _transferOwnership(address(0)) */\n      tag_140\n        /* \"@openzeppelin/contracts/access/Ownable.sol\":2384:2385  0 */\n      0x00\n        /* \"@openzeppelin/contracts/access/Ownable.sol\":2357:2375  _transferOwnership */\n      tag_141\n        /* \"@openzeppelin/contracts/access/Ownable.sol\":2357:2387  _transferOwnership(address(0)) */\n      jump\t// in\n    tag_140:\n        /* \"@openzeppelin/contracts/access/Ownable.sol\":2293:2394  function renounceOwnership() public virtual onlyOwner {... */\n      jump\t// out\n        /* \"contracts/BadSammyNFTStore.sol\":1324:1352  IERC20 public immutable USDC */\n    tag_57:\n      immutable(\"0xea1c3a463a334d4502a6bc7c1ce6676ab071cb26e08d8d603278a360d97dc14c\")\n      dup2\n      jump\t// out\n        /* \"@openzeppelin/contracts/access/Ownable.sol\":1638:1723  function owner() public view virtual returns (address) {... */\n    tag_62:\n        /* \"@openzeppelin/contracts/access/Ownable.sol\":1684:1691  address */\n      0x00\n        /* \"@openzeppelin/contracts/access/Ownable.sol\":1710:1716  _owner */\n      0x01\n      0x00\n      swap1\n      sload\n      swap1\n      0x0100\n      exp\n      swap1\n      div\n      0xffffffffffffffffffffffffffffffffffffffff\n      and\n        /* \"@openzeppelin/contracts/access/Ownable.sol\":1703:1716  return _owner */\n      swap1\n      pop\n        /* \"@openzeppelin/contracts/access/Ownable.sol\":1638:1723  function owner() public view virtual returns (address) {... */\n      swap1\n      jump\t// out\n        /* \"contracts/BadSammyNFTStore.sol\":2504:2799  function setTier(... */\n    tag_69:\n        /* \"@openzeppelin/contracts/access/Ownable.sol\":1531:1544  _checkOwner() */\n      tag_144\n        /* \"@openzeppelin/contracts/access/Ownable.sol\":1531:1542  _checkOwner */\n      tag_101\n        /* \"@openzeppelin/contracts/access/Ownable.sol\":1531:1544  _checkOwner() */\n      jump\t// in\n    tag_144:\n        /* \"contracts/BadSammyNFTStore.sol\":2678:2792  Tier({... */\n      mload(0x40)\n      dup1\n      0x60\n      add\n      0x40\n      mstore\n      dup1\n        /* \"contracts/BadSammyNFTStore.sol\":2702:2712  nftAddress */\n      dup5\n        /* \"contracts/BadSammyNFTStore.sol\":2678:2792  Tier({... */\n      0xffffffffffffffffffffffffffffffffffffffff\n      and\n      dup2\n      mstore\n      0x20\n      add\n        /* \"contracts/BadSammyNFTStore.sol\":2737:2751  priceUsdcUnits */\n      dup4\n        /* \"contracts/BadSammyNFTStore.sol\":2678:2792  Tier({... */\n      dup2\n      mstore\n      0x20\n      add\n        /* \"contracts/BadSammyNFTStore.sol\":2774:2781  enabled */\n      dup3\n        /* \"contracts/BadSammyNFTStore.sol\":2678:2792  Tier({... */\n      iszero\n      iszero\n      dup2\n      mstore\n      pop\n        /* \"contracts/BadSammyNFTStore.sol\":2662:2667  tiers */\n      0x02\n        /* \"contracts/BadSammyNFTStore.sol\":2662:2675  tiers[tierId] */\n      0x00\n        /* \"contracts/BadSammyNFTStore.sol\":2668:2674  tierId */\n      dup7\n        /* \"contracts/BadSammyNFTStore.sol\":2662:2675  tiers[tierId] */\n      dup2\n      mstore\n      0x20\n      add\n      swap1\n      dup2\n      mstore\n      0x20\n      add\n      0x00\n      keccak256\n        /* \"contracts/BadSammyNFTStore.sol\":2662:2792  tiers[tierId] = Tier({... */\n      0x00\n      dup3\n      add\n      mload\n      dup2\n      0x00\n      add\n      exp(0x0100, 0x00)\n      dup2\n      sload\n      dup2\n      0xffffffffffffffffffffffffffffffffffffffff\n      mul\n      not\n      and\n      swap1\n      dup4\n      0xffffffffffffffffffffffffffffffffffffffff\n      and\n      mul\n      or\n      swap1\n      sstore\n      pop\n      0x20\n      dup3\n      add\n      mload\n      dup2\n      0x01\n      add\n      sstore\n      0x40\n      dup3\n      add\n      mload\n      dup2\n      0x02\n      add\n      exp(0x0100, 0x00)\n      dup2\n      sload\n      dup2\n      0xff\n      mul\n      not\n      and\n      swap1\n      dup4\n      iszero\n      iszero\n      mul\n      or\n      swap1\n      sstore\n      pop\n      swap1\n      pop\n      pop\n        /* \"contracts/BadSammyNFTStore.sol\":2504:2799  function setTier(... */\n      pop\n      pop\n      pop\n      pop\n      jump\t// out\n        /* \"contracts/BadSammyNFTStore.sol\":4944:5200  function withdrawNFT(uint256 tierId, uint256 tokenId, address to) external onlyOwner {... */\n    tag_74:\n        /* \"@openzeppelin/contracts/access/Ownable.sol\":1531:1544  _checkOwner() */\n      tag_147\n        /* \"@openzeppelin/contracts/access/Ownable.sol\":1531:1542  _checkOwner */\n      tag_101\n        /* \"@openzeppelin/contracts/access/Ownable.sol\":1531:1544  _checkOwner() */\n      jump\t// in\n    tag_147:\n        /* \"contracts/BadSammyNFTStore.sol\":5039:5052  Tier memory t */\n      0x00\n        /* \"contracts/BadSammyNFTStore.sol\":5055:5060  tiers */\n      0x02\n        /* \"contracts/BadSammyNFTStore.sol\":5055:5068  tiers[tierId] */\n      0x00\n        /* \"contracts/BadSammyNFTStore.sol\":5061:5067  tierId */\n      dup6\n        /* \"contracts/BadSammyNFTStore.sol\":5055:5068  tiers[tierId] */\n      dup2\n      mstore\n      0x20\n      add\n      swap1\n      dup2\n      mstore\n      0x20\n      add\n      0x00\n      keccak256\n        /* \"contracts/BadSammyNFTStore.sol\":5039:5068  Tier memory t = tiers[tierId] */\n      mload(0x40)\n      dup1\n      0x60\n      add\n      0x40\n      mstore\n      swap1\n      dup2\n      0x00\n      dup3\n      add\n      0x00\n      swap1\n      sload\n      swap1\n      0x0100\n      exp\n      swap1\n      div\n      0xffffffffffffffffffffffffffffffffffffffff\n      and\n      0xffffffffffffffffffffffffffffffffffffffff\n      and\n      0xffffffffffffffffffffffffffffffffffffffff\n      and\n      dup2\n      mstore\n      0x20\n      add\n      0x01\n      dup3\n      add\n      sload\n      dup2\n      mstore\n      0x20\n      add\n      0x02\n      dup3\n      add\n      0x00\n      swap1\n      sload\n      swap1\n      0x0100\n      exp\n      swap1\n      div\n      0xff\n      and\n      iszero\n      iszero\n      iszero\n      iszero\n      dup2\n      mstore\n      pop\n      pop\n      swap1\n      pop\n        /* \"contracts/BadSammyNFTStore.sol\":5099:5100  0 */\n      0x00\n        /* \"contracts/BadSammyNFTStore.sol\":5082:5101  t.nft == address(0) */\n      0xffffffffffffffffffffffffffffffffffffffff\n      and\n        /* \"contracts/BadSammyNFTStore.sol\":5082:5083  t */\n      dup2\n        /* \"contracts/BadSammyNFTStore.sol\":5082:5087  t.nft */\n      0x00\n      add\n      mload\n        /* \"contracts/BadSammyNFTStore.sol\":5082:5101  t.nft == address(0) */\n      0xffffffffffffffffffffffffffffffffffffffff\n      and\n      sub\n        /* \"contracts/BadSammyNFTStore.sol\":5078:5123  if (t.nft == address(0)) revert InvalidTier() */\n      tag_149\n      jumpi\n        /* \"contracts/BadSammyNFTStore.sol\":5110:5123  InvalidTier() */\n      mload(0x40)\n      0xe142361700000000000000000000000000000000000000000000000000000000\n      dup2\n      mstore\n      0x04\n      add\n      mload(0x40)\n      dup1\n      swap2\n      sub\n      swap1\n      revert\n        /* \"contracts/BadSammyNFTStore.sol\":5078:5123  if (t.nft == address(0)) revert InvalidTier() */\n    tag_149:\n        /* \"contracts/BadSammyNFTStore.sol\":5142:5143  t */\n      dup1\n        /* \"contracts/BadSammyNFTStore.sol\":5142:5147  t.nft */\n      0x00\n      add\n      mload\n        /* \"contracts/BadSammyNFTStore.sol\":5134:5165  IERC721(t.nft).safeTransferFrom */\n      0xffffffffffffffffffffffffffffffffffffffff\n      and\n      0x42842e0e\n        /* \"contracts/BadSammyNFTStore.sol\":5174:5178  this */\n      address\n        /* \"contracts/BadSammyNFTStore.sol\":5181:5183  to */\n      dup5\n        /* \"contracts/BadSammyNFTStore.sol\":5185:5192  tokenId */\n      dup7\n        /* \"contracts/BadSammyNFTStore.sol\":5134:5193  IERC721(t.nft).safeTransferFrom(address(this), to, tokenId) */\n      mload(0x40)\n      dup5\n      0xffffffff\n      and\n      0xe0\n      shl\n      dup2\n      mstore\n      0x04\n      add\n      tag_150\n      swap4\n      swap3\n      swap2\n      swap1\n      tag_118\n      jump\t// in\n    tag_150:\n      0x00\n      mload(0x40)\n      dup1\n      dup4\n      sub\n      dup2\n      0x00\n      dup8\n      dup1\n      extcodesize\n      iszero\n      dup1\n      iszero\n      tag_151\n      jumpi\n      0x00\n      dup1\n      revert\n    tag_151:\n      pop\n      gas\n      call\n      iszero\n      dup1\n      iszero\n      tag_153\n      jumpi\n      returndatasize\n      0x00\n      dup1\n      returndatacopy\n      revert(0x00, returndatasize)\n    tag_153:\n      pop\n      pop\n      pop\n      pop\n        /* \"contracts/BadSammyNFTStore.sol\":5029:5200  {... */\n      pop\n        /* \"contracts/BadSammyNFTStore.sol\":4944:5200  function withdrawNFT(uint256 tierId, uint256 tokenId, address to) external onlyOwner {... */\n      pop\n      pop\n      pop\n      jump\t// out\n        /* \"contracts/BadSammyNFTStore.sol\":3596:4067  function buyWithUSDC(uint256 tierId) public nonReentrant {... */\n    tag_78:\n        /* \"@openzeppelin/contracts/security/ReentrancyGuard.sol\":2261:2282  _nonReentrantBefore() */\n      tag_155\n        /* \"@openzeppelin/contracts/security/ReentrancyGuard.sol\":2261:2280  _nonReentrantBefore */\n      tag_156\n        /* \"@openzeppelin/contracts/security/ReentrancyGuard.sol\":2261:2282  _nonReentrantBefore() */\n      jump\t// in\n    tag_155:\n        /* \"contracts/BadSammyNFTStore.sol\":3663:3676  Tier memory t */\n      0x00\n        /* \"contracts/BadSammyNFTStore.sol\":3679:3684  tiers */\n      0x02\n        /* \"contracts/BadSammyNFTStore.sol\":3679:3692  tiers[tierId] */\n      0x00\n        /* \"contracts/BadSammyNFTStore.sol\":3685:3691  tierId */\n      dup4\n        /* \"contracts/BadSammyNFTStore.sol\":3679:3692  tiers[tierId] */\n      dup2\n      mstore\n      0x20\n      add\n      swap1\n      dup2\n      mstore\n      0x20\n      add\n      0x00\n      keccak256\n        /* \"contracts/BadSammyNFTStore.sol\":3663:3692  Tier memory t = tiers[tierId] */\n      mload(0x40)\n      dup1\n      0x60\n      add\n      0x40\n      mstore\n      swap1\n      dup2\n      0x00\n      dup3\n      add\n      0x00\n      swap1\n      sload\n      swap1\n      0x0100\n      exp\n      swap1\n      div\n      0xffffffffffffffffffffffffffffffffffffffff\n      and\n      0xffffffffffffffffffffffffffffffffffffffff\n      and\n      0xffffffffffffffffffffffffffffffffffffffff\n      and\n      dup2\n      mstore\n      0x20\n      add\n      0x01\n      dup3\n      add\n      sload\n      dup2\n      mstore\n      0x20\n      add\n      0x02\n      dup3\n      add\n      0x00\n      swap1\n      sload\n      swap1\n      0x0100\n      exp\n      swap1\n      div\n      0xff\n      and\n      iszero\n      iszero\n      iszero\n      iszero\n      dup2\n      mstore\n      pop\n      pop\n      swap1\n      pop\n        /* \"contracts/BadSammyNFTStore.sol\":3723:3724  0 */\n      0x00\n        /* \"contracts/BadSammyNFTStore.sol\":3706:3725  t.nft == address(0) */\n      0xffffffffffffffffffffffffffffffffffffffff\n      and\n        /* \"contracts/BadSammyNFTStore.sol\":3706:3707  t */\n      dup2\n        /* \"contracts/BadSammyNFTStore.sol\":3706:3711  t.nft */\n      0x00\n      add\n      mload\n        /* \"contracts/BadSammyNFTStore.sol\":3706:3725  t.nft == address(0) */\n      0xffffffffffffffffffffffffffffffffffffffff\n      and\n      sub\n        /* \"contracts/BadSammyNFTStore.sol\":3702:3747  if (t.nft == address(0)) revert InvalidTier() */\n      tag_158\n      jumpi\n        /* \"contracts/BadSammyNFTStore.sol\":3734:3747  InvalidTier() */\n      mload(0x40)\n      0xe142361700000000000000000000000000000000000000000000000000000000\n      dup2\n      mstore\n      0x04\n      add\n      mload(0x40)\n      dup1\n      swap2\n      sub\n      swap1\n      revert\n        /* \"contracts/BadSammyNFTStore.sol\":3702:3747  if (t.nft == address(0)) revert InvalidTier() */\n    tag_158:\n        /* \"contracts/BadSammyNFTStore.sol\":3762:3763  t */\n      dup1\n        /* \"contracts/BadSammyNFTStore.sol\":3762:3771  t.enabled */\n      0x40\n      add\n      mload\n        /* \"contracts/BadSammyNFTStore.sol\":3761:3771  !t.enabled */\n      iszero\n        /* \"contracts/BadSammyNFTStore.sol\":3761:3791  !t.enabled || t.priceUsdc == 0 */\n      dup1\n      tag_159\n      jumpi\n      pop\n        /* \"contracts/BadSammyNFTStore.sol\":3790:3791  0 */\n      0x00\n        /* \"contracts/BadSammyNFTStore.sol\":3775:3776  t */\n      dup2\n        /* \"contracts/BadSammyNFTStore.sol\":3775:3786  t.priceUsdc */\n      0x20\n      add\n      mload\n        /* \"contracts/BadSammyNFTStore.sol\":3775:3791  t.priceUsdc == 0 */\n      eq\n        /* \"contracts/BadSammyNFTStore.sol\":3761:3791  !t.enabled || t.priceUsdc == 0 */\n    tag_159:\n        /* \"contracts/BadSammyNFTStore.sol\":3757:3814  if (!t.enabled || t.priceUsdc == 0) revert TierDisabled() */\n      iszero\n      tag_160\n      jumpi\n        /* \"contracts/BadSammyNFTStore.sol\":3800:3814  TierDisabled() */\n      mload(0x40)\n      0x94d366b500000000000000000000000000000000000000000000000000000000\n      dup2\n      mstore\n      0x04\n      add\n      mload(0x40)\n      dup1\n      swap2\n      sub\n      swap1\n      revert\n        /* \"contracts/BadSammyNFTStore.sol\":3757:3814  if (!t.enabled || t.priceUsdc == 0) revert TierDisabled() */\n    tag_160:\n        /* \"contracts/BadSammyNFTStore.sol\":3825:3840  uint256 tokenId */\n      0x00\n        /* \"contracts/BadSammyNFTStore.sol\":3843:3860  _nextToken(t.nft) */\n      tag_161\n        /* \"contracts/BadSammyNFTStore.sol\":3854:3855  t */\n      dup3\n        /* \"contracts/BadSammyNFTStore.sol\":3854:3859  t.nft */\n      0x00\n      add\n      mload\n        /* \"contracts/BadSammyNFTStore.sol\":3843:3853  _nextToken */\n      tag_162\n        /* \"contracts/BadSammyNFTStore.sol\":3843:3860  _nextToken(t.nft) */\n      jump\t// in\n    tag_161:\n        /* \"contracts/BadSammyNFTStore.sol\":3825:3860  uint256 tokenId = _nextToken(t.nft) */\n      swap1\n      pop\n        /* \"contracts/BadSammyNFTStore.sol\":3871:3932  USDC.safeTransferFrom(msg.sender, address(this), t.priceUsdc) */\n      tag_163\n        /* \"contracts/BadSammyNFTStore.sol\":3893:3903  msg.sender */\n      caller\n        /* \"contracts/BadSammyNFTStore.sol\":3913:3917  this */\n      address\n        /* \"contracts/BadSammyNFTStore.sol\":3920:3921  t */\n      dup5\n        /* \"contracts/BadSammyNFTStore.sol\":3920:3931  t.priceUsdc */\n      0x20\n      add\n      mload\n        /* \"contracts/BadSammyNFTStore.sol\":3871:3875  USDC */\n      immutable(\"0xea1c3a463a334d4502a6bc7c1ce6676ab071cb26e08d8d603278a360d97dc14c\")\n        /* \"contracts/BadSammyNFTStore.sol\":3871:3892  USDC.safeTransferFrom */\n      0xffffffffffffffffffffffffffffffffffffffff\n      and\n      tag_164\n      swap1\n        /* \"contracts/BadSammyNFTStore.sol\":3871:3932  USDC.safeTransferFrom(msg.sender, address(this), t.priceUsdc) */\n      swap4\n      swap3\n      swap2\n      swap1\n      0xffffffff\n      and\n      jump\t// in\n    tag_163:\n        /* \"contracts/BadSammyNFTStore.sol\":3942:3982  USDC.safeTransfer(treasury, t.priceUsdc) */\n      tag_165\n        /* \"contracts/BadSammyNFTStore.sol\":3960:3968  treasury */\n      0x03\n      0x00\n      swap1\n      sload\n      swap1\n      0x0100\n      exp\n      swap1\n      div\n      0xffffffffffffffffffffffffffffffffffffffff\n      and\n        /* \"contracts/BadSammyNFTStore.sol\":3970:3971  t */\n      dup4\n        /* \"contracts/BadSammyNFTStore.sol\":3970:3981  t.priceUsdc */\n      0x20\n      add\n      mload\n        /* \"contracts/BadSammyNFTStore.sol\":3942:3946  USDC */\n      immutable(\"0xea1c3a463a334d4502a6bc7c1ce6676ab071cb26e08d8d603278a360d97dc14c\")\n        /* \"contracts/BadSammyNFTStore.sol\":3942:3959  USDC.safeTransfer */\n      0xffffffffffffffffffffffffffffffffffffffff\n      and\n      tag_166\n      swap1\n        /* \"contracts/BadSammyNFTStore.sol\":3942:3982  USDC.safeTransfer(treasury, t.priceUsdc) */\n      swap3\n      swap2\n      swap1\n      0xffffffff\n      and\n      jump\t// in\n    tag_165:\n        /* \"contracts/BadSammyNFTStore.sol\":4001:4002  t */\n      dup2\n        /* \"contracts/BadSammyNFTStore.sol\":4001:4006  t.nft */\n      0x00\n      add\n      mload\n        /* \"contracts/BadSammyNFTStore.sol\":3993:4024  IERC721(t.nft).safeTransferFrom */\n      0xffffffffffffffffffffffffffffffffffffffff\n      and\n      0x42842e0e\n        /* \"contracts/BadSammyNFTStore.sol\":4033:4037  this */\n      address\n        /* \"contracts/BadSammyNFTStore.sol\":4040:4050  msg.sender */\n      caller\n        /* \"contracts/BadSammyNFTStore.sol\":4052:4059  tokenId */\n      dup5\n        /* \"contracts/BadSammyNFTStore.sol\":3993:4060  IERC721(t.nft).safeTransferFrom(address(this), msg.sender, tokenId) */\n      mload(0x40)\n      dup5\n      0xffffffff\n      and\n      0xe0\n      shl\n      dup2\n      mstore\n      0x04\n      add\n      tag_167\n      swap4\n      swap3\n      swap2\n      swap1\n      tag_118\n      jump\t// in\n    tag_167:\n      0x00\n      mload(0x40)\n      dup1\n      dup4\n      sub\n      dup2\n      0x00\n      dup8\n      dup1\n      extcodesize\n      iszero\n      dup1\n      iszero\n      tag_168\n      jumpi\n      0x00\n      dup1\n      revert\n    tag_168:\n      pop\n      gas\n      call\n      iszero\n      dup1\n      iszero\n      tag_170\n      jumpi\n      returndatasize\n      0x00\n      dup1\n      returndatacopy\n      revert(0x00, returndatasize)\n    tag_170:\n      pop\n      pop\n      pop\n      pop\n        /* \"contracts/BadSammyNFTStore.sol\":3653:4067  {... */\n      pop\n      pop\n        /* \"@openzeppelin/contracts/security/ReentrancyGuard.sol\":2303:2323  _nonReentrantAfter() */\n      tag_171\n        /* \"@openzeppelin/contracts/security/ReentrancyGuard.sol\":2303:2321  _nonReentrantAfter */\n      tag_172\n        /* \"@openzeppelin/contracts/security/ReentrancyGuard.sol\":2303:2323  _nonReentrantAfter() */\n      jump\t// in\n    tag_171:\n        /* \"contracts/BadSammyNFTStore.sol\":3596:4067  function buyWithUSDC(uint256 tierId) public nonReentrant {... */\n      pop\n      jump\t// out\n        /* \"contracts/BadSammyNFTStore.sol\":4073:4638  function buyWithUSDCPermit(... */\n    tag_83:\n        /* \"@openzeppelin/contracts/security/ReentrancyGuard.sol\":2261:2282  _nonReentrantBefore() */\n      tag_174\n        /* \"@openzeppelin/contracts/security/ReentrancyGuard.sol\":2261:2280  _nonReentrantBefore */\n      tag_156\n        /* \"@openzeppelin/contracts/security/ReentrancyGuard.sol\":2261:2282  _nonReentrantBefore() */\n      jump\t// in\n    tag_174:\n        /* \"contracts/BadSammyNFTStore.sol\":4266:4279  Tier memory t */\n      0x00\n        /* \"contracts/BadSammyNFTStore.sol\":4282:4287  tiers */\n      0x02\n        /* \"contracts/BadSammyNFTStore.sol\":4282:4295  tiers[tierId] */\n      0x00\n        /* \"contracts/BadSammyNFTStore.sol\":4288:4294  tierId */\n      dup9\n        /* \"contracts/BadSammyNFTStore.sol\":4282:4295  tiers[tierId] */\n      dup2\n      mstore\n      0x20\n      add\n      swap1\n      dup2\n      mstore\n      0x20\n      add\n      0x00\n      keccak256\n        /* \"contracts/BadSammyNFTStore.sol\":4266:4295  Tier memory t = tiers[tierId] */\n      mload(0x40)\n      dup1\n      0x60\n      add\n      0x40\n      mstore\n      swap1\n      dup2\n      0x00\n      dup3\n      add\n      0x00\n      swap1\n      sload\n      swap1\n      0x0100\n      exp\n      swap1\n      div\n      0xffffffffffffffffffffffffffffffffffffffff\n      and\n      0xffffffffffffffffffffffffffffffffffffffff\n      and\n      0xffffffffffffffffffffffffffffffffffffffff\n      and\n      dup2\n      mstore\n      0x20\n      add\n      0x01\n      dup3\n      add\n      sload\n      dup2\n      mstore\n      0x20\n      add\n      0x02\n      dup3\n      add\n      0x00\n      swap1\n      sload\n      swap1\n      0x0100\n      exp\n      swap1\n      div\n      0xff\n      and\n      iszero\n      iszero\n      iszero\n      iszero\n      dup2\n      mstore\n      pop\n      pop\n      swap1\n      pop\n        /* \"contracts/BadSammyNFTStore.sol\":4326:4327  0 */\n      0x00\n        /* \"contracts/BadSammyNFTStore.sol\":4309:4328  t.nft == address(0) */\n      0xffffffffffffffffffffffffffffffffffffffff\n      and\n        /* \"contracts/BadSammyNFTStore.sol\":4309:4310  t */\n      dup2\n        /* \"contracts/BadSammyNFTStore.sol\":4309:4314  t.nft */\n      0x00\n      add\n      mload\n        /* \"contracts/BadSammyNFTStore.sol\":4309:4328  t.nft == address(0) */\n      0xffffffffffffffffffffffffffffffffffffffff\n      and\n      sub\n        /* \"contracts/BadSammyNFTStore.sol\":4305:4350  if (t.nft == address(0)) revert InvalidTier() */\n      tag_176\n      jumpi\n        /* \"contracts/BadSammyNFTStore.sol\":4337:4350  InvalidTier() */\n      mload(0x40)\n      0xe142361700000000000000000000000000000000000000000000000000000000\n      dup2\n      mstore\n      0x04\n      add\n      mload(0x40)\n      dup1\n      swap2\n      sub\n      swap1\n      revert\n        /* \"contracts/BadSammyNFTStore.sol\":4305:4350  if (t.nft == address(0)) revert InvalidTier() */\n    tag_176:\n        /* \"contracts/BadSammyNFTStore.sol\":4365:4366  t */\n      dup1\n        /* \"contracts/BadSammyNFTStore.sol\":4365:4374  t.enabled */\n      0x40\n      add\n      mload\n        /* \"contracts/BadSammyNFTStore.sol\":4364:4374  !t.enabled */\n      iszero\n        /* \"contracts/BadSammyNFTStore.sol\":4364:4394  !t.enabled || t.priceUsdc == 0 */\n      dup1\n      tag_177\n      jumpi\n      pop\n        /* \"contracts/BadSammyNFTStore.sol\":4393:4394  0 */\n      0x00\n        /* \"contracts/BadSammyNFTStore.sol\":4378:4379  t */\n      dup2\n        /* \"contracts/BadSammyNFTStore.sol\":4378:4389  t.priceUsdc */\n      0x20\n      add\n      mload\n        /* \"contracts/BadSammyNFTStore.sol\":4378:4394  t.priceUsdc == 0 */\n      eq\n        /* \"contracts/BadSammyNFTStore.sol\":4364:4394  !t.enabled || t.priceUsdc == 0 */\n    tag_177:\n        /* \"contracts/BadSammyNFTStore.sol\":4360:4417  if (!t.enabled || t.priceUsdc == 0) revert TierDisabled() */\n      iszero\n      tag_178\n      jumpi\n        /* \"contracts/BadSammyNFTStore.sol\":4403:4417  TierDisabled() */\n      mload(0x40)\n      0x94d366b500000000000000000000000000000000000000000000000000000000\n      dup2\n      mstore\n      0x04\n      add\n      mload(0x40)\n      dup1\n      swap2\n      sub\n      swap1\n      revert\n        /* \"contracts/BadSammyNFTStore.sol\":4360:4417  if (!t.enabled || t.priceUsdc == 0) revert TierDisabled() */\n    tag_178:\n        /* \"contracts/BadSammyNFTStore.sol\":4444:4445  t */\n      dup1\n        /* \"contracts/BadSammyNFTStore.sol\":4444:4455  t.priceUsdc */\n      0x20\n      add\n      mload\n        /* \"contracts/BadSammyNFTStore.sol\":4435:4440  value */\n      dup7\n        /* \"contracts/BadSammyNFTStore.sol\":4435:4455  value == t.priceUsdc */\n      eq\n        /* \"contracts/BadSammyNFTStore.sol\":4427:4481  require(value == t.priceUsdc, \"permit value mismatch\") */\n      tag_179\n      jumpi\n      mload(0x40)\n      0x08c379a000000000000000000000000000000000000000000000000000000000\n      dup2\n      mstore\n      0x04\n      add\n      tag_180\n      swap1\n      tag_181\n      jump\t// in\n    tag_180:\n      mload(0x40)\n      dup1\n      swap2\n      sub\n      swap1\n      revert\n    tag_179:\n        /* \"contracts/BadSammyNFTStore.sol\":4513:4517  USDC */\n      immutable(\"0xea1c3a463a334d4502a6bc7c1ce6676ab071cb26e08d8d603278a360d97dc14c\")\n        /* \"contracts/BadSammyNFTStore.sol\":4492:4526  IERC20Permit(address(USDC)).permit */\n      0xffffffffffffffffffffffffffffffffffffffff\n      and\n      0xd505accf\n        /* \"contracts/BadSammyNFTStore.sol\":4540:4550  msg.sender */\n      caller\n        /* \"contracts/BadSammyNFTStore.sol\":4560:4564  this */\n      address\n        /* \"contracts/BadSammyNFTStore.sol\":4567:4572  value */\n      dup10\n        /* \"contracts/BadSammyNFTStore.sol\":4574:4582  deadline */\n      dup10\n        /* \"contracts/BadSammyNFTStore.sol\":4584:4585  v */\n      dup10\n        /* \"contracts/BadSammyNFTStore.sol\":4587:4588  r */\n      dup10\n        /* \"contracts/BadSammyNFTStore.sol\":4590:4591  s */\n      dup10\n        /* \"contracts/BadSammyNFTStore.sol\":4492:4601  IERC20Permit(address(USDC)).permit(... */\n      mload(0x40)\n      dup9\n      0xffffffff\n      and\n      0xe0\n      shl\n      dup2\n      mstore\n      0x04\n      add\n      tag_182\n      swap8\n      swap7\n      swap6\n      swap5\n      swap4\n      swap3\n      swap2\n      swap1\n      tag_183\n      jump\t// in\n    tag_182:\n      0x00\n      mload(0x40)\n      dup1\n      dup4\n      sub\n      dup2\n      0x00\n      dup8\n      dup1\n      extcodesize\n      iszero\n      dup1\n      iszero\n      tag_184\n      jumpi\n      0x00\n      dup1\n      revert\n    tag_184:\n      pop\n      gas\n      call\n      iszero\n      dup1\n      iszero\n      tag_186\n      jumpi\n      returndatasize\n      0x00\n      dup1\n      returndatacopy\n      revert(0x00, returndatasize)\n    tag_186:\n      pop\n      pop\n      pop\n      pop\n        /* \"contracts/BadSammyNFTStore.sol\":4612:4631  buyWithUSDC(tierId) */\n      tag_187\n        /* \"contracts/BadSammyNFTStore.sol\":4624:4630  tierId */\n      dup8\n        /* \"contracts/BadSammyNFTStore.sol\":4612:4623  buyWithUSDC */\n      tag_78\n        /* \"contracts/BadSammyNFTStore.sol\":4612:4631  buyWithUSDC(tierId) */\n      jump\t// in\n    tag_187:\n        /* \"contracts/BadSammyNFTStore.sol\":4256:4638  {... */\n      pop\n        /* \"@openzeppelin/contracts/security/ReentrancyGuard.sol\":2303:2323  _nonReentrantAfter() */\n      tag_188\n        /* \"@openzeppelin/contracts/security/ReentrancyGuard.sol\":2303:2321  _nonReentrantAfter */\n      tag_172\n        /* \"@openzeppelin/contracts/security/ReentrancyGuard.sol\":2303:2323  _nonReentrantAfter() */\n      jump\t// in\n    tag_188:\n        /* \"contracts/BadSammyNFTStore.sol\":4073:4638  function buyWithUSDCPermit(... */\n      pop\n      pop\n      pop\n      pop\n      pop\n      pop\n      jump\t// out\n        /* \"contracts/BadSammyNFTStore.sol\":5206:5752  function withdrawN(uint256 tierId, uint256 quantity, address to) external onlyOwner {... */\n    tag_87:\n        /* \"@openzeppelin/contracts/access/Ownable.sol\":1531:1544  _checkOwner() */\n      tag_190\n        /* \"@openzeppelin/contracts/access/Ownable.sol\":1531:1542  _checkOwner */\n      tag_101\n        /* \"@openzeppelin/contracts/access/Ownable.sol\":1531:1544  _checkOwner() */\n      jump\t// in\n    tag_190:\n        /* \"contracts/BadSammyNFTStore.sol\":5300:5313  Tier memory t */\n      0x00\n        /* \"contracts/BadSammyNFTStore.sol\":5316:5321  tiers */\n      0x02\n        /* \"contracts/BadSammyNFTStore.sol\":5316:5329  tiers[tierId] */\n      0x00\n        /* \"contracts/BadSammyNFTStore.sol\":5322:5328  tierId */\n      dup6\n        /* \"contracts/BadSammyNFTStore.sol\":5316:5329  tiers[tierId] */\n      dup2\n      mstore\n      0x20\n      add\n      swap1\n      dup2\n      mstore\n      0x20\n      add\n      0x00\n      keccak256\n        /* \"contracts/BadSammyNFTStore.sol\":5300:5329  Tier memory t = tiers[tierId] */\n      mload(0x40)\n      dup1\n      0x60\n      add\n      0x40\n      mstore\n      swap1\n      dup2\n      0x00\n      dup3\n      add\n      0x00\n      swap1\n      sload\n      swap1\n      0x0100\n      exp\n      swap1\n      div\n      0xffffffffffffffffffffffffffffffffffffffff\n      and\n      0xffffffffffffffffffffffffffffffffffffffff\n      and\n      0xffffffffffffffffffffffffffffffffffffffff\n      and\n      dup2\n      mstore\n      0x20\n      add\n      0x01\n      dup3\n      add\n      sload\n      dup2\n      mstore\n      0x20\n      add\n      0x02\n      dup3\n      add\n      0x00\n      swap1\n      sload\n      swap1\n      0x0100\n      exp\n      swap1\n      div\n      0xff\n      and\n      iszero\n      iszero\n      iszero\n      iszero\n      dup2\n      mstore\n      pop\n      pop\n      swap1\n      pop\n        /* \"contracts/BadSammyNFTStore.sol\":5360:5361  0 */\n      0x00\n        /* \"contracts/BadSammyNFTStore.sol\":5343:5362  t.nft == address(0) */\n      0xffffffffffffffffffffffffffffffffffffffff\n      and\n        /* \"contracts/BadSammyNFTStore.sol\":5343:5344  t */\n      dup2\n        /* \"contracts/BadSammyNFTStore.sol\":5343:5348  t.nft */\n      0x00\n      add\n      mload\n        /* \"contracts/BadSammyNFTStore.sol\":5343:5362  t.nft == address(0) */\n      0xffffffffffffffffffffffffffffffffffffffff\n      and\n      sub\n        /* \"contracts/BadSammyNFTStore.sol\":5339:5384  if (t.nft == address(0)) revert InvalidTier() */\n      tag_192\n      jumpi\n        /* \"contracts/BadSammyNFTStore.sol\":5371:5384  InvalidTier() */\n      mload(0x40)\n      0xe142361700000000000000000000000000000000000000000000000000000000\n      dup2\n      mstore\n      0x04\n      add\n      mload(0x40)\n      dup1\n      swap2\n      sub\n      swap1\n      revert\n        /* \"contracts/BadSammyNFTStore.sol\":5339:5384  if (t.nft == address(0)) revert InvalidTier() */\n    tag_192:\n        /* \"contracts/BadSammyNFTStore.sol\":5395:5416  IERC721Enumerable nft */\n      0x00\n        /* \"contracts/BadSammyNFTStore.sol\":5437:5438  t */\n      dup2\n        /* \"contracts/BadSammyNFTStore.sol\":5437:5442  t.nft */\n      0x00\n      add\n      mload\n        /* \"contracts/BadSammyNFTStore.sol\":5395:5443  IERC721Enumerable nft = IERC721Enumerable(t.nft) */\n      swap1\n      pop\n        /* \"contracts/BadSammyNFTStore.sol\":5453:5464  uint256 bal */\n      0x00\n        /* \"contracts/BadSammyNFTStore.sol\":5467:5470  nft */\n      dup2\n        /* \"contracts/BadSammyNFTStore.sol\":5467:5480  nft.balanceOf */\n      0xffffffffffffffffffffffffffffffffffffffff\n      and\n      0x70a08231\n        /* \"contracts/BadSammyNFTStore.sol\":5489:5493  this */\n      address\n        /* \"contracts/BadSammyNFTStore.sol\":5467:5495  nft.balanceOf(address(this)) */\n      mload(0x40)\n      dup3\n      0xffffffff\n      and\n      0xe0\n      shl\n      dup2\n      mstore\n      0x04\n      add\n      tag_193\n      swap2\n      swap1\n      tag_64\n      jump\t// in\n    tag_193:\n      0x20\n      mload(0x40)\n      dup1\n      dup4\n      sub\n      dup2\n      dup7\n      gas\n      staticcall\n      iszero\n      dup1\n      iszero\n      tag_195\n      jumpi\n      returndatasize\n      0x00\n      dup1\n      returndatacopy\n      revert(0x00, returndatasize)\n    tag_195:\n      pop\n      pop\n      pop\n      pop\n      mload(0x40)\n      returndatasize\n      not(0x1f)\n      0x1f\n      dup3\n      add\n      and\n      dup3\n      add\n      dup1\n      0x40\n      mstore\n      pop\n      dup2\n      add\n      swap1\n      tag_196\n      swap2\n      swap1\n      tag_108\n      jump\t// in\n    tag_196:\n        /* \"contracts/BadSammyNFTStore.sol\":5453:5495  uint256 bal = nft.balanceOf(address(this)) */\n      swap1\n      pop\n        /* \"contracts/BadSammyNFTStore.sol\":5520:5523  bal */\n      dup1\n        /* \"contracts/BadSammyNFTStore.sol\":5509:5517  quantity */\n      dup6\n        /* \"contracts/BadSammyNFTStore.sol\":5509:5523  quantity > bal */\n      gt\n        /* \"contracts/BadSammyNFTStore.sol\":5505:5539  if (quantity > bal) quantity = bal */\n      iszero\n      tag_197\n      jumpi\n        /* \"contracts/BadSammyNFTStore.sol\":5536:5539  bal */\n      dup1\n        /* \"contracts/BadSammyNFTStore.sol\":5525:5539  quantity = bal */\n      swap5\n      pop\n        /* \"contracts/BadSammyNFTStore.sol\":5505:5539  if (quantity > bal) quantity = bal */\n    tag_197:\n        /* \"contracts/BadSammyNFTStore.sol\":5555:5564  uint256 i */\n      0x00\n        /* \"contracts/BadSammyNFTStore.sol\":5550:5746  for (uint256 i = 0; i < quantity; i++) {... */\n    tag_198:\n        /* \"contracts/BadSammyNFTStore.sol\":5574:5582  quantity */\n      dup6\n        /* \"contracts/BadSammyNFTStore.sol\":5570:5571  i */\n      dup2\n        /* \"contracts/BadSammyNFTStore.sol\":5570:5582  i < quantity */\n      lt\n        /* \"contracts/BadSammyNFTStore.sol\":5550:5746  for (uint256 i = 0; i < quantity; i++) {... */\n      iszero\n      tag_199\n      jumpi\n        /* \"contracts/BadSammyNFTStore.sol\":5603:5618  uint256 tokenId */\n      0x00\n        /* \"contracts/BadSammyNFTStore.sol\":5621:5624  nft */\n      dup4\n        /* \"contracts/BadSammyNFTStore.sol\":5621:5644  nft.tokenOfOwnerByIndex */\n      0xffffffffffffffffffffffffffffffffffffffff\n      and\n      0x2f745c59\n        /* \"contracts/BadSammyNFTStore.sol\":5653:5657  this */\n      address\n        /* \"contracts/BadSammyNFTStore.sol\":5660:5661  0 */\n      0x00\n        /* \"contracts/BadSammyNFTStore.sol\":5621:5662  nft.tokenOfOwnerByIndex(address(this), 0) */\n      mload(0x40)\n      dup4\n      0xffffffff\n      and\n      0xe0\n      shl\n      dup2\n      mstore\n      0x04\n      add\n      tag_201\n      swap3\n      swap2\n      swap1\n      tag_113\n      jump\t// in\n    tag_201:\n      0x20\n      mload(0x40)\n      dup1\n      dup4\n      sub\n      dup2\n      dup7\n      gas\n      staticcall\n      iszero\n      dup1\n      iszero\n      tag_203\n      jumpi\n      returndatasize\n      0x00\n      dup1\n      returndatacopy\n      revert(0x00, returndatasize)\n    tag_203:\n      pop\n      pop\n      pop\n      pop\n      mload(0x40)\n      returndatasize\n      not(0x1f)\n      0x1f\n      dup3\n      add\n      and\n      dup3\n      add\n      dup1\n      0x40\n      mstore\n      pop\n      dup2\n      add\n      swap1\n      tag_204\n      swap2\n      swap1\n      tag_108\n      jump\t// in\n    tag_204:\n        /* \"contracts/BadSammyNFTStore.sol\":5603:5662  uint256 tokenId = nft.tokenOfOwnerByIndex(address(this), 0) */\n      swap1\n      pop\n        /* \"contracts/BadSammyNFTStore.sol\":5684:5685  t */\n      dup5\n        /* \"contracts/BadSammyNFTStore.sol\":5684:5689  t.nft */\n      0x00\n      add\n      mload\n        /* \"contracts/BadSammyNFTStore.sol\":5676:5707  IERC721(t.nft).safeTransferFrom */\n      0xffffffffffffffffffffffffffffffffffffffff\n      and\n      0x42842e0e\n        /* \"contracts/BadSammyNFTStore.sol\":5716:5720  this */\n      address\n        /* \"contracts/BadSammyNFTStore.sol\":5723:5725  to */\n      dup9\n        /* \"contracts/BadSammyNFTStore.sol\":5727:5734  tokenId */\n      dup5\n        /* \"contracts/BadSammyNFTStore.sol\":5676:5735  IERC721(t.nft).safeTransferFrom(address(this), to, tokenId) */\n      mload(0x40)\n      dup5\n      0xffffffff\n      and\n      0xe0\n      shl\n      dup2\n      mstore\n      0x04\n      add\n      tag_205\n      swap4\n      swap3\n      swap2\n      swap1\n      tag_118\n      jump\t// in\n    tag_205:\n      0x00\n      mload(0x40)\n      dup1\n      dup4\n      sub\n      dup2\n      0x00\n      dup8\n      dup1\n      extcodesize\n      iszero\n      dup1\n      iszero\n      tag_206\n      jumpi\n      0x00\n      dup1\n      revert\n    tag_206:\n      pop\n      gas\n      call\n      iszero\n      dup1\n      iszero\n      tag_208\n      jumpi\n      returndatasize\n      0x00\n      dup1\n      returndatacopy\n      revert(0x00, returndatasize)\n    tag_208:\n      pop\n      pop\n      pop\n      pop\n        /* \"contracts/BadSammyNFTStore.sol\":5589:5746  {... */\n      pop\n        /* \"contracts/BadSammyNFTStore.sol\":5584:5587  i++ */\n      dup1\n      dup1\n      tag_209\n      swap1\n      tag_123\n      jump\t// in\n    tag_209:\n      swap2\n      pop\n      pop\n        /* \"contracts/BadSammyNFTStore.sol\":5550:5746  for (uint256 i = 0; i < quantity; i++) {... */\n      jump(tag_198)\n    tag_199:\n      pop\n        /* \"contracts/BadSammyNFTStore.sol\":5290:5752  {... */\n      pop\n      pop\n      pop\n        /* \"contracts/BadSammyNFTStore.sol\":5206:5752  function withdrawN(uint256 tierId, uint256 quantity, address to) external onlyOwner {... */\n      pop\n      pop\n      pop\n      jump\t// out\n        /* \"contracts/BadSammyNFTStore.sol\":2335:2498  function setTreasury(address payable _treasury) external onlyOwner {... */\n    tag_92:\n        /* \"@openzeppelin/contracts/access/Ownable.sol\":1531:1544  _checkOwner() */\n      tag_211\n        /* \"@openzeppelin/contracts/access/Ownable.sol\":1531:1542  _checkOwner */\n      tag_101\n        /* \"@openzeppelin/contracts/access/Ownable.sol\":1531:1544  _checkOwner() */\n      jump\t// in\n    tag_211:\n        /* \"contracts/BadSammyNFTStore.sol\":2437:2438  0 */\n      0x00\n        /* \"contracts/BadSammyNFTStore.sol\":2416:2439  _treasury == address(0) */\n      0xffffffffffffffffffffffffffffffffffffffff\n      and\n        /* \"contracts/BadSammyNFTStore.sol\":2416:2425  _treasury */\n      dup2\n        /* \"contracts/BadSammyNFTStore.sol\":2416:2439  _treasury == address(0) */\n      0xffffffffffffffffffffffffffffffffffffffff\n      and\n      sub\n        /* \"contracts/BadSammyNFTStore.sol\":2412:2461  if (_treasury == address(0)) revert ZeroAddress() */\n      tag_213\n      jumpi\n        /* \"contracts/BadSammyNFTStore.sol\":2448:2461  ZeroAddress() */\n      mload(0x40)\n      0xd92e233d00000000000000000000000000000000000000000000000000000000\n      dup2\n      mstore\n      0x04\n      add\n      mload(0x40)\n      dup1\n      swap2\n      sub\n      swap1\n      revert\n        /* \"contracts/BadSammyNFTStore.sol\":2412:2461  if (_treasury == address(0)) revert ZeroAddress() */\n    tag_213:\n        /* \"contracts/BadSammyNFTStore.sol\":2482:2491  _treasury */\n      dup1\n        /* \"contracts/BadSammyNFTStore.sol\":2471:2479  treasury */\n      0x03\n      0x00\n        /* \"contracts/BadSammyNFTStore.sol\":2471:2491  treasury = _treasury */\n      0x0100\n      exp\n      dup2\n      sload\n      dup2\n      0xffffffffffffffffffffffffffffffffffffffff\n      mul\n      not\n      and\n      swap1\n      dup4\n      0xffffffffffffffffffffffffffffffffffffffff\n      and\n      mul\n      or\n      swap1\n      sstore\n      pop\n        /* \"contracts/BadSammyNFTStore.sol\":2335:2498  function setTreasury(address payable _treasury) external onlyOwner {... */\n      pop\n      jump\t// out\n        /* \"@openzeppelin/contracts/access/Ownable.sol\":2543:2758  function transferOwnership(address newOwner) public virtual onlyOwner {... */\n    tag_97:\n        /* \"@openzeppelin/contracts/access/Ownable.sol\":1531:1544  _checkOwner() */\n      tag_215\n        /* \"@openzeppelin/contracts/access/Ownable.sol\":1531:1542  _checkOwner */\n      tag_101\n        /* \"@openzeppelin/contracts/access/Ownable.sol\":1531:1544  _checkOwner() */\n      jump\t// in\n    tag_215:\n        /* \"@openzeppelin/contracts/access/Ownable.sol\":2647:2648  0 */\n      0x00\n        /* \"@openzeppelin/contracts/access/Ownable.sol\":2627:2649  newOwner == address(0) */\n      0xffffffffffffffffffffffffffffffffffffffff\n      and\n        /* \"@openzeppelin/contracts/access/Ownable.sol\":2627:2635  newOwner */\n      dup2\n        /* \"@openzeppelin/contracts/access/Ownable.sol\":2627:2649  newOwner == address(0) */\n      0xffffffffffffffffffffffffffffffffffffffff\n      and\n      sub\n        /* \"@openzeppelin/contracts/access/Ownable.sol\":2623:2714  if (newOwner == address(0)) {... */\n      tag_217\n      jumpi\n        /* \"@openzeppelin/contracts/access/Ownable.sol\":2700:2701  0 */\n      0x00\n        /* \"@openzeppelin/contracts/access/Ownable.sol\":2672:2703  OwnableInvalidOwner(address(0)) */\n      mload(0x40)\n      0x1e4fbdf700000000000000000000000000000000000000000000000000000000\n      dup2\n      mstore\n      0x04\n      add\n      tag_218\n      swap2\n      swap1\n      tag_64\n      jump\t// in\n    tag_218:\n      mload(0x40)\n      dup1\n      swap2\n      sub\n      swap1\n      revert\n        /* \"@openzeppelin/contracts/access/Ownable.sol\":2623:2714  if (newOwner == address(0)) {... */\n    tag_217:\n        /* \"@openzeppelin/contracts/access/Ownable.sol\":2723:2751  _transferOwnership(newOwner) */\n      tag_219\n        /* \"@openzeppelin/contracts/access/Ownable.sol\":2742:2750  newOwner */\n      dup2\n        /* \"@openzeppelin/contracts/access/Ownable.sol\":2723:2741  _transferOwnership */\n      tag_141\n        /* \"@openzeppelin/contracts/access/Ownable.sol\":2723:2751  _transferOwnership(newOwner) */\n      jump\t// in\n    tag_219:\n        /* \"@openzeppelin/contracts/access/Ownable.sol\":2543:2758  function transferOwnership(address newOwner) public virtual onlyOwner {... */\n      pop\n      jump\t// out\n        /* \"@openzeppelin/contracts/access/Ownable.sol\":1796:1958  function _checkOwner() internal view virtual {... */\n    tag_101:\n        /* \"@openzeppelin/contracts/access/Ownable.sol\":1866:1878  _msgSender() */\n      tag_221\n        /* \"@openzeppelin/contracts/access/Ownable.sol\":1866:1876  _msgSender */\n      tag_222\n        /* \"@openzeppelin/contracts/access/Ownable.sol\":1866:1878  _msgSender() */\n      jump\t// in\n    tag_221:\n        /* \"@openzeppelin/contracts/access/Ownable.sol\":1855:1878  owner() != _msgSender() */\n      0xffffffffffffffffffffffffffffffffffffffff\n      and\n        /* \"@openzeppelin/contracts/access/Ownable.sol\":1855:1862  owner() */\n      tag_223\n        /* \"@openzeppelin/contracts/access/Ownable.sol\":1855:1860  owner */\n      tag_62\n        /* \"@openzeppelin/contracts/access/Ownable.sol\":1855:1862  owner() */\n      jump\t// in\n    tag_223:\n        /* \"@openzeppelin/contracts/access/Ownable.sol\":1855:1878  owner() != _msgSender() */\n      0xffffffffffffffffffffffffffffffffffffffff\n      and\n      eq\n        /* \"@openzeppelin/contracts/access/Ownable.sol\":1851:1952  if (owner() != _msgSender()) {... */\n      tag_224\n      jumpi\n        /* \"@openzeppelin/contracts/access/Ownable.sol\":1928:1940  _msgSender() */\n      tag_225\n        /* \"@openzeppelin/contracts/access/Ownable.sol\":1928:1938  _msgSender */\n      tag_222\n        /* \"@openzeppelin/contracts/access/Ownable.sol\":1928:1940  _msgSender() */\n      jump\t// in\n    tag_225:\n        /* \"@openzeppelin/contracts/access/Ownable.sol\":1901:1941  OwnableUnauthorizedAccount(_msgSender()) */\n      mload(0x40)\n      0x118cdaa700000000000000000000000000000000000000000000000000000000\n      dup2\n      mstore\n      0x04\n      add\n      tag_226\n      swap2\n      swap1\n      tag_64\n      jump\t// in\n    tag_226:\n      mload(0x40)\n      dup1\n      swap2\n      sub\n      swap1\n      revert\n        /* \"@openzeppelin/contracts/access/Ownable.sol\":1851:1952  if (owner() != _msgSender()) {... */\n    tag_224:\n        /* \"@openzeppelin/contracts/access/Ownable.sol\":1796:1958  function _checkOwner() internal view virtual {... */\n      jump\t// out\n        /* \"@openzeppelin/contracts/access/Ownable.sol\":2912:3099  function _transferOwnership(address newOwner) internal virtual {... */\n    tag_141:\n        /* \"@openzeppelin/contracts/access/Ownable.sol\":2985:3001  address oldOwner */\n      0x00\n        /* \"@openzeppelin/contracts/access/Ownable.sol\":3004:3010  _owner */\n      0x01\n      0x00\n      swap1\n      sload\n      swap1\n      0x0100\n      exp\n      swap1\n      div\n      0xffffffffffffffffffffffffffffffffffffffff\n      and\n        /* \"@openzeppelin/contracts/access/Ownable.sol\":2985:3010  address oldOwner = _owner */\n      swap1\n      pop\n        /* \"@openzeppelin/contracts/access/Ownable.sol\":3029:3037  newOwner */\n      dup2\n        /* \"@openzeppelin/contracts/access/Ownable.sol\":3020:3026  _owner */\n      0x01\n      0x00\n        /* \"@openzeppelin/contracts/access/Ownable.sol\":3020:3037  _owner = newOwner */\n      0x0100\n      exp\n      dup2\n      sload\n      dup2\n      0xffffffffffffffffffffffffffffffffffffffff\n      mul\n      not\n      and\n      swap1\n      dup4\n      0xffffffffffffffffffffffffffffffffffffffff\n      and\n      mul\n      or\n      swap1\n      sstore\n      pop\n        /* \"@openzeppelin/contracts/access/Ownable.sol\":3083:3091  newOwner */\n      dup2\n        /* \"@openzeppelin/contracts/access/Ownable.sol\":3052:3092  OwnershipTransferred(oldOwner, newOwner) */\n      0xffffffffffffffffffffffffffffffffffffffff\n      and\n        /* \"@openzeppelin/contracts/access/Ownable.sol\":3073:3081  oldOwner */\n      dup2\n        /* \"@openzeppelin/contracts/access/Ownable.sol\":3052:3092  OwnershipTransferred(oldOwner, newOwner) */\n      0xffffffffffffffffffffffffffffffffffffffff\n      and\n      0x8be0079c531659141344cd1fd0a4f28419497f9722a3daafe3b4186f6b6457e0\n      mload(0x40)\n      mload(0x40)\n      dup1\n      swap2\n      sub\n      swap1\n      log3\n        /* \"@openzeppelin/contracts/access/Ownable.sol\":2975:3099  {... */\n      pop\n        /* \"@openzeppelin/contracts/access/Ownable.sol\":2912:3099  function _transferOwnership(address newOwner) internal virtual {... */\n      pop\n      jump\t// out\n        /* \"@openzeppelin/contracts/security/ReentrancyGuard.sol\":2336:2623  function _nonReentrantBefore() private {... */\n    tag_156:\n        /* \"@openzeppelin/contracts/security/ReentrancyGuard.sol\":1759:1760  2 */\n      0x02\n        /* \"@openzeppelin/contracts/security/ReentrancyGuard.sol\":2468:2475  _status */\n      sload(0x00)\n        /* \"@openzeppelin/contracts/security/ReentrancyGuard.sol\":2468:2487  _status != _ENTERED */\n      sub\n        /* \"@openzeppelin/contracts/security/ReentrancyGuard.sol\":2460:2523  require(_status != _ENTERED, \"ReentrancyGuard: reentrant call\") */\n      tag_229\n      jumpi\n      mload(0x40)\n      0x08c379a000000000000000000000000000000000000000000000000000000000\n      dup2\n      mstore\n      0x04\n      add\n      tag_230\n      swap1\n      tag_231\n      jump\t// in\n    tag_230:\n      mload(0x40)\n      dup1\n      swap2\n      sub\n      swap1\n      revert\n    tag_229:\n        /* \"@openzeppelin/contracts/security/ReentrancyGuard.sol\":1759:1760  2 */\n      0x02\n        /* \"@openzeppelin/contracts/security/ReentrancyGuard.sol\":2598:2605  _status */\n      0x00\n        /* \"@openzeppelin/contracts/security/ReentrancyGuard.sol\":2598:2616  _status = _ENTERED */\n      dup2\n      swap1\n      sstore\n      pop\n        /* \"@openzeppelin/contracts/security/ReentrancyGuard.sol\":2336:2623  function _nonReentrantBefore() private {... */\n      jump\t// out\n        /* \"contracts/BadSammyNFTStore.sol\":2805:3080  function _nextToken(address nft) internal view returns (uint256) {... */\n    tag_162:\n        /* \"contracts/BadSammyNFTStore.sol\":2861:2868  uint256 */\n      0x00\n        /* \"contracts/BadSammyNFTStore.sol\":2880:2900  IERC721Enumerable en */\n      dup1\n        /* \"contracts/BadSammyNFTStore.sol\":2921:2924  nft */\n      dup3\n        /* \"contracts/BadSammyNFTStore.sol\":2880:2925  IERC721Enumerable en = IERC721Enumerable(nft) */\n      swap1\n      pop\n        /* \"contracts/BadSammyNFTStore.sol\":2935:2946  uint256 bal */\n      0x00\n        /* \"contracts/BadSammyNFTStore.sol\":2949:2951  en */\n      dup2\n        /* \"contracts/BadSammyNFTStore.sol\":2949:2961  en.balanceOf */\n      0xffffffffffffffffffffffffffffffffffffffff\n      and\n      0x70a08231\n        /* \"contracts/BadSammyNFTStore.sol\":2970:2974  this */\n      address\n        /* \"contracts/BadSammyNFTStore.sol\":2949:2976  en.balanceOf(address(this)) */\n      mload(0x40)\n      dup3\n      0xffffffff\n      and\n      0xe0\n      shl\n      dup2\n      mstore\n      0x04\n      add\n      tag_233\n      swap2\n      swap1\n      tag_64\n      jump\t// in\n    tag_233:\n      0x20\n      mload(0x40)\n      dup1\n      dup4\n      sub\n      dup2\n      dup7\n      gas\n      staticcall\n      iszero\n      dup1\n      iszero\n      tag_235\n      jumpi\n      returndatasize\n      0x00\n      dup1\n      returndatacopy\n      revert(0x00, returndatasize)\n    tag_235:\n      pop\n      pop\n      pop\n      pop\n      mload(0x40)\n      returndatasize\n      not(0x1f)\n      0x1f\n      dup3\n      add\n      and\n      dup3\n      add\n      dup1\n      0x40\n      mstore\n      pop\n      dup2\n      add\n      swap1\n      tag_236\n      swap2\n      swap1\n      tag_108\n      jump\t// in\n    tag_236:\n        /* \"contracts/BadSammyNFTStore.sol\":2935:2976  uint256 bal = en.balanceOf(address(this)) */\n      swap1\n      pop\n        /* \"contracts/BadSammyNFTStore.sol\":2997:2998  0 */\n      0x00\n        /* \"contracts/BadSammyNFTStore.sol\":2990:2993  bal */\n      dup2\n        /* \"contracts/BadSammyNFTStore.sol\":2990:2998  bal == 0 */\n      sub\n        /* \"contracts/BadSammyNFTStore.sol\":2986:3016  if (bal == 0) revert SoldOut() */\n      tag_237\n      jumpi\n        /* \"contracts/BadSammyNFTStore.sol\":3007:3016  SoldOut() */\n      mload(0x40)\n      0x52df9fe500000000000000000000000000000000000000000000000000000000\n      dup2\n      mstore\n      0x04\n      add\n      mload(0x40)\n      dup1\n      swap2\n      sub\n      swap1\n      revert\n        /* \"contracts/BadSammyNFTStore.sol\":2986:3016  if (bal == 0) revert SoldOut() */\n    tag_237:\n        /* \"contracts/BadSammyNFTStore.sol\":3033:3035  en */\n      dup2\n        /* \"contracts/BadSammyNFTStore.sol\":3033:3055  en.tokenOfOwnerByIndex */\n      0xffffffffffffffffffffffffffffffffffffffff\n      and\n      0x2f745c59\n        /* \"contracts/BadSammyNFTStore.sol\":3064:3068  this */\n      address\n        /* \"contracts/BadSammyNFTStore.sol\":3071:3072  0 */\n      0x00\n        /* \"contracts/BadSammyNFTStore.sol\":3033:3073  en.tokenOfOwnerByIndex(address(this), 0) */\n      mload(0x40)\n      dup4\n      0xffffffff\n      and\n      0xe0\n      shl\n      dup2\n      mstore\n      0x04\n      add\n      tag_238\n      swap3\n      swap2\n      swap1\n      tag_113\n      jump\t// in\n    tag_238:\n      0x20\n      mload(0x40)\n      dup1\n      dup4\n      sub\n      dup2\n      dup7\n      gas\n      staticcall\n      iszero\n      dup1\n      iszero\n      tag_240\n      jumpi\n      returndatasize\n      0x00\n      dup1\n      returndatacopy\n      revert(0x00, returndatasize)\n    tag_240:\n      pop\n      pop\n      pop\n      pop\n      mload(0x40)\n      returndatasize\n      not(0x1f)\n      0x1f\n      dup3\n      add\n      and\n      dup3\n      add\n      dup1\n      0x40\n      mstore\n      pop\n      dup2\n      add\n      swap1\n      tag_241\n      swap2\n      swap1\n      tag_108\n      jump\t// in\n    tag_241:\n        /* \"contracts/BadSammyNFTStore.sol\":3026:3073  return en.tokenOfOwnerByIndex(address(this), 0) */\n      swap3\n      pop\n      pop\n      pop\n        /* \"contracts/BadSammyNFTStore.sol\":2805:3080  function _nextToken(address nft) internal view returns (uint256) {... */\n      swap2\n      swap1\n      pop\n      jump\t// out\n        /* \"@openzeppelin/contracts/token/ERC20/utils/SafeERC20.sol\":1618:1806  function safeTransferFrom(IERC20 token, address from, address to, uint256 value) internal {... */\n    tag_164:\n        /* \"@openzeppelin/contracts/token/ERC20/utils/SafeERC20.sol\":1718:1799  _callOptionalReturn(token, abi.encodeCall(token.transferFrom, (from, to, value))) */\n      tag_243\n        /* \"@openzeppelin/contracts/token/ERC20/utils/SafeERC20.sol\":1738:1743  token */\n      dup5\n        /* \"@openzeppelin/contracts/token/ERC20/utils/SafeERC20.sol\":1760:1765  token */\n      dup6\n        /* \"@openzeppelin/contracts/token/ERC20/utils/SafeERC20.sol\":1760:1778  token.transferFrom */\n      0xffffffffffffffffffffffffffffffffffffffff\n      and\n      0x23b872dd\n        /* \"@openzeppelin/contracts/token/ERC20/utils/SafeERC20.sol\":1781:1785  from */\n      dup7\n        /* \"@openzeppelin/contracts/token/ERC20/utils/SafeERC20.sol\":1787:1789  to */\n      dup7\n        /* \"@openzeppelin/contracts/token/ERC20/utils/SafeERC20.sol\":1791:1796  value */\n      dup7\n        /* \"@openzeppelin/contracts/token/ERC20/utils/SafeERC20.sol\":1745:1798  abi.encodeCall(token.transferFrom, (from, to, value)) */\n      add(0x24, mload(0x40))\n      tag_244\n      swap4\n      swap3\n      swap2\n      swap1\n      tag_118\n      jump\t// in\n    tag_244:\n      mload(0x40)\n      0x20\n      dup2\n      dup4\n      sub\n      sub\n      dup2\n      mstore\n      swap1\n      0x40\n      mstore\n      swap2\n      pop\n      0xe0\n      shl\n      0x20\n      dup3\n      add\n      dup1\n      mload\n      0xffffffffffffffffffffffffffffffffffffffffffffffffffffffff\n      dup4\n      dup2\n      dup4\n      and\n      or\n      dup4\n      mstore\n      pop\n      pop\n      pop\n      pop\n        /* \"@openzeppelin/contracts/token/ERC20/utils/SafeERC20.sol\":1718:1737  _callOptionalReturn */\n      tag_245\n        /* \"@openzeppelin/contracts/token/ERC20/utils/SafeERC20.sol\":1718:1799  _callOptionalReturn(token, abi.encodeCall(token.transferFrom, (from, to, value))) */\n      jump\t// in\n    tag_243:\n        /* \"@openzeppelin/contracts/token/ERC20/utils/SafeERC20.sol\":1618:1806  function safeTransferFrom(IERC20 token, address from, address to, uint256 value) internal {... */\n      pop\n      pop\n      pop\n      pop\n      jump\t// out\n        /* \"@openzeppelin/contracts/token/ERC20/utils/SafeERC20.sol\":1219:1379  function safeTransfer(IERC20 token, address to, uint256 value) internal {... */\n    tag_166:\n        /* \"@openzeppelin/contracts/token/ERC20/utils/SafeERC20.sol\":1301:1372  _callOptionalReturn(token, abi.encodeCall(token.transfer, (to, value))) */\n      tag_247\n        /* \"@openzeppelin/contracts/token/ERC20/utils/SafeERC20.sol\":1321:1326  token */\n      dup4\n        /* \"@openzeppelin/contracts/token/ERC20/utils/SafeERC20.sol\":1343:1348  token */\n      dup5\n        /* \"@openzeppelin/contracts/token/ERC20/utils/SafeERC20.sol\":1343:1357  token.transfer */\n      0xffffffffffffffffffffffffffffffffffffffff\n      and\n      0xa9059cbb\n        /* \"@openzeppelin/contracts/token/ERC20/utils/SafeERC20.sol\":1360:1362  to */\n      dup6\n        /* \"@openzeppelin/contracts/token/ERC20/utils/SafeERC20.sol\":1364:1369  value */\n      dup6\n        /* \"@openzeppelin/contracts/token/ERC20/utils/SafeERC20.sol\":1328:1371  abi.encodeCall(token.transfer, (to, value)) */\n      add(0x24, mload(0x40))\n      tag_248\n      swap3\n      swap2\n      swap1\n      tag_132\n      jump\t// in\n    tag_248:\n      mload(0x40)\n      0x20\n      dup2\n      dup4\n      sub\n      sub\n      dup2\n      mstore\n      swap1\n      0x40\n      mstore\n      swap2\n      pop\n      0xe0\n      shl\n      0x20\n      dup3\n      add\n      dup1\n      mload\n      0xffffffffffffffffffffffffffffffffffffffffffffffffffffffff\n      dup4\n      dup2\n      dup4\n      and\n      or\n      dup4\n      mstore\n      pop\n      pop\n      pop\n      pop\n        /* \"@openzeppelin/contracts/token/ERC20/utils/SafeERC20.sol\":1301:1320  _callOptionalReturn */\n      tag_245\n        /* \"@openzeppelin/contracts/token/ERC20/utils/SafeERC20.sol\":1301:1372  _callOptionalReturn(token, abi.encodeCall(token.transfer, (to, value))) */\n      jump\t// in\n    tag_247:\n        /* \"@openzeppelin/contracts/token/ERC20/utils/SafeERC20.sol\":1219:1379  function safeTransfer(IERC20 token, address to, uint256 value) internal {... */\n      pop\n      pop\n      pop\n      jump\t// out\n        /* \"@openzeppelin/contracts/security/ReentrancyGuard.sol\":2629:2838  function _nonReentrantAfter() private {... */\n    tag_172:\n        /* \"@openzeppelin/contracts/security/ReentrancyGuard.sol\":1716:1717  1 */\n      0x01\n        /* \"@openzeppelin/contracts/security/ReentrancyGuard.sol\":2809:2816  _status */\n      0x00\n        /* \"@openzeppelin/contracts/security/ReentrancyGuard.sol\":2809:2831  _status = _NOT_ENTERED */\n      dup2\n      swap1\n      sstore\n      pop\n        /* \"@openzeppelin/contracts/security/ReentrancyGuard.sol\":2629:2838  function _nonReentrantAfter() private {... */\n      jump\t// out\n        /* \"@openzeppelin/contracts/utils/Context.sol\":656:752  function _msgSender() internal view virtual returns (address) {... */\n    tag_222:\n        /* \"@openzeppelin/contracts/utils/Context.sol\":709:716  address */\n      0x00\n        /* \"@openzeppelin/contracts/utils/Context.sol\":735:745  msg.sender */\n      caller\n        /* \"@openzeppelin/contracts/utils/Context.sol\":728:745  return msg.sender */\n      swap1\n      pop\n        /* \"@openzeppelin/contracts/utils/Context.sol\":656:752  function _msgSender() internal view virtual returns (address) {... */\n      swap1\n      jump\t// out\n        /* \"@openzeppelin/contracts/token/ERC20/utils/SafeERC20.sol\":8370:9090  function _callOptionalReturn(IERC20 token, bytes memory data) private {... */\n    tag_245:\n        /* \"@openzeppelin/contracts/token/ERC20/utils/SafeERC20.sol\":8450:8468  uint256 returnSize */\n      0x00\n        /* \"@openzeppelin/contracts/token/ERC20/utils/SafeERC20.sol\":8478:8497  uint256 returnValue */\n      dup1\n        /* \"@openzeppelin/contracts/token/ERC20/utils/SafeERC20.sol\":8616:8620  0x20 */\n      0x20\n        /* \"@openzeppelin/contracts/token/ERC20/utils/SafeERC20.sol\":8613:8614  0 */\n      0x00\n        /* \"@openzeppelin/contracts/token/ERC20/utils/SafeERC20.sol\":8606:8610  data */\n      dup5\n        /* \"@openzeppelin/contracts/token/ERC20/utils/SafeERC20.sol\":8600:8611  mload(data) */\n      mload\n        /* \"@openzeppelin/contracts/token/ERC20/utils/SafeERC20.sol\":8593:8597  0x20 */\n      0x20\n        /* \"@openzeppelin/contracts/token/ERC20/utils/SafeERC20.sol\":8587:8591  data */\n      dup7\n        /* \"@openzeppelin/contracts/token/ERC20/utils/SafeERC20.sol\":8583:8598  add(data, 0x20) */\n      add\n        /* \"@openzeppelin/contracts/token/ERC20/utils/SafeERC20.sol\":8580:8581  0 */\n      0x00\n        /* \"@openzeppelin/contracts/token/ERC20/utils/SafeERC20.sol\":8573:8578  token */\n      dup9\n        /* \"@openzeppelin/contracts/token/ERC20/utils/SafeERC20.sol\":8566:8571  gas() */\n      gas\n        /* \"@openzeppelin/contracts/token/ERC20/utils/SafeERC20.sol\":8561:8621  call(gas(), token, 0, add(data, 0x20), mload(data), 0, 0x20) */\n      call\n        /* \"@openzeppelin/contracts/token/ERC20/utils/SafeERC20.sol\":8673:8680  success */\n      dup1\n        /* \"@openzeppelin/contracts/token/ERC20/utils/SafeERC20.sol\":8663:8839  if iszero(success) {... */\n      tag_252\n      jumpi\n        /* \"@openzeppelin/contracts/token/ERC20/utils/SafeERC20.sol\":8717:8721  0x40 */\n      0x40\n        /* \"@openzeppelin/contracts/token/ERC20/utils/SafeERC20.sol\":8711:8722  mload(0x40) */\n      mload\n        /* \"@openzeppelin/contracts/token/ERC20/utils/SafeERC20.sol\":8762:8778  returndatasize() */\n      returndatasize\n        /* \"@openzeppelin/contracts/token/ERC20/utils/SafeERC20.sol\":8759:8760  0 */\n      0x00\n        /* \"@openzeppelin/contracts/token/ERC20/utils/SafeERC20.sol\":8754:8757  ptr */\n      dup3\n        /* \"@openzeppelin/contracts/token/ERC20/utils/SafeERC20.sol\":8739:8779  returndatacopy(ptr, 0, returndatasize()) */\n      returndatacopy\n        /* \"@openzeppelin/contracts/token/ERC20/utils/SafeERC20.sol\":8808:8824  returndatasize() */\n      returndatasize\n        /* \"@openzeppelin/contracts/token/ERC20/utils/SafeERC20.sol\":8803:8806  ptr */\n      dup2\n        /* \"@openzeppelin/contracts/token/ERC20/utils/SafeERC20.sol\":8796:8825  revert(ptr, returndatasize()) */\n      revert\n        /* \"@openzeppelin/contracts/token/ERC20/utils/SafeERC20.sol\":8663:8839  if iszero(success) {... */\n    tag_252:\n        /* \"@openzeppelin/contracts/token/ERC20/utils/SafeERC20.sol\":8866:8882  returndatasize() */\n      returndatasize\n        /* \"@openzeppelin/contracts/token/ERC20/utils/SafeERC20.sol\":8852:8882  returnSize := returndatasize() */\n      swap3\n      pop\n        /* \"@openzeppelin/contracts/token/ERC20/utils/SafeERC20.sol\":8916:8917  0 */\n      0x00\n        /* \"@openzeppelin/contracts/token/ERC20/utils/SafeERC20.sol\":8910:8918  mload(0) */\n      mload\n        /* \"@openzeppelin/contracts/token/ERC20/utils/SafeERC20.sol\":8895:8918  returnValue := mload(0) */\n      swap2\n      pop\n        /* \"@openzeppelin/contracts/token/ERC20/utils/SafeERC20.sol\":8532:8928  {... */\n      pop\n        /* \"@openzeppelin/contracts/token/ERC20/utils/SafeERC20.sol\":8956:8957  0 */\n      0x00\n        /* \"@openzeppelin/contracts/token/ERC20/utils/SafeERC20.sol\":8942:8952  returnSize */\n      dup3\n        /* \"@openzeppelin/contracts/token/ERC20/utils/SafeERC20.sol\":8942:8957  returnSize == 0 */\n      eq\n        /* \"@openzeppelin/contracts/token/ERC20/utils/SafeERC20.sol\":8942:9010  returnSize == 0 ? address(token).code.length == 0 : returnValue != 1 */\n      tag_253\n      jumpi\n        /* \"@openzeppelin/contracts/token/ERC20/utils/SafeERC20.sol\":9009:9010  1 */\n      0x01\n        /* \"@openzeppelin/contracts/token/ERC20/utils/SafeERC20.sol\":8994:9005  returnValue */\n      dup2\n        /* \"@openzeppelin/contracts/token/ERC20/utils/SafeERC20.sol\":8994:9010  returnValue != 1 */\n      eq\n      iszero\n        /* \"@openzeppelin/contracts/token/ERC20/utils/SafeERC20.sol\":8942:9010  returnSize == 0 ? address(token).code.length == 0 : returnValue != 1 */\n      jump(tag_254)\n    tag_253:\n        /* \"@openzeppelin/contracts/token/ERC20/utils/SafeERC20.sol\":8990:8991  0 */\n      0x00\n        /* \"@openzeppelin/contracts/token/ERC20/utils/SafeERC20.sol\":8968:8973  token */\n      dup5\n        /* \"@openzeppelin/contracts/token/ERC20/utils/SafeERC20.sol\":8960:8986  address(token).code.length */\n      0xffffffffffffffffffffffffffffffffffffffff\n      and\n      extcodesize\n        /* \"@openzeppelin/contracts/token/ERC20/utils/SafeERC20.sol\":8960:8991  address(token).code.length == 0 */\n      eq\n        /* \"@openzeppelin/contracts/token/ERC20/utils/SafeERC20.sol\":8942:9010  returnSize == 0 ? address(token).code.length == 0 : returnValue != 1 */\n    tag_254:\n        /* \"@openzeppelin/contracts/token/ERC20/utils/SafeERC20.sol\":8938:9084  if (returnSize == 0 ? address(token).code.length == 0 : returnValue != 1) {... */\n      iszero\n      tag_255\n      jumpi\n        /* \"@openzeppelin/contracts/token/ERC20/utils/SafeERC20.sol\":9066:9071  token */\n      dup4\n        /* \"@openzeppelin/contracts/token/ERC20/utils/SafeERC20.sol\":9033:9073  SafeERC20FailedOperation(address(token)) */\n      mload(0x40)\n      0x5274afe700000000000000000000000000000000000000000000000000000000\n      dup2\n      mstore\n      0x04\n      add\n      tag_256\n      swap2\n      swap1\n      tag_64\n      jump\t// in\n    tag_256:\n      mload(0x40)\n      dup1\n      swap2\n      sub\n      swap1\n      revert\n        /* \"@openzeppelin/contracts/token/ERC20/utils/SafeERC20.sol\":8938:9084  if (returnSize == 0 ? address(token).code.length == 0 : returnValue != 1) {... */\n    tag_255:\n        /* \"@openzeppelin/contracts/token/ERC20/utils/SafeERC20.sol\":8440:9090  {... */\n      pop\n      pop\n        /* \"@openzeppelin/contracts/token/ERC20/utils/SafeERC20.sol\":8370:9090  function _callOptionalReturn(IERC20 token, bytes memory data) private {... */\n      pop\n      pop\n      jump\t// out\n        /* \"#utility.yul\":88:205   */\n    tag_258:\n        /* \"#utility.yul\":197:198   */\n      0x00\n        /* \"#utility.yul\":194:195   */\n      dup1\n        /* \"#utility.yul\":187:199   */\n      revert\n        /* \"#utility.yul\":211:328   */\n    tag_259:\n        /* \"#utility.yul\":320:321   */\n      0x00\n        /* \"#utility.yul\":317:318   */\n      dup1\n        /* \"#utility.yul\":310:322   */\n      revert\n        /* \"#utility.yul\":334:411   */\n    tag_260:\n        /* \"#utility.yul\":371:378   */\n      0x00\n        /* \"#utility.yul\":400:405   */\n      dup2\n        /* \"#utility.yul\":389:405   */\n      swap1\n      pop\n        /* \"#utility.yul\":334:411   */\n      swap2\n      swap1\n      pop\n      jump\t// out\n        /* \"#utility.yul\":417:539   */\n    tag_261:\n        /* \"#utility.yul\":490:514   */\n      tag_313\n        /* \"#utility.yul\":508:513   */\n      dup2\n        /* \"#utility.yul\":490:514   */\n      tag_260\n      jump\t// in\n    tag_313:\n        /* \"#utility.yul\":483:488   */\n      dup2\n        /* \"#utility.yul\":480:515   */\n      eq\n        /* \"#utility.yul\":470:533   */\n      tag_314\n      jumpi\n        /* \"#utility.yul\":529:530   */\n      0x00\n        /* \"#utility.yul\":526:527   */\n      dup1\n        /* \"#utility.yul\":519:531   */\n      revert\n        /* \"#utility.yul\":470:533   */\n    tag_314:\n        /* \"#utility.yul\":417:539   */\n      pop\n      jump\t// out\n        /* \"#utility.yul\":545:684   */\n    tag_262:\n        /* \"#utility.yul\":591:596   */\n      0x00\n        /* \"#utility.yul\":629:635   */\n      dup2\n        /* \"#utility.yul\":616:636   */\n      calldataload\n        /* \"#utility.yul\":607:636   */\n      swap1\n      pop\n        /* \"#utility.yul\":645:678   */\n      tag_316\n        /* \"#utility.yul\":672:677   */\n      dup2\n        /* \"#utility.yul\":645:678   */\n      tag_261\n      jump\t// in\n    tag_316:\n        /* \"#utility.yul\":545:684   */\n      swap3\n      swap2\n      pop\n      pop\n      jump\t// out\n        /* \"#utility.yul\":690:1019   */\n    tag_26:\n        /* \"#utility.yul\":749:755   */\n      0x00\n        /* \"#utility.yul\":798:800   */\n      0x20\n        /* \"#utility.yul\":786:795   */\n      dup3\n        /* \"#utility.yul\":777:784   */\n      dup5\n        /* \"#utility.yul\":773:796   */\n      sub\n        /* \"#utility.yul\":769:801   */\n      slt\n        /* \"#utility.yul\":766:885   */\n      iszero\n      tag_318\n      jumpi\n        /* \"#utility.yul\":804:883   */\n      tag_319\n      tag_258\n      jump\t// in\n    tag_319:\n        /* \"#utility.yul\":766:885   */\n    tag_318:\n        /* \"#utility.yul\":924:925   */\n      0x00\n        /* \"#utility.yul\":949:1002   */\n      tag_320\n        /* \"#utility.yul\":994:1001   */\n      dup5\n        /* \"#utility.yul\":985:991   */\n      dup3\n        /* \"#utility.yul\":974:983   */\n      dup6\n        /* \"#utility.yul\":970:992   */\n      add\n        /* \"#utility.yul\":949:1002   */\n      tag_262\n      jump\t// in\n    tag_320:\n        /* \"#utility.yul\":939:1002   */\n      swap2\n      pop\n        /* \"#utility.yul\":895:1012   */\n      pop\n        /* \"#utility.yul\":690:1019   */\n      swap3\n      swap2\n      pop\n      pop\n      jump\t// out\n        /* \"#utility.yul\":1025:1151   */\n    tag_263:\n        /* \"#utility.yul\":1062:1069   */\n      0x00\n        /* \"#utility.yul\":1102:1144   */\n      0xffffffffffffffffffffffffffffffffffffffff\n        /* \"#utility.yul\":1095:1100   */\n      dup3\n        /* \"#utility.yul\":1091:1145   */\n      and\n        /* \"#utility.yul\":1080:1145   */\n      swap1\n      pop\n        /* \"#utility.yul\":1025:1151   */\n      swap2\n      swap1\n      pop\n      jump\t// out\n        /* \"#utility.yul\":1157:1253   */\n    tag_264:\n        /* \"#utility.yul\":1194:1201   */\n      0x00\n        /* \"#utility.yul\":1223:1247   */\n      tag_323\n        /* \"#utility.yul\":1241:1246   */\n      dup3\n        /* \"#utility.yul\":1223:1247   */\n      tag_263\n      jump\t// in\n    tag_323:\n        /* \"#utility.yul\":1212:1247   */\n      swap1\n      pop\n        /* \"#utility.yul\":1157:1253   */\n      swap2\n      swap1\n      pop\n      jump\t// out\n        /* \"#utility.yul\":1259:1377   */\n    tag_265:\n        /* \"#utility.yul\":1346:1370   */\n      tag_325\n        /* \"#utility.yul\":1364:1369   */\n      dup2\n        /* \"#utility.yul\":1346:1370   */\n      tag_264\n      jump\t// in\n    tag_325:\n        /* \"#utility.yul\":1341:1344   */\n      dup3\n        /* \"#utility.yul\":1334:1371   */\n      mstore\n        /* \"#utility.yul\":1259:1377   */\n      pop\n      pop\n      jump\t// out\n        /* \"#utility.yul\":1383:1501   */\n    tag_266:\n        /* \"#utility.yul\":1470:1494   */\n      tag_327\n        /* \"#utility.yul\":1488:1493   */\n      dup2\n        /* \"#utility.yul\":1470:1494   */\n      tag_260\n      jump\t// in\n    tag_327:\n        /* \"#utility.yul\":1465:1468   */\n      dup3\n        /* \"#utility.yul\":1458:1495   */\n      mstore\n        /* \"#utility.yul\":1383:1501   */\n      pop\n      pop\n      jump\t// out\n        /* \"#utility.yul\":1507:1597   */\n    tag_267:\n        /* \"#utility.yul\":1541:1548   */\n      0x00\n        /* \"#utility.yul\":1584:1589   */\n      dup2\n        /* \"#utility.yul\":1577:1590   */\n      iszero\n        /* \"#utility.yul\":1570:1591   */\n      iszero\n        /* \"#utility.yul\":1559:1591   */\n      swap1\n      pop\n        /* \"#utility.yul\":1507:1597   */\n      swap2\n      swap1\n      pop\n      jump\t// out\n        /* \"#utility.yul\":1603:1712   */\n    tag_268:\n        /* \"#utility.yul\":1684:1705   */\n      tag_330\n        /* \"#utility.yul\":1699:1704   */\n      dup2\n        /* \"#utility.yul\":1684:1705   */\n      tag_267\n      jump\t// in\n    tag_330:\n        /* \"#utility.yul\":1679:1682   */\n      dup3\n        /* \"#utility.yul\":1672:1706   */\n      mstore\n        /* \"#utility.yul\":1603:1712   */\n      pop\n      pop\n      jump\t// out\n        /* \"#utility.yul\":1718:2148   */\n    tag_29:\n        /* \"#utility.yul\":1861:1865   */\n      0x00\n        /* \"#utility.yul\":1899:1901   */\n      0x60\n        /* \"#utility.yul\":1888:1897   */\n      dup3\n        /* \"#utility.yul\":1884:1902   */\n      add\n        /* \"#utility.yul\":1876:1902   */\n      swap1\n      pop\n        /* \"#utility.yul\":1912:1983   */\n      tag_332\n        /* \"#utility.yul\":1980:1981   */\n      0x00\n        /* \"#utility.yul\":1969:1978   */\n      dup4\n        /* \"#utility.yul\":1965:1982   */\n      add\n        /* \"#utility.yul\":1956:1962   */\n      dup7\n        /* \"#utility.yul\":1912:1983   */\n      tag_265\n      jump\t// in\n    tag_332:\n        /* \"#utility.yul\":1993:2065   */\n      tag_333\n        /* \"#utility.yul\":2061:2063   */\n      0x20\n        /* \"#utility.yul\":2050:2059   */\n      dup4\n        /* \"#utility.yul\":2046:2064   */\n      add\n        /* \"#utility.yul\":2037:2043   */\n      dup6\n        /* \"#utility.yul\":1993:2065   */\n      tag_266\n      jump\t// in\n    tag_333:\n        /* \"#utility.yul\":2075:2141   */\n      tag_334\n        /* \"#utility.yul\":2137:2139   */\n      0x40\n        /* \"#utility.yul\":2126:2135   */\n      dup4\n        /* \"#utility.yul\":2122:2140   */\n      add\n        /* \"#utility.yul\":2113:2119   */\n      dup5\n        /* \"#utility.yul\":2075:2141   */\n      tag_268\n      jump\t// in\n    tag_334:\n        /* \"#utility.yul\":1718:2148   */\n      swap5\n      swap4\n      pop\n      pop\n      pop\n      pop\n      jump\t// out\n        /* \"#utility.yul\":2154:2276   */\n    tag_269:\n        /* \"#utility.yul\":2227:2251   */\n      tag_336\n        /* \"#utility.yul\":2245:2250   */\n      dup2\n        /* \"#utility.yul\":2227:2251   */\n      tag_264\n      jump\t// in\n    tag_336:\n        /* \"#utility.yul\":2220:2225   */\n      dup2\n        /* \"#utility.yul\":2217:2252   */\n      eq\n        /* \"#utility.yul\":2207:2270   */\n      tag_337\n      jumpi\n        /* \"#utility.yul\":2266:2267   */\n      0x00\n        /* \"#utility.yul\":2263:2264   */\n      dup1\n        /* \"#utility.yul\":2256:2268   */\n      revert\n        /* \"#utility.yul\":2207:2270   */\n    tag_337:\n        /* \"#utility.yul\":2154:2276   */\n      pop\n      jump\t// out\n        /* \"#utility.yul\":2282:2421   */\n    tag_270:\n        /* \"#utility.yul\":2328:2333   */\n      0x00\n        /* \"#utility.yul\":2366:2372   */\n      dup2\n        /* \"#utility.yul\":2353:2373   */\n      calldataload\n        /* \"#utility.yul\":2344:2373   */\n      swap1\n      pop\n        /* \"#utility.yul\":2382:2415   */\n      tag_339\n        /* \"#utility.yul\":2409:2414   */\n      dup2\n        /* \"#utility.yul\":2382:2415   */\n      tag_269\n      jump\t// in\n    tag_339:\n        /* \"#utility.yul\":2282:2421   */\n      swap3\n      swap2\n      pop\n      pop\n      jump\t// out\n        /* \"#utility.yul\":2427:2544   */\n    tag_271:\n        /* \"#utility.yul\":2536:2537   */\n      0x00\n        /* \"#utility.yul\":2533:2534   */\n      dup1\n        /* \"#utility.yul\":2526:2538   */\n      revert\n        /* \"#utility.yul\":2550:2667   */\n    tag_272:\n        /* \"#utility.yul\":2659:2660   */\n      0x00\n        /* \"#utility.yul\":2656:2657   */\n      dup1\n        /* \"#utility.yul\":2649:2661   */\n      revert\n        /* \"#utility.yul\":2673:2790   */\n    tag_273:\n        /* \"#utility.yul\":2782:2783   */\n      0x00\n        /* \"#utility.yul\":2779:2780   */\n      dup1\n        /* \"#utility.yul\":2772:2784   */\n      revert\n        /* \"#utility.yul\":2809:3361   */\n    tag_274:\n        /* \"#utility.yul\":2866:2874   */\n      0x00\n        /* \"#utility.yul\":2876:2882   */\n      dup1\n        /* \"#utility.yul\":2926:2929   */\n      dup4\n        /* \"#utility.yul\":2919:2923   */\n      0x1f\n        /* \"#utility.yul\":2911:2917   */\n      dup5\n        /* \"#utility.yul\":2907:2924   */\n      add\n        /* \"#utility.yul\":2903:2930   */\n      slt\n        /* \"#utility.yul\":2893:3015   */\n      tag_344\n      jumpi\n        /* \"#utility.yul\":2934:3013   */\n      tag_345\n      tag_271\n      jump\t// in\n    tag_345:\n        /* \"#utility.yul\":2893:3015   */\n    tag_344:\n        /* \"#utility.yul\":3047:3053   */\n      dup3\n        /* \"#utility.yul\":3034:3054   */\n      calldataload\n        /* \"#utility.yul\":3024:3054   */\n      swap1\n      pop\n        /* \"#utility.yul\":3077:3095   */\n      0xffffffffffffffff\n        /* \"#utility.yul\":3069:3075   */\n      dup2\n        /* \"#utility.yul\":3066:3096   */\n      gt\n        /* \"#utility.yul\":3063:3180   */\n      iszero\n      tag_346\n      jumpi\n        /* \"#utility.yul\":3099:3178   */\n      tag_347\n      tag_272\n      jump\t// in\n    tag_347:\n        /* \"#utility.yul\":3063:3180   */\n    tag_346:\n        /* \"#utility.yul\":3213:3217   */\n      0x20\n        /* \"#utility.yul\":3205:3211   */\n      dup4\n        /* \"#utility.yul\":3201:3218   */\n      add\n        /* \"#utility.yul\":3189:3218   */\n      swap2\n      pop\n        /* \"#utility.yul\":3267:3270   */\n      dup4\n        /* \"#utility.yul\":3259:3263   */\n      0x01\n        /* \"#utility.yul\":3251:3257   */\n      dup3\n        /* \"#utility.yul\":3247:3264   */\n      mul\n        /* \"#utility.yul\":3237:3245   */\n      dup4\n        /* \"#utility.yul\":3233:3265   */\n      add\n        /* \"#utility.yul\":3230:3271   */\n      gt\n        /* \"#utility.yul\":3227:3355   */\n      iszero\n      tag_348\n      jumpi\n        /* \"#utility.yul\":3274:3353   */\n      tag_349\n      tag_273\n      jump\t// in\n    tag_349:\n        /* \"#utility.yul\":3227:3355   */\n    tag_348:\n        /* \"#utility.yul\":2809:3361   */\n      swap3\n      pop\n      swap3\n      swap1\n      pop\n      jump\t// out\n        /* \"#utility.yul\":3367:4330   */\n    tag_33:\n        /* \"#utility.yul\":3464:3470   */\n      0x00\n        /* \"#utility.yul\":3472:3478   */\n      dup1\n        /* \"#utility.yul\":3480:3486   */\n      0x00\n        /* \"#utility.yul\":3488:3494   */\n      dup1\n        /* \"#utility.yul\":3496:3502   */\n      0x00\n        /* \"#utility.yul\":3545:3548   */\n      0x80\n        /* \"#utility.yul\":3533:3542   */\n      dup7\n        /* \"#utility.yul\":3524:3531   */\n      dup9\n        /* \"#utility.yul\":3520:3543   */\n      sub\n        /* \"#utility.yul\":3516:3549   */\n      slt\n        /* \"#utility.yul\":3513:3633   */\n      iszero\n      tag_351\n      jumpi\n        /* \"#utility.yul\":3552:3631   */\n      tag_352\n      tag_258\n      jump\t// in\n    tag_352:\n        /* \"#utility.yul\":3513:3633   */\n    tag_351:\n        /* \"#utility.yul\":3672:3673   */\n      0x00\n        /* \"#utility.yul\":3697:3750   */\n      tag_353\n        /* \"#utility.yul\":3742:3749   */\n      dup9\n        /* \"#utility.yul\":3733:3739   */\n      dup3\n        /* \"#utility.yul\":3722:3731   */\n      dup10\n        /* \"#utility.yul\":3718:3740   */\n      add\n        /* \"#utility.yul\":3697:3750   */\n      tag_270\n      jump\t// in\n    tag_353:\n        /* \"#utility.yul\":3687:3750   */\n      swap6\n      pop\n        /* \"#utility.yul\":3643:3760   */\n      pop\n        /* \"#utility.yul\":3799:3801   */\n      0x20\n        /* \"#utility.yul\":3825:3878   */\n      tag_354\n        /* \"#utility.yul\":3870:3877   */\n      dup9\n        /* \"#utility.yul\":3861:3867   */\n      dup3\n        /* \"#utility.yul\":3850:3859   */\n      dup10\n        /* \"#utility.yul\":3846:3868   */\n      add\n        /* \"#utility.yul\":3825:3878   */\n      tag_270\n      jump\t// in\n    tag_354:\n        /* \"#utility.yul\":3815:3878   */\n      swap5\n      pop\n        /* \"#utility.yul\":3770:3888   */\n      pop\n        /* \"#utility.yul\":3927:3929   */\n      0x40\n        /* \"#utility.yul\":3953:4006   */\n      tag_355\n        /* \"#utility.yul\":3998:4005   */\n      dup9\n        /* \"#utility.yul\":3989:3995   */\n      dup3\n        /* \"#utility.yul\":3978:3987   */\n      dup10\n        /* \"#utility.yul\":3974:3996   */\n      add\n        /* \"#utility.yul\":3953:4006   */\n      tag_262\n      jump\t// in\n    tag_355:\n        /* \"#utility.yul\":3943:4006   */\n      swap4\n      pop\n        /* \"#utility.yul\":3898:4016   */\n      pop\n        /* \"#utility.yul\":4083:4085   */\n      0x60\n        /* \"#utility.yul\":4072:4081   */\n      dup7\n        /* \"#utility.yul\":4068:4086   */\n      add\n        /* \"#utility.yul\":4055:4087   */\n      calldataload\n        /* \"#utility.yul\":4114:4132   */\n      0xffffffffffffffff\n        /* \"#utility.yul\":4106:4112   */\n      dup2\n        /* \"#utility.yul\":4103:4133   */\n      gt\n        /* \"#utility.yul\":4100:4217   */\n      iszero\n      tag_356\n      jumpi\n        /* \"#utility.yul\":4136:4215   */\n      tag_357\n      tag_259\n      jump\t// in\n    tag_357:\n        /* \"#utility.yul\":4100:4217   */\n    tag_356:\n        /* \"#utility.yul\":4249:4313   */\n      tag_358\n        /* \"#utility.yul\":4305:4312   */\n      dup9\n        /* \"#utility.yul\":4296:4302   */\n      dup3\n        /* \"#utility.yul\":4285:4294   */\n      dup10\n        /* \"#utility.yul\":4281:4303   */\n      add\n        /* \"#utility.yul\":4249:4313   */\n      tag_274\n      jump\t// in\n    tag_358:\n        /* \"#utility.yul\":4231:4313   */\n      swap3\n      pop\n      swap3\n      pop\n        /* \"#utility.yul\":4026:4323   */\n      pop\n        /* \"#utility.yul\":3367:4330   */\n      swap3\n      swap6\n      pop\n      swap3\n      swap6\n      swap1\n      swap4\n      pop\n      jump\t// out\n        /* \"#utility.yul\":4336:4485   */\n    tag_275:\n        /* \"#utility.yul\":4372:4379   */\n      0x00\n        /* \"#utility.yul\":4412:4478   */\n      0xffffffff00000000000000000000000000000000000000000000000000000000\n        /* \"#utility.yul\":4405:4410   */\n      dup3\n        /* \"#utility.yul\":4401:4479   */\n      and\n        /* \"#utility.yul\":4390:4479   */\n      swap1\n      pop\n        /* \"#utility.yul\":4336:4485   */\n      swap2\n      swap1\n      pop\n      jump\t// out\n        /* \"#utility.yul\":4491:4606   */\n    tag_276:\n        /* \"#utility.yul\":4576:4599   */\n      tag_361\n        /* \"#utility.yul\":4593:4598   */\n      dup2\n        /* \"#utility.yul\":4576:4599   */\n      tag_275\n      jump\t// in\n    tag_361:\n        /* \"#utility.yul\":4571:4574   */\n      dup3\n        /* \"#utility.yul\":4564:4600   */\n      mstore\n        /* \"#utility.yul\":4491:4606   */\n      pop\n      pop\n      jump\t// out\n        /* \"#utility.yul\":4612:4830   */\n    tag_36:\n        /* \"#utility.yul\":4703:4707   */\n      0x00\n        /* \"#utility.yul\":4741:4743   */\n      0x20\n        /* \"#utility.yul\":4730:4739   */\n      dup3\n        /* \"#utility.yul\":4726:4744   */\n      add\n        /* \"#utility.yul\":4718:4744   */\n      swap1\n      pop\n        /* \"#utility.yul\":4754:4823   */\n      tag_363\n        /* \"#utility.yul\":4820:4821   */\n      0x00\n        /* \"#utility.yul\":4809:4818   */\n      dup4\n        /* \"#utility.yul\":4805:4822   */\n      add\n        /* \"#utility.yul\":4796:4802   */\n      dup5\n        /* \"#utility.yul\":4754:4823   */\n      tag_276\n      jump\t// in\n    tag_363:\n        /* \"#utility.yul\":4612:4830   */\n      swap3\n      swap2\n      pop\n      pop\n      jump\t// out\n        /* \"#utility.yul\":4836:5310   */\n    tag_40:\n        /* \"#utility.yul\":4904:4910   */\n      0x00\n        /* \"#utility.yul\":4912:4918   */\n      dup1\n        /* \"#utility.yul\":4961:4963   */\n      0x40\n        /* \"#utility.yul\":4949:4958   */\n      dup4\n        /* \"#utility.yul\":4940:4947   */\n      dup6\n        /* \"#utility.yul\":4936:4959   */\n      sub\n        /* \"#utility.yul\":4932:4964   */\n      slt\n        /* \"#utility.yul\":4929:5048   */\n      iszero\n      tag_365\n      jumpi\n        /* \"#utility.yul\":4967:5046   */\n      tag_366\n      tag_258\n      jump\t// in\n    tag_366:\n        /* \"#utility.yul\":4929:5048   */\n    tag_365:\n        /* \"#utility.yul\":5087:5088   */\n      0x00\n        /* \"#utility.yul\":5112:5165   */\n      tag_367\n        /* \"#utility.yul\":5157:5164   */\n      dup6\n        /* \"#utility.yul\":5148:5154   */\n      dup3\n        /* \"#utility.yul\":5137:5146   */\n      dup7\n        /* \"#utility.yul\":5133:5155   */\n      add\n        /* \"#utility.yul\":5112:5165   */\n      tag_262\n      jump\t// in\n    tag_367:\n        /* \"#utility.yul\":5102:5165   */\n      swap3\n      pop\n        /* \"#utility.yul\":5058:5175   */\n      pop\n        /* \"#utility.yul\":5214:5216   */\n      0x20\n        /* \"#utility.yul\":5240:5293   */\n      tag_368\n        /* \"#utility.yul\":5285:5292   */\n      dup6\n        /* \"#utility.yul\":5276:5282   */\n      dup3\n        /* \"#utility.yul\":5265:5274   */\n      dup7\n        /* \"#utility.yul\":5261:5283   */\n      add\n        /* \"#utility.yul\":5240:5293   */\n      tag_270\n      jump\t// in\n    tag_368:\n        /* \"#utility.yul\":5230:5293   */\n      swap2\n      pop\n        /* \"#utility.yul\":5185:5303   */\n      pop\n        /* \"#utility.yul\":4836:5310   */\n      swap3\n      pop\n      swap3\n      swap1\n      pop\n      jump\t// out\n        /* \"#utility.yul\":5316:5790   */\n    tag_45:\n        /* \"#utility.yul\":5384:5390   */\n      0x00\n        /* \"#utility.yul\":5392:5398   */\n      dup1\n        /* \"#utility.yul\":5441:5443   */\n      0x40\n        /* \"#utility.yul\":5429:5438   */\n      dup4\n        /* \"#utility.yul\":5420:5427   */\n      dup6\n        /* \"#utility.yul\":5416:5439   */\n      sub\n        /* \"#utility.yul\":5412:5444   */\n      slt\n        /* \"#utility.yul\":5409:5528   */\n      iszero\n      tag_370\n      jumpi\n        /* \"#utility.yul\":5447:5526   */\n      tag_371\n      tag_258\n      jump\t// in\n    tag_371:\n        /* \"#utility.yul\":5409:5528   */\n    tag_370:\n        /* \"#utility.yul\":5567:5568   */\n      0x00\n        /* \"#utility.yul\":5592:5645   */\n      tag_372\n        /* \"#utility.yul\":5637:5644   */\n      dup6\n        /* \"#utility.yul\":5628:5634   */\n      dup3\n        /* \"#utility.yul\":5617:5626   */\n      dup7\n        /* \"#utility.yul\":5613:5635   */\n      add\n        /* \"#utility.yul\":5592:5645   */\n      tag_270\n      jump\t// in\n    tag_372:\n        /* \"#utility.yul\":5582:5645   */\n      swap3\n      pop\n        /* \"#utility.yul\":5538:5655   */\n      pop\n        /* \"#utility.yul\":5694:5696   */\n      0x20\n        /* \"#utility.yul\":5720:5773   */\n      tag_373\n        /* \"#utility.yul\":5765:5772   */\n      dup6\n        /* \"#utility.yul\":5756:5762   */\n      dup3\n        /* \"#utility.yul\":5745:5754   */\n      dup7\n        /* \"#utility.yul\":5741:5763   */\n      add\n        /* \"#utility.yul\":5720:5773   */\n      tag_270\n      jump\t// in\n    tag_373:\n        /* \"#utility.yul\":5710:5773   */\n      swap2\n      pop\n        /* \"#utility.yul\":5665:5783   */\n      pop\n        /* \"#utility.yul\":5316:5790   */\n      swap3\n      pop\n      swap3\n      swap1\n      pop\n      jump\t// out\n        /* \"#utility.yul\":5796:5900   */\n    tag_277:\n        /* \"#utility.yul\":5841:5848   */\n      0x00\n        /* \"#utility.yul\":5870:5894   */\n      tag_375\n        /* \"#utility.yul\":5888:5893   */\n      dup3\n        /* \"#utility.yul\":5870:5894   */\n      tag_263\n      jump\t// in\n    tag_375:\n        /* \"#utility.yul\":5859:5894   */\n      swap1\n      pop\n        /* \"#utility.yul\":5796:5900   */\n      swap2\n      swap1\n      pop\n      jump\t// out\n        /* \"#utility.yul\":5906:6048   */\n    tag_278:\n        /* \"#utility.yul\":6009:6041   */\n      tag_377\n        /* \"#utility.yul\":6035:6040   */\n      dup2\n        /* \"#utility.yul\":6009:6041   */\n      tag_277\n      jump\t// in\n    tag_377:\n        /* \"#utility.yul\":6004:6007   */\n      dup3\n        /* \"#utility.yul\":5997:6042   */\n      mstore\n        /* \"#utility.yul\":5906:6048   */\n      pop\n      pop\n      jump\t// out\n        /* \"#utility.yul\":6054:6308   */\n    tag_51:\n        /* \"#utility.yul\":6163:6167   */\n      0x00\n        /* \"#utility.yul\":6201:6203   */\n      0x20\n        /* \"#utility.yul\":6190:6199   */\n      dup3\n        /* \"#utility.yul\":6186:6204   */\n      add\n        /* \"#utility.yul\":6178:6204   */\n      swap1\n      pop\n        /* \"#utility.yul\":6214:6301   */\n      tag_379\n        /* \"#utility.yul\":6298:6299   */\n      0x00\n        /* \"#utility.yul\":6287:6296   */\n      dup4\n        /* \"#utility.yul\":6283:6300   */\n      add\n        /* \"#utility.yul\":6274:6280   */\n      dup5\n        /* \"#utility.yul\":6214:6301   */\n      tag_278\n      jump\t// in\n    tag_379:\n        /* \"#utility.yul\":6054:6308   */\n      swap3\n      swap2\n      pop\n      pop\n      jump\t// out\n        /* \"#utility.yul\":6314:6374   */\n    tag_279:\n        /* \"#utility.yul\":6342:6345   */\n      0x00\n        /* \"#utility.yul\":6363:6368   */\n      dup2\n        /* \"#utility.yul\":6356:6368   */\n      swap1\n      pop\n        /* \"#utility.yul\":6314:6374   */\n      swap2\n      swap1\n      pop\n      jump\t// out\n        /* \"#utility.yul\":6380:6522   */\n    tag_280:\n        /* \"#utility.yul\":6430:6439   */\n      0x00\n        /* \"#utility.yul\":6463:6516   */\n      tag_382\n        /* \"#utility.yul\":6481:6515   */\n      tag_383\n        /* \"#utility.yul\":6490:6514   */\n      tag_384\n        /* \"#utility.yul\":6508:6513   */\n      dup5\n        /* \"#utility.yul\":6490:6514   */\n      tag_263\n      jump\t// in\n    tag_384:\n        /* \"#utility.yul\":6481:6515   */\n      tag_279\n      jump\t// in\n    tag_383:\n        /* \"#utility.yul\":6463:6516   */\n      tag_263\n      jump\t// in\n    tag_382:\n        /* \"#utility.yul\":6450:6516   */\n      swap1\n      pop\n        /* \"#utility.yul\":6380:6522   */\n      swap2\n      swap1\n      pop\n      jump\t// out\n        /* \"#utility.yul\":6528:6654   */\n    tag_281:\n        /* \"#utility.yul\":6578:6587   */\n      0x00\n        /* \"#utility.yul\":6611:6648   */\n      tag_386\n        /* \"#utility.yul\":6642:6647   */\n      dup3\n        /* \"#utility.yul\":6611:6648   */\n      tag_280\n      jump\t// in\n    tag_386:\n        /* \"#utility.yul\":6598:6648   */\n      swap1\n      pop\n        /* \"#utility.yul\":6528:6654   */\n      swap2\n      swap1\n      pop\n      jump\t// out\n        /* \"#utility.yul\":6660:6800   */\n    tag_282:\n        /* \"#utility.yul\":6724:6733   */\n      0x00\n        /* \"#utility.yul\":6757:6794   */\n      tag_388\n        /* \"#utility.yul\":6788:6793   */\n      dup3\n        /* \"#utility.yul\":6757:6794   */\n      tag_281\n      jump\t// in\n    tag_388:\n        /* \"#utility.yul\":6744:6794   */\n      swap1\n      pop\n        /* \"#utility.yul\":6660:6800   */\n      swap2\n      swap1\n      pop\n      jump\t// out\n        /* \"#utility.yul\":6806:6965   */\n    tag_283:\n        /* \"#utility.yul\":6907:6958   */\n      tag_390\n        /* \"#utility.yul\":6952:6957   */\n      dup2\n        /* \"#utility.yul\":6907:6958   */\n      tag_282\n      jump\t// in\n    tag_390:\n        /* \"#utility.yul\":6902:6905   */\n      dup3\n        /* \"#utility.yul\":6895:6959   */\n      mstore\n        /* \"#utility.yul\":6806:6965   */\n      pop\n      pop\n      jump\t// out\n        /* \"#utility.yul\":6971:7221   */\n    tag_59:\n        /* \"#utility.yul\":7078:7082   */\n      0x00\n        /* \"#utility.yul\":7116:7118   */\n      0x20\n        /* \"#utility.yul\":7105:7114   */\n      dup3\n        /* \"#utility.yul\":7101:7119   */\n      add\n        /* \"#utility.yul\":7093:7119   */\n      swap1\n      pop\n        /* \"#utility.yul\":7129:7214   */\n      tag_392\n        /* \"#utility.yul\":7211:7212   */\n      0x00\n        /* \"#utility.yul\":7200:7209   */\n      dup4\n        /* \"#utility.yul\":7196:7213   */\n      add\n        /* \"#utility.yul\":7187:7193   */\n      dup5\n        /* \"#utility.yul\":7129:7214   */\n      tag_283\n      jump\t// in\n    tag_392:\n        /* \"#utility.yul\":6971:7221   */\n      swap3\n      swap2\n      pop\n      pop\n      jump\t// out\n        /* \"#utility.yul\":7227:7449   */\n    tag_64:\n        /* \"#utility.yul\":7320:7324   */\n      0x00\n        /* \"#utility.yul\":7358:7360   */\n      0x20\n        /* \"#utility.yul\":7347:7356   */\n      dup3\n        /* \"#utility.yul\":7343:7361   */\n      add\n        /* \"#utility.yul\":7335:7361   */\n      swap1\n      pop\n        /* \"#utility.yul\":7371:7442   */\n      tag_394\n        /* \"#utility.yul\":7439:7440   */\n      0x00\n        /* \"#utility.yul\":7428:7437   */\n      dup4\n        /* \"#utility.yul\":7424:7441   */\n      add\n        /* \"#utility.yul\":7415:7421   */\n      dup5\n        /* \"#utility.yul\":7371:7442   */\n      tag_265\n      jump\t// in\n    tag_394:\n        /* \"#utility.yul\":7227:7449   */\n      swap3\n      swap2\n      pop\n      pop\n      jump\t// out\n        /* \"#utility.yul\":7455:7571   */\n    tag_284:\n        /* \"#utility.yul\":7525:7546   */\n      tag_396\n        /* \"#utility.yul\":7540:7545   */\n      dup2\n        /* \"#utility.yul\":7525:7546   */\n      tag_267\n      jump\t// in\n    tag_396:\n        /* \"#utility.yul\":7518:7523   */\n      dup2\n        /* \"#utility.yul\":7515:7547   */\n      eq\n        /* \"#utility.yul\":7505:7565   */\n      tag_397\n      jumpi\n        /* \"#utility.yul\":7561:7562   */\n      0x00\n        /* \"#utility.yul\":7558:7559   */\n      dup1\n        /* \"#utility.yul\":7551:7563   */\n      revert\n        /* \"#utility.yul\":7505:7565   */\n    tag_397:\n        /* \"#utility.yul\":7455:7571   */\n      pop\n      jump\t// out\n        /* \"#utility.yul\":7577:7710   */\n    tag_285:\n        /* \"#utility.yul\":7620:7625   */\n      0x00\n        /* \"#utility.yul\":7658:7664   */\n      dup2\n        /* \"#utility.yul\":7645:7665   */\n      calldataload\n        /* \"#utility.yul\":7636:7665   */\n      swap1\n      pop\n        /* \"#utility.yul\":7674:7704   */\n      tag_399\n        /* \"#utility.yul\":7698:7703   */\n      dup2\n        /* \"#utility.yul\":7674:7704   */\n      tag_284\n      jump\t// in\n    tag_399:\n        /* \"#utility.yul\":7577:7710   */\n      swap3\n      swap2\n      pop\n      pop\n      jump\t// out\n        /* \"#utility.yul\":7716:8475   */\n    tag_68:\n        /* \"#utility.yul\":7799:7805   */\n      0x00\n        /* \"#utility.yul\":7807:7813   */\n      dup1\n        /* \"#utility.yul\":7815:7821   */\n      0x00\n        /* \"#utility.yul\":7823:7829   */\n      dup1\n        /* \"#utility.yul\":7872:7875   */\n      0x80\n        /* \"#utility.yul\":7860:7869   */\n      dup6\n        /* \"#utility.yul\":7851:7858   */\n      dup8\n        /* \"#utility.yul\":7847:7870   */\n      sub\n        /* \"#utility.yul\":7843:7876   */\n      slt\n        /* \"#utility.yul\":7840:7960   */\n      iszero\n      tag_401\n      jumpi\n        /* \"#utility.yul\":7879:7958   */\n      tag_402\n      tag_258\n      jump\t// in\n    tag_402:\n        /* \"#utility.yul\":7840:7960   */\n    tag_401:\n        /* \"#utility.yul\":7999:8000   */\n      0x00\n        /* \"#utility.yul\":8024:8077   */\n      tag_403\n        /* \"#utility.yul\":8069:8076   */\n      dup8\n        /* \"#utility.yul\":8060:8066   */\n      dup3\n        /* \"#utility.yul\":8049:8058   */\n      dup9\n        /* \"#utility.yul\":8045:8067   */\n      add\n        /* \"#utility.yul\":8024:8077   */\n      tag_262\n      jump\t// in\n    tag_403:\n        /* \"#utility.yul\":8014:8077   */\n      swap5\n      pop\n        /* \"#utility.yul\":7970:8087   */\n      pop\n        /* \"#utility.yul\":8126:8128   */\n      0x20\n        /* \"#utility.yul\":8152:8205   */\n      tag_404\n        /* \"#utility.yul\":8197:8204   */\n      dup8\n        /* \"#utility.yul\":8188:8194   */\n      dup3\n        /* \"#utility.yul\":8177:8186   */\n      dup9\n        /* \"#utility.yul\":8173:8195   */\n      add\n        /* \"#utility.yul\":8152:8205   */\n      tag_270\n      jump\t// in\n    tag_404:\n        /* \"#utility.yul\":8142:8205   */\n      swap4\n      pop\n        /* \"#utility.yul\":8097:8215   */\n      pop\n        /* \"#utility.yul\":8254:8256   */\n      0x40\n        /* \"#utility.yul\":8280:8333   */\n      tag_405\n        /* \"#utility.yul\":8325:8332   */\n      dup8\n        /* \"#utility.yul\":8316:8322   */\n      dup3\n        /* \"#utility.yul\":8305:8314   */\n      dup9\n        /* \"#utility.yul\":8301:8323   */\n      add\n        /* \"#utility.yul\":8280:8333   */\n      tag_262\n      jump\t// in\n    tag_405:\n        /* \"#utility.yul\":8270:8333   */\n      swap3\n      pop\n        /* \"#utility.yul\":8225:8343   */\n      pop\n        /* \"#utility.yul\":8382:8384   */\n      0x60\n        /* \"#utility.yul\":8408:8458   */\n      tag_406\n        /* \"#utility.yul\":8450:8457   */\n      dup8\n        /* \"#utility.yul\":8441:8447   */\n      dup3\n        /* \"#utility.yul\":8430:8439   */\n      dup9\n        /* \"#utility.yul\":8426:8448   */\n      add\n        /* \"#utility.yul\":8408:8458   */\n      tag_285\n      jump\t// in\n    tag_406:\n        /* \"#utility.yul\":8398:8458   */\n      swap2\n      pop\n        /* \"#utility.yul\":8353:8468   */\n      pop\n        /* \"#utility.yul\":7716:8475   */\n      swap3\n      swap6\n      swap2\n      swap5\n      pop\n      swap3\n      pop\n      jump\t// out\n        /* \"#utility.yul\":8481:9100   */\n    tag_73:\n        /* \"#utility.yul\":8558:8564   */\n      0x00\n        /* \"#utility.yul\":8566:8572   */\n      dup1\n        /* \"#utility.yul\":8574:8580   */\n      0x00\n        /* \"#utility.yul\":8623:8625   */\n      0x60\n        /* \"#utility.yul\":8611:8620   */\n      dup5\n        /* \"#utility.yul\":8602:8609   */\n      dup7\n        /* \"#utility.yul\":8598:8621   */\n      sub\n        /* \"#utility.yul\":8594:8626   */\n      slt\n        /* \"#utility.yul\":8591:8710   */\n      iszero\n      tag_408\n      jumpi\n        /* \"#utility.yul\":8629:8708   */\n      tag_409\n      tag_258\n      jump\t// in\n    tag_409:\n        /* \"#utility.yul\":8591:8710   */\n    tag_408:\n        /* \"#utility.yul\":8749:8750   */\n      0x00\n        /* \"#utility.yul\":8774:8827   */\n      tag_410\n        /* \"#utility.yul\":8819:8826   */\n      dup7\n        /* \"#utility.yul\":8810:8816   */\n      dup3\n        /* \"#utility.yul\":8799:8808   */\n      dup8\n        /* \"#utility.yul\":8795:8817   */\n      add\n        /* \"#utility.yul\":8774:8827   */\n      tag_262\n      jump\t// in\n    tag_410:\n        /* \"#utility.yul\":8764:8827   */\n      swap4\n      pop\n        /* \"#utility.yul\":8720:8837   */\n      pop\n        /* \"#utility.yul\":8876:8878   */\n      0x20\n        /* \"#utility.yul\":8902:8955   */\n      tag_411\n        /* \"#utility.yul\":8947:8954   */\n      dup7\n        /* \"#utility.yul\":8938:8944   */\n      dup3\n        /* \"#utility.yul\":8927:8936   */\n      dup8\n        /* \"#utility.yul\":8923:8945   */\n      add\n        /* \"#utility.yul\":8902:8955   */\n      tag_262\n      jump\t// in\n    tag_411:\n        /* \"#utility.yul\":8892:8955   */\n      swap3\n      pop\n        /* \"#utility.yul\":8847:8965   */\n      pop\n        /* \"#utility.yul\":9004:9006   */\n      0x40\n        /* \"#utility.yul\":9030:9083   */\n      tag_412\n        /* \"#utility.yul\":9075:9082   */\n      dup7\n        /* \"#utility.yul\":9066:9072   */\n      dup3\n        /* \"#utility.yul\":9055:9064   */\n      dup8\n        /* \"#utility.yul\":9051:9073   */\n      add\n        /* \"#utility.yul\":9030:9083   */\n      tag_270\n      jump\t// in\n    tag_412:\n        /* \"#utility.yul\":9020:9083   */\n      swap2\n      pop\n        /* \"#utility.yul\":8975:9093   */\n      pop\n        /* \"#utility.yul\":8481:9100   */\n      swap3\n      pop\n      swap3\n      pop\n      swap3\n      jump\t// out\n        /* \"#utility.yul\":9106:9192   */\n    tag_286:\n        /* \"#utility.yul\":9141:9148   */\n      0x00\n        /* \"#utility.yul\":9181:9185   */\n      0xff\n        /* \"#utility.yul\":9174:9179   */\n      dup3\n        /* \"#utility.yul\":9170:9186   */\n      and\n        /* \"#utility.yul\":9159:9186   */\n      swap1\n      pop\n        /* \"#utility.yul\":9106:9192   */\n      swap2\n      swap1\n      pop\n      jump\t// out\n        /* \"#utility.yul\":9198:9316   */\n    tag_287:\n        /* \"#utility.yul\":9269:9291   */\n      tag_415\n        /* \"#utility.yul\":9285:9290   */\n      dup2\n        /* \"#utility.yul\":9269:9291   */\n      tag_286\n      jump\t// in\n    tag_415:\n        /* \"#utility.yul\":9262:9267   */\n      dup2\n        /* \"#utility.yul\":9259:9292   */\n      eq\n        /* \"#utility.yul\":9249:9310   */\n      tag_416\n      jumpi\n        /* \"#utility.yul\":9306:9307   */\n      0x00\n        /* \"#utility.yul\":9303:9304   */\n      dup1\n        /* \"#utility.yul\":9296:9308   */\n      revert\n        /* \"#utility.yul\":9249:9310   */\n    tag_416:\n        /* \"#utility.yul\":9198:9316   */\n      pop\n      jump\t// out\n        /* \"#utility.yul\":9322:9457   */\n    tag_288:\n        /* \"#utility.yul\":9366:9371   */\n      0x00\n        /* \"#utility.yul\":9404:9410   */\n      dup2\n        /* \"#utility.yul\":9391:9411   */\n      calldataload\n        /* \"#utility.yul\":9382:9411   */\n      swap1\n      pop\n        /* \"#utility.yul\":9420:9451   */\n      tag_418\n        /* \"#utility.yul\":9445:9450   */\n      dup2\n        /* \"#utility.yul\":9420:9451   */\n      tag_287\n      jump\t// in\n    tag_418:\n        /* \"#utility.yul\":9322:9457   */\n      swap3\n      swap2\n      pop\n      pop\n      jump\t// out\n        /* \"#utility.yul\":9463:9540   */\n    tag_289:\n        /* \"#utility.yul\":9500:9507   */\n      0x00\n        /* \"#utility.yul\":9529:9534   */\n      dup2\n        /* \"#utility.yul\":9518:9534   */\n      swap1\n      pop\n        /* \"#utility.yul\":9463:9540   */\n      swap2\n      swap1\n      pop\n      jump\t// out\n        /* \"#utility.yul\":9546:9668   */\n    tag_290:\n        /* \"#utility.yul\":9619:9643   */\n      tag_421\n        /* \"#utility.yul\":9637:9642   */\n      dup2\n        /* \"#utility.yul\":9619:9643   */\n      tag_289\n      jump\t// in\n    tag_421:\n        /* \"#utility.yul\":9612:9617   */\n      dup2\n        /* \"#utility.yul\":9609:9644   */\n      eq\n        /* \"#utility.yul\":9599:9662   */\n      tag_422\n      jumpi\n        /* \"#utility.yul\":9658:9659   */\n      0x00\n        /* \"#utility.yul\":9655:9656   */\n      dup1\n        /* \"#utility.yul\":9648:9660   */\n      revert\n        /* \"#utility.yul\":9599:9662   */\n    tag_422:\n        /* \"#utility.yul\":9546:9668   */\n      pop\n      jump\t// out\n        /* \"#utility.yul\":9674:9813   */\n    tag_291:\n        /* \"#utility.yul\":9720:9725   */\n      0x00\n        /* \"#utility.yul\":9758:9764   */\n      dup2\n        /* \"#utility.yul\":9745:9765   */\n      calldataload\n        /* \"#utility.yul\":9736:9765   */\n      swap1\n      pop\n        /* \"#utility.yul\":9774:9807   */\n      tag_424\n        /* \"#utility.yul\":9801:9806   */\n      dup2\n        /* \"#utility.yul\":9774:9807   */\n      tag_290\n      jump\t// in\n    tag_424:\n        /* \"#utility.yul\":9674:9813   */\n      swap3\n      swap2\n      pop\n      pop\n      jump\t// out\n        /* \"#utility.yul\":9819:10872   */\n    tag_82:\n        /* \"#utility.yul\":9921:9927   */\n      0x00\n        /* \"#utility.yul\":9929:9935   */\n      dup1\n        /* \"#utility.yul\":9937:9943   */\n      0x00\n        /* \"#utility.yul\":9945:9951   */\n      dup1\n        /* \"#utility.yul\":9953:9959   */\n      0x00\n        /* \"#utility.yul\":9961:9967   */\n      dup1\n        /* \"#utility.yul\":10010:10013   */\n      0xc0\n        /* \"#utility.yul\":9998:10007   */\n      dup8\n        /* \"#utility.yul\":9989:9996   */\n      dup10\n        /* \"#utility.yul\":9985:10008   */\n      sub\n        /* \"#utility.yul\":9981:10014   */\n      slt\n        /* \"#utility.yul\":9978:10098   */\n      iszero\n      tag_426\n      jumpi\n        /* \"#utility.yul\":10017:10096   */\n      tag_427\n      tag_258\n      jump\t// in\n    tag_427:\n        /* \"#utility.yul\":9978:10098   */\n    tag_426:\n        /* \"#utility.yul\":10137:10138   */\n      0x00\n        /* \"#utility.yul\":10162:10215   */\n      tag_428\n        /* \"#utility.yul\":10207:10214   */\n      dup10\n        /* \"#utility.yul\":10198:10204   */\n      dup3\n        /* \"#utility.yul\":10187:10196   */\n      dup11\n        /* \"#utility.yul\":10183:10205   */\n      add\n        /* \"#utility.yul\":10162:10215   */\n      tag_262\n      jump\t// in\n    tag_428:\n        /* \"#utility.yul\":10152:10215   */\n      swap7\n      pop\n        /* \"#utility.yul\":10108:10225   */\n      pop\n        /* \"#utility.yul\":10264:10266   */\n      0x20\n        /* \"#utility.yul\":10290:10343   */\n      tag_429\n        /* \"#utility.yul\":10335:10342   */\n      dup10\n        /* \"#utility.yul\":10326:10332   */\n      dup3\n        /* \"#utility.yul\":10315:10324   */\n      dup11\n        /* \"#utility.yul\":10311:10333   */\n      add\n        /* \"#utility.yul\":10290:10343   */\n      tag_262\n      jump\t// in\n    tag_429:\n        /* \"#utility.yul\":10280:10343   */\n      swap6\n      pop\n        /* \"#utility.yul\":10235:10353   */\n      pop\n        /* \"#utility.yul\":10392:10394   */\n      0x40\n        /* \"#utility.yul\":10418:10471   */\n      tag_430\n        /* \"#utility.yul\":10463:10470   */\n      dup10\n        /* \"#utility.yul\":10454:10460   */\n      dup3\n        /* \"#utility.yul\":10443:10452   */\n      dup11\n        /* \"#utility.yul\":10439:10461   */\n      add\n        /* \"#utility.yul\":10418:10471   */\n      tag_262\n      jump\t// in\n    tag_430:\n        /* \"#utility.yul\":10408:10471   */\n      swap5\n      pop\n        /* \"#utility.yul\":10363:10481   */\n      pop\n        /* \"#utility.yul\":10520:10522   */\n      0x60\n        /* \"#utility.yul\":10546:10597   */\n      tag_431\n        /* \"#utility.yul\":10589:10596   */\n      dup10\n        /* \"#utility.yul\":10580:10586   */\n      dup3\n        /* \"#utility.yul\":10569:10578   */\n      dup11\n        /* \"#utility.yul\":10565:10587   */\n      add\n        /* \"#utility.yul\":10546:10597   */\n      tag_288\n      jump\t// in\n    tag_431:\n        /* \"#utility.yul\":10536:10597   */\n      swap4\n      pop\n        /* \"#utility.yul\":10491:10607   */\n      pop\n        /* \"#utility.yul\":10646:10649   */\n      0x80\n        /* \"#utility.yul\":10673:10726   */\n      tag_432\n        /* \"#utility.yul\":10718:10725   */\n      dup10\n        /* \"#utility.yul\":10709:10715   */\n      dup3\n        /* \"#utility.yul\":10698:10707   */\n      dup11\n        /* \"#utility.yul\":10694:10716   */\n      add\n        /* \"#utility.yul\":10673:10726   */\n      tag_291\n      jump\t// in\n    tag_432:\n        /* \"#utility.yul\":10663:10726   */\n      swap3\n      pop\n        /* \"#utility.yul\":10617:10736   */\n      pop\n        /* \"#utility.yul\":10775:10778   */\n      0xa0\n        /* \"#utility.yul\":10802:10855   */\n      tag_433\n        /* \"#utility.yul\":10847:10854   */\n      dup10\n        /* \"#utility.yul\":10838:10844   */\n      dup3\n        /* \"#utility.yul\":10827:10836   */\n      dup11\n        /* \"#utility.yul\":10823:10845   */\n      add\n        /* \"#utility.yul\":10802:10855   */\n      tag_291\n      jump\t// in\n    tag_433:\n        /* \"#utility.yul\":10792:10855   */\n      swap2\n      pop\n        /* \"#utility.yul\":10746:10865   */\n      pop\n        /* \"#utility.yul\":9819:10872   */\n      swap3\n      swap6\n      pop\n      swap3\n      swap6\n      pop\n      swap3\n      swap6\n      jump\t// out\n        /* \"#utility.yul\":10878:11016   */\n    tag_292:\n        /* \"#utility.yul\":10959:10991   */\n      tag_435\n        /* \"#utility.yul\":10985:10990   */\n      dup2\n        /* \"#utility.yul\":10959:10991   */\n      tag_277\n      jump\t// in\n    tag_435:\n        /* \"#utility.yul\":10952:10957   */\n      dup2\n        /* \"#utility.yul\":10949:10992   */\n      eq\n        /* \"#utility.yul\":10939:11010   */\n      tag_436\n      jumpi\n        /* \"#utility.yul\":11006:11007   */\n      0x00\n        /* \"#utility.yul\":11003:11004   */\n      dup1\n        /* \"#utility.yul\":10996:11008   */\n      revert\n        /* \"#utility.yul\":10939:11010   */\n    tag_436:\n        /* \"#utility.yul\":10878:11016   */\n      pop\n      jump\t// out\n        /* \"#utility.yul\":11022:11177   */\n    tag_293:\n        /* \"#utility.yul\":11076:11081   */\n      0x00\n        /* \"#utility.yul\":11114:11120   */\n      dup2\n        /* \"#utility.yul\":11101:11121   */\n      calldataload\n        /* \"#utility.yul\":11092:11121   */\n      swap1\n      pop\n        /* \"#utility.yul\":11130:11171   */\n      tag_438\n        /* \"#utility.yul\":11165:11170   */\n      dup2\n        /* \"#utility.yul\":11130:11171   */\n      tag_292\n      jump\t// in\n    tag_438:\n        /* \"#utility.yul\":11022:11177   */\n      swap3\n      swap2\n      pop\n      pop\n      jump\t// out\n        /* \"#utility.yul\":11183:11528   */\n    tag_91:\n        /* \"#utility.yul\":11250:11256   */\n      0x00\n        /* \"#utility.yul\":11299:11301   */\n      0x20\n        /* \"#utility.yul\":11287:11296   */\n      dup3\n        /* \"#utility.yul\":11278:11285   */\n      dup5\n        /* \"#utility.yul\":11274:11297   */\n      sub\n        /* \"#utility.yul\":11270:11302   */\n      slt\n        /* \"#utility.yul\":11267:11386   */\n      iszero\n      tag_440\n      jumpi\n        /* \"#utility.yul\":11305:11384   */\n      tag_441\n      tag_258\n      jump\t// in\n    tag_441:\n        /* \"#utility.yul\":11267:11386   */\n    tag_440:\n        /* \"#utility.yul\":11425:11426   */\n      0x00\n        /* \"#utility.yul\":11450:11511   */\n      tag_442\n        /* \"#utility.yul\":11503:11510   */\n      dup5\n        /* \"#utility.yul\":11494:11500   */\n      dup3\n        /* \"#utility.yul\":11483:11492   */\n      dup6\n        /* \"#utility.yul\":11479:11501   */\n      add\n        /* \"#utility.yul\":11450:11511   */\n      tag_293\n      jump\t// in\n    tag_442:\n        /* \"#utility.yul\":11440:11511   */\n      swap2\n      pop\n        /* \"#utility.yul\":11396:11521   */\n      pop\n        /* \"#utility.yul\":11183:11528   */\n      swap3\n      swap2\n      pop\n      pop\n      jump\t// out\n        /* \"#utility.yul\":11534:11863   */\n    tag_96:\n        /* \"#utility.yul\":11593:11599   */\n      0x00\n        /* \"#utility.yul\":11642:11644   */\n      0x20\n        /* \"#utility.yul\":11630:11639   */\n      dup3\n        /* \"#utility.yul\":11621:11628   */\n      dup5\n        /* \"#utility.yul\":11617:11640   */\n      sub\n        /* \"#utility.yul\":11613:11645   */\n      slt\n        /* \"#utility.yul\":11610:11729   */\n      iszero\n      tag_444\n      jumpi\n        /* \"#utility.yul\":11648:11727   */\n      tag_445\n      tag_258\n      jump\t// in\n    tag_445:\n        /* \"#utility.yul\":11610:11729   */\n    tag_444:\n        /* \"#utility.yul\":11768:11769   */\n      0x00\n        /* \"#utility.yul\":11793:11846   */\n      tag_446\n        /* \"#utility.yul\":11838:11845   */\n      dup5\n        /* \"#utility.yul\":11829:11835   */\n      dup3\n        /* \"#utility.yul\":11818:11827   */\n      dup6\n        /* \"#utility.yul\":11814:11836   */\n      add\n        /* \"#utility.yul\":11793:11846   */\n      tag_270\n      jump\t// in\n    tag_446:\n        /* \"#utility.yul\":11783:11846   */\n      swap2\n      pop\n        /* \"#utility.yul\":11739:11856   */\n      pop\n        /* \"#utility.yul\":11534:11863   */\n      swap3\n      swap2\n      pop\n      pop\n      jump\t// out\n        /* \"#utility.yul\":11869:12012   */\n    tag_294:\n        /* \"#utility.yul\":11926:11931   */\n      0x00\n        /* \"#utility.yul\":11957:11963   */\n      dup2\n        /* \"#utility.yul\":11951:11964   */\n      mload\n        /* \"#utility.yul\":11942:11964   */\n      swap1\n      pop\n        /* \"#utility.yul\":11973:12006   */\n      tag_448\n        /* \"#utility.yul\":12000:12005   */\n      dup2\n        /* \"#utility.yul\":11973:12006   */\n      tag_261\n      jump\t// in\n    tag_448:\n        /* \"#utility.yul\":11869:12012   */\n      swap3\n      swap2\n      pop\n      pop\n      jump\t// out\n        /* \"#utility.yul\":12018:12369   */\n    tag_108:\n        /* \"#utility.yul\":12088:12094   */\n      0x00\n        /* \"#utility.yul\":12137:12139   */\n      0x20\n        /* \"#utility.yul\":12125:12134   */\n      dup3\n        /* \"#utility.yul\":12116:12123   */\n      dup5\n        /* \"#utility.yul\":12112:12135   */\n      sub\n        /* \"#utility.yul\":12108:12140   */\n      slt\n        /* \"#utility.yul\":12105:12224   */\n      iszero\n      tag_450\n      jumpi\n        /* \"#utility.yul\":12143:12222   */\n      tag_451\n      tag_258\n      jump\t// in\n    tag_451:\n        /* \"#utility.yul\":12105:12224   */\n    tag_450:\n        /* \"#utility.yul\":12263:12264   */\n      0x00\n        /* \"#utility.yul\":12288:12352   */\n      tag_452\n        /* \"#utility.yul\":12344:12351   */\n      dup5\n        /* \"#utility.yul\":12335:12341   */\n      dup3\n        /* \"#utility.yul\":12324:12333   */\n      dup6\n        /* \"#utility.yul\":12320:12342   */\n      add\n        /* \"#utility.yul\":12288:12352   */\n      tag_294\n      jump\t// in\n    tag_452:\n        /* \"#utility.yul\":12278:12352   */\n      swap2\n      pop\n        /* \"#utility.yul\":12234:12362   */\n      pop\n        /* \"#utility.yul\":12018:12369   */\n      swap3\n      swap2\n      pop\n      pop\n      jump\t// out\n        /* \"#utility.yul\":12375:12460   */\n    tag_295:\n        /* \"#utility.yul\":12420:12427   */\n      0x00\n        /* \"#utility.yul\":12449:12454   */\n      dup2\n        /* \"#utility.yul\":12438:12454   */\n      swap1\n      pop\n        /* \"#utility.yul\":12375:12460   */\n      swap2\n      swap1\n      pop\n      jump\t// out\n        /* \"#utility.yul\":12466:12624   */\n    tag_296:\n        /* \"#utility.yul\":12524:12533   */\n      0x00\n        /* \"#utility.yul\":12557:12618   */\n      tag_455\n        /* \"#utility.yul\":12575:12617   */\n      tag_456\n        /* \"#utility.yul\":12584:12616   */\n      tag_457\n        /* \"#utility.yul\":12610:12615   */\n      dup5\n        /* \"#utility.yul\":12584:12616   */\n      tag_295\n      jump\t// in\n    tag_457:\n        /* \"#utility.yul\":12575:12617   */\n      tag_279\n      jump\t// in\n    tag_456:\n        /* \"#utility.yul\":12557:12618   */\n      tag_260\n      jump\t// in\n    tag_455:\n        /* \"#utility.yul\":12544:12618   */\n      swap1\n      pop\n        /* \"#utility.yul\":12466:12624   */\n      swap2\n      swap1\n      pop\n      jump\t// out\n        /* \"#utility.yul\":12630:12777   */\n    tag_297:\n        /* \"#utility.yul\":12725:12770   */\n      tag_459\n        /* \"#utility.yul\":12764:12769   */\n      dup2\n        /* \"#utility.yul\":12725:12770   */\n      tag_296\n      jump\t// in\n    tag_459:\n        /* \"#utility.yul\":12720:12723   */\n      dup3\n        /* \"#utility.yul\":12713:12771   */\n      mstore\n        /* \"#utility.yul\":12630:12777   */\n      pop\n      pop\n      jump\t// out\n        /* \"#utility.yul\":12783:13131   */\n    tag_113:\n        /* \"#utility.yul\":12912:12916   */\n      0x00\n        /* \"#utility.yul\":12950:12952   */\n      0x40\n        /* \"#utility.yul\":12939:12948   */\n      dup3\n        /* \"#utility.yul\":12935:12953   */\n      add\n        /* \"#utility.yul\":12927:12953   */\n      swap1\n      pop\n        /* \"#utility.yul\":12963:13034   */\n      tag_461\n        /* \"#utility.yul\":13031:13032   */\n      0x00\n        /* \"#utility.yul\":13020:13029   */\n      dup4\n        /* \"#utility.yul\":13016:13033   */\n      add\n        /* \"#utility.yul\":13007:13013   */\n      dup6\n        /* \"#utility.yul\":12963:13034   */\n      tag_265\n      jump\t// in\n    tag_461:\n        /* \"#utility.yul\":13044:13124   */\n      tag_462\n        /* \"#utility.yul\":13120:13122   */\n      0x20\n        /* \"#utility.yul\":13109:13118   */\n      dup4\n        /* \"#utility.yul\":13105:13123   */\n      add\n        /* \"#utility.yul\":13096:13102   */\n      dup5\n        /* \"#utility.yul\":13044:13124   */\n      tag_297\n      jump\t// in\n    tag_462:\n        /* \"#utility.yul\":12783:13131   */\n      swap4\n      swap3\n      pop\n      pop\n      pop\n      jump\t// out\n        /* \"#utility.yul\":13137:13579   */\n    tag_118:\n        /* \"#utility.yul\":13286:13290   */\n      0x00\n        /* \"#utility.yul\":13324:13326   */\n      0x60\n        /* \"#utility.yul\":13313:13322   */\n      dup3\n        /* \"#utility.yul\":13309:13327   */\n      add\n        /* \"#utility.yul\":13301:13327   */\n      swap1\n      pop\n        /* \"#utility.yul\":13337:13408   */\n      tag_464\n        /* \"#utility.yul\":13405:13406   */\n      0x00\n        /* \"#utility.yul\":13394:13403   */\n      dup4\n        /* \"#utility.yul\":13390:13407   */\n      add\n        /* \"#utility.yul\":13381:13387   */\n      dup7\n        /* \"#utility.yul\":13337:13408   */\n      tag_265\n      jump\t// in\n    tag_464:\n        /* \"#utility.yul\":13418:13490   */\n      tag_465\n        /* \"#utility.yul\":13486:13488   */\n      0x20\n        /* \"#utility.yul\":13475:13484   */\n      dup4\n        /* \"#utility.yul\":13471:13489   */\n      add\n        /* \"#utility.yul\":13462:13468   */\n      dup6\n        /* \"#utility.yul\":13418:13490   */\n      tag_265\n      jump\t// in\n    tag_465:\n        /* \"#utility.yul\":13500:13572   */\n      tag_466\n        /* \"#utility.yul\":13568:13570   */\n      0x40\n        /* \"#utility.yul\":13557:13566   */\n      dup4\n        /* \"#utility.yul\":13553:13571   */\n      add\n        /* \"#utility.yul\":13544:13550   */\n      dup5\n        /* \"#utility.yul\":13500:13572   */\n      tag_266\n      jump\t// in\n    tag_466:\n        /* \"#utility.yul\":13137:13579   */\n      swap5\n      swap4\n      pop\n      pop\n      pop\n      pop\n      jump\t// out\n        /* \"#utility.yul\":13585:13765   */\n    tag_298:\n        /* \"#utility.yul\":13633:13710   */\n      0x4e487b7100000000000000000000000000000000000000000000000000000000\n        /* \"#utility.yul\":13630:13631   */\n      0x00\n        /* \"#utility.yul\":13623:13711   */\n      mstore\n        /* \"#utility.yul\":13730:13734   */\n      0x11\n        /* \"#utility.yul\":13727:13728   */\n      0x04\n        /* \"#utility.yul\":13720:13735   */\n      mstore\n        /* \"#utility.yul\":13754:13758   */\n      0x24\n        /* \"#utility.yul\":13751:13752   */\n      0x00\n        /* \"#utility.yul\":13744:13759   */\n      revert\n        /* \"#utility.yul\":13771:14004   */\n    tag_123:\n        /* \"#utility.yul\":13810:13813   */\n      0x00\n        /* \"#utility.yul\":13833:13857   */\n      tag_469\n        /* \"#utility.yul\":13851:13856   */\n      dup3\n        /* \"#utility.yul\":13833:13857   */\n      tag_260\n      jump\t// in\n    tag_469:\n        /* \"#utility.yul\":13824:13857   */\n      swap2\n      pop\n        /* \"#utility.yul\":13879:13945   */\n      0xffffffffffffffffffffffffffffffffffffffffffffffffffffffffffffffff\n        /* \"#utility.yul\":13872:13877   */\n      dup3\n        /* \"#utility.yul\":13869:13946   */\n      sub\n        /* \"#utility.yul\":13866:13969   */\n      tag_470\n      jumpi\n        /* \"#utility.yul\":13949:13967   */\n      tag_471\n      tag_298\n      jump\t// in\n    tag_471:\n        /* \"#utility.yul\":13866:13969   */\n    tag_470:\n        /* \"#utility.yul\":13996:13997   */\n      0x01\n        /* \"#utility.yul\":13989:13994   */\n      dup3\n        /* \"#utility.yul\":13985:13998   */\n      add\n        /* \"#utility.yul\":13978:13998   */\n      swap1\n      pop\n        /* \"#utility.yul\":13771:14004   */\n      swap2\n      swap1\n      pop\n      jump\t// out\n        /* \"#utility.yul\":14010:14342   */\n    tag_132:\n        /* \"#utility.yul\":14131:14135   */\n      0x00\n        /* \"#utility.yul\":14169:14171   */\n      0x40\n        /* \"#utility.yul\":14158:14167   */\n      dup3\n        /* \"#utility.yul\":14154:14172   */\n      add\n        /* \"#utility.yul\":14146:14172   */\n      swap1\n      pop\n        /* \"#utility.yul\":14182:14253   */\n      tag_473\n        /* \"#utility.yul\":14250:14251   */\n      0x00\n        /* \"#utility.yul\":14239:14248   */\n      dup4\n        /* \"#utility.yul\":14235:14252   */\n      add\n        /* \"#utility.yul\":14226:14232   */\n      dup6\n        /* \"#utility.yul\":14182:14253   */\n      tag_265\n      jump\t// in\n    tag_473:\n        /* \"#utility.yul\":14263:14335   */\n      tag_474\n        /* \"#utility.yul\":14331:14333   */\n      0x20\n        /* \"#utility.yul\":14320:14329   */\n      dup4\n        /* \"#utility.yul\":14316:14334   */\n      add\n        /* \"#utility.yul\":14307:14313   */\n      dup5\n        /* \"#utility.yul\":14263:14335   */\n      tag_266\n      jump\t// in\n    tag_474:\n        /* \"#utility.yul\":14010:14342   */\n      swap4\n      swap3\n      pop\n      pop\n      pop\n      jump\t// out\n        /* \"#utility.yul\":14348:14485   */\n    tag_299:\n        /* \"#utility.yul\":14402:14407   */\n      0x00\n        /* \"#utility.yul\":14433:14439   */\n      dup2\n        /* \"#utility.yul\":14427:14440   */\n      mload\n        /* \"#utility.yul\":14418:14440   */\n      swap1\n      pop\n        /* \"#utility.yul\":14449:14479   */\n      tag_476\n        /* \"#utility.yul\":14473:14478   */\n      dup2\n        /* \"#utility.yul\":14449:14479   */\n      tag_284\n      jump\t// in\n    tag_476:\n        /* \"#utility.yul\":14348:14485   */\n      swap3\n      swap2\n      pop\n      pop\n      jump\t// out\n        /* \"#utility.yul\":14491:14836   */\n    tag_136:\n        /* \"#utility.yul\":14558:14564   */\n      0x00\n        /* \"#utility.yul\":14607:14609   */\n      0x20\n        /* \"#utility.yul\":14595:14604   */\n      dup3\n        /* \"#utility.yul\":14586:14593   */\n      dup5\n        /* \"#utility.yul\":14582:14605   */\n      sub\n        /* \"#utility.yul\":14578:14610   */\n      slt\n        /* \"#utility.yul\":14575:14694   */\n      iszero\n      tag_478\n      jumpi\n        /* \"#utility.yul\":14613:14692   */\n      tag_479\n      tag_258\n      jump\t// in\n    tag_479:\n        /* \"#utility.yul\":14575:14694   */\n    tag_478:\n        /* \"#utility.yul\":14733:14734   */\n      0x00\n        /* \"#utility.yul\":14758:14819   */\n      tag_480\n        /* \"#utility.yul\":14811:14818   */\n      dup5\n        /* \"#utility.yul\":14802:14808   */\n      dup3\n        /* \"#utility.yul\":14791:14800   */\n      dup6\n        /* \"#utility.yul\":14787:14809   */\n      add\n        /* \"#utility.yul\":14758:14819   */\n      tag_299\n      jump\t// in\n    tag_480:\n        /* \"#utility.yul\":14748:14819   */\n      swap2\n      pop\n        /* \"#utility.yul\":14704:14829   */\n      pop\n        /* \"#utility.yul\":14491:14836   */\n      swap3\n      swap2\n      pop\n      pop\n      jump\t// out\n        /* \"#utility.yul\":14842:15011   */\n    tag_300:\n        /* \"#utility.yul\":14926:14937   */\n      0x00\n        /* \"#utility.yul\":14960:14966   */\n      dup3\n        /* \"#utility.yul\":14955:14958   */\n      dup3\n        /* \"#utility.yul\":14948:14967   */\n      mstore\n        /* \"#utility.yul\":15000:15004   */\n      0x20\n        /* \"#utility.yul\":14995:14998   */\n      dup3\n        /* \"#utility.yul\":14991:15005   */\n      add\n        /* \"#utility.yul\":14976:15005   */\n      swap1\n      pop\n        /* \"#utility.yul\":14842:15011   */\n      swap3\n      swap2\n      pop\n      pop\n      jump\t// out\n        /* \"#utility.yul\":15017:15188   */\n    tag_301:\n        /* \"#utility.yul\":15157:15180   */\n      0x7065726d69742076616c7565206d69736d617463680000000000000000000000\n        /* \"#utility.yul\":15153:15154   */\n      0x00\n        /* \"#utility.yul\":15145:15151   */\n      dup3\n        /* \"#utility.yul\":15141:15155   */\n      add\n        /* \"#utility.yul\":15134:15181   */\n      mstore\n        /* \"#utility.yul\":15017:15188   */\n      pop\n      jump\t// out\n        /* \"#utility.yul\":15194:15560   */\n    tag_302:\n        /* \"#utility.yul\":15336:15339   */\n      0x00\n        /* \"#utility.yul\":15357:15424   */\n      tag_484\n        /* \"#utility.yul\":15421:15423   */\n      0x15\n        /* \"#utility.yul\":15416:15419   */\n      dup4\n        /* \"#utility.yul\":15357:15424   */\n      tag_300\n      jump\t// in\n    tag_484:\n        /* \"#utility.yul\":15350:15424   */\n      swap2\n      pop\n        /* \"#utility.yul\":15433:15526   */\n      tag_485\n        /* \"#utility.yul\":15522:15525   */\n      dup3\n        /* \"#utility.yul\":15433:15526   */\n      tag_301\n      jump\t// in\n    tag_485:\n        /* \"#utility.yul\":15551:15553   */\n      0x20\n        /* \"#utility.yul\":15546:15549   */\n      dup3\n        /* \"#utility.yul\":15542:15554   */\n      add\n        /* \"#utility.yul\":15535:15554   */\n      swap1\n      pop\n        /* \"#utility.yul\":15194:15560   */\n      swap2\n      swap1\n      pop\n      jump\t// out\n        /* \"#utility.yul\":15566:15985   */\n    tag_181:\n        /* \"#utility.yul\":15732:15736   */\n      0x00\n        /* \"#utility.yul\":15770:15772   */\n      0x20\n        /* \"#utility.yul\":15759:15768   */\n      dup3\n        /* \"#utility.yul\":15755:15773   */\n      add\n        /* \"#utility.yul\":15747:15773   */\n      swap1\n      pop\n        /* \"#utility.yul\":15819:15828   */\n      dup2\n        /* \"#utility.yul\":15813:15817   */\n      dup2\n        /* \"#utility.yul\":15809:15829   */\n      sub\n        /* \"#utility.yul\":15805:15806   */\n      0x00\n        /* \"#utility.yul\":15794:15803   */\n      dup4\n        /* \"#utility.yul\":15790:15807   */\n      add\n        /* \"#utility.yul\":15783:15830   */\n      mstore\n        /* \"#utility.yul\":15847:15978   */\n      tag_487\n        /* \"#utility.yul\":15973:15977   */\n      dup2\n        /* \"#utility.yul\":15847:15978   */\n      tag_302\n      jump\t// in\n    tag_487:\n        /* \"#utility.yul\":15839:15978   */\n      swap1\n      pop\n        /* \"#utility.yul\":15566:15985   */\n      swap2\n      swap1\n      pop\n      jump\t// out\n        /* \"#utility.yul\":15991:16103   */\n    tag_303:\n        /* \"#utility.yul\":16074:16096   */\n      tag_489\n        /* \"#utility.yul\":16090:16095   */\n      dup2\n        /* \"#utility.yul\":16074:16096   */\n      tag_286\n      jump\t// in\n    tag_489:\n        /* \"#utility.yul\":16069:16072   */\n      dup3\n        /* \"#utility.yul\":16062:16097   */\n      mstore\n        /* \"#utility.yul\":15991:16103   */\n      pop\n      pop\n      jump\t// out\n        /* \"#utility.yul\":16109:16227   */\n    tag_304:\n        /* \"#utility.yul\":16196:16220   */\n      tag_491\n        /* \"#utility.yul\":16214:16219   */\n      dup2\n        /* \"#utility.yul\":16196:16220   */\n      tag_289\n      jump\t// in\n    tag_491:\n        /* \"#utility.yul\":16191:16194   */\n      dup3\n        /* \"#utility.yul\":16184:16221   */\n      mstore\n        /* \"#utility.yul\":16109:16227   */\n      pop\n      pop\n      jump\t// out\n        /* \"#utility.yul\":16233:17111   */\n    tag_183:\n        /* \"#utility.yul\":16490:16494   */\n      0x00\n        /* \"#utility.yul\":16528:16531   */\n      0xe0\n        /* \"#utility.yul\":16517:16526   */\n      dup3\n        /* \"#utility.yul\":16513:16532   */\n      add\n        /* \"#utility.yul\":16505:16532   */\n      swap1\n      pop\n        /* \"#utility.yul\":16542:16613   */\n      tag_493\n        /* \"#utility.yul\":16610:16611   */\n      0x00\n        /* \"#utility.yul\":16599:16608   */\n      dup4\n        /* \"#utility.yul\":16595:16612   */\n      add\n        /* \"#utility.yul\":16586:16592   */\n      dup11\n        /* \"#utility.yul\":16542:16613   */\n      tag_265\n      jump\t// in\n    tag_493:\n        /* \"#utility.yul\":16623:16695   */\n      tag_494\n        /* \"#utility.yul\":16691:16693   */\n      0x20\n        /* \"#utility.yul\":16680:16689   */\n      dup4\n        /* \"#utility.yul\":16676:16694   */\n      add\n        /* \"#utility.yul\":16667:16673   */\n      dup10\n        /* \"#utility.yul\":16623:16695   */\n      tag_265\n      jump\t// in\n    tag_494:\n        /* \"#utility.yul\":16705:16777   */\n      tag_495\n        /* \"#utility.yul\":16773:16775   */\n      0x40\n        /* \"#utility.yul\":16762:16771   */\n      dup4\n        /* \"#utility.yul\":16758:16776   */\n      add\n        /* \"#utility.yul\":16749:16755   */\n      dup9\n        /* \"#utility.yul\":16705:16777   */\n      tag_266\n      jump\t// in\n    tag_495:\n        /* \"#utility.yul\":16787:16859   */\n      tag_496\n        /* \"#utility.yul\":16855:16857   */\n      0x60\n        /* \"#utility.yul\":16844:16853   */\n      dup4\n        /* \"#utility.yul\":16840:16858   */\n      add\n        /* \"#utility.yul\":16831:16837   */\n      dup8\n        /* \"#utility.yul\":16787:16859   */\n      tag_266\n      jump\t// in\n    tag_496:\n        /* \"#utility.yul\":16869:16938   */\n      tag_497\n        /* \"#utility.yul\":16933:16936   */\n      0x80\n        /* \"#utility.yul\":16922:16931   */\n      dup4\n        /* \"#utility.yul\":16918:16937   */\n      add\n        /* \"#utility.yul\":16909:16915   */\n      dup7\n        /* \"#utility.yul\":16869:16938   */\n      tag_303\n      jump\t// in\n    tag_497:\n        /* \"#utility.yul\":16948:17021   */\n      tag_498\n        /* \"#utility.yul\":17016:17019   */\n      0xa0\n        /* \"#utility.yul\":17005:17014   */\n      dup4\n        /* \"#utility.yul\":17001:17020   */\n      add\n        /* \"#utility.yul\":16992:16998   */\n      dup6\n        /* \"#utility.yul\":16948:17021   */\n      tag_304\n      jump\t// in\n    tag_498:\n        /* \"#utility.yul\":17031:17104   */\n      tag_499\n        /* \"#utility.yul\":17099:17102   */\n      0xc0\n        /* \"#utility.yul\":17088:17097   */\n      dup4\n        /* \"#utility.yul\":17084:17103   */\n      add\n        /* \"#utility.yul\":17075:17081   */\n      dup5\n        /* \"#utility.yul\":17031:17104   */\n      tag_304\n      jump\t// in\n    tag_499:\n        /* \"#utility.yul\":16233:17111   */\n      swap9\n      swap8\n      pop\n      pop\n      pop\n      pop\n      pop\n      pop\n      pop\n      pop\n      jump\t// out\n        /* \"#utility.yul\":17117:17298   */\n    tag_305:\n        /* \"#utility.yul\":17257:17290   */\n      0x5265656e7472616e637947756172643a207265656e7472616e742063616c6c00\n        /* \"#utility.yul\":17253:17254   */\n      0x00\n        /* \"#utility.yul\":17245:17251   */\n      dup3\n        /* \"#utility.yul\":17241:17255   */\n      add\n        /* \"#utility.yul\":17234:17291   */\n      mstore\n        /* \"#utility.yul\":17117:17298   */\n      pop\n      jump\t// out\n        /* \"#utility.yul\":17304:17670   */\n    tag_306:\n        /* \"#utility.yul\":17446:17449   */\n      0x00\n        /* \"#utility.yul\":17467:17534   */\n      tag_502\n        /* \"#utility.yul\":17531:17533   */\n      0x1f\n        /* \"#utility.yul\":17526:17529   */\n      dup4\n        /* \"#utility.yul\":17467:17534   */\n      tag_300\n      jump\t// in\n    tag_502:\n        /* \"#utility.yul\":17460:17534   */\n      swap2\n      pop\n        /* \"#utility.yul\":17543:17636   */\n      tag_503\n        /* \"#utility.yul\":17632:17635   */\n      dup3\n        /* \"#utility.yul\":17543:17636   */\n      tag_305\n      jump\t// in\n    tag_503:\n        /* \"#utility.yul\":17661:17663   */\n      0x20\n        /* \"#utility.yul\":17656:17659   */\n      dup3\n        /* \"#utility.yul\":17652:17664   */\n      add\n        /* \"#utility.yul\":17645:17664   */\n      swap1\n      pop\n        /* \"#utility.yul\":17304:17670   */\n      swap2\n      swap1\n      pop\n      jump\t// out\n        /* \"#utility.yul\":17676:18095   */\n    tag_231:\n        /* \"#utility.yul\":17842:17846   */\n      0x00\n        /* \"#utility.yul\":17880:17882   */\n      0x20\n        /* \"#utility.yul\":17869:17878   */\n      dup3\n        /* \"#utility.yul\":17865:17883   */\n      add\n        /* \"#utility.yul\":17857:17883   */\n      swap1\n      pop\n        /* \"#utility.yul\":17929:17938   */\n      dup2\n        /* \"#utility.yul\":17923:17927   */\n      dup2\n        /* \"#utility.yul\":17919:17939   */\n      sub\n        /* \"#utility.yul\":17915:17916   */\n      0x00\n        /* \"#utility.yul\":17904:17913   */\n      dup4\n        /* \"#utility.yul\":17900:17917   */\n      add\n        /* \"#utility.yul\":17893:17940   */\n      mstore\n        /* \"#utility.yul\":17957:18088   */\n      tag_505\n        /* \"#utility.yul\":18083:18087   */\n      dup2\n        /* \"#utility.yul\":17957:18088   */\n      tag_306\n      jump\t// in\n    tag_505:\n        /* \"#utility.yul\":17949:18088   */\n      swap1\n      pop\n        /* \"#utility.yul\":17676:18095   */\n      swap2\n      swap1\n      pop\n      jump\t// out\n\n    auxdata: 0xa2646970667358221220f56f18d549c583eb6204aee8f3278d13b90fec3ef418e703e0a6cbb29da65f2c64736f6c63430008140033\n}\n",
				"bytecode": {
					"linkReferences": {},
					"object": "60a060405234801562000010575f80fd5b50604051620024a8380380620024a8833981810160405281019062000036919062000348565b8260015f819055505f73ffffffffffffffffffffffffffffffffffffffff168173ffffffffffffffffffffffffffffffffffffffff1603620000b1575f6040517f1e4fbdf7000000000000000000000000000000000000000000000000000000008152600401620000a89190620003b2565b60405180910390fd5b620000c281620001de60201b60201c565b505f73ffffffffffffffffffffffffffffffffffffffff168273ffffffffffffffffffffffffffffffffffffffff1614806200012957505f73ffffffffffffffffffffffffffffffffffffffff168173ffffffffffffffffffffffffffffffffffffffff16145b1562000161576040517fd92e233d00000000000000000000000000000000000000000000000000000000815260040160405180910390fd5b8160035f6101000a81548173ffffffffffffffffffffffffffffffffffffffff021916908373ffffffffffffffffffffffffffffffffffffffff1602179055508073ffffffffffffffffffffffffffffffffffffffff1660808173ffffffffffffffffffffffffffffffffffffffff1681525050505050620003cd565b5f60015f9054906101000a900473ffffffffffffffffffffffffffffffffffffffff1690508160015f6101000a81548173ffffffffffffffffffffffffffffffffffffffff021916908373ffffffffffffffffffffffffffffffffffffffff1602179055508173ffffffffffffffffffffffffffffffffffffffff168173ffffffffffffffffffffffffffffffffffffffff167f8be0079c531659141344cd1fd0a4f28419497f9722a3daafe3b4186f6b6457e060405160405180910390a35050565b5f80fd5b5f73ffffffffffffffffffffffffffffffffffffffff82169050919050565b5f620002d082620002a5565b9050919050565b620002e281620002c4565b8114620002ed575f80fd5b50565b5f815190506200030081620002d7565b92915050565b5f6200031282620002a5565b9050919050565b620003248162000306565b81146200032f575f80fd5b50565b5f81519050620003428162000319565b92915050565b5f805f60608486031215620003625762000361620002a1565b5b5f6200037186828701620002f0565b9350506020620003848682870162000332565b92505060406200039786828701620002f0565b9150509250925092565b620003ac81620002c4565b82525050565b5f602082019050620003c75f830184620003a1565b92915050565b6080516120ad620003fb5f395f81816107a801528181610b9b01528181610c0c0152610e6401526120ad5ff3fe6080604052600436106100eb575f3560e01c80638da5cb5b11610089578063bb6416ae11610058578063bb6416ae146102cc578063ddd32898146102f4578063f0f442601461031c578063f2fde38b14610344576100f2565b80638da5cb5b1461022a5780639079b243146102545780639c66fb7e1461027c578063aeccf735146102a4576100f2565b8063582515c7116100c5578063582515c71461019857806361d027b3146101c0578063715018a6146101ea57806389a3027114610200576100f2565b8063039af9eb146100f6578063150b7a02146101345780634c2233a514610170576100f2565b366100f257005b5f80fd5b348015610101575f80fd5b5061011c600480360381019061011791906117a2565b61036c565b60405161012b93929190611835565b60405180910390f35b34801561013f575f80fd5b5061015a600480360381019061015591906118f5565b6103bd565b60405161016791906119b3565b60405180910390f35b34801561017b575f80fd5b50610196600480360381019061019191906119cc565b6103d1565b005b3480156101a3575f80fd5b506101be60048036038101906101b99190611a0a565b61066a565b005b3480156101cb575f80fd5b506101d461076e565b6040516101e19190611a68565b60405180910390f35b3480156101f5575f80fd5b506101fe610793565b005b34801561020b575f80fd5b506102146107a6565b6040516102219190611adc565b60405180910390f35b348015610235575f80fd5b5061023e6107ca565b60405161024b9190611af5565b60405180910390f35b34801561025f575f80fd5b5061027a60048036038101906102759190611b38565b6107f2565b005b348015610287575f80fd5b506102a2600480360381019061029d9190611b9c565b6108b4565b005b3480156102af575f80fd5b506102ca60048036038101906102c591906117a2565b610a2e565b005b3480156102d7575f80fd5b506102f260048036038101906102ed9190611c55565b610cca565b005b3480156102ff575f80fd5b5061031a60048036038101906103159190611b9c565b610f0e565b005b348015610327575f80fd5b50610342600480360381019061033d9190611d08565b6111b4565b005b34801561034f575f80fd5b5061036a60048036038101906103659190611d33565b611264565b005b6002602052805f5260405f205f91509050805f015f9054906101000a900473ffffffffffffffffffffffffffffffffffffffff1690806001015490806002015f9054906101000a900460ff16905083565b5f63150b7a0260e01b905095945050505050565b6103d96112e8565b5f60025f8481526020019081526020015f206040518060600160405290815f82015f9054906101000a900473ffffffffffffffffffffffffffffffffffffffff1673ffffffffffffffffffffffffffffffffffffffff1673ffffffffffffffffffffffffffffffffffffffff16815260200160018201548152602001600282015f9054906101000a900460ff16151515158152505090505f73ffffffffffffffffffffffffffffffffffffffff16815f015173ffffffffffffffffffffffffffffffffffffffff16036104d8576040517fe142361700000000000000000000000000000000000000000000000000000000815260040160405180910390fd5b5f815f015190505f8173ffffffffffffffffffffffffffffffffffffffff166370a08231306040518263ffffffff1660e01b81526004016105199190611af5565b602060405180830381865afa158015610534573d5f803e3d5ffd5b505050506040513d601f19601f820116820180604052508101906105589190611d72565b90505f5b81811015610662575f8373ffffffffffffffffffffffffffffffffffffffff16632f745c59305f6040518363ffffffff1660e01b81526004016105a0929190611dd6565b602060405180830381865afa1580156105bb573d5f803e3d5ffd5b505050506040513d601f19601f820116820180604052508101906105df9190611d72565b9050845f015173ffffffffffffffffffffffffffffffffffffffff166342842e0e3088846040518463ffffffff1660e01b815260040161062193929190611dfd565b5f604051808303815f87803b158015610638575f80fd5b505af115801561064a573d5f803e3d5ffd5b5050505050808061065a90611e5f565b91505061055c565b505050505050565b6106726112e8565b5f8273ffffffffffffffffffffffffffffffffffffffff166370a08231306040518263ffffffff1660e01b81526004016106ac9190611af5565b602060405180830381865afa1580156106c7573d5f803e3d5ffd5b505050506040513d601f19601f820116820180604052508101906106eb9190611d72565b90508273ffffffffffffffffffffffffffffffffffffffff1663a9059cbb83836040518363ffffffff1660e01b8152600401610728929190611ea6565b6020604051808303815f875af1158015610744573d5f803e3d5ffd5b505050506040513d601f19601f820116820180604052508101906107689190611ee1565b50505050565b60035f9054906101000a900473ffffffffffffffffffffffffffffffffffffffff1681565b61079b6112e8565b6107a45f61136f565b565b7f000000000000000000000000000000000000000000000000000000000000000081565b5f60015f9054906101000a900473ffffffffffffffffffffffffffffffffffffffff16905090565b6107fa6112e8565b60405180606001604052808473ffffffffffffffffffffffffffffffffffffffff16815260200183815260200182151581525060025f8681526020019081526020015f205f820151815f015f6101000a81548173ffffffffffffffffffffffffffffffffffffffff021916908373ffffffffffffffffffffffffffffffffffffffff160217905550602082015181600101556040820151816002015f6101000a81548160ff02191690831515021790555090505050505050565b6108bc6112e8565b5f60025f8581526020019081526020015f206040518060600160405290815f82015f9054906101000a900473ffffffffffffffffffffffffffffffffffffffff1673ffffffffffffffffffffffffffffffffffffffff1673ffffffffffffffffffffffffffffffffffffffff16815260200160018201548152602001600282015f9054906101000a900460ff16151515158152505090505f73ffffffffffffffffffffffffffffffffffffffff16815f015173ffffffffffffffffffffffffffffffffffffffff16036109bb576040517fe142361700000000000000000000000000000000000000000000000000000000815260040160405180910390fd5b805f015173ffffffffffffffffffffffffffffffffffffffff166342842e0e3084866040518463ffffffff1660e01b81526004016109fb93929190611dfd565b5f604051808303815f87803b158015610a12575f80fd5b505af1158015610a24573d5f803e3d5ffd5b5050505050505050565b610a36611432565b5f60025f8381526020019081526020015f206040518060600160405290815f82015f9054906101000a900473ffffffffffffffffffffffffffffffffffffffff1673ffffffffffffffffffffffffffffffffffffffff1673ffffffffffffffffffffffffffffffffffffffff16815260200160018201548152602001600282015f9054906101000a900460ff16151515158152505090505f73ffffffffffffffffffffffffffffffffffffffff16815f015173ffffffffffffffffffffffffffffffffffffffff1603610b35576040517fe142361700000000000000000000000000000000000000000000000000000000815260040160405180910390fd5b80604001511580610b4957505f8160200151145b15610b80576040517f94d366b500000000000000000000000000000000000000000000000000000000815260040160405180910390fd5b5f610b8d825f015161147f565b9050610be0333084602001517f000000000000000000000000000000000000000000000000000000000000000073ffffffffffffffffffffffffffffffffffffffff166115bb909392919063ffffffff16565b610c5060035f9054906101000a900473ffffffffffffffffffffffffffffffffffffffff1683602001517f000000000000000000000000000000000000000000000000000000000000000073ffffffffffffffffffffffffffffffffffffffff1661163d9092919063ffffffff16565b815f015173ffffffffffffffffffffffffffffffffffffffff166342842e0e3033846040518463ffffffff1660e01b8152600401610c9093929190611dfd565b5f604051808303815f87803b158015610ca7575f80fd5b505af1158015610cb9573d5f803e3d5ffd5b505050505050610cc76116bc565b50565b610cd2611432565b5f60025f8881526020019081526020015f206040518060600160405290815f82015f9054906101000a900473ffffffffffffffffffffffffffffffffffffffff1673ffffffffffffffffffffffffffffffffffffffff1673ffffffffffffffffffffffffffffffffffffffff16815260200160018201548152602001600282015f9054906101000a900460ff16151515158152505090505f73ffffffffffffffffffffffffffffffffffffffff16815f015173ffffffffffffffffffffffffffffffffffffffff1603610dd1576040517fe142361700000000000000000000000000000000000000000000000000000000815260040160405180910390fd5b80604001511580610de557505f8160200151145b15610e1c576040517f94d366b500000000000000000000000000000000000000000000000000000000815260040160405180910390fd5b80602001518614610e62576040517f08c379a0000000000000000000000000000000000000000000000000000000008152600401610e5990611f66565b60405180910390fd5b7f000000000000000000000000000000000000000000000000000000000000000073ffffffffffffffffffffffffffffffffffffffff1663d505accf333089898989896040518863ffffffff1660e01b8152600401610ec79796959493929190611fa2565b5f604051808303815f87803b158015610ede575f80fd5b505af1158015610ef0573d5f803e3d5ffd5b50505050610efd87610a2e565b50610f066116bc565b505050505050565b610f166112e8565b5f60025f8581526020019081526020015f206040518060600160405290815f82015f9054906101000a900473ffffffffffffffffffffffffffffffffffffffff1673ffffffffffffffffffffffffffffffffffffffff1673ffffffffffffffffffffffffffffffffffffffff16815260200160018201548152602001600282015f9054906101000a900460ff16151515158152505090505f73ffffffffffffffffffffffffffffffffffffffff16815f015173ffffffffffffffffffffffffffffffffffffffff1603611015576040517fe142361700000000000000000000000000000000000000000000000000000000815260040160405180910390fd5b5f815f015190505f8173ffffffffffffffffffffffffffffffffffffffff166370a08231306040518263ffffffff1660e01b81526004016110569190611af5565b602060405180830381865afa158015611071573d5f803e3d5ffd5b505050506040513d601f19601f820116820180604052508101906110959190611d72565b9050808511156110a3578094505b5f5b858110156111ab575f8373ffffffffffffffffffffffffffffffffffffffff16632f745c59305f6040518363ffffffff1660e01b81526004016110e9929190611dd6565b602060405180830381865afa158015611104573d5f803e3d5ffd5b505050506040513d601f19601f820116820180604052508101906111289190611d72565b9050845f015173ffffffffffffffffffffffffffffffffffffffff166342842e0e3088846040518463ffffffff1660e01b815260040161116a93929190611dfd565b5f604051808303815f87803b158015611181575f80fd5b505af1158015611193573d5f803e3d5ffd5b505050505080806111a390611e5f565b9150506110a5565b50505050505050565b6111bc6112e8565b5f73ffffffffffffffffffffffffffffffffffffffff168173ffffffffffffffffffffffffffffffffffffffff1603611221576040517fd92e233d00000000000000000000000000000000000000000000000000000000815260040160405180910390fd5b8060035f6101000a81548173ffffffffffffffffffffffffffffffffffffffff021916908373ffffffffffffffffffffffffffffffffffffffff16021790555050565b61126c6112e8565b5f73ffffffffffffffffffffffffffffffffffffffff168173ffffffffffffffffffffffffffffffffffffffff16036112dc575f6040517f1e4fbdf70000000000000000000000000000000000000000000000000000000081526004016112d39190611af5565b60405180910390fd5b6112e58161136f565b50565b6112f06116c5565b73ffffffffffffffffffffffffffffffffffffffff1661130e6107ca565b73ffffffffffffffffffffffffffffffffffffffff161461136d576113316116c5565b6040517f118cdaa70000000000000000000000000000000000000000000000000000000081526004016113649190611af5565b60405180910390fd5b565b5f60015f9054906101000a900473ffffffffffffffffffffffffffffffffffffffff1690508160015f6101000a81548173ffffffffffffffffffffffffffffffffffffffff021916908373ffffffffffffffffffffffffffffffffffffffff1602179055508173ffffffffffffffffffffffffffffffffffffffff168173ffffffffffffffffffffffffffffffffffffffff167f8be0079c531659141344cd1fd0a4f28419497f9722a3daafe3b4186f6b6457e060405160405180910390a35050565b60025f5403611476576040517f08c379a000000000000000000000000000000000000000000000000000000000815260040161146d90612059565b60405180910390fd5b60025f81905550565b5f808290505f8173ffffffffffffffffffffffffffffffffffffffff166370a08231306040518263ffffffff1660e01b81526004016114be9190611af5565b602060405180830381865afa1580156114d9573d5f803e3d5ffd5b505050506040513d601f19601f820116820180604052508101906114fd9190611d72565b90505f8103611538576040517f52df9fe500000000000000000000000000000000000000000000000000000000815260040160405180910390fd5b8173ffffffffffffffffffffffffffffffffffffffff16632f745c59305f6040518363ffffffff1660e01b8152600401611573929190611dd6565b602060405180830381865afa15801561158e573d5f803e3d5ffd5b505050506040513d601f19601f820116820180604052508101906115b29190611d72565b92505050919050565b611637848573ffffffffffffffffffffffffffffffffffffffff166323b872dd8686866040516024016115f093929190611dfd565b604051602081830303815290604052915060e01b6020820180517bffffffffffffffffffffffffffffffffffffffffffffffffffffffff83818316178352505050506116cc565b50505050565b6116b7838473ffffffffffffffffffffffffffffffffffffffff1663a9059cbb8585604051602401611670929190611ea6565b604051602081830303815290604052915060e01b6020820180517bffffffffffffffffffffffffffffffffffffffffffffffffffffffff83818316178352505050506116cc565b505050565b60015f81905550565b5f33905090565b5f8060205f8451602086015f885af1806116eb576040513d5f823e3d81fd5b3d92505f519150505f821461170457600181141561171f565b5f8473ffffffffffffffffffffffffffffffffffffffff163b145b1561176157836040517f5274afe70000000000000000000000000000000000000000000000000000000081526004016117589190611af5565b60405180910390fd5b50505050565b5f80fd5b5f80fd5b5f819050919050565b6117818161176f565b811461178b575f80fd5b50565b5f8135905061179c81611778565b92915050565b5f602082840312156117b7576117b6611767565b5b5f6117c48482850161178e565b91505092915050565b5f73ffffffffffffffffffffffffffffffffffffffff82169050919050565b5f6117f6826117cd565b9050919050565b611806816117ec565b82525050565b6118158161176f565b82525050565b5f8115159050919050565b61182f8161181b565b82525050565b5f6060820190506118485f8301866117fd565b611855602083018561180c565b6118626040830184611826565b949350505050565b611873816117ec565b811461187d575f80fd5b50565b5f8135905061188e8161186a565b92915050565b5f80fd5b5f80fd5b5f80fd5b5f8083601f8401126118b5576118b4611894565b5b8235905067ffffffffffffffff8111156118d2576118d1611898565b5b6020830191508360018202830111156118ee576118ed61189c565b5b9250929050565b5f805f805f6080868803121561190e5761190d611767565b5b5f61191b88828901611880565b955050602061192c88828901611880565b945050604061193d8882890161178e565b935050606086013567ffffffffffffffff81111561195e5761195d61176b565b5b61196a888289016118a0565b92509250509295509295909350565b5f7fffffffff0000000000000000000000000000000000000000000000000000000082169050919050565b6119ad81611979565b82525050565b5f6020820190506119c65f8301846119a4565b92915050565b5f80604083850312156119e2576119e1611767565b5b5f6119ef8582860161178e565b9250506020611a0085828601611880565b9150509250929050565b5f8060408385031215611a2057611a1f611767565b5b5f611a2d85828601611880565b9250506020611a3e85828601611880565b9150509250929050565b5f611a52826117cd565b9050919050565b611a6281611a48565b82525050565b5f602082019050611a7b5f830184611a59565b92915050565b5f819050919050565b5f611aa4611a9f611a9a846117cd565b611a81565b6117cd565b9050919050565b5f611ab582611a8a565b9050919050565b5f611ac682611aab565b9050919050565b611ad681611abc565b82525050565b5f602082019050611aef5f830184611acd565b92915050565b5f602082019050611b085f8301846117fd565b92915050565b611b178161181b565b8114611b21575f80fd5b50565b5f81359050611b3281611b0e565b92915050565b5f805f8060808587031215611b5057611b4f611767565b5b5f611b5d8782880161178e565b9450506020611b6e87828801611880565b9350506040611b7f8782880161178e565b9250506060611b9087828801611b24565b91505092959194509250565b5f805f60608486031215611bb357611bb2611767565b5b5f611bc08682870161178e565b9350506020611bd18682870161178e565b9250506040611be286828701611880565b9150509250925092565b5f60ff82169050919050565b611c0181611bec565b8114611c0b575f80fd5b50565b5f81359050611c1c81611bf8565b92915050565b5f819050919050565b611c3481611c22565b8114611c3e575f80fd5b50565b5f81359050611c4f81611c2b565b92915050565b5f805f805f8060c08789031215611c6f57611c6e611767565b5b5f611c7c89828a0161178e565b9650506020611c8d89828a0161178e565b9550506040611c9e89828a0161178e565b9450506060611caf89828a01611c0e565b9350506080611cc089828a01611c41565b92505060a0611cd189828a01611c41565b9150509295509295509295565b611ce781611a48565b8114611cf1575f80fd5b50565b5f81359050611d0281611cde565b92915050565b5f60208284031215611d1d57611d1c611767565b5b5f611d2a84828501611cf4565b91505092915050565b5f60208284031215611d4857611d47611767565b5b5f611d5584828501611880565b91505092915050565b5f81519050611d6c81611778565b92915050565b5f60208284031215611d8757611d86611767565b5b5f611d9484828501611d5e565b91505092915050565b5f819050919050565b5f611dc0611dbb611db684611d9d565b611a81565b61176f565b9050919050565b611dd081611da6565b82525050565b5f604082019050611de95f8301856117fd565b611df66020830184611dc7565b9392505050565b5f606082019050611e105f8301866117fd565b611e1d60208301856117fd565b611e2a604083018461180c565b949350505050565b7f4e487b71000000000000000000000000000000000000000000000000000000005f52601160045260245ffd5b5f611e698261176f565b91507fffffffffffffffffffffffffffffffffffffffffffffffffffffffffffffffff8203611e9b57611e9a611e32565b5b600182019050919050565b5f604082019050611eb95f8301856117fd565b611ec6602083018461180c565b9392505050565b5f81519050611edb81611b0e565b92915050565b5f60208284031215611ef657611ef5611767565b5b5f611f0384828501611ecd565b91505092915050565b5f82825260208201905092915050565b7f7065726d69742076616c7565206d69736d6174636800000000000000000000005f82015250565b5f611f50601583611f0c565b9150611f5b82611f1c565b602082019050919050565b5f6020820190508181035f830152611f7d81611f44565b9050919050565b611f8d81611bec565b82525050565b611f9c81611c22565b82525050565b5f60e082019050611fb55f83018a6117fd565b611fc260208301896117fd565b611fcf604083018861180c565b611fdc606083018761180c565b611fe96080830186611f84565b611ff660a0830185611f93565b61200360c0830184611f93565b98975050505050505050565b7f5265656e7472616e637947756172643a207265656e7472616e742063616c6c005f82015250565b5f612043601f83611f0c565b915061204e8261200f565b602082019050919050565b5f6020820190508181035f83015261207081612037565b905091905056fea2646970667358221220f56f18d549c583eb6204aee8f3278d13b90fec3ef418e703e0a6cbb29da65f2c64736f6c63430008140033",
					"opcodes": "PUSH1 0xA0 PUSH1 0x40 MSTORE CALLVALUE DUP1 ISZERO PUSH3 0x10 JUMPI PUSH0 DUP1 REVERT JUMPDEST POP PUSH1 0x40 MLOAD PUSH3 0x24A8 CODESIZE SUB DUP1 PUSH3 0x24A8 DUP4 CODECOPY DUP2 DUP2 ADD PUSH1 0x40 MSTORE DUP2 ADD SWAP1 PUSH3 0x36 SWAP2 SWAP1 PUSH3 0x348 JUMP JUMPDEST DUP3 PUSH1 0x1 PUSH0 DUP2 SWAP1 SSTORE POP PUSH0 PUSH20 0xFFFFFFFFFFFFFFFFFFFFFFFFFFFFFFFFFFFFFFFF AND DUP2 PUSH20 0xFFFFFFFFFFFFFFFFFFFFFFFFFFFFFFFFFFFFFFFF AND SUB PUSH3 0xB1 JUMPI PUSH0 PUSH1 0x40 MLOAD PUSH32 0x1E4FBDF700000000000000000000000000000000000000000000000000000000 DUP2 MSTORE PUSH1 0x4 ADD PUSH3 0xA8 SWAP2 SWAP1 PUSH3 0x3B2 JUMP JUMPDEST PUSH1 0x40 MLOAD DUP1 SWAP2 SUB SWAP1 REVERT JUMPDEST PUSH3 0xC2 DUP2 PUSH3 0x1DE PUSH1 0x20 SHL PUSH1 0x20 SHR JUMP JUMPDEST POP PUSH0 PUSH20 0xFFFFFFFFFFFFFFFFFFFFFFFFFFFFFFFFFFFFFFFF AND DUP3 PUSH20 0xFFFFFFFFFFFFFFFFFFFFFFFFFFFFFFFFFFFFFFFF AND EQ DUP1 PUSH3 0x129 JUMPI POP PUSH0 PUSH20 0xFFFFFFFFFFFFFFFFFFFFFFFFFFFFFFFFFFFFFFFF AND DUP2 PUSH20 0xFFFFFFFFFFFFFFFFFFFFFFFFFFFFFFFFFFFFFFFF AND EQ JUMPDEST ISZERO PUSH3 0x161 JUMPI PUSH1 0x40 MLOAD PUSH32 0xD92E233D00000000000000000000000000000000000000000000000000000000 DUP2 MSTORE PUSH1 0x4 ADD PUSH1 0x40 MLOAD DUP1 SWAP2 SUB SWAP1 REVERT JUMPDEST DUP2 PUSH1 0x3 PUSH0 PUSH2 0x100 EXP DUP2 SLOAD DUP2 PUSH20 0xFFFFFFFFFFFFFFFFFFFFFFFFFFFFFFFFFFFFFFFF MUL NOT AND SWAP1 DUP4 PUSH20 0xFFFFFFFFFFFFFFFFFFFFFFFFFFFFFFFFFFFFFFFF AND MUL OR SWAP1 SSTORE POP DUP1 PUSH20 0xFFFFFFFFFFFFFFFFFFFFFFFFFFFFFFFFFFFFFFFF AND PUSH1 0x80 DUP2 PUSH20 0xFFFFFFFFFFFFFFFFFFFFFFFFFFFFFFFFFFFFFFFF AND DUP2 MSTORE POP POP POP POP POP PUSH3 0x3CD JUMP JUMPDEST PUSH0 PUSH1 0x1 PUSH0 SWAP1 SLOAD SWAP1 PUSH2 0x100 EXP SWAP1 DIV PUSH20 0xFFFFFFFFFFFFFFFFFFFFFFFFFFFFFFFFFFFFFFFF AND SWAP1 POP DUP2 PUSH1 0x1 PUSH0 PUSH2 0x100 EXP DUP2 SLOAD DUP2 PUSH20 0xFFFFFFFFFFFFFFFFFFFFFFFFFFFFFFFFFFFFFFFF MUL NOT AND SWAP1 DUP4 PUSH20 0xFFFFFFFFFFFFFFFFFFFFFFFFFFFFFFFFFFFFFFFF AND MUL OR SWAP1 SSTORE POP DUP2 PUSH20 0xFFFFFFFFFFFFFFFFFFFFFFFFFFFFFFFFFFFFFFFF AND DUP2 PUSH20 0xFFFFFFFFFFFFFFFFFFFFFFFFFFFFFFFFFFFFFFFF AND PUSH32 0x8BE0079C531659141344CD1FD0A4F28419497F9722A3DAAFE3B4186F6B6457E0 PUSH1 0x40 MLOAD PUSH1 0x40 MLOAD DUP1 SWAP2 SUB SWAP1 LOG3 POP POP JUMP JUMPDEST PUSH0 DUP1 REVERT JUMPDEST PUSH0 PUSH20 0xFFFFFFFFFFFFFFFFFFFFFFFFFFFFFFFFFFFFFFFF DUP3 AND SWAP1 POP SWAP2 SWAP1 POP JUMP JUMPDEST PUSH0 PUSH3 0x2D0 DUP3 PUSH3 0x2A5 JUMP JUMPDEST SWAP1 POP SWAP2 SWAP1 POP JUMP JUMPDEST PUSH3 0x2E2 DUP2 PUSH3 0x2C4 JUMP JUMPDEST DUP2 EQ PUSH3 0x2ED JUMPI PUSH0 DUP1 REVERT JUMPDEST POP JUMP JUMPDEST PUSH0 DUP2 MLOAD SWAP1 POP PUSH3 0x300 DUP2 PUSH3 0x2D7 JUMP JUMPDEST SWAP3 SWAP2 POP POP JUMP JUMPDEST PUSH0 PUSH3 0x312 DUP3 PUSH3 0x2A5 JUMP JUMPDEST SWAP1 POP SWAP2 SWAP1 POP JUMP JUMPDEST PUSH3 0x324 DUP2 PUSH3 0x306 JUMP JUMPDEST DUP2 EQ PUSH3 0x32F JUMPI PUSH0 DUP1 REVERT JUMPDEST POP JUMP JUMPDEST PUSH0 DUP2 MLOAD SWAP1 POP PUSH3 0x342 DUP2 PUSH3 0x319 JUMP JUMPDEST SWAP3 SWAP2 POP POP JUMP JUMPDEST PUSH0 DUP1 PUSH0 PUSH1 0x60 DUP5 DUP7 SUB SLT ISZERO PUSH3 0x362 JUMPI PUSH3 0x361 PUSH3 0x2A1 JUMP JUMPDEST JUMPDEST PUSH0 PUSH3 0x371 DUP7 DUP3 DUP8 ADD PUSH3 0x2F0 JUMP JUMPDEST SWAP4 POP POP PUSH1 0x20 PUSH3 0x384 DUP7 DUP3 DUP8 ADD PUSH3 0x332 JUMP JUMPDEST SWAP3 POP POP PUSH1 0x40 PUSH3 0x397 DUP7 DUP3 DUP8 ADD PUSH3 0x2F0 JUMP JUMPDEST SWAP2 POP POP SWAP3 POP SWAP3 POP SWAP3 JUMP JUMPDEST PUSH3 0x3AC DUP2 PUSH3 0x2C4 JUMP JUMPDEST DUP3 MSTORE POP POP JUMP JUMPDEST PUSH0 PUSH1 0x20 DUP3 ADD SWAP1 POP PUSH3 0x3C7 PUSH0 DUP4 ADD DUP5 PUSH3 0x3A1 JUMP JUMPDEST SWAP3 SWAP2 POP POP JUMP JUMPDEST PUSH1 0x80 MLOAD PUSH2 0x20AD PUSH3 0x3FB PUSH0 CODECOPY PUSH0 DUP2 DUP2 PUSH2 0x7A8 ADD MSTORE DUP2 DUP2 PUSH2 0xB9B ADD MSTORE DUP2 DUP2 PUSH2 0xC0C ADD MSTORE PUSH2 0xE64 ADD MSTORE PUSH2 0x20AD PUSH0 RETURN INVALID PUSH1 0x80 PUSH1 0x40 MSTORE PUSH1 0x4 CALLDATASIZE LT PUSH2 0xEB JUMPI PUSH0 CALLDATALOAD PUSH1 0xE0 SHR DUP1 PUSH4 0x8DA5CB5B GT PUSH2 0x89 JUMPI DUP1 PUSH4 0xBB6416AE GT PUSH2 0x58 JUMPI DUP1 PUSH4 0xBB6416AE EQ PUSH2 0x2CC JUMPI DUP1 PUSH4 0xDDD32898 EQ PUSH2 0x2F4 JUMPI DUP1 PUSH4 0xF0F44260 EQ PUSH2 0x31C JUMPI DUP1 PUSH4 0xF2FDE38B EQ PUSH2 0x344 JUMPI PUSH2 0xF2 JUMP JUMPDEST DUP1 PUSH4 0x8DA5CB5B EQ PUSH2 0x22A JUMPI DUP1 PUSH4 0x9079B243 EQ PUSH2 0x254 JUMPI DUP1 PUSH4 0x9C66FB7E EQ PUSH2 0x27C JUMPI DUP1 PUSH4 0xAECCF735 EQ PUSH2 0x2A4 JUMPI PUSH2 0xF2 JUMP JUMPDEST DUP1 PUSH4 0x582515C7 GT PUSH2 0xC5 JUMPI DUP1 PUSH4 0x582515C7 EQ PUSH2 0x198 JUMPI DUP1 PUSH4 0x61D027B3 EQ PUSH2 0x1C0 JUMPI DUP1 PUSH4 0x715018A6 EQ PUSH2 0x1EA JUMPI DUP1 PUSH4 0x89A30271 EQ PUSH2 0x200 JUMPI PUSH2 0xF2 JUMP JUMPDEST DUP1 PUSH4 0x39AF9EB EQ PUSH2 0xF6 JUMPI DUP1 PUSH4 0x150B7A02 EQ PUSH2 0x134 JUMPI DUP1 PUSH4 0x4C2233A5 EQ PUSH2 0x170 JUMPI PUSH2 0xF2 JUMP JUMPDEST CALLDATASIZE PUSH2 0xF2 JUMPI STOP JUMPDEST PUSH0 DUP1 REVERT JUMPDEST CALLVALUE DUP1 ISZERO PUSH2 0x101 JUMPI PUSH0 DUP1 REVERT JUMPDEST POP PUSH2 0x11C PUSH1 0x4 DUP1 CALLDATASIZE SUB DUP2 ADD SWAP1 PUSH2 0x117 SWAP2 SWAP1 PUSH2 0x17A2 JUMP JUMPDEST PUSH2 0x36C JUMP JUMPDEST PUSH1 0x40 MLOAD PUSH2 0x12B SWAP4 SWAP3 SWAP2 SWAP1 PUSH2 0x1835 JUMP JUMPDEST PUSH1 0x40 MLOAD DUP1 SWAP2 SUB SWAP1 RETURN JUMPDEST CALLVALUE DUP1 ISZERO PUSH2 0x13F JUMPI PUSH0 DUP1 REVERT JUMPDEST POP PUSH2 0x15A PUSH1 0x4 DUP1 CALLDATASIZE SUB DUP2 ADD SWAP1 PUSH2 0x155 SWAP2 SWAP1 PUSH2 0x18F5 JUMP JUMPDEST PUSH2 0x3BD JUMP JUMPDEST PUSH1 0x40 MLOAD PUSH2 0x167 SWAP2 SWAP1 PUSH2 0x19B3 JUMP JUMPDEST PUSH1 0x40 MLOAD DUP1 SWAP2 SUB SWAP1 RETURN JUMPDEST CALLVALUE DUP1 ISZERO PUSH2 0x17B JUMPI PUSH0 DUP1 REVERT JUMPDEST POP PUSH2 0x196 PUSH1 0x4 DUP1 CALLDATASIZE SUB DUP2 ADD SWAP1 PUSH2 0x191 SWAP2 SWAP1 PUSH2 0x19CC JUMP JUMPDEST PUSH2 0x3D1 JUMP JUMPDEST STOP JUMPDEST CALLVALUE DUP1 ISZERO PUSH2 0x1A3 JUMPI PUSH0 DUP1 REVERT JUMPDEST POP PUSH2 0x1BE PUSH1 0x4 DUP1 CALLDATASIZE SUB DUP2 ADD SWAP1 PUSH2 0x1B9 SWAP2 SWAP1 PUSH2 0x1A0A JUMP JUMPDEST PUSH2 0x66A JUMP JUMPDEST STOP JUMPDEST CALLVALUE DUP1 ISZERO PUSH2 0x1CB JUMPI PUSH0 DUP1 REVERT JUMPDEST POP PUSH2 0x1D4 PUSH2 0x76E JUMP JUMPDEST PUSH1 0x40 MLOAD PUSH2 0x1E1 SWAP2 SWAP1 PUSH2 0x1A68 JUMP JUMPDEST PUSH1 0x40 MLOAD DUP1 SWAP2 SUB SWAP1 RETURN JUMPDEST CALLVALUE DUP1 ISZERO PUSH2 0x1F5 JUMPI PUSH0 DUP1 REVERT JUMPDEST POP PUSH2 0x1FE PUSH2 0x793 JUMP JUMPDEST STOP JUMPDEST CALLVALUE DUP1 ISZERO PUSH2 0x20B JUMPI PUSH0 DUP1 REVERT JUMPDEST POP PUSH2 0x214 PUSH2 0x7A6 JUMP JUMPDEST PUSH1 0x40 MLOAD PUSH2 0x221 SWAP2 SWAP1 PUSH2 0x1ADC JUMP JUMPDEST PUSH1 0x40 MLOAD DUP1 SWAP2 SUB SWAP1 RETURN JUMPDEST CALLVALUE DUP1 ISZERO PUSH2 0x235 JUMPI PUSH0 DUP1 REVERT JUMPDEST POP PUSH2 0x23E PUSH2 0x7CA JUMP JUMPDEST PUSH1 0x40 MLOAD PUSH2 0x24B SWAP2 SWAP1 PUSH2 0x1AF5 JUMP JUMPDEST PUSH1 0x40 MLOAD DUP1 SWAP2 SUB SWAP1 RETURN JUMPDEST CALLVALUE DUP1 ISZERO PUSH2 0x25F JUMPI PUSH0 DUP1 REVERT JUMPDEST POP PUSH2 0x27A PUSH1 0x4 DUP1 CALLDATASIZE SUB DUP2 ADD SWAP1 PUSH2 0x275 SWAP2 SWAP1 PUSH2 0x1B38 JUMP JUMPDEST PUSH2 0x7F2 JUMP JUMPDEST STOP JUMPDEST CALLVALUE DUP1 ISZERO PUSH2 0x287 JUMPI PUSH0 DUP1 REVERT JUMPDEST POP PUSH2 0x2A2 PUSH1 0x4 DUP1 CALLDATASIZE SUB DUP2 ADD SWAP1 PUSH2 0x29D SWAP2 SWAP1 PUSH2 0x1B9C JUMP JUMPDEST PUSH2 0x8B4 JUMP JUMPDEST STOP JUMPDEST CALLVALUE DUP1 ISZERO PUSH2 0x2AF JUMPI PUSH0 DUP1 REVERT JUMPDEST POP PUSH2 0x2CA PUSH1 0x4 DUP1 CALLDATASIZE SUB DUP2 ADD SWAP1 PUSH2 0x2C5 SWAP2 SWAP1 PUSH2 0x17A2 JUMP JUMPDEST PUSH2 0xA2E JUMP JUMPDEST STOP JUMPDEST CALLVALUE DUP1 ISZERO PUSH2 0x2D7 JUMPI PUSH0 DUP1 REVERT JUMPDEST POP PUSH2 0x2F2 PUSH1 0x4 DUP1 CALLDATASIZE SUB DUP2 ADD SWAP1 PUSH2 0x2ED SWAP2 SWAP1 PUSH2 0x1C55 JUMP JUMPDEST PUSH2 0xCCA JUMP JUMPDEST STOP JUMPDEST CALLVALUE DUP1 ISZERO PUSH2 0x2FF JUMPI PUSH0 DUP1 REVERT JUMPDEST POP PUSH2 0x31A PUSH1 0x4 DUP1 CALLDATASIZE SUB DUP2 ADD SWAP1 PUSH2 0x315 SWAP2 SWAP1 PUSH2 0x1B9C JUMP JUMPDEST PUSH2 0xF0E JUMP JUMPDEST STOP JUMPDEST CALLVALUE DUP1 ISZERO PUSH2 0x327 JUMPI PUSH0 DUP1 REVERT JUMPDEST POP PUSH2 0x342 PUSH1 0x4 DUP1 CALLDATASIZE SUB DUP2 ADD SWAP1 PUSH2 0x33D SWAP2 SWAP1 PUSH2 0x1D08 JUMP JUMPDEST PUSH2 0x11B4 JUMP JUMPDEST STOP JUMPDEST CALLVALUE DUP1 ISZERO PUSH2 0x34F JUMPI PUSH0 DUP1 REVERT JUMPDEST POP PUSH2 0x36A PUSH1 0x4 DUP1 CALLDATASIZE SUB DUP2 ADD SWAP1 PUSH2 0x365 SWAP2 SWAP1 PUSH2 0x1D33 JUMP JUMPDEST PUSH2 0x1264 JUMP JUMPDEST STOP JUMPDEST PUSH1 0x2 PUSH1 0x20 MSTORE DUP1 PUSH0 MSTORE PUSH1 0x40 PUSH0 KECCAK256 PUSH0 SWAP2 POP SWAP1 POP DUP1 PUSH0 ADD PUSH0 SWAP1 SLOAD SWAP1 PUSH2 0x100 EXP SWAP1 DIV PUSH20 0xFFFFFFFFFFFFFFFFFFFFFFFFFFFFFFFFFFFFFFFF AND SWAP1 DUP1 PUSH1 0x1 ADD SLOAD SWAP1 DUP1 PUSH1 0x2 ADD PUSH0 SWAP1 SLOAD SWAP1 PUSH2 0x100 EXP SWAP1 DIV PUSH1 0xFF AND SWAP1 POP DUP4 JUMP JUMPDEST PUSH0 PUSH4 0x150B7A02 PUSH1 0xE0 SHL SWAP1 POP SWAP6 SWAP5 POP POP POP POP POP JUMP JUMPDEST PUSH2 0x3D9 PUSH2 0x12E8 JUMP JUMPDEST PUSH0 PUSH1 0x2 PUSH0 DUP5 DUP2 MSTORE PUSH1 0x20 ADD SWAP1 DUP2 MSTORE PUSH1 0x20 ADD PUSH0 KECCAK256 PUSH1 0x40 MLOAD DUP1 PUSH1 0x60 ADD PUSH1 0x40 MSTORE SWAP1 DUP2 PUSH0 DUP3 ADD PUSH0 SWAP1 SLOAD SWAP1 PUSH2 0x100 EXP SWAP1 DIV PUSH20 0xFFFFFFFFFFFFFFFFFFFFFFFFFFFFFFFFFFFFFFFF AND PUSH20 0xFFFFFFFFFFFFFFFFFFFFFFFFFFFFFFFFFFFFFFFF AND PUSH20 0xFFFFFFFFFFFFFFFFFFFFFFFFFFFFFFFFFFFFFFFF AND DUP2 MSTORE PUSH1 0x20 ADD PUSH1 0x1 DUP3 ADD SLOAD DUP2 MSTORE PUSH1 0x20 ADD PUSH1 0x2 DUP3 ADD PUSH0 SWAP1 SLOAD SWAP1 PUSH2 0x100 EXP SWAP1 DIV PUSH1 0xFF AND ISZERO ISZERO ISZERO ISZERO DUP2 MSTORE POP POP SWAP1 POP PUSH0 PUSH20 0xFFFFFFFFFFFFFFFFFFFFFFFFFFFFFFFFFFFFFFFF AND DUP2 PUSH0 ADD MLOAD PUSH20 0xFFFFFFFFFFFFFFFFFFFFFFFFFFFFFFFFFFFFFFFF AND SUB PUSH2 0x4D8 JUMPI PUSH1 0x40 MLOAD PUSH32 0xE142361700000000000000000000000000000000000000000000000000000000 DUP2 MSTORE PUSH1 0x4 ADD PUSH1 0x40 MLOAD DUP1 SWAP2 SUB SWAP1 REVERT JUMPDEST PUSH0 DUP2 PUSH0 ADD MLOAD SWAP1 POP PUSH0 DUP2 PUSH20 0xFFFFFFFFFFFFFFFFFFFFFFFFFFFFFFFFFFFFFFFF AND PUSH4 0x70A08231 ADDRESS PUSH1 0x40 MLOAD DUP3 PUSH4 0xFFFFFFFF AND PUSH1 0xE0 SHL DUP2 MSTORE PUSH1 0x4 ADD PUSH2 0x519 SWAP2 SWAP1 PUSH2 0x1AF5 JUMP JUMPDEST PUSH1 0x20 PUSH1 0x40 MLOAD DUP1 DUP4 SUB DUP2 DUP7 GAS STATICCALL ISZERO DUP1 ISZERO PUSH2 0x534 JUMPI RETURNDATASIZE PUSH0 DUP1 RETURNDATACOPY RETURNDATASIZE PUSH0 REVERT JUMPDEST POP POP POP POP PUSH1 0x40 MLOAD RETURNDATASIZE PUSH1 0x1F NOT PUSH1 0x1F DUP3 ADD AND DUP3 ADD DUP1 PUSH1 0x40 MSTORE POP DUP2 ADD SWAP1 PUSH2 0x558 SWAP2 SWAP1 PUSH2 0x1D72 JUMP JUMPDEST SWAP1 POP PUSH0 JUMPDEST DUP2 DUP2 LT ISZERO PUSH2 0x662 JUMPI PUSH0 DUP4 PUSH20 0xFFFFFFFFFFFFFFFFFFFFFFFFFFFFFFFFFFFFFFFF AND PUSH4 0x2F745C59 ADDRESS PUSH0 PUSH1 0x40 MLOAD DUP4 PUSH4 0xFFFFFFFF AND PUSH1 0xE0 SHL DUP2 MSTORE PUSH1 0x4 ADD PUSH2 0x5A0 SWAP3 SWAP2 SWAP1 PUSH2 0x1DD6 JUMP JUMPDEST PUSH1 0x20 PUSH1 0x40 MLOAD DUP1 DUP4 SUB DUP2 DUP7 GAS STATICCALL ISZERO DUP1 ISZERO PUSH2 0x5BB JUMPI RETURNDATASIZE PUSH0 DUP1 RETURNDATACOPY RETURNDATASIZE PUSH0 REVERT JUMPDEST POP POP POP POP PUSH1 0x40 MLOAD RETURNDATASIZE PUSH1 0x1F NOT PUSH1 0x1F DUP3 ADD AND DUP3 ADD DUP1 PUSH1 0x40 MSTORE POP DUP2 ADD SWAP1 PUSH2 0x5DF SWAP2 SWAP1 PUSH2 0x1D72 JUMP JUMPDEST SWAP1 POP DUP5 PUSH0 ADD MLOAD PUSH20 0xFFFFFFFFFFFFFFFFFFFFFFFFFFFFFFFFFFFFFFFF AND PUSH4 0x42842E0E ADDRESS DUP9 DUP5 PUSH1 0x40 MLOAD DUP5 PUSH4 0xFFFFFFFF AND PUSH1 0xE0 SHL DUP2 MSTORE PUSH1 0x4 ADD PUSH2 0x621 SWAP4 SWAP3 SWAP2 SWAP1 PUSH2 0x1DFD JUMP JUMPDEST PUSH0 PUSH1 0x40 MLOAD DUP1 DUP4 SUB DUP2 PUSH0 DUP8 DUP1 EXTCODESIZE ISZERO DUP1 ISZERO PUSH2 0x638 JUMPI PUSH0 DUP1 REVERT JUMPDEST POP GAS CALL ISZERO DUP1 ISZERO PUSH2 0x64A JUMPI RETURNDATASIZE PUSH0 DUP1 RETURNDATACOPY RETURNDATASIZE PUSH0 REVERT JUMPDEST POP POP POP POP POP DUP1 DUP1 PUSH2 0x65A SWAP1 PUSH2 0x1E5F JUMP JUMPDEST SWAP2 POP POP PUSH2 0x55C JUMP JUMPDEST POP POP POP POP POP POP JUMP JUMPDEST PUSH2 0x672 PUSH2 0x12E8 JUMP JUMPDEST PUSH0 DUP3 PUSH20 0xFFFFFFFFFFFFFFFFFFFFFFFFFFFFFFFFFFFFFFFF AND PUSH4 0x70A08231 ADDRESS PUSH1 0x40 MLOAD DUP3 PUSH4 0xFFFFFFFF AND PUSH1 0xE0 SHL DUP2 MSTORE PUSH1 0x4 ADD PUSH2 0x6AC SWAP2 SWAP1 PUSH2 0x1AF5 JUMP JUMPDEST PUSH1 0x20 PUSH1 0x40 MLOAD DUP1 DUP4 SUB DUP2 DUP7 GAS STATICCALL ISZERO DUP1 ISZERO PUSH2 0x6C7 JUMPI RETURNDATASIZE PUSH0 DUP1 RETURNDATACOPY RETURNDATASIZE PUSH0 REVERT JUMPDEST POP POP POP POP PUSH1 0x40 MLOAD RETURNDATASIZE PUSH1 0x1F NOT PUSH1 0x1F DUP3 ADD AND DUP3 ADD DUP1 PUSH1 0x40 MSTORE POP DUP2 ADD SWAP1 PUSH2 0x6EB SWAP2 SWAP1 PUSH2 0x1D72 JUMP JUMPDEST SWAP1 POP DUP3 PUSH20 0xFFFFFFFFFFFFFFFFFFFFFFFFFFFFFFFFFFFFFFFF AND PUSH4 0xA9059CBB DUP4 DUP4 PUSH1 0x40 MLOAD DUP4 PUSH4 0xFFFFFFFF AND PUSH1 0xE0 SHL DUP2 MSTORE PUSH1 0x4 ADD PUSH2 0x728 SWAP3 SWAP2 SWAP1 PUSH2 0x1EA6 JUMP JUMPDEST PUSH1 0x20 PUSH1 0x40 MLOAD DUP1 DUP4 SUB DUP2 PUSH0 DUP8 GAS CALL ISZERO DUP1 ISZERO PUSH2 0x744 JUMPI RETURNDATASIZE PUSH0 DUP1 RETURNDATACOPY RETURNDATASIZE PUSH0 REVERT JUMPDEST POP POP POP POP PUSH1 0x40 MLOAD RETURNDATASIZE PUSH1 0x1F NOT PUSH1 0x1F DUP3 ADD AND DUP3 ADD DUP1 PUSH1 0x40 MSTORE POP DUP2 ADD SWAP1 PUSH2 0x768 SWAP2 SWAP1 PUSH2 0x1EE1 JUMP JUMPDEST POP POP POP POP JUMP JUMPDEST PUSH1 0x3 PUSH0 SWAP1 SLOAD SWAP1 PUSH2 0x100 EXP SWAP1 DIV PUSH20 0xFFFFFFFFFFFFFFFFFFFFFFFFFFFFFFFFFFFFFFFF AND DUP2 JUMP JUMPDEST PUSH2 0x79B PUSH2 0x12E8 JUMP JUMPDEST PUSH2 0x7A4 PUSH0 PUSH2 0x136F JUMP JUMPDEST JUMP JUMPDEST PUSH32 0x0 DUP2 JUMP JUMPDEST PUSH0 PUSH1 0x1 PUSH0 SWAP1 SLOAD SWAP1 PUSH2 0x100 EXP SWAP1 DIV PUSH20 0xFFFFFFFFFFFFFFFFFFFFFFFFFFFFFFFFFFFFFFFF AND SWAP1 POP SWAP1 JUMP JUMPDEST PUSH2 0x7FA PUSH2 0x12E8 JUMP JUMPDEST PUSH1 0x40 MLOAD DUP1 PUSH1 0x60 ADD PUSH1 0x40 MSTORE DUP1 DUP5 PUSH20 0xFFFFFFFFFFFFFFFFFFFFFFFFFFFFFFFFFFFFFFFF AND DUP2 MSTORE PUSH1 0x20 ADD DUP4 DUP2 MSTORE PUSH1 0x20 ADD DUP3 ISZERO ISZERO DUP2 MSTORE POP PUSH1 0x2 PUSH0 DUP7 DUP2 MSTORE PUSH1 0x20 ADD SWAP1 DUP2 MSTORE PUSH1 0x20 ADD PUSH0 KECCAK256 PUSH0 DUP3 ADD MLOAD DUP2 PUSH0 ADD PUSH0 PUSH2 0x100 EXP DUP2 SLOAD DUP2 PUSH20 0xFFFFFFFFFFFFFFFFFFFFFFFFFFFFFFFFFFFFFFFF MUL NOT AND SWAP1 DUP4 PUSH20 0xFFFFFFFFFFFFFFFFFFFFFFFFFFFFFFFFFFFFFFFF AND MUL OR SWAP1 SSTORE POP PUSH1 0x20 DUP3 ADD MLOAD DUP2 PUSH1 0x1 ADD SSTORE PUSH1 0x40 DUP3 ADD MLOAD DUP2 PUSH1 0x2 ADD PUSH0 PUSH2 0x100 EXP DUP2 SLOAD DUP2 PUSH1 0xFF MUL NOT AND SWAP1 DUP4 ISZERO ISZERO MUL OR SWAP1 SSTORE POP SWAP1 POP POP POP POP POP POP JUMP JUMPDEST PUSH2 0x8BC PUSH2 0x12E8 JUMP JUMPDEST PUSH0 PUSH1 0x2 PUSH0 DUP6 DUP2 MSTORE PUSH1 0x20 ADD SWAP1 DUP2 MSTORE PUSH1 0x20 ADD PUSH0 KECCAK256 PUSH1 0x40 MLOAD DUP1 PUSH1 0x60 ADD PUSH1 0x40 MSTORE SWAP1 DUP2 PUSH0 DUP3 ADD PUSH0 SWAP1 SLOAD SWAP1 PUSH2 0x100 EXP SWAP1 DIV PUSH20 0xFFFFFFFFFFFFFFFFFFFFFFFFFFFFFFFFFFFFFFFF AND PUSH20 0xFFFFFFFFFFFFFFFFFFFFFFFFFFFFFFFFFFFFFFFF AND PUSH20 0xFFFFFFFFFFFFFFFFFFFFFFFFFFFFFFFFFFFFFFFF AND DUP2 MSTORE PUSH1 0x20 ADD PUSH1 0x1 DUP3 ADD SLOAD DUP2 MSTORE PUSH1 0x20 ADD PUSH1 0x2 DUP3 ADD PUSH0 SWAP1 SLOAD SWAP1 PUSH2 0x100 EXP SWAP1 DIV PUSH1 0xFF AND ISZERO ISZERO ISZERO ISZERO DUP2 MSTORE POP POP SWAP1 POP PUSH0 PUSH20 0xFFFFFFFFFFFFFFFFFFFFFFFFFFFFFFFFFFFFFFFF AND DUP2 PUSH0 ADD MLOAD PUSH20 0xFFFFFFFFFFFFFFFFFFFFFFFFFFFFFFFFFFFFFFFF AND SUB PUSH2 0x9BB JUMPI PUSH1 0x40 MLOAD PUSH32 0xE142361700000000000000000000000000000000000000000000000000000000 DUP2 MSTORE PUSH1 0x4 ADD PUSH1 0x40 MLOAD DUP1 SWAP2 SUB SWAP1 REVERT JUMPDEST DUP1 PUSH0 ADD MLOAD PUSH20 0xFFFFFFFFFFFFFFFFFFFFFFFFFFFFFFFFFFFFFFFF AND PUSH4 0x42842E0E ADDRESS DUP5 DUP7 PUSH1 0x40 MLOAD DUP5 PUSH4 0xFFFFFFFF AND PUSH1 0xE0 SHL DUP2 MSTORE PUSH1 0x4 ADD PUSH2 0x9FB SWAP4 SWAP3 SWAP2 SWAP1 PUSH2 0x1DFD JUMP JUMPDEST PUSH0 PUSH1 0x40 MLOAD DUP1 DUP4 SUB DUP2 PUSH0 DUP8 DUP1 EXTCODESIZE ISZERO DUP1 ISZERO PUSH2 0xA12 JUMPI PUSH0 DUP1 REVERT JUMPDEST POP GAS CALL ISZERO DUP1 ISZERO PUSH2 0xA24 JUMPI RETURNDATASIZE PUSH0 DUP1 RETURNDATACOPY RETURNDATASIZE PUSH0 REVERT JUMPDEST POP POP POP POP POP POP POP POP JUMP JUMPDEST PUSH2 0xA36 PUSH2 0x1432 JUMP JUMPDEST PUSH0 PUSH1 0x2 PUSH0 DUP4 DUP2 MSTORE PUSH1 0x20 ADD SWAP1 DUP2 MSTORE PUSH1 0x20 ADD PUSH0 KECCAK256 PUSH1 0x40 MLOAD DUP1 PUSH1 0x60 ADD PUSH1 0x40 MSTORE SWAP1 DUP2 PUSH0 DUP3 ADD PUSH0 SWAP1 SLOAD SWAP1 PUSH2 0x100 EXP SWAP1 DIV PUSH20 0xFFFFFFFFFFFFFFFFFFFFFFFFFFFFFFFFFFFFFFFF AND PUSH20 0xFFFFFFFFFFFFFFFFFFFFFFFFFFFFFFFFFFFFFFFF AND PUSH20 0xFFFFFFFFFFFFFFFFFFFFFFFFFFFFFFFFFFFFFFFF AND DUP2 MSTORE PUSH1 0x20 ADD PUSH1 0x1 DUP3 ADD SLOAD DUP2 MSTORE PUSH1 0x20 ADD PUSH1 0x2 DUP3 ADD PUSH0 SWAP1 SLOAD SWAP1 PUSH2 0x100 EXP SWAP1 DIV PUSH1 0xFF AND ISZERO ISZERO ISZERO ISZERO DUP2 MSTORE POP POP SWAP1 POP PUSH0 PUSH20 0xFFFFFFFFFFFFFFFFFFFFFFFFFFFFFFFFFFFFFFFF AND DUP2 PUSH0 ADD MLOAD PUSH20 0xFFFFFFFFFFFFFFFFFFFFFFFFFFFFFFFFFFFFFFFF AND SUB PUSH2 0xB35 JUMPI PUSH1 0x40 MLOAD PUSH32 0xE142361700000000000000000000000000000000000000000000000000000000 DUP2 MSTORE PUSH1 0x4 ADD PUSH1 0x40 MLOAD DUP1 SWAP2 SUB SWAP1 REVERT JUMPDEST DUP1 PUSH1 0x40 ADD MLOAD ISZERO DUP1 PUSH2 0xB49 JUMPI POP PUSH0 DUP2 PUSH1 0x20 ADD MLOAD EQ JUMPDEST ISZERO PUSH2 0xB80 JUMPI PUSH1 0x40 MLOAD PUSH32 0x94D366B500000000000000000000000000000000000000000000000000000000 DUP2 MSTORE PUSH1 0x4 ADD PUSH1 0x40 MLOAD DUP1 SWAP2 SUB SWAP1 REVERT JUMPDEST PUSH0 PUSH2 0xB8D DUP3 PUSH0 ADD MLOAD PUSH2 0x147F JUMP JUMPDEST SWAP1 POP PUSH2 0xBE0 CALLER ADDRESS DUP5 PUSH1 0x20 ADD MLOAD PUSH32 0x0 PUSH20 0xFFFFFFFFFFFFFFFFFFFFFFFFFFFFFFFFFFFFFFFF AND PUSH2 0x15BB SWAP1 SWAP4 SWAP3 SWAP2 SWAP1 PUSH4 0xFFFFFFFF AND JUMP JUMPDEST PUSH2 0xC50 PUSH1 0x3 PUSH0 SWAP1 SLOAD SWAP1 PUSH2 0x100 EXP SWAP1 DIV PUSH20 0xFFFFFFFFFFFFFFFFFFFFFFFFFFFFFFFFFFFFFFFF AND DUP4 PUSH1 0x20 ADD MLOAD PUSH32 0x0 PUSH20 0xFFFFFFFFFFFFFFFFFFFFFFFFFFFFFFFFFFFFFFFF AND PUSH2 0x163D SWAP1 SWAP3 SWAP2 SWAP1 PUSH4 0xFFFFFFFF AND JUMP JUMPDEST DUP2 PUSH0 ADD MLOAD PUSH20 0xFFFFFFFFFFFFFFFFFFFFFFFFFFFFFFFFFFFFFFFF AND PUSH4 0x42842E0E ADDRESS CALLER DUP5 PUSH1 0x40 MLOAD DUP5 PUSH4 0xFFFFFFFF AND PUSH1 0xE0 SHL DUP2 MSTORE PUSH1 0x4 ADD PUSH2 0xC90 SWAP4 SWAP3 SWAP2 SWAP1 PUSH2 0x1DFD JUMP JUMPDEST PUSH0 PUSH1 0x40 MLOAD DUP1 DUP4 SUB DUP2 PUSH0 DUP8 DUP1 EXTCODESIZE ISZERO DUP1 ISZERO PUSH2 0xCA7 JUMPI PUSH0 DUP1 REVERT JUMPDEST POP GAS CALL ISZERO DUP1 ISZERO PUSH2 0xCB9 JUMPI RETURNDATASIZE PUSH0 DUP1 RETURNDATACOPY RETURNDATASIZE PUSH0 REVERT JUMPDEST POP POP POP POP POP POP PUSH2 0xCC7 PUSH2 0x16BC JUMP JUMPDEST POP JUMP JUMPDEST PUSH2 0xCD2 PUSH2 0x1432 JUMP JUMPDEST PUSH0 PUSH1 0x2 PUSH0 DUP9 DUP2 MSTORE PUSH1 0x20 ADD SWAP1 DUP2 MSTORE PUSH1 0x20 ADD PUSH0 KECCAK256 PUSH1 0x40 MLOAD DUP1 PUSH1 0x60 ADD PUSH1 0x40 MSTORE SWAP1 DUP2 PUSH0 DUP3 ADD PUSH0 SWAP1 SLOAD SWAP1 PUSH2 0x100 EXP SWAP1 DIV PUSH20 0xFFFFFFFFFFFFFFFFFFFFFFFFFFFFFFFFFFFFFFFF AND PUSH20 0xFFFFFFFFFFFFFFFFFFFFFFFFFFFFFFFFFFFFFFFF AND PUSH20 0xFFFFFFFFFFFFFFFFFFFFFFFFFFFFFFFFFFFFFFFF AND DUP2 MSTORE PUSH1 0x20 ADD PUSH1 0x1 DUP3 ADD SLOAD DUP2 MSTORE PUSH1 0x20 ADD PUSH1 0x2 DUP3 ADD PUSH0 SWAP1 SLOAD SWAP1 PUSH2 0x100 EXP SWAP1 DIV PUSH1 0xFF AND ISZERO ISZERO ISZERO ISZERO DUP2 MSTORE POP POP SWAP1 POP PUSH0 PUSH20 0xFFFFFFFFFFFFFFFFFFFFFFFFFFFFFFFFFFFFFFFF AND DUP2 PUSH0 ADD MLOAD PUSH20 0xFFFFFFFFFFFFFFFFFFFFFFFFFFFFFFFFFFFFFFFF AND SUB PUSH2 0xDD1 JUMPI PUSH1 0x40 MLOAD PUSH32 0xE142361700000000000000000000000000000000000000000000000000000000 DUP2 MSTORE PUSH1 0x4 ADD PUSH1 0x40 MLOAD DUP1 SWAP2 SUB SWAP1 REVERT JUMPDEST DUP1 PUSH1 0x40 ADD MLOAD ISZERO DUP1 PUSH2 0xDE5 JUMPI POP PUSH0 DUP2 PUSH1 0x20 ADD MLOAD EQ JUMPDEST ISZERO PUSH2 0xE1C JUMPI PUSH1 0x40 MLOAD PUSH32 0x94D366B500000000000000000000000000000000000000000000000000000000 DUP2 MSTORE PUSH1 0x4 ADD PUSH1 0x40 MLOAD DUP1 SWAP2 SUB SWAP1 REVERT JUMPDEST DUP1 PUSH1 0x20 ADD MLOAD DUP7 EQ PUSH2 0xE62 JUMPI PUSH1 0x40 MLOAD PUSH32 0x8C379A000000000000000000000000000000000000000000000000000000000 DUP2 MSTORE PUSH1 0x4 ADD PUSH2 0xE59 SWAP1 PUSH2 0x1F66 JUMP JUMPDEST PUSH1 0x40 MLOAD DUP1 SWAP2 SUB SWAP1 REVERT JUMPDEST PUSH32 0x0 PUSH20 0xFFFFFFFFFFFFFFFFFFFFFFFFFFFFFFFFFFFFFFFF AND PUSH4 0xD505ACCF CALLER ADDRESS DUP10 DUP10 DUP10 DUP10 DUP10 PUSH1 0x40 MLOAD DUP9 PUSH4 0xFFFFFFFF AND PUSH1 0xE0 SHL DUP2 MSTORE PUSH1 0x4 ADD PUSH2 0xEC7 SWAP8 SWAP7 SWAP6 SWAP5 SWAP4 SWAP3 SWAP2 SWAP1 PUSH2 0x1FA2 JUMP JUMPDEST PUSH0 PUSH1 0x40 MLOAD DUP1 DUP4 SUB DUP2 PUSH0 DUP8 DUP1 EXTCODESIZE ISZERO DUP1 ISZERO PUSH2 0xEDE JUMPI PUSH0 DUP1 REVERT JUMPDEST POP GAS CALL ISZERO DUP1 ISZERO PUSH2 0xEF0 JUMPI RETURNDATASIZE PUSH0 DUP1 RETURNDATACOPY RETURNDATASIZE PUSH0 REVERT JUMPDEST POP POP POP POP PUSH2 0xEFD DUP8 PUSH2 0xA2E JUMP JUMPDEST POP PUSH2 0xF06 PUSH2 0x16BC JUMP JUMPDEST POP POP POP POP POP POP JUMP JUMPDEST PUSH2 0xF16 PUSH2 0x12E8 JUMP JUMPDEST PUSH0 PUSH1 0x2 PUSH0 DUP6 DUP2 MSTORE PUSH1 0x20 ADD SWAP1 DUP2 MSTORE PUSH1 0x20 ADD PUSH0 KECCAK256 PUSH1 0x40 MLOAD DUP1 PUSH1 0x60 ADD PUSH1 0x40 MSTORE SWAP1 DUP2 PUSH0 DUP3 ADD PUSH0 SWAP1 SLOAD SWAP1 PUSH2 0x100 EXP SWAP1 DIV PUSH20 0xFFFFFFFFFFFFFFFFFFFFFFFFFFFFFFFFFFFFFFFF AND PUSH20 0xFFFFFFFFFFFFFFFFFFFFFFFFFFFFFFFFFFFFFFFF AND PUSH20 0xFFFFFFFFFFFFFFFFFFFFFFFFFFFFFFFFFFFFFFFF AND DUP2 MSTORE PUSH1 0x20 ADD PUSH1 0x1 DUP3 ADD SLOAD DUP2 MSTORE PUSH1 0x20 ADD PUSH1 0x2 DUP3 ADD PUSH0 SWAP1 SLOAD SWAP1 PUSH2 0x100 EXP SWAP1 DIV PUSH1 0xFF AND ISZERO ISZERO ISZERO ISZERO DUP2 MSTORE POP POP SWAP1 POP PUSH0 PUSH20 0xFFFFFFFFFFFFFFFFFFFFFFFFFFFFFFFFFFFFFFFF AND DUP2 PUSH0 ADD MLOAD PUSH20 0xFFFFFFFFFFFFFFFFFFFFFFFFFFFFFFFFFFFFFFFF AND SUB PUSH2 0x1015 JUMPI PUSH1 0x40 MLOAD PUSH32 0xE142361700000000000000000000000000000000000000000000000000000000 DUP2 MSTORE PUSH1 0x4 ADD PUSH1 0x40 MLOAD DUP1 SWAP2 SUB SWAP1 REVERT JUMPDEST PUSH0 DUP2 PUSH0 ADD MLOAD SWAP1 POP PUSH0 DUP2 PUSH20 0xFFFFFFFFFFFFFFFFFFFFFFFFFFFFFFFFFFFFFFFF AND PUSH4 0x70A08231 ADDRESS PUSH1 0x40 MLOAD DUP3 PUSH4 0xFFFFFFFF AND PUSH1 0xE0 SHL DUP2 MSTORE PUSH1 0x4 ADD PUSH2 0x1056 SWAP2 SWAP1 PUSH2 0x1AF5 JUMP JUMPDEST PUSH1 0x20 PUSH1 0x40 MLOAD DUP1 DUP4 SUB DUP2 DUP7 GAS STATICCALL ISZERO DUP1 ISZERO PUSH2 0x1071 JUMPI RETURNDATASIZE PUSH0 DUP1 RETURNDATACOPY RETURNDATASIZE PUSH0 REVERT JUMPDEST POP POP POP POP PUSH1 0x40 MLOAD RETURNDATASIZE PUSH1 0x1F NOT PUSH1 0x1F DUP3 ADD AND DUP3 ADD DUP1 PUSH1 0x40 MSTORE POP DUP2 ADD SWAP1 PUSH2 0x1095 SWAP2 SWAP1 PUSH2 0x1D72 JUMP JUMPDEST SWAP1 POP DUP1 DUP6 GT ISZERO PUSH2 0x10A3 JUMPI DUP1 SWAP5 POP JUMPDEST PUSH0 JUMPDEST DUP6 DUP2 LT ISZERO PUSH2 0x11AB JUMPI PUSH0 DUP4 PUSH20 0xFFFFFFFFFFFFFFFFFFFFFFFFFFFFFFFFFFFFFFFF AND PUSH4 0x2F745C59 ADDRESS PUSH0 PUSH1 0x40 MLOAD DUP4 PUSH4 0xFFFFFFFF AND PUSH1 0xE0 SHL DUP2 MSTORE PUSH1 0x4 ADD PUSH2 0x10E9 SWAP3 SWAP2 SWAP1 PUSH2 0x1DD6 JUMP JUMPDEST PUSH1 0x20 PUSH1 0x40 MLOAD DUP1 DUP4 SUB DUP2 DUP7 GAS STATICCALL ISZERO DUP1 ISZERO PUSH2 0x1104 JUMPI RETURNDATASIZE PUSH0 DUP1 RETURNDATACOPY RETURNDATASIZE PUSH0 REVERT JUMPDEST POP POP POP POP PUSH1 0x40 MLOAD RETURNDATASIZE PUSH1 0x1F NOT PUSH1 0x1F DUP3 ADD AND DUP3 ADD DUP1 PUSH1 0x40 MSTORE POP DUP2 ADD SWAP1 PUSH2 0x1128 SWAP2 SWAP1 PUSH2 0x1D72 JUMP JUMPDEST SWAP1 POP DUP5 PUSH0 ADD MLOAD PUSH20 0xFFFFFFFFFFFFFFFFFFFFFFFFFFFFFFFFFFFFFFFF AND PUSH4 0x42842E0E ADDRESS DUP9 DUP5 PUSH1 0x40 MLOAD DUP5 PUSH4 0xFFFFFFFF AND PUSH1 0xE0 SHL DUP2 MSTORE PUSH1 0x4 ADD PUSH2 0x116A SWAP4 SWAP3 SWAP2 SWAP1 PUSH2 0x1DFD JUMP JUMPDEST PUSH0 PUSH1 0x40 MLOAD DUP1 DUP4 SUB DUP2 PUSH0 DUP8 DUP1 EXTCODESIZE ISZERO DUP1 ISZERO PUSH2 0x1181 JUMPI PUSH0 DUP1 REVERT JUMPDEST POP GAS CALL ISZERO DUP1 ISZERO PUSH2 0x1193 JUMPI RETURNDATASIZE PUSH0 DUP1 RETURNDATACOPY RETURNDATASIZE PUSH0 REVERT JUMPDEST POP POP POP POP POP DUP1 DUP1 PUSH2 0x11A3 SWAP1 PUSH2 0x1E5F JUMP JUMPDEST SWAP2 POP POP PUSH2 0x10A5 JUMP JUMPDEST POP POP POP POP POP POP POP JUMP JUMPDEST PUSH2 0x11BC PUSH2 0x12E8 JUMP JUMPDEST PUSH0 PUSH20 0xFFFFFFFFFFFFFFFFFFFFFFFFFFFFFFFFFFFFFFFF AND DUP2 PUSH20 0xFFFFFFFFFFFFFFFFFFFFFFFFFFFFFFFFFFFFFFFF AND SUB PUSH2 0x1221 JUMPI PUSH1 0x40 MLOAD PUSH32 0xD92E233D00000000000000000000000000000000000000000000000000000000 DUP2 MSTORE PUSH1 0x4 ADD PUSH1 0x40 MLOAD DUP1 SWAP2 SUB SWAP1 REVERT JUMPDEST DUP1 PUSH1 0x3 PUSH0 PUSH2 0x100 EXP DUP2 SLOAD DUP2 PUSH20 0xFFFFFFFFFFFFFFFFFFFFFFFFFFFFFFFFFFFFFFFF MUL NOT AND SWAP1 DUP4 PUSH20 0xFFFFFFFFFFFFFFFFFFFFFFFFFFFFFFFFFFFFFFFF AND MUL OR SWAP1 SSTORE POP POP JUMP JUMPDEST PUSH2 0x126C PUSH2 0x12E8 JUMP JUMPDEST PUSH0 PUSH20 0xFFFFFFFFFFFFFFFFFFFFFFFFFFFFFFFFFFFFFFFF AND DUP2 PUSH20 0xFFFFFFFFFFFFFFFFFFFFFFFFFFFFFFFFFFFFFFFF AND SUB PUSH2 0x12DC JUMPI PUSH0 PUSH1 0x40 MLOAD PUSH32 0x1E4FBDF700000000000000000000000000000000000000000000000000000000 DUP2 MSTORE PUSH1 0x4 ADD PUSH2 0x12D3 SWAP2 SWAP1 PUSH2 0x1AF5 JUMP JUMPDEST PUSH1 0x40 MLOAD DUP1 SWAP2 SUB SWAP1 REVERT JUMPDEST PUSH2 0x12E5 DUP2 PUSH2 0x136F JUMP JUMPDEST POP JUMP JUMPDEST PUSH2 0x12F0 PUSH2 0x16C5 JUMP JUMPDEST PUSH20 0xFFFFFFFFFFFFFFFFFFFFFFFFFFFFFFFFFFFFFFFF AND PUSH2 0x130E PUSH2 0x7CA JUMP JUMPDEST PUSH20 0xFFFFFFFFFFFFFFFFFFFFFFFFFFFFFFFFFFFFFFFF AND EQ PUSH2 0x136D JUMPI PUSH2 0x1331 PUSH2 0x16C5 JUMP JUMPDEST PUSH1 0x40 MLOAD PUSH32 0x118CDAA700000000000000000000000000000000000000000000000000000000 DUP2 MSTORE PUSH1 0x4 ADD PUSH2 0x1364 SWAP2 SWAP1 PUSH2 0x1AF5 JUMP JUMPDEST PUSH1 0x40 MLOAD DUP1 SWAP2 SUB SWAP1 REVERT JUMPDEST JUMP JUMPDEST PUSH0 PUSH1 0x1 PUSH0 SWAP1 SLOAD SWAP1 PUSH2 0x100 EXP SWAP1 DIV PUSH20 0xFFFFFFFFFFFFFFFFFFFFFFFFFFFFFFFFFFFFFFFF AND SWAP1 POP DUP2 PUSH1 0x1 PUSH0 PUSH2 0x100 EXP DUP2 SLOAD DUP2 PUSH20 0xFFFFFFFFFFFFFFFFFFFFFFFFFFFFFFFFFFFFFFFF MUL NOT AND SWAP1 DUP4 PUSH20 0xFFFFFFFFFFFFFFFFFFFFFFFFFFFFFFFFFFFFFFFF AND MUL OR SWAP1 SSTORE POP DUP2 PUSH20 0xFFFFFFFFFFFFFFFFFFFFFFFFFFFFFFFFFFFFFFFF AND DUP2 PUSH20 0xFFFFFFFFFFFFFFFFFFFFFFFFFFFFFFFFFFFFFFFF AND PUSH32 0x8BE0079C531659141344CD1FD0A4F28419497F9722A3DAAFE3B4186F6B6457E0 PUSH1 0x40 MLOAD PUSH1 0x40 MLOAD DUP1 SWAP2 SUB SWAP1 LOG3 POP POP JUMP JUMPDEST PUSH1 0x2 PUSH0 SLOAD SUB PUSH2 0x1476 JUMPI PUSH1 0x40 MLOAD PUSH32 0x8C379A000000000000000000000000000000000000000000000000000000000 DUP2 MSTORE PUSH1 0x4 ADD PUSH2 0x146D SWAP1 PUSH2 0x2059 JUMP JUMPDEST PUSH1 0x40 MLOAD DUP1 SWAP2 SUB SWAP1 REVERT JUMPDEST PUSH1 0x2 PUSH0 DUP2 SWAP1 SSTORE POP JUMP JUMPDEST PUSH0 DUP1 DUP3 SWAP1 POP PUSH0 DUP2 PUSH20 0xFFFFFFFFFFFFFFFFFFFFFFFFFFFFFFFFFFFFFFFF AND PUSH4 0x70A08231 ADDRESS PUSH1 0x40 MLOAD DUP3 PUSH4 0xFFFFFFFF AND PUSH1 0xE0 SHL DUP2 MSTORE PUSH1 0x4 ADD PUSH2 0x14BE SWAP2 SWAP1 PUSH2 0x1AF5 JUMP JUMPDEST PUSH1 0x20 PUSH1 0x40 MLOAD DUP1 DUP4 SUB DUP2 DUP7 GAS STATICCALL ISZERO DUP1 ISZERO PUSH2 0x14D9 JUMPI RETURNDATASIZE PUSH0 DUP1 RETURNDATACOPY RETURNDATASIZE PUSH0 REVERT JUMPDEST POP POP POP POP PUSH1 0x40 MLOAD RETURNDATASIZE PUSH1 0x1F NOT PUSH1 0x1F DUP3 ADD AND DUP3 ADD DUP1 PUSH1 0x40 MSTORE POP DUP2 ADD SWAP1 PUSH2 0x14FD SWAP2 SWAP1 PUSH2 0x1D72 JUMP JUMPDEST SWAP1 POP PUSH0 DUP2 SUB PUSH2 0x1538 JUMPI PUSH1 0x40 MLOAD PUSH32 0x52DF9FE500000000000000000000000000000000000000000000000000000000 DUP2 MSTORE PUSH1 0x4 ADD PUSH1 0x40 MLOAD DUP1 SWAP2 SUB SWAP1 REVERT JUMPDEST DUP2 PUSH20 0xFFFFFFFFFFFFFFFFFFFFFFFFFFFFFFFFFFFFFFFF AND PUSH4 0x2F745C59 ADDRESS PUSH0 PUSH1 0x40 MLOAD DUP4 PUSH4 0xFFFFFFFF AND PUSH1 0xE0 SHL DUP2 MSTORE PUSH1 0x4 ADD PUSH2 0x1573 SWAP3 SWAP2 SWAP1 PUSH2 0x1DD6 JUMP JUMPDEST PUSH1 0x20 PUSH1 0x40 MLOAD DUP1 DUP4 SUB DUP2 DUP7 GAS STATICCALL ISZERO DUP1 ISZERO PUSH2 0x158E JUMPI RETURNDATASIZE PUSH0 DUP1 RETURNDATACOPY RETURNDATASIZE PUSH0 REVERT JUMPDEST POP POP POP POP PUSH1 0x40 MLOAD RETURNDATASIZE PUSH1 0x1F NOT PUSH1 0x1F DUP3 ADD AND DUP3 ADD DUP1 PUSH1 0x40 MSTORE POP DUP2 ADD SWAP1 PUSH2 0x15B2 SWAP2 SWAP1 PUSH2 0x1D72 JUMP JUMPDEST SWAP3 POP POP POP SWAP2 SWAP1 POP JUMP JUMPDEST PUSH2 0x1637 DUP5 DUP6 PUSH20 0xFFFFFFFFFFFFFFFFFFFFFFFFFFFFFFFFFFFFFFFF AND PUSH4 0x23B872DD DUP7 DUP7 DUP7 PUSH1 0x40 MLOAD PUSH1 0x24 ADD PUSH2 0x15F0 SWAP4 SWAP3 SWAP2 SWAP1 PUSH2 0x1DFD JUMP JUMPDEST PUSH1 0x40 MLOAD PUSH1 0x20 DUP2 DUP4 SUB SUB DUP2 MSTORE SWAP1 PUSH1 0x40 MSTORE SWAP2 POP PUSH1 0xE0 SHL PUSH1 0x20 DUP3 ADD DUP1 MLOAD PUSH28 0xFFFFFFFFFFFFFFFFFFFFFFFFFFFFFFFFFFFFFFFFFFFFFFFFFFFFFFFF DUP4 DUP2 DUP4 AND OR DUP4 MSTORE POP POP POP POP PUSH2 0x16CC JUMP JUMPDEST POP POP POP POP JUMP JUMPDEST PUSH2 0x16B7 DUP4 DUP5 PUSH20 0xFFFFFFFFFFFFFFFFFFFFFFFFFFFFFFFFFFFFFFFF AND PUSH4 0xA9059CBB DUP6 DUP6 PUSH1 0x40 MLOAD PUSH1 0x24 ADD PUSH2 0x1670 SWAP3 SWAP2 SWAP1 PUSH2 0x1EA6 JUMP JUMPDEST PUSH1 0x40 MLOAD PUSH1 0x20 DUP2 DUP4 SUB SUB DUP2 MSTORE SWAP1 PUSH1 0x40 MSTORE SWAP2 POP PUSH1 0xE0 SHL PUSH1 0x20 DUP3 ADD DUP1 MLOAD PUSH28 0xFFFFFFFFFFFFFFFFFFFFFFFFFFFFFFFFFFFFFFFFFFFFFFFFFFFFFFFF DUP4 DUP2 DUP4 AND OR DUP4 MSTORE POP POP POP POP PUSH2 0x16CC JUMP JUMPDEST POP POP POP JUMP JUMPDEST PUSH1 0x1 PUSH0 DUP2 SWAP1 SSTORE POP JUMP JUMPDEST PUSH0 CALLER SWAP1 POP SWAP1 JUMP JUMPDEST PUSH0 DUP1 PUSH1 0x20 PUSH0 DUP5 MLOAD PUSH1 0x20 DUP7 ADD PUSH0 DUP9 GAS CALL DUP1 PUSH2 0x16EB JUMPI PUSH1 0x40 MLOAD RETURNDATASIZE PUSH0 DUP3 RETURNDATACOPY RETURNDATASIZE DUP2 REVERT JUMPDEST RETURNDATASIZE SWAP3 POP PUSH0 MLOAD SWAP2 POP POP PUSH0 DUP3 EQ PUSH2 0x1704 JUMPI PUSH1 0x1 DUP2 EQ ISZERO PUSH2 0x171F JUMP JUMPDEST PUSH0 DUP5 PUSH20 0xFFFFFFFFFFFFFFFFFFFFFFFFFFFFFFFFFFFFFFFF AND EXTCODESIZE EQ JUMPDEST ISZERO PUSH2 0x1761 JUMPI DUP4 PUSH1 0x40 MLOAD PUSH32 0x5274AFE700000000000000000000000000000000000000000000000000000000 DUP2 MSTORE PUSH1 0x4 ADD PUSH2 0x1758 SWAP2 SWAP1 PUSH2 0x1AF5 JUMP JUMPDEST PUSH1 0x40 MLOAD DUP1 SWAP2 SUB SWAP1 REVERT JUMPDEST POP POP POP POP JUMP JUMPDEST PUSH0 DUP1 REVERT JUMPDEST PUSH0 DUP1 REVERT JUMPDEST PUSH0 DUP2 SWAP1 POP SWAP2 SWAP1 POP JUMP JUMPDEST PUSH2 0x1781 DUP2 PUSH2 0x176F JUMP JUMPDEST DUP2 EQ PUSH2 0x178B JUMPI PUSH0 DUP1 REVERT JUMPDEST POP JUMP JUMPDEST PUSH0 DUP2 CALLDATALOAD SWAP1 POP PUSH2 0x179C DUP2 PUSH2 0x1778 JUMP JUMPDEST SWAP3 SWAP2 POP POP JUMP JUMPDEST PUSH0 PUSH1 0x20 DUP3 DUP5 SUB SLT ISZERO PUSH2 0x17B7 JUMPI PUSH2 0x17B6 PUSH2 0x1767 JUMP JUMPDEST JUMPDEST PUSH0 PUSH2 0x17C4 DUP5 DUP3 DUP6 ADD PUSH2 0x178E JUMP JUMPDEST SWAP2 POP POP SWAP3 SWAP2 POP POP JUMP JUMPDEST PUSH0 PUSH20 0xFFFFFFFFFFFFFFFFFFFFFFFFFFFFFFFFFFFFFFFF DUP3 AND SWAP1 POP SWAP2 SWAP1 POP JUMP JUMPDEST PUSH0 PUSH2 0x17F6 DUP3 PUSH2 0x17CD JUMP JUMPDEST SWAP1 POP SWAP2 SWAP1 POP JUMP JUMPDEST PUSH2 0x1806 DUP2 PUSH2 0x17EC JUMP JUMPDEST DUP3 MSTORE POP POP JUMP JUMPDEST PUSH2 0x1815 DUP2 PUSH2 0x176F JUMP JUMPDEST DUP3 MSTORE POP POP JUMP JUMPDEST PUSH0 DUP2 ISZERO ISZERO SWAP1 POP SWAP2 SWAP1 POP JUMP JUMPDEST PUSH2 0x182F DUP2 PUSH2 0x181B JUMP JUMPDEST DUP3 MSTORE POP POP JUMP JUMPDEST PUSH0 PUSH1 0x60 DUP3 ADD SWAP1 POP PUSH2 0x1848 PUSH0 DUP4 ADD DUP7 PUSH2 0x17FD JUMP JUMPDEST PUSH2 0x1855 PUSH1 0x20 DUP4 ADD DUP6 PUSH2 0x180C JUMP JUMPDEST PUSH2 0x1862 PUSH1 0x40 DUP4 ADD DUP5 PUSH2 0x1826 JUMP JUMPDEST SWAP5 SWAP4 POP POP POP POP JUMP JUMPDEST PUSH2 0x1873 DUP2 PUSH2 0x17EC JUMP JUMPDEST DUP2 EQ PUSH2 0x187D JUMPI PUSH0 DUP1 REVERT JUMPDEST POP JUMP JUMPDEST PUSH0 DUP2 CALLDATALOAD SWAP1 POP PUSH2 0x188E DUP2 PUSH2 0x186A JUMP JUMPDEST SWAP3 SWAP2 POP POP JUMP JUMPDEST PUSH0 DUP1 REVERT JUMPDEST PUSH0 DUP1 REVERT JUMPDEST PUSH0 DUP1 REVERT JUMPDEST PUSH0 DUP1 DUP4 PUSH1 0x1F DUP5 ADD SLT PUSH2 0x18B5 JUMPI PUSH2 0x18B4 PUSH2 0x1894 JUMP JUMPDEST JUMPDEST DUP3 CALLDATALOAD SWAP1 POP PUSH8 0xFFFFFFFFFFFFFFFF DUP2 GT ISZERO PUSH2 0x18D2 JUMPI PUSH2 0x18D1 PUSH2 0x1898 JUMP JUMPDEST JUMPDEST PUSH1 0x20 DUP4 ADD SWAP2 POP DUP4 PUSH1 0x1 DUP3 MUL DUP4 ADD GT ISZERO PUSH2 0x18EE JUMPI PUSH2 0x18ED PUSH2 0x189C JUMP JUMPDEST JUMPDEST SWAP3 POP SWAP3 SWAP1 POP JUMP JUMPDEST PUSH0 DUP1 PUSH0 DUP1 PUSH0 PUSH1 0x80 DUP7 DUP9 SUB SLT ISZERO PUSH2 0x190E JUMPI PUSH2 0x190D PUSH2 0x1767 JUMP JUMPDEST JUMPDEST PUSH0 PUSH2 0x191B DUP9 DUP3 DUP10 ADD PUSH2 0x1880 JUMP JUMPDEST SWAP6 POP POP PUSH1 0x20 PUSH2 0x192C DUP9 DUP3 DUP10 ADD PUSH2 0x1880 JUMP JUMPDEST SWAP5 POP POP PUSH1 0x40 PUSH2 0x193D DUP9 DUP3 DUP10 ADD PUSH2 0x178E JUMP JUMPDEST SWAP4 POP POP PUSH1 0x60 DUP7 ADD CALLDATALOAD PUSH8 0xFFFFFFFFFFFFFFFF DUP2 GT ISZERO PUSH2 0x195E JUMPI PUSH2 0x195D PUSH2 0x176B JUMP JUMPDEST JUMPDEST PUSH2 0x196A DUP9 DUP3 DUP10 ADD PUSH2 0x18A0 JUMP JUMPDEST SWAP3 POP SWAP3 POP POP SWAP3 SWAP6 POP SWAP3 SWAP6 SWAP1 SWAP4 POP JUMP JUMPDEST PUSH0 PUSH32 0xFFFFFFFF00000000000000000000000000000000000000000000000000000000 DUP3 AND SWAP1 POP SWAP2 SWAP1 POP JUMP JUMPDEST PUSH2 0x19AD DUP2 PUSH2 0x1979 JUMP JUMPDEST DUP3 MSTORE POP POP JUMP JUMPDEST PUSH0 PUSH1 0x20 DUP3 ADD SWAP1 POP PUSH2 0x19C6 PUSH0 DUP4 ADD DUP5 PUSH2 0x19A4 JUMP JUMPDEST SWAP3 SWAP2 POP POP JUMP JUMPDEST PUSH0 DUP1 PUSH1 0x40 DUP4 DUP6 SUB SLT ISZERO PUSH2 0x19E2 JUMPI PUSH2 0x19E1 PUSH2 0x1767 JUMP JUMPDEST JUMPDEST PUSH0 PUSH2 0x19EF DUP6 DUP3 DUP7 ADD PUSH2 0x178E JUMP JUMPDEST SWAP3 POP POP PUSH1 0x20 PUSH2 0x1A00 DUP6 DUP3 DUP7 ADD PUSH2 0x1880 JUMP JUMPDEST SWAP2 POP POP SWAP3 POP SWAP3 SWAP1 POP JUMP JUMPDEST PUSH0 DUP1 PUSH1 0x40 DUP4 DUP6 SUB SLT ISZERO PUSH2 0x1A20 JUMPI PUSH2 0x1A1F PUSH2 0x1767 JUMP JUMPDEST JUMPDEST PUSH0 PUSH2 0x1A2D DUP6 DUP3 DUP7 ADD PUSH2 0x1880 JUMP JUMPDEST SWAP3 POP POP PUSH1 0x20 PUSH2 0x1A3E DUP6 DUP3 DUP7 ADD PUSH2 0x1880 JUMP JUMPDEST SWAP2 POP POP SWAP3 POP SWAP3 SWAP1 POP JUMP JUMPDEST PUSH0 PUSH2 0x1A52 DUP3 PUSH2 0x17CD JUMP JUMPDEST SWAP1 POP SWAP2 SWAP1 POP JUMP JUMPDEST PUSH2 0x1A62 DUP2 PUSH2 0x1A48 JUMP JUMPDEST DUP3 MSTORE POP POP JUMP JUMPDEST PUSH0 PUSH1 0x20 DUP3 ADD SWAP1 POP PUSH2 0x1A7B PUSH0 DUP4 ADD DUP5 PUSH2 0x1A59 JUMP JUMPDEST SWAP3 SWAP2 POP POP JUMP JUMPDEST PUSH0 DUP2 SWAP1 POP SWAP2 SWAP1 POP JUMP JUMPDEST PUSH0 PUSH2 0x1AA4 PUSH2 0x1A9F PUSH2 0x1A9A DUP5 PUSH2 0x17CD JUMP JUMPDEST PUSH2 0x1A81 JUMP JUMPDEST PUSH2 0x17CD JUMP JUMPDEST SWAP1 POP SWAP2 SWAP1 POP JUMP JUMPDEST PUSH0 PUSH2 0x1AB5 DUP3 PUSH2 0x1A8A JUMP JUMPDEST SWAP1 POP SWAP2 SWAP1 POP JUMP JUMPDEST PUSH0 PUSH2 0x1AC6 DUP3 PUSH2 0x1AAB JUMP JUMPDEST SWAP1 POP SWAP2 SWAP1 POP JUMP JUMPDEST PUSH2 0x1AD6 DUP2 PUSH2 0x1ABC JUMP JUMPDEST DUP3 MSTORE POP POP JUMP JUMPDEST PUSH0 PUSH1 0x20 DUP3 ADD SWAP1 POP PUSH2 0x1AEF PUSH0 DUP4 ADD DUP5 PUSH2 0x1ACD JUMP JUMPDEST SWAP3 SWAP2 POP POP JUMP JUMPDEST PUSH0 PUSH1 0x20 DUP3 ADD SWAP1 POP PUSH2 0x1B08 PUSH0 DUP4 ADD DUP5 PUSH2 0x17FD JUMP JUMPDEST SWAP3 SWAP2 POP POP JUMP JUMPDEST PUSH2 0x1B17 DUP2 PUSH2 0x181B JUMP JUMPDEST DUP2 EQ PUSH2 0x1B21 JUMPI PUSH0 DUP1 REVERT JUMPDEST POP JUMP JUMPDEST PUSH0 DUP2 CALLDATALOAD SWAP1 POP PUSH2 0x1B32 DUP2 PUSH2 0x1B0E JUMP JUMPDEST SWAP3 SWAP2 POP POP JUMP JUMPDEST PUSH0 DUP1 PUSH0 DUP1 PUSH1 0x80 DUP6 DUP8 SUB SLT ISZERO PUSH2 0x1B50 JUMPI PUSH2 0x1B4F PUSH2 0x1767 JUMP JUMPDEST JUMPDEST PUSH0 PUSH2 0x1B5D DUP8 DUP3 DUP9 ADD PUSH2 0x178E JUMP JUMPDEST SWAP5 POP POP PUSH1 0x20 PUSH2 0x1B6E DUP8 DUP3 DUP9 ADD PUSH2 0x1880 JUMP JUMPDEST SWAP4 POP POP PUSH1 0x40 PUSH2 0x1B7F DUP8 DUP3 DUP9 ADD PUSH2 0x178E JUMP JUMPDEST SWAP3 POP POP PUSH1 0x60 PUSH2 0x1B90 DUP8 DUP3 DUP9 ADD PUSH2 0x1B24 JUMP JUMPDEST SWAP2 POP POP SWAP3 SWAP6 SWAP2 SWAP5 POP SWAP3 POP JUMP JUMPDEST PUSH0 DUP1 PUSH0 PUSH1 0x60 DUP5 DUP7 SUB SLT ISZERO PUSH2 0x1BB3 JUMPI PUSH2 0x1BB2 PUSH2 0x1767 JUMP JUMPDEST JUMPDEST PUSH0 PUSH2 0x1BC0 DUP7 DUP3 DUP8 ADD PUSH2 0x178E JUMP JUMPDEST SWAP4 POP POP PUSH1 0x20 PUSH2 0x1BD1 DUP7 DUP3 DUP8 ADD PUSH2 0x178E JUMP JUMPDEST SWAP3 POP POP PUSH1 0x40 PUSH2 0x1BE2 DUP7 DUP3 DUP8 ADD PUSH2 0x1880 JUMP JUMPDEST SWAP2 POP POP SWAP3 POP SWAP3 POP SWAP3 JUMP JUMPDEST PUSH0 PUSH1 0xFF DUP3 AND SWAP1 POP SWAP2 SWAP1 POP JUMP JUMPDEST PUSH2 0x1C01 DUP2 PUSH2 0x1BEC JUMP JUMPDEST DUP2 EQ PUSH2 0x1C0B JUMPI PUSH0 DUP1 REVERT JUMPDEST POP JUMP JUMPDEST PUSH0 DUP2 CALLDATALOAD SWAP1 POP PUSH2 0x1C1C DUP2 PUSH2 0x1BF8 JUMP JUMPDEST SWAP3 SWAP2 POP POP JUMP JUMPDEST PUSH0 DUP2 SWAP1 POP SWAP2 SWAP1 POP JUMP JUMPDEST PUSH2 0x1C34 DUP2 PUSH2 0x1C22 JUMP JUMPDEST DUP2 EQ PUSH2 0x1C3E JUMPI PUSH0 DUP1 REVERT JUMPDEST POP JUMP JUMPDEST PUSH0 DUP2 CALLDATALOAD SWAP1 POP PUSH2 0x1C4F DUP2 PUSH2 0x1C2B JUMP JUMPDEST SWAP3 SWAP2 POP POP JUMP JUMPDEST PUSH0 DUP1 PUSH0 DUP1 PUSH0 DUP1 PUSH1 0xC0 DUP8 DUP10 SUB SLT ISZERO PUSH2 0x1C6F JUMPI PUSH2 0x1C6E PUSH2 0x1767 JUMP JUMPDEST JUMPDEST PUSH0 PUSH2 0x1C7C DUP10 DUP3 DUP11 ADD PUSH2 0x178E JUMP JUMPDEST SWAP7 POP POP PUSH1 0x20 PUSH2 0x1C8D DUP10 DUP3 DUP11 ADD PUSH2 0x178E JUMP JUMPDEST SWAP6 POP POP PUSH1 0x40 PUSH2 0x1C9E DUP10 DUP3 DUP11 ADD PUSH2 0x178E JUMP JUMPDEST SWAP5 POP POP PUSH1 0x60 PUSH2 0x1CAF DUP10 DUP3 DUP11 ADD PUSH2 0x1C0E JUMP JUMPDEST SWAP4 POP POP PUSH1 0x80 PUSH2 0x1CC0 DUP10 DUP3 DUP11 ADD PUSH2 0x1C41 JUMP JUMPDEST SWAP3 POP POP PUSH1 0xA0 PUSH2 0x1CD1 DUP10 DUP3 DUP11 ADD PUSH2 0x1C41 JUMP JUMPDEST SWAP2 POP POP SWAP3 SWAP6 POP SWAP3 SWAP6 POP SWAP3 SWAP6 JUMP JUMPDEST PUSH2 0x1CE7 DUP2 PUSH2 0x1A48 JUMP JUMPDEST DUP2 EQ PUSH2 0x1CF1 JUMPI PUSH0 DUP1 REVERT JUMPDEST POP JUMP JUMPDEST PUSH0 DUP2 CALLDATALOAD SWAP1 POP PUSH2 0x1D02 DUP2 PUSH2 0x1CDE JUMP JUMPDEST SWAP3 SWAP2 POP POP JUMP JUMPDEST PUSH0 PUSH1 0x20 DUP3 DUP5 SUB SLT ISZERO PUSH2 0x1D1D JUMPI PUSH2 0x1D1C PUSH2 0x1767 JUMP JUMPDEST JUMPDEST PUSH0 PUSH2 0x1D2A DUP5 DUP3 DUP6 ADD PUSH2 0x1CF4 JUMP JUMPDEST SWAP2 POP POP SWAP3 SWAP2 POP POP JUMP JUMPDEST PUSH0 PUSH1 0x20 DUP3 DUP5 SUB SLT ISZERO PUSH2 0x1D48 JUMPI PUSH2 0x1D47 PUSH2 0x1767 JUMP JUMPDEST JUMPDEST PUSH0 PUSH2 0x1D55 DUP5 DUP3 DUP6 ADD PUSH2 0x1880 JUMP JUMPDEST SWAP2 POP POP SWAP3 SWAP2 POP POP JUMP JUMPDEST PUSH0 DUP2 MLOAD SWAP1 POP PUSH2 0x1D6C DUP2 PUSH2 0x1778 JUMP JUMPDEST SWAP3 SWAP2 POP POP JUMP JUMPDEST PUSH0 PUSH1 0x20 DUP3 DUP5 SUB SLT ISZERO PUSH2 0x1D87 JUMPI PUSH2 0x1D86 PUSH2 0x1767 JUMP JUMPDEST JUMPDEST PUSH0 PUSH2 0x1D94 DUP5 DUP3 DUP6 ADD PUSH2 0x1D5E JUMP JUMPDEST SWAP2 POP POP SWAP3 SWAP2 POP POP JUMP JUMPDEST PUSH0 DUP2 SWAP1 POP SWAP2 SWAP1 POP JUMP JUMPDEST PUSH0 PUSH2 0x1DC0 PUSH2 0x1DBB PUSH2 0x1DB6 DUP5 PUSH2 0x1D9D JUMP JUMPDEST PUSH2 0x1A81 JUMP JUMPDEST PUSH2 0x176F JUMP JUMPDEST SWAP1 POP SWAP2 SWAP1 POP JUMP JUMPDEST PUSH2 0x1DD0 DUP2 PUSH2 0x1DA6 JUMP JUMPDEST DUP3 MSTORE POP POP JUMP JUMPDEST PUSH0 PUSH1 0x40 DUP3 ADD SWAP1 POP PUSH2 0x1DE9 PUSH0 DUP4 ADD DUP6 PUSH2 0x17FD JUMP JUMPDEST PUSH2 0x1DF6 PUSH1 0x20 DUP4 ADD DUP5 PUSH2 0x1DC7 JUMP JUMPDEST SWAP4 SWAP3 POP POP POP JUMP JUMPDEST PUSH0 PUSH1 0x60 DUP3 ADD SWAP1 POP PUSH2 0x1E10 PUSH0 DUP4 ADD DUP7 PUSH2 0x17FD JUMP JUMPDEST PUSH2 0x1E1D PUSH1 0x20 DUP4 ADD DUP6 PUSH2 0x17FD JUMP JUMPDEST PUSH2 0x1E2A PUSH1 0x40 DUP4 ADD DUP5 PUSH2 0x180C JUMP JUMPDEST SWAP5 SWAP4 POP POP POP POP JUMP JUMPDEST PUSH32 0x4E487B7100000000000000000000000000000000000000000000000000000000 PUSH0 MSTORE PUSH1 0x11 PUSH1 0x4 MSTORE PUSH1 0x24 PUSH0 REVERT JUMPDEST PUSH0 PUSH2 0x1E69 DUP3 PUSH2 0x176F JUMP JUMPDEST SWAP2 POP PUSH32 0xFFFFFFFFFFFFFFFFFFFFFFFFFFFFFFFFFFFFFFFFFFFFFFFFFFFFFFFFFFFFFFFF DUP3 SUB PUSH2 0x1E9B JUMPI PUSH2 0x1E9A PUSH2 0x1E32 JUMP JUMPDEST JUMPDEST PUSH1 0x1 DUP3 ADD SWAP1 POP SWAP2 SWAP1 POP JUMP JUMPDEST PUSH0 PUSH1 0x40 DUP3 ADD SWAP1 POP PUSH2 0x1EB9 PUSH0 DUP4 ADD DUP6 PUSH2 0x17FD JUMP JUMPDEST PUSH2 0x1EC6 PUSH1 0x20 DUP4 ADD DUP5 PUSH2 0x180C JUMP JUMPDEST SWAP4 SWAP3 POP POP POP JUMP JUMPDEST PUSH0 DUP2 MLOAD SWAP1 POP PUSH2 0x1EDB DUP2 PUSH2 0x1B0E JUMP JUMPDEST SWAP3 SWAP2 POP POP JUMP JUMPDEST PUSH0 PUSH1 0x20 DUP3 DUP5 SUB SLT ISZERO PUSH2 0x1EF6 JUMPI PUSH2 0x1EF5 PUSH2 0x1767 JUMP JUMPDEST JUMPDEST PUSH0 PUSH2 0x1F03 DUP5 DUP3 DUP6 ADD PUSH2 0x1ECD JUMP JUMPDEST SWAP2 POP POP SWAP3 SWAP2 POP POP JUMP JUMPDEST PUSH0 DUP3 DUP3 MSTORE PUSH1 0x20 DUP3 ADD SWAP1 POP SWAP3 SWAP2 POP POP JUMP JUMPDEST PUSH32 0x7065726D69742076616C7565206D69736D617463680000000000000000000000 PUSH0 DUP3 ADD MSTORE POP JUMP JUMPDEST PUSH0 PUSH2 0x1F50 PUSH1 0x15 DUP4 PUSH2 0x1F0C JUMP JUMPDEST SWAP2 POP PUSH2 0x1F5B DUP3 PUSH2 0x1F1C JUMP JUMPDEST PUSH1 0x20 DUP3 ADD SWAP1 POP SWAP2 SWAP1 POP JUMP JUMPDEST PUSH0 PUSH1 0x20 DUP3 ADD SWAP1 POP DUP2 DUP2 SUB PUSH0 DUP4 ADD MSTORE PUSH2 0x1F7D DUP2 PUSH2 0x1F44 JUMP JUMPDEST SWAP1 POP SWAP2 SWAP1 POP JUMP JUMPDEST PUSH2 0x1F8D DUP2 PUSH2 0x1BEC JUMP JUMPDEST DUP3 MSTORE POP POP JUMP JUMPDEST PUSH2 0x1F9C DUP2 PUSH2 0x1C22 JUMP JUMPDEST DUP3 MSTORE POP POP JUMP JUMPDEST PUSH0 PUSH1 0xE0 DUP3 ADD SWAP1 POP PUSH2 0x1FB5 PUSH0 DUP4 ADD DUP11 PUSH2 0x17FD JUMP JUMPDEST PUSH2 0x1FC2 PUSH1 0x20 DUP4 ADD DUP10 PUSH2 0x17FD JUMP JUMPDEST PUSH2 0x1FCF PUSH1 0x40 DUP4 ADD DUP9 PUSH2 0x180C JUMP JUMPDEST PUSH2 0x1FDC PUSH1 0x60 DUP4 ADD DUP8 PUSH2 0x180C JUMP JUMPDEST PUSH2 0x1FE9 PUSH1 0x80 DUP4 ADD DUP7 PUSH2 0x1F84 JUMP JUMPDEST PUSH2 0x1FF6 PUSH1 0xA0 DUP4 ADD DUP6 PUSH2 0x1F93 JUMP JUMPDEST PUSH2 0x2003 PUSH1 0xC0 DUP4 ADD DUP5 PUSH2 0x1F93 JUMP JUMPDEST SWAP9 SWAP8 POP POP POP POP POP POP POP POP JUMP JUMPDEST PUSH32 0x5265656E7472616E637947756172643A207265656E7472616E742063616C6C00 PUSH0 DUP3 ADD MSTORE POP JUMP JUMPDEST PUSH0 PUSH2 0x2043 PUSH1 0x1F DUP4 PUSH2 0x1F0C JUMP JUMPDEST SWAP2 POP PUSH2 0x204E DUP3 PUSH2 0x200F JUMP JUMPDEST PUSH1 0x20 DUP3 ADD SWAP1 POP SWAP2 SWAP1 POP JUMP JUMPDEST PUSH0 PUSH1 0x20 DUP3 ADD SWAP1 POP DUP2 DUP2 SUB PUSH0 DUP4 ADD MSTORE PUSH2 0x2070 DUP2 PUSH2 0x2037 JUMP JUMPDEST SWAP1 POP SWAP2 SWAP1 POP JUMP INVALID LOG2 PUSH5 0x6970667358 0x22 SLT KECCAK256 CREATE2 PUSH16 0x18D549C583EB6204AEE8F3278D13B90F 0xEC RETURNDATACOPY DELEGATECALL XOR 0xE7 SUB 0xE0 0xA6 0xCB 0xB2 SWAP14 0xA6 PUSH0 0x2C PUSH5 0x736F6C6343 STOP ADDMOD EQ STOP CALLER "
				},
				"gasEstimates": {
					"creation": {
						"codeDepositCost": "1673000",
						"executionCost": "infinite",
						"totalCost": "infinite"
					},
					"external": {
						"USDC()": "infinite",
						"buyWithUSDC(uint256)": "infinite",
						"buyWithUSDCPermit(uint256,uint256,uint256,uint8,bytes32,bytes32)": "infinite",
						"onERC721Received(address,address,uint256,bytes)": "infinite",
						"owner()": "2538",
						"renounceOwnership()": "infinite",
						"setTier(uint256,address,uint256,bool)": "infinite",
						"setTreasury(address)": "infinite",
						"sweepERC20(address,address)": "infinite",
						"tiers(uint256)": "infinite",
						"transferOwnership(address)": "infinite",
						"treasury()": "2553",
						"withdrawAll(uint256,address)": "infinite",
						"withdrawN(uint256,uint256,address)": "infinite",
						"withdrawNFT(uint256,uint256,address)": "infinite"
					},
					"internal": {
						"_nextToken(address)": "infinite"
					}
				},
				"methodIdentifiers": {
					"USDC()": "89a30271",
					"buyWithUSDC(uint256)": "aeccf735",
					"buyWithUSDCPermit(uint256,uint256,uint256,uint8,bytes32,bytes32)": "bb6416ae",
					"onERC721Received(address,address,uint256,bytes)": "150b7a02",
					"owner()": "8da5cb5b",
					"renounceOwnership()": "715018a6",
					"setTier(uint256,address,uint256,bool)": "9079b243",
					"setTreasury(address)": "f0f44260",
					"sweepERC20(address,address)": "582515c7",
					"tiers(uint256)": "039af9eb",
					"transferOwnership(address)": "f2fde38b",
					"treasury()": "61d027b3",
					"withdrawAll(uint256,address)": "4c2233a5",
					"withdrawN(uint256,uint256,address)": "ddd32898",
					"withdrawNFT(uint256,uint256,address)": "9c66fb7e"
				}
			},
			"storageLayout": {
				"storage": [
					{
						"astId": 248,
						"contract": "contracts/BadSammyNFTStore.sol:BadSammyNFTStore",
						"label": "_status",
						"offset": 0,
						"slot": "0",
						"type": "t_uint256"
					},
					{
						"astId": 8,
						"contract": "contracts/BadSammyNFTStore.sol:BadSammyNFTStore",
						"label": "_owner",
						"offset": 0,
						"slot": "1",
						"type": "t_address"
					},
					{
						"astId": 1122,
						"contract": "contracts/BadSammyNFTStore.sol:BadSammyNFTStore",
						"label": "tiers",
						"offset": 0,
						"slot": "2",
						"type": "t_mapping(t_uint256,t_struct(Tier)1117_storage)"
					},
					{
						"astId": 1124,
						"contract": "contracts/BadSammyNFTStore.sol:BadSammyNFTStore",
						"label": "treasury",
						"offset": 0,
						"slot": "3",
						"type": "t_address_payable"
					}
				],
				"types": {
					"t_address": {
						"encoding": "inplace",
						"label": "address",
						"numberOfBytes": "20"
					},
					"t_address_payable": {
						"encoding": "inplace",
						"label": "address payable",
						"numberOfBytes": "20"
					},
					"t_bool": {
						"encoding": "inplace",
						"label": "bool",
						"numberOfBytes": "1"
					},
					"t_mapping(t_uint256,t_struct(Tier)1117_storage)": {
						"encoding": "mapping",
						"key": "t_uint256",
						"label": "mapping(uint256 => struct BadSammyNFTStore.Tier)",
						"numberOfBytes": "32",
						"value": "t_struct(Tier)1117_storage"
					},
					"t_struct(Tier)1117_storage": {
						"encoding": "inplace",
						"label": "struct BadSammyNFTStore.Tier",
						"members": [
							{
								"astId": 1112,
								"contract": "contracts/BadSammyNFTStore.sol:BadSammyNFTStore",
								"label": "nft",
								"offset": 0,
								"slot": "0",
								"type": "t_address"
							},
							{
								"astId": 1114,
								"contract": "contracts/BadSammyNFTStore.sol:BadSammyNFTStore",
								"label": "priceUsdc",
								"offset": 0,
								"slot": "1",
								"type": "t_uint256"
							},
							{
								"astId": 1116,
								"contract": "contracts/BadSammyNFTStore.sol:BadSammyNFTStore",
								"label": "enabled",
								"offset": 0,
								"slot": "2",
								"type": "t_bool"
							}
						],
						"numberOfBytes": "96"
					},
					"t_uint256": {
						"encoding": "inplace",
						"label": "uint256",
						"numberOfBytes": "32"
					}
				}
			},
			"userdoc": {
				"kind": "user",
				"methods": {},
				"notice": "BadSammyNFTStore (USDC-ONLY MODE) ETH purchasing & price conversion have been commented out. This is a simplified version for launch using ONLY USDC.",
				"version": 1
			}
		}
	}
}