{
	"contracts/BadSammyNFTStore.sol": {
		"BadSammyNFTStore": {
			"abi": [
				{
					"inputs": [
						{
							"internalType": "address",
							"name": "initialOwner",
							"type": "address"
						},
						{
							"internalType": "address payable",
							"name": "_treasury",
							"type": "address"
						},
						{
							"internalType": "address",
							"name": "usdc",
							"type": "address"
						}
					],
					"stateMutability": "nonpayable",
					"type": "constructor"
				},
				{
					"inputs": [],
					"name": "InvalidTier",
					"type": "error"
				},
				{
					"inputs": [
						{
							"internalType": "address",
							"name": "owner",
							"type": "address"
						}
					],
					"name": "OwnableInvalidOwner",
					"type": "error"
				},
				{
					"inputs": [
						{
							"internalType": "address",
							"name": "account",
							"type": "address"
						}
					],
					"name": "OwnableUnauthorizedAccount",
					"type": "error"
				},
				{
					"inputs": [],
					"name": "PaymentIncorrect",
					"type": "error"
				},
				{
					"inputs": [
						{
							"internalType": "address",
							"name": "token",
							"type": "address"
						}
					],
					"name": "SafeERC20FailedOperation",
					"type": "error"
				},
				{
					"inputs": [],
					"name": "SoldOut",
					"type": "error"
				},
				{
					"inputs": [],
					"name": "TierDisabled",
					"type": "error"
				},
				{
					"inputs": [],
					"name": "ZeroAddress",
					"type": "error"
				},
				{
					"anonymous": false,
					"inputs": [
						{
							"indexed": true,
							"internalType": "address",
							"name": "previousOwner",
							"type": "address"
						},
						{
							"indexed": true,
							"internalType": "address",
							"name": "newOwner",
							"type": "address"
						}
					],
					"name": "OwnershipTransferred",
					"type": "event"
				},
				{
					"inputs": [],
					"name": "USDC",
					"outputs": [
						{
							"internalType": "contract IERC20",
							"name": "",
							"type": "address"
						}
					],
					"stateMutability": "view",
					"type": "function"
				},
				{
					"inputs": [
						{
							"internalType": "uint256",
							"name": "tierId",
							"type": "uint256"
						}
					],
					"name": "buyWithETH",
					"outputs": [],
					"stateMutability": "payable",
					"type": "function"
				},
				{
					"inputs": [
						{
							"internalType": "uint256",
							"name": "tierId",
							"type": "uint256"
						}
					],
					"name": "buyWithUSDC",
					"outputs": [],
					"stateMutability": "nonpayable",
					"type": "function"
				},
				{
					"inputs": [
						{
							"internalType": "uint256",
							"name": "tierId",
							"type": "uint256"
						},
						{
							"internalType": "uint256",
							"name": "value",
							"type": "uint256"
						},
						{
							"internalType": "uint256",
							"name": "deadline",
							"type": "uint256"
						},
						{
							"internalType": "uint8",
							"name": "v",
							"type": "uint8"
						},
						{
							"internalType": "bytes32",
							"name": "r",
							"type": "bytes32"
						},
						{
							"internalType": "bytes32",
							"name": "s",
							"type": "bytes32"
						}
					],
					"name": "buyWithUSDCPermit",
					"outputs": [],
					"stateMutability": "nonpayable",
					"type": "function"
				},
				{
					"inputs": [
						{
							"internalType": "address",
							"name": "",
							"type": "address"
						},
						{
							"internalType": "address",
							"name": "",
							"type": "address"
						},
						{
							"internalType": "uint256",
							"name": "",
							"type": "uint256"
						},
						{
							"internalType": "bytes",
							"name": "",
							"type": "bytes"
						}
					],
					"name": "onERC721Received",
					"outputs": [
						{
							"internalType": "bytes4",
							"name": "",
							"type": "bytes4"
						}
					],
					"stateMutability": "pure",
					"type": "function"
				},
				{
					"inputs": [],
					"name": "owner",
					"outputs": [
						{
							"internalType": "address",
							"name": "",
							"type": "address"
						}
					],
					"stateMutability": "view",
					"type": "function"
				},
				{
					"inputs": [],
					"name": "renounceOwnership",
					"outputs": [],
					"stateMutability": "nonpayable",
					"type": "function"
				},
				{
					"inputs": [
						{
							"internalType": "uint256",
							"name": "tierId",
							"type": "uint256"
						},
						{
							"internalType": "address",
							"name": "nftAddress",
							"type": "address"
						},
						{
							"internalType": "uint256",
							"name": "priceEthWei",
							"type": "uint256"
						},
						{
							"internalType": "uint256",
							"name": "priceUsdcUnits",
							"type": "uint256"
						},
						{
							"internalType": "bool",
							"name": "enabled",
							"type": "bool"
						}
					],
					"name": "setTier",
					"outputs": [],
					"stateMutability": "nonpayable",
					"type": "function"
				},
				{
					"inputs": [
						{
							"internalType": "address payable",
							"name": "_treasury",
							"type": "address"
						}
					],
					"name": "setTreasury",
					"outputs": [],
					"stateMutability": "nonpayable",
					"type": "function"
				},
				{
					"inputs": [
						{
							"internalType": "address",
							"name": "token",
							"type": "address"
						},
						{
							"internalType": "address",
							"name": "to",
							"type": "address"
						}
					],
					"name": "sweepERC20",
					"outputs": [],
					"stateMutability": "nonpayable",
					"type": "function"
				},
				{
					"inputs": [
						{
							"internalType": "uint256",
							"name": "",
							"type": "uint256"
						}
					],
					"name": "tiers",
					"outputs": [
						{
							"internalType": "address",
							"name": "nft",
							"type": "address"
						},
						{
							"internalType": "uint256",
							"name": "priceEth",
							"type": "uint256"
						},
						{
							"internalType": "uint256",
							"name": "priceUsdc",
							"type": "uint256"
						},
						{
							"internalType": "bool",
							"name": "enabled",
							"type": "bool"
						}
					],
					"stateMutability": "view",
					"type": "function"
				},
				{
					"inputs": [
						{
							"internalType": "address",
							"name": "newOwner",
							"type": "address"
						}
					],
					"name": "transferOwnership",
					"outputs": [],
					"stateMutability": "nonpayable",
					"type": "function"
				},
				{
					"inputs": [],
					"name": "treasury",
					"outputs": [
						{
							"internalType": "address payable",
							"name": "",
							"type": "address"
						}
					],
					"stateMutability": "view",
					"type": "function"
				},
				{
					"inputs": [
						{
							"internalType": "uint256",
							"name": "tierId",
							"type": "uint256"
						},
						{
							"internalType": "address",
							"name": "to",
							"type": "address"
						}
					],
					"name": "withdrawAll",
					"outputs": [],
					"stateMutability": "nonpayable",
					"type": "function"
				},
				{
					"inputs": [
						{
							"internalType": "uint256",
							"name": "tierId",
							"type": "uint256"
						},
						{
							"internalType": "uint256",
							"name": "quantity",
							"type": "uint256"
						},
						{
							"internalType": "address",
							"name": "to",
							"type": "address"
						}
					],
					"name": "withdrawN",
					"outputs": [],
					"stateMutability": "nonpayable",
					"type": "function"
				},
				{
					"inputs": [
						{
							"internalType": "uint256",
							"name": "tierId",
							"type": "uint256"
						},
						{
							"internalType": "uint256",
							"name": "tokenId",
							"type": "uint256"
						},
						{
							"internalType": "address",
							"name": "to",
							"type": "address"
						}
					],
					"name": "withdrawNFT",
					"outputs": [],
					"stateMutability": "nonpayable",
					"type": "function"
				},
				{
					"inputs": [
						{
							"internalType": "uint256",
							"name": "tierId",
							"type": "uint256"
						},
						{
							"internalType": "uint256",
							"name": "startTokenId",
							"type": "uint256"
						},
						{
							"internalType": "uint256",
							"name": "endTokenId",
							"type": "uint256"
						},
						{
							"internalType": "address",
							"name": "to",
							"type": "address"
						}
					],
					"name": "withdrawRange",
					"outputs": [],
					"stateMutability": "nonpayable",
					"type": "function"
				},
				{
					"stateMutability": "payable",
					"type": "receive"
				}
			],
			"devdoc": {
				"errors": {
					"OwnableInvalidOwner(address)": [
						{
							"details": "The owner is not a valid owner account. (eg. `address(0)`)"
						}
					],
					"OwnableUnauthorizedAccount(address)": [
						{
							"details": "The caller account is not authorized to perform an operation."
						}
					],
					"SafeERC20FailedOperation(address)": [
						{
							"details": "An operation with an ERC-20 token failed."
						}
					]
				},
				"kind": "dev",
				"methods": {
					"owner()": {
						"details": "Returns the address of the current owner."
					},
					"renounceOwnership()": {
						"details": "Leaves the contract without owner. It will not be possible to call `onlyOwner` functions. Can only be called by the current owner. NOTE: Renouncing ownership will leave the contract without an owner, thereby disabling any functionality that is only available to the owner."
					},
					"transferOwnership(address)": {
						"details": "Transfers ownership of the contract to a new account (`newOwner`). Can only be called by the current owner."
					}
				},
				"version": 1
			},
			"evm": {
				"assembly": "    /* \"contracts/BadSammyNFTStore.sol\":929:7488  contract BadSammyNFTStore is ReentrancyGuard, Ownable, IERC721Receiver {... */\n  mstore(0x40, 0xa0)\n    /* \"contracts/BadSammyNFTStore.sol\":1559:1815  constructor(address initialOwner, address payable _treasury, address usdc)... */\n  callvalue\n  dup1\n  iszero\n  tag_1\n  jumpi\n  revert(0x00, 0x00)\ntag_1:\n  pop\n  mload(0x40)\n  sub(codesize, bytecodeSize)\n  dup1\n  bytecodeSize\n  dup4\n  codecopy\n  dup2\n  dup2\n  add\n  0x40\n  mstore\n  dup2\n  add\n  swap1\n  tag_2\n  swap2\n  swap1\n  tag_3\n  jump\t// in\ntag_2:\n    /* \"contracts/BadSammyNFTStore.sol\":1650:1662  initialOwner */\n  dup3\n    /* \"@openzeppelin/contracts/security/ReentrancyGuard.sol\":1716:1717  1 */\n  0x01\n    /* \"@openzeppelin/contracts/security/ReentrancyGuard.sol\":1821:1828  _status */\n  0x00\n    /* \"@openzeppelin/contracts/security/ReentrancyGuard.sol\":1821:1843  _status = _NOT_ENTERED */\n  dup2\n  swap1\n  sstore\n  pop\n    /* \"@openzeppelin/contracts/access/Ownable.sol\":1297:1298  0 */\n  0x00\n    /* \"@openzeppelin/contracts/access/Ownable.sol\":1273:1299  initialOwner == address(0) */\n  0xffffffffffffffffffffffffffffffffffffffff\n  and\n    /* \"@openzeppelin/contracts/access/Ownable.sol\":1273:1285  initialOwner */\n  dup2\n    /* \"@openzeppelin/contracts/access/Ownable.sol\":1273:1299  initialOwner == address(0) */\n  0xffffffffffffffffffffffffffffffffffffffff\n  and\n  sub\n    /* \"@openzeppelin/contracts/access/Ownable.sol\":1269:1364  if (initialOwner == address(0)) {... */\n  tag_9\n  jumpi\n    /* \"@openzeppelin/contracts/access/Ownable.sol\":1350:1351  0 */\n  0x00\n    /* \"@openzeppelin/contracts/access/Ownable.sol\":1322:1353  OwnableInvalidOwner(address(0)) */\n  mload(0x40)\n  0x1e4fbdf700000000000000000000000000000000000000000000000000000000\n  dup2\n  mstore\n  0x04\n  add\n  tag_10\n  swap2\n  swap1\n  tag_11\n  jump\t// in\ntag_10:\n  mload(0x40)\n  dup1\n  swap2\n  sub\n  swap1\n  revert\n    /* \"@openzeppelin/contracts/access/Ownable.sol\":1269:1364  if (initialOwner == address(0)) {... */\ntag_9:\n    /* \"@openzeppelin/contracts/access/Ownable.sol\":1373:1405  _transferOwnership(initialOwner) */\n  tag_12\n    /* \"@openzeppelin/contracts/access/Ownable.sol\":1392:1404  initialOwner */\n  dup2\n    /* \"@openzeppelin/contracts/access/Ownable.sol\":1373:1391  _transferOwnership */\n  shl(0x20, tag_13)\n    /* \"@openzeppelin/contracts/access/Ownable.sol\":1373:1405  _transferOwnership(initialOwner) */\n  0x20\n  shr\n  jump\t// in\ntag_12:\n    /* \"@openzeppelin/contracts/access/Ownable.sol\":1225:1412  constructor(address initialOwner) {... */\n  pop\n    /* \"contracts/BadSammyNFTStore.sol\":1703:1704  0 */\n  0x00\n    /* \"contracts/BadSammyNFTStore.sol\":1682:1705  _treasury == address(0) */\n  0xffffffffffffffffffffffffffffffffffffffff\n  and\n    /* \"contracts/BadSammyNFTStore.sol\":1682:1691  _treasury */\n  dup3\n    /* \"contracts/BadSammyNFTStore.sol\":1682:1705  _treasury == address(0) */\n  0xffffffffffffffffffffffffffffffffffffffff\n  and\n  eq\n    /* \"contracts/BadSammyNFTStore.sol\":1682:1727  _treasury == address(0) || usdc == address(0) */\n  dup1\n  tag_15\n  jumpi\n  pop\n    /* \"contracts/BadSammyNFTStore.sol\":1725:1726  0 */\n  0x00\n    /* \"contracts/BadSammyNFTStore.sol\":1709:1727  usdc == address(0) */\n  0xffffffffffffffffffffffffffffffffffffffff\n  and\n    /* \"contracts/BadSammyNFTStore.sol\":1709:1713  usdc */\n  dup2\n    /* \"contracts/BadSammyNFTStore.sol\":1709:1727  usdc == address(0) */\n  0xffffffffffffffffffffffffffffffffffffffff\n  and\n  eq\n    /* \"contracts/BadSammyNFTStore.sol\":1682:1727  _treasury == address(0) || usdc == address(0) */\ntag_15:\n    /* \"contracts/BadSammyNFTStore.sol\":1678:1749  if (_treasury == address(0) || usdc == address(0)) revert ZeroAddress() */\n  iszero\n  tag_16\n  jumpi\n    /* \"contracts/BadSammyNFTStore.sol\":1736:1749  ZeroAddress() */\n  mload(0x40)\n  0xd92e233d00000000000000000000000000000000000000000000000000000000\n  dup2\n  mstore\n  0x04\n  add\n  mload(0x40)\n  dup1\n  swap2\n  sub\n  swap1\n  revert\n    /* \"contracts/BadSammyNFTStore.sol\":1678:1749  if (_treasury == address(0) || usdc == address(0)) revert ZeroAddress() */\ntag_16:\n    /* \"contracts/BadSammyNFTStore.sol\":1770:1779  _treasury */\n  dup2\n    /* \"contracts/BadSammyNFTStore.sol\":1759:1767  treasury */\n  0x03\n  0x00\n    /* \"contracts/BadSammyNFTStore.sol\":1759:1779  treasury = _treasury */\n  0x0100\n  exp\n  dup2\n  sload\n  dup2\n  0xffffffffffffffffffffffffffffffffffffffff\n  mul\n  not\n  and\n  swap1\n  dup4\n  0xffffffffffffffffffffffffffffffffffffffff\n  and\n  mul\n  or\n  swap1\n  sstore\n  pop\n    /* \"contracts/BadSammyNFTStore.sol\":1803:1807  usdc */\n  dup1\n    /* \"contracts/BadSammyNFTStore.sol\":1789:1808  USDC = IERC20(usdc) */\n  0xffffffffffffffffffffffffffffffffffffffff\n  and\n  0x80\n  dup2\n  0xffffffffffffffffffffffffffffffffffffffff\n  and\n  dup2\n  mstore\n  pop\n  pop\n    /* \"contracts/BadSammyNFTStore.sol\":1559:1815  constructor(address initialOwner, address payable _treasury, address usdc)... */\n  pop\n  pop\n  pop\n    /* \"contracts/BadSammyNFTStore.sol\":929:7488  contract BadSammyNFTStore is ReentrancyGuard, Ownable, IERC721Receiver {... */\n  jump(tag_17)\n    /* \"@openzeppelin/contracts/access/Ownable.sol\":2912:3099  function _transferOwnership(address newOwner) internal virtual {... */\ntag_13:\n    /* \"@openzeppelin/contracts/access/Ownable.sol\":2985:3001  address oldOwner */\n  0x00\n    /* \"@openzeppelin/contracts/access/Ownable.sol\":3004:3010  _owner */\n  0x01\n  0x00\n  swap1\n  sload\n  swap1\n  0x0100\n  exp\n  swap1\n  div\n  0xffffffffffffffffffffffffffffffffffffffff\n  and\n    /* \"@openzeppelin/contracts/access/Ownable.sol\":2985:3010  address oldOwner = _owner */\n  swap1\n  pop\n    /* \"@openzeppelin/contracts/access/Ownable.sol\":3029:3037  newOwner */\n  dup2\n    /* \"@openzeppelin/contracts/access/Ownable.sol\":3020:3026  _owner */\n  0x01\n  0x00\n    /* \"@openzeppelin/contracts/access/Ownable.sol\":3020:3037  _owner = newOwner */\n  0x0100\n  exp\n  dup2\n  sload\n  dup2\n  0xffffffffffffffffffffffffffffffffffffffff\n  mul\n  not\n  and\n  swap1\n  dup4\n  0xffffffffffffffffffffffffffffffffffffffff\n  and\n  mul\n  or\n  swap1\n  sstore\n  pop\n    /* \"@openzeppelin/contracts/access/Ownable.sol\":3083:3091  newOwner */\n  dup2\n    /* \"@openzeppelin/contracts/access/Ownable.sol\":3052:3092  OwnershipTransferred(oldOwner, newOwner) */\n  0xffffffffffffffffffffffffffffffffffffffff\n  and\n    /* \"@openzeppelin/contracts/access/Ownable.sol\":3073:3081  oldOwner */\n  dup2\n    /* \"@openzeppelin/contracts/access/Ownable.sol\":3052:3092  OwnershipTransferred(oldOwner, newOwner) */\n  0xffffffffffffffffffffffffffffffffffffffff\n  and\n  0x8be0079c531659141344cd1fd0a4f28419497f9722a3daafe3b4186f6b6457e0\n  mload(0x40)\n  mload(0x40)\n  dup1\n  swap2\n  sub\n  swap1\n  log3\n    /* \"@openzeppelin/contracts/access/Ownable.sol\":2975:3099  {... */\n  pop\n    /* \"@openzeppelin/contracts/access/Ownable.sol\":2912:3099  function _transferOwnership(address newOwner) internal virtual {... */\n  pop\n  jump\t// out\n    /* \"#utility.yul\":88:205   */\ntag_20:\n    /* \"#utility.yul\":197:198   */\n  0x00\n    /* \"#utility.yul\":194:195   */\n  0x00\n    /* \"#utility.yul\":187:199   */\n  revert\n    /* \"#utility.yul\":334:460   */\ntag_22:\n    /* \"#utility.yul\":371:378   */\n  0x00\n    /* \"#utility.yul\":411:453   */\n  0xffffffffffffffffffffffffffffffffffffffff\n    /* \"#utility.yul\":404:409   */\n  dup3\n    /* \"#utility.yul\":400:454   */\n  and\n    /* \"#utility.yul\":389:454   */\n  swap1\n  pop\n    /* \"#utility.yul\":334:460   */\n  swap2\n  swap1\n  pop\n  jump\t// out\n    /* \"#utility.yul\":466:562   */\ntag_23:\n    /* \"#utility.yul\":503:510   */\n  0x00\n    /* \"#utility.yul\":532:556   */\n  tag_36\n    /* \"#utility.yul\":550:555   */\n  dup3\n    /* \"#utility.yul\":532:556   */\n  tag_22\n  jump\t// in\ntag_36:\n    /* \"#utility.yul\":521:556   */\n  swap1\n  pop\n    /* \"#utility.yul\":466:562   */\n  swap2\n  swap1\n  pop\n  jump\t// out\n    /* \"#utility.yul\":568:690   */\ntag_24:\n    /* \"#utility.yul\":641:665   */\n  tag_38\n    /* \"#utility.yul\":659:664   */\n  dup2\n    /* \"#utility.yul\":641:665   */\n  tag_23\n  jump\t// in\ntag_38:\n    /* \"#utility.yul\":634:639   */\n  dup2\n    /* \"#utility.yul\":631:666   */\n  eq\n    /* \"#utility.yul\":621:684   */\n  tag_39\n  jumpi\n    /* \"#utility.yul\":680:681   */\n  0x00\n    /* \"#utility.yul\":677:678   */\n  0x00\n    /* \"#utility.yul\":670:682   */\n  revert\n    /* \"#utility.yul\":621:684   */\ntag_39:\n    /* \"#utility.yul\":568:690   */\n  pop\n  jump\t// out\n    /* \"#utility.yul\":696:839   */\ntag_25:\n    /* \"#utility.yul\":753:758   */\n  0x00\n    /* \"#utility.yul\":784:790   */\n  dup2\n    /* \"#utility.yul\":778:791   */\n  mload\n    /* \"#utility.yul\":769:791   */\n  swap1\n  pop\n    /* \"#utility.yul\":800:833   */\n  tag_41\n    /* \"#utility.yul\":827:832   */\n  dup2\n    /* \"#utility.yul\":800:833   */\n  tag_24\n  jump\t// in\ntag_41:\n    /* \"#utility.yul\":696:839   */\n  swap3\n  swap2\n  pop\n  pop\n  jump\t// out\n    /* \"#utility.yul\":845:949   */\ntag_26:\n    /* \"#utility.yul\":890:897   */\n  0x00\n    /* \"#utility.yul\":919:943   */\n  tag_43\n    /* \"#utility.yul\":937:942   */\n  dup3\n    /* \"#utility.yul\":919:943   */\n  tag_22\n  jump\t// in\ntag_43:\n    /* \"#utility.yul\":908:943   */\n  swap1\n  pop\n    /* \"#utility.yul\":845:949   */\n  swap2\n  swap1\n  pop\n  jump\t// out\n    /* \"#utility.yul\":955:1093   */\ntag_27:\n    /* \"#utility.yul\":1036:1068   */\n  tag_45\n    /* \"#utility.yul\":1062:1067   */\n  dup2\n    /* \"#utility.yul\":1036:1068   */\n  tag_26\n  jump\t// in\ntag_45:\n    /* \"#utility.yul\":1029:1034   */\n  dup2\n    /* \"#utility.yul\":1026:1069   */\n  eq\n    /* \"#utility.yul\":1016:1087   */\n  tag_46\n  jumpi\n    /* \"#utility.yul\":1083:1084   */\n  0x00\n    /* \"#utility.yul\":1080:1081   */\n  0x00\n    /* \"#utility.yul\":1073:1085   */\n  revert\n    /* \"#utility.yul\":1016:1087   */\ntag_46:\n    /* \"#utility.yul\":955:1093   */\n  pop\n  jump\t// out\n    /* \"#utility.yul\":1099:1258   */\ntag_28:\n    /* \"#utility.yul\":1164:1169   */\n  0x00\n    /* \"#utility.yul\":1195:1201   */\n  dup2\n    /* \"#utility.yul\":1189:1202   */\n  mload\n    /* \"#utility.yul\":1180:1202   */\n  swap1\n  pop\n    /* \"#utility.yul\":1211:1252   */\n  tag_48\n    /* \"#utility.yul\":1246:1251   */\n  dup2\n    /* \"#utility.yul\":1211:1252   */\n  tag_27\n  jump\t// in\ntag_48:\n    /* \"#utility.yul\":1099:1258   */\n  swap3\n  swap2\n  pop\n  pop\n  jump\t// out\n    /* \"#utility.yul\":1264:1943   */\ntag_3:\n    /* \"#utility.yul\":1360:1366   */\n  0x00\n    /* \"#utility.yul\":1368:1374   */\n  0x00\n    /* \"#utility.yul\":1376:1382   */\n  0x00\n    /* \"#utility.yul\":1425:1427   */\n  0x60\n    /* \"#utility.yul\":1413:1422   */\n  dup5\n    /* \"#utility.yul\":1404:1411   */\n  dup7\n    /* \"#utility.yul\":1400:1423   */\n  sub\n    /* \"#utility.yul\":1396:1428   */\n  slt\n    /* \"#utility.yul\":1393:1512   */\n  iszero\n  tag_50\n  jumpi\n    /* \"#utility.yul\":1431:1510   */\n  tag_51\n  tag_20\n  jump\t// in\ntag_51:\n    /* \"#utility.yul\":1393:1512   */\ntag_50:\n    /* \"#utility.yul\":1551:1552   */\n  0x00\n    /* \"#utility.yul\":1576:1640   */\n  tag_52\n    /* \"#utility.yul\":1632:1639   */\n  dup7\n    /* \"#utility.yul\":1623:1629   */\n  dup3\n    /* \"#utility.yul\":1612:1621   */\n  dup8\n    /* \"#utility.yul\":1608:1630   */\n  add\n    /* \"#utility.yul\":1576:1640   */\n  tag_25\n  jump\t// in\ntag_52:\n    /* \"#utility.yul\":1566:1640   */\n  swap4\n  pop\n    /* \"#utility.yul\":1522:1650   */\n  pop\n    /* \"#utility.yul\":1689:1691   */\n  0x20\n    /* \"#utility.yul\":1715:1787   */\n  tag_53\n    /* \"#utility.yul\":1779:1786   */\n  dup7\n    /* \"#utility.yul\":1770:1776   */\n  dup3\n    /* \"#utility.yul\":1759:1768   */\n  dup8\n    /* \"#utility.yul\":1755:1777   */\n  add\n    /* \"#utility.yul\":1715:1787   */\n  tag_28\n  jump\t// in\ntag_53:\n    /* \"#utility.yul\":1705:1787   */\n  swap3\n  pop\n    /* \"#utility.yul\":1660:1797   */\n  pop\n    /* \"#utility.yul\":1836:1838   */\n  0x40\n    /* \"#utility.yul\":1862:1926   */\n  tag_54\n    /* \"#utility.yul\":1918:1925   */\n  dup7\n    /* \"#utility.yul\":1909:1915   */\n  dup3\n    /* \"#utility.yul\":1898:1907   */\n  dup8\n    /* \"#utility.yul\":1894:1916   */\n  add\n    /* \"#utility.yul\":1862:1926   */\n  tag_25\n  jump\t// in\ntag_54:\n    /* \"#utility.yul\":1852:1926   */\n  swap2\n  pop\n    /* \"#utility.yul\":1807:1936   */\n  pop\n    /* \"#utility.yul\":1264:1943   */\n  swap3\n  pop\n  swap3\n  pop\n  swap3\n  jump\t// out\n    /* \"#utility.yul\":1949:2067   */\ntag_29:\n    /* \"#utility.yul\":2036:2060   */\n  tag_56\n    /* \"#utility.yul\":2054:2059   */\n  dup2\n    /* \"#utility.yul\":2036:2060   */\n  tag_23\n  jump\t// in\ntag_56:\n    /* \"#utility.yul\":2031:2034   */\n  dup3\n    /* \"#utility.yul\":2024:2061   */\n  mstore\n    /* \"#utility.yul\":1949:2067   */\n  pop\n  pop\n  jump\t// out\n    /* \"#utility.yul\":2073:2295   */\ntag_11:\n    /* \"#utility.yul\":2166:2170   */\n  0x00\n    /* \"#utility.yul\":2204:2206   */\n  0x20\n    /* \"#utility.yul\":2193:2202   */\n  dup3\n    /* \"#utility.yul\":2189:2207   */\n  add\n    /* \"#utility.yul\":2181:2207   */\n  swap1\n  pop\n    /* \"#utility.yul\":2217:2288   */\n  tag_58\n    /* \"#utility.yul\":2285:2286   */\n  0x00\n    /* \"#utility.yul\":2274:2283   */\n  dup4\n    /* \"#utility.yul\":2270:2287   */\n  add\n    /* \"#utility.yul\":2261:2267   */\n  dup5\n    /* \"#utility.yul\":2217:2288   */\n  tag_29\n  jump\t// in\ntag_58:\n    /* \"#utility.yul\":2073:2295   */\n  swap3\n  swap2\n  pop\n  pop\n  jump\t// out\n    /* \"contracts/BadSammyNFTStore.sol\":929:7488  contract BadSammyNFTStore is ReentrancyGuard, Ownable, IERC721Receiver {... */\ntag_17:\n  mload(0x80)\n  codecopy(0x00, dataOffset(sub_0), dataSize(sub_0))\n  0x00\n  assignImmutable(\"0x7173bb0c0c341c627c9734f9095ef27b00afaca222d0fccf9d280fbad8b7c078\")\n  return(0x00, dataSize(sub_0))\nstop\n\nsub_0: assembly {\n        /* \"contracts/BadSammyNFTStore.sol\":929:7488  contract BadSammyNFTStore is ReentrancyGuard, Ownable, IERC721Receiver {... */\n      mstore(0x40, 0x80)\n      jumpi(tag_1, lt(calldatasize, 0x04))\n      shr(0xe0, calldataload(0x00))\n      dup1\n      0x8da5cb5b\n      gt\n      tag_20\n      jumpi\n      dup1\n      0xb5ddc0f4\n      gt\n      tag_21\n      jumpi\n      dup1\n      0xb5ddc0f4\n      eq\n      tag_15\n      jumpi\n      dup1\n      0xbb6416ae\n      eq\n      tag_16\n      jumpi\n      dup1\n      0xddd32898\n      eq\n      tag_17\n      jumpi\n      dup1\n      0xf0f44260\n      eq\n      tag_18\n      jumpi\n      dup1\n      0xf2fde38b\n      eq\n      tag_19\n      jumpi\n      jump(tag_2)\n    tag_21:\n      dup1\n      0x8da5cb5b\n      eq\n      tag_11\n      jumpi\n      dup1\n      0x94dc9cf3\n      eq\n      tag_12\n      jumpi\n      dup1\n      0x9c66fb7e\n      eq\n      tag_13\n      jumpi\n      dup1\n      0xaeccf735\n      eq\n      tag_14\n      jumpi\n      jump(tag_2)\n    tag_20:\n      dup1\n      0x582515c7\n      gt\n      tag_22\n      jumpi\n      dup1\n      0x582515c7\n      eq\n      tag_7\n      jumpi\n      dup1\n      0x61d027b3\n      eq\n      tag_8\n      jumpi\n      dup1\n      0x715018a6\n      eq\n      tag_9\n      jumpi\n      dup1\n      0x89a30271\n      eq\n      tag_10\n      jumpi\n      jump(tag_2)\n    tag_22:\n      dup1\n      0x039af9eb\n      eq\n      tag_3\n      jumpi\n      dup1\n      0x150b7a02\n      eq\n      tag_4\n      jumpi\n      dup1\n      0x26e84cc3\n      eq\n      tag_5\n      jumpi\n      dup1\n      0x4c2233a5\n      eq\n      tag_6\n      jumpi\n      jump(tag_2)\n    tag_1:\n      jumpi(tag_2, calldatasize)\n      stop\n    tag_2:\n      revert(0x00, 0x00)\n        /* \"contracts/BadSammyNFTStore.sol\":1273:1310  mapping(uint256 => Tier) public tiers */\n    tag_3:\n      callvalue\n      dup1\n      iszero\n      tag_25\n      jumpi\n      revert(0x00, 0x00)\n    tag_25:\n      pop\n      tag_26\n      0x04\n      dup1\n      calldatasize\n      sub\n      dup2\n      add\n      swap1\n      tag_27\n      swap2\n      swap1\n      tag_28\n      jump\t// in\n    tag_27:\n      tag_29\n      jump\t// in\n    tag_26:\n      mload(0x40)\n      tag_30\n      swap5\n      swap4\n      swap3\n      swap2\n      swap1\n      tag_31\n      jump\t// in\n    tag_30:\n      mload(0x40)\n      dup1\n      swap2\n      sub\n      swap1\n      return\n        /* \"contracts/BadSammyNFTStore.sol\":7212:7424  function onERC721Received(... */\n    tag_4:\n      callvalue\n      dup1\n      iszero\n      tag_32\n      jumpi\n      revert(0x00, 0x00)\n    tag_32:\n      pop\n      tag_33\n      0x04\n      dup1\n      calldatasize\n      sub\n      dup2\n      add\n      swap1\n      tag_34\n      swap2\n      swap1\n      tag_35\n      jump\t// in\n    tag_34:\n      tag_36\n      jump\t// in\n    tag_33:\n      mload(0x40)\n      tag_37\n      swap2\n      swap1\n      tag_38\n      jump\t// in\n    tag_37:\n      mload(0x40)\n      dup1\n      swap2\n      sub\n      swap1\n      return\n        /* \"contracts/BadSammyNFTStore.sol\":6516:7094  function withdrawRange(... */\n    tag_5:\n      callvalue\n      dup1\n      iszero\n      tag_39\n      jumpi\n      revert(0x00, 0x00)\n    tag_39:\n      pop\n      tag_40\n      0x04\n      dup1\n      calldatasize\n      sub\n      dup2\n      add\n      swap1\n      tag_41\n      swap2\n      swap1\n      tag_42\n      jump\t// in\n    tag_41:\n      tag_43\n      jump\t// in\n    tag_40:\n      stop\n        /* \"contracts/BadSammyNFTStore.sol\":5944:6425  function withdrawAll(uint256 tierId, address to) external onlyOwner {... */\n    tag_6:\n      callvalue\n      dup1\n      iszero\n      tag_44\n      jumpi\n      revert(0x00, 0x00)\n    tag_44:\n      pop\n      tag_45\n      0x04\n      dup1\n      calldatasize\n      sub\n      dup2\n      add\n      swap1\n      tag_46\n      swap2\n      swap1\n      tag_47\n      jump\t// in\n    tag_46:\n      tag_48\n      jump\t// in\n    tag_45:\n      stop\n        /* \"contracts/BadSammyNFTStore.sol\":4603:4779  function sweepERC20(address token, address to) external onlyOwner {... */\n    tag_7:\n      callvalue\n      dup1\n      iszero\n      tag_49\n      jumpi\n      revert(0x00, 0x00)\n    tag_49:\n      pop\n      tag_50\n      0x04\n      dup1\n      calldatasize\n      sub\n      dup2\n      add\n      swap1\n      tag_51\n      swap2\n      swap1\n      tag_52\n      jump\t// in\n    tag_51:\n      tag_53\n      jump\t// in\n    tag_50:\n      stop\n        /* \"contracts/BadSammyNFTStore.sol\":1317:1348  address payable public treasury */\n    tag_8:\n      callvalue\n      dup1\n      iszero\n      tag_54\n      jumpi\n      revert(0x00, 0x00)\n    tag_54:\n      pop\n      tag_55\n      tag_56\n      jump\t// in\n    tag_55:\n      mload(0x40)\n      tag_57\n      swap2\n      swap1\n      tag_58\n      jump\t// in\n    tag_57:\n      mload(0x40)\n      dup1\n      swap2\n      sub\n      swap1\n      return\n        /* \"@openzeppelin/contracts/access/Ownable.sol\":2293:2394  function renounceOwnership() public virtual onlyOwner {... */\n    tag_9:\n      callvalue\n      dup1\n      iszero\n      tag_59\n      jumpi\n      revert(0x00, 0x00)\n    tag_59:\n      pop\n      tag_60\n      tag_61\n      jump\t// in\n    tag_60:\n      stop\n        /* \"contracts/BadSammyNFTStore.sol\":1370:1398  IERC20 public immutable USDC */\n    tag_10:\n      callvalue\n      dup1\n      iszero\n      tag_62\n      jumpi\n      revert(0x00, 0x00)\n    tag_62:\n      pop\n      tag_63\n      tag_64\n      jump\t// in\n    tag_63:\n      mload(0x40)\n      tag_65\n      swap2\n      swap1\n      tag_66\n      jump\t// in\n    tag_65:\n      mload(0x40)\n      dup1\n      swap2\n      sub\n      swap1\n      return\n        /* \"@openzeppelin/contracts/access/Ownable.sol\":1638:1723  function owner() public view virtual returns (address) {... */\n    tag_11:\n      callvalue\n      dup1\n      iszero\n      tag_67\n      jumpi\n      revert(0x00, 0x00)\n    tag_67:\n      pop\n      tag_68\n      tag_69\n      jump\t// in\n    tag_68:\n      mload(0x40)\n      tag_70\n      swap2\n      swap1\n      tag_71\n      jump\t// in\n    tag_70:\n      mload(0x40)\n      dup1\n      swap2\n      sub\n      swap1\n      return\n        /* \"contracts/BadSammyNFTStore.sol\":2664:3236  function buyWithETH(uint256 tierId) external payable nonReentrant {... */\n    tag_12:\n      tag_72\n      0x04\n      dup1\n      calldatasize\n      sub\n      dup2\n      add\n      swap1\n      tag_73\n      swap2\n      swap1\n      tag_28\n      jump\t// in\n    tag_73:\n      tag_74\n      jump\t// in\n    tag_72:\n      stop\n        /* \"contracts/BadSammyNFTStore.sol\":4834:5090  function withdrawNFT(uint256 tierId, uint256 tokenId, address to) external onlyOwner {... */\n    tag_13:\n      callvalue\n      dup1\n      iszero\n      tag_75\n      jumpi\n      revert(0x00, 0x00)\n    tag_75:\n      pop\n      tag_76\n      0x04\n      dup1\n      calldatasize\n      sub\n      dup2\n      add\n      swap1\n      tag_77\n      swap2\n      swap1\n      tag_78\n      jump\t// in\n    tag_77:\n      tag_79\n      jump\t// in\n    tag_76:\n      stop\n        /* \"contracts/BadSammyNFTStore.sol\":3297:3854  function buyWithUSDC(uint256 tierId) public nonReentrant {... */\n    tag_14:\n      callvalue\n      dup1\n      iszero\n      tag_80\n      jumpi\n      revert(0x00, 0x00)\n    tag_80:\n      pop\n      tag_81\n      0x04\n      dup1\n      calldatasize\n      sub\n      dup2\n      add\n      swap1\n      tag_82\n      swap2\n      swap1\n      tag_28\n      jump\t// in\n    tag_82:\n      tag_83\n      jump\t// in\n    tag_81:\n      stop\n        /* \"contracts/BadSammyNFTStore.sol\":2019:2316  function setTier(... */\n    tag_15:\n      callvalue\n      dup1\n      iszero\n      tag_84\n      jumpi\n      revert(0x00, 0x00)\n    tag_84:\n      pop\n      tag_85\n      0x04\n      dup1\n      calldatasize\n      sub\n      dup2\n      add\n      swap1\n      tag_86\n      swap2\n      swap1\n      tag_87\n      jump\t// in\n    tag_86:\n      tag_88\n      jump\t// in\n    tag_85:\n      stop\n        /* \"contracts/BadSammyNFTStore.sol\":3959:4550  function buyWithUSDCPermit(... */\n    tag_16:\n      callvalue\n      dup1\n      iszero\n      tag_89\n      jumpi\n      revert(0x00, 0x00)\n    tag_89:\n      pop\n      tag_90\n      0x04\n      dup1\n      calldatasize\n      sub\n      dup2\n      add\n      swap1\n      tag_91\n      swap2\n      swap1\n      tag_92\n      jump\t// in\n    tag_91:\n      tag_93\n      jump\t// in\n    tag_90:\n      stop\n        /* \"contracts/BadSammyNFTStore.sol\":5181:5840  function withdrawN(uint256 tierId, uint256 quantity, address to) external onlyOwner {... */\n    tag_17:\n      callvalue\n      dup1\n      iszero\n      tag_94\n      jumpi\n      revert(0x00, 0x00)\n    tag_94:\n      pop\n      tag_95\n      0x04\n      dup1\n      calldatasize\n      sub\n      dup2\n      add\n      swap1\n      tag_96\n      swap2\n      swap1\n      tag_78\n      jump\t// in\n    tag_96:\n      tag_97\n      jump\t// in\n    tag_95:\n      stop\n        /* \"contracts/BadSammyNFTStore.sol\":1850:2013  function setTreasury(address payable _treasury) external onlyOwner {... */\n    tag_18:\n      callvalue\n      dup1\n      iszero\n      tag_98\n      jumpi\n      revert(0x00, 0x00)\n    tag_98:\n      pop\n      tag_99\n      0x04\n      dup1\n      calldatasize\n      sub\n      dup2\n      add\n      swap1\n      tag_100\n      swap2\n      swap1\n      tag_101\n      jump\t// in\n    tag_100:\n      tag_102\n      jump\t// in\n    tag_99:\n      stop\n        /* \"@openzeppelin/contracts/access/Ownable.sol\":2543:2758  function transferOwnership(address newOwner) public virtual onlyOwner {... */\n    tag_19:\n      callvalue\n      dup1\n      iszero\n      tag_103\n      jumpi\n      revert(0x00, 0x00)\n    tag_103:\n      pop\n      tag_104\n      0x04\n      dup1\n      calldatasize\n      sub\n      dup2\n      add\n      swap1\n      tag_105\n      swap2\n      swap1\n      tag_106\n      jump\t// in\n    tag_105:\n      tag_107\n      jump\t// in\n    tag_104:\n      stop\n        /* \"contracts/BadSammyNFTStore.sol\":1273:1310  mapping(uint256 => Tier) public tiers */\n    tag_29:\n      mstore(0x20, 0x02)\n      dup1\n      0x00\n      mstore\n      keccak256(0x00, 0x40)\n      0x00\n      swap2\n      pop\n      swap1\n      pop\n      dup1\n      0x00\n      add\n      0x00\n      swap1\n      sload\n      swap1\n      0x0100\n      exp\n      swap1\n      div\n      0xffffffffffffffffffffffffffffffffffffffff\n      and\n      swap1\n      dup1\n      0x01\n      add\n      sload\n      swap1\n      dup1\n      0x02\n      add\n      sload\n      swap1\n      dup1\n      0x03\n      add\n      0x00\n      swap1\n      sload\n      swap1\n      0x0100\n      exp\n      swap1\n      div\n      0xff\n      and\n      swap1\n      pop\n      dup5\n      jump\t// out\n        /* \"contracts/BadSammyNFTStore.sol\":7212:7424  function onERC721Received(... */\n    tag_36:\n        /* \"contracts/BadSammyNFTStore.sol\":7351:7357  bytes4 */\n      0x00\n        /* \"contracts/BadSammyNFTStore.sol\":7376:7417  IERC721Receiver.onERC721Received.selector */\n      shl(0xe0, 0x150b7a02)\n        /* \"contracts/BadSammyNFTStore.sol\":7369:7417  return IERC721Receiver.onERC721Received.selector */\n      swap1\n      pop\n        /* \"contracts/BadSammyNFTStore.sol\":7212:7424  function onERC721Received(... */\n      swap6\n      swap5\n      pop\n      pop\n      pop\n      pop\n      pop\n      jump\t// out\n        /* \"contracts/BadSammyNFTStore.sol\":6516:7094  function withdrawRange(... */\n    tag_43:\n        /* \"@openzeppelin/contracts/access/Ownable.sol\":1531:1544  _checkOwner() */\n      tag_110\n        /* \"@openzeppelin/contracts/access/Ownable.sol\":1531:1542  _checkOwner */\n      tag_111\n        /* \"@openzeppelin/contracts/access/Ownable.sol\":1531:1544  _checkOwner() */\n      jump\t// in\n    tag_110:\n        /* \"contracts/BadSammyNFTStore.sol\":6671:6684  Tier memory t */\n      0x00\n        /* \"contracts/BadSammyNFTStore.sol\":6687:6692  tiers */\n      0x02\n        /* \"contracts/BadSammyNFTStore.sol\":6687:6700  tiers[tierId] */\n      0x00\n        /* \"contracts/BadSammyNFTStore.sol\":6693:6699  tierId */\n      dup7\n        /* \"contracts/BadSammyNFTStore.sol\":6687:6700  tiers[tierId] */\n      dup2\n      mstore\n      0x20\n      add\n      swap1\n      dup2\n      mstore\n      0x20\n      add\n      0x00\n      keccak256\n        /* \"contracts/BadSammyNFTStore.sol\":6671:6700  Tier memory t = tiers[tierId] */\n      mload(0x40)\n      dup1\n      0x80\n      add\n      0x40\n      mstore\n      swap1\n      dup2\n      0x00\n      dup3\n      add\n      0x00\n      swap1\n      sload\n      swap1\n      0x0100\n      exp\n      swap1\n      div\n      0xffffffffffffffffffffffffffffffffffffffff\n      and\n      0xffffffffffffffffffffffffffffffffffffffff\n      and\n      0xffffffffffffffffffffffffffffffffffffffff\n      and\n      dup2\n      mstore\n      0x20\n      add\n      0x01\n      dup3\n      add\n      sload\n      dup2\n      mstore\n      0x20\n      add\n      0x02\n      dup3\n      add\n      sload\n      dup2\n      mstore\n      0x20\n      add\n      0x03\n      dup3\n      add\n      0x00\n      swap1\n      sload\n      swap1\n      0x0100\n      exp\n      swap1\n      div\n      0xff\n      and\n      iszero\n      iszero\n      iszero\n      iszero\n      dup2\n      mstore\n      pop\n      pop\n      swap1\n      pop\n        /* \"contracts/BadSammyNFTStore.sol\":6731:6732  0 */\n      0x00\n        /* \"contracts/BadSammyNFTStore.sol\":6714:6733  t.nft == address(0) */\n      0xffffffffffffffffffffffffffffffffffffffff\n      and\n        /* \"contracts/BadSammyNFTStore.sol\":6714:6715  t */\n      dup2\n        /* \"contracts/BadSammyNFTStore.sol\":6714:6719  t.nft */\n      0x00\n      add\n      mload\n        /* \"contracts/BadSammyNFTStore.sol\":6714:6733  t.nft == address(0) */\n      0xffffffffffffffffffffffffffffffffffffffff\n      and\n      sub\n        /* \"contracts/BadSammyNFTStore.sol\":6710:6755  if (t.nft == address(0)) revert InvalidTier() */\n      tag_113\n      jumpi\n        /* \"contracts/BadSammyNFTStore.sol\":6742:6755  InvalidTier() */\n      mload(0x40)\n      0xe142361700000000000000000000000000000000000000000000000000000000\n      dup2\n      mstore\n      0x04\n      add\n      mload(0x40)\n      dup1\n      swap2\n      sub\n      swap1\n      revert\n        /* \"contracts/BadSammyNFTStore.sol\":6710:6755  if (t.nft == address(0)) revert InvalidTier() */\n    tag_113:\n        /* \"contracts/BadSammyNFTStore.sol\":6766:6777  IERC721 nft */\n      0x00\n        /* \"contracts/BadSammyNFTStore.sol\":6788:6789  t */\n      dup2\n        /* \"contracts/BadSammyNFTStore.sol\":6788:6793  t.nft */\n      0x00\n      add\n      mload\n        /* \"contracts/BadSammyNFTStore.sol\":6766:6794  IERC721 nft = IERC721(t.nft) */\n      swap1\n      pop\n        /* \"contracts/BadSammyNFTStore.sol\":6810:6825  uint256 tokenId */\n      0x00\n        /* \"contracts/BadSammyNFTStore.sol\":6828:6840  startTokenId */\n      dup6\n        /* \"contracts/BadSammyNFTStore.sol\":6810:6840  uint256 tokenId = startTokenId */\n      swap1\n      pop\n        /* \"contracts/BadSammyNFTStore.sol\":6805:7088  for (uint256 tokenId = startTokenId; tokenId <= endTokenId; tokenId++) {... */\n    tag_114:\n        /* \"contracts/BadSammyNFTStore.sol\":6853:6863  endTokenId */\n      dup5\n        /* \"contracts/BadSammyNFTStore.sol\":6842:6849  tokenId */\n      dup2\n        /* \"contracts/BadSammyNFTStore.sol\":6842:6863  tokenId <= endTokenId */\n      gt\n        /* \"contracts/BadSammyNFTStore.sol\":6805:7088  for (uint256 tokenId = startTokenId; tokenId <= endTokenId; tokenId++) {... */\n      tag_115\n      jumpi\n        /* \"contracts/BadSammyNFTStore.sol\":6990:6994  this */\n      address\n        /* \"contracts/BadSammyNFTStore.sol\":6958:6995  nft.ownerOf(tokenId) == address(this) */\n      0xffffffffffffffffffffffffffffffffffffffff\n      and\n        /* \"contracts/BadSammyNFTStore.sol\":6958:6961  nft */\n      dup3\n        /* \"contracts/BadSammyNFTStore.sol\":6958:6969  nft.ownerOf */\n      0xffffffffffffffffffffffffffffffffffffffff\n      and\n      0x6352211e\n        /* \"contracts/BadSammyNFTStore.sol\":6970:6977  tokenId */\n      dup4\n        /* \"contracts/BadSammyNFTStore.sol\":6958:6978  nft.ownerOf(tokenId) */\n      mload(0x40)\n      dup3\n      0xffffffff\n      and\n      0xe0\n      shl\n      dup2\n      mstore\n      0x04\n      add\n      tag_117\n      swap2\n      swap1\n      tag_118\n      jump\t// in\n    tag_117:\n      0x20\n      mload(0x40)\n      dup1\n      dup4\n      sub\n      dup2\n      dup7\n      gas\n      staticcall\n      iszero\n      dup1\n      iszero\n      tag_120\n      jumpi\n      returndatacopy(0x00, 0x00, returndatasize)\n      revert(0x00, returndatasize)\n    tag_120:\n      pop\n      pop\n      pop\n      pop\n      mload(0x40)\n      returndatasize\n      not(0x1f)\n      0x1f\n      dup3\n      add\n      and\n      dup3\n      add\n      dup1\n      0x40\n      mstore\n      pop\n      dup2\n      add\n      swap1\n      tag_121\n      swap2\n      swap1\n      tag_122\n      jump\t// in\n    tag_121:\n        /* \"contracts/BadSammyNFTStore.sol\":6958:6995  nft.ownerOf(tokenId) == address(this) */\n      0xffffffffffffffffffffffffffffffffffffffff\n      and\n      sub\n        /* \"contracts/BadSammyNFTStore.sol\":6954:7078  if (nft.ownerOf(tokenId) == address(this)) {... */\n      tag_123\n      jumpi\n        /* \"contracts/BadSammyNFTStore.sol\":7015:7018  nft */\n      dup2\n        /* \"contracts/BadSammyNFTStore.sol\":7015:7035  nft.safeTransferFrom */\n      0xffffffffffffffffffffffffffffffffffffffff\n      and\n      0x42842e0e\n        /* \"contracts/BadSammyNFTStore.sol\":7044:7048  this */\n      address\n        /* \"contracts/BadSammyNFTStore.sol\":7051:7053  to */\n      dup7\n        /* \"contracts/BadSammyNFTStore.sol\":7055:7062  tokenId */\n      dup5\n        /* \"contracts/BadSammyNFTStore.sol\":7015:7063  nft.safeTransferFrom(address(this), to, tokenId) */\n      mload(0x40)\n      dup5\n      0xffffffff\n      and\n      0xe0\n      shl\n      dup2\n      mstore\n      0x04\n      add\n      tag_124\n      swap4\n      swap3\n      swap2\n      swap1\n      tag_125\n      jump\t// in\n    tag_124:\n      0x00\n      mload(0x40)\n      dup1\n      dup4\n      sub\n      dup2\n      0x00\n      dup8\n      dup1\n      extcodesize\n      iszero\n      dup1\n      iszero\n      tag_126\n      jumpi\n      revert(0x00, 0x00)\n    tag_126:\n      pop\n      gas\n      call\n      iszero\n      dup1\n      iszero\n      tag_128\n      jumpi\n      returndatacopy(0x00, 0x00, returndatasize)\n      revert(0x00, returndatasize)\n    tag_128:\n      pop\n      pop\n      pop\n      pop\n        /* \"contracts/BadSammyNFTStore.sol\":6954:7078  if (nft.ownerOf(tokenId) == address(this)) {... */\n    tag_123:\n        /* \"contracts/BadSammyNFTStore.sol\":6865:6874  tokenId++ */\n      dup1\n      dup1\n      tag_129\n      swap1\n      tag_130\n      jump\t// in\n    tag_129:\n      swap2\n      pop\n      pop\n        /* \"contracts/BadSammyNFTStore.sol\":6805:7088  for (uint256 tokenId = startTokenId; tokenId <= endTokenId; tokenId++) {... */\n      jump(tag_114)\n    tag_115:\n      pop\n        /* \"contracts/BadSammyNFTStore.sol\":6661:7094  {... */\n      pop\n      pop\n        /* \"contracts/BadSammyNFTStore.sol\":6516:7094  function withdrawRange(... */\n      pop\n      pop\n      pop\n      pop\n      jump\t// out\n        /* \"contracts/BadSammyNFTStore.sol\":5944:6425  function withdrawAll(uint256 tierId, address to) external onlyOwner {... */\n    tag_48:\n        /* \"@openzeppelin/contracts/access/Ownable.sol\":1531:1544  _checkOwner() */\n      tag_132\n        /* \"@openzeppelin/contracts/access/Ownable.sol\":1531:1542  _checkOwner */\n      tag_111\n        /* \"@openzeppelin/contracts/access/Ownable.sol\":1531:1544  _checkOwner() */\n      jump\t// in\n    tag_132:\n        /* \"contracts/BadSammyNFTStore.sol\":6022:6035  Tier memory t */\n      0x00\n        /* \"contracts/BadSammyNFTStore.sol\":6038:6043  tiers */\n      0x02\n        /* \"contracts/BadSammyNFTStore.sol\":6038:6051  tiers[tierId] */\n      0x00\n        /* \"contracts/BadSammyNFTStore.sol\":6044:6050  tierId */\n      dup5\n        /* \"contracts/BadSammyNFTStore.sol\":6038:6051  tiers[tierId] */\n      dup2\n      mstore\n      0x20\n      add\n      swap1\n      dup2\n      mstore\n      0x20\n      add\n      0x00\n      keccak256\n        /* \"contracts/BadSammyNFTStore.sol\":6022:6051  Tier memory t = tiers[tierId] */\n      mload(0x40)\n      dup1\n      0x80\n      add\n      0x40\n      mstore\n      swap1\n      dup2\n      0x00\n      dup3\n      add\n      0x00\n      swap1\n      sload\n      swap1\n      0x0100\n      exp\n      swap1\n      div\n      0xffffffffffffffffffffffffffffffffffffffff\n      and\n      0xffffffffffffffffffffffffffffffffffffffff\n      and\n      0xffffffffffffffffffffffffffffffffffffffff\n      and\n      dup2\n      mstore\n      0x20\n      add\n      0x01\n      dup3\n      add\n      sload\n      dup2\n      mstore\n      0x20\n      add\n      0x02\n      dup3\n      add\n      sload\n      dup2\n      mstore\n      0x20\n      add\n      0x03\n      dup3\n      add\n      0x00\n      swap1\n      sload\n      swap1\n      0x0100\n      exp\n      swap1\n      div\n      0xff\n      and\n      iszero\n      iszero\n      iszero\n      iszero\n      dup2\n      mstore\n      pop\n      pop\n      swap1\n      pop\n        /* \"contracts/BadSammyNFTStore.sol\":6082:6083  0 */\n      0x00\n        /* \"contracts/BadSammyNFTStore.sol\":6065:6084  t.nft == address(0) */\n      0xffffffffffffffffffffffffffffffffffffffff\n      and\n        /* \"contracts/BadSammyNFTStore.sol\":6065:6066  t */\n      dup2\n        /* \"contracts/BadSammyNFTStore.sol\":6065:6070  t.nft */\n      0x00\n      add\n      mload\n        /* \"contracts/BadSammyNFTStore.sol\":6065:6084  t.nft == address(0) */\n      0xffffffffffffffffffffffffffffffffffffffff\n      and\n      sub\n        /* \"contracts/BadSammyNFTStore.sol\":6061:6106  if (t.nft == address(0)) revert InvalidTier() */\n      tag_134\n      jumpi\n        /* \"contracts/BadSammyNFTStore.sol\":6093:6106  InvalidTier() */\n      mload(0x40)\n      0xe142361700000000000000000000000000000000000000000000000000000000\n      dup2\n      mstore\n      0x04\n      add\n      mload(0x40)\n      dup1\n      swap2\n      sub\n      swap1\n      revert\n        /* \"contracts/BadSammyNFTStore.sol\":6061:6106  if (t.nft == address(0)) revert InvalidTier() */\n    tag_134:\n        /* \"contracts/BadSammyNFTStore.sol\":6117:6138  IERC721Enumerable nft */\n      0x00\n        /* \"contracts/BadSammyNFTStore.sol\":6159:6160  t */\n      dup2\n        /* \"contracts/BadSammyNFTStore.sol\":6159:6164  t.nft */\n      0x00\n      add\n      mload\n        /* \"contracts/BadSammyNFTStore.sol\":6117:6165  IERC721Enumerable nft = IERC721Enumerable(t.nft) */\n      swap1\n      pop\n        /* \"contracts/BadSammyNFTStore.sol\":6175:6186  uint256 bal */\n      0x00\n        /* \"contracts/BadSammyNFTStore.sol\":6189:6192  nft */\n      dup2\n        /* \"contracts/BadSammyNFTStore.sol\":6189:6202  nft.balanceOf */\n      0xffffffffffffffffffffffffffffffffffffffff\n      and\n      0x70a08231\n        /* \"contracts/BadSammyNFTStore.sol\":6211:6215  this */\n      address\n        /* \"contracts/BadSammyNFTStore.sol\":6189:6217  nft.balanceOf(address(this)) */\n      mload(0x40)\n      dup3\n      0xffffffff\n      and\n      0xe0\n      shl\n      dup2\n      mstore\n      0x04\n      add\n      tag_135\n      swap2\n      swap1\n      tag_71\n      jump\t// in\n    tag_135:\n      0x20\n      mload(0x40)\n      dup1\n      dup4\n      sub\n      dup2\n      dup7\n      gas\n      staticcall\n      iszero\n      dup1\n      iszero\n      tag_137\n      jumpi\n      returndatacopy(0x00, 0x00, returndatasize)\n      revert(0x00, returndatasize)\n    tag_137:\n      pop\n      pop\n      pop\n      pop\n      mload(0x40)\n      returndatasize\n      not(0x1f)\n      0x1f\n      dup3\n      add\n      and\n      dup3\n      add\n      dup1\n      0x40\n      mstore\n      pop\n      dup2\n      add\n      swap1\n      tag_138\n      swap2\n      swap1\n      tag_139\n      jump\t// in\n    tag_138:\n        /* \"contracts/BadSammyNFTStore.sol\":6175:6217  uint256 bal = nft.balanceOf(address(this)) */\n      swap1\n      pop\n        /* \"contracts/BadSammyNFTStore.sol\":6233:6242  uint256 i */\n      0x00\n        /* \"contracts/BadSammyNFTStore.sol\":6245:6246  0 */\n      0x00\n        /* \"contracts/BadSammyNFTStore.sol\":6233:6246  uint256 i = 0 */\n      swap1\n      pop\n        /* \"contracts/BadSammyNFTStore.sol\":6228:6419  for (uint256 i = 0; i < bal; i++) {... */\n    tag_140:\n        /* \"contracts/BadSammyNFTStore.sol\":6252:6255  bal */\n      dup2\n        /* \"contracts/BadSammyNFTStore.sol\":6248:6249  i */\n      dup2\n        /* \"contracts/BadSammyNFTStore.sol\":6248:6255  i < bal */\n      lt\n        /* \"contracts/BadSammyNFTStore.sol\":6228:6419  for (uint256 i = 0; i < bal; i++) {... */\n      iszero\n      tag_141\n      jumpi\n        /* \"contracts/BadSammyNFTStore.sol\":6276:6291  uint256 tokenId */\n      0x00\n        /* \"contracts/BadSammyNFTStore.sol\":6294:6297  nft */\n      dup4\n        /* \"contracts/BadSammyNFTStore.sol\":6294:6317  nft.tokenOfOwnerByIndex */\n      0xffffffffffffffffffffffffffffffffffffffff\n      and\n      0x2f745c59\n        /* \"contracts/BadSammyNFTStore.sol\":6326:6330  this */\n      address\n        /* \"contracts/BadSammyNFTStore.sol\":6333:6334  0 */\n      0x00\n        /* \"contracts/BadSammyNFTStore.sol\":6294:6335  nft.tokenOfOwnerByIndex(address(this), 0) */\n      mload(0x40)\n      dup4\n      0xffffffff\n      and\n      0xe0\n      shl\n      dup2\n      mstore\n      0x04\n      add\n      tag_143\n      swap3\n      swap2\n      swap1\n      tag_144\n      jump\t// in\n    tag_143:\n      0x20\n      mload(0x40)\n      dup1\n      dup4\n      sub\n      dup2\n      dup7\n      gas\n      staticcall\n      iszero\n      dup1\n      iszero\n      tag_146\n      jumpi\n      returndatacopy(0x00, 0x00, returndatasize)\n      revert(0x00, returndatasize)\n    tag_146:\n      pop\n      pop\n      pop\n      pop\n      mload(0x40)\n      returndatasize\n      not(0x1f)\n      0x1f\n      dup3\n      add\n      and\n      dup3\n      add\n      dup1\n      0x40\n      mstore\n      pop\n      dup2\n      add\n      swap1\n      tag_147\n      swap2\n      swap1\n      tag_139\n      jump\t// in\n    tag_147:\n        /* \"contracts/BadSammyNFTStore.sol\":6276:6335  uint256 tokenId = nft.tokenOfOwnerByIndex(address(this), 0) */\n      swap1\n      pop\n        /* \"contracts/BadSammyNFTStore.sol\":6357:6358  t */\n      dup5\n        /* \"contracts/BadSammyNFTStore.sol\":6357:6362  t.nft */\n      0x00\n      add\n      mload\n        /* \"contracts/BadSammyNFTStore.sol\":6349:6380  IERC721(t.nft).safeTransferFrom */\n      0xffffffffffffffffffffffffffffffffffffffff\n      and\n      0x42842e0e\n        /* \"contracts/BadSammyNFTStore.sol\":6389:6393  this */\n      address\n        /* \"contracts/BadSammyNFTStore.sol\":6396:6398  to */\n      dup9\n        /* \"contracts/BadSammyNFTStore.sol\":6400:6407  tokenId */\n      dup5\n        /* \"contracts/BadSammyNFTStore.sol\":6349:6408  IERC721(t.nft).safeTransferFrom(address(this), to, tokenId) */\n      mload(0x40)\n      dup5\n      0xffffffff\n      and\n      0xe0\n      shl\n      dup2\n      mstore\n      0x04\n      add\n      tag_148\n      swap4\n      swap3\n      swap2\n      swap1\n      tag_125\n      jump\t// in\n    tag_148:\n      0x00\n      mload(0x40)\n      dup1\n      dup4\n      sub\n      dup2\n      0x00\n      dup8\n      dup1\n      extcodesize\n      iszero\n      dup1\n      iszero\n      tag_149\n      jumpi\n      revert(0x00, 0x00)\n    tag_149:\n      pop\n      gas\n      call\n      iszero\n      dup1\n      iszero\n      tag_151\n      jumpi\n      returndatacopy(0x00, 0x00, returndatasize)\n      revert(0x00, returndatasize)\n    tag_151:\n      pop\n      pop\n      pop\n      pop\n        /* \"contracts/BadSammyNFTStore.sol\":6262:6419  {... */\n      pop\n        /* \"contracts/BadSammyNFTStore.sol\":6257:6260  i++ */\n      dup1\n      dup1\n      0x01\n      add\n      swap2\n      pop\n      pop\n        /* \"contracts/BadSammyNFTStore.sol\":6228:6419  for (uint256 i = 0; i < bal; i++) {... */\n      jump(tag_140)\n    tag_141:\n      pop\n        /* \"contracts/BadSammyNFTStore.sol\":6012:6425  {... */\n      pop\n      pop\n      pop\n        /* \"contracts/BadSammyNFTStore.sol\":5944:6425  function withdrawAll(uint256 tierId, address to) external onlyOwner {... */\n      pop\n      pop\n      jump\t// out\n        /* \"contracts/BadSammyNFTStore.sol\":4603:4779  function sweepERC20(address token, address to) external onlyOwner {... */\n    tag_53:\n        /* \"@openzeppelin/contracts/access/Ownable.sol\":1531:1544  _checkOwner() */\n      tag_153\n        /* \"@openzeppelin/contracts/access/Ownable.sol\":1531:1542  _checkOwner */\n      tag_111\n        /* \"@openzeppelin/contracts/access/Ownable.sol\":1531:1544  _checkOwner() */\n      jump\t// in\n    tag_153:\n        /* \"contracts/BadSammyNFTStore.sol\":4679:4690  uint256 bal */\n      0x00\n        /* \"contracts/BadSammyNFTStore.sol\":4700:4705  token */\n      dup3\n        /* \"contracts/BadSammyNFTStore.sol\":4693:4716  IERC20(token).balanceOf */\n      0xffffffffffffffffffffffffffffffffffffffff\n      and\n      0x70a08231\n        /* \"contracts/BadSammyNFTStore.sol\":4725:4729  this */\n      address\n        /* \"contracts/BadSammyNFTStore.sol\":4693:4731  IERC20(token).balanceOf(address(this)) */\n      mload(0x40)\n      dup3\n      0xffffffff\n      and\n      0xe0\n      shl\n      dup2\n      mstore\n      0x04\n      add\n      tag_155\n      swap2\n      swap1\n      tag_71\n      jump\t// in\n    tag_155:\n      0x20\n      mload(0x40)\n      dup1\n      dup4\n      sub\n      dup2\n      dup7\n      gas\n      staticcall\n      iszero\n      dup1\n      iszero\n      tag_157\n      jumpi\n      returndatacopy(0x00, 0x00, returndatasize)\n      revert(0x00, returndatasize)\n    tag_157:\n      pop\n      pop\n      pop\n      pop\n      mload(0x40)\n      returndatasize\n      not(0x1f)\n      0x1f\n      dup3\n      add\n      and\n      dup3\n      add\n      dup1\n      0x40\n      mstore\n      pop\n      dup2\n      add\n      swap1\n      tag_158\n      swap2\n      swap1\n      tag_139\n      jump\t// in\n    tag_158:\n        /* \"contracts/BadSammyNFTStore.sol\":4679:4731  uint256 bal = IERC20(token).balanceOf(address(this)) */\n      swap1\n      pop\n        /* \"contracts/BadSammyNFTStore.sol\":4748:4753  token */\n      dup3\n        /* \"contracts/BadSammyNFTStore.sol\":4741:4763  IERC20(token).transfer */\n      0xffffffffffffffffffffffffffffffffffffffff\n      and\n      0xa9059cbb\n        /* \"contracts/BadSammyNFTStore.sol\":4764:4766  to */\n      dup4\n        /* \"contracts/BadSammyNFTStore.sol\":4768:4771  bal */\n      dup4\n        /* \"contracts/BadSammyNFTStore.sol\":4741:4772  IERC20(token).transfer(to, bal) */\n      mload(0x40)\n      dup4\n      0xffffffff\n      and\n      0xe0\n      shl\n      dup2\n      mstore\n      0x04\n      add\n      tag_159\n      swap3\n      swap2\n      swap1\n      tag_160\n      jump\t// in\n    tag_159:\n      0x20\n      mload(0x40)\n      dup1\n      dup4\n      sub\n      dup2\n      0x00\n      dup8\n      gas\n      call\n      iszero\n      dup1\n      iszero\n      tag_162\n      jumpi\n      returndatacopy(0x00, 0x00, returndatasize)\n      revert(0x00, returndatasize)\n    tag_162:\n      pop\n      pop\n      pop\n      pop\n      mload(0x40)\n      returndatasize\n      not(0x1f)\n      0x1f\n      dup3\n      add\n      and\n      dup3\n      add\n      dup1\n      0x40\n      mstore\n      pop\n      dup2\n      add\n      swap1\n      tag_163\n      swap2\n      swap1\n      tag_164\n      jump\t// in\n    tag_163:\n      pop\n        /* \"contracts/BadSammyNFTStore.sol\":4669:4779  {... */\n      pop\n        /* \"contracts/BadSammyNFTStore.sol\":4603:4779  function sweepERC20(address token, address to) external onlyOwner {... */\n      pop\n      pop\n      jump\t// out\n        /* \"contracts/BadSammyNFTStore.sol\":1317:1348  address payable public treasury */\n    tag_56:\n      0x03\n      0x00\n      swap1\n      sload\n      swap1\n      0x0100\n      exp\n      swap1\n      div\n      0xffffffffffffffffffffffffffffffffffffffff\n      and\n      dup2\n      jump\t// out\n        /* \"@openzeppelin/contracts/access/Ownable.sol\":2293:2394  function renounceOwnership() public virtual onlyOwner {... */\n    tag_61:\n        /* \"@openzeppelin/contracts/access/Ownable.sol\":1531:1544  _checkOwner() */\n      tag_166\n        /* \"@openzeppelin/contracts/access/Ownable.sol\":1531:1542  _checkOwner */\n      tag_111\n        /* \"@openzeppelin/contracts/access/Ownable.sol\":1531:1544  _checkOwner() */\n      jump\t// in\n    tag_166:\n        /* \"@openzeppelin/contracts/access/Ownable.sol\":2357:2387  _transferOwnership(address(0)) */\n      tag_168\n        /* \"@openzeppelin/contracts/access/Ownable.sol\":2384:2385  0 */\n      0x00\n        /* \"@openzeppelin/contracts/access/Ownable.sol\":2357:2375  _transferOwnership */\n      tag_169\n        /* \"@openzeppelin/contracts/access/Ownable.sol\":2357:2387  _transferOwnership(address(0)) */\n      jump\t// in\n    tag_168:\n        /* \"@openzeppelin/contracts/access/Ownable.sol\":2293:2394  function renounceOwnership() public virtual onlyOwner {... */\n      jump\t// out\n        /* \"contracts/BadSammyNFTStore.sol\":1370:1398  IERC20 public immutable USDC */\n    tag_64:\n      immutable(\"0x7173bb0c0c341c627c9734f9095ef27b00afaca222d0fccf9d280fbad8b7c078\")\n      dup2\n      jump\t// out\n        /* \"@openzeppelin/contracts/access/Ownable.sol\":1638:1723  function owner() public view virtual returns (address) {... */\n    tag_69:\n        /* \"@openzeppelin/contracts/access/Ownable.sol\":1684:1691  address */\n      0x00\n        /* \"@openzeppelin/contracts/access/Ownable.sol\":1710:1716  _owner */\n      0x01\n      0x00\n      swap1\n      sload\n      swap1\n      0x0100\n      exp\n      swap1\n      div\n      0xffffffffffffffffffffffffffffffffffffffff\n      and\n        /* \"@openzeppelin/contracts/access/Ownable.sol\":1703:1716  return _owner */\n      swap1\n      pop\n        /* \"@openzeppelin/contracts/access/Ownable.sol\":1638:1723  function owner() public view virtual returns (address) {... */\n      swap1\n      jump\t// out\n        /* \"contracts/BadSammyNFTStore.sol\":2664:3236  function buyWithETH(uint256 tierId) external payable nonReentrant {... */\n    tag_74:\n        /* \"@openzeppelin/contracts/security/ReentrancyGuard.sol\":2261:2282  _nonReentrantBefore() */\n      tag_172\n        /* \"@openzeppelin/contracts/security/ReentrancyGuard.sol\":2261:2280  _nonReentrantBefore */\n      tag_173\n        /* \"@openzeppelin/contracts/security/ReentrancyGuard.sol\":2261:2282  _nonReentrantBefore() */\n      jump\t// in\n    tag_172:\n        /* \"contracts/BadSammyNFTStore.sol\":2740:2753  Tier memory t */\n      0x00\n        /* \"contracts/BadSammyNFTStore.sol\":2756:2761  tiers */\n      0x02\n        /* \"contracts/BadSammyNFTStore.sol\":2756:2769  tiers[tierId] */\n      0x00\n        /* \"contracts/BadSammyNFTStore.sol\":2762:2768  tierId */\n      dup4\n        /* \"contracts/BadSammyNFTStore.sol\":2756:2769  tiers[tierId] */\n      dup2\n      mstore\n      0x20\n      add\n      swap1\n      dup2\n      mstore\n      0x20\n      add\n      0x00\n      keccak256\n        /* \"contracts/BadSammyNFTStore.sol\":2740:2769  Tier memory t = tiers[tierId] */\n      mload(0x40)\n      dup1\n      0x80\n      add\n      0x40\n      mstore\n      swap1\n      dup2\n      0x00\n      dup3\n      add\n      0x00\n      swap1\n      sload\n      swap1\n      0x0100\n      exp\n      swap1\n      div\n      0xffffffffffffffffffffffffffffffffffffffff\n      and\n      0xffffffffffffffffffffffffffffffffffffffff\n      and\n      0xffffffffffffffffffffffffffffffffffffffff\n      and\n      dup2\n      mstore\n      0x20\n      add\n      0x01\n      dup3\n      add\n      sload\n      dup2\n      mstore\n      0x20\n      add\n      0x02\n      dup3\n      add\n      sload\n      dup2\n      mstore\n      0x20\n      add\n      0x03\n      dup3\n      add\n      0x00\n      swap1\n      sload\n      swap1\n      0x0100\n      exp\n      swap1\n      div\n      0xff\n      and\n      iszero\n      iszero\n      iszero\n      iszero\n      dup2\n      mstore\n      pop\n      pop\n      swap1\n      pop\n        /* \"contracts/BadSammyNFTStore.sol\":2800:2801  0 */\n      0x00\n        /* \"contracts/BadSammyNFTStore.sol\":2783:2802  t.nft == address(0) */\n      0xffffffffffffffffffffffffffffffffffffffff\n      and\n        /* \"contracts/BadSammyNFTStore.sol\":2783:2784  t */\n      dup2\n        /* \"contracts/BadSammyNFTStore.sol\":2783:2788  t.nft */\n      0x00\n      add\n      mload\n        /* \"contracts/BadSammyNFTStore.sol\":2783:2802  t.nft == address(0) */\n      0xffffffffffffffffffffffffffffffffffffffff\n      and\n      sub\n        /* \"contracts/BadSammyNFTStore.sol\":2779:2824  if (t.nft == address(0)) revert InvalidTier() */\n      tag_175\n      jumpi\n        /* \"contracts/BadSammyNFTStore.sol\":2811:2824  InvalidTier() */\n      mload(0x40)\n      0xe142361700000000000000000000000000000000000000000000000000000000\n      dup2\n      mstore\n      0x04\n      add\n      mload(0x40)\n      dup1\n      swap2\n      sub\n      swap1\n      revert\n        /* \"contracts/BadSammyNFTStore.sol\":2779:2824  if (t.nft == address(0)) revert InvalidTier() */\n    tag_175:\n        /* \"contracts/BadSammyNFTStore.sol\":2839:2840  t */\n      dup1\n        /* \"contracts/BadSammyNFTStore.sol\":2839:2848  t.enabled */\n      0x60\n      add\n      mload\n        /* \"contracts/BadSammyNFTStore.sol\":2838:2848  !t.enabled */\n      iszero\n        /* \"contracts/BadSammyNFTStore.sol\":2838:2867  !t.enabled || t.priceEth == 0 */\n      dup1\n      tag_176\n      jumpi\n      pop\n        /* \"contracts/BadSammyNFTStore.sol\":2866:2867  0 */\n      0x00\n        /* \"contracts/BadSammyNFTStore.sol\":2852:2853  t */\n      dup2\n        /* \"contracts/BadSammyNFTStore.sol\":2852:2862  t.priceEth */\n      0x20\n      add\n      mload\n        /* \"contracts/BadSammyNFTStore.sol\":2852:2867  t.priceEth == 0 */\n      eq\n        /* \"contracts/BadSammyNFTStore.sol\":2838:2867  !t.enabled || t.priceEth == 0 */\n    tag_176:\n        /* \"contracts/BadSammyNFTStore.sol\":2834:2890  if (!t.enabled || t.priceEth == 0) revert TierDisabled() */\n      iszero\n      tag_177\n      jumpi\n        /* \"contracts/BadSammyNFTStore.sol\":2876:2890  TierDisabled() */\n      mload(0x40)\n      0x94d366b500000000000000000000000000000000000000000000000000000000\n      dup2\n      mstore\n      0x04\n      add\n      mload(0x40)\n      dup1\n      swap2\n      sub\n      swap1\n      revert\n        /* \"contracts/BadSammyNFTStore.sol\":2834:2890  if (!t.enabled || t.priceEth == 0) revert TierDisabled() */\n    tag_177:\n        /* \"contracts/BadSammyNFTStore.sol\":2917:2918  t */\n      dup1\n        /* \"contracts/BadSammyNFTStore.sol\":2917:2927  t.priceEth */\n      0x20\n      add\n      mload\n        /* \"contracts/BadSammyNFTStore.sol\":2904:2913  msg.value */\n      callvalue\n        /* \"contracts/BadSammyNFTStore.sol\":2904:2927  msg.value != t.priceEth */\n      eq\n        /* \"contracts/BadSammyNFTStore.sol\":2900:2954  if (msg.value != t.priceEth) revert PaymentIncorrect() */\n      tag_178\n      jumpi\n        /* \"contracts/BadSammyNFTStore.sol\":2936:2954  PaymentIncorrect() */\n      mload(0x40)\n      0xb0ccca4500000000000000000000000000000000000000000000000000000000\n      dup2\n      mstore\n      0x04\n      add\n      mload(0x40)\n      dup1\n      swap2\n      sub\n      swap1\n      revert\n        /* \"contracts/BadSammyNFTStore.sol\":2900:2954  if (msg.value != t.priceEth) revert PaymentIncorrect() */\n    tag_178:\n        /* \"contracts/BadSammyNFTStore.sol\":2965:2980  uint256 tokenId */\n      0x00\n        /* \"contracts/BadSammyNFTStore.sol\":2983:3000  _nextToken(t.nft) */\n      tag_179\n        /* \"contracts/BadSammyNFTStore.sol\":2994:2995  t */\n      dup3\n        /* \"contracts/BadSammyNFTStore.sol\":2994:2999  t.nft */\n      0x00\n      add\n      mload\n        /* \"contracts/BadSammyNFTStore.sol\":2983:2993  _nextToken */\n      tag_180\n        /* \"contracts/BadSammyNFTStore.sol\":2983:3000  _nextToken(t.nft) */\n      jump\t// in\n    tag_179:\n        /* \"contracts/BadSammyNFTStore.sol\":2965:3000  uint256 tokenId = _nextToken(t.nft) */\n      swap1\n      pop\n        /* \"contracts/BadSammyNFTStore.sol\":3036:3043  bool ok */\n      0x00\n        /* \"contracts/BadSammyNFTStore.sol\":3049:3057  treasury */\n      0x03\n      0x00\n      swap1\n      sload\n      swap1\n      0x0100\n      exp\n      swap1\n      div\n      0xffffffffffffffffffffffffffffffffffffffff\n      and\n        /* \"contracts/BadSammyNFTStore.sol\":3049:3062  treasury.call */\n      0xffffffffffffffffffffffffffffffffffffffff\n      and\n        /* \"contracts/BadSammyNFTStore.sol\":3070:3079  msg.value */\n      callvalue\n        /* \"contracts/BadSammyNFTStore.sol\":3049:3084  treasury.call{value: msg.value}(\"\") */\n      mload(0x40)\n      tag_181\n      swap1\n      tag_182\n      jump\t// in\n    tag_181:\n      0x00\n      mload(0x40)\n      dup1\n      dup4\n      sub\n      dup2\n      dup6\n      dup8\n      gas\n      call\n      swap3\n      pop\n      pop\n      pop\n      returndatasize\n      dup1\n      0x00\n      dup2\n      eq\n      tag_185\n      jumpi\n      mload(0x40)\n      swap2\n      pop\n      and(add(returndatasize, 0x3f), not(0x1f))\n      dup3\n      add\n      0x40\n      mstore\n      returndatasize\n      dup3\n      mstore\n      returndatasize\n      0x00\n      0x20\n      dup5\n      add\n      returndatacopy\n      jump(tag_184)\n    tag_185:\n      0x60\n      swap2\n      pop\n    tag_184:\n      pop\n        /* \"contracts/BadSammyNFTStore.sol\":3035:3084  (bool ok, ) = treasury.call{value: msg.value}(\"\") */\n      pop\n      swap1\n      pop\n        /* \"contracts/BadSammyNFTStore.sol\":3102:3104  ok */\n      dup1\n        /* \"contracts/BadSammyNFTStore.sol\":3094:3128  require(ok, \"ETH transfer failed\") */\n      tag_186\n      jumpi\n      mload(0x40)\n      0x08c379a000000000000000000000000000000000000000000000000000000000\n      dup2\n      mstore\n      0x04\n      add\n      tag_187\n      swap1\n      tag_188\n      jump\t// in\n    tag_187:\n      mload(0x40)\n      dup1\n      swap2\n      sub\n      swap1\n      revert\n    tag_186:\n        /* \"contracts/BadSammyNFTStore.sol\":3170:3171  t */\n      dup3\n        /* \"contracts/BadSammyNFTStore.sol\":3170:3175  t.nft */\n      0x00\n      add\n      mload\n        /* \"contracts/BadSammyNFTStore.sol\":3162:3193  IERC721(t.nft).safeTransferFrom */\n      0xffffffffffffffffffffffffffffffffffffffff\n      and\n      0x42842e0e\n        /* \"contracts/BadSammyNFTStore.sol\":3202:3206  this */\n      address\n        /* \"contracts/BadSammyNFTStore.sol\":3209:3219  msg.sender */\n      caller\n        /* \"contracts/BadSammyNFTStore.sol\":3221:3228  tokenId */\n      dup6\n        /* \"contracts/BadSammyNFTStore.sol\":3162:3229  IERC721(t.nft).safeTransferFrom(address(this), msg.sender, tokenId) */\n      mload(0x40)\n      dup5\n      0xffffffff\n      and\n      0xe0\n      shl\n      dup2\n      mstore\n      0x04\n      add\n      tag_189\n      swap4\n      swap3\n      swap2\n      swap1\n      tag_125\n      jump\t// in\n    tag_189:\n      0x00\n      mload(0x40)\n      dup1\n      dup4\n      sub\n      dup2\n      0x00\n      dup8\n      dup1\n      extcodesize\n      iszero\n      dup1\n      iszero\n      tag_190\n      jumpi\n      revert(0x00, 0x00)\n    tag_190:\n      pop\n      gas\n      call\n      iszero\n      dup1\n      iszero\n      tag_192\n      jumpi\n      returndatacopy(0x00, 0x00, returndatasize)\n      revert(0x00, returndatasize)\n    tag_192:\n      pop\n      pop\n      pop\n      pop\n        /* \"contracts/BadSammyNFTStore.sol\":2730:3236  {... */\n      pop\n      pop\n      pop\n        /* \"@openzeppelin/contracts/security/ReentrancyGuard.sol\":2303:2323  _nonReentrantAfter() */\n      tag_193\n        /* \"@openzeppelin/contracts/security/ReentrancyGuard.sol\":2303:2321  _nonReentrantAfter */\n      tag_194\n        /* \"@openzeppelin/contracts/security/ReentrancyGuard.sol\":2303:2323  _nonReentrantAfter() */\n      jump\t// in\n    tag_193:\n        /* \"contracts/BadSammyNFTStore.sol\":2664:3236  function buyWithETH(uint256 tierId) external payable nonReentrant {... */\n      pop\n      jump\t// out\n        /* \"contracts/BadSammyNFTStore.sol\":4834:5090  function withdrawNFT(uint256 tierId, uint256 tokenId, address to) external onlyOwner {... */\n    tag_79:\n        /* \"@openzeppelin/contracts/access/Ownable.sol\":1531:1544  _checkOwner() */\n      tag_196\n        /* \"@openzeppelin/contracts/access/Ownable.sol\":1531:1542  _checkOwner */\n      tag_111\n        /* \"@openzeppelin/contracts/access/Ownable.sol\":1531:1544  _checkOwner() */\n      jump\t// in\n    tag_196:\n        /* \"contracts/BadSammyNFTStore.sol\":4929:4942  Tier memory t */\n      0x00\n        /* \"contracts/BadSammyNFTStore.sol\":4945:4950  tiers */\n      0x02\n        /* \"contracts/BadSammyNFTStore.sol\":4945:4958  tiers[tierId] */\n      0x00\n        /* \"contracts/BadSammyNFTStore.sol\":4951:4957  tierId */\n      dup6\n        /* \"contracts/BadSammyNFTStore.sol\":4945:4958  tiers[tierId] */\n      dup2\n      mstore\n      0x20\n      add\n      swap1\n      dup2\n      mstore\n      0x20\n      add\n      0x00\n      keccak256\n        /* \"contracts/BadSammyNFTStore.sol\":4929:4958  Tier memory t = tiers[tierId] */\n      mload(0x40)\n      dup1\n      0x80\n      add\n      0x40\n      mstore\n      swap1\n      dup2\n      0x00\n      dup3\n      add\n      0x00\n      swap1\n      sload\n      swap1\n      0x0100\n      exp\n      swap1\n      div\n      0xffffffffffffffffffffffffffffffffffffffff\n      and\n      0xffffffffffffffffffffffffffffffffffffffff\n      and\n      0xffffffffffffffffffffffffffffffffffffffff\n      and\n      dup2\n      mstore\n      0x20\n      add\n      0x01\n      dup3\n      add\n      sload\n      dup2\n      mstore\n      0x20\n      add\n      0x02\n      dup3\n      add\n      sload\n      dup2\n      mstore\n      0x20\n      add\n      0x03\n      dup3\n      add\n      0x00\n      swap1\n      sload\n      swap1\n      0x0100\n      exp\n      swap1\n      div\n      0xff\n      and\n      iszero\n      iszero\n      iszero\n      iszero\n      dup2\n      mstore\n      pop\n      pop\n      swap1\n      pop\n        /* \"contracts/BadSammyNFTStore.sol\":4989:4990  0 */\n      0x00\n        /* \"contracts/BadSammyNFTStore.sol\":4972:4991  t.nft == address(0) */\n      0xffffffffffffffffffffffffffffffffffffffff\n      and\n        /* \"contracts/BadSammyNFTStore.sol\":4972:4973  t */\n      dup2\n        /* \"contracts/BadSammyNFTStore.sol\":4972:4977  t.nft */\n      0x00\n      add\n      mload\n        /* \"contracts/BadSammyNFTStore.sol\":4972:4991  t.nft == address(0) */\n      0xffffffffffffffffffffffffffffffffffffffff\n      and\n      sub\n        /* \"contracts/BadSammyNFTStore.sol\":4968:5013  if (t.nft == address(0)) revert InvalidTier() */\n      tag_198\n      jumpi\n        /* \"contracts/BadSammyNFTStore.sol\":5000:5013  InvalidTier() */\n      mload(0x40)\n      0xe142361700000000000000000000000000000000000000000000000000000000\n      dup2\n      mstore\n      0x04\n      add\n      mload(0x40)\n      dup1\n      swap2\n      sub\n      swap1\n      revert\n        /* \"contracts/BadSammyNFTStore.sol\":4968:5013  if (t.nft == address(0)) revert InvalidTier() */\n    tag_198:\n        /* \"contracts/BadSammyNFTStore.sol\":5032:5033  t */\n      dup1\n        /* \"contracts/BadSammyNFTStore.sol\":5032:5037  t.nft */\n      0x00\n      add\n      mload\n        /* \"contracts/BadSammyNFTStore.sol\":5024:5055  IERC721(t.nft).safeTransferFrom */\n      0xffffffffffffffffffffffffffffffffffffffff\n      and\n      0x42842e0e\n        /* \"contracts/BadSammyNFTStore.sol\":5064:5068  this */\n      address\n        /* \"contracts/BadSammyNFTStore.sol\":5071:5073  to */\n      dup5\n        /* \"contracts/BadSammyNFTStore.sol\":5075:5082  tokenId */\n      dup7\n        /* \"contracts/BadSammyNFTStore.sol\":5024:5083  IERC721(t.nft).safeTransferFrom(address(this), to, tokenId) */\n      mload(0x40)\n      dup5\n      0xffffffff\n      and\n      0xe0\n      shl\n      dup2\n      mstore\n      0x04\n      add\n      tag_199\n      swap4\n      swap3\n      swap2\n      swap1\n      tag_125\n      jump\t// in\n    tag_199:\n      0x00\n      mload(0x40)\n      dup1\n      dup4\n      sub\n      dup2\n      0x00\n      dup8\n      dup1\n      extcodesize\n      iszero\n      dup1\n      iszero\n      tag_200\n      jumpi\n      revert(0x00, 0x00)\n    tag_200:\n      pop\n      gas\n      call\n      iszero\n      dup1\n      iszero\n      tag_202\n      jumpi\n      returndatacopy(0x00, 0x00, returndatasize)\n      revert(0x00, returndatasize)\n    tag_202:\n      pop\n      pop\n      pop\n      pop\n        /* \"contracts/BadSammyNFTStore.sol\":4919:5090  {... */\n      pop\n        /* \"contracts/BadSammyNFTStore.sol\":4834:5090  function withdrawNFT(uint256 tierId, uint256 tokenId, address to) external onlyOwner {... */\n      pop\n      pop\n      pop\n      jump\t// out\n        /* \"contracts/BadSammyNFTStore.sol\":3297:3854  function buyWithUSDC(uint256 tierId) public nonReentrant {... */\n    tag_83:\n        /* \"@openzeppelin/contracts/security/ReentrancyGuard.sol\":2261:2282  _nonReentrantBefore() */\n      tag_204\n        /* \"@openzeppelin/contracts/security/ReentrancyGuard.sol\":2261:2280  _nonReentrantBefore */\n      tag_173\n        /* \"@openzeppelin/contracts/security/ReentrancyGuard.sol\":2261:2282  _nonReentrantBefore() */\n      jump\t// in\n    tag_204:\n        /* \"contracts/BadSammyNFTStore.sol\":3364:3377  Tier memory t */\n      0x00\n        /* \"contracts/BadSammyNFTStore.sol\":3380:3385  tiers */\n      0x02\n        /* \"contracts/BadSammyNFTStore.sol\":3380:3393  tiers[tierId] */\n      0x00\n        /* \"contracts/BadSammyNFTStore.sol\":3386:3392  tierId */\n      dup4\n        /* \"contracts/BadSammyNFTStore.sol\":3380:3393  tiers[tierId] */\n      dup2\n      mstore\n      0x20\n      add\n      swap1\n      dup2\n      mstore\n      0x20\n      add\n      0x00\n      keccak256\n        /* \"contracts/BadSammyNFTStore.sol\":3364:3393  Tier memory t = tiers[tierId] */\n      mload(0x40)\n      dup1\n      0x80\n      add\n      0x40\n      mstore\n      swap1\n      dup2\n      0x00\n      dup3\n      add\n      0x00\n      swap1\n      sload\n      swap1\n      0x0100\n      exp\n      swap1\n      div\n      0xffffffffffffffffffffffffffffffffffffffff\n      and\n      0xffffffffffffffffffffffffffffffffffffffff\n      and\n      0xffffffffffffffffffffffffffffffffffffffff\n      and\n      dup2\n      mstore\n      0x20\n      add\n      0x01\n      dup3\n      add\n      sload\n      dup2\n      mstore\n      0x20\n      add\n      0x02\n      dup3\n      add\n      sload\n      dup2\n      mstore\n      0x20\n      add\n      0x03\n      dup3\n      add\n      0x00\n      swap1\n      sload\n      swap1\n      0x0100\n      exp\n      swap1\n      div\n      0xff\n      and\n      iszero\n      iszero\n      iszero\n      iszero\n      dup2\n      mstore\n      pop\n      pop\n      swap1\n      pop\n        /* \"contracts/BadSammyNFTStore.sol\":3424:3425  0 */\n      0x00\n        /* \"contracts/BadSammyNFTStore.sol\":3407:3426  t.nft == address(0) */\n      0xffffffffffffffffffffffffffffffffffffffff\n      and\n        /* \"contracts/BadSammyNFTStore.sol\":3407:3408  t */\n      dup2\n        /* \"contracts/BadSammyNFTStore.sol\":3407:3412  t.nft */\n      0x00\n      add\n      mload\n        /* \"contracts/BadSammyNFTStore.sol\":3407:3426  t.nft == address(0) */\n      0xffffffffffffffffffffffffffffffffffffffff\n      and\n      sub\n        /* \"contracts/BadSammyNFTStore.sol\":3403:3448  if (t.nft == address(0)) revert InvalidTier() */\n      tag_206\n      jumpi\n        /* \"contracts/BadSammyNFTStore.sol\":3435:3448  InvalidTier() */\n      mload(0x40)\n      0xe142361700000000000000000000000000000000000000000000000000000000\n      dup2\n      mstore\n      0x04\n      add\n      mload(0x40)\n      dup1\n      swap2\n      sub\n      swap1\n      revert\n        /* \"contracts/BadSammyNFTStore.sol\":3403:3448  if (t.nft == address(0)) revert InvalidTier() */\n    tag_206:\n        /* \"contracts/BadSammyNFTStore.sol\":3463:3464  t */\n      dup1\n        /* \"contracts/BadSammyNFTStore.sol\":3463:3472  t.enabled */\n      0x60\n      add\n      mload\n        /* \"contracts/BadSammyNFTStore.sol\":3462:3472  !t.enabled */\n      iszero\n        /* \"contracts/BadSammyNFTStore.sol\":3462:3492  !t.enabled || t.priceUsdc == 0 */\n      dup1\n      tag_207\n      jumpi\n      pop\n        /* \"contracts/BadSammyNFTStore.sol\":3491:3492  0 */\n      0x00\n        /* \"contracts/BadSammyNFTStore.sol\":3476:3477  t */\n      dup2\n        /* \"contracts/BadSammyNFTStore.sol\":3476:3487  t.priceUsdc */\n      0x40\n      add\n      mload\n        /* \"contracts/BadSammyNFTStore.sol\":3476:3492  t.priceUsdc == 0 */\n      eq\n        /* \"contracts/BadSammyNFTStore.sol\":3462:3492  !t.enabled || t.priceUsdc == 0 */\n    tag_207:\n        /* \"contracts/BadSammyNFTStore.sol\":3458:3515  if (!t.enabled || t.priceUsdc == 0) revert TierDisabled() */\n      iszero\n      tag_208\n      jumpi\n        /* \"contracts/BadSammyNFTStore.sol\":3501:3515  TierDisabled() */\n      mload(0x40)\n      0x94d366b500000000000000000000000000000000000000000000000000000000\n      dup2\n      mstore\n      0x04\n      add\n      mload(0x40)\n      dup1\n      swap2\n      sub\n      swap1\n      revert\n        /* \"contracts/BadSammyNFTStore.sol\":3458:3515  if (!t.enabled || t.priceUsdc == 0) revert TierDisabled() */\n    tag_208:\n        /* \"contracts/BadSammyNFTStore.sol\":3526:3541  uint256 tokenId */\n      0x00\n        /* \"contracts/BadSammyNFTStore.sol\":3544:3561  _nextToken(t.nft) */\n      tag_209\n        /* \"contracts/BadSammyNFTStore.sol\":3555:3556  t */\n      dup3\n        /* \"contracts/BadSammyNFTStore.sol\":3555:3560  t.nft */\n      0x00\n      add\n      mload\n        /* \"contracts/BadSammyNFTStore.sol\":3544:3554  _nextToken */\n      tag_180\n        /* \"contracts/BadSammyNFTStore.sol\":3544:3561  _nextToken(t.nft) */\n      jump\t// in\n    tag_209:\n        /* \"contracts/BadSammyNFTStore.sol\":3526:3561  uint256 tokenId = _nextToken(t.nft) */\n      swap1\n      pop\n        /* \"contracts/BadSammyNFTStore.sol\":3604:3665  USDC.safeTransferFrom(msg.sender, address(this), t.priceUsdc) */\n      tag_210\n        /* \"contracts/BadSammyNFTStore.sol\":3626:3636  msg.sender */\n      caller\n        /* \"contracts/BadSammyNFTStore.sol\":3646:3650  this */\n      address\n        /* \"contracts/BadSammyNFTStore.sol\":3653:3654  t */\n      dup5\n        /* \"contracts/BadSammyNFTStore.sol\":3653:3664  t.priceUsdc */\n      0x40\n      add\n      mload\n        /* \"contracts/BadSammyNFTStore.sol\":3604:3608  USDC */\n      immutable(\"0x7173bb0c0c341c627c9734f9095ef27b00afaca222d0fccf9d280fbad8b7c078\")\n        /* \"contracts/BadSammyNFTStore.sol\":3604:3625  USDC.safeTransferFrom */\n      0xffffffffffffffffffffffffffffffffffffffff\n      and\n      tag_211\n      swap1\n        /* \"contracts/BadSammyNFTStore.sol\":3604:3665  USDC.safeTransferFrom(msg.sender, address(this), t.priceUsdc) */\n      swap4\n      swap3\n      swap2\n      swap1\n      0xffffffff\n      and\n      jump\t// in\n    tag_210:\n        /* \"contracts/BadSammyNFTStore.sol\":3706:3746  USDC.safeTransfer(treasury, t.priceUsdc) */\n      tag_212\n        /* \"contracts/BadSammyNFTStore.sol\":3724:3732  treasury */\n      0x03\n      0x00\n      swap1\n      sload\n      swap1\n      0x0100\n      exp\n      swap1\n      div\n      0xffffffffffffffffffffffffffffffffffffffff\n      and\n        /* \"contracts/BadSammyNFTStore.sol\":3734:3735  t */\n      dup4\n        /* \"contracts/BadSammyNFTStore.sol\":3734:3745  t.priceUsdc */\n      0x40\n      add\n      mload\n        /* \"contracts/BadSammyNFTStore.sol\":3706:3710  USDC */\n      immutable(\"0x7173bb0c0c341c627c9734f9095ef27b00afaca222d0fccf9d280fbad8b7c078\")\n        /* \"contracts/BadSammyNFTStore.sol\":3706:3723  USDC.safeTransfer */\n      0xffffffffffffffffffffffffffffffffffffffff\n      and\n      tag_213\n      swap1\n        /* \"contracts/BadSammyNFTStore.sol\":3706:3746  USDC.safeTransfer(treasury, t.priceUsdc) */\n      swap3\n      swap2\n      swap1\n      0xffffffff\n      and\n      jump\t// in\n    tag_212:\n        /* \"contracts/BadSammyNFTStore.sol\":3788:3789  t */\n      dup2\n        /* \"contracts/BadSammyNFTStore.sol\":3788:3793  t.nft */\n      0x00\n      add\n      mload\n        /* \"contracts/BadSammyNFTStore.sol\":3780:3811  IERC721(t.nft).safeTransferFrom */\n      0xffffffffffffffffffffffffffffffffffffffff\n      and\n      0x42842e0e\n        /* \"contracts/BadSammyNFTStore.sol\":3820:3824  this */\n      address\n        /* \"contracts/BadSammyNFTStore.sol\":3827:3837  msg.sender */\n      caller\n        /* \"contracts/BadSammyNFTStore.sol\":3839:3846  tokenId */\n      dup5\n        /* \"contracts/BadSammyNFTStore.sol\":3780:3847  IERC721(t.nft).safeTransferFrom(address(this), msg.sender, tokenId) */\n      mload(0x40)\n      dup5\n      0xffffffff\n      and\n      0xe0\n      shl\n      dup2\n      mstore\n      0x04\n      add\n      tag_214\n      swap4\n      swap3\n      swap2\n      swap1\n      tag_125\n      jump\t// in\n    tag_214:\n      0x00\n      mload(0x40)\n      dup1\n      dup4\n      sub\n      dup2\n      0x00\n      dup8\n      dup1\n      extcodesize\n      iszero\n      dup1\n      iszero\n      tag_215\n      jumpi\n      revert(0x00, 0x00)\n    tag_215:\n      pop\n      gas\n      call\n      iszero\n      dup1\n      iszero\n      tag_217\n      jumpi\n      returndatacopy(0x00, 0x00, returndatasize)\n      revert(0x00, returndatasize)\n    tag_217:\n      pop\n      pop\n      pop\n      pop\n        /* \"contracts/BadSammyNFTStore.sol\":3354:3854  {... */\n      pop\n      pop\n        /* \"@openzeppelin/contracts/security/ReentrancyGuard.sol\":2303:2323  _nonReentrantAfter() */\n      tag_218\n        /* \"@openzeppelin/contracts/security/ReentrancyGuard.sol\":2303:2321  _nonReentrantAfter */\n      tag_194\n        /* \"@openzeppelin/contracts/security/ReentrancyGuard.sol\":2303:2323  _nonReentrantAfter() */\n      jump\t// in\n    tag_218:\n        /* \"contracts/BadSammyNFTStore.sol\":3297:3854  function buyWithUSDC(uint256 tierId) public nonReentrant {... */\n      pop\n      jump\t// out\n        /* \"contracts/BadSammyNFTStore.sol\":2019:2316  function setTier(... */\n    tag_88:\n        /* \"@openzeppelin/contracts/access/Ownable.sol\":1531:1544  _checkOwner() */\n      tag_220\n        /* \"@openzeppelin/contracts/access/Ownable.sol\":1531:1542  _checkOwner */\n      tag_111\n        /* \"@openzeppelin/contracts/access/Ownable.sol\":1531:1544  _checkOwner() */\n      jump\t// in\n    tag_220:\n        /* \"contracts/BadSammyNFTStore.sol\":2255:2309  Tier(nftAddress, priceEthWei, priceUsdcUnits, enabled) */\n      mload(0x40)\n      dup1\n      0x80\n      add\n      0x40\n      mstore\n      dup1\n        /* \"contracts/BadSammyNFTStore.sol\":2260:2270  nftAddress */\n      dup6\n        /* \"contracts/BadSammyNFTStore.sol\":2255:2309  Tier(nftAddress, priceEthWei, priceUsdcUnits, enabled) */\n      0xffffffffffffffffffffffffffffffffffffffff\n      and\n      dup2\n      mstore\n      0x20\n      add\n        /* \"contracts/BadSammyNFTStore.sol\":2272:2283  priceEthWei */\n      dup5\n        /* \"contracts/BadSammyNFTStore.sol\":2255:2309  Tier(nftAddress, priceEthWei, priceUsdcUnits, enabled) */\n      dup2\n      mstore\n      0x20\n      add\n        /* \"contracts/BadSammyNFTStore.sol\":2285:2299  priceUsdcUnits */\n      dup4\n        /* \"contracts/BadSammyNFTStore.sol\":2255:2309  Tier(nftAddress, priceEthWei, priceUsdcUnits, enabled) */\n      dup2\n      mstore\n      0x20\n      add\n        /* \"contracts/BadSammyNFTStore.sol\":2301:2308  enabled */\n      dup3\n        /* \"contracts/BadSammyNFTStore.sol\":2255:2309  Tier(nftAddress, priceEthWei, priceUsdcUnits, enabled) */\n      iszero\n      iszero\n      dup2\n      mstore\n      pop\n        /* \"contracts/BadSammyNFTStore.sol\":2239:2244  tiers */\n      0x02\n        /* \"contracts/BadSammyNFTStore.sol\":2239:2252  tiers[tierId] */\n      0x00\n        /* \"contracts/BadSammyNFTStore.sol\":2245:2251  tierId */\n      dup8\n        /* \"contracts/BadSammyNFTStore.sol\":2239:2252  tiers[tierId] */\n      dup2\n      mstore\n      0x20\n      add\n      swap1\n      dup2\n      mstore\n      0x20\n      add\n      0x00\n      keccak256\n        /* \"contracts/BadSammyNFTStore.sol\":2239:2309  tiers[tierId] = Tier(nftAddress, priceEthWei, priceUsdcUnits, enabled) */\n      0x00\n      dup3\n      add\n      mload\n      dup2\n      0x00\n      add\n      exp(0x0100, 0x00)\n      dup2\n      sload\n      dup2\n      0xffffffffffffffffffffffffffffffffffffffff\n      mul\n      not\n      and\n      swap1\n      dup4\n      0xffffffffffffffffffffffffffffffffffffffff\n      and\n      mul\n      or\n      swap1\n      sstore\n      pop\n      0x20\n      dup3\n      add\n      mload\n      dup2\n      0x01\n      add\n      sstore\n      0x40\n      dup3\n      add\n      mload\n      dup2\n      0x02\n      add\n      sstore\n      0x60\n      dup3\n      add\n      mload\n      dup2\n      0x03\n      add\n      exp(0x0100, 0x00)\n      dup2\n      sload\n      dup2\n      0xff\n      mul\n      not\n      and\n      swap1\n      dup4\n      iszero\n      iszero\n      mul\n      or\n      swap1\n      sstore\n      pop\n      swap1\n      pop\n      pop\n        /* \"contracts/BadSammyNFTStore.sol\":2019:2316  function setTier(... */\n      pop\n      pop\n      pop\n      pop\n      pop\n      jump\t// out\n        /* \"contracts/BadSammyNFTStore.sol\":3959:4550  function buyWithUSDCPermit(... */\n    tag_93:\n        /* \"@openzeppelin/contracts/security/ReentrancyGuard.sol\":2261:2282  _nonReentrantBefore() */\n      tag_223\n        /* \"@openzeppelin/contracts/security/ReentrancyGuard.sol\":2261:2280  _nonReentrantBefore */\n      tag_173\n        /* \"@openzeppelin/contracts/security/ReentrancyGuard.sol\":2261:2282  _nonReentrantBefore() */\n      jump\t// in\n    tag_223:\n        /* \"contracts/BadSammyNFTStore.sol\":4136:4149  Tier memory t */\n      0x00\n        /* \"contracts/BadSammyNFTStore.sol\":4152:4157  tiers */\n      0x02\n        /* \"contracts/BadSammyNFTStore.sol\":4152:4165  tiers[tierId] */\n      0x00\n        /* \"contracts/BadSammyNFTStore.sol\":4158:4164  tierId */\n      dup9\n        /* \"contracts/BadSammyNFTStore.sol\":4152:4165  tiers[tierId] */\n      dup2\n      mstore\n      0x20\n      add\n      swap1\n      dup2\n      mstore\n      0x20\n      add\n      0x00\n      keccak256\n        /* \"contracts/BadSammyNFTStore.sol\":4136:4165  Tier memory t = tiers[tierId] */\n      mload(0x40)\n      dup1\n      0x80\n      add\n      0x40\n      mstore\n      swap1\n      dup2\n      0x00\n      dup3\n      add\n      0x00\n      swap1\n      sload\n      swap1\n      0x0100\n      exp\n      swap1\n      div\n      0xffffffffffffffffffffffffffffffffffffffff\n      and\n      0xffffffffffffffffffffffffffffffffffffffff\n      and\n      0xffffffffffffffffffffffffffffffffffffffff\n      and\n      dup2\n      mstore\n      0x20\n      add\n      0x01\n      dup3\n      add\n      sload\n      dup2\n      mstore\n      0x20\n      add\n      0x02\n      dup3\n      add\n      sload\n      dup2\n      mstore\n      0x20\n      add\n      0x03\n      dup3\n      add\n      0x00\n      swap1\n      sload\n      swap1\n      0x0100\n      exp\n      swap1\n      div\n      0xff\n      and\n      iszero\n      iszero\n      iszero\n      iszero\n      dup2\n      mstore\n      pop\n      pop\n      swap1\n      pop\n        /* \"contracts/BadSammyNFTStore.sol\":4196:4197  0 */\n      0x00\n        /* \"contracts/BadSammyNFTStore.sol\":4179:4198  t.nft == address(0) */\n      0xffffffffffffffffffffffffffffffffffffffff\n      and\n        /* \"contracts/BadSammyNFTStore.sol\":4179:4180  t */\n      dup2\n        /* \"contracts/BadSammyNFTStore.sol\":4179:4184  t.nft */\n      0x00\n      add\n      mload\n        /* \"contracts/BadSammyNFTStore.sol\":4179:4198  t.nft == address(0) */\n      0xffffffffffffffffffffffffffffffffffffffff\n      and\n      sub\n        /* \"contracts/BadSammyNFTStore.sol\":4175:4220  if (t.nft == address(0)) revert InvalidTier() */\n      tag_225\n      jumpi\n        /* \"contracts/BadSammyNFTStore.sol\":4207:4220  InvalidTier() */\n      mload(0x40)\n      0xe142361700000000000000000000000000000000000000000000000000000000\n      dup2\n      mstore\n      0x04\n      add\n      mload(0x40)\n      dup1\n      swap2\n      sub\n      swap1\n      revert\n        /* \"contracts/BadSammyNFTStore.sol\":4175:4220  if (t.nft == address(0)) revert InvalidTier() */\n    tag_225:\n        /* \"contracts/BadSammyNFTStore.sol\":4235:4236  t */\n      dup1\n        /* \"contracts/BadSammyNFTStore.sol\":4235:4244  t.enabled */\n      0x60\n      add\n      mload\n        /* \"contracts/BadSammyNFTStore.sol\":4234:4244  !t.enabled */\n      iszero\n        /* \"contracts/BadSammyNFTStore.sol\":4234:4264  !t.enabled || t.priceUsdc == 0 */\n      dup1\n      tag_226\n      jumpi\n      pop\n        /* \"contracts/BadSammyNFTStore.sol\":4263:4264  0 */\n      0x00\n        /* \"contracts/BadSammyNFTStore.sol\":4248:4249  t */\n      dup2\n        /* \"contracts/BadSammyNFTStore.sol\":4248:4259  t.priceUsdc */\n      0x40\n      add\n      mload\n        /* \"contracts/BadSammyNFTStore.sol\":4248:4264  t.priceUsdc == 0 */\n      eq\n        /* \"contracts/BadSammyNFTStore.sol\":4234:4264  !t.enabled || t.priceUsdc == 0 */\n    tag_226:\n        /* \"contracts/BadSammyNFTStore.sol\":4230:4287  if (!t.enabled || t.priceUsdc == 0) revert TierDisabled() */\n      iszero\n      tag_227\n      jumpi\n        /* \"contracts/BadSammyNFTStore.sol\":4273:4287  TierDisabled() */\n      mload(0x40)\n      0x94d366b500000000000000000000000000000000000000000000000000000000\n      dup2\n      mstore\n      0x04\n      add\n      mload(0x40)\n      dup1\n      swap2\n      sub\n      swap1\n      revert\n        /* \"contracts/BadSammyNFTStore.sol\":4230:4287  if (!t.enabled || t.priceUsdc == 0) revert TierDisabled() */\n    tag_227:\n        /* \"contracts/BadSammyNFTStore.sol\":4314:4315  t */\n      dup1\n        /* \"contracts/BadSammyNFTStore.sol\":4314:4325  t.priceUsdc */\n      0x40\n      add\n      mload\n        /* \"contracts/BadSammyNFTStore.sol\":4305:4310  value */\n      dup7\n        /* \"contracts/BadSammyNFTStore.sol\":4305:4325  value == t.priceUsdc */\n      eq\n        /* \"contracts/BadSammyNFTStore.sol\":4297:4351  require(value == t.priceUsdc, \"permit value mismatch\") */\n      tag_228\n      jumpi\n      mload(0x40)\n      0x08c379a000000000000000000000000000000000000000000000000000000000\n      dup2\n      mstore\n      0x04\n      add\n      tag_229\n      swap1\n      tag_230\n      jump\t// in\n    tag_229:\n      mload(0x40)\n      dup1\n      swap2\n      sub\n      swap1\n      revert\n    tag_228:\n        /* \"contracts/BadSammyNFTStore.sol\":4424:4428  USDC */\n      immutable(\"0x7173bb0c0c341c627c9734f9095ef27b00afaca222d0fccf9d280fbad8b7c078\")\n        /* \"contracts/BadSammyNFTStore.sol\":4403:4437  IERC20Permit(address(USDC)).permit */\n      0xffffffffffffffffffffffffffffffffffffffff\n      and\n      0xd505accf\n        /* \"contracts/BadSammyNFTStore.sol\":4438:4448  msg.sender */\n      caller\n        /* \"contracts/BadSammyNFTStore.sol\":4458:4462  this */\n      address\n        /* \"contracts/BadSammyNFTStore.sol\":4465:4470  value */\n      dup10\n        /* \"contracts/BadSammyNFTStore.sol\":4472:4480  deadline */\n      dup10\n        /* \"contracts/BadSammyNFTStore.sol\":4482:4483  v */\n      dup10\n        /* \"contracts/BadSammyNFTStore.sol\":4485:4486  r */\n      dup10\n        /* \"contracts/BadSammyNFTStore.sol\":4488:4489  s */\n      dup10\n        /* \"contracts/BadSammyNFTStore.sol\":4403:4490  IERC20Permit(address(USDC)).permit(msg.sender, address(this), value, deadline, v, r, s) */\n      mload(0x40)\n      dup9\n      0xffffffff\n      and\n      0xe0\n      shl\n      dup2\n      mstore\n      0x04\n      add\n      tag_231\n      swap8\n      swap7\n      swap6\n      swap5\n      swap4\n      swap3\n      swap2\n      swap1\n      tag_232\n      jump\t// in\n    tag_231:\n      0x00\n      mload(0x40)\n      dup1\n      dup4\n      sub\n      dup2\n      0x00\n      dup8\n      dup1\n      extcodesize\n      iszero\n      dup1\n      iszero\n      tag_233\n      jumpi\n      revert(0x00, 0x00)\n    tag_233:\n      pop\n      gas\n      call\n      iszero\n      dup1\n      iszero\n      tag_235\n      jumpi\n      returndatacopy(0x00, 0x00, returndatasize)\n      revert(0x00, returndatasize)\n    tag_235:\n      pop\n      pop\n      pop\n      pop\n        /* \"contracts/BadSammyNFTStore.sol\":4524:4543  buyWithUSDC(tierId) */\n      tag_236\n        /* \"contracts/BadSammyNFTStore.sol\":4536:4542  tierId */\n      dup8\n        /* \"contracts/BadSammyNFTStore.sol\":4524:4535  buyWithUSDC */\n      tag_83\n        /* \"contracts/BadSammyNFTStore.sol\":4524:4543  buyWithUSDC(tierId) */\n      jump\t// in\n    tag_236:\n        /* \"contracts/BadSammyNFTStore.sol\":4126:4550  {... */\n      pop\n        /* \"@openzeppelin/contracts/security/ReentrancyGuard.sol\":2303:2323  _nonReentrantAfter() */\n      tag_237\n        /* \"@openzeppelin/contracts/security/ReentrancyGuard.sol\":2303:2321  _nonReentrantAfter */\n      tag_194\n        /* \"@openzeppelin/contracts/security/ReentrancyGuard.sol\":2303:2323  _nonReentrantAfter() */\n      jump\t// in\n    tag_237:\n        /* \"contracts/BadSammyNFTStore.sol\":3959:4550  function buyWithUSDCPermit(... */\n      pop\n      pop\n      pop\n      pop\n      pop\n      pop\n      jump\t// out\n        /* \"contracts/BadSammyNFTStore.sol\":5181:5840  function withdrawN(uint256 tierId, uint256 quantity, address to) external onlyOwner {... */\n    tag_97:\n        /* \"@openzeppelin/contracts/access/Ownable.sol\":1531:1544  _checkOwner() */\n      tag_239\n        /* \"@openzeppelin/contracts/access/Ownable.sol\":1531:1542  _checkOwner */\n      tag_111\n        /* \"@openzeppelin/contracts/access/Ownable.sol\":1531:1544  _checkOwner() */\n      jump\t// in\n    tag_239:\n        /* \"contracts/BadSammyNFTStore.sol\":5275:5288  Tier memory t */\n      0x00\n        /* \"contracts/BadSammyNFTStore.sol\":5291:5296  tiers */\n      0x02\n        /* \"contracts/BadSammyNFTStore.sol\":5291:5304  tiers[tierId] */\n      0x00\n        /* \"contracts/BadSammyNFTStore.sol\":5297:5303  tierId */\n      dup6\n        /* \"contracts/BadSammyNFTStore.sol\":5291:5304  tiers[tierId] */\n      dup2\n      mstore\n      0x20\n      add\n      swap1\n      dup2\n      mstore\n      0x20\n      add\n      0x00\n      keccak256\n        /* \"contracts/BadSammyNFTStore.sol\":5275:5304  Tier memory t = tiers[tierId] */\n      mload(0x40)\n      dup1\n      0x80\n      add\n      0x40\n      mstore\n      swap1\n      dup2\n      0x00\n      dup3\n      add\n      0x00\n      swap1\n      sload\n      swap1\n      0x0100\n      exp\n      swap1\n      div\n      0xffffffffffffffffffffffffffffffffffffffff\n      and\n      0xffffffffffffffffffffffffffffffffffffffff\n      and\n      0xffffffffffffffffffffffffffffffffffffffff\n      and\n      dup2\n      mstore\n      0x20\n      add\n      0x01\n      dup3\n      add\n      sload\n      dup2\n      mstore\n      0x20\n      add\n      0x02\n      dup3\n      add\n      sload\n      dup2\n      mstore\n      0x20\n      add\n      0x03\n      dup3\n      add\n      0x00\n      swap1\n      sload\n      swap1\n      0x0100\n      exp\n      swap1\n      div\n      0xff\n      and\n      iszero\n      iszero\n      iszero\n      iszero\n      dup2\n      mstore\n      pop\n      pop\n      swap1\n      pop\n        /* \"contracts/BadSammyNFTStore.sol\":5335:5336  0 */\n      0x00\n        /* \"contracts/BadSammyNFTStore.sol\":5318:5337  t.nft == address(0) */\n      0xffffffffffffffffffffffffffffffffffffffff\n      and\n        /* \"contracts/BadSammyNFTStore.sol\":5318:5319  t */\n      dup2\n        /* \"contracts/BadSammyNFTStore.sol\":5318:5323  t.nft */\n      0x00\n      add\n      mload\n        /* \"contracts/BadSammyNFTStore.sol\":5318:5337  t.nft == address(0) */\n      0xffffffffffffffffffffffffffffffffffffffff\n      and\n      sub\n        /* \"contracts/BadSammyNFTStore.sol\":5314:5359  if (t.nft == address(0)) revert InvalidTier() */\n      tag_241\n      jumpi\n        /* \"contracts/BadSammyNFTStore.sol\":5346:5359  InvalidTier() */\n      mload(0x40)\n      0xe142361700000000000000000000000000000000000000000000000000000000\n      dup2\n      mstore\n      0x04\n      add\n      mload(0x40)\n      dup1\n      swap2\n      sub\n      swap1\n      revert\n        /* \"contracts/BadSammyNFTStore.sol\":5314:5359  if (t.nft == address(0)) revert InvalidTier() */\n    tag_241:\n        /* \"contracts/BadSammyNFTStore.sol\":5370:5391  IERC721Enumerable nft */\n      0x00\n        /* \"contracts/BadSammyNFTStore.sol\":5412:5413  t */\n      dup2\n        /* \"contracts/BadSammyNFTStore.sol\":5412:5417  t.nft */\n      0x00\n      add\n      mload\n        /* \"contracts/BadSammyNFTStore.sol\":5370:5418  IERC721Enumerable nft = IERC721Enumerable(t.nft) */\n      swap1\n      pop\n        /* \"contracts/BadSammyNFTStore.sol\":5428:5439  uint256 bal */\n      0x00\n        /* \"contracts/BadSammyNFTStore.sol\":5442:5445  nft */\n      dup2\n        /* \"contracts/BadSammyNFTStore.sol\":5442:5455  nft.balanceOf */\n      0xffffffffffffffffffffffffffffffffffffffff\n      and\n      0x70a08231\n        /* \"contracts/BadSammyNFTStore.sol\":5464:5468  this */\n      address\n        /* \"contracts/BadSammyNFTStore.sol\":5442:5470  nft.balanceOf(address(this)) */\n      mload(0x40)\n      dup3\n      0xffffffff\n      and\n      0xe0\n      shl\n      dup2\n      mstore\n      0x04\n      add\n      tag_242\n      swap2\n      swap1\n      tag_71\n      jump\t// in\n    tag_242:\n      0x20\n      mload(0x40)\n      dup1\n      dup4\n      sub\n      dup2\n      dup7\n      gas\n      staticcall\n      iszero\n      dup1\n      iszero\n      tag_244\n      jumpi\n      returndatacopy(0x00, 0x00, returndatasize)\n      revert(0x00, returndatasize)\n    tag_244:\n      pop\n      pop\n      pop\n      pop\n      mload(0x40)\n      returndatasize\n      not(0x1f)\n      0x1f\n      dup3\n      add\n      and\n      dup3\n      add\n      dup1\n      0x40\n      mstore\n      pop\n      dup2\n      add\n      swap1\n      tag_245\n      swap2\n      swap1\n      tag_139\n      jump\t// in\n    tag_245:\n        /* \"contracts/BadSammyNFTStore.sol\":5428:5470  uint256 bal = nft.balanceOf(address(this)) */\n      swap1\n      pop\n        /* \"contracts/BadSammyNFTStore.sol\":5496:5499  bal */\n      dup1\n        /* \"contracts/BadSammyNFTStore.sol\":5485:5493  quantity */\n      dup6\n        /* \"contracts/BadSammyNFTStore.sol\":5485:5499  quantity > bal */\n      gt\n        /* \"contracts/BadSammyNFTStore.sol\":5481:5570  if (quantity > bal) {... */\n      iszero\n      tag_246\n      jumpi\n        /* \"contracts/BadSammyNFTStore.sol\":5526:5529  bal */\n      dup1\n        /* \"contracts/BadSammyNFTStore.sol\":5515:5529  quantity = bal */\n      swap5\n      pop\n        /* \"contracts/BadSammyNFTStore.sol\":5481:5570  if (quantity > bal) {... */\n    tag_246:\n        /* \"contracts/BadSammyNFTStore.sol\":5585:5594  uint256 i */\n      0x00\n        /* \"contracts/BadSammyNFTStore.sol\":5597:5598  0 */\n      0x00\n        /* \"contracts/BadSammyNFTStore.sol\":5585:5598  uint256 i = 0 */\n      swap1\n      pop\n        /* \"contracts/BadSammyNFTStore.sol\":5580:5834  for (uint256 i = 0; i < quantity; i++) {... */\n    tag_247:\n        /* \"contracts/BadSammyNFTStore.sol\":5604:5612  quantity */\n      dup6\n        /* \"contracts/BadSammyNFTStore.sol\":5600:5601  i */\n      dup2\n        /* \"contracts/BadSammyNFTStore.sol\":5600:5612  i < quantity */\n      lt\n        /* \"contracts/BadSammyNFTStore.sol\":5580:5834  for (uint256 i = 0; i < quantity; i++) {... */\n      iszero\n      tag_248\n      jumpi\n        /* \"contracts/BadSammyNFTStore.sol\":5691:5706  uint256 tokenId */\n      0x00\n        /* \"contracts/BadSammyNFTStore.sol\":5709:5712  nft */\n      dup4\n        /* \"contracts/BadSammyNFTStore.sol\":5709:5732  nft.tokenOfOwnerByIndex */\n      0xffffffffffffffffffffffffffffffffffffffff\n      and\n      0x2f745c59\n        /* \"contracts/BadSammyNFTStore.sol\":5741:5745  this */\n      address\n        /* \"contracts/BadSammyNFTStore.sol\":5748:5749  0 */\n      0x00\n        /* \"contracts/BadSammyNFTStore.sol\":5709:5750  nft.tokenOfOwnerByIndex(address(this), 0) */\n      mload(0x40)\n      dup4\n      0xffffffff\n      and\n      0xe0\n      shl\n      dup2\n      mstore\n      0x04\n      add\n      tag_250\n      swap3\n      swap2\n      swap1\n      tag_144\n      jump\t// in\n    tag_250:\n      0x20\n      mload(0x40)\n      dup1\n      dup4\n      sub\n      dup2\n      dup7\n      gas\n      staticcall\n      iszero\n      dup1\n      iszero\n      tag_252\n      jumpi\n      returndatacopy(0x00, 0x00, returndatasize)\n      revert(0x00, returndatasize)\n    tag_252:\n      pop\n      pop\n      pop\n      pop\n      mload(0x40)\n      returndatasize\n      not(0x1f)\n      0x1f\n      dup3\n      add\n      and\n      dup3\n      add\n      dup1\n      0x40\n      mstore\n      pop\n      dup2\n      add\n      swap1\n      tag_253\n      swap2\n      swap1\n      tag_139\n      jump\t// in\n    tag_253:\n        /* \"contracts/BadSammyNFTStore.sol\":5691:5750  uint256 tokenId = nft.tokenOfOwnerByIndex(address(this), 0) */\n      swap1\n      pop\n        /* \"contracts/BadSammyNFTStore.sol\":5772:5773  t */\n      dup5\n        /* \"contracts/BadSammyNFTStore.sol\":5772:5777  t.nft */\n      0x00\n      add\n      mload\n        /* \"contracts/BadSammyNFTStore.sol\":5764:5795  IERC721(t.nft).safeTransferFrom */\n      0xffffffffffffffffffffffffffffffffffffffff\n      and\n      0x42842e0e\n        /* \"contracts/BadSammyNFTStore.sol\":5804:5808  this */\n      address\n        /* \"contracts/BadSammyNFTStore.sol\":5811:5813  to */\n      dup9\n        /* \"contracts/BadSammyNFTStore.sol\":5815:5822  tokenId */\n      dup5\n        /* \"contracts/BadSammyNFTStore.sol\":5764:5823  IERC721(t.nft).safeTransferFrom(address(this), to, tokenId) */\n      mload(0x40)\n      dup5\n      0xffffffff\n      and\n      0xe0\n      shl\n      dup2\n      mstore\n      0x04\n      add\n      tag_254\n      swap4\n      swap3\n      swap2\n      swap1\n      tag_125\n      jump\t// in\n    tag_254:\n      0x00\n      mload(0x40)\n      dup1\n      dup4\n      sub\n      dup2\n      0x00\n      dup8\n      dup1\n      extcodesize\n      iszero\n      dup1\n      iszero\n      tag_255\n      jumpi\n      revert(0x00, 0x00)\n    tag_255:\n      pop\n      gas\n      call\n      iszero\n      dup1\n      iszero\n      tag_257\n      jumpi\n      returndatacopy(0x00, 0x00, returndatasize)\n      revert(0x00, returndatasize)\n    tag_257:\n      pop\n      pop\n      pop\n      pop\n        /* \"contracts/BadSammyNFTStore.sol\":5619:5834  {... */\n      pop\n        /* \"contracts/BadSammyNFTStore.sol\":5614:5617  i++ */\n      dup1\n      dup1\n      0x01\n      add\n      swap2\n      pop\n      pop\n        /* \"contracts/BadSammyNFTStore.sol\":5580:5834  for (uint256 i = 0; i < quantity; i++) {... */\n      jump(tag_247)\n    tag_248:\n      pop\n        /* \"contracts/BadSammyNFTStore.sol\":5265:5840  {... */\n      pop\n      pop\n      pop\n        /* \"contracts/BadSammyNFTStore.sol\":5181:5840  function withdrawN(uint256 tierId, uint256 quantity, address to) external onlyOwner {... */\n      pop\n      pop\n      pop\n      jump\t// out\n        /* \"contracts/BadSammyNFTStore.sol\":1850:2013  function setTreasury(address payable _treasury) external onlyOwner {... */\n    tag_102:\n        /* \"@openzeppelin/contracts/access/Ownable.sol\":1531:1544  _checkOwner() */\n      tag_259\n        /* \"@openzeppelin/contracts/access/Ownable.sol\":1531:1542  _checkOwner */\n      tag_111\n        /* \"@openzeppelin/contracts/access/Ownable.sol\":1531:1544  _checkOwner() */\n      jump\t// in\n    tag_259:\n        /* \"contracts/BadSammyNFTStore.sol\":1952:1953  0 */\n      0x00\n        /* \"contracts/BadSammyNFTStore.sol\":1931:1954  _treasury == address(0) */\n      0xffffffffffffffffffffffffffffffffffffffff\n      and\n        /* \"contracts/BadSammyNFTStore.sol\":1931:1940  _treasury */\n      dup2\n        /* \"contracts/BadSammyNFTStore.sol\":1931:1954  _treasury == address(0) */\n      0xffffffffffffffffffffffffffffffffffffffff\n      and\n      sub\n        /* \"contracts/BadSammyNFTStore.sol\":1927:1976  if (_treasury == address(0)) revert ZeroAddress() */\n      tag_261\n      jumpi\n        /* \"contracts/BadSammyNFTStore.sol\":1963:1976  ZeroAddress() */\n      mload(0x40)\n      0xd92e233d00000000000000000000000000000000000000000000000000000000\n      dup2\n      mstore\n      0x04\n      add\n      mload(0x40)\n      dup1\n      swap2\n      sub\n      swap1\n      revert\n        /* \"contracts/BadSammyNFTStore.sol\":1927:1976  if (_treasury == address(0)) revert ZeroAddress() */\n    tag_261:\n        /* \"contracts/BadSammyNFTStore.sol\":1997:2006  _treasury */\n      dup1\n        /* \"contracts/BadSammyNFTStore.sol\":1986:1994  treasury */\n      0x03\n      0x00\n        /* \"contracts/BadSammyNFTStore.sol\":1986:2006  treasury = _treasury */\n      0x0100\n      exp\n      dup2\n      sload\n      dup2\n      0xffffffffffffffffffffffffffffffffffffffff\n      mul\n      not\n      and\n      swap1\n      dup4\n      0xffffffffffffffffffffffffffffffffffffffff\n      and\n      mul\n      or\n      swap1\n      sstore\n      pop\n        /* \"contracts/BadSammyNFTStore.sol\":1850:2013  function setTreasury(address payable _treasury) external onlyOwner {... */\n      pop\n      jump\t// out\n        /* \"@openzeppelin/contracts/access/Ownable.sol\":2543:2758  function transferOwnership(address newOwner) public virtual onlyOwner {... */\n    tag_107:\n        /* \"@openzeppelin/contracts/access/Ownable.sol\":1531:1544  _checkOwner() */\n      tag_263\n        /* \"@openzeppelin/contracts/access/Ownable.sol\":1531:1542  _checkOwner */\n      tag_111\n        /* \"@openzeppelin/contracts/access/Ownable.sol\":1531:1544  _checkOwner() */\n      jump\t// in\n    tag_263:\n        /* \"@openzeppelin/contracts/access/Ownable.sol\":2647:2648  0 */\n      0x00\n        /* \"@openzeppelin/contracts/access/Ownable.sol\":2627:2649  newOwner == address(0) */\n      0xffffffffffffffffffffffffffffffffffffffff\n      and\n        /* \"@openzeppelin/contracts/access/Ownable.sol\":2627:2635  newOwner */\n      dup2\n        /* \"@openzeppelin/contracts/access/Ownable.sol\":2627:2649  newOwner == address(0) */\n      0xffffffffffffffffffffffffffffffffffffffff\n      and\n      sub\n        /* \"@openzeppelin/contracts/access/Ownable.sol\":2623:2714  if (newOwner == address(0)) {... */\n      tag_265\n      jumpi\n        /* \"@openzeppelin/contracts/access/Ownable.sol\":2700:2701  0 */\n      0x00\n        /* \"@openzeppelin/contracts/access/Ownable.sol\":2672:2703  OwnableInvalidOwner(address(0)) */\n      mload(0x40)\n      0x1e4fbdf700000000000000000000000000000000000000000000000000000000\n      dup2\n      mstore\n      0x04\n      add\n      tag_266\n      swap2\n      swap1\n      tag_71\n      jump\t// in\n    tag_266:\n      mload(0x40)\n      dup1\n      swap2\n      sub\n      swap1\n      revert\n        /* \"@openzeppelin/contracts/access/Ownable.sol\":2623:2714  if (newOwner == address(0)) {... */\n    tag_265:\n        /* \"@openzeppelin/contracts/access/Ownable.sol\":2723:2751  _transferOwnership(newOwner) */\n      tag_267\n        /* \"@openzeppelin/contracts/access/Ownable.sol\":2742:2750  newOwner */\n      dup2\n        /* \"@openzeppelin/contracts/access/Ownable.sol\":2723:2741  _transferOwnership */\n      tag_169\n        /* \"@openzeppelin/contracts/access/Ownable.sol\":2723:2751  _transferOwnership(newOwner) */\n      jump\t// in\n    tag_267:\n        /* \"@openzeppelin/contracts/access/Ownable.sol\":2543:2758  function transferOwnership(address newOwner) public virtual onlyOwner {... */\n      pop\n      jump\t// out\n        /* \"@openzeppelin/contracts/access/Ownable.sol\":1796:1958  function _checkOwner() internal view virtual {... */\n    tag_111:\n        /* \"@openzeppelin/contracts/access/Ownable.sol\":1866:1878  _msgSender() */\n      tag_269\n        /* \"@openzeppelin/contracts/access/Ownable.sol\":1866:1876  _msgSender */\n      tag_270\n        /* \"@openzeppelin/contracts/access/Ownable.sol\":1866:1878  _msgSender() */\n      jump\t// in\n    tag_269:\n        /* \"@openzeppelin/contracts/access/Ownable.sol\":1855:1878  owner() != _msgSender() */\n      0xffffffffffffffffffffffffffffffffffffffff\n      and\n        /* \"@openzeppelin/contracts/access/Ownable.sol\":1855:1862  owner() */\n      tag_271\n        /* \"@openzeppelin/contracts/access/Ownable.sol\":1855:1860  owner */\n      tag_69\n        /* \"@openzeppelin/contracts/access/Ownable.sol\":1855:1862  owner() */\n      jump\t// in\n    tag_271:\n        /* \"@openzeppelin/contracts/access/Ownable.sol\":1855:1878  owner() != _msgSender() */\n      0xffffffffffffffffffffffffffffffffffffffff\n      and\n      eq\n        /* \"@openzeppelin/contracts/access/Ownable.sol\":1851:1952  if (owner() != _msgSender()) {... */\n      tag_272\n      jumpi\n        /* \"@openzeppelin/contracts/access/Ownable.sol\":1928:1940  _msgSender() */\n      tag_273\n        /* \"@openzeppelin/contracts/access/Ownable.sol\":1928:1938  _msgSender */\n      tag_270\n        /* \"@openzeppelin/contracts/access/Ownable.sol\":1928:1940  _msgSender() */\n      jump\t// in\n    tag_273:\n        /* \"@openzeppelin/contracts/access/Ownable.sol\":1901:1941  OwnableUnauthorizedAccount(_msgSender()) */\n      mload(0x40)\n      0x118cdaa700000000000000000000000000000000000000000000000000000000\n      dup2\n      mstore\n      0x04\n      add\n      tag_274\n      swap2\n      swap1\n      tag_71\n      jump\t// in\n    tag_274:\n      mload(0x40)\n      dup1\n      swap2\n      sub\n      swap1\n      revert\n        /* \"@openzeppelin/contracts/access/Ownable.sol\":1851:1952  if (owner() != _msgSender()) {... */\n    tag_272:\n        /* \"@openzeppelin/contracts/access/Ownable.sol\":1796:1958  function _checkOwner() internal view virtual {... */\n      jump\t// out\n        /* \"@openzeppelin/contracts/access/Ownable.sol\":2912:3099  function _transferOwnership(address newOwner) internal virtual {... */\n    tag_169:\n        /* \"@openzeppelin/contracts/access/Ownable.sol\":2985:3001  address oldOwner */\n      0x00\n        /* \"@openzeppelin/contracts/access/Ownable.sol\":3004:3010  _owner */\n      0x01\n      0x00\n      swap1\n      sload\n      swap1\n      0x0100\n      exp\n      swap1\n      div\n      0xffffffffffffffffffffffffffffffffffffffff\n      and\n        /* \"@openzeppelin/contracts/access/Ownable.sol\":2985:3010  address oldOwner = _owner */\n      swap1\n      pop\n        /* \"@openzeppelin/contracts/access/Ownable.sol\":3029:3037  newOwner */\n      dup2\n        /* \"@openzeppelin/contracts/access/Ownable.sol\":3020:3026  _owner */\n      0x01\n      0x00\n        /* \"@openzeppelin/contracts/access/Ownable.sol\":3020:3037  _owner = newOwner */\n      0x0100\n      exp\n      dup2\n      sload\n      dup2\n      0xffffffffffffffffffffffffffffffffffffffff\n      mul\n      not\n      and\n      swap1\n      dup4\n      0xffffffffffffffffffffffffffffffffffffffff\n      and\n      mul\n      or\n      swap1\n      sstore\n      pop\n        /* \"@openzeppelin/contracts/access/Ownable.sol\":3083:3091  newOwner */\n      dup2\n        /* \"@openzeppelin/contracts/access/Ownable.sol\":3052:3092  OwnershipTransferred(oldOwner, newOwner) */\n      0xffffffffffffffffffffffffffffffffffffffff\n      and\n        /* \"@openzeppelin/contracts/access/Ownable.sol\":3073:3081  oldOwner */\n      dup2\n        /* \"@openzeppelin/contracts/access/Ownable.sol\":3052:3092  OwnershipTransferred(oldOwner, newOwner) */\n      0xffffffffffffffffffffffffffffffffffffffff\n      and\n      0x8be0079c531659141344cd1fd0a4f28419497f9722a3daafe3b4186f6b6457e0\n      mload(0x40)\n      mload(0x40)\n      dup1\n      swap2\n      sub\n      swap1\n      log3\n        /* \"@openzeppelin/contracts/access/Ownable.sol\":2975:3099  {... */\n      pop\n        /* \"@openzeppelin/contracts/access/Ownable.sol\":2912:3099  function _transferOwnership(address newOwner) internal virtual {... */\n      pop\n      jump\t// out\n        /* \"@openzeppelin/contracts/security/ReentrancyGuard.sol\":2336:2623  function _nonReentrantBefore() private {... */\n    tag_173:\n        /* \"@openzeppelin/contracts/security/ReentrancyGuard.sol\":1759:1760  2 */\n      0x02\n        /* \"@openzeppelin/contracts/security/ReentrancyGuard.sol\":2468:2475  _status */\n      sload(0x00)\n        /* \"@openzeppelin/contracts/security/ReentrancyGuard.sol\":2468:2487  _status != _ENTERED */\n      sub\n        /* \"@openzeppelin/contracts/security/ReentrancyGuard.sol\":2460:2523  require(_status != _ENTERED, \"ReentrancyGuard: reentrant call\") */\n      tag_277\n      jumpi\n      mload(0x40)\n      0x08c379a000000000000000000000000000000000000000000000000000000000\n      dup2\n      mstore\n      0x04\n      add\n      tag_278\n      swap1\n      tag_279\n      jump\t// in\n    tag_278:\n      mload(0x40)\n      dup1\n      swap2\n      sub\n      swap1\n      revert\n    tag_277:\n        /* \"@openzeppelin/contracts/security/ReentrancyGuard.sol\":1759:1760  2 */\n      0x02\n        /* \"@openzeppelin/contracts/security/ReentrancyGuard.sol\":2598:2605  _status */\n      0x00\n        /* \"@openzeppelin/contracts/security/ReentrancyGuard.sol\":2598:2616  _status = _ENTERED */\n      dup2\n      swap1\n      sstore\n      pop\n        /* \"@openzeppelin/contracts/security/ReentrancyGuard.sol\":2336:2623  function _nonReentrantBefore() private {... */\n      jump\t// out\n        /* \"contracts/BadSammyNFTStore.sol\":2355:2630  function _nextToken(address nft) internal view returns (uint256) {... */\n    tag_180:\n        /* \"contracts/BadSammyNFTStore.sol\":2411:2418  uint256 */\n      0x00\n        /* \"contracts/BadSammyNFTStore.sol\":2430:2450  IERC721Enumerable en */\n      0x00\n        /* \"contracts/BadSammyNFTStore.sol\":2471:2474  nft */\n      dup3\n        /* \"contracts/BadSammyNFTStore.sol\":2430:2475  IERC721Enumerable en = IERC721Enumerable(nft) */\n      swap1\n      pop\n        /* \"contracts/BadSammyNFTStore.sol\":2485:2496  uint256 bal */\n      0x00\n        /* \"contracts/BadSammyNFTStore.sol\":2499:2501  en */\n      dup2\n        /* \"contracts/BadSammyNFTStore.sol\":2499:2511  en.balanceOf */\n      0xffffffffffffffffffffffffffffffffffffffff\n      and\n      0x70a08231\n        /* \"contracts/BadSammyNFTStore.sol\":2520:2524  this */\n      address\n        /* \"contracts/BadSammyNFTStore.sol\":2499:2526  en.balanceOf(address(this)) */\n      mload(0x40)\n      dup3\n      0xffffffff\n      and\n      0xe0\n      shl\n      dup2\n      mstore\n      0x04\n      add\n      tag_281\n      swap2\n      swap1\n      tag_71\n      jump\t// in\n    tag_281:\n      0x20\n      mload(0x40)\n      dup1\n      dup4\n      sub\n      dup2\n      dup7\n      gas\n      staticcall\n      iszero\n      dup1\n      iszero\n      tag_283\n      jumpi\n      returndatacopy(0x00, 0x00, returndatasize)\n      revert(0x00, returndatasize)\n    tag_283:\n      pop\n      pop\n      pop\n      pop\n      mload(0x40)\n      returndatasize\n      not(0x1f)\n      0x1f\n      dup3\n      add\n      and\n      dup3\n      add\n      dup1\n      0x40\n      mstore\n      pop\n      dup2\n      add\n      swap1\n      tag_284\n      swap2\n      swap1\n      tag_139\n      jump\t// in\n    tag_284:\n        /* \"contracts/BadSammyNFTStore.sol\":2485:2526  uint256 bal = en.balanceOf(address(this)) */\n      swap1\n      pop\n        /* \"contracts/BadSammyNFTStore.sol\":2547:2548  0 */\n      0x00\n        /* \"contracts/BadSammyNFTStore.sol\":2540:2543  bal */\n      dup2\n        /* \"contracts/BadSammyNFTStore.sol\":2540:2548  bal == 0 */\n      sub\n        /* \"contracts/BadSammyNFTStore.sol\":2536:2566  if (bal == 0) revert SoldOut() */\n      tag_285\n      jumpi\n        /* \"contracts/BadSammyNFTStore.sol\":2557:2566  SoldOut() */\n      mload(0x40)\n      0x52df9fe500000000000000000000000000000000000000000000000000000000\n      dup2\n      mstore\n      0x04\n      add\n      mload(0x40)\n      dup1\n      swap2\n      sub\n      swap1\n      revert\n        /* \"contracts/BadSammyNFTStore.sol\":2536:2566  if (bal == 0) revert SoldOut() */\n    tag_285:\n        /* \"contracts/BadSammyNFTStore.sol\":2583:2585  en */\n      dup2\n        /* \"contracts/BadSammyNFTStore.sol\":2583:2605  en.tokenOfOwnerByIndex */\n      0xffffffffffffffffffffffffffffffffffffffff\n      and\n      0x2f745c59\n        /* \"contracts/BadSammyNFTStore.sol\":2614:2618  this */\n      address\n        /* \"contracts/BadSammyNFTStore.sol\":2621:2622  0 */\n      0x00\n        /* \"contracts/BadSammyNFTStore.sol\":2583:2623  en.tokenOfOwnerByIndex(address(this), 0) */\n      mload(0x40)\n      dup4\n      0xffffffff\n      and\n      0xe0\n      shl\n      dup2\n      mstore\n      0x04\n      add\n      tag_286\n      swap3\n      swap2\n      swap1\n      tag_144\n      jump\t// in\n    tag_286:\n      0x20\n      mload(0x40)\n      dup1\n      dup4\n      sub\n      dup2\n      dup7\n      gas\n      staticcall\n      iszero\n      dup1\n      iszero\n      tag_288\n      jumpi\n      returndatacopy(0x00, 0x00, returndatasize)\n      revert(0x00, returndatasize)\n    tag_288:\n      pop\n      pop\n      pop\n      pop\n      mload(0x40)\n      returndatasize\n      not(0x1f)\n      0x1f\n      dup3\n      add\n      and\n      dup3\n      add\n      dup1\n      0x40\n      mstore\n      pop\n      dup2\n      add\n      swap1\n      tag_289\n      swap2\n      swap1\n      tag_139\n      jump\t// in\n    tag_289:\n        /* \"contracts/BadSammyNFTStore.sol\":2576:2623  return en.tokenOfOwnerByIndex(address(this), 0) */\n      swap3\n      pop\n      pop\n      pop\n        /* \"contracts/BadSammyNFTStore.sol\":2355:2630  function _nextToken(address nft) internal view returns (uint256) {... */\n      swap2\n      swap1\n      pop\n      jump\t// out\n        /* \"@openzeppelin/contracts/security/ReentrancyGuard.sol\":2629:2838  function _nonReentrantAfter() private {... */\n    tag_194:\n        /* \"@openzeppelin/contracts/security/ReentrancyGuard.sol\":1716:1717  1 */\n      0x01\n        /* \"@openzeppelin/contracts/security/ReentrancyGuard.sol\":2809:2816  _status */\n      0x00\n        /* \"@openzeppelin/contracts/security/ReentrancyGuard.sol\":2809:2831  _status = _NOT_ENTERED */\n      dup2\n      swap1\n      sstore\n      pop\n        /* \"@openzeppelin/contracts/security/ReentrancyGuard.sol\":2629:2838  function _nonReentrantAfter() private {... */\n      jump\t// out\n        /* \"@openzeppelin/contracts/token/ERC20/utils/SafeERC20.sol\":1618:1806  function safeTransferFrom(IERC20 token, address from, address to, uint256 value) internal {... */\n    tag_211:\n        /* \"@openzeppelin/contracts/token/ERC20/utils/SafeERC20.sol\":1718:1799  _callOptionalReturn(token, abi.encodeCall(token.transferFrom, (from, to, value))) */\n      tag_292\n        /* \"@openzeppelin/contracts/token/ERC20/utils/SafeERC20.sol\":1738:1743  token */\n      dup5\n        /* \"@openzeppelin/contracts/token/ERC20/utils/SafeERC20.sol\":1760:1765  token */\n      dup6\n        /* \"@openzeppelin/contracts/token/ERC20/utils/SafeERC20.sol\":1760:1778  token.transferFrom */\n      0xffffffffffffffffffffffffffffffffffffffff\n      and\n      0x23b872dd\n        /* \"@openzeppelin/contracts/token/ERC20/utils/SafeERC20.sol\":1781:1785  from */\n      dup7\n        /* \"@openzeppelin/contracts/token/ERC20/utils/SafeERC20.sol\":1787:1789  to */\n      dup7\n        /* \"@openzeppelin/contracts/token/ERC20/utils/SafeERC20.sol\":1791:1796  value */\n      dup7\n        /* \"@openzeppelin/contracts/token/ERC20/utils/SafeERC20.sol\":1745:1798  abi.encodeCall(token.transferFrom, (from, to, value)) */\n      add(0x24, mload(0x40))\n      tag_293\n      swap4\n      swap3\n      swap2\n      swap1\n      tag_125\n      jump\t// in\n    tag_293:\n      mload(0x40)\n      0x20\n      dup2\n      dup4\n      sub\n      sub\n      dup2\n      mstore\n      swap1\n      0x40\n      mstore\n      swap2\n      pop\n      0xe0\n      shl\n      0x20\n      dup3\n      add\n      dup1\n      mload\n      0xffffffffffffffffffffffffffffffffffffffffffffffffffffffff\n      dup4\n      dup2\n      dup4\n      and\n      or\n      dup4\n      mstore\n      pop\n      pop\n      pop\n      pop\n        /* \"@openzeppelin/contracts/token/ERC20/utils/SafeERC20.sol\":1718:1737  _callOptionalReturn */\n      tag_294\n        /* \"@openzeppelin/contracts/token/ERC20/utils/SafeERC20.sol\":1718:1799  _callOptionalReturn(token, abi.encodeCall(token.transferFrom, (from, to, value))) */\n      jump\t// in\n    tag_292:\n        /* \"@openzeppelin/contracts/token/ERC20/utils/SafeERC20.sol\":1618:1806  function safeTransferFrom(IERC20 token, address from, address to, uint256 value) internal {... */\n      pop\n      pop\n      pop\n      pop\n      jump\t// out\n        /* \"@openzeppelin/contracts/token/ERC20/utils/SafeERC20.sol\":1219:1379  function safeTransfer(IERC20 token, address to, uint256 value) internal {... */\n    tag_213:\n        /* \"@openzeppelin/contracts/token/ERC20/utils/SafeERC20.sol\":1301:1372  _callOptionalReturn(token, abi.encodeCall(token.transfer, (to, value))) */\n      tag_296\n        /* \"@openzeppelin/contracts/token/ERC20/utils/SafeERC20.sol\":1321:1326  token */\n      dup4\n        /* \"@openzeppelin/contracts/token/ERC20/utils/SafeERC20.sol\":1343:1348  token */\n      dup5\n        /* \"@openzeppelin/contracts/token/ERC20/utils/SafeERC20.sol\":1343:1357  token.transfer */\n      0xffffffffffffffffffffffffffffffffffffffff\n      and\n      0xa9059cbb\n        /* \"@openzeppelin/contracts/token/ERC20/utils/SafeERC20.sol\":1360:1362  to */\n      dup6\n        /* \"@openzeppelin/contracts/token/ERC20/utils/SafeERC20.sol\":1364:1369  value */\n      dup6\n        /* \"@openzeppelin/contracts/token/ERC20/utils/SafeERC20.sol\":1328:1371  abi.encodeCall(token.transfer, (to, value)) */\n      add(0x24, mload(0x40))\n      tag_297\n      swap3\n      swap2\n      swap1\n      tag_160\n      jump\t// in\n    tag_297:\n      mload(0x40)\n      0x20\n      dup2\n      dup4\n      sub\n      sub\n      dup2\n      mstore\n      swap1\n      0x40\n      mstore\n      swap2\n      pop\n      0xe0\n      shl\n      0x20\n      dup3\n      add\n      dup1\n      mload\n      0xffffffffffffffffffffffffffffffffffffffffffffffffffffffff\n      dup4\n      dup2\n      dup4\n      and\n      or\n      dup4\n      mstore\n      pop\n      pop\n      pop\n      pop\n        /* \"@openzeppelin/contracts/token/ERC20/utils/SafeERC20.sol\":1301:1320  _callOptionalReturn */\n      tag_294\n        /* \"@openzeppelin/contracts/token/ERC20/utils/SafeERC20.sol\":1301:1372  _callOptionalReturn(token, abi.encodeCall(token.transfer, (to, value))) */\n      jump\t// in\n    tag_296:\n        /* \"@openzeppelin/contracts/token/ERC20/utils/SafeERC20.sol\":1219:1379  function safeTransfer(IERC20 token, address to, uint256 value) internal {... */\n      pop\n      pop\n      pop\n      jump\t// out\n        /* \"@openzeppelin/contracts/utils/Context.sol\":656:752  function _msgSender() internal view virtual returns (address) {... */\n    tag_270:\n        /* \"@openzeppelin/contracts/utils/Context.sol\":709:716  address */\n      0x00\n        /* \"@openzeppelin/contracts/utils/Context.sol\":735:745  msg.sender */\n      caller\n        /* \"@openzeppelin/contracts/utils/Context.sol\":728:745  return msg.sender */\n      swap1\n      pop\n        /* \"@openzeppelin/contracts/utils/Context.sol\":656:752  function _msgSender() internal view virtual returns (address) {... */\n      swap1\n      jump\t// out\n        /* \"@openzeppelin/contracts/token/ERC20/utils/SafeERC20.sol\":8370:9090  function _callOptionalReturn(IERC20 token, bytes memory data) private {... */\n    tag_294:\n        /* \"@openzeppelin/contracts/token/ERC20/utils/SafeERC20.sol\":8450:8468  uint256 returnSize */\n      0x00\n        /* \"@openzeppelin/contracts/token/ERC20/utils/SafeERC20.sol\":8478:8497  uint256 returnValue */\n      0x00\n        /* \"@openzeppelin/contracts/token/ERC20/utils/SafeERC20.sol\":8616:8620  0x20 */\n      0x20\n        /* \"@openzeppelin/contracts/token/ERC20/utils/SafeERC20.sol\":8613:8614  0 */\n      0x00\n        /* \"@openzeppelin/contracts/token/ERC20/utils/SafeERC20.sol\":8606:8610  data */\n      dup5\n        /* \"@openzeppelin/contracts/token/ERC20/utils/SafeERC20.sol\":8600:8611  mload(data) */\n      mload\n        /* \"@openzeppelin/contracts/token/ERC20/utils/SafeERC20.sol\":8593:8597  0x20 */\n      0x20\n        /* \"@openzeppelin/contracts/token/ERC20/utils/SafeERC20.sol\":8587:8591  data */\n      dup7\n        /* \"@openzeppelin/contracts/token/ERC20/utils/SafeERC20.sol\":8583:8598  add(data, 0x20) */\n      add\n        /* \"@openzeppelin/contracts/token/ERC20/utils/SafeERC20.sol\":8580:8581  0 */\n      0x00\n        /* \"@openzeppelin/contracts/token/ERC20/utils/SafeERC20.sol\":8573:8578  token */\n      dup9\n        /* \"@openzeppelin/contracts/token/ERC20/utils/SafeERC20.sol\":8566:8571  gas() */\n      gas\n        /* \"@openzeppelin/contracts/token/ERC20/utils/SafeERC20.sol\":8561:8621  call(gas(), token, 0, add(data, 0x20), mload(data), 0, 0x20) */\n      call\n        /* \"@openzeppelin/contracts/token/ERC20/utils/SafeERC20.sol\":8673:8680  success */\n      dup1\n        /* \"@openzeppelin/contracts/token/ERC20/utils/SafeERC20.sol\":8663:8839  if iszero(success) {... */\n      tag_300\n      jumpi\n        /* \"@openzeppelin/contracts/token/ERC20/utils/SafeERC20.sol\":8717:8721  0x40 */\n      0x40\n        /* \"@openzeppelin/contracts/token/ERC20/utils/SafeERC20.sol\":8711:8722  mload(0x40) */\n      mload\n        /* \"@openzeppelin/contracts/token/ERC20/utils/SafeERC20.sol\":8762:8778  returndatasize() */\n      returndatasize\n        /* \"@openzeppelin/contracts/token/ERC20/utils/SafeERC20.sol\":8759:8760  0 */\n      0x00\n        /* \"@openzeppelin/contracts/token/ERC20/utils/SafeERC20.sol\":8754:8757  ptr */\n      dup3\n        /* \"@openzeppelin/contracts/token/ERC20/utils/SafeERC20.sol\":8739:8779  returndatacopy(ptr, 0, returndatasize()) */\n      returndatacopy\n        /* \"@openzeppelin/contracts/token/ERC20/utils/SafeERC20.sol\":8808:8824  returndatasize() */\n      returndatasize\n        /* \"@openzeppelin/contracts/token/ERC20/utils/SafeERC20.sol\":8803:8806  ptr */\n      dup2\n        /* \"@openzeppelin/contracts/token/ERC20/utils/SafeERC20.sol\":8796:8825  revert(ptr, returndatasize()) */\n      revert\n        /* \"@openzeppelin/contracts/token/ERC20/utils/SafeERC20.sol\":8663:8839  if iszero(success) {... */\n    tag_300:\n        /* \"@openzeppelin/contracts/token/ERC20/utils/SafeERC20.sol\":8866:8882  returndatasize() */\n      returndatasize\n        /* \"@openzeppelin/contracts/token/ERC20/utils/SafeERC20.sol\":8852:8882  returnSize := returndatasize() */\n      swap3\n      pop\n        /* \"@openzeppelin/contracts/token/ERC20/utils/SafeERC20.sol\":8916:8917  0 */\n      0x00\n        /* \"@openzeppelin/contracts/token/ERC20/utils/SafeERC20.sol\":8910:8918  mload(0) */\n      mload\n        /* \"@openzeppelin/contracts/token/ERC20/utils/SafeERC20.sol\":8895:8918  returnValue := mload(0) */\n      swap2\n      pop\n        /* \"@openzeppelin/contracts/token/ERC20/utils/SafeERC20.sol\":8532:8928  {... */\n      pop\n        /* \"@openzeppelin/contracts/token/ERC20/utils/SafeERC20.sol\":8956:8957  0 */\n      0x00\n        /* \"@openzeppelin/contracts/token/ERC20/utils/SafeERC20.sol\":8942:8952  returnSize */\n      dup3\n        /* \"@openzeppelin/contracts/token/ERC20/utils/SafeERC20.sol\":8942:8957  returnSize == 0 */\n      eq\n        /* \"@openzeppelin/contracts/token/ERC20/utils/SafeERC20.sol\":8942:9010  returnSize == 0 ? address(token).code.length == 0 : returnValue != 1 */\n      tag_301\n      jumpi\n        /* \"@openzeppelin/contracts/token/ERC20/utils/SafeERC20.sol\":9009:9010  1 */\n      0x01\n        /* \"@openzeppelin/contracts/token/ERC20/utils/SafeERC20.sol\":8994:9005  returnValue */\n      dup2\n        /* \"@openzeppelin/contracts/token/ERC20/utils/SafeERC20.sol\":8994:9010  returnValue != 1 */\n      eq\n      iszero\n        /* \"@openzeppelin/contracts/token/ERC20/utils/SafeERC20.sol\":8942:9010  returnSize == 0 ? address(token).code.length == 0 : returnValue != 1 */\n      jump(tag_302)\n    tag_301:\n        /* \"@openzeppelin/contracts/token/ERC20/utils/SafeERC20.sol\":8990:8991  0 */\n      0x00\n        /* \"@openzeppelin/contracts/token/ERC20/utils/SafeERC20.sol\":8968:8973  token */\n      dup5\n        /* \"@openzeppelin/contracts/token/ERC20/utils/SafeERC20.sol\":8960:8986  address(token).code.length */\n      0xffffffffffffffffffffffffffffffffffffffff\n      and\n      extcodesize\n        /* \"@openzeppelin/contracts/token/ERC20/utils/SafeERC20.sol\":8960:8991  address(token).code.length == 0 */\n      eq\n        /* \"@openzeppelin/contracts/token/ERC20/utils/SafeERC20.sol\":8942:9010  returnSize == 0 ? address(token).code.length == 0 : returnValue != 1 */\n    tag_302:\n        /* \"@openzeppelin/contracts/token/ERC20/utils/SafeERC20.sol\":8938:9084  if (returnSize == 0 ? address(token).code.length == 0 : returnValue != 1) {... */\n      iszero\n      tag_303\n      jumpi\n        /* \"@openzeppelin/contracts/token/ERC20/utils/SafeERC20.sol\":9066:9071  token */\n      dup4\n        /* \"@openzeppelin/contracts/token/ERC20/utils/SafeERC20.sol\":9033:9073  SafeERC20FailedOperation(address(token)) */\n      mload(0x40)\n      0x5274afe700000000000000000000000000000000000000000000000000000000\n      dup2\n      mstore\n      0x04\n      add\n      tag_304\n      swap2\n      swap1\n      tag_71\n      jump\t// in\n    tag_304:\n      mload(0x40)\n      dup1\n      swap2\n      sub\n      swap1\n      revert\n        /* \"@openzeppelin/contracts/token/ERC20/utils/SafeERC20.sol\":8938:9084  if (returnSize == 0 ? address(token).code.length == 0 : returnValue != 1) {... */\n    tag_303:\n        /* \"@openzeppelin/contracts/token/ERC20/utils/SafeERC20.sol\":8440:9090  {... */\n      pop\n      pop\n        /* \"@openzeppelin/contracts/token/ERC20/utils/SafeERC20.sol\":8370:9090  function _callOptionalReturn(IERC20 token, bytes memory data) private {... */\n      pop\n      pop\n      jump\t// out\n        /* \"#utility.yul\":88:205   */\n    tag_306:\n        /* \"#utility.yul\":197:198   */\n      0x00\n        /* \"#utility.yul\":194:195   */\n      0x00\n        /* \"#utility.yul\":187:199   */\n      revert\n        /* \"#utility.yul\":211:328   */\n    tag_307:\n        /* \"#utility.yul\":320:321   */\n      0x00\n        /* \"#utility.yul\":317:318   */\n      0x00\n        /* \"#utility.yul\":310:322   */\n      revert\n        /* \"#utility.yul\":334:411   */\n    tag_308:\n        /* \"#utility.yul\":371:378   */\n      0x00\n        /* \"#utility.yul\":400:405   */\n      dup2\n        /* \"#utility.yul\":389:405   */\n      swap1\n      pop\n        /* \"#utility.yul\":334:411   */\n      swap2\n      swap1\n      pop\n      jump\t// out\n        /* \"#utility.yul\":417:539   */\n    tag_309:\n        /* \"#utility.yul\":490:514   */\n      tag_367\n        /* \"#utility.yul\":508:513   */\n      dup2\n        /* \"#utility.yul\":490:514   */\n      tag_308\n      jump\t// in\n    tag_367:\n        /* \"#utility.yul\":483:488   */\n      dup2\n        /* \"#utility.yul\":480:515   */\n      eq\n        /* \"#utility.yul\":470:533   */\n      tag_368\n      jumpi\n        /* \"#utility.yul\":529:530   */\n      0x00\n        /* \"#utility.yul\":526:527   */\n      0x00\n        /* \"#utility.yul\":519:531   */\n      revert\n        /* \"#utility.yul\":470:533   */\n    tag_368:\n        /* \"#utility.yul\":417:539   */\n      pop\n      jump\t// out\n        /* \"#utility.yul\":545:684   */\n    tag_310:\n        /* \"#utility.yul\":591:596   */\n      0x00\n        /* \"#utility.yul\":629:635   */\n      dup2\n        /* \"#utility.yul\":616:636   */\n      calldataload\n        /* \"#utility.yul\":607:636   */\n      swap1\n      pop\n        /* \"#utility.yul\":645:678   */\n      tag_370\n        /* \"#utility.yul\":672:677   */\n      dup2\n        /* \"#utility.yul\":645:678   */\n      tag_309\n      jump\t// in\n    tag_370:\n        /* \"#utility.yul\":545:684   */\n      swap3\n      swap2\n      pop\n      pop\n      jump\t// out\n        /* \"#utility.yul\":690:1019   */\n    tag_28:\n        /* \"#utility.yul\":749:755   */\n      0x00\n        /* \"#utility.yul\":798:800   */\n      0x20\n        /* \"#utility.yul\":786:795   */\n      dup3\n        /* \"#utility.yul\":777:784   */\n      dup5\n        /* \"#utility.yul\":773:796   */\n      sub\n        /* \"#utility.yul\":769:801   */\n      slt\n        /* \"#utility.yul\":766:885   */\n      iszero\n      tag_372\n      jumpi\n        /* \"#utility.yul\":804:883   */\n      tag_373\n      tag_306\n      jump\t// in\n    tag_373:\n        /* \"#utility.yul\":766:885   */\n    tag_372:\n        /* \"#utility.yul\":924:925   */\n      0x00\n        /* \"#utility.yul\":949:1002   */\n      tag_374\n        /* \"#utility.yul\":994:1001   */\n      dup5\n        /* \"#utility.yul\":985:991   */\n      dup3\n        /* \"#utility.yul\":974:983   */\n      dup6\n        /* \"#utility.yul\":970:992   */\n      add\n        /* \"#utility.yul\":949:1002   */\n      tag_310\n      jump\t// in\n    tag_374:\n        /* \"#utility.yul\":939:1002   */\n      swap2\n      pop\n        /* \"#utility.yul\":895:1012   */\n      pop\n        /* \"#utility.yul\":690:1019   */\n      swap3\n      swap2\n      pop\n      pop\n      jump\t// out\n        /* \"#utility.yul\":1025:1151   */\n    tag_311:\n        /* \"#utility.yul\":1062:1069   */\n      0x00\n        /* \"#utility.yul\":1102:1144   */\n      0xffffffffffffffffffffffffffffffffffffffff\n        /* \"#utility.yul\":1095:1100   */\n      dup3\n        /* \"#utility.yul\":1091:1145   */\n      and\n        /* \"#utility.yul\":1080:1145   */\n      swap1\n      pop\n        /* \"#utility.yul\":1025:1151   */\n      swap2\n      swap1\n      pop\n      jump\t// out\n        /* \"#utility.yul\":1157:1253   */\n    tag_312:\n        /* \"#utility.yul\":1194:1201   */\n      0x00\n        /* \"#utility.yul\":1223:1247   */\n      tag_377\n        /* \"#utility.yul\":1241:1246   */\n      dup3\n        /* \"#utility.yul\":1223:1247   */\n      tag_311\n      jump\t// in\n    tag_377:\n        /* \"#utility.yul\":1212:1247   */\n      swap1\n      pop\n        /* \"#utility.yul\":1157:1253   */\n      swap2\n      swap1\n      pop\n      jump\t// out\n        /* \"#utility.yul\":1259:1377   */\n    tag_313:\n        /* \"#utility.yul\":1346:1370   */\n      tag_379\n        /* \"#utility.yul\":1364:1369   */\n      dup2\n        /* \"#utility.yul\":1346:1370   */\n      tag_312\n      jump\t// in\n    tag_379:\n        /* \"#utility.yul\":1341:1344   */\n      dup3\n        /* \"#utility.yul\":1334:1371   */\n      mstore\n        /* \"#utility.yul\":1259:1377   */\n      pop\n      pop\n      jump\t// out\n        /* \"#utility.yul\":1383:1501   */\n    tag_314:\n        /* \"#utility.yul\":1470:1494   */\n      tag_381\n        /* \"#utility.yul\":1488:1493   */\n      dup2\n        /* \"#utility.yul\":1470:1494   */\n      tag_308\n      jump\t// in\n    tag_381:\n        /* \"#utility.yul\":1465:1468   */\n      dup3\n        /* \"#utility.yul\":1458:1495   */\n      mstore\n        /* \"#utility.yul\":1383:1501   */\n      pop\n      pop\n      jump\t// out\n        /* \"#utility.yul\":1507:1597   */\n    tag_315:\n        /* \"#utility.yul\":1541:1548   */\n      0x00\n        /* \"#utility.yul\":1584:1589   */\n      dup2\n        /* \"#utility.yul\":1577:1590   */\n      iszero\n        /* \"#utility.yul\":1570:1591   */\n      iszero\n        /* \"#utility.yul\":1559:1591   */\n      swap1\n      pop\n        /* \"#utility.yul\":1507:1597   */\n      swap2\n      swap1\n      pop\n      jump\t// out\n        /* \"#utility.yul\":1603:1712   */\n    tag_316:\n        /* \"#utility.yul\":1684:1705   */\n      tag_384\n        /* \"#utility.yul\":1699:1704   */\n      dup2\n        /* \"#utility.yul\":1684:1705   */\n      tag_315\n      jump\t// in\n    tag_384:\n        /* \"#utility.yul\":1679:1682   */\n      dup3\n        /* \"#utility.yul\":1672:1706   */\n      mstore\n        /* \"#utility.yul\":1603:1712   */\n      pop\n      pop\n      jump\t// out\n        /* \"#utility.yul\":1718:2259   */\n    tag_31:\n        /* \"#utility.yul\":1889:1893   */\n      0x00\n        /* \"#utility.yul\":1927:1930   */\n      0x80\n        /* \"#utility.yul\":1916:1925   */\n      dup3\n        /* \"#utility.yul\":1912:1931   */\n      add\n        /* \"#utility.yul\":1904:1931   */\n      swap1\n      pop\n        /* \"#utility.yul\":1941:2012   */\n      tag_386\n        /* \"#utility.yul\":2009:2010   */\n      0x00\n        /* \"#utility.yul\":1998:2007   */\n      dup4\n        /* \"#utility.yul\":1994:2011   */\n      add\n        /* \"#utility.yul\":1985:1991   */\n      dup8\n        /* \"#utility.yul\":1941:2012   */\n      tag_313\n      jump\t// in\n    tag_386:\n        /* \"#utility.yul\":2022:2094   */\n      tag_387\n        /* \"#utility.yul\":2090:2092   */\n      0x20\n        /* \"#utility.yul\":2079:2088   */\n      dup4\n        /* \"#utility.yul\":2075:2093   */\n      add\n        /* \"#utility.yul\":2066:2072   */\n      dup7\n        /* \"#utility.yul\":2022:2094   */\n      tag_314\n      jump\t// in\n    tag_387:\n        /* \"#utility.yul\":2104:2176   */\n      tag_388\n        /* \"#utility.yul\":2172:2174   */\n      0x40\n        /* \"#utility.yul\":2161:2170   */\n      dup4\n        /* \"#utility.yul\":2157:2175   */\n      add\n        /* \"#utility.yul\":2148:2154   */\n      dup6\n        /* \"#utility.yul\":2104:2176   */\n      tag_314\n      jump\t// in\n    tag_388:\n        /* \"#utility.yul\":2186:2252   */\n      tag_389\n        /* \"#utility.yul\":2248:2250   */\n      0x60\n        /* \"#utility.yul\":2237:2246   */\n      dup4\n        /* \"#utility.yul\":2233:2251   */\n      add\n        /* \"#utility.yul\":2224:2230   */\n      dup5\n        /* \"#utility.yul\":2186:2252   */\n      tag_316\n      jump\t// in\n    tag_389:\n        /* \"#utility.yul\":1718:2259   */\n      swap6\n      swap5\n      pop\n      pop\n      pop\n      pop\n      pop\n      jump\t// out\n        /* \"#utility.yul\":2265:2387   */\n    tag_317:\n        /* \"#utility.yul\":2338:2362   */\n      tag_391\n        /* \"#utility.yul\":2356:2361   */\n      dup2\n        /* \"#utility.yul\":2338:2362   */\n      tag_312\n      jump\t// in\n    tag_391:\n        /* \"#utility.yul\":2331:2336   */\n      dup2\n        /* \"#utility.yul\":2328:2363   */\n      eq\n        /* \"#utility.yul\":2318:2381   */\n      tag_392\n      jumpi\n        /* \"#utility.yul\":2377:2378   */\n      0x00\n        /* \"#utility.yul\":2374:2375   */\n      0x00\n        /* \"#utility.yul\":2367:2379   */\n      revert\n        /* \"#utility.yul\":2318:2381   */\n    tag_392:\n        /* \"#utility.yul\":2265:2387   */\n      pop\n      jump\t// out\n        /* \"#utility.yul\":2393:2532   */\n    tag_318:\n        /* \"#utility.yul\":2439:2444   */\n      0x00\n        /* \"#utility.yul\":2477:2483   */\n      dup2\n        /* \"#utility.yul\":2464:2484   */\n      calldataload\n        /* \"#utility.yul\":2455:2484   */\n      swap1\n      pop\n        /* \"#utility.yul\":2493:2526   */\n      tag_394\n        /* \"#utility.yul\":2520:2525   */\n      dup2\n        /* \"#utility.yul\":2493:2526   */\n      tag_317\n      jump\t// in\n    tag_394:\n        /* \"#utility.yul\":2393:2532   */\n      swap3\n      swap2\n      pop\n      pop\n      jump\t// out\n        /* \"#utility.yul\":2538:2655   */\n    tag_319:\n        /* \"#utility.yul\":2647:2648   */\n      0x00\n        /* \"#utility.yul\":2644:2645   */\n      0x00\n        /* \"#utility.yul\":2637:2649   */\n      revert\n        /* \"#utility.yul\":2661:2778   */\n    tag_320:\n        /* \"#utility.yul\":2770:2771   */\n      0x00\n        /* \"#utility.yul\":2767:2768   */\n      0x00\n        /* \"#utility.yul\":2760:2772   */\n      revert\n        /* \"#utility.yul\":2784:2901   */\n    tag_321:\n        /* \"#utility.yul\":2893:2894   */\n      0x00\n        /* \"#utility.yul\":2890:2891   */\n      0x00\n        /* \"#utility.yul\":2883:2895   */\n      revert\n        /* \"#utility.yul\":2920:3472   */\n    tag_322:\n        /* \"#utility.yul\":2977:2985   */\n      0x00\n        /* \"#utility.yul\":2987:2993   */\n      0x00\n        /* \"#utility.yul\":3037:3040   */\n      dup4\n        /* \"#utility.yul\":3030:3034   */\n      0x1f\n        /* \"#utility.yul\":3022:3028   */\n      dup5\n        /* \"#utility.yul\":3018:3035   */\n      add\n        /* \"#utility.yul\":3014:3041   */\n      slt\n        /* \"#utility.yul\":3004:3126   */\n      tag_399\n      jumpi\n        /* \"#utility.yul\":3045:3124   */\n      tag_400\n      tag_319\n      jump\t// in\n    tag_400:\n        /* \"#utility.yul\":3004:3126   */\n    tag_399:\n        /* \"#utility.yul\":3158:3164   */\n      dup3\n        /* \"#utility.yul\":3145:3165   */\n      calldataload\n        /* \"#utility.yul\":3135:3165   */\n      swap1\n      pop\n        /* \"#utility.yul\":3188:3206   */\n      0xffffffffffffffff\n        /* \"#utility.yul\":3180:3186   */\n      dup2\n        /* \"#utility.yul\":3177:3207   */\n      gt\n        /* \"#utility.yul\":3174:3291   */\n      iszero\n      tag_401\n      jumpi\n        /* \"#utility.yul\":3210:3289   */\n      tag_402\n      tag_320\n      jump\t// in\n    tag_402:\n        /* \"#utility.yul\":3174:3291   */\n    tag_401:\n        /* \"#utility.yul\":3324:3328   */\n      0x20\n        /* \"#utility.yul\":3316:3322   */\n      dup4\n        /* \"#utility.yul\":3312:3329   */\n      add\n        /* \"#utility.yul\":3300:3329   */\n      swap2\n      pop\n        /* \"#utility.yul\":3378:3381   */\n      dup4\n        /* \"#utility.yul\":3370:3374   */\n      0x01\n        /* \"#utility.yul\":3362:3368   */\n      dup3\n        /* \"#utility.yul\":3358:3375   */\n      mul\n        /* \"#utility.yul\":3348:3356   */\n      dup4\n        /* \"#utility.yul\":3344:3376   */\n      add\n        /* \"#utility.yul\":3341:3382   */\n      gt\n        /* \"#utility.yul\":3338:3466   */\n      iszero\n      tag_403\n      jumpi\n        /* \"#utility.yul\":3385:3464   */\n      tag_404\n      tag_321\n      jump\t// in\n    tag_404:\n        /* \"#utility.yul\":3338:3466   */\n    tag_403:\n        /* \"#utility.yul\":2920:3472   */\n      swap3\n      pop\n      swap3\n      swap1\n      pop\n      jump\t// out\n        /* \"#utility.yul\":3478:4441   */\n    tag_35:\n        /* \"#utility.yul\":3575:3581   */\n      0x00\n        /* \"#utility.yul\":3583:3589   */\n      0x00\n        /* \"#utility.yul\":3591:3597   */\n      0x00\n        /* \"#utility.yul\":3599:3605   */\n      0x00\n        /* \"#utility.yul\":3607:3613   */\n      0x00\n        /* \"#utility.yul\":3656:3659   */\n      0x80\n        /* \"#utility.yul\":3644:3653   */\n      dup7\n        /* \"#utility.yul\":3635:3642   */\n      dup9\n        /* \"#utility.yul\":3631:3654   */\n      sub\n        /* \"#utility.yul\":3627:3660   */\n      slt\n        /* \"#utility.yul\":3624:3744   */\n      iszero\n      tag_406\n      jumpi\n        /* \"#utility.yul\":3663:3742   */\n      tag_407\n      tag_306\n      jump\t// in\n    tag_407:\n        /* \"#utility.yul\":3624:3744   */\n    tag_406:\n        /* \"#utility.yul\":3783:3784   */\n      0x00\n        /* \"#utility.yul\":3808:3861   */\n      tag_408\n        /* \"#utility.yul\":3853:3860   */\n      dup9\n        /* \"#utility.yul\":3844:3850   */\n      dup3\n        /* \"#utility.yul\":3833:3842   */\n      dup10\n        /* \"#utility.yul\":3829:3851   */\n      add\n        /* \"#utility.yul\":3808:3861   */\n      tag_318\n      jump\t// in\n    tag_408:\n        /* \"#utility.yul\":3798:3861   */\n      swap6\n      pop\n        /* \"#utility.yul\":3754:3871   */\n      pop\n        /* \"#utility.yul\":3910:3912   */\n      0x20\n        /* \"#utility.yul\":3936:3989   */\n      tag_409\n        /* \"#utility.yul\":3981:3988   */\n      dup9\n        /* \"#utility.yul\":3972:3978   */\n      dup3\n        /* \"#utility.yul\":3961:3970   */\n      dup10\n        /* \"#utility.yul\":3957:3979   */\n      add\n        /* \"#utility.yul\":3936:3989   */\n      tag_318\n      jump\t// in\n    tag_409:\n        /* \"#utility.yul\":3926:3989   */\n      swap5\n      pop\n        /* \"#utility.yul\":3881:3999   */\n      pop\n        /* \"#utility.yul\":4038:4040   */\n      0x40\n        /* \"#utility.yul\":4064:4117   */\n      tag_410\n        /* \"#utility.yul\":4109:4116   */\n      dup9\n        /* \"#utility.yul\":4100:4106   */\n      dup3\n        /* \"#utility.yul\":4089:4098   */\n      dup10\n        /* \"#utility.yul\":4085:4107   */\n      add\n        /* \"#utility.yul\":4064:4117   */\n      tag_310\n      jump\t// in\n    tag_410:\n        /* \"#utility.yul\":4054:4117   */\n      swap4\n      pop\n        /* \"#utility.yul\":4009:4127   */\n      pop\n        /* \"#utility.yul\":4194:4196   */\n      0x60\n        /* \"#utility.yul\":4183:4192   */\n      dup7\n        /* \"#utility.yul\":4179:4197   */\n      add\n        /* \"#utility.yul\":4166:4198   */\n      calldataload\n        /* \"#utility.yul\":4225:4243   */\n      0xffffffffffffffff\n        /* \"#utility.yul\":4217:4223   */\n      dup2\n        /* \"#utility.yul\":4214:4244   */\n      gt\n        /* \"#utility.yul\":4211:4328   */\n      iszero\n      tag_411\n      jumpi\n        /* \"#utility.yul\":4247:4326   */\n      tag_412\n      tag_307\n      jump\t// in\n    tag_412:\n        /* \"#utility.yul\":4211:4328   */\n    tag_411:\n        /* \"#utility.yul\":4360:4424   */\n      tag_413\n        /* \"#utility.yul\":4416:4423   */\n      dup9\n        /* \"#utility.yul\":4407:4413   */\n      dup3\n        /* \"#utility.yul\":4396:4405   */\n      dup10\n        /* \"#utility.yul\":4392:4414   */\n      add\n        /* \"#utility.yul\":4360:4424   */\n      tag_322\n      jump\t// in\n    tag_413:\n        /* \"#utility.yul\":4342:4424   */\n      swap3\n      pop\n      swap3\n      pop\n        /* \"#utility.yul\":4137:4434   */\n      pop\n        /* \"#utility.yul\":3478:4441   */\n      swap3\n      swap6\n      pop\n      swap3\n      swap6\n      swap1\n      swap4\n      pop\n      jump\t// out\n        /* \"#utility.yul\":4447:4596   */\n    tag_323:\n        /* \"#utility.yul\":4483:4490   */\n      0x00\n        /* \"#utility.yul\":4523:4589   */\n      0xffffffff00000000000000000000000000000000000000000000000000000000\n        /* \"#utility.yul\":4516:4521   */\n      dup3\n        /* \"#utility.yul\":4512:4590   */\n      and\n        /* \"#utility.yul\":4501:4590   */\n      swap1\n      pop\n        /* \"#utility.yul\":4447:4596   */\n      swap2\n      swap1\n      pop\n      jump\t// out\n        /* \"#utility.yul\":4602:4717   */\n    tag_324:\n        /* \"#utility.yul\":4687:4710   */\n      tag_416\n        /* \"#utility.yul\":4704:4709   */\n      dup2\n        /* \"#utility.yul\":4687:4710   */\n      tag_323\n      jump\t// in\n    tag_416:\n        /* \"#utility.yul\":4682:4685   */\n      dup3\n        /* \"#utility.yul\":4675:4711   */\n      mstore\n        /* \"#utility.yul\":4602:4717   */\n      pop\n      pop\n      jump\t// out\n        /* \"#utility.yul\":4723:4941   */\n    tag_38:\n        /* \"#utility.yul\":4814:4818   */\n      0x00\n        /* \"#utility.yul\":4852:4854   */\n      0x20\n        /* \"#utility.yul\":4841:4850   */\n      dup3\n        /* \"#utility.yul\":4837:4855   */\n      add\n        /* \"#utility.yul\":4829:4855   */\n      swap1\n      pop\n        /* \"#utility.yul\":4865:4934   */\n      tag_418\n        /* \"#utility.yul\":4931:4932   */\n      0x00\n        /* \"#utility.yul\":4920:4929   */\n      dup4\n        /* \"#utility.yul\":4916:4933   */\n      add\n        /* \"#utility.yul\":4907:4913   */\n      dup5\n        /* \"#utility.yul\":4865:4934   */\n      tag_324\n      jump\t// in\n    tag_418:\n        /* \"#utility.yul\":4723:4941   */\n      swap3\n      swap2\n      pop\n      pop\n      jump\t// out\n        /* \"#utility.yul\":4947:5712   */\n    tag_42:\n        /* \"#utility.yul\":5033:5039   */\n      0x00\n        /* \"#utility.yul\":5041:5047   */\n      0x00\n        /* \"#utility.yul\":5049:5055   */\n      0x00\n        /* \"#utility.yul\":5057:5063   */\n      0x00\n        /* \"#utility.yul\":5106:5109   */\n      0x80\n        /* \"#utility.yul\":5094:5103   */\n      dup6\n        /* \"#utility.yul\":5085:5092   */\n      dup8\n        /* \"#utility.yul\":5081:5104   */\n      sub\n        /* \"#utility.yul\":5077:5110   */\n      slt\n        /* \"#utility.yul\":5074:5194   */\n      iszero\n      tag_420\n      jumpi\n        /* \"#utility.yul\":5113:5192   */\n      tag_421\n      tag_306\n      jump\t// in\n    tag_421:\n        /* \"#utility.yul\":5074:5194   */\n    tag_420:\n        /* \"#utility.yul\":5233:5234   */\n      0x00\n        /* \"#utility.yul\":5258:5311   */\n      tag_422\n        /* \"#utility.yul\":5303:5310   */\n      dup8\n        /* \"#utility.yul\":5294:5300   */\n      dup3\n        /* \"#utility.yul\":5283:5292   */\n      dup9\n        /* \"#utility.yul\":5279:5301   */\n      add\n        /* \"#utility.yul\":5258:5311   */\n      tag_310\n      jump\t// in\n    tag_422:\n        /* \"#utility.yul\":5248:5311   */\n      swap5\n      pop\n        /* \"#utility.yul\":5204:5321   */\n      pop\n        /* \"#utility.yul\":5360:5362   */\n      0x20\n        /* \"#utility.yul\":5386:5439   */\n      tag_423\n        /* \"#utility.yul\":5431:5438   */\n      dup8\n        /* \"#utility.yul\":5422:5428   */\n      dup3\n        /* \"#utility.yul\":5411:5420   */\n      dup9\n        /* \"#utility.yul\":5407:5429   */\n      add\n        /* \"#utility.yul\":5386:5439   */\n      tag_310\n      jump\t// in\n    tag_423:\n        /* \"#utility.yul\":5376:5439   */\n      swap4\n      pop\n        /* \"#utility.yul\":5331:5449   */\n      pop\n        /* \"#utility.yul\":5488:5490   */\n      0x40\n        /* \"#utility.yul\":5514:5567   */\n      tag_424\n        /* \"#utility.yul\":5559:5566   */\n      dup8\n        /* \"#utility.yul\":5550:5556   */\n      dup3\n        /* \"#utility.yul\":5539:5548   */\n      dup9\n        /* \"#utility.yul\":5535:5557   */\n      add\n        /* \"#utility.yul\":5514:5567   */\n      tag_310\n      jump\t// in\n    tag_424:\n        /* \"#utility.yul\":5504:5567   */\n      swap3\n      pop\n        /* \"#utility.yul\":5459:5577   */\n      pop\n        /* \"#utility.yul\":5616:5618   */\n      0x60\n        /* \"#utility.yul\":5642:5695   */\n      tag_425\n        /* \"#utility.yul\":5687:5694   */\n      dup8\n        /* \"#utility.yul\":5678:5684   */\n      dup3\n        /* \"#utility.yul\":5667:5676   */\n      dup9\n        /* \"#utility.yul\":5663:5685   */\n      add\n        /* \"#utility.yul\":5642:5695   */\n      tag_318\n      jump\t// in\n    tag_425:\n        /* \"#utility.yul\":5632:5695   */\n      swap2\n      pop\n        /* \"#utility.yul\":5587:5705   */\n      pop\n        /* \"#utility.yul\":4947:5712   */\n      swap3\n      swap6\n      swap2\n      swap5\n      pop\n      swap3\n      pop\n      jump\t// out\n        /* \"#utility.yul\":5718:6192   */\n    tag_47:\n        /* \"#utility.yul\":5786:5792   */\n      0x00\n        /* \"#utility.yul\":5794:5800   */\n      0x00\n        /* \"#utility.yul\":5843:5845   */\n      0x40\n        /* \"#utility.yul\":5831:5840   */\n      dup4\n        /* \"#utility.yul\":5822:5829   */\n      dup6\n        /* \"#utility.yul\":5818:5841   */\n      sub\n        /* \"#utility.yul\":5814:5846   */\n      slt\n        /* \"#utility.yul\":5811:5930   */\n      iszero\n      tag_427\n      jumpi\n        /* \"#utility.yul\":5849:5928   */\n      tag_428\n      tag_306\n      jump\t// in\n    tag_428:\n        /* \"#utility.yul\":5811:5930   */\n    tag_427:\n        /* \"#utility.yul\":5969:5970   */\n      0x00\n        /* \"#utility.yul\":5994:6047   */\n      tag_429\n        /* \"#utility.yul\":6039:6046   */\n      dup6\n        /* \"#utility.yul\":6030:6036   */\n      dup3\n        /* \"#utility.yul\":6019:6028   */\n      dup7\n        /* \"#utility.yul\":6015:6037   */\n      add\n        /* \"#utility.yul\":5994:6047   */\n      tag_310\n      jump\t// in\n    tag_429:\n        /* \"#utility.yul\":5984:6047   */\n      swap3\n      pop\n        /* \"#utility.yul\":5940:6057   */\n      pop\n        /* \"#utility.yul\":6096:6098   */\n      0x20\n        /* \"#utility.yul\":6122:6175   */\n      tag_430\n        /* \"#utility.yul\":6167:6174   */\n      dup6\n        /* \"#utility.yul\":6158:6164   */\n      dup3\n        /* \"#utility.yul\":6147:6156   */\n      dup7\n        /* \"#utility.yul\":6143:6165   */\n      add\n        /* \"#utility.yul\":6122:6175   */\n      tag_318\n      jump\t// in\n    tag_430:\n        /* \"#utility.yul\":6112:6175   */\n      swap2\n      pop\n        /* \"#utility.yul\":6067:6185   */\n      pop\n        /* \"#utility.yul\":5718:6192   */\n      swap3\n      pop\n      swap3\n      swap1\n      pop\n      jump\t// out\n        /* \"#utility.yul\":6198:6672   */\n    tag_52:\n        /* \"#utility.yul\":6266:6272   */\n      0x00\n        /* \"#utility.yul\":6274:6280   */\n      0x00\n        /* \"#utility.yul\":6323:6325   */\n      0x40\n        /* \"#utility.yul\":6311:6320   */\n      dup4\n        /* \"#utility.yul\":6302:6309   */\n      dup6\n        /* \"#utility.yul\":6298:6321   */\n      sub\n        /* \"#utility.yul\":6294:6326   */\n      slt\n        /* \"#utility.yul\":6291:6410   */\n      iszero\n      tag_432\n      jumpi\n        /* \"#utility.yul\":6329:6408   */\n      tag_433\n      tag_306\n      jump\t// in\n    tag_433:\n        /* \"#utility.yul\":6291:6410   */\n    tag_432:\n        /* \"#utility.yul\":6449:6450   */\n      0x00\n        /* \"#utility.yul\":6474:6527   */\n      tag_434\n        /* \"#utility.yul\":6519:6526   */\n      dup6\n        /* \"#utility.yul\":6510:6516   */\n      dup3\n        /* \"#utility.yul\":6499:6508   */\n      dup7\n        /* \"#utility.yul\":6495:6517   */\n      add\n        /* \"#utility.yul\":6474:6527   */\n      tag_318\n      jump\t// in\n    tag_434:\n        /* \"#utility.yul\":6464:6527   */\n      swap3\n      pop\n        /* \"#utility.yul\":6420:6537   */\n      pop\n        /* \"#utility.yul\":6576:6578   */\n      0x20\n        /* \"#utility.yul\":6602:6655   */\n      tag_435\n        /* \"#utility.yul\":6647:6654   */\n      dup6\n        /* \"#utility.yul\":6638:6644   */\n      dup3\n        /* \"#utility.yul\":6627:6636   */\n      dup7\n        /* \"#utility.yul\":6623:6645   */\n      add\n        /* \"#utility.yul\":6602:6655   */\n      tag_318\n      jump\t// in\n    tag_435:\n        /* \"#utility.yul\":6592:6655   */\n      swap2\n      pop\n        /* \"#utility.yul\":6547:6665   */\n      pop\n        /* \"#utility.yul\":6198:6672   */\n      swap3\n      pop\n      swap3\n      swap1\n      pop\n      jump\t// out\n        /* \"#utility.yul\":6678:6782   */\n    tag_325:\n        /* \"#utility.yul\":6723:6730   */\n      0x00\n        /* \"#utility.yul\":6752:6776   */\n      tag_437\n        /* \"#utility.yul\":6770:6775   */\n      dup3\n        /* \"#utility.yul\":6752:6776   */\n      tag_311\n      jump\t// in\n    tag_437:\n        /* \"#utility.yul\":6741:6776   */\n      swap1\n      pop\n        /* \"#utility.yul\":6678:6782   */\n      swap2\n      swap1\n      pop\n      jump\t// out\n        /* \"#utility.yul\":6788:6930   */\n    tag_326:\n        /* \"#utility.yul\":6891:6923   */\n      tag_439\n        /* \"#utility.yul\":6917:6922   */\n      dup2\n        /* \"#utility.yul\":6891:6923   */\n      tag_325\n      jump\t// in\n    tag_439:\n        /* \"#utility.yul\":6886:6889   */\n      dup3\n        /* \"#utility.yul\":6879:6924   */\n      mstore\n        /* \"#utility.yul\":6788:6930   */\n      pop\n      pop\n      jump\t// out\n        /* \"#utility.yul\":6936:7190   */\n    tag_58:\n        /* \"#utility.yul\":7045:7049   */\n      0x00\n        /* \"#utility.yul\":7083:7085   */\n      0x20\n        /* \"#utility.yul\":7072:7081   */\n      dup3\n        /* \"#utility.yul\":7068:7086   */\n      add\n        /* \"#utility.yul\":7060:7086   */\n      swap1\n      pop\n        /* \"#utility.yul\":7096:7183   */\n      tag_441\n        /* \"#utility.yul\":7180:7181   */\n      0x00\n        /* \"#utility.yul\":7169:7178   */\n      dup4\n        /* \"#utility.yul\":7165:7182   */\n      add\n        /* \"#utility.yul\":7156:7162   */\n      dup5\n        /* \"#utility.yul\":7096:7183   */\n      tag_326\n      jump\t// in\n    tag_441:\n        /* \"#utility.yul\":6936:7190   */\n      swap3\n      swap2\n      pop\n      pop\n      jump\t// out\n        /* \"#utility.yul\":7196:7256   */\n    tag_327:\n        /* \"#utility.yul\":7224:7227   */\n      0x00\n        /* \"#utility.yul\":7245:7250   */\n      dup2\n        /* \"#utility.yul\":7238:7250   */\n      swap1\n      pop\n        /* \"#utility.yul\":7196:7256   */\n      swap2\n      swap1\n      pop\n      jump\t// out\n        /* \"#utility.yul\":7262:7404   */\n    tag_328:\n        /* \"#utility.yul\":7312:7321   */\n      0x00\n        /* \"#utility.yul\":7345:7398   */\n      tag_444\n        /* \"#utility.yul\":7363:7397   */\n      tag_445\n        /* \"#utility.yul\":7372:7396   */\n      tag_446\n        /* \"#utility.yul\":7390:7395   */\n      dup5\n        /* \"#utility.yul\":7372:7396   */\n      tag_311\n      jump\t// in\n    tag_446:\n        /* \"#utility.yul\":7363:7397   */\n      tag_327\n      jump\t// in\n    tag_445:\n        /* \"#utility.yul\":7345:7398   */\n      tag_311\n      jump\t// in\n    tag_444:\n        /* \"#utility.yul\":7332:7398   */\n      swap1\n      pop\n        /* \"#utility.yul\":7262:7404   */\n      swap2\n      swap1\n      pop\n      jump\t// out\n        /* \"#utility.yul\":7410:7536   */\n    tag_329:\n        /* \"#utility.yul\":7460:7469   */\n      0x00\n        /* \"#utility.yul\":7493:7530   */\n      tag_448\n        /* \"#utility.yul\":7524:7529   */\n      dup3\n        /* \"#utility.yul\":7493:7530   */\n      tag_328\n      jump\t// in\n    tag_448:\n        /* \"#utility.yul\":7480:7530   */\n      swap1\n      pop\n        /* \"#utility.yul\":7410:7536   */\n      swap2\n      swap1\n      pop\n      jump\t// out\n        /* \"#utility.yul\":7542:7682   */\n    tag_330:\n        /* \"#utility.yul\":7606:7615   */\n      0x00\n        /* \"#utility.yul\":7639:7676   */\n      tag_450\n        /* \"#utility.yul\":7670:7675   */\n      dup3\n        /* \"#utility.yul\":7639:7676   */\n      tag_329\n      jump\t// in\n    tag_450:\n        /* \"#utility.yul\":7626:7676   */\n      swap1\n      pop\n        /* \"#utility.yul\":7542:7682   */\n      swap2\n      swap1\n      pop\n      jump\t// out\n        /* \"#utility.yul\":7688:7847   */\n    tag_331:\n        /* \"#utility.yul\":7789:7840   */\n      tag_452\n        /* \"#utility.yul\":7834:7839   */\n      dup2\n        /* \"#utility.yul\":7789:7840   */\n      tag_330\n      jump\t// in\n    tag_452:\n        /* \"#utility.yul\":7784:7787   */\n      dup3\n        /* \"#utility.yul\":7777:7841   */\n      mstore\n        /* \"#utility.yul\":7688:7847   */\n      pop\n      pop\n      jump\t// out\n        /* \"#utility.yul\":7853:8103   */\n    tag_66:\n        /* \"#utility.yul\":7960:7964   */\n      0x00\n        /* \"#utility.yul\":7998:8000   */\n      0x20\n        /* \"#utility.yul\":7987:7996   */\n      dup3\n        /* \"#utility.yul\":7983:8001   */\n      add\n        /* \"#utility.yul\":7975:8001   */\n      swap1\n      pop\n        /* \"#utility.yul\":8011:8096   */\n      tag_454\n        /* \"#utility.yul\":8093:8094   */\n      0x00\n        /* \"#utility.yul\":8082:8091   */\n      dup4\n        /* \"#utility.yul\":8078:8095   */\n      add\n        /* \"#utility.yul\":8069:8075   */\n      dup5\n        /* \"#utility.yul\":8011:8096   */\n      tag_331\n      jump\t// in\n    tag_454:\n        /* \"#utility.yul\":7853:8103   */\n      swap3\n      swap2\n      pop\n      pop\n      jump\t// out\n        /* \"#utility.yul\":8109:8331   */\n    tag_71:\n        /* \"#utility.yul\":8202:8206   */\n      0x00\n        /* \"#utility.yul\":8240:8242   */\n      0x20\n        /* \"#utility.yul\":8229:8238   */\n      dup3\n        /* \"#utility.yul\":8225:8243   */\n      add\n        /* \"#utility.yul\":8217:8243   */\n      swap1\n      pop\n        /* \"#utility.yul\":8253:8324   */\n      tag_456\n        /* \"#utility.yul\":8321:8322   */\n      0x00\n        /* \"#utility.yul\":8310:8319   */\n      dup4\n        /* \"#utility.yul\":8306:8323   */\n      add\n        /* \"#utility.yul\":8297:8303   */\n      dup5\n        /* \"#utility.yul\":8253:8324   */\n      tag_313\n      jump\t// in\n    tag_456:\n        /* \"#utility.yul\":8109:8331   */\n      swap3\n      swap2\n      pop\n      pop\n      jump\t// out\n        /* \"#utility.yul\":8337:8956   */\n    tag_78:\n        /* \"#utility.yul\":8414:8420   */\n      0x00\n        /* \"#utility.yul\":8422:8428   */\n      0x00\n        /* \"#utility.yul\":8430:8436   */\n      0x00\n        /* \"#utility.yul\":8479:8481   */\n      0x60\n        /* \"#utility.yul\":8467:8476   */\n      dup5\n        /* \"#utility.yul\":8458:8465   */\n      dup7\n        /* \"#utility.yul\":8454:8477   */\n      sub\n        /* \"#utility.yul\":8450:8482   */\n      slt\n        /* \"#utility.yul\":8447:8566   */\n      iszero\n      tag_458\n      jumpi\n        /* \"#utility.yul\":8485:8564   */\n      tag_459\n      tag_306\n      jump\t// in\n    tag_459:\n        /* \"#utility.yul\":8447:8566   */\n    tag_458:\n        /* \"#utility.yul\":8605:8606   */\n      0x00\n        /* \"#utility.yul\":8630:8683   */\n      tag_460\n        /* \"#utility.yul\":8675:8682   */\n      dup7\n        /* \"#utility.yul\":8666:8672   */\n      dup3\n        /* \"#utility.yul\":8655:8664   */\n      dup8\n        /* \"#utility.yul\":8651:8673   */\n      add\n        /* \"#utility.yul\":8630:8683   */\n      tag_310\n      jump\t// in\n    tag_460:\n        /* \"#utility.yul\":8620:8683   */\n      swap4\n      pop\n        /* \"#utility.yul\":8576:8693   */\n      pop\n        /* \"#utility.yul\":8732:8734   */\n      0x20\n        /* \"#utility.yul\":8758:8811   */\n      tag_461\n        /* \"#utility.yul\":8803:8810   */\n      dup7\n        /* \"#utility.yul\":8794:8800   */\n      dup3\n        /* \"#utility.yul\":8783:8792   */\n      dup8\n        /* \"#utility.yul\":8779:8801   */\n      add\n        /* \"#utility.yul\":8758:8811   */\n      tag_310\n      jump\t// in\n    tag_461:\n        /* \"#utility.yul\":8748:8811   */\n      swap3\n      pop\n        /* \"#utility.yul\":8703:8821   */\n      pop\n        /* \"#utility.yul\":8860:8862   */\n      0x40\n        /* \"#utility.yul\":8886:8939   */\n      tag_462\n        /* \"#utility.yul\":8931:8938   */\n      dup7\n        /* \"#utility.yul\":8922:8928   */\n      dup3\n        /* \"#utility.yul\":8911:8920   */\n      dup8\n        /* \"#utility.yul\":8907:8929   */\n      add\n        /* \"#utility.yul\":8886:8939   */\n      tag_318\n      jump\t// in\n    tag_462:\n        /* \"#utility.yul\":8876:8939   */\n      swap2\n      pop\n        /* \"#utility.yul\":8831:8949   */\n      pop\n        /* \"#utility.yul\":8337:8956   */\n      swap3\n      pop\n      swap3\n      pop\n      swap3\n      jump\t// out\n        /* \"#utility.yul\":8962:9078   */\n    tag_332:\n        /* \"#utility.yul\":9032:9053   */\n      tag_464\n        /* \"#utility.yul\":9047:9052   */\n      dup2\n        /* \"#utility.yul\":9032:9053   */\n      tag_315\n      jump\t// in\n    tag_464:\n        /* \"#utility.yul\":9025:9030   */\n      dup2\n        /* \"#utility.yul\":9022:9054   */\n      eq\n        /* \"#utility.yul\":9012:9072   */\n      tag_465\n      jumpi\n        /* \"#utility.yul\":9068:9069   */\n      0x00\n        /* \"#utility.yul\":9065:9066   */\n      0x00\n        /* \"#utility.yul\":9058:9070   */\n      revert\n        /* \"#utility.yul\":9012:9072   */\n    tag_465:\n        /* \"#utility.yul\":8962:9078   */\n      pop\n      jump\t// out\n        /* \"#utility.yul\":9084:9217   */\n    tag_333:\n        /* \"#utility.yul\":9127:9132   */\n      0x00\n        /* \"#utility.yul\":9165:9171   */\n      dup2\n        /* \"#utility.yul\":9152:9172   */\n      calldataload\n        /* \"#utility.yul\":9143:9172   */\n      swap1\n      pop\n        /* \"#utility.yul\":9181:9211   */\n      tag_467\n        /* \"#utility.yul\":9205:9210   */\n      dup2\n        /* \"#utility.yul\":9181:9211   */\n      tag_332\n      jump\t// in\n    tag_467:\n        /* \"#utility.yul\":9084:9217   */\n      swap3\n      swap2\n      pop\n      pop\n      jump\t// out\n        /* \"#utility.yul\":9223:10128   */\n    tag_87:\n        /* \"#utility.yul\":9315:9321   */\n      0x00\n        /* \"#utility.yul\":9323:9329   */\n      0x00\n        /* \"#utility.yul\":9331:9337   */\n      0x00\n        /* \"#utility.yul\":9339:9345   */\n      0x00\n        /* \"#utility.yul\":9347:9353   */\n      0x00\n        /* \"#utility.yul\":9396:9399   */\n      0xa0\n        /* \"#utility.yul\":9384:9393   */\n      dup7\n        /* \"#utility.yul\":9375:9382   */\n      dup9\n        /* \"#utility.yul\":9371:9394   */\n      sub\n        /* \"#utility.yul\":9367:9400   */\n      slt\n        /* \"#utility.yul\":9364:9484   */\n      iszero\n      tag_469\n      jumpi\n        /* \"#utility.yul\":9403:9482   */\n      tag_470\n      tag_306\n      jump\t// in\n    tag_470:\n        /* \"#utility.yul\":9364:9484   */\n    tag_469:\n        /* \"#utility.yul\":9523:9524   */\n      0x00\n        /* \"#utility.yul\":9548:9601   */\n      tag_471\n        /* \"#utility.yul\":9593:9600   */\n      dup9\n        /* \"#utility.yul\":9584:9590   */\n      dup3\n        /* \"#utility.yul\":9573:9582   */\n      dup10\n        /* \"#utility.yul\":9569:9591   */\n      add\n        /* \"#utility.yul\":9548:9601   */\n      tag_310\n      jump\t// in\n    tag_471:\n        /* \"#utility.yul\":9538:9601   */\n      swap6\n      pop\n        /* \"#utility.yul\":9494:9611   */\n      pop\n        /* \"#utility.yul\":9650:9652   */\n      0x20\n        /* \"#utility.yul\":9676:9729   */\n      tag_472\n        /* \"#utility.yul\":9721:9728   */\n      dup9\n        /* \"#utility.yul\":9712:9718   */\n      dup3\n        /* \"#utility.yul\":9701:9710   */\n      dup10\n        /* \"#utility.yul\":9697:9719   */\n      add\n        /* \"#utility.yul\":9676:9729   */\n      tag_318\n      jump\t// in\n    tag_472:\n        /* \"#utility.yul\":9666:9729   */\n      swap5\n      pop\n        /* \"#utility.yul\":9621:9739   */\n      pop\n        /* \"#utility.yul\":9778:9780   */\n      0x40\n        /* \"#utility.yul\":9804:9857   */\n      tag_473\n        /* \"#utility.yul\":9849:9856   */\n      dup9\n        /* \"#utility.yul\":9840:9846   */\n      dup3\n        /* \"#utility.yul\":9829:9838   */\n      dup10\n        /* \"#utility.yul\":9825:9847   */\n      add\n        /* \"#utility.yul\":9804:9857   */\n      tag_310\n      jump\t// in\n    tag_473:\n        /* \"#utility.yul\":9794:9857   */\n      swap4\n      pop\n        /* \"#utility.yul\":9749:9867   */\n      pop\n        /* \"#utility.yul\":9906:9908   */\n      0x60\n        /* \"#utility.yul\":9932:9985   */\n      tag_474\n        /* \"#utility.yul\":9977:9984   */\n      dup9\n        /* \"#utility.yul\":9968:9974   */\n      dup3\n        /* \"#utility.yul\":9957:9966   */\n      dup10\n        /* \"#utility.yul\":9953:9975   */\n      add\n        /* \"#utility.yul\":9932:9985   */\n      tag_310\n      jump\t// in\n    tag_474:\n        /* \"#utility.yul\":9922:9985   */\n      swap3\n      pop\n        /* \"#utility.yul\":9877:9995   */\n      pop\n        /* \"#utility.yul\":10034:10037   */\n      0x80\n        /* \"#utility.yul\":10061:10111   */\n      tag_475\n        /* \"#utility.yul\":10103:10110   */\n      dup9\n        /* \"#utility.yul\":10094:10100   */\n      dup3\n        /* \"#utility.yul\":10083:10092   */\n      dup10\n        /* \"#utility.yul\":10079:10101   */\n      add\n        /* \"#utility.yul\":10061:10111   */\n      tag_333\n      jump\t// in\n    tag_475:\n        /* \"#utility.yul\":10051:10111   */\n      swap2\n      pop\n        /* \"#utility.yul\":10005:10121   */\n      pop\n        /* \"#utility.yul\":9223:10128   */\n      swap3\n      swap6\n      pop\n      swap3\n      swap6\n      swap1\n      swap4\n      pop\n      jump\t// out\n        /* \"#utility.yul\":10134:10220   */\n    tag_334:\n        /* \"#utility.yul\":10169:10176   */\n      0x00\n        /* \"#utility.yul\":10209:10213   */\n      0xff\n        /* \"#utility.yul\":10202:10207   */\n      dup3\n        /* \"#utility.yul\":10198:10214   */\n      and\n        /* \"#utility.yul\":10187:10214   */\n      swap1\n      pop\n        /* \"#utility.yul\":10134:10220   */\n      swap2\n      swap1\n      pop\n      jump\t// out\n        /* \"#utility.yul\":10226:10344   */\n    tag_335:\n        /* \"#utility.yul\":10297:10319   */\n      tag_478\n        /* \"#utility.yul\":10313:10318   */\n      dup2\n        /* \"#utility.yul\":10297:10319   */\n      tag_334\n      jump\t// in\n    tag_478:\n        /* \"#utility.yul\":10290:10295   */\n      dup2\n        /* \"#utility.yul\":10287:10320   */\n      eq\n        /* \"#utility.yul\":10277:10338   */\n      tag_479\n      jumpi\n        /* \"#utility.yul\":10334:10335   */\n      0x00\n        /* \"#utility.yul\":10331:10332   */\n      0x00\n        /* \"#utility.yul\":10324:10336   */\n      revert\n        /* \"#utility.yul\":10277:10338   */\n    tag_479:\n        /* \"#utility.yul\":10226:10344   */\n      pop\n      jump\t// out\n        /* \"#utility.yul\":10350:10485   */\n    tag_336:\n        /* \"#utility.yul\":10394:10399   */\n      0x00\n        /* \"#utility.yul\":10432:10438   */\n      dup2\n        /* \"#utility.yul\":10419:10439   */\n      calldataload\n        /* \"#utility.yul\":10410:10439   */\n      swap1\n      pop\n        /* \"#utility.yul\":10448:10479   */\n      tag_481\n        /* \"#utility.yul\":10473:10478   */\n      dup2\n        /* \"#utility.yul\":10448:10479   */\n      tag_335\n      jump\t// in\n    tag_481:\n        /* \"#utility.yul\":10350:10485   */\n      swap3\n      swap2\n      pop\n      pop\n      jump\t// out\n        /* \"#utility.yul\":10491:10568   */\n    tag_337:\n        /* \"#utility.yul\":10528:10535   */\n      0x00\n        /* \"#utility.yul\":10557:10562   */\n      dup2\n        /* \"#utility.yul\":10546:10562   */\n      swap1\n      pop\n        /* \"#utility.yul\":10491:10568   */\n      swap2\n      swap1\n      pop\n      jump\t// out\n        /* \"#utility.yul\":10574:10696   */\n    tag_338:\n        /* \"#utility.yul\":10647:10671   */\n      tag_484\n        /* \"#utility.yul\":10665:10670   */\n      dup2\n        /* \"#utility.yul\":10647:10671   */\n      tag_337\n      jump\t// in\n    tag_484:\n        /* \"#utility.yul\":10640:10645   */\n      dup2\n        /* \"#utility.yul\":10637:10672   */\n      eq\n        /* \"#utility.yul\":10627:10690   */\n      tag_485\n      jumpi\n        /* \"#utility.yul\":10686:10687   */\n      0x00\n        /* \"#utility.yul\":10683:10684   */\n      0x00\n        /* \"#utility.yul\":10676:10688   */\n      revert\n        /* \"#utility.yul\":10627:10690   */\n    tag_485:\n        /* \"#utility.yul\":10574:10696   */\n      pop\n      jump\t// out\n        /* \"#utility.yul\":10702:10841   */\n    tag_339:\n        /* \"#utility.yul\":10748:10753   */\n      0x00\n        /* \"#utility.yul\":10786:10792   */\n      dup2\n        /* \"#utility.yul\":10773:10793   */\n      calldataload\n        /* \"#utility.yul\":10764:10793   */\n      swap1\n      pop\n        /* \"#utility.yul\":10802:10835   */\n      tag_487\n        /* \"#utility.yul\":10829:10834   */\n      dup2\n        /* \"#utility.yul\":10802:10835   */\n      tag_338\n      jump\t// in\n    tag_487:\n        /* \"#utility.yul\":10702:10841   */\n      swap3\n      swap2\n      pop\n      pop\n      jump\t// out\n        /* \"#utility.yul\":10847:11900   */\n    tag_92:\n        /* \"#utility.yul\":10949:10955   */\n      0x00\n        /* \"#utility.yul\":10957:10963   */\n      0x00\n        /* \"#utility.yul\":10965:10971   */\n      0x00\n        /* \"#utility.yul\":10973:10979   */\n      0x00\n        /* \"#utility.yul\":10981:10987   */\n      0x00\n        /* \"#utility.yul\":10989:10995   */\n      0x00\n        /* \"#utility.yul\":11038:11041   */\n      0xc0\n        /* \"#utility.yul\":11026:11035   */\n      dup8\n        /* \"#utility.yul\":11017:11024   */\n      dup10\n        /* \"#utility.yul\":11013:11036   */\n      sub\n        /* \"#utility.yul\":11009:11042   */\n      slt\n        /* \"#utility.yul\":11006:11126   */\n      iszero\n      tag_489\n      jumpi\n        /* \"#utility.yul\":11045:11124   */\n      tag_490\n      tag_306\n      jump\t// in\n    tag_490:\n        /* \"#utility.yul\":11006:11126   */\n    tag_489:\n        /* \"#utility.yul\":11165:11166   */\n      0x00\n        /* \"#utility.yul\":11190:11243   */\n      tag_491\n        /* \"#utility.yul\":11235:11242   */\n      dup10\n        /* \"#utility.yul\":11226:11232   */\n      dup3\n        /* \"#utility.yul\":11215:11224   */\n      dup11\n        /* \"#utility.yul\":11211:11233   */\n      add\n        /* \"#utility.yul\":11190:11243   */\n      tag_310\n      jump\t// in\n    tag_491:\n        /* \"#utility.yul\":11180:11243   */\n      swap7\n      pop\n        /* \"#utility.yul\":11136:11253   */\n      pop\n        /* \"#utility.yul\":11292:11294   */\n      0x20\n        /* \"#utility.yul\":11318:11371   */\n      tag_492\n        /* \"#utility.yul\":11363:11370   */\n      dup10\n        /* \"#utility.yul\":11354:11360   */\n      dup3\n        /* \"#utility.yul\":11343:11352   */\n      dup11\n        /* \"#utility.yul\":11339:11361   */\n      add\n        /* \"#utility.yul\":11318:11371   */\n      tag_310\n      jump\t// in\n    tag_492:\n        /* \"#utility.yul\":11308:11371   */\n      swap6\n      pop\n        /* \"#utility.yul\":11263:11381   */\n      pop\n        /* \"#utility.yul\":11420:11422   */\n      0x40\n        /* \"#utility.yul\":11446:11499   */\n      tag_493\n        /* \"#utility.yul\":11491:11498   */\n      dup10\n        /* \"#utility.yul\":11482:11488   */\n      dup3\n        /* \"#utility.yul\":11471:11480   */\n      dup11\n        /* \"#utility.yul\":11467:11489   */\n      add\n        /* \"#utility.yul\":11446:11499   */\n      tag_310\n      jump\t// in\n    tag_493:\n        /* \"#utility.yul\":11436:11499   */\n      swap5\n      pop\n        /* \"#utility.yul\":11391:11509   */\n      pop\n        /* \"#utility.yul\":11548:11550   */\n      0x60\n        /* \"#utility.yul\":11574:11625   */\n      tag_494\n        /* \"#utility.yul\":11617:11624   */\n      dup10\n        /* \"#utility.yul\":11608:11614   */\n      dup3\n        /* \"#utility.yul\":11597:11606   */\n      dup11\n        /* \"#utility.yul\":11593:11615   */\n      add\n        /* \"#utility.yul\":11574:11625   */\n      tag_336\n      jump\t// in\n    tag_494:\n        /* \"#utility.yul\":11564:11625   */\n      swap4\n      pop\n        /* \"#utility.yul\":11519:11635   */\n      pop\n        /* \"#utility.yul\":11674:11677   */\n      0x80\n        /* \"#utility.yul\":11701:11754   */\n      tag_495\n        /* \"#utility.yul\":11746:11753   */\n      dup10\n        /* \"#utility.yul\":11737:11743   */\n      dup3\n        /* \"#utility.yul\":11726:11735   */\n      dup11\n        /* \"#utility.yul\":11722:11744   */\n      add\n        /* \"#utility.yul\":11701:11754   */\n      tag_339\n      jump\t// in\n    tag_495:\n        /* \"#utility.yul\":11691:11754   */\n      swap3\n      pop\n        /* \"#utility.yul\":11645:11764   */\n      pop\n        /* \"#utility.yul\":11803:11806   */\n      0xa0\n        /* \"#utility.yul\":11830:11883   */\n      tag_496\n        /* \"#utility.yul\":11875:11882   */\n      dup10\n        /* \"#utility.yul\":11866:11872   */\n      dup3\n        /* \"#utility.yul\":11855:11864   */\n      dup11\n        /* \"#utility.yul\":11851:11873   */\n      add\n        /* \"#utility.yul\":11830:11883   */\n      tag_339\n      jump\t// in\n    tag_496:\n        /* \"#utility.yul\":11820:11883   */\n      swap2\n      pop\n        /* \"#utility.yul\":11774:11893   */\n      pop\n        /* \"#utility.yul\":10847:11900   */\n      swap3\n      swap6\n      pop\n      swap3\n      swap6\n      pop\n      swap3\n      swap6\n      jump\t// out\n        /* \"#utility.yul\":11906:12044   */\n    tag_340:\n        /* \"#utility.yul\":11987:12019   */\n      tag_498\n        /* \"#utility.yul\":12013:12018   */\n      dup2\n        /* \"#utility.yul\":11987:12019   */\n      tag_325\n      jump\t// in\n    tag_498:\n        /* \"#utility.yul\":11980:11985   */\n      dup2\n        /* \"#utility.yul\":11977:12020   */\n      eq\n        /* \"#utility.yul\":11967:12038   */\n      tag_499\n      jumpi\n        /* \"#utility.yul\":12034:12035   */\n      0x00\n        /* \"#utility.yul\":12031:12032   */\n      0x00\n        /* \"#utility.yul\":12024:12036   */\n      revert\n        /* \"#utility.yul\":11967:12038   */\n    tag_499:\n        /* \"#utility.yul\":11906:12044   */\n      pop\n      jump\t// out\n        /* \"#utility.yul\":12050:12205   */\n    tag_341:\n        /* \"#utility.yul\":12104:12109   */\n      0x00\n        /* \"#utility.yul\":12142:12148   */\n      dup2\n        /* \"#utility.yul\":12129:12149   */\n      calldataload\n        /* \"#utility.yul\":12120:12149   */\n      swap1\n      pop\n        /* \"#utility.yul\":12158:12199   */\n      tag_501\n        /* \"#utility.yul\":12193:12198   */\n      dup2\n        /* \"#utility.yul\":12158:12199   */\n      tag_340\n      jump\t// in\n    tag_501:\n        /* \"#utility.yul\":12050:12205   */\n      swap3\n      swap2\n      pop\n      pop\n      jump\t// out\n        /* \"#utility.yul\":12211:12556   */\n    tag_101:\n        /* \"#utility.yul\":12278:12284   */\n      0x00\n        /* \"#utility.yul\":12327:12329   */\n      0x20\n        /* \"#utility.yul\":12315:12324   */\n      dup3\n        /* \"#utility.yul\":12306:12313   */\n      dup5\n        /* \"#utility.yul\":12302:12325   */\n      sub\n        /* \"#utility.yul\":12298:12330   */\n      slt\n        /* \"#utility.yul\":12295:12414   */\n      iszero\n      tag_503\n      jumpi\n        /* \"#utility.yul\":12333:12412   */\n      tag_504\n      tag_306\n      jump\t// in\n    tag_504:\n        /* \"#utility.yul\":12295:12414   */\n    tag_503:\n        /* \"#utility.yul\":12453:12454   */\n      0x00\n        /* \"#utility.yul\":12478:12539   */\n      tag_505\n        /* \"#utility.yul\":12531:12538   */\n      dup5\n        /* \"#utility.yul\":12522:12528   */\n      dup3\n        /* \"#utility.yul\":12511:12520   */\n      dup6\n        /* \"#utility.yul\":12507:12529   */\n      add\n        /* \"#utility.yul\":12478:12539   */\n      tag_341\n      jump\t// in\n    tag_505:\n        /* \"#utility.yul\":12468:12539   */\n      swap2\n      pop\n        /* \"#utility.yul\":12424:12549   */\n      pop\n        /* \"#utility.yul\":12211:12556   */\n      swap3\n      swap2\n      pop\n      pop\n      jump\t// out\n        /* \"#utility.yul\":12562:12891   */\n    tag_106:\n        /* \"#utility.yul\":12621:12627   */\n      0x00\n        /* \"#utility.yul\":12670:12672   */\n      0x20\n        /* \"#utility.yul\":12658:12667   */\n      dup3\n        /* \"#utility.yul\":12649:12656   */\n      dup5\n        /* \"#utility.yul\":12645:12668   */\n      sub\n        /* \"#utility.yul\":12641:12673   */\n      slt\n        /* \"#utility.yul\":12638:12757   */\n      iszero\n      tag_507\n      jumpi\n        /* \"#utility.yul\":12676:12755   */\n      tag_508\n      tag_306\n      jump\t// in\n    tag_508:\n        /* \"#utility.yul\":12638:12757   */\n    tag_507:\n        /* \"#utility.yul\":12796:12797   */\n      0x00\n        /* \"#utility.yul\":12821:12874   */\n      tag_509\n        /* \"#utility.yul\":12866:12873   */\n      dup5\n        /* \"#utility.yul\":12857:12863   */\n      dup3\n        /* \"#utility.yul\":12846:12855   */\n      dup6\n        /* \"#utility.yul\":12842:12864   */\n      add\n        /* \"#utility.yul\":12821:12874   */\n      tag_318\n      jump\t// in\n    tag_509:\n        /* \"#utility.yul\":12811:12874   */\n      swap2\n      pop\n        /* \"#utility.yul\":12767:12884   */\n      pop\n        /* \"#utility.yul\":12562:12891   */\n      swap3\n      swap2\n      pop\n      pop\n      jump\t// out\n        /* \"#utility.yul\":12897:13119   */\n    tag_118:\n        /* \"#utility.yul\":12990:12994   */\n      0x00\n        /* \"#utility.yul\":13028:13030   */\n      0x20\n        /* \"#utility.yul\":13017:13026   */\n      dup3\n        /* \"#utility.yul\":13013:13031   */\n      add\n        /* \"#utility.yul\":13005:13031   */\n      swap1\n      pop\n        /* \"#utility.yul\":13041:13112   */\n      tag_511\n        /* \"#utility.yul\":13109:13110   */\n      0x00\n        /* \"#utility.yul\":13098:13107   */\n      dup4\n        /* \"#utility.yul\":13094:13111   */\n      add\n        /* \"#utility.yul\":13085:13091   */\n      dup5\n        /* \"#utility.yul\":13041:13112   */\n      tag_314\n      jump\t// in\n    tag_511:\n        /* \"#utility.yul\":12897:13119   */\n      swap3\n      swap2\n      pop\n      pop\n      jump\t// out\n        /* \"#utility.yul\":13125:13268   */\n    tag_342:\n        /* \"#utility.yul\":13182:13187   */\n      0x00\n        /* \"#utility.yul\":13213:13219   */\n      dup2\n        /* \"#utility.yul\":13207:13220   */\n      mload\n        /* \"#utility.yul\":13198:13220   */\n      swap1\n      pop\n        /* \"#utility.yul\":13229:13262   */\n      tag_513\n        /* \"#utility.yul\":13256:13261   */\n      dup2\n        /* \"#utility.yul\":13229:13262   */\n      tag_317\n      jump\t// in\n    tag_513:\n        /* \"#utility.yul\":13125:13268   */\n      swap3\n      swap2\n      pop\n      pop\n      jump\t// out\n        /* \"#utility.yul\":13274:13625   */\n    tag_122:\n        /* \"#utility.yul\":13344:13350   */\n      0x00\n        /* \"#utility.yul\":13393:13395   */\n      0x20\n        /* \"#utility.yul\":13381:13390   */\n      dup3\n        /* \"#utility.yul\":13372:13379   */\n      dup5\n        /* \"#utility.yul\":13368:13391   */\n      sub\n        /* \"#utility.yul\":13364:13396   */\n      slt\n        /* \"#utility.yul\":13361:13480   */\n      iszero\n      tag_515\n      jumpi\n        /* \"#utility.yul\":13399:13478   */\n      tag_516\n      tag_306\n      jump\t// in\n    tag_516:\n        /* \"#utility.yul\":13361:13480   */\n    tag_515:\n        /* \"#utility.yul\":13519:13520   */\n      0x00\n        /* \"#utility.yul\":13544:13608   */\n      tag_517\n        /* \"#utility.yul\":13600:13607   */\n      dup5\n        /* \"#utility.yul\":13591:13597   */\n      dup3\n        /* \"#utility.yul\":13580:13589   */\n      dup6\n        /* \"#utility.yul\":13576:13598   */\n      add\n        /* \"#utility.yul\":13544:13608   */\n      tag_342\n      jump\t// in\n    tag_517:\n        /* \"#utility.yul\":13534:13608   */\n      swap2\n      pop\n        /* \"#utility.yul\":13490:13618   */\n      pop\n        /* \"#utility.yul\":13274:13625   */\n      swap3\n      swap2\n      pop\n      pop\n      jump\t// out\n        /* \"#utility.yul\":13631:14073   */\n    tag_125:\n        /* \"#utility.yul\":13780:13784   */\n      0x00\n        /* \"#utility.yul\":13818:13820   */\n      0x60\n        /* \"#utility.yul\":13807:13816   */\n      dup3\n        /* \"#utility.yul\":13803:13821   */\n      add\n        /* \"#utility.yul\":13795:13821   */\n      swap1\n      pop\n        /* \"#utility.yul\":13831:13902   */\n      tag_519\n        /* \"#utility.yul\":13899:13900   */\n      0x00\n        /* \"#utility.yul\":13888:13897   */\n      dup4\n        /* \"#utility.yul\":13884:13901   */\n      add\n        /* \"#utility.yul\":13875:13881   */\n      dup7\n        /* \"#utility.yul\":13831:13902   */\n      tag_313\n      jump\t// in\n    tag_519:\n        /* \"#utility.yul\":13912:13984   */\n      tag_520\n        /* \"#utility.yul\":13980:13982   */\n      0x20\n        /* \"#utility.yul\":13969:13978   */\n      dup4\n        /* \"#utility.yul\":13965:13983   */\n      add\n        /* \"#utility.yul\":13956:13962   */\n      dup6\n        /* \"#utility.yul\":13912:13984   */\n      tag_313\n      jump\t// in\n    tag_520:\n        /* \"#utility.yul\":13994:14066   */\n      tag_521\n        /* \"#utility.yul\":14062:14064   */\n      0x40\n        /* \"#utility.yul\":14051:14060   */\n      dup4\n        /* \"#utility.yul\":14047:14065   */\n      add\n        /* \"#utility.yul\":14038:14044   */\n      dup5\n        /* \"#utility.yul\":13994:14066   */\n      tag_314\n      jump\t// in\n    tag_521:\n        /* \"#utility.yul\":13631:14073   */\n      swap5\n      swap4\n      pop\n      pop\n      pop\n      pop\n      jump\t// out\n        /* \"#utility.yul\":14079:14259   */\n    tag_343:\n        /* \"#utility.yul\":14127:14204   */\n      0x4e487b7100000000000000000000000000000000000000000000000000000000\n        /* \"#utility.yul\":14124:14125   */\n      0x00\n        /* \"#utility.yul\":14117:14205   */\n      mstore\n        /* \"#utility.yul\":14224:14228   */\n      0x11\n        /* \"#utility.yul\":14221:14222   */\n      0x04\n        /* \"#utility.yul\":14214:14229   */\n      mstore\n        /* \"#utility.yul\":14248:14252   */\n      0x24\n        /* \"#utility.yul\":14245:14246   */\n      0x00\n        /* \"#utility.yul\":14238:14253   */\n      revert\n        /* \"#utility.yul\":14265:14498   */\n    tag_130:\n        /* \"#utility.yul\":14304:14307   */\n      0x00\n        /* \"#utility.yul\":14327:14351   */\n      tag_524\n        /* \"#utility.yul\":14345:14350   */\n      dup3\n        /* \"#utility.yul\":14327:14351   */\n      tag_308\n      jump\t// in\n    tag_524:\n        /* \"#utility.yul\":14318:14351   */\n      swap2\n      pop\n        /* \"#utility.yul\":14373:14439   */\n      0xffffffffffffffffffffffffffffffffffffffffffffffffffffffffffffffff\n        /* \"#utility.yul\":14366:14371   */\n      dup3\n        /* \"#utility.yul\":14363:14440   */\n      sub\n        /* \"#utility.yul\":14360:14463   */\n      tag_525\n      jumpi\n        /* \"#utility.yul\":14443:14461   */\n      tag_526\n      tag_343\n      jump\t// in\n    tag_526:\n        /* \"#utility.yul\":14360:14463   */\n    tag_525:\n        /* \"#utility.yul\":14490:14491   */\n      0x01\n        /* \"#utility.yul\":14483:14488   */\n      dup3\n        /* \"#utility.yul\":14479:14492   */\n      add\n        /* \"#utility.yul\":14472:14492   */\n      swap1\n      pop\n        /* \"#utility.yul\":14265:14498   */\n      swap2\n      swap1\n      pop\n      jump\t// out\n        /* \"#utility.yul\":14504:14647   */\n    tag_344:\n        /* \"#utility.yul\":14561:14566   */\n      0x00\n        /* \"#utility.yul\":14592:14598   */\n      dup2\n        /* \"#utility.yul\":14586:14599   */\n      mload\n        /* \"#utility.yul\":14577:14599   */\n      swap1\n      pop\n        /* \"#utility.yul\":14608:14641   */\n      tag_528\n        /* \"#utility.yul\":14635:14640   */\n      dup2\n        /* \"#utility.yul\":14608:14641   */\n      tag_309\n      jump\t// in\n    tag_528:\n        /* \"#utility.yul\":14504:14647   */\n      swap3\n      swap2\n      pop\n      pop\n      jump\t// out\n        /* \"#utility.yul\":14653:15004   */\n    tag_139:\n        /* \"#utility.yul\":14723:14729   */\n      0x00\n        /* \"#utility.yul\":14772:14774   */\n      0x20\n        /* \"#utility.yul\":14760:14769   */\n      dup3\n        /* \"#utility.yul\":14751:14758   */\n      dup5\n        /* \"#utility.yul\":14747:14770   */\n      sub\n        /* \"#utility.yul\":14743:14775   */\n      slt\n        /* \"#utility.yul\":14740:14859   */\n      iszero\n      tag_530\n      jumpi\n        /* \"#utility.yul\":14778:14857   */\n      tag_531\n      tag_306\n      jump\t// in\n    tag_531:\n        /* \"#utility.yul\":14740:14859   */\n    tag_530:\n        /* \"#utility.yul\":14898:14899   */\n      0x00\n        /* \"#utility.yul\":14923:14987   */\n      tag_532\n        /* \"#utility.yul\":14979:14986   */\n      dup5\n        /* \"#utility.yul\":14970:14976   */\n      dup3\n        /* \"#utility.yul\":14959:14968   */\n      dup6\n        /* \"#utility.yul\":14955:14977   */\n      add\n        /* \"#utility.yul\":14923:14987   */\n      tag_344\n      jump\t// in\n    tag_532:\n        /* \"#utility.yul\":14913:14987   */\n      swap2\n      pop\n        /* \"#utility.yul\":14869:14997   */\n      pop\n        /* \"#utility.yul\":14653:15004   */\n      swap3\n      swap2\n      pop\n      pop\n      jump\t// out\n        /* \"#utility.yul\":15010:15095   */\n    tag_345:\n        /* \"#utility.yul\":15055:15062   */\n      0x00\n        /* \"#utility.yul\":15084:15089   */\n      dup2\n        /* \"#utility.yul\":15073:15089   */\n      swap1\n      pop\n        /* \"#utility.yul\":15010:15095   */\n      swap2\n      swap1\n      pop\n      jump\t// out\n        /* \"#utility.yul\":15101:15259   */\n    tag_346:\n        /* \"#utility.yul\":15159:15168   */\n      0x00\n        /* \"#utility.yul\":15192:15253   */\n      tag_535\n        /* \"#utility.yul\":15210:15252   */\n      tag_536\n        /* \"#utility.yul\":15219:15251   */\n      tag_537\n        /* \"#utility.yul\":15245:15250   */\n      dup5\n        /* \"#utility.yul\":15219:15251   */\n      tag_345\n      jump\t// in\n    tag_537:\n        /* \"#utility.yul\":15210:15252   */\n      tag_327\n      jump\t// in\n    tag_536:\n        /* \"#utility.yul\":15192:15253   */\n      tag_308\n      jump\t// in\n    tag_535:\n        /* \"#utility.yul\":15179:15253   */\n      swap1\n      pop\n        /* \"#utility.yul\":15101:15259   */\n      swap2\n      swap1\n      pop\n      jump\t// out\n        /* \"#utility.yul\":15265:15412   */\n    tag_347:\n        /* \"#utility.yul\":15360:15405   */\n      tag_539\n        /* \"#utility.yul\":15399:15404   */\n      dup2\n        /* \"#utility.yul\":15360:15405   */\n      tag_346\n      jump\t// in\n    tag_539:\n        /* \"#utility.yul\":15355:15358   */\n      dup3\n        /* \"#utility.yul\":15348:15406   */\n      mstore\n        /* \"#utility.yul\":15265:15412   */\n      pop\n      pop\n      jump\t// out\n        /* \"#utility.yul\":15418:15766   */\n    tag_144:\n        /* \"#utility.yul\":15547:15551   */\n      0x00\n        /* \"#utility.yul\":15585:15587   */\n      0x40\n        /* \"#utility.yul\":15574:15583   */\n      dup3\n        /* \"#utility.yul\":15570:15588   */\n      add\n        /* \"#utility.yul\":15562:15588   */\n      swap1\n      pop\n        /* \"#utility.yul\":15598:15669   */\n      tag_541\n        /* \"#utility.yul\":15666:15667   */\n      0x00\n        /* \"#utility.yul\":15655:15664   */\n      dup4\n        /* \"#utility.yul\":15651:15668   */\n      add\n        /* \"#utility.yul\":15642:15648   */\n      dup6\n        /* \"#utility.yul\":15598:15669   */\n      tag_313\n      jump\t// in\n    tag_541:\n        /* \"#utility.yul\":15679:15759   */\n      tag_542\n        /* \"#utility.yul\":15755:15757   */\n      0x20\n        /* \"#utility.yul\":15744:15753   */\n      dup4\n        /* \"#utility.yul\":15740:15758   */\n      add\n        /* \"#utility.yul\":15731:15737   */\n      dup5\n        /* \"#utility.yul\":15679:15759   */\n      tag_347\n      jump\t// in\n    tag_542:\n        /* \"#utility.yul\":15418:15766   */\n      swap4\n      swap3\n      pop\n      pop\n      pop\n      jump\t// out\n        /* \"#utility.yul\":15772:16104   */\n    tag_160:\n        /* \"#utility.yul\":15893:15897   */\n      0x00\n        /* \"#utility.yul\":15931:15933   */\n      0x40\n        /* \"#utility.yul\":15920:15929   */\n      dup3\n        /* \"#utility.yul\":15916:15934   */\n      add\n        /* \"#utility.yul\":15908:15934   */\n      swap1\n      pop\n        /* \"#utility.yul\":15944:16015   */\n      tag_544\n        /* \"#utility.yul\":16012:16013   */\n      0x00\n        /* \"#utility.yul\":16001:16010   */\n      dup4\n        /* \"#utility.yul\":15997:16014   */\n      add\n        /* \"#utility.yul\":15988:15994   */\n      dup6\n        /* \"#utility.yul\":15944:16015   */\n      tag_313\n      jump\t// in\n    tag_544:\n        /* \"#utility.yul\":16025:16097   */\n      tag_545\n        /* \"#utility.yul\":16093:16095   */\n      0x20\n        /* \"#utility.yul\":16082:16091   */\n      dup4\n        /* \"#utility.yul\":16078:16096   */\n      add\n        /* \"#utility.yul\":16069:16075   */\n      dup5\n        /* \"#utility.yul\":16025:16097   */\n      tag_314\n      jump\t// in\n    tag_545:\n        /* \"#utility.yul\":15772:16104   */\n      swap4\n      swap3\n      pop\n      pop\n      pop\n      jump\t// out\n        /* \"#utility.yul\":16110:16247   */\n    tag_348:\n        /* \"#utility.yul\":16164:16169   */\n      0x00\n        /* \"#utility.yul\":16195:16201   */\n      dup2\n        /* \"#utility.yul\":16189:16202   */\n      mload\n        /* \"#utility.yul\":16180:16202   */\n      swap1\n      pop\n        /* \"#utility.yul\":16211:16241   */\n      tag_547\n        /* \"#utility.yul\":16235:16240   */\n      dup2\n        /* \"#utility.yul\":16211:16241   */\n      tag_332\n      jump\t// in\n    tag_547:\n        /* \"#utility.yul\":16110:16247   */\n      swap3\n      swap2\n      pop\n      pop\n      jump\t// out\n        /* \"#utility.yul\":16253:16598   */\n    tag_164:\n        /* \"#utility.yul\":16320:16326   */\n      0x00\n        /* \"#utility.yul\":16369:16371   */\n      0x20\n        /* \"#utility.yul\":16357:16366   */\n      dup3\n        /* \"#utility.yul\":16348:16355   */\n      dup5\n        /* \"#utility.yul\":16344:16367   */\n      sub\n        /* \"#utility.yul\":16340:16372   */\n      slt\n        /* \"#utility.yul\":16337:16456   */\n      iszero\n      tag_549\n      jumpi\n        /* \"#utility.yul\":16375:16454   */\n      tag_550\n      tag_306\n      jump\t// in\n    tag_550:\n        /* \"#utility.yul\":16337:16456   */\n    tag_549:\n        /* \"#utility.yul\":16495:16496   */\n      0x00\n        /* \"#utility.yul\":16520:16581   */\n      tag_551\n        /* \"#utility.yul\":16573:16580   */\n      dup5\n        /* \"#utility.yul\":16564:16570   */\n      dup3\n        /* \"#utility.yul\":16553:16562   */\n      dup6\n        /* \"#utility.yul\":16549:16571   */\n      add\n        /* \"#utility.yul\":16520:16581   */\n      tag_348\n      jump\t// in\n    tag_551:\n        /* \"#utility.yul\":16510:16581   */\n      swap2\n      pop\n        /* \"#utility.yul\":16466:16591   */\n      pop\n        /* \"#utility.yul\":16253:16598   */\n      swap3\n      swap2\n      pop\n      pop\n      jump\t// out\n        /* \"#utility.yul\":16604:16751   */\n    tag_349:\n        /* \"#utility.yul\":16705:16716   */\n      0x00\n        /* \"#utility.yul\":16742:16745   */\n      dup2\n        /* \"#utility.yul\":16727:16745   */\n      swap1\n      pop\n        /* \"#utility.yul\":16604:16751   */\n      swap3\n      swap2\n      pop\n      pop\n      jump\t// out\n        /* \"#utility.yul\":16757:16871   */\n    tag_350:\n      pop\n      jump\t// out\n        /* \"#utility.yul\":16877:17275   */\n    tag_351:\n        /* \"#utility.yul\":17036:17039   */\n      0x00\n        /* \"#utility.yul\":17057:17140   */\n      tag_555\n        /* \"#utility.yul\":17138:17139   */\n      0x00\n        /* \"#utility.yul\":17133:17136   */\n      dup4\n        /* \"#utility.yul\":17057:17140   */\n      tag_349\n      jump\t// in\n    tag_555:\n        /* \"#utility.yul\":17050:17140   */\n      swap2\n      pop\n        /* \"#utility.yul\":17149:17242   */\n      tag_556\n        /* \"#utility.yul\":17238:17241   */\n      dup3\n        /* \"#utility.yul\":17149:17242   */\n      tag_350\n      jump\t// in\n    tag_556:\n        /* \"#utility.yul\":17267:17268   */\n      0x00\n        /* \"#utility.yul\":17262:17265   */\n      dup3\n        /* \"#utility.yul\":17258:17269   */\n      add\n        /* \"#utility.yul\":17251:17269   */\n      swap1\n      pop\n        /* \"#utility.yul\":16877:17275   */\n      swap2\n      swap1\n      pop\n      jump\t// out\n        /* \"#utility.yul\":17281:17660   */\n    tag_182:\n        /* \"#utility.yul\":17465:17468   */\n      0x00\n        /* \"#utility.yul\":17487:17634   */\n      tag_558\n        /* \"#utility.yul\":17630:17633   */\n      dup3\n        /* \"#utility.yul\":17487:17634   */\n      tag_351\n      jump\t// in\n    tag_558:\n        /* \"#utility.yul\":17480:17634   */\n      swap2\n      pop\n        /* \"#utility.yul\":17651:17654   */\n      dup2\n        /* \"#utility.yul\":17644:17654   */\n      swap1\n      pop\n        /* \"#utility.yul\":17281:17660   */\n      swap2\n      swap1\n      pop\n      jump\t// out\n        /* \"#utility.yul\":17666:17835   */\n    tag_352:\n        /* \"#utility.yul\":17750:17761   */\n      0x00\n        /* \"#utility.yul\":17784:17790   */\n      dup3\n        /* \"#utility.yul\":17779:17782   */\n      dup3\n        /* \"#utility.yul\":17772:17791   */\n      mstore\n        /* \"#utility.yul\":17824:17828   */\n      0x20\n        /* \"#utility.yul\":17819:17822   */\n      dup3\n        /* \"#utility.yul\":17815:17829   */\n      add\n        /* \"#utility.yul\":17800:17829   */\n      swap1\n      pop\n        /* \"#utility.yul\":17666:17835   */\n      swap3\n      swap2\n      pop\n      pop\n      jump\t// out\n        /* \"#utility.yul\":17841:18010   */\n    tag_353:\n        /* \"#utility.yul\":17981:18002   */\n      0x455448207472616e73666572206661696c656400000000000000000000000000\n        /* \"#utility.yul\":17977:17978   */\n      0x00\n        /* \"#utility.yul\":17969:17975   */\n      dup3\n        /* \"#utility.yul\":17965:17979   */\n      add\n        /* \"#utility.yul\":17958:18003   */\n      mstore\n        /* \"#utility.yul\":17841:18010   */\n      pop\n      jump\t// out\n        /* \"#utility.yul\":18016:18382   */\n    tag_354:\n        /* \"#utility.yul\":18158:18161   */\n      0x00\n        /* \"#utility.yul\":18179:18246   */\n      tag_562\n        /* \"#utility.yul\":18243:18245   */\n      0x13\n        /* \"#utility.yul\":18238:18241   */\n      dup4\n        /* \"#utility.yul\":18179:18246   */\n      tag_352\n      jump\t// in\n    tag_562:\n        /* \"#utility.yul\":18172:18246   */\n      swap2\n      pop\n        /* \"#utility.yul\":18255:18348   */\n      tag_563\n        /* \"#utility.yul\":18344:18347   */\n      dup3\n        /* \"#utility.yul\":18255:18348   */\n      tag_353\n      jump\t// in\n    tag_563:\n        /* \"#utility.yul\":18373:18375   */\n      0x20\n        /* \"#utility.yul\":18368:18371   */\n      dup3\n        /* \"#utility.yul\":18364:18376   */\n      add\n        /* \"#utility.yul\":18357:18376   */\n      swap1\n      pop\n        /* \"#utility.yul\":18016:18382   */\n      swap2\n      swap1\n      pop\n      jump\t// out\n        /* \"#utility.yul\":18388:18807   */\n    tag_188:\n        /* \"#utility.yul\":18554:18558   */\n      0x00\n        /* \"#utility.yul\":18592:18594   */\n      0x20\n        /* \"#utility.yul\":18581:18590   */\n      dup3\n        /* \"#utility.yul\":18577:18595   */\n      add\n        /* \"#utility.yul\":18569:18595   */\n      swap1\n      pop\n        /* \"#utility.yul\":18641:18650   */\n      dup2\n        /* \"#utility.yul\":18635:18639   */\n      dup2\n        /* \"#utility.yul\":18631:18651   */\n      sub\n        /* \"#utility.yul\":18627:18628   */\n      0x00\n        /* \"#utility.yul\":18616:18625   */\n      dup4\n        /* \"#utility.yul\":18612:18629   */\n      add\n        /* \"#utility.yul\":18605:18652   */\n      mstore\n        /* \"#utility.yul\":18669:18800   */\n      tag_565\n        /* \"#utility.yul\":18795:18799   */\n      dup2\n        /* \"#utility.yul\":18669:18800   */\n      tag_354\n      jump\t// in\n    tag_565:\n        /* \"#utility.yul\":18661:18800   */\n      swap1\n      pop\n        /* \"#utility.yul\":18388:18807   */\n      swap2\n      swap1\n      pop\n      jump\t// out\n        /* \"#utility.yul\":18813:18984   */\n    tag_355:\n        /* \"#utility.yul\":18953:18976   */\n      0x7065726d69742076616c7565206d69736d617463680000000000000000000000\n        /* \"#utility.yul\":18949:18950   */\n      0x00\n        /* \"#utility.yul\":18941:18947   */\n      dup3\n        /* \"#utility.yul\":18937:18951   */\n      add\n        /* \"#utility.yul\":18930:18977   */\n      mstore\n        /* \"#utility.yul\":18813:18984   */\n      pop\n      jump\t// out\n        /* \"#utility.yul\":18990:19356   */\n    tag_356:\n        /* \"#utility.yul\":19132:19135   */\n      0x00\n        /* \"#utility.yul\":19153:19220   */\n      tag_568\n        /* \"#utility.yul\":19217:19219   */\n      0x15\n        /* \"#utility.yul\":19212:19215   */\n      dup4\n        /* \"#utility.yul\":19153:19220   */\n      tag_352\n      jump\t// in\n    tag_568:\n        /* \"#utility.yul\":19146:19220   */\n      swap2\n      pop\n        /* \"#utility.yul\":19229:19322   */\n      tag_569\n        /* \"#utility.yul\":19318:19321   */\n      dup3\n        /* \"#utility.yul\":19229:19322   */\n      tag_355\n      jump\t// in\n    tag_569:\n        /* \"#utility.yul\":19347:19349   */\n      0x20\n        /* \"#utility.yul\":19342:19345   */\n      dup3\n        /* \"#utility.yul\":19338:19350   */\n      add\n        /* \"#utility.yul\":19331:19350   */\n      swap1\n      pop\n        /* \"#utility.yul\":18990:19356   */\n      swap2\n      swap1\n      pop\n      jump\t// out\n        /* \"#utility.yul\":19362:19781   */\n    tag_230:\n        /* \"#utility.yul\":19528:19532   */\n      0x00\n        /* \"#utility.yul\":19566:19568   */\n      0x20\n        /* \"#utility.yul\":19555:19564   */\n      dup3\n        /* \"#utility.yul\":19551:19569   */\n      add\n        /* \"#utility.yul\":19543:19569   */\n      swap1\n      pop\n        /* \"#utility.yul\":19615:19624   */\n      dup2\n        /* \"#utility.yul\":19609:19613   */\n      dup2\n        /* \"#utility.yul\":19605:19625   */\n      sub\n        /* \"#utility.yul\":19601:19602   */\n      0x00\n        /* \"#utility.yul\":19590:19599   */\n      dup4\n        /* \"#utility.yul\":19586:19603   */\n      add\n        /* \"#utility.yul\":19579:19626   */\n      mstore\n        /* \"#utility.yul\":19643:19774   */\n      tag_571\n        /* \"#utility.yul\":19769:19773   */\n      dup2\n        /* \"#utility.yul\":19643:19774   */\n      tag_356\n      jump\t// in\n    tag_571:\n        /* \"#utility.yul\":19635:19774   */\n      swap1\n      pop\n        /* \"#utility.yul\":19362:19781   */\n      swap2\n      swap1\n      pop\n      jump\t// out\n        /* \"#utility.yul\":19787:19899   */\n    tag_357:\n        /* \"#utility.yul\":19870:19892   */\n      tag_573\n        /* \"#utility.yul\":19886:19891   */\n      dup2\n        /* \"#utility.yul\":19870:19892   */\n      tag_334\n      jump\t// in\n    tag_573:\n        /* \"#utility.yul\":19865:19868   */\n      dup3\n        /* \"#utility.yul\":19858:19893   */\n      mstore\n        /* \"#utility.yul\":19787:19899   */\n      pop\n      pop\n      jump\t// out\n        /* \"#utility.yul\":19905:20023   */\n    tag_358:\n        /* \"#utility.yul\":19992:20016   */\n      tag_575\n        /* \"#utility.yul\":20010:20015   */\n      dup2\n        /* \"#utility.yul\":19992:20016   */\n      tag_337\n      jump\t// in\n    tag_575:\n        /* \"#utility.yul\":19987:19990   */\n      dup3\n        /* \"#utility.yul\":19980:20017   */\n      mstore\n        /* \"#utility.yul\":19905:20023   */\n      pop\n      pop\n      jump\t// out\n        /* \"#utility.yul\":20029:20907   */\n    tag_232:\n        /* \"#utility.yul\":20286:20290   */\n      0x00\n        /* \"#utility.yul\":20324:20327   */\n      0xe0\n        /* \"#utility.yul\":20313:20322   */\n      dup3\n        /* \"#utility.yul\":20309:20328   */\n      add\n        /* \"#utility.yul\":20301:20328   */\n      swap1\n      pop\n        /* \"#utility.yul\":20338:20409   */\n      tag_577\n        /* \"#utility.yul\":20406:20407   */\n      0x00\n        /* \"#utility.yul\":20395:20404   */\n      dup4\n        /* \"#utility.yul\":20391:20408   */\n      add\n        /* \"#utility.yul\":20382:20388   */\n      dup11\n        /* \"#utility.yul\":20338:20409   */\n      tag_313\n      jump\t// in\n    tag_577:\n        /* \"#utility.yul\":20419:20491   */\n      tag_578\n        /* \"#utility.yul\":20487:20489   */\n      0x20\n        /* \"#utility.yul\":20476:20485   */\n      dup4\n        /* \"#utility.yul\":20472:20490   */\n      add\n        /* \"#utility.yul\":20463:20469   */\n      dup10\n        /* \"#utility.yul\":20419:20491   */\n      tag_313\n      jump\t// in\n    tag_578:\n        /* \"#utility.yul\":20501:20573   */\n      tag_579\n        /* \"#utility.yul\":20569:20571   */\n      0x40\n        /* \"#utility.yul\":20558:20567   */\n      dup4\n        /* \"#utility.yul\":20554:20572   */\n      add\n        /* \"#utility.yul\":20545:20551   */\n      dup9\n        /* \"#utility.yul\":20501:20573   */\n      tag_314\n      jump\t// in\n    tag_579:\n        /* \"#utility.yul\":20583:20655   */\n      tag_580\n        /* \"#utility.yul\":20651:20653   */\n      0x60\n        /* \"#utility.yul\":20640:20649   */\n      dup4\n        /* \"#utility.yul\":20636:20654   */\n      add\n        /* \"#utility.yul\":20627:20633   */\n      dup8\n        /* \"#utility.yul\":20583:20655   */\n      tag_314\n      jump\t// in\n    tag_580:\n        /* \"#utility.yul\":20665:20734   */\n      tag_581\n        /* \"#utility.yul\":20729:20732   */\n      0x80\n        /* \"#utility.yul\":20718:20727   */\n      dup4\n        /* \"#utility.yul\":20714:20733   */\n      add\n        /* \"#utility.yul\":20705:20711   */\n      dup7\n        /* \"#utility.yul\":20665:20734   */\n      tag_357\n      jump\t// in\n    tag_581:\n        /* \"#utility.yul\":20744:20817   */\n      tag_582\n        /* \"#utility.yul\":20812:20815   */\n      0xa0\n        /* \"#utility.yul\":20801:20810   */\n      dup4\n        /* \"#utility.yul\":20797:20816   */\n      add\n        /* \"#utility.yul\":20788:20794   */\n      dup6\n        /* \"#utility.yul\":20744:20817   */\n      tag_358\n      jump\t// in\n    tag_582:\n        /* \"#utility.yul\":20827:20900   */\n      tag_583\n        /* \"#utility.yul\":20895:20898   */\n      0xc0\n        /* \"#utility.yul\":20884:20893   */\n      dup4\n        /* \"#utility.yul\":20880:20899   */\n      add\n        /* \"#utility.yul\":20871:20877   */\n      dup5\n        /* \"#utility.yul\":20827:20900   */\n      tag_358\n      jump\t// in\n    tag_583:\n        /* \"#utility.yul\":20029:20907   */\n      swap9\n      swap8\n      pop\n      pop\n      pop\n      pop\n      pop\n      pop\n      pop\n      pop\n      jump\t// out\n        /* \"#utility.yul\":20913:21094   */\n    tag_359:\n        /* \"#utility.yul\":21053:21086   */\n      0x5265656e7472616e637947756172643a207265656e7472616e742063616c6c00\n        /* \"#utility.yul\":21049:21050   */\n      0x00\n        /* \"#utility.yul\":21041:21047   */\n      dup3\n        /* \"#utility.yul\":21037:21051   */\n      add\n        /* \"#utility.yul\":21030:21087   */\n      mstore\n        /* \"#utility.yul\":20913:21094   */\n      pop\n      jump\t// out\n        /* \"#utility.yul\":21100:21466   */\n    tag_360:\n        /* \"#utility.yul\":21242:21245   */\n      0x00\n        /* \"#utility.yul\":21263:21330   */\n      tag_586\n        /* \"#utility.yul\":21327:21329   */\n      0x1f\n        /* \"#utility.yul\":21322:21325   */\n      dup4\n        /* \"#utility.yul\":21263:21330   */\n      tag_352\n      jump\t// in\n    tag_586:\n        /* \"#utility.yul\":21256:21330   */\n      swap2\n      pop\n        /* \"#utility.yul\":21339:21432   */\n      tag_587\n        /* \"#utility.yul\":21428:21431   */\n      dup3\n        /* \"#utility.yul\":21339:21432   */\n      tag_359\n      jump\t// in\n    tag_587:\n        /* \"#utility.yul\":21457:21459   */\n      0x20\n        /* \"#utility.yul\":21452:21455   */\n      dup3\n        /* \"#utility.yul\":21448:21460   */\n      add\n        /* \"#utility.yul\":21441:21460   */\n      swap1\n      pop\n        /* \"#utility.yul\":21100:21466   */\n      swap2\n      swap1\n      pop\n      jump\t// out\n        /* \"#utility.yul\":21472:21891   */\n    tag_279:\n        /* \"#utility.yul\":21638:21642   */\n      0x00\n        /* \"#utility.yul\":21676:21678   */\n      0x20\n        /* \"#utility.yul\":21665:21674   */\n      dup3\n        /* \"#utility.yul\":21661:21679   */\n      add\n        /* \"#utility.yul\":21653:21679   */\n      swap1\n      pop\n        /* \"#utility.yul\":21725:21734   */\n      dup2\n        /* \"#utility.yul\":21719:21723   */\n      dup2\n        /* \"#utility.yul\":21715:21735   */\n      sub\n        /* \"#utility.yul\":21711:21712   */\n      0x00\n        /* \"#utility.yul\":21700:21709   */\n      dup4\n        /* \"#utility.yul\":21696:21713   */\n      add\n        /* \"#utility.yul\":21689:21736   */\n      mstore\n        /* \"#utility.yul\":21753:21884   */\n      tag_589\n        /* \"#utility.yul\":21879:21883   */\n      dup2\n        /* \"#utility.yul\":21753:21884   */\n      tag_360\n      jump\t// in\n    tag_589:\n        /* \"#utility.yul\":21745:21884   */\n      swap1\n      pop\n        /* \"#utility.yul\":21472:21891   */\n      swap2\n      swap1\n      pop\n      jump\t// out\n\n    auxdata: 0xa26469706673582212209fc1eebc56c8f6f355eb24ebc27bc8ae98edcc2a71aa4fa63dd8f86493b7227a64736f6c634300081e0033\n}\n",
				"bytecode": {
					"linkReferences": {},
					"object": "60a060405234801561000f575f5ffd5b50604051612be4380380612be48339818101604052810190610031919061032d565b8260015f819055505f73ffffffffffffffffffffffffffffffffffffffff168173ffffffffffffffffffffffffffffffffffffffff16036100a9575f6040517f1e4fbdf70000000000000000000000000000000000000000000000000000000081526004016100a0919061038c565b60405180910390fd5b6100b8816101d160201b60201c565b505f73ffffffffffffffffffffffffffffffffffffffff168273ffffffffffffffffffffffffffffffffffffffff16148061011e57505f73ffffffffffffffffffffffffffffffffffffffff168173ffffffffffffffffffffffffffffffffffffffff16145b15610155576040517fd92e233d00000000000000000000000000000000000000000000000000000000815260040160405180910390fd5b8160035f6101000a81548173ffffffffffffffffffffffffffffffffffffffff021916908373ffffffffffffffffffffffffffffffffffffffff1602179055508073ffffffffffffffffffffffffffffffffffffffff1660808173ffffffffffffffffffffffffffffffffffffffff16815250505050506103a5565b5f60015f9054906101000a900473ffffffffffffffffffffffffffffffffffffffff1690508160015f6101000a81548173ffffffffffffffffffffffffffffffffffffffff021916908373ffffffffffffffffffffffffffffffffffffffff1602179055508173ffffffffffffffffffffffffffffffffffffffff168173ffffffffffffffffffffffffffffffffffffffff167f8be0079c531659141344cd1fd0a4f28419497f9722a3daafe3b4186f6b6457e060405160405180910390a35050565b5f5ffd5b5f73ffffffffffffffffffffffffffffffffffffffff82169050919050565b5f6102c182610298565b9050919050565b6102d1816102b7565b81146102db575f5ffd5b50565b5f815190506102ec816102c8565b92915050565b5f6102fc82610298565b9050919050565b61030c816102f2565b8114610316575f5ffd5b50565b5f8151905061032781610303565b92915050565b5f5f5f6060848603121561034457610343610294565b5b5f610351868287016102de565b935050602061036286828701610319565b9250506040610373868287016102de565b9150509250925092565b610386816102b7565b82525050565b5f60208201905061039f5f83018461037d565b92915050565b6080516128126103d25f395f8181610a650152818161109601528181611107015261143c01526128125ff3fe608060405260043610610101575f3560e01c80638da5cb5b11610094578063b5ddc0f411610063578063b5ddc0f4146102ff578063bb6416ae14610327578063ddd328981461034f578063f0f4426014610377578063f2fde38b1461039f57610108565b80638da5cb5b1461026957806394dc9cf3146102935780639c66fb7e146102af578063aeccf735146102d757610108565b8063582515c7116100d0578063582515c7146101d757806361d027b3146101ff578063715018a61461022957806389a302711461023f57610108565b8063039af9eb1461010c578063150b7a021461014b57806326e84cc3146101875780634c2233a5146101af57610108565b3661010857005b5f5ffd5b348015610117575f5ffd5b50610132600480360381019061012d9190611d81565b6103c7565b6040516101429493929190611e14565b60405180910390f35b348015610156575f5ffd5b50610171600480360381019061016c9190611ee2565b61041e565b60405161017e9190611fa0565b60405180910390f35b348015610192575f5ffd5b506101ad60048036038101906101a89190611fb9565b610432565b005b3480156101ba575f5ffd5b506101d560048036038101906101d0919061201d565b610687565b005b3480156101e2575f5ffd5b506101fd60048036038101906101f8919061205b565b610927565b005b34801561020a575f5ffd5b50610213610a2b565b60405161022091906120b9565b60405180910390f35b348015610234575f5ffd5b5061023d610a50565b005b34801561024a575f5ffd5b50610253610a63565b604051610260919061212d565b60405180910390f35b348015610274575f5ffd5b5061027d610a87565b60405161028a9190612146565b60405180910390f35b6102ad60048036038101906102a89190611d81565b610aaf565b005b3480156102ba575f5ffd5b506102d560048036038101906102d0919061215f565b610d9b565b005b3480156102e2575f5ffd5b506102fd60048036038101906102f89190611d81565b610f1f565b005b34801561030a575f5ffd5b50610325600480360381019061032091906121d9565b6111c5565b005b348015610332575f5ffd5b5061034d600480360381019061034891906122b9565b611298565b005b34801561035a575f5ffd5b506103756004803603810190610370919061215f565b6114e6565b005b348015610382575f5ffd5b5061039d6004803603810190610398919061236c565b611793565b005b3480156103aa575f5ffd5b506103c560048036038101906103c09190612397565b611843565b005b6002602052805f5260405f205f91509050805f015f9054906101000a900473ffffffffffffffffffffffffffffffffffffffff1690806001015490806002015490806003015f9054906101000a900460ff16905084565b5f63150b7a0260e01b905095945050505050565b61043a6118c7565b5f60025f8681526020019081526020015f206040518060800160405290815f82015f9054906101000a900473ffffffffffffffffffffffffffffffffffffffff1673ffffffffffffffffffffffffffffffffffffffff1673ffffffffffffffffffffffffffffffffffffffff1681526020016001820154815260200160028201548152602001600382015f9054906101000a900460ff16151515158152505090505f73ffffffffffffffffffffffffffffffffffffffff16815f015173ffffffffffffffffffffffffffffffffffffffff1603610543576040517fe142361700000000000000000000000000000000000000000000000000000000815260040160405180910390fd5b5f815f015190505f8590505b84811161067e573073ffffffffffffffffffffffffffffffffffffffff168273ffffffffffffffffffffffffffffffffffffffff16636352211e836040518263ffffffff1660e01b81526004016105a691906123c2565b602060405180830381865afa1580156105c1573d5f5f3e3d5ffd5b505050506040513d601f19601f820116820180604052508101906105e591906123ef565b73ffffffffffffffffffffffffffffffffffffffff160361066b578173ffffffffffffffffffffffffffffffffffffffff166342842e0e3086846040518463ffffffff1660e01b815260040161063d9392919061241a565b5f604051808303815f87803b158015610654575f5ffd5b505af1158015610666573d5f5f3e3d5ffd5b505050505b80806106769061247c565b91505061054f565b50505050505050565b61068f6118c7565b5f60025f8481526020019081526020015f206040518060800160405290815f82015f9054906101000a900473ffffffffffffffffffffffffffffffffffffffff1673ffffffffffffffffffffffffffffffffffffffff1673ffffffffffffffffffffffffffffffffffffffff1681526020016001820154815260200160028201548152602001600382015f9054906101000a900460ff16151515158152505090505f73ffffffffffffffffffffffffffffffffffffffff16815f015173ffffffffffffffffffffffffffffffffffffffff1603610798576040517fe142361700000000000000000000000000000000000000000000000000000000815260040160405180910390fd5b5f815f015190505f8173ffffffffffffffffffffffffffffffffffffffff166370a08231306040518263ffffffff1660e01b81526004016107d99190612146565b602060405180830381865afa1580156107f4573d5f5f3e3d5ffd5b505050506040513d601f19601f8201168201806040525081019061081891906124d7565b90505f5f90505b8181101561091f575f8373ffffffffffffffffffffffffffffffffffffffff16632f745c59305f6040518363ffffffff1660e01b815260040161086392919061253b565b602060405180830381865afa15801561087e573d5f5f3e3d5ffd5b505050506040513d601f19601f820116820180604052508101906108a291906124d7565b9050845f015173ffffffffffffffffffffffffffffffffffffffff166342842e0e3088846040518463ffffffff1660e01b81526004016108e49392919061241a565b5f604051808303815f87803b1580156108fb575f5ffd5b505af115801561090d573d5f5f3e3d5ffd5b5050505050808060010191505061081f565b505050505050565b61092f6118c7565b5f8273ffffffffffffffffffffffffffffffffffffffff166370a08231306040518263ffffffff1660e01b81526004016109699190612146565b602060405180830381865afa158015610984573d5f5f3e3d5ffd5b505050506040513d601f19601f820116820180604052508101906109a891906124d7565b90508273ffffffffffffffffffffffffffffffffffffffff1663a9059cbb83836040518363ffffffff1660e01b81526004016109e5929190612562565b6020604051808303815f875af1158015610a01573d5f5f3e3d5ffd5b505050506040513d601f19601f82011682018060405250810190610a25919061259d565b50505050565b60035f9054906101000a900473ffffffffffffffffffffffffffffffffffffffff1681565b610a586118c7565b610a615f61194e565b565b7f000000000000000000000000000000000000000000000000000000000000000081565b5f60015f9054906101000a900473ffffffffffffffffffffffffffffffffffffffff16905090565b610ab7611a11565b5f60025f8381526020019081526020015f206040518060800160405290815f82015f9054906101000a900473ffffffffffffffffffffffffffffffffffffffff1673ffffffffffffffffffffffffffffffffffffffff1673ffffffffffffffffffffffffffffffffffffffff1681526020016001820154815260200160028201548152602001600382015f9054906101000a900460ff16151515158152505090505f73ffffffffffffffffffffffffffffffffffffffff16815f015173ffffffffffffffffffffffffffffffffffffffff1603610bc0576040517fe142361700000000000000000000000000000000000000000000000000000000815260040160405180910390fd5b80606001511580610bd457505f8160200151145b15610c0b576040517f94d366b500000000000000000000000000000000000000000000000000000000815260040160405180910390fd5b80602001513414610c48576040517fb0ccca4500000000000000000000000000000000000000000000000000000000815260040160405180910390fd5b5f610c55825f0151611a5e565b90505f60035f9054906101000a900473ffffffffffffffffffffffffffffffffffffffff1673ffffffffffffffffffffffffffffffffffffffff1634604051610c9d906125f5565b5f6040518083038185875af1925050503d805f8114610cd7576040519150601f19603f3d011682016040523d82523d5f602084013e610cdc565b606091505b5050905080610d20576040517f08c379a0000000000000000000000000000000000000000000000000000000008152600401610d1790612663565b60405180910390fd5b825f015173ffffffffffffffffffffffffffffffffffffffff166342842e0e3033856040518463ffffffff1660e01b8152600401610d609392919061241a565b5f604051808303815f87803b158015610d77575f5ffd5b505af1158015610d89573d5f5f3e3d5ffd5b50505050505050610d98611b9a565b50565b610da36118c7565b5f60025f8581526020019081526020015f206040518060800160405290815f82015f9054906101000a900473ffffffffffffffffffffffffffffffffffffffff1673ffffffffffffffffffffffffffffffffffffffff1673ffffffffffffffffffffffffffffffffffffffff1681526020016001820154815260200160028201548152602001600382015f9054906101000a900460ff16151515158152505090505f73ffffffffffffffffffffffffffffffffffffffff16815f015173ffffffffffffffffffffffffffffffffffffffff1603610eac576040517fe142361700000000000000000000000000000000000000000000000000000000815260040160405180910390fd5b805f015173ffffffffffffffffffffffffffffffffffffffff166342842e0e3084866040518463ffffffff1660e01b8152600401610eec9392919061241a565b5f604051808303815f87803b158015610f03575f5ffd5b505af1158015610f15573d5f5f3e3d5ffd5b5050505050505050565b610f27611a11565b5f60025f8381526020019081526020015f206040518060800160405290815f82015f9054906101000a900473ffffffffffffffffffffffffffffffffffffffff1673ffffffffffffffffffffffffffffffffffffffff1673ffffffffffffffffffffffffffffffffffffffff1681526020016001820154815260200160028201548152602001600382015f9054906101000a900460ff16151515158152505090505f73ffffffffffffffffffffffffffffffffffffffff16815f015173ffffffffffffffffffffffffffffffffffffffff1603611030576040517fe142361700000000000000000000000000000000000000000000000000000000815260040160405180910390fd5b8060600151158061104457505f8160400151145b1561107b576040517f94d366b500000000000000000000000000000000000000000000000000000000815260040160405180910390fd5b5f611088825f0151611a5e565b90506110db333084604001517f000000000000000000000000000000000000000000000000000000000000000073ffffffffffffffffffffffffffffffffffffffff16611ba3909392919063ffffffff16565b61114b60035f9054906101000a900473ffffffffffffffffffffffffffffffffffffffff1683604001517f000000000000000000000000000000000000000000000000000000000000000073ffffffffffffffffffffffffffffffffffffffff16611c259092919063ffffffff16565b815f015173ffffffffffffffffffffffffffffffffffffffff166342842e0e3033846040518463ffffffff1660e01b815260040161118b9392919061241a565b5f604051808303815f87803b1580156111a2575f5ffd5b505af11580156111b4573d5f5f3e3d5ffd5b5050505050506111c2611b9a565b50565b6111cd6118c7565b60405180608001604052808573ffffffffffffffffffffffffffffffffffffffff16815260200184815260200183815260200182151581525060025f8781526020019081526020015f205f820151815f015f6101000a81548173ffffffffffffffffffffffffffffffffffffffff021916908373ffffffffffffffffffffffffffffffffffffffff16021790555060208201518160010155604082015181600201556060820151816003015f6101000a81548160ff0219169083151502179055509050505050505050565b6112a0611a11565b5f60025f8881526020019081526020015f206040518060800160405290815f82015f9054906101000a900473ffffffffffffffffffffffffffffffffffffffff1673ffffffffffffffffffffffffffffffffffffffff1673ffffffffffffffffffffffffffffffffffffffff1681526020016001820154815260200160028201548152602001600382015f9054906101000a900460ff16151515158152505090505f73ffffffffffffffffffffffffffffffffffffffff16815f015173ffffffffffffffffffffffffffffffffffffffff16036113a9576040517fe142361700000000000000000000000000000000000000000000000000000000815260040160405180910390fd5b806060015115806113bd57505f8160400151145b156113f4576040517f94d366b500000000000000000000000000000000000000000000000000000000815260040160405180910390fd5b8060400151861461143a576040517f08c379a0000000000000000000000000000000000000000000000000000000008152600401611431906126cb565b60405180910390fd5b7f000000000000000000000000000000000000000000000000000000000000000073ffffffffffffffffffffffffffffffffffffffff1663d505accf333089898989896040518863ffffffff1660e01b815260040161149f9796959493929190612707565b5f604051808303815f87803b1580156114b6575f5ffd5b505af11580156114c8573d5f5f3e3d5ffd5b505050506114d587610f1f565b506114de611b9a565b505050505050565b6114ee6118c7565b5f60025f8581526020019081526020015f206040518060800160405290815f82015f9054906101000a900473ffffffffffffffffffffffffffffffffffffffff1673ffffffffffffffffffffffffffffffffffffffff1673ffffffffffffffffffffffffffffffffffffffff1681526020016001820154815260200160028201548152602001600382015f9054906101000a900460ff16151515158152505090505f73ffffffffffffffffffffffffffffffffffffffff16815f015173ffffffffffffffffffffffffffffffffffffffff16036115f7576040517fe142361700000000000000000000000000000000000000000000000000000000815260040160405180910390fd5b5f815f015190505f8173ffffffffffffffffffffffffffffffffffffffff166370a08231306040518263ffffffff1660e01b81526004016116389190612146565b602060405180830381865afa158015611653573d5f5f3e3d5ffd5b505050506040513d601f19601f8201168201806040525081019061167791906124d7565b905080851115611685578094505b5f5f90505b8581101561178a575f8373ffffffffffffffffffffffffffffffffffffffff16632f745c59305f6040518363ffffffff1660e01b81526004016116ce92919061253b565b602060405180830381865afa1580156116e9573d5f5f3e3d5ffd5b505050506040513d601f19601f8201168201806040525081019061170d91906124d7565b9050845f015173ffffffffffffffffffffffffffffffffffffffff166342842e0e3088846040518463ffffffff1660e01b815260040161174f9392919061241a565b5f604051808303815f87803b158015611766575f5ffd5b505af1158015611778573d5f5f3e3d5ffd5b5050505050808060010191505061168a565b50505050505050565b61179b6118c7565b5f73ffffffffffffffffffffffffffffffffffffffff168173ffffffffffffffffffffffffffffffffffffffff1603611800576040517fd92e233d00000000000000000000000000000000000000000000000000000000815260040160405180910390fd5b8060035f6101000a81548173ffffffffffffffffffffffffffffffffffffffff021916908373ffffffffffffffffffffffffffffffffffffffff16021790555050565b61184b6118c7565b5f73ffffffffffffffffffffffffffffffffffffffff168173ffffffffffffffffffffffffffffffffffffffff16036118bb575f6040517f1e4fbdf70000000000000000000000000000000000000000000000000000000081526004016118b29190612146565b60405180910390fd5b6118c48161194e565b50565b6118cf611ca4565b73ffffffffffffffffffffffffffffffffffffffff166118ed610a87565b73ffffffffffffffffffffffffffffffffffffffff161461194c57611910611ca4565b6040517f118cdaa70000000000000000000000000000000000000000000000000000000081526004016119439190612146565b60405180910390fd5b565b5f60015f9054906101000a900473ffffffffffffffffffffffffffffffffffffffff1690508160015f6101000a81548173ffffffffffffffffffffffffffffffffffffffff021916908373ffffffffffffffffffffffffffffffffffffffff1602179055508173ffffffffffffffffffffffffffffffffffffffff168173ffffffffffffffffffffffffffffffffffffffff167f8be0079c531659141344cd1fd0a4f28419497f9722a3daafe3b4186f6b6457e060405160405180910390a35050565b60025f5403611a55576040517f08c379a0000000000000000000000000000000000000000000000000000000008152600401611a4c906127be565b60405180910390fd5b60025f81905550565b5f5f8290505f8173ffffffffffffffffffffffffffffffffffffffff166370a08231306040518263ffffffff1660e01b8152600401611a9d9190612146565b602060405180830381865afa158015611ab8573d5f5f3e3d5ffd5b505050506040513d601f19601f82011682018060405250810190611adc91906124d7565b90505f8103611b17576040517f52df9fe500000000000000000000000000000000000000000000000000000000815260040160405180910390fd5b8173ffffffffffffffffffffffffffffffffffffffff16632f745c59305f6040518363ffffffff1660e01b8152600401611b5292919061253b565b602060405180830381865afa158015611b6d573d5f5f3e3d5ffd5b505050506040513d601f19601f82011682018060405250810190611b9191906124d7565b92505050919050565b60015f81905550565b611c1f848573ffffffffffffffffffffffffffffffffffffffff166323b872dd868686604051602401611bd89392919061241a565b604051602081830303815290604052915060e01b6020820180517bffffffffffffffffffffffffffffffffffffffffffffffffffffffff8381831617835250505050611cab565b50505050565b611c9f838473ffffffffffffffffffffffffffffffffffffffff1663a9059cbb8585604051602401611c58929190612562565b604051602081830303815290604052915060e01b6020820180517bffffffffffffffffffffffffffffffffffffffffffffffffffffffff8381831617835250505050611cab565b505050565b5f33905090565b5f5f60205f8451602086015f885af180611cca576040513d5f823e3d81fd5b3d92505f519150505f8214611ce3576001811415611cfe565b5f8473ffffffffffffffffffffffffffffffffffffffff163b145b15611d4057836040517f5274afe7000000000000000000000000000000000000000000000000000000008152600401611d379190612146565b60405180910390fd5b50505050565b5f5ffd5b5f5ffd5b5f819050919050565b611d6081611d4e565b8114611d6a575f5ffd5b50565b5f81359050611d7b81611d57565b92915050565b5f60208284031215611d9657611d95611d46565b5b5f611da384828501611d6d565b91505092915050565b5f73ffffffffffffffffffffffffffffffffffffffff82169050919050565b5f611dd582611dac565b9050919050565b611de581611dcb565b82525050565b611df481611d4e565b82525050565b5f8115159050919050565b611e0e81611dfa565b82525050565b5f608082019050611e275f830187611ddc565b611e346020830186611deb565b611e416040830185611deb565b611e4e6060830184611e05565b95945050505050565b611e6081611dcb565b8114611e6a575f5ffd5b50565b5f81359050611e7b81611e57565b92915050565b5f5ffd5b5f5ffd5b5f5ffd5b5f5f83601f840112611ea257611ea1611e81565b5b8235905067ffffffffffffffff811115611ebf57611ebe611e85565b5b602083019150836001820283011115611edb57611eda611e89565b5b9250929050565b5f5f5f5f5f60808688031215611efb57611efa611d46565b5b5f611f0888828901611e6d565b9550506020611f1988828901611e6d565b9450506040611f2a88828901611d6d565b935050606086013567ffffffffffffffff811115611f4b57611f4a611d4a565b5b611f5788828901611e8d565b92509250509295509295909350565b5f7fffffffff0000000000000000000000000000000000000000000000000000000082169050919050565b611f9a81611f66565b82525050565b5f602082019050611fb35f830184611f91565b92915050565b5f5f5f5f60808587031215611fd157611fd0611d46565b5b5f611fde87828801611d6d565b9450506020611fef87828801611d6d565b935050604061200087828801611d6d565b925050606061201187828801611e6d565b91505092959194509250565b5f5f6040838503121561203357612032611d46565b5b5f61204085828601611d6d565b925050602061205185828601611e6d565b9150509250929050565b5f5f6040838503121561207157612070611d46565b5b5f61207e85828601611e6d565b925050602061208f85828601611e6d565b9150509250929050565b5f6120a382611dac565b9050919050565b6120b381612099565b82525050565b5f6020820190506120cc5f8301846120aa565b92915050565b5f819050919050565b5f6120f56120f06120eb84611dac565b6120d2565b611dac565b9050919050565b5f612106826120db565b9050919050565b5f612117826120fc565b9050919050565b6121278161210d565b82525050565b5f6020820190506121405f83018461211e565b92915050565b5f6020820190506121595f830184611ddc565b92915050565b5f5f5f6060848603121561217657612175611d46565b5b5f61218386828701611d6d565b935050602061219486828701611d6d565b92505060406121a586828701611e6d565b9150509250925092565b6121b881611dfa565b81146121c2575f5ffd5b50565b5f813590506121d3816121af565b92915050565b5f5f5f5f5f60a086880312156121f2576121f1611d46565b5b5f6121ff88828901611d6d565b955050602061221088828901611e6d565b945050604061222188828901611d6d565b935050606061223288828901611d6d565b9250506080612243888289016121c5565b9150509295509295909350565b5f60ff82169050919050565b61226581612250565b811461226f575f5ffd5b50565b5f813590506122808161225c565b92915050565b5f819050919050565b61229881612286565b81146122a2575f5ffd5b50565b5f813590506122b38161228f565b92915050565b5f5f5f5f5f5f60c087890312156122d3576122d2611d46565b5b5f6122e089828a01611d6d565b96505060206122f189828a01611d6d565b955050604061230289828a01611d6d565b945050606061231389828a01612272565b935050608061232489828a016122a5565b92505060a061233589828a016122a5565b9150509295509295509295565b61234b81612099565b8114612355575f5ffd5b50565b5f8135905061236681612342565b92915050565b5f6020828403121561238157612380611d46565b5b5f61238e84828501612358565b91505092915050565b5f602082840312156123ac576123ab611d46565b5b5f6123b984828501611e6d565b91505092915050565b5f6020820190506123d55f830184611deb565b92915050565b5f815190506123e981611e57565b92915050565b5f6020828403121561240457612403611d46565b5b5f612411848285016123db565b91505092915050565b5f60608201905061242d5f830186611ddc565b61243a6020830185611ddc565b6124476040830184611deb565b949350505050565b7f4e487b71000000000000000000000000000000000000000000000000000000005f52601160045260245ffd5b5f61248682611d4e565b91507fffffffffffffffffffffffffffffffffffffffffffffffffffffffffffffffff82036124b8576124b761244f565b5b600182019050919050565b5f815190506124d181611d57565b92915050565b5f602082840312156124ec576124eb611d46565b5b5f6124f9848285016124c3565b91505092915050565b5f819050919050565b5f61252561252061251b84612502565b6120d2565b611d4e565b9050919050565b6125358161250b565b82525050565b5f60408201905061254e5f830185611ddc565b61255b602083018461252c565b9392505050565b5f6040820190506125755f830185611ddc565b6125826020830184611deb565b9392505050565b5f81519050612597816121af565b92915050565b5f602082840312156125b2576125b1611d46565b5b5f6125bf84828501612589565b91505092915050565b5f81905092915050565b50565b5f6125e05f836125c8565b91506125eb826125d2565b5f82019050919050565b5f6125ff826125d5565b9150819050919050565b5f82825260208201905092915050565b7f455448207472616e73666572206661696c6564000000000000000000000000005f82015250565b5f61264d601383612609565b915061265882612619565b602082019050919050565b5f6020820190508181035f83015261267a81612641565b9050919050565b7f7065726d69742076616c7565206d69736d6174636800000000000000000000005f82015250565b5f6126b5601583612609565b91506126c082612681565b602082019050919050565b5f6020820190508181035f8301526126e2816126a9565b9050919050565b6126f281612250565b82525050565b61270181612286565b82525050565b5f60e08201905061271a5f83018a611ddc565b6127276020830189611ddc565b6127346040830188611deb565b6127416060830187611deb565b61274e60808301866126e9565b61275b60a08301856126f8565b61276860c08301846126f8565b98975050505050505050565b7f5265656e7472616e637947756172643a207265656e7472616e742063616c6c005f82015250565b5f6127a8601f83612609565b91506127b382612774565b602082019050919050565b5f6020820190508181035f8301526127d58161279c565b905091905056fea26469706673582212209fc1eebc56c8f6f355eb24ebc27bc8ae98edcc2a71aa4fa63dd8f86493b7227a64736f6c634300081e0033",
					"opcodes": "PUSH1 0xA0 PUSH1 0x40 MSTORE CALLVALUE DUP1 ISZERO PUSH2 0xF JUMPI PUSH0 PUSH0 REVERT JUMPDEST POP PUSH1 0x40 MLOAD PUSH2 0x2BE4 CODESIZE SUB DUP1 PUSH2 0x2BE4 DUP4 CODECOPY DUP2 DUP2 ADD PUSH1 0x40 MSTORE DUP2 ADD SWAP1 PUSH2 0x31 SWAP2 SWAP1 PUSH2 0x32D JUMP JUMPDEST DUP3 PUSH1 0x1 PUSH0 DUP2 SWAP1 SSTORE POP PUSH0 PUSH20 0xFFFFFFFFFFFFFFFFFFFFFFFFFFFFFFFFFFFFFFFF AND DUP2 PUSH20 0xFFFFFFFFFFFFFFFFFFFFFFFFFFFFFFFFFFFFFFFF AND SUB PUSH2 0xA9 JUMPI PUSH0 PUSH1 0x40 MLOAD PUSH32 0x1E4FBDF700000000000000000000000000000000000000000000000000000000 DUP2 MSTORE PUSH1 0x4 ADD PUSH2 0xA0 SWAP2 SWAP1 PUSH2 0x38C JUMP JUMPDEST PUSH1 0x40 MLOAD DUP1 SWAP2 SUB SWAP1 REVERT JUMPDEST PUSH2 0xB8 DUP2 PUSH2 0x1D1 PUSH1 0x20 SHL PUSH1 0x20 SHR JUMP JUMPDEST POP PUSH0 PUSH20 0xFFFFFFFFFFFFFFFFFFFFFFFFFFFFFFFFFFFFFFFF AND DUP3 PUSH20 0xFFFFFFFFFFFFFFFFFFFFFFFFFFFFFFFFFFFFFFFF AND EQ DUP1 PUSH2 0x11E JUMPI POP PUSH0 PUSH20 0xFFFFFFFFFFFFFFFFFFFFFFFFFFFFFFFFFFFFFFFF AND DUP2 PUSH20 0xFFFFFFFFFFFFFFFFFFFFFFFFFFFFFFFFFFFFFFFF AND EQ JUMPDEST ISZERO PUSH2 0x155 JUMPI PUSH1 0x40 MLOAD PUSH32 0xD92E233D00000000000000000000000000000000000000000000000000000000 DUP2 MSTORE PUSH1 0x4 ADD PUSH1 0x40 MLOAD DUP1 SWAP2 SUB SWAP1 REVERT JUMPDEST DUP2 PUSH1 0x3 PUSH0 PUSH2 0x100 EXP DUP2 SLOAD DUP2 PUSH20 0xFFFFFFFFFFFFFFFFFFFFFFFFFFFFFFFFFFFFFFFF MUL NOT AND SWAP1 DUP4 PUSH20 0xFFFFFFFFFFFFFFFFFFFFFFFFFFFFFFFFFFFFFFFF AND MUL OR SWAP1 SSTORE POP DUP1 PUSH20 0xFFFFFFFFFFFFFFFFFFFFFFFFFFFFFFFFFFFFFFFF AND PUSH1 0x80 DUP2 PUSH20 0xFFFFFFFFFFFFFFFFFFFFFFFFFFFFFFFFFFFFFFFF AND DUP2 MSTORE POP POP POP POP POP PUSH2 0x3A5 JUMP JUMPDEST PUSH0 PUSH1 0x1 PUSH0 SWAP1 SLOAD SWAP1 PUSH2 0x100 EXP SWAP1 DIV PUSH20 0xFFFFFFFFFFFFFFFFFFFFFFFFFFFFFFFFFFFFFFFF AND SWAP1 POP DUP2 PUSH1 0x1 PUSH0 PUSH2 0x100 EXP DUP2 SLOAD DUP2 PUSH20 0xFFFFFFFFFFFFFFFFFFFFFFFFFFFFFFFFFFFFFFFF MUL NOT AND SWAP1 DUP4 PUSH20 0xFFFFFFFFFFFFFFFFFFFFFFFFFFFFFFFFFFFFFFFF AND MUL OR SWAP1 SSTORE POP DUP2 PUSH20 0xFFFFFFFFFFFFFFFFFFFFFFFFFFFFFFFFFFFFFFFF AND DUP2 PUSH20 0xFFFFFFFFFFFFFFFFFFFFFFFFFFFFFFFFFFFFFFFF AND PUSH32 0x8BE0079C531659141344CD1FD0A4F28419497F9722A3DAAFE3B4186F6B6457E0 PUSH1 0x40 MLOAD PUSH1 0x40 MLOAD DUP1 SWAP2 SUB SWAP1 LOG3 POP POP JUMP JUMPDEST PUSH0 PUSH0 REVERT JUMPDEST PUSH0 PUSH20 0xFFFFFFFFFFFFFFFFFFFFFFFFFFFFFFFFFFFFFFFF DUP3 AND SWAP1 POP SWAP2 SWAP1 POP JUMP JUMPDEST PUSH0 PUSH2 0x2C1 DUP3 PUSH2 0x298 JUMP JUMPDEST SWAP1 POP SWAP2 SWAP1 POP JUMP JUMPDEST PUSH2 0x2D1 DUP2 PUSH2 0x2B7 JUMP JUMPDEST DUP2 EQ PUSH2 0x2DB JUMPI PUSH0 PUSH0 REVERT JUMPDEST POP JUMP JUMPDEST PUSH0 DUP2 MLOAD SWAP1 POP PUSH2 0x2EC DUP2 PUSH2 0x2C8 JUMP JUMPDEST SWAP3 SWAP2 POP POP JUMP JUMPDEST PUSH0 PUSH2 0x2FC DUP3 PUSH2 0x298 JUMP JUMPDEST SWAP1 POP SWAP2 SWAP1 POP JUMP JUMPDEST PUSH2 0x30C DUP2 PUSH2 0x2F2 JUMP JUMPDEST DUP2 EQ PUSH2 0x316 JUMPI PUSH0 PUSH0 REVERT JUMPDEST POP JUMP JUMPDEST PUSH0 DUP2 MLOAD SWAP1 POP PUSH2 0x327 DUP2 PUSH2 0x303 JUMP JUMPDEST SWAP3 SWAP2 POP POP JUMP JUMPDEST PUSH0 PUSH0 PUSH0 PUSH1 0x60 DUP5 DUP7 SUB SLT ISZERO PUSH2 0x344 JUMPI PUSH2 0x343 PUSH2 0x294 JUMP JUMPDEST JUMPDEST PUSH0 PUSH2 0x351 DUP7 DUP3 DUP8 ADD PUSH2 0x2DE JUMP JUMPDEST SWAP4 POP POP PUSH1 0x20 PUSH2 0x362 DUP7 DUP3 DUP8 ADD PUSH2 0x319 JUMP JUMPDEST SWAP3 POP POP PUSH1 0x40 PUSH2 0x373 DUP7 DUP3 DUP8 ADD PUSH2 0x2DE JUMP JUMPDEST SWAP2 POP POP SWAP3 POP SWAP3 POP SWAP3 JUMP JUMPDEST PUSH2 0x386 DUP2 PUSH2 0x2B7 JUMP JUMPDEST DUP3 MSTORE POP POP JUMP JUMPDEST PUSH0 PUSH1 0x20 DUP3 ADD SWAP1 POP PUSH2 0x39F PUSH0 DUP4 ADD DUP5 PUSH2 0x37D JUMP JUMPDEST SWAP3 SWAP2 POP POP JUMP JUMPDEST PUSH1 0x80 MLOAD PUSH2 0x2812 PUSH2 0x3D2 PUSH0 CODECOPY PUSH0 DUP2 DUP2 PUSH2 0xA65 ADD MSTORE DUP2 DUP2 PUSH2 0x1096 ADD MSTORE DUP2 DUP2 PUSH2 0x1107 ADD MSTORE PUSH2 0x143C ADD MSTORE PUSH2 0x2812 PUSH0 RETURN INVALID PUSH1 0x80 PUSH1 0x40 MSTORE PUSH1 0x4 CALLDATASIZE LT PUSH2 0x101 JUMPI PUSH0 CALLDATALOAD PUSH1 0xE0 SHR DUP1 PUSH4 0x8DA5CB5B GT PUSH2 0x94 JUMPI DUP1 PUSH4 0xB5DDC0F4 GT PUSH2 0x63 JUMPI DUP1 PUSH4 0xB5DDC0F4 EQ PUSH2 0x2FF JUMPI DUP1 PUSH4 0xBB6416AE EQ PUSH2 0x327 JUMPI DUP1 PUSH4 0xDDD32898 EQ PUSH2 0x34F JUMPI DUP1 PUSH4 0xF0F44260 EQ PUSH2 0x377 JUMPI DUP1 PUSH4 0xF2FDE38B EQ PUSH2 0x39F JUMPI PUSH2 0x108 JUMP JUMPDEST DUP1 PUSH4 0x8DA5CB5B EQ PUSH2 0x269 JUMPI DUP1 PUSH4 0x94DC9CF3 EQ PUSH2 0x293 JUMPI DUP1 PUSH4 0x9C66FB7E EQ PUSH2 0x2AF JUMPI DUP1 PUSH4 0xAECCF735 EQ PUSH2 0x2D7 JUMPI PUSH2 0x108 JUMP JUMPDEST DUP1 PUSH4 0x582515C7 GT PUSH2 0xD0 JUMPI DUP1 PUSH4 0x582515C7 EQ PUSH2 0x1D7 JUMPI DUP1 PUSH4 0x61D027B3 EQ PUSH2 0x1FF JUMPI DUP1 PUSH4 0x715018A6 EQ PUSH2 0x229 JUMPI DUP1 PUSH4 0x89A30271 EQ PUSH2 0x23F JUMPI PUSH2 0x108 JUMP JUMPDEST DUP1 PUSH4 0x39AF9EB EQ PUSH2 0x10C JUMPI DUP1 PUSH4 0x150B7A02 EQ PUSH2 0x14B JUMPI DUP1 PUSH4 0x26E84CC3 EQ PUSH2 0x187 JUMPI DUP1 PUSH4 0x4C2233A5 EQ PUSH2 0x1AF JUMPI PUSH2 0x108 JUMP JUMPDEST CALLDATASIZE PUSH2 0x108 JUMPI STOP JUMPDEST PUSH0 PUSH0 REVERT JUMPDEST CALLVALUE DUP1 ISZERO PUSH2 0x117 JUMPI PUSH0 PUSH0 REVERT JUMPDEST POP PUSH2 0x132 PUSH1 0x4 DUP1 CALLDATASIZE SUB DUP2 ADD SWAP1 PUSH2 0x12D SWAP2 SWAP1 PUSH2 0x1D81 JUMP JUMPDEST PUSH2 0x3C7 JUMP JUMPDEST PUSH1 0x40 MLOAD PUSH2 0x142 SWAP5 SWAP4 SWAP3 SWAP2 SWAP1 PUSH2 0x1E14 JUMP JUMPDEST PUSH1 0x40 MLOAD DUP1 SWAP2 SUB SWAP1 RETURN JUMPDEST CALLVALUE DUP1 ISZERO PUSH2 0x156 JUMPI PUSH0 PUSH0 REVERT JUMPDEST POP PUSH2 0x171 PUSH1 0x4 DUP1 CALLDATASIZE SUB DUP2 ADD SWAP1 PUSH2 0x16C SWAP2 SWAP1 PUSH2 0x1EE2 JUMP JUMPDEST PUSH2 0x41E JUMP JUMPDEST PUSH1 0x40 MLOAD PUSH2 0x17E SWAP2 SWAP1 PUSH2 0x1FA0 JUMP JUMPDEST PUSH1 0x40 MLOAD DUP1 SWAP2 SUB SWAP1 RETURN JUMPDEST CALLVALUE DUP1 ISZERO PUSH2 0x192 JUMPI PUSH0 PUSH0 REVERT JUMPDEST POP PUSH2 0x1AD PUSH1 0x4 DUP1 CALLDATASIZE SUB DUP2 ADD SWAP1 PUSH2 0x1A8 SWAP2 SWAP1 PUSH2 0x1FB9 JUMP JUMPDEST PUSH2 0x432 JUMP JUMPDEST STOP JUMPDEST CALLVALUE DUP1 ISZERO PUSH2 0x1BA JUMPI PUSH0 PUSH0 REVERT JUMPDEST POP PUSH2 0x1D5 PUSH1 0x4 DUP1 CALLDATASIZE SUB DUP2 ADD SWAP1 PUSH2 0x1D0 SWAP2 SWAP1 PUSH2 0x201D JUMP JUMPDEST PUSH2 0x687 JUMP JUMPDEST STOP JUMPDEST CALLVALUE DUP1 ISZERO PUSH2 0x1E2 JUMPI PUSH0 PUSH0 REVERT JUMPDEST POP PUSH2 0x1FD PUSH1 0x4 DUP1 CALLDATASIZE SUB DUP2 ADD SWAP1 PUSH2 0x1F8 SWAP2 SWAP1 PUSH2 0x205B JUMP JUMPDEST PUSH2 0x927 JUMP JUMPDEST STOP JUMPDEST CALLVALUE DUP1 ISZERO PUSH2 0x20A JUMPI PUSH0 PUSH0 REVERT JUMPDEST POP PUSH2 0x213 PUSH2 0xA2B JUMP JUMPDEST PUSH1 0x40 MLOAD PUSH2 0x220 SWAP2 SWAP1 PUSH2 0x20B9 JUMP JUMPDEST PUSH1 0x40 MLOAD DUP1 SWAP2 SUB SWAP1 RETURN JUMPDEST CALLVALUE DUP1 ISZERO PUSH2 0x234 JUMPI PUSH0 PUSH0 REVERT JUMPDEST POP PUSH2 0x23D PUSH2 0xA50 JUMP JUMPDEST STOP JUMPDEST CALLVALUE DUP1 ISZERO PUSH2 0x24A JUMPI PUSH0 PUSH0 REVERT JUMPDEST POP PUSH2 0x253 PUSH2 0xA63 JUMP JUMPDEST PUSH1 0x40 MLOAD PUSH2 0x260 SWAP2 SWAP1 PUSH2 0x212D JUMP JUMPDEST PUSH1 0x40 MLOAD DUP1 SWAP2 SUB SWAP1 RETURN JUMPDEST CALLVALUE DUP1 ISZERO PUSH2 0x274 JUMPI PUSH0 PUSH0 REVERT JUMPDEST POP PUSH2 0x27D PUSH2 0xA87 JUMP JUMPDEST PUSH1 0x40 MLOAD PUSH2 0x28A SWAP2 SWAP1 PUSH2 0x2146 JUMP JUMPDEST PUSH1 0x40 MLOAD DUP1 SWAP2 SUB SWAP1 RETURN JUMPDEST PUSH2 0x2AD PUSH1 0x4 DUP1 CALLDATASIZE SUB DUP2 ADD SWAP1 PUSH2 0x2A8 SWAP2 SWAP1 PUSH2 0x1D81 JUMP JUMPDEST PUSH2 0xAAF JUMP JUMPDEST STOP JUMPDEST CALLVALUE DUP1 ISZERO PUSH2 0x2BA JUMPI PUSH0 PUSH0 REVERT JUMPDEST POP PUSH2 0x2D5 PUSH1 0x4 DUP1 CALLDATASIZE SUB DUP2 ADD SWAP1 PUSH2 0x2D0 SWAP2 SWAP1 PUSH2 0x215F JUMP JUMPDEST PUSH2 0xD9B JUMP JUMPDEST STOP JUMPDEST CALLVALUE DUP1 ISZERO PUSH2 0x2E2 JUMPI PUSH0 PUSH0 REVERT JUMPDEST POP PUSH2 0x2FD PUSH1 0x4 DUP1 CALLDATASIZE SUB DUP2 ADD SWAP1 PUSH2 0x2F8 SWAP2 SWAP1 PUSH2 0x1D81 JUMP JUMPDEST PUSH2 0xF1F JUMP JUMPDEST STOP JUMPDEST CALLVALUE DUP1 ISZERO PUSH2 0x30A JUMPI PUSH0 PUSH0 REVERT JUMPDEST POP PUSH2 0x325 PUSH1 0x4 DUP1 CALLDATASIZE SUB DUP2 ADD SWAP1 PUSH2 0x320 SWAP2 SWAP1 PUSH2 0x21D9 JUMP JUMPDEST PUSH2 0x11C5 JUMP JUMPDEST STOP JUMPDEST CALLVALUE DUP1 ISZERO PUSH2 0x332 JUMPI PUSH0 PUSH0 REVERT JUMPDEST POP PUSH2 0x34D PUSH1 0x4 DUP1 CALLDATASIZE SUB DUP2 ADD SWAP1 PUSH2 0x348 SWAP2 SWAP1 PUSH2 0x22B9 JUMP JUMPDEST PUSH2 0x1298 JUMP JUMPDEST STOP JUMPDEST CALLVALUE DUP1 ISZERO PUSH2 0x35A JUMPI PUSH0 PUSH0 REVERT JUMPDEST POP PUSH2 0x375 PUSH1 0x4 DUP1 CALLDATASIZE SUB DUP2 ADD SWAP1 PUSH2 0x370 SWAP2 SWAP1 PUSH2 0x215F JUMP JUMPDEST PUSH2 0x14E6 JUMP JUMPDEST STOP JUMPDEST CALLVALUE DUP1 ISZERO PUSH2 0x382 JUMPI PUSH0 PUSH0 REVERT JUMPDEST POP PUSH2 0x39D PUSH1 0x4 DUP1 CALLDATASIZE SUB DUP2 ADD SWAP1 PUSH2 0x398 SWAP2 SWAP1 PUSH2 0x236C JUMP JUMPDEST PUSH2 0x1793 JUMP JUMPDEST STOP JUMPDEST CALLVALUE DUP1 ISZERO PUSH2 0x3AA JUMPI PUSH0 PUSH0 REVERT JUMPDEST POP PUSH2 0x3C5 PUSH1 0x4 DUP1 CALLDATASIZE SUB DUP2 ADD SWAP1 PUSH2 0x3C0 SWAP2 SWAP1 PUSH2 0x2397 JUMP JUMPDEST PUSH2 0x1843 JUMP JUMPDEST STOP JUMPDEST PUSH1 0x2 PUSH1 0x20 MSTORE DUP1 PUSH0 MSTORE PUSH1 0x40 PUSH0 KECCAK256 PUSH0 SWAP2 POP SWAP1 POP DUP1 PUSH0 ADD PUSH0 SWAP1 SLOAD SWAP1 PUSH2 0x100 EXP SWAP1 DIV PUSH20 0xFFFFFFFFFFFFFFFFFFFFFFFFFFFFFFFFFFFFFFFF AND SWAP1 DUP1 PUSH1 0x1 ADD SLOAD SWAP1 DUP1 PUSH1 0x2 ADD SLOAD SWAP1 DUP1 PUSH1 0x3 ADD PUSH0 SWAP1 SLOAD SWAP1 PUSH2 0x100 EXP SWAP1 DIV PUSH1 0xFF AND SWAP1 POP DUP5 JUMP JUMPDEST PUSH0 PUSH4 0x150B7A02 PUSH1 0xE0 SHL SWAP1 POP SWAP6 SWAP5 POP POP POP POP POP JUMP JUMPDEST PUSH2 0x43A PUSH2 0x18C7 JUMP JUMPDEST PUSH0 PUSH1 0x2 PUSH0 DUP7 DUP2 MSTORE PUSH1 0x20 ADD SWAP1 DUP2 MSTORE PUSH1 0x20 ADD PUSH0 KECCAK256 PUSH1 0x40 MLOAD DUP1 PUSH1 0x80 ADD PUSH1 0x40 MSTORE SWAP1 DUP2 PUSH0 DUP3 ADD PUSH0 SWAP1 SLOAD SWAP1 PUSH2 0x100 EXP SWAP1 DIV PUSH20 0xFFFFFFFFFFFFFFFFFFFFFFFFFFFFFFFFFFFFFFFF AND PUSH20 0xFFFFFFFFFFFFFFFFFFFFFFFFFFFFFFFFFFFFFFFF AND PUSH20 0xFFFFFFFFFFFFFFFFFFFFFFFFFFFFFFFFFFFFFFFF AND DUP2 MSTORE PUSH1 0x20 ADD PUSH1 0x1 DUP3 ADD SLOAD DUP2 MSTORE PUSH1 0x20 ADD PUSH1 0x2 DUP3 ADD SLOAD DUP2 MSTORE PUSH1 0x20 ADD PUSH1 0x3 DUP3 ADD PUSH0 SWAP1 SLOAD SWAP1 PUSH2 0x100 EXP SWAP1 DIV PUSH1 0xFF AND ISZERO ISZERO ISZERO ISZERO DUP2 MSTORE POP POP SWAP1 POP PUSH0 PUSH20 0xFFFFFFFFFFFFFFFFFFFFFFFFFFFFFFFFFFFFFFFF AND DUP2 PUSH0 ADD MLOAD PUSH20 0xFFFFFFFFFFFFFFFFFFFFFFFFFFFFFFFFFFFFFFFF AND SUB PUSH2 0x543 JUMPI PUSH1 0x40 MLOAD PUSH32 0xE142361700000000000000000000000000000000000000000000000000000000 DUP2 MSTORE PUSH1 0x4 ADD PUSH1 0x40 MLOAD DUP1 SWAP2 SUB SWAP1 REVERT JUMPDEST PUSH0 DUP2 PUSH0 ADD MLOAD SWAP1 POP PUSH0 DUP6 SWAP1 POP JUMPDEST DUP5 DUP2 GT PUSH2 0x67E JUMPI ADDRESS PUSH20 0xFFFFFFFFFFFFFFFFFFFFFFFFFFFFFFFFFFFFFFFF AND DUP3 PUSH20 0xFFFFFFFFFFFFFFFFFFFFFFFFFFFFFFFFFFFFFFFF AND PUSH4 0x6352211E DUP4 PUSH1 0x40 MLOAD DUP3 PUSH4 0xFFFFFFFF AND PUSH1 0xE0 SHL DUP2 MSTORE PUSH1 0x4 ADD PUSH2 0x5A6 SWAP2 SWAP1 PUSH2 0x23C2 JUMP JUMPDEST PUSH1 0x20 PUSH1 0x40 MLOAD DUP1 DUP4 SUB DUP2 DUP7 GAS STATICCALL ISZERO DUP1 ISZERO PUSH2 0x5C1 JUMPI RETURNDATASIZE PUSH0 PUSH0 RETURNDATACOPY RETURNDATASIZE PUSH0 REVERT JUMPDEST POP POP POP POP PUSH1 0x40 MLOAD RETURNDATASIZE PUSH1 0x1F NOT PUSH1 0x1F DUP3 ADD AND DUP3 ADD DUP1 PUSH1 0x40 MSTORE POP DUP2 ADD SWAP1 PUSH2 0x5E5 SWAP2 SWAP1 PUSH2 0x23EF JUMP JUMPDEST PUSH20 0xFFFFFFFFFFFFFFFFFFFFFFFFFFFFFFFFFFFFFFFF AND SUB PUSH2 0x66B JUMPI DUP2 PUSH20 0xFFFFFFFFFFFFFFFFFFFFFFFFFFFFFFFFFFFFFFFF AND PUSH4 0x42842E0E ADDRESS DUP7 DUP5 PUSH1 0x40 MLOAD DUP5 PUSH4 0xFFFFFFFF AND PUSH1 0xE0 SHL DUP2 MSTORE PUSH1 0x4 ADD PUSH2 0x63D SWAP4 SWAP3 SWAP2 SWAP1 PUSH2 0x241A JUMP JUMPDEST PUSH0 PUSH1 0x40 MLOAD DUP1 DUP4 SUB DUP2 PUSH0 DUP8 DUP1 EXTCODESIZE ISZERO DUP1 ISZERO PUSH2 0x654 JUMPI PUSH0 PUSH0 REVERT JUMPDEST POP GAS CALL ISZERO DUP1 ISZERO PUSH2 0x666 JUMPI RETURNDATASIZE PUSH0 PUSH0 RETURNDATACOPY RETURNDATASIZE PUSH0 REVERT JUMPDEST POP POP POP POP JUMPDEST DUP1 DUP1 PUSH2 0x676 SWAP1 PUSH2 0x247C JUMP JUMPDEST SWAP2 POP POP PUSH2 0x54F JUMP JUMPDEST POP POP POP POP POP POP POP JUMP JUMPDEST PUSH2 0x68F PUSH2 0x18C7 JUMP JUMPDEST PUSH0 PUSH1 0x2 PUSH0 DUP5 DUP2 MSTORE PUSH1 0x20 ADD SWAP1 DUP2 MSTORE PUSH1 0x20 ADD PUSH0 KECCAK256 PUSH1 0x40 MLOAD DUP1 PUSH1 0x80 ADD PUSH1 0x40 MSTORE SWAP1 DUP2 PUSH0 DUP3 ADD PUSH0 SWAP1 SLOAD SWAP1 PUSH2 0x100 EXP SWAP1 DIV PUSH20 0xFFFFFFFFFFFFFFFFFFFFFFFFFFFFFFFFFFFFFFFF AND PUSH20 0xFFFFFFFFFFFFFFFFFFFFFFFFFFFFFFFFFFFFFFFF AND PUSH20 0xFFFFFFFFFFFFFFFFFFFFFFFFFFFFFFFFFFFFFFFF AND DUP2 MSTORE PUSH1 0x20 ADD PUSH1 0x1 DUP3 ADD SLOAD DUP2 MSTORE PUSH1 0x20 ADD PUSH1 0x2 DUP3 ADD SLOAD DUP2 MSTORE PUSH1 0x20 ADD PUSH1 0x3 DUP3 ADD PUSH0 SWAP1 SLOAD SWAP1 PUSH2 0x100 EXP SWAP1 DIV PUSH1 0xFF AND ISZERO ISZERO ISZERO ISZERO DUP2 MSTORE POP POP SWAP1 POP PUSH0 PUSH20 0xFFFFFFFFFFFFFFFFFFFFFFFFFFFFFFFFFFFFFFFF AND DUP2 PUSH0 ADD MLOAD PUSH20 0xFFFFFFFFFFFFFFFFFFFFFFFFFFFFFFFFFFFFFFFF AND SUB PUSH2 0x798 JUMPI PUSH1 0x40 MLOAD PUSH32 0xE142361700000000000000000000000000000000000000000000000000000000 DUP2 MSTORE PUSH1 0x4 ADD PUSH1 0x40 MLOAD DUP1 SWAP2 SUB SWAP1 REVERT JUMPDEST PUSH0 DUP2 PUSH0 ADD MLOAD SWAP1 POP PUSH0 DUP2 PUSH20 0xFFFFFFFFFFFFFFFFFFFFFFFFFFFFFFFFFFFFFFFF AND PUSH4 0x70A08231 ADDRESS PUSH1 0x40 MLOAD DUP3 PUSH4 0xFFFFFFFF AND PUSH1 0xE0 SHL DUP2 MSTORE PUSH1 0x4 ADD PUSH2 0x7D9 SWAP2 SWAP1 PUSH2 0x2146 JUMP JUMPDEST PUSH1 0x20 PUSH1 0x40 MLOAD DUP1 DUP4 SUB DUP2 DUP7 GAS STATICCALL ISZERO DUP1 ISZERO PUSH2 0x7F4 JUMPI RETURNDATASIZE PUSH0 PUSH0 RETURNDATACOPY RETURNDATASIZE PUSH0 REVERT JUMPDEST POP POP POP POP PUSH1 0x40 MLOAD RETURNDATASIZE PUSH1 0x1F NOT PUSH1 0x1F DUP3 ADD AND DUP3 ADD DUP1 PUSH1 0x40 MSTORE POP DUP2 ADD SWAP1 PUSH2 0x818 SWAP2 SWAP1 PUSH2 0x24D7 JUMP JUMPDEST SWAP1 POP PUSH0 PUSH0 SWAP1 POP JUMPDEST DUP2 DUP2 LT ISZERO PUSH2 0x91F JUMPI PUSH0 DUP4 PUSH20 0xFFFFFFFFFFFFFFFFFFFFFFFFFFFFFFFFFFFFFFFF AND PUSH4 0x2F745C59 ADDRESS PUSH0 PUSH1 0x40 MLOAD DUP4 PUSH4 0xFFFFFFFF AND PUSH1 0xE0 SHL DUP2 MSTORE PUSH1 0x4 ADD PUSH2 0x863 SWAP3 SWAP2 SWAP1 PUSH2 0x253B JUMP JUMPDEST PUSH1 0x20 PUSH1 0x40 MLOAD DUP1 DUP4 SUB DUP2 DUP7 GAS STATICCALL ISZERO DUP1 ISZERO PUSH2 0x87E JUMPI RETURNDATASIZE PUSH0 PUSH0 RETURNDATACOPY RETURNDATASIZE PUSH0 REVERT JUMPDEST POP POP POP POP PUSH1 0x40 MLOAD RETURNDATASIZE PUSH1 0x1F NOT PUSH1 0x1F DUP3 ADD AND DUP3 ADD DUP1 PUSH1 0x40 MSTORE POP DUP2 ADD SWAP1 PUSH2 0x8A2 SWAP2 SWAP1 PUSH2 0x24D7 JUMP JUMPDEST SWAP1 POP DUP5 PUSH0 ADD MLOAD PUSH20 0xFFFFFFFFFFFFFFFFFFFFFFFFFFFFFFFFFFFFFFFF AND PUSH4 0x42842E0E ADDRESS DUP9 DUP5 PUSH1 0x40 MLOAD DUP5 PUSH4 0xFFFFFFFF AND PUSH1 0xE0 SHL DUP2 MSTORE PUSH1 0x4 ADD PUSH2 0x8E4 SWAP4 SWAP3 SWAP2 SWAP1 PUSH2 0x241A JUMP JUMPDEST PUSH0 PUSH1 0x40 MLOAD DUP1 DUP4 SUB DUP2 PUSH0 DUP8 DUP1 EXTCODESIZE ISZERO DUP1 ISZERO PUSH2 0x8FB JUMPI PUSH0 PUSH0 REVERT JUMPDEST POP GAS CALL ISZERO DUP1 ISZERO PUSH2 0x90D JUMPI RETURNDATASIZE PUSH0 PUSH0 RETURNDATACOPY RETURNDATASIZE PUSH0 REVERT JUMPDEST POP POP POP POP POP DUP1 DUP1 PUSH1 0x1 ADD SWAP2 POP POP PUSH2 0x81F JUMP JUMPDEST POP POP POP POP POP POP JUMP JUMPDEST PUSH2 0x92F PUSH2 0x18C7 JUMP JUMPDEST PUSH0 DUP3 PUSH20 0xFFFFFFFFFFFFFFFFFFFFFFFFFFFFFFFFFFFFFFFF AND PUSH4 0x70A08231 ADDRESS PUSH1 0x40 MLOAD DUP3 PUSH4 0xFFFFFFFF AND PUSH1 0xE0 SHL DUP2 MSTORE PUSH1 0x4 ADD PUSH2 0x969 SWAP2 SWAP1 PUSH2 0x2146 JUMP JUMPDEST PUSH1 0x20 PUSH1 0x40 MLOAD DUP1 DUP4 SUB DUP2 DUP7 GAS STATICCALL ISZERO DUP1 ISZERO PUSH2 0x984 JUMPI RETURNDATASIZE PUSH0 PUSH0 RETURNDATACOPY RETURNDATASIZE PUSH0 REVERT JUMPDEST POP POP POP POP PUSH1 0x40 MLOAD RETURNDATASIZE PUSH1 0x1F NOT PUSH1 0x1F DUP3 ADD AND DUP3 ADD DUP1 PUSH1 0x40 MSTORE POP DUP2 ADD SWAP1 PUSH2 0x9A8 SWAP2 SWAP1 PUSH2 0x24D7 JUMP JUMPDEST SWAP1 POP DUP3 PUSH20 0xFFFFFFFFFFFFFFFFFFFFFFFFFFFFFFFFFFFFFFFF AND PUSH4 0xA9059CBB DUP4 DUP4 PUSH1 0x40 MLOAD DUP4 PUSH4 0xFFFFFFFF AND PUSH1 0xE0 SHL DUP2 MSTORE PUSH1 0x4 ADD PUSH2 0x9E5 SWAP3 SWAP2 SWAP1 PUSH2 0x2562 JUMP JUMPDEST PUSH1 0x20 PUSH1 0x40 MLOAD DUP1 DUP4 SUB DUP2 PUSH0 DUP8 GAS CALL ISZERO DUP1 ISZERO PUSH2 0xA01 JUMPI RETURNDATASIZE PUSH0 PUSH0 RETURNDATACOPY RETURNDATASIZE PUSH0 REVERT JUMPDEST POP POP POP POP PUSH1 0x40 MLOAD RETURNDATASIZE PUSH1 0x1F NOT PUSH1 0x1F DUP3 ADD AND DUP3 ADD DUP1 PUSH1 0x40 MSTORE POP DUP2 ADD SWAP1 PUSH2 0xA25 SWAP2 SWAP1 PUSH2 0x259D JUMP JUMPDEST POP POP POP POP JUMP JUMPDEST PUSH1 0x3 PUSH0 SWAP1 SLOAD SWAP1 PUSH2 0x100 EXP SWAP1 DIV PUSH20 0xFFFFFFFFFFFFFFFFFFFFFFFFFFFFFFFFFFFFFFFF AND DUP2 JUMP JUMPDEST PUSH2 0xA58 PUSH2 0x18C7 JUMP JUMPDEST PUSH2 0xA61 PUSH0 PUSH2 0x194E JUMP JUMPDEST JUMP JUMPDEST PUSH32 0x0 DUP2 JUMP JUMPDEST PUSH0 PUSH1 0x1 PUSH0 SWAP1 SLOAD SWAP1 PUSH2 0x100 EXP SWAP1 DIV PUSH20 0xFFFFFFFFFFFFFFFFFFFFFFFFFFFFFFFFFFFFFFFF AND SWAP1 POP SWAP1 JUMP JUMPDEST PUSH2 0xAB7 PUSH2 0x1A11 JUMP JUMPDEST PUSH0 PUSH1 0x2 PUSH0 DUP4 DUP2 MSTORE PUSH1 0x20 ADD SWAP1 DUP2 MSTORE PUSH1 0x20 ADD PUSH0 KECCAK256 PUSH1 0x40 MLOAD DUP1 PUSH1 0x80 ADD PUSH1 0x40 MSTORE SWAP1 DUP2 PUSH0 DUP3 ADD PUSH0 SWAP1 SLOAD SWAP1 PUSH2 0x100 EXP SWAP1 DIV PUSH20 0xFFFFFFFFFFFFFFFFFFFFFFFFFFFFFFFFFFFFFFFF AND PUSH20 0xFFFFFFFFFFFFFFFFFFFFFFFFFFFFFFFFFFFFFFFF AND PUSH20 0xFFFFFFFFFFFFFFFFFFFFFFFFFFFFFFFFFFFFFFFF AND DUP2 MSTORE PUSH1 0x20 ADD PUSH1 0x1 DUP3 ADD SLOAD DUP2 MSTORE PUSH1 0x20 ADD PUSH1 0x2 DUP3 ADD SLOAD DUP2 MSTORE PUSH1 0x20 ADD PUSH1 0x3 DUP3 ADD PUSH0 SWAP1 SLOAD SWAP1 PUSH2 0x100 EXP SWAP1 DIV PUSH1 0xFF AND ISZERO ISZERO ISZERO ISZERO DUP2 MSTORE POP POP SWAP1 POP PUSH0 PUSH20 0xFFFFFFFFFFFFFFFFFFFFFFFFFFFFFFFFFFFFFFFF AND DUP2 PUSH0 ADD MLOAD PUSH20 0xFFFFFFFFFFFFFFFFFFFFFFFFFFFFFFFFFFFFFFFF AND SUB PUSH2 0xBC0 JUMPI PUSH1 0x40 MLOAD PUSH32 0xE142361700000000000000000000000000000000000000000000000000000000 DUP2 MSTORE PUSH1 0x4 ADD PUSH1 0x40 MLOAD DUP1 SWAP2 SUB SWAP1 REVERT JUMPDEST DUP1 PUSH1 0x60 ADD MLOAD ISZERO DUP1 PUSH2 0xBD4 JUMPI POP PUSH0 DUP2 PUSH1 0x20 ADD MLOAD EQ JUMPDEST ISZERO PUSH2 0xC0B JUMPI PUSH1 0x40 MLOAD PUSH32 0x94D366B500000000000000000000000000000000000000000000000000000000 DUP2 MSTORE PUSH1 0x4 ADD PUSH1 0x40 MLOAD DUP1 SWAP2 SUB SWAP1 REVERT JUMPDEST DUP1 PUSH1 0x20 ADD MLOAD CALLVALUE EQ PUSH2 0xC48 JUMPI PUSH1 0x40 MLOAD PUSH32 0xB0CCCA4500000000000000000000000000000000000000000000000000000000 DUP2 MSTORE PUSH1 0x4 ADD PUSH1 0x40 MLOAD DUP1 SWAP2 SUB SWAP1 REVERT JUMPDEST PUSH0 PUSH2 0xC55 DUP3 PUSH0 ADD MLOAD PUSH2 0x1A5E JUMP JUMPDEST SWAP1 POP PUSH0 PUSH1 0x3 PUSH0 SWAP1 SLOAD SWAP1 PUSH2 0x100 EXP SWAP1 DIV PUSH20 0xFFFFFFFFFFFFFFFFFFFFFFFFFFFFFFFFFFFFFFFF AND PUSH20 0xFFFFFFFFFFFFFFFFFFFFFFFFFFFFFFFFFFFFFFFF AND CALLVALUE PUSH1 0x40 MLOAD PUSH2 0xC9D SWAP1 PUSH2 0x25F5 JUMP JUMPDEST PUSH0 PUSH1 0x40 MLOAD DUP1 DUP4 SUB DUP2 DUP6 DUP8 GAS CALL SWAP3 POP POP POP RETURNDATASIZE DUP1 PUSH0 DUP2 EQ PUSH2 0xCD7 JUMPI PUSH1 0x40 MLOAD SWAP2 POP PUSH1 0x1F NOT PUSH1 0x3F RETURNDATASIZE ADD AND DUP3 ADD PUSH1 0x40 MSTORE RETURNDATASIZE DUP3 MSTORE RETURNDATASIZE PUSH0 PUSH1 0x20 DUP5 ADD RETURNDATACOPY PUSH2 0xCDC JUMP JUMPDEST PUSH1 0x60 SWAP2 POP JUMPDEST POP POP SWAP1 POP DUP1 PUSH2 0xD20 JUMPI PUSH1 0x40 MLOAD PUSH32 0x8C379A000000000000000000000000000000000000000000000000000000000 DUP2 MSTORE PUSH1 0x4 ADD PUSH2 0xD17 SWAP1 PUSH2 0x2663 JUMP JUMPDEST PUSH1 0x40 MLOAD DUP1 SWAP2 SUB SWAP1 REVERT JUMPDEST DUP3 PUSH0 ADD MLOAD PUSH20 0xFFFFFFFFFFFFFFFFFFFFFFFFFFFFFFFFFFFFFFFF AND PUSH4 0x42842E0E ADDRESS CALLER DUP6 PUSH1 0x40 MLOAD DUP5 PUSH4 0xFFFFFFFF AND PUSH1 0xE0 SHL DUP2 MSTORE PUSH1 0x4 ADD PUSH2 0xD60 SWAP4 SWAP3 SWAP2 SWAP1 PUSH2 0x241A JUMP JUMPDEST PUSH0 PUSH1 0x40 MLOAD DUP1 DUP4 SUB DUP2 PUSH0 DUP8 DUP1 EXTCODESIZE ISZERO DUP1 ISZERO PUSH2 0xD77 JUMPI PUSH0 PUSH0 REVERT JUMPDEST POP GAS CALL ISZERO DUP1 ISZERO PUSH2 0xD89 JUMPI RETURNDATASIZE PUSH0 PUSH0 RETURNDATACOPY RETURNDATASIZE PUSH0 REVERT JUMPDEST POP POP POP POP POP POP POP PUSH2 0xD98 PUSH2 0x1B9A JUMP JUMPDEST POP JUMP JUMPDEST PUSH2 0xDA3 PUSH2 0x18C7 JUMP JUMPDEST PUSH0 PUSH1 0x2 PUSH0 DUP6 DUP2 MSTORE PUSH1 0x20 ADD SWAP1 DUP2 MSTORE PUSH1 0x20 ADD PUSH0 KECCAK256 PUSH1 0x40 MLOAD DUP1 PUSH1 0x80 ADD PUSH1 0x40 MSTORE SWAP1 DUP2 PUSH0 DUP3 ADD PUSH0 SWAP1 SLOAD SWAP1 PUSH2 0x100 EXP SWAP1 DIV PUSH20 0xFFFFFFFFFFFFFFFFFFFFFFFFFFFFFFFFFFFFFFFF AND PUSH20 0xFFFFFFFFFFFFFFFFFFFFFFFFFFFFFFFFFFFFFFFF AND PUSH20 0xFFFFFFFFFFFFFFFFFFFFFFFFFFFFFFFFFFFFFFFF AND DUP2 MSTORE PUSH1 0x20 ADD PUSH1 0x1 DUP3 ADD SLOAD DUP2 MSTORE PUSH1 0x20 ADD PUSH1 0x2 DUP3 ADD SLOAD DUP2 MSTORE PUSH1 0x20 ADD PUSH1 0x3 DUP3 ADD PUSH0 SWAP1 SLOAD SWAP1 PUSH2 0x100 EXP SWAP1 DIV PUSH1 0xFF AND ISZERO ISZERO ISZERO ISZERO DUP2 MSTORE POP POP SWAP1 POP PUSH0 PUSH20 0xFFFFFFFFFFFFFFFFFFFFFFFFFFFFFFFFFFFFFFFF AND DUP2 PUSH0 ADD MLOAD PUSH20 0xFFFFFFFFFFFFFFFFFFFFFFFFFFFFFFFFFFFFFFFF AND SUB PUSH2 0xEAC JUMPI PUSH1 0x40 MLOAD PUSH32 0xE142361700000000000000000000000000000000000000000000000000000000 DUP2 MSTORE PUSH1 0x4 ADD PUSH1 0x40 MLOAD DUP1 SWAP2 SUB SWAP1 REVERT JUMPDEST DUP1 PUSH0 ADD MLOAD PUSH20 0xFFFFFFFFFFFFFFFFFFFFFFFFFFFFFFFFFFFFFFFF AND PUSH4 0x42842E0E ADDRESS DUP5 DUP7 PUSH1 0x40 MLOAD DUP5 PUSH4 0xFFFFFFFF AND PUSH1 0xE0 SHL DUP2 MSTORE PUSH1 0x4 ADD PUSH2 0xEEC SWAP4 SWAP3 SWAP2 SWAP1 PUSH2 0x241A JUMP JUMPDEST PUSH0 PUSH1 0x40 MLOAD DUP1 DUP4 SUB DUP2 PUSH0 DUP8 DUP1 EXTCODESIZE ISZERO DUP1 ISZERO PUSH2 0xF03 JUMPI PUSH0 PUSH0 REVERT JUMPDEST POP GAS CALL ISZERO DUP1 ISZERO PUSH2 0xF15 JUMPI RETURNDATASIZE PUSH0 PUSH0 RETURNDATACOPY RETURNDATASIZE PUSH0 REVERT JUMPDEST POP POP POP POP POP POP POP POP JUMP JUMPDEST PUSH2 0xF27 PUSH2 0x1A11 JUMP JUMPDEST PUSH0 PUSH1 0x2 PUSH0 DUP4 DUP2 MSTORE PUSH1 0x20 ADD SWAP1 DUP2 MSTORE PUSH1 0x20 ADD PUSH0 KECCAK256 PUSH1 0x40 MLOAD DUP1 PUSH1 0x80 ADD PUSH1 0x40 MSTORE SWAP1 DUP2 PUSH0 DUP3 ADD PUSH0 SWAP1 SLOAD SWAP1 PUSH2 0x100 EXP SWAP1 DIV PUSH20 0xFFFFFFFFFFFFFFFFFFFFFFFFFFFFFFFFFFFFFFFF AND PUSH20 0xFFFFFFFFFFFFFFFFFFFFFFFFFFFFFFFFFFFFFFFF AND PUSH20 0xFFFFFFFFFFFFFFFFFFFFFFFFFFFFFFFFFFFFFFFF AND DUP2 MSTORE PUSH1 0x20 ADD PUSH1 0x1 DUP3 ADD SLOAD DUP2 MSTORE PUSH1 0x20 ADD PUSH1 0x2 DUP3 ADD SLOAD DUP2 MSTORE PUSH1 0x20 ADD PUSH1 0x3 DUP3 ADD PUSH0 SWAP1 SLOAD SWAP1 PUSH2 0x100 EXP SWAP1 DIV PUSH1 0xFF AND ISZERO ISZERO ISZERO ISZERO DUP2 MSTORE POP POP SWAP1 POP PUSH0 PUSH20 0xFFFFFFFFFFFFFFFFFFFFFFFFFFFFFFFFFFFFFFFF AND DUP2 PUSH0 ADD MLOAD PUSH20 0xFFFFFFFFFFFFFFFFFFFFFFFFFFFFFFFFFFFFFFFF AND SUB PUSH2 0x1030 JUMPI PUSH1 0x40 MLOAD PUSH32 0xE142361700000000000000000000000000000000000000000000000000000000 DUP2 MSTORE PUSH1 0x4 ADD PUSH1 0x40 MLOAD DUP1 SWAP2 SUB SWAP1 REVERT JUMPDEST DUP1 PUSH1 0x60 ADD MLOAD ISZERO DUP1 PUSH2 0x1044 JUMPI POP PUSH0 DUP2 PUSH1 0x40 ADD MLOAD EQ JUMPDEST ISZERO PUSH2 0x107B JUMPI PUSH1 0x40 MLOAD PUSH32 0x94D366B500000000000000000000000000000000000000000000000000000000 DUP2 MSTORE PUSH1 0x4 ADD PUSH1 0x40 MLOAD DUP1 SWAP2 SUB SWAP1 REVERT JUMPDEST PUSH0 PUSH2 0x1088 DUP3 PUSH0 ADD MLOAD PUSH2 0x1A5E JUMP JUMPDEST SWAP1 POP PUSH2 0x10DB CALLER ADDRESS DUP5 PUSH1 0x40 ADD MLOAD PUSH32 0x0 PUSH20 0xFFFFFFFFFFFFFFFFFFFFFFFFFFFFFFFFFFFFFFFF AND PUSH2 0x1BA3 SWAP1 SWAP4 SWAP3 SWAP2 SWAP1 PUSH4 0xFFFFFFFF AND JUMP JUMPDEST PUSH2 0x114B PUSH1 0x3 PUSH0 SWAP1 SLOAD SWAP1 PUSH2 0x100 EXP SWAP1 DIV PUSH20 0xFFFFFFFFFFFFFFFFFFFFFFFFFFFFFFFFFFFFFFFF AND DUP4 PUSH1 0x40 ADD MLOAD PUSH32 0x0 PUSH20 0xFFFFFFFFFFFFFFFFFFFFFFFFFFFFFFFFFFFFFFFF AND PUSH2 0x1C25 SWAP1 SWAP3 SWAP2 SWAP1 PUSH4 0xFFFFFFFF AND JUMP JUMPDEST DUP2 PUSH0 ADD MLOAD PUSH20 0xFFFFFFFFFFFFFFFFFFFFFFFFFFFFFFFFFFFFFFFF AND PUSH4 0x42842E0E ADDRESS CALLER DUP5 PUSH1 0x40 MLOAD DUP5 PUSH4 0xFFFFFFFF AND PUSH1 0xE0 SHL DUP2 MSTORE PUSH1 0x4 ADD PUSH2 0x118B SWAP4 SWAP3 SWAP2 SWAP1 PUSH2 0x241A JUMP JUMPDEST PUSH0 PUSH1 0x40 MLOAD DUP1 DUP4 SUB DUP2 PUSH0 DUP8 DUP1 EXTCODESIZE ISZERO DUP1 ISZERO PUSH2 0x11A2 JUMPI PUSH0 PUSH0 REVERT JUMPDEST POP GAS CALL ISZERO DUP1 ISZERO PUSH2 0x11B4 JUMPI RETURNDATASIZE PUSH0 PUSH0 RETURNDATACOPY RETURNDATASIZE PUSH0 REVERT JUMPDEST POP POP POP POP POP POP PUSH2 0x11C2 PUSH2 0x1B9A JUMP JUMPDEST POP JUMP JUMPDEST PUSH2 0x11CD PUSH2 0x18C7 JUMP JUMPDEST PUSH1 0x40 MLOAD DUP1 PUSH1 0x80 ADD PUSH1 0x40 MSTORE DUP1 DUP6 PUSH20 0xFFFFFFFFFFFFFFFFFFFFFFFFFFFFFFFFFFFFFFFF AND DUP2 MSTORE PUSH1 0x20 ADD DUP5 DUP2 MSTORE PUSH1 0x20 ADD DUP4 DUP2 MSTORE PUSH1 0x20 ADD DUP3 ISZERO ISZERO DUP2 MSTORE POP PUSH1 0x2 PUSH0 DUP8 DUP2 MSTORE PUSH1 0x20 ADD SWAP1 DUP2 MSTORE PUSH1 0x20 ADD PUSH0 KECCAK256 PUSH0 DUP3 ADD MLOAD DUP2 PUSH0 ADD PUSH0 PUSH2 0x100 EXP DUP2 SLOAD DUP2 PUSH20 0xFFFFFFFFFFFFFFFFFFFFFFFFFFFFFFFFFFFFFFFF MUL NOT AND SWAP1 DUP4 PUSH20 0xFFFFFFFFFFFFFFFFFFFFFFFFFFFFFFFFFFFFFFFF AND MUL OR SWAP1 SSTORE POP PUSH1 0x20 DUP3 ADD MLOAD DUP2 PUSH1 0x1 ADD SSTORE PUSH1 0x40 DUP3 ADD MLOAD DUP2 PUSH1 0x2 ADD SSTORE PUSH1 0x60 DUP3 ADD MLOAD DUP2 PUSH1 0x3 ADD PUSH0 PUSH2 0x100 EXP DUP2 SLOAD DUP2 PUSH1 0xFF MUL NOT AND SWAP1 DUP4 ISZERO ISZERO MUL OR SWAP1 SSTORE POP SWAP1 POP POP POP POP POP POP POP JUMP JUMPDEST PUSH2 0x12A0 PUSH2 0x1A11 JUMP JUMPDEST PUSH0 PUSH1 0x2 PUSH0 DUP9 DUP2 MSTORE PUSH1 0x20 ADD SWAP1 DUP2 MSTORE PUSH1 0x20 ADD PUSH0 KECCAK256 PUSH1 0x40 MLOAD DUP1 PUSH1 0x80 ADD PUSH1 0x40 MSTORE SWAP1 DUP2 PUSH0 DUP3 ADD PUSH0 SWAP1 SLOAD SWAP1 PUSH2 0x100 EXP SWAP1 DIV PUSH20 0xFFFFFFFFFFFFFFFFFFFFFFFFFFFFFFFFFFFFFFFF AND PUSH20 0xFFFFFFFFFFFFFFFFFFFFFFFFFFFFFFFFFFFFFFFF AND PUSH20 0xFFFFFFFFFFFFFFFFFFFFFFFFFFFFFFFFFFFFFFFF AND DUP2 MSTORE PUSH1 0x20 ADD PUSH1 0x1 DUP3 ADD SLOAD DUP2 MSTORE PUSH1 0x20 ADD PUSH1 0x2 DUP3 ADD SLOAD DUP2 MSTORE PUSH1 0x20 ADD PUSH1 0x3 DUP3 ADD PUSH0 SWAP1 SLOAD SWAP1 PUSH2 0x100 EXP SWAP1 DIV PUSH1 0xFF AND ISZERO ISZERO ISZERO ISZERO DUP2 MSTORE POP POP SWAP1 POP PUSH0 PUSH20 0xFFFFFFFFFFFFFFFFFFFFFFFFFFFFFFFFFFFFFFFF AND DUP2 PUSH0 ADD MLOAD PUSH20 0xFFFFFFFFFFFFFFFFFFFFFFFFFFFFFFFFFFFFFFFF AND SUB PUSH2 0x13A9 JUMPI PUSH1 0x40 MLOAD PUSH32 0xE142361700000000000000000000000000000000000000000000000000000000 DUP2 MSTORE PUSH1 0x4 ADD PUSH1 0x40 MLOAD DUP1 SWAP2 SUB SWAP1 REVERT JUMPDEST DUP1 PUSH1 0x60 ADD MLOAD ISZERO DUP1 PUSH2 0x13BD JUMPI POP PUSH0 DUP2 PUSH1 0x40 ADD MLOAD EQ JUMPDEST ISZERO PUSH2 0x13F4 JUMPI PUSH1 0x40 MLOAD PUSH32 0x94D366B500000000000000000000000000000000000000000000000000000000 DUP2 MSTORE PUSH1 0x4 ADD PUSH1 0x40 MLOAD DUP1 SWAP2 SUB SWAP1 REVERT JUMPDEST DUP1 PUSH1 0x40 ADD MLOAD DUP7 EQ PUSH2 0x143A JUMPI PUSH1 0x40 MLOAD PUSH32 0x8C379A000000000000000000000000000000000000000000000000000000000 DUP2 MSTORE PUSH1 0x4 ADD PUSH2 0x1431 SWAP1 PUSH2 0x26CB JUMP JUMPDEST PUSH1 0x40 MLOAD DUP1 SWAP2 SUB SWAP1 REVERT JUMPDEST PUSH32 0x0 PUSH20 0xFFFFFFFFFFFFFFFFFFFFFFFFFFFFFFFFFFFFFFFF AND PUSH4 0xD505ACCF CALLER ADDRESS DUP10 DUP10 DUP10 DUP10 DUP10 PUSH1 0x40 MLOAD DUP9 PUSH4 0xFFFFFFFF AND PUSH1 0xE0 SHL DUP2 MSTORE PUSH1 0x4 ADD PUSH2 0x149F SWAP8 SWAP7 SWAP6 SWAP5 SWAP4 SWAP3 SWAP2 SWAP1 PUSH2 0x2707 JUMP JUMPDEST PUSH0 PUSH1 0x40 MLOAD DUP1 DUP4 SUB DUP2 PUSH0 DUP8 DUP1 EXTCODESIZE ISZERO DUP1 ISZERO PUSH2 0x14B6 JUMPI PUSH0 PUSH0 REVERT JUMPDEST POP GAS CALL ISZERO DUP1 ISZERO PUSH2 0x14C8 JUMPI RETURNDATASIZE PUSH0 PUSH0 RETURNDATACOPY RETURNDATASIZE PUSH0 REVERT JUMPDEST POP POP POP POP PUSH2 0x14D5 DUP8 PUSH2 0xF1F JUMP JUMPDEST POP PUSH2 0x14DE PUSH2 0x1B9A JUMP JUMPDEST POP POP POP POP POP POP JUMP JUMPDEST PUSH2 0x14EE PUSH2 0x18C7 JUMP JUMPDEST PUSH0 PUSH1 0x2 PUSH0 DUP6 DUP2 MSTORE PUSH1 0x20 ADD SWAP1 DUP2 MSTORE PUSH1 0x20 ADD PUSH0 KECCAK256 PUSH1 0x40 MLOAD DUP1 PUSH1 0x80 ADD PUSH1 0x40 MSTORE SWAP1 DUP2 PUSH0 DUP3 ADD PUSH0 SWAP1 SLOAD SWAP1 PUSH2 0x100 EXP SWAP1 DIV PUSH20 0xFFFFFFFFFFFFFFFFFFFFFFFFFFFFFFFFFFFFFFFF AND PUSH20 0xFFFFFFFFFFFFFFFFFFFFFFFFFFFFFFFFFFFFFFFF AND PUSH20 0xFFFFFFFFFFFFFFFFFFFFFFFFFFFFFFFFFFFFFFFF AND DUP2 MSTORE PUSH1 0x20 ADD PUSH1 0x1 DUP3 ADD SLOAD DUP2 MSTORE PUSH1 0x20 ADD PUSH1 0x2 DUP3 ADD SLOAD DUP2 MSTORE PUSH1 0x20 ADD PUSH1 0x3 DUP3 ADD PUSH0 SWAP1 SLOAD SWAP1 PUSH2 0x100 EXP SWAP1 DIV PUSH1 0xFF AND ISZERO ISZERO ISZERO ISZERO DUP2 MSTORE POP POP SWAP1 POP PUSH0 PUSH20 0xFFFFFFFFFFFFFFFFFFFFFFFFFFFFFFFFFFFFFFFF AND DUP2 PUSH0 ADD MLOAD PUSH20 0xFFFFFFFFFFFFFFFFFFFFFFFFFFFFFFFFFFFFFFFF AND SUB PUSH2 0x15F7 JUMPI PUSH1 0x40 MLOAD PUSH32 0xE142361700000000000000000000000000000000000000000000000000000000 DUP2 MSTORE PUSH1 0x4 ADD PUSH1 0x40 MLOAD DUP1 SWAP2 SUB SWAP1 REVERT JUMPDEST PUSH0 DUP2 PUSH0 ADD MLOAD SWAP1 POP PUSH0 DUP2 PUSH20 0xFFFFFFFFFFFFFFFFFFFFFFFFFFFFFFFFFFFFFFFF AND PUSH4 0x70A08231 ADDRESS PUSH1 0x40 MLOAD DUP3 PUSH4 0xFFFFFFFF AND PUSH1 0xE0 SHL DUP2 MSTORE PUSH1 0x4 ADD PUSH2 0x1638 SWAP2 SWAP1 PUSH2 0x2146 JUMP JUMPDEST PUSH1 0x20 PUSH1 0x40 MLOAD DUP1 DUP4 SUB DUP2 DUP7 GAS STATICCALL ISZERO DUP1 ISZERO PUSH2 0x1653 JUMPI RETURNDATASIZE PUSH0 PUSH0 RETURNDATACOPY RETURNDATASIZE PUSH0 REVERT JUMPDEST POP POP POP POP PUSH1 0x40 MLOAD RETURNDATASIZE PUSH1 0x1F NOT PUSH1 0x1F DUP3 ADD AND DUP3 ADD DUP1 PUSH1 0x40 MSTORE POP DUP2 ADD SWAP1 PUSH2 0x1677 SWAP2 SWAP1 PUSH2 0x24D7 JUMP JUMPDEST SWAP1 POP DUP1 DUP6 GT ISZERO PUSH2 0x1685 JUMPI DUP1 SWAP5 POP JUMPDEST PUSH0 PUSH0 SWAP1 POP JUMPDEST DUP6 DUP2 LT ISZERO PUSH2 0x178A JUMPI PUSH0 DUP4 PUSH20 0xFFFFFFFFFFFFFFFFFFFFFFFFFFFFFFFFFFFFFFFF AND PUSH4 0x2F745C59 ADDRESS PUSH0 PUSH1 0x40 MLOAD DUP4 PUSH4 0xFFFFFFFF AND PUSH1 0xE0 SHL DUP2 MSTORE PUSH1 0x4 ADD PUSH2 0x16CE SWAP3 SWAP2 SWAP1 PUSH2 0x253B JUMP JUMPDEST PUSH1 0x20 PUSH1 0x40 MLOAD DUP1 DUP4 SUB DUP2 DUP7 GAS STATICCALL ISZERO DUP1 ISZERO PUSH2 0x16E9 JUMPI RETURNDATASIZE PUSH0 PUSH0 RETURNDATACOPY RETURNDATASIZE PUSH0 REVERT JUMPDEST POP POP POP POP PUSH1 0x40 MLOAD RETURNDATASIZE PUSH1 0x1F NOT PUSH1 0x1F DUP3 ADD AND DUP3 ADD DUP1 PUSH1 0x40 MSTORE POP DUP2 ADD SWAP1 PUSH2 0x170D SWAP2 SWAP1 PUSH2 0x24D7 JUMP JUMPDEST SWAP1 POP DUP5 PUSH0 ADD MLOAD PUSH20 0xFFFFFFFFFFFFFFFFFFFFFFFFFFFFFFFFFFFFFFFF AND PUSH4 0x42842E0E ADDRESS DUP9 DUP5 PUSH1 0x40 MLOAD DUP5 PUSH4 0xFFFFFFFF AND PUSH1 0xE0 SHL DUP2 MSTORE PUSH1 0x4 ADD PUSH2 0x174F SWAP4 SWAP3 SWAP2 SWAP1 PUSH2 0x241A JUMP JUMPDEST PUSH0 PUSH1 0x40 MLOAD DUP1 DUP4 SUB DUP2 PUSH0 DUP8 DUP1 EXTCODESIZE ISZERO DUP1 ISZERO PUSH2 0x1766 JUMPI PUSH0 PUSH0 REVERT JUMPDEST POP GAS CALL ISZERO DUP1 ISZERO PUSH2 0x1778 JUMPI RETURNDATASIZE PUSH0 PUSH0 RETURNDATACOPY RETURNDATASIZE PUSH0 REVERT JUMPDEST POP POP POP POP POP DUP1 DUP1 PUSH1 0x1 ADD SWAP2 POP POP PUSH2 0x168A JUMP JUMPDEST POP POP POP POP POP POP POP JUMP JUMPDEST PUSH2 0x179B PUSH2 0x18C7 JUMP JUMPDEST PUSH0 PUSH20 0xFFFFFFFFFFFFFFFFFFFFFFFFFFFFFFFFFFFFFFFF AND DUP2 PUSH20 0xFFFFFFFFFFFFFFFFFFFFFFFFFFFFFFFFFFFFFFFF AND SUB PUSH2 0x1800 JUMPI PUSH1 0x40 MLOAD PUSH32 0xD92E233D00000000000000000000000000000000000000000000000000000000 DUP2 MSTORE PUSH1 0x4 ADD PUSH1 0x40 MLOAD DUP1 SWAP2 SUB SWAP1 REVERT JUMPDEST DUP1 PUSH1 0x3 PUSH0 PUSH2 0x100 EXP DUP2 SLOAD DUP2 PUSH20 0xFFFFFFFFFFFFFFFFFFFFFFFFFFFFFFFFFFFFFFFF MUL NOT AND SWAP1 DUP4 PUSH20 0xFFFFFFFFFFFFFFFFFFFFFFFFFFFFFFFFFFFFFFFF AND MUL OR SWAP1 SSTORE POP POP JUMP JUMPDEST PUSH2 0x184B PUSH2 0x18C7 JUMP JUMPDEST PUSH0 PUSH20 0xFFFFFFFFFFFFFFFFFFFFFFFFFFFFFFFFFFFFFFFF AND DUP2 PUSH20 0xFFFFFFFFFFFFFFFFFFFFFFFFFFFFFFFFFFFFFFFF AND SUB PUSH2 0x18BB JUMPI PUSH0 PUSH1 0x40 MLOAD PUSH32 0x1E4FBDF700000000000000000000000000000000000000000000000000000000 DUP2 MSTORE PUSH1 0x4 ADD PUSH2 0x18B2 SWAP2 SWAP1 PUSH2 0x2146 JUMP JUMPDEST PUSH1 0x40 MLOAD DUP1 SWAP2 SUB SWAP1 REVERT JUMPDEST PUSH2 0x18C4 DUP2 PUSH2 0x194E JUMP JUMPDEST POP JUMP JUMPDEST PUSH2 0x18CF PUSH2 0x1CA4 JUMP JUMPDEST PUSH20 0xFFFFFFFFFFFFFFFFFFFFFFFFFFFFFFFFFFFFFFFF AND PUSH2 0x18ED PUSH2 0xA87 JUMP JUMPDEST PUSH20 0xFFFFFFFFFFFFFFFFFFFFFFFFFFFFFFFFFFFFFFFF AND EQ PUSH2 0x194C JUMPI PUSH2 0x1910 PUSH2 0x1CA4 JUMP JUMPDEST PUSH1 0x40 MLOAD PUSH32 0x118CDAA700000000000000000000000000000000000000000000000000000000 DUP2 MSTORE PUSH1 0x4 ADD PUSH2 0x1943 SWAP2 SWAP1 PUSH2 0x2146 JUMP JUMPDEST PUSH1 0x40 MLOAD DUP1 SWAP2 SUB SWAP1 REVERT JUMPDEST JUMP JUMPDEST PUSH0 PUSH1 0x1 PUSH0 SWAP1 SLOAD SWAP1 PUSH2 0x100 EXP SWAP1 DIV PUSH20 0xFFFFFFFFFFFFFFFFFFFFFFFFFFFFFFFFFFFFFFFF AND SWAP1 POP DUP2 PUSH1 0x1 PUSH0 PUSH2 0x100 EXP DUP2 SLOAD DUP2 PUSH20 0xFFFFFFFFFFFFFFFFFFFFFFFFFFFFFFFFFFFFFFFF MUL NOT AND SWAP1 DUP4 PUSH20 0xFFFFFFFFFFFFFFFFFFFFFFFFFFFFFFFFFFFFFFFF AND MUL OR SWAP1 SSTORE POP DUP2 PUSH20 0xFFFFFFFFFFFFFFFFFFFFFFFFFFFFFFFFFFFFFFFF AND DUP2 PUSH20 0xFFFFFFFFFFFFFFFFFFFFFFFFFFFFFFFFFFFFFFFF AND PUSH32 0x8BE0079C531659141344CD1FD0A4F28419497F9722A3DAAFE3B4186F6B6457E0 PUSH1 0x40 MLOAD PUSH1 0x40 MLOAD DUP1 SWAP2 SUB SWAP1 LOG3 POP POP JUMP JUMPDEST PUSH1 0x2 PUSH0 SLOAD SUB PUSH2 0x1A55 JUMPI PUSH1 0x40 MLOAD PUSH32 0x8C379A000000000000000000000000000000000000000000000000000000000 DUP2 MSTORE PUSH1 0x4 ADD PUSH2 0x1A4C SWAP1 PUSH2 0x27BE JUMP JUMPDEST PUSH1 0x40 MLOAD DUP1 SWAP2 SUB SWAP1 REVERT JUMPDEST PUSH1 0x2 PUSH0 DUP2 SWAP1 SSTORE POP JUMP JUMPDEST PUSH0 PUSH0 DUP3 SWAP1 POP PUSH0 DUP2 PUSH20 0xFFFFFFFFFFFFFFFFFFFFFFFFFFFFFFFFFFFFFFFF AND PUSH4 0x70A08231 ADDRESS PUSH1 0x40 MLOAD DUP3 PUSH4 0xFFFFFFFF AND PUSH1 0xE0 SHL DUP2 MSTORE PUSH1 0x4 ADD PUSH2 0x1A9D SWAP2 SWAP1 PUSH2 0x2146 JUMP JUMPDEST PUSH1 0x20 PUSH1 0x40 MLOAD DUP1 DUP4 SUB DUP2 DUP7 GAS STATICCALL ISZERO DUP1 ISZERO PUSH2 0x1AB8 JUMPI RETURNDATASIZE PUSH0 PUSH0 RETURNDATACOPY RETURNDATASIZE PUSH0 REVERT JUMPDEST POP POP POP POP PUSH1 0x40 MLOAD RETURNDATASIZE PUSH1 0x1F NOT PUSH1 0x1F DUP3 ADD AND DUP3 ADD DUP1 PUSH1 0x40 MSTORE POP DUP2 ADD SWAP1 PUSH2 0x1ADC SWAP2 SWAP1 PUSH2 0x24D7 JUMP JUMPDEST SWAP1 POP PUSH0 DUP2 SUB PUSH2 0x1B17 JUMPI PUSH1 0x40 MLOAD PUSH32 0x52DF9FE500000000000000000000000000000000000000000000000000000000 DUP2 MSTORE PUSH1 0x4 ADD PUSH1 0x40 MLOAD DUP1 SWAP2 SUB SWAP1 REVERT JUMPDEST DUP2 PUSH20 0xFFFFFFFFFFFFFFFFFFFFFFFFFFFFFFFFFFFFFFFF AND PUSH4 0x2F745C59 ADDRESS PUSH0 PUSH1 0x40 MLOAD DUP4 PUSH4 0xFFFFFFFF AND PUSH1 0xE0 SHL DUP2 MSTORE PUSH1 0x4 ADD PUSH2 0x1B52 SWAP3 SWAP2 SWAP1 PUSH2 0x253B JUMP JUMPDEST PUSH1 0x20 PUSH1 0x40 MLOAD DUP1 DUP4 SUB DUP2 DUP7 GAS STATICCALL ISZERO DUP1 ISZERO PUSH2 0x1B6D JUMPI RETURNDATASIZE PUSH0 PUSH0 RETURNDATACOPY RETURNDATASIZE PUSH0 REVERT JUMPDEST POP POP POP POP PUSH1 0x40 MLOAD RETURNDATASIZE PUSH1 0x1F NOT PUSH1 0x1F DUP3 ADD AND DUP3 ADD DUP1 PUSH1 0x40 MSTORE POP DUP2 ADD SWAP1 PUSH2 0x1B91 SWAP2 SWAP1 PUSH2 0x24D7 JUMP JUMPDEST SWAP3 POP POP POP SWAP2 SWAP1 POP JUMP JUMPDEST PUSH1 0x1 PUSH0 DUP2 SWAP1 SSTORE POP JUMP JUMPDEST PUSH2 0x1C1F DUP5 DUP6 PUSH20 0xFFFFFFFFFFFFFFFFFFFFFFFFFFFFFFFFFFFFFFFF AND PUSH4 0x23B872DD DUP7 DUP7 DUP7 PUSH1 0x40 MLOAD PUSH1 0x24 ADD PUSH2 0x1BD8 SWAP4 SWAP3 SWAP2 SWAP1 PUSH2 0x241A JUMP JUMPDEST PUSH1 0x40 MLOAD PUSH1 0x20 DUP2 DUP4 SUB SUB DUP2 MSTORE SWAP1 PUSH1 0x40 MSTORE SWAP2 POP PUSH1 0xE0 SHL PUSH1 0x20 DUP3 ADD DUP1 MLOAD PUSH28 0xFFFFFFFFFFFFFFFFFFFFFFFFFFFFFFFFFFFFFFFFFFFFFFFFFFFFFFFF DUP4 DUP2 DUP4 AND OR DUP4 MSTORE POP POP POP POP PUSH2 0x1CAB JUMP JUMPDEST POP POP POP POP JUMP JUMPDEST PUSH2 0x1C9F DUP4 DUP5 PUSH20 0xFFFFFFFFFFFFFFFFFFFFFFFFFFFFFFFFFFFFFFFF AND PUSH4 0xA9059CBB DUP6 DUP6 PUSH1 0x40 MLOAD PUSH1 0x24 ADD PUSH2 0x1C58 SWAP3 SWAP2 SWAP1 PUSH2 0x2562 JUMP JUMPDEST PUSH1 0x40 MLOAD PUSH1 0x20 DUP2 DUP4 SUB SUB DUP2 MSTORE SWAP1 PUSH1 0x40 MSTORE SWAP2 POP PUSH1 0xE0 SHL PUSH1 0x20 DUP3 ADD DUP1 MLOAD PUSH28 0xFFFFFFFFFFFFFFFFFFFFFFFFFFFFFFFFFFFFFFFFFFFFFFFFFFFFFFFF DUP4 DUP2 DUP4 AND OR DUP4 MSTORE POP POP POP POP PUSH2 0x1CAB JUMP JUMPDEST POP POP POP JUMP JUMPDEST PUSH0 CALLER SWAP1 POP SWAP1 JUMP JUMPDEST PUSH0 PUSH0 PUSH1 0x20 PUSH0 DUP5 MLOAD PUSH1 0x20 DUP7 ADD PUSH0 DUP9 GAS CALL DUP1 PUSH2 0x1CCA JUMPI PUSH1 0x40 MLOAD RETURNDATASIZE PUSH0 DUP3 RETURNDATACOPY RETURNDATASIZE DUP2 REVERT JUMPDEST RETURNDATASIZE SWAP3 POP PUSH0 MLOAD SWAP2 POP POP PUSH0 DUP3 EQ PUSH2 0x1CE3 JUMPI PUSH1 0x1 DUP2 EQ ISZERO PUSH2 0x1CFE JUMP JUMPDEST PUSH0 DUP5 PUSH20 0xFFFFFFFFFFFFFFFFFFFFFFFFFFFFFFFFFFFFFFFF AND EXTCODESIZE EQ JUMPDEST ISZERO PUSH2 0x1D40 JUMPI DUP4 PUSH1 0x40 MLOAD PUSH32 0x5274AFE700000000000000000000000000000000000000000000000000000000 DUP2 MSTORE PUSH1 0x4 ADD PUSH2 0x1D37 SWAP2 SWAP1 PUSH2 0x2146 JUMP JUMPDEST PUSH1 0x40 MLOAD DUP1 SWAP2 SUB SWAP1 REVERT JUMPDEST POP POP POP POP JUMP JUMPDEST PUSH0 PUSH0 REVERT JUMPDEST PUSH0 PUSH0 REVERT JUMPDEST PUSH0 DUP2 SWAP1 POP SWAP2 SWAP1 POP JUMP JUMPDEST PUSH2 0x1D60 DUP2 PUSH2 0x1D4E JUMP JUMPDEST DUP2 EQ PUSH2 0x1D6A JUMPI PUSH0 PUSH0 REVERT JUMPDEST POP JUMP JUMPDEST PUSH0 DUP2 CALLDATALOAD SWAP1 POP PUSH2 0x1D7B DUP2 PUSH2 0x1D57 JUMP JUMPDEST SWAP3 SWAP2 POP POP JUMP JUMPDEST PUSH0 PUSH1 0x20 DUP3 DUP5 SUB SLT ISZERO PUSH2 0x1D96 JUMPI PUSH2 0x1D95 PUSH2 0x1D46 JUMP JUMPDEST JUMPDEST PUSH0 PUSH2 0x1DA3 DUP5 DUP3 DUP6 ADD PUSH2 0x1D6D JUMP JUMPDEST SWAP2 POP POP SWAP3 SWAP2 POP POP JUMP JUMPDEST PUSH0 PUSH20 0xFFFFFFFFFFFFFFFFFFFFFFFFFFFFFFFFFFFFFFFF DUP3 AND SWAP1 POP SWAP2 SWAP1 POP JUMP JUMPDEST PUSH0 PUSH2 0x1DD5 DUP3 PUSH2 0x1DAC JUMP JUMPDEST SWAP1 POP SWAP2 SWAP1 POP JUMP JUMPDEST PUSH2 0x1DE5 DUP2 PUSH2 0x1DCB JUMP JUMPDEST DUP3 MSTORE POP POP JUMP JUMPDEST PUSH2 0x1DF4 DUP2 PUSH2 0x1D4E JUMP JUMPDEST DUP3 MSTORE POP POP JUMP JUMPDEST PUSH0 DUP2 ISZERO ISZERO SWAP1 POP SWAP2 SWAP1 POP JUMP JUMPDEST PUSH2 0x1E0E DUP2 PUSH2 0x1DFA JUMP JUMPDEST DUP3 MSTORE POP POP JUMP JUMPDEST PUSH0 PUSH1 0x80 DUP3 ADD SWAP1 POP PUSH2 0x1E27 PUSH0 DUP4 ADD DUP8 PUSH2 0x1DDC JUMP JUMPDEST PUSH2 0x1E34 PUSH1 0x20 DUP4 ADD DUP7 PUSH2 0x1DEB JUMP JUMPDEST PUSH2 0x1E41 PUSH1 0x40 DUP4 ADD DUP6 PUSH2 0x1DEB JUMP JUMPDEST PUSH2 0x1E4E PUSH1 0x60 DUP4 ADD DUP5 PUSH2 0x1E05 JUMP JUMPDEST SWAP6 SWAP5 POP POP POP POP POP JUMP JUMPDEST PUSH2 0x1E60 DUP2 PUSH2 0x1DCB JUMP JUMPDEST DUP2 EQ PUSH2 0x1E6A JUMPI PUSH0 PUSH0 REVERT JUMPDEST POP JUMP JUMPDEST PUSH0 DUP2 CALLDATALOAD SWAP1 POP PUSH2 0x1E7B DUP2 PUSH2 0x1E57 JUMP JUMPDEST SWAP3 SWAP2 POP POP JUMP JUMPDEST PUSH0 PUSH0 REVERT JUMPDEST PUSH0 PUSH0 REVERT JUMPDEST PUSH0 PUSH0 REVERT JUMPDEST PUSH0 PUSH0 DUP4 PUSH1 0x1F DUP5 ADD SLT PUSH2 0x1EA2 JUMPI PUSH2 0x1EA1 PUSH2 0x1E81 JUMP JUMPDEST JUMPDEST DUP3 CALLDATALOAD SWAP1 POP PUSH8 0xFFFFFFFFFFFFFFFF DUP2 GT ISZERO PUSH2 0x1EBF JUMPI PUSH2 0x1EBE PUSH2 0x1E85 JUMP JUMPDEST JUMPDEST PUSH1 0x20 DUP4 ADD SWAP2 POP DUP4 PUSH1 0x1 DUP3 MUL DUP4 ADD GT ISZERO PUSH2 0x1EDB JUMPI PUSH2 0x1EDA PUSH2 0x1E89 JUMP JUMPDEST JUMPDEST SWAP3 POP SWAP3 SWAP1 POP JUMP JUMPDEST PUSH0 PUSH0 PUSH0 PUSH0 PUSH0 PUSH1 0x80 DUP7 DUP9 SUB SLT ISZERO PUSH2 0x1EFB JUMPI PUSH2 0x1EFA PUSH2 0x1D46 JUMP JUMPDEST JUMPDEST PUSH0 PUSH2 0x1F08 DUP9 DUP3 DUP10 ADD PUSH2 0x1E6D JUMP JUMPDEST SWAP6 POP POP PUSH1 0x20 PUSH2 0x1F19 DUP9 DUP3 DUP10 ADD PUSH2 0x1E6D JUMP JUMPDEST SWAP5 POP POP PUSH1 0x40 PUSH2 0x1F2A DUP9 DUP3 DUP10 ADD PUSH2 0x1D6D JUMP JUMPDEST SWAP4 POP POP PUSH1 0x60 DUP7 ADD CALLDATALOAD PUSH8 0xFFFFFFFFFFFFFFFF DUP2 GT ISZERO PUSH2 0x1F4B JUMPI PUSH2 0x1F4A PUSH2 0x1D4A JUMP JUMPDEST JUMPDEST PUSH2 0x1F57 DUP9 DUP3 DUP10 ADD PUSH2 0x1E8D JUMP JUMPDEST SWAP3 POP SWAP3 POP POP SWAP3 SWAP6 POP SWAP3 SWAP6 SWAP1 SWAP4 POP JUMP JUMPDEST PUSH0 PUSH32 0xFFFFFFFF00000000000000000000000000000000000000000000000000000000 DUP3 AND SWAP1 POP SWAP2 SWAP1 POP JUMP JUMPDEST PUSH2 0x1F9A DUP2 PUSH2 0x1F66 JUMP JUMPDEST DUP3 MSTORE POP POP JUMP JUMPDEST PUSH0 PUSH1 0x20 DUP3 ADD SWAP1 POP PUSH2 0x1FB3 PUSH0 DUP4 ADD DUP5 PUSH2 0x1F91 JUMP JUMPDEST SWAP3 SWAP2 POP POP JUMP JUMPDEST PUSH0 PUSH0 PUSH0 PUSH0 PUSH1 0x80 DUP6 DUP8 SUB SLT ISZERO PUSH2 0x1FD1 JUMPI PUSH2 0x1FD0 PUSH2 0x1D46 JUMP JUMPDEST JUMPDEST PUSH0 PUSH2 0x1FDE DUP8 DUP3 DUP9 ADD PUSH2 0x1D6D JUMP JUMPDEST SWAP5 POP POP PUSH1 0x20 PUSH2 0x1FEF DUP8 DUP3 DUP9 ADD PUSH2 0x1D6D JUMP JUMPDEST SWAP4 POP POP PUSH1 0x40 PUSH2 0x2000 DUP8 DUP3 DUP9 ADD PUSH2 0x1D6D JUMP JUMPDEST SWAP3 POP POP PUSH1 0x60 PUSH2 0x2011 DUP8 DUP3 DUP9 ADD PUSH2 0x1E6D JUMP JUMPDEST SWAP2 POP POP SWAP3 SWAP6 SWAP2 SWAP5 POP SWAP3 POP JUMP JUMPDEST PUSH0 PUSH0 PUSH1 0x40 DUP4 DUP6 SUB SLT ISZERO PUSH2 0x2033 JUMPI PUSH2 0x2032 PUSH2 0x1D46 JUMP JUMPDEST JUMPDEST PUSH0 PUSH2 0x2040 DUP6 DUP3 DUP7 ADD PUSH2 0x1D6D JUMP JUMPDEST SWAP3 POP POP PUSH1 0x20 PUSH2 0x2051 DUP6 DUP3 DUP7 ADD PUSH2 0x1E6D JUMP JUMPDEST SWAP2 POP POP SWAP3 POP SWAP3 SWAP1 POP JUMP JUMPDEST PUSH0 PUSH0 PUSH1 0x40 DUP4 DUP6 SUB SLT ISZERO PUSH2 0x2071 JUMPI PUSH2 0x2070 PUSH2 0x1D46 JUMP JUMPDEST JUMPDEST PUSH0 PUSH2 0x207E DUP6 DUP3 DUP7 ADD PUSH2 0x1E6D JUMP JUMPDEST SWAP3 POP POP PUSH1 0x20 PUSH2 0x208F DUP6 DUP3 DUP7 ADD PUSH2 0x1E6D JUMP JUMPDEST SWAP2 POP POP SWAP3 POP SWAP3 SWAP1 POP JUMP JUMPDEST PUSH0 PUSH2 0x20A3 DUP3 PUSH2 0x1DAC JUMP JUMPDEST SWAP1 POP SWAP2 SWAP1 POP JUMP JUMPDEST PUSH2 0x20B3 DUP2 PUSH2 0x2099 JUMP JUMPDEST DUP3 MSTORE POP POP JUMP JUMPDEST PUSH0 PUSH1 0x20 DUP3 ADD SWAP1 POP PUSH2 0x20CC PUSH0 DUP4 ADD DUP5 PUSH2 0x20AA JUMP JUMPDEST SWAP3 SWAP2 POP POP JUMP JUMPDEST PUSH0 DUP2 SWAP1 POP SWAP2 SWAP1 POP JUMP JUMPDEST PUSH0 PUSH2 0x20F5 PUSH2 0x20F0 PUSH2 0x20EB DUP5 PUSH2 0x1DAC JUMP JUMPDEST PUSH2 0x20D2 JUMP JUMPDEST PUSH2 0x1DAC JUMP JUMPDEST SWAP1 POP SWAP2 SWAP1 POP JUMP JUMPDEST PUSH0 PUSH2 0x2106 DUP3 PUSH2 0x20DB JUMP JUMPDEST SWAP1 POP SWAP2 SWAP1 POP JUMP JUMPDEST PUSH0 PUSH2 0x2117 DUP3 PUSH2 0x20FC JUMP JUMPDEST SWAP1 POP SWAP2 SWAP1 POP JUMP JUMPDEST PUSH2 0x2127 DUP2 PUSH2 0x210D JUMP JUMPDEST DUP3 MSTORE POP POP JUMP JUMPDEST PUSH0 PUSH1 0x20 DUP3 ADD SWAP1 POP PUSH2 0x2140 PUSH0 DUP4 ADD DUP5 PUSH2 0x211E JUMP JUMPDEST SWAP3 SWAP2 POP POP JUMP JUMPDEST PUSH0 PUSH1 0x20 DUP3 ADD SWAP1 POP PUSH2 0x2159 PUSH0 DUP4 ADD DUP5 PUSH2 0x1DDC JUMP JUMPDEST SWAP3 SWAP2 POP POP JUMP JUMPDEST PUSH0 PUSH0 PUSH0 PUSH1 0x60 DUP5 DUP7 SUB SLT ISZERO PUSH2 0x2176 JUMPI PUSH2 0x2175 PUSH2 0x1D46 JUMP JUMPDEST JUMPDEST PUSH0 PUSH2 0x2183 DUP7 DUP3 DUP8 ADD PUSH2 0x1D6D JUMP JUMPDEST SWAP4 POP POP PUSH1 0x20 PUSH2 0x2194 DUP7 DUP3 DUP8 ADD PUSH2 0x1D6D JUMP JUMPDEST SWAP3 POP POP PUSH1 0x40 PUSH2 0x21A5 DUP7 DUP3 DUP8 ADD PUSH2 0x1E6D JUMP JUMPDEST SWAP2 POP POP SWAP3 POP SWAP3 POP SWAP3 JUMP JUMPDEST PUSH2 0x21B8 DUP2 PUSH2 0x1DFA JUMP JUMPDEST DUP2 EQ PUSH2 0x21C2 JUMPI PUSH0 PUSH0 REVERT JUMPDEST POP JUMP JUMPDEST PUSH0 DUP2 CALLDATALOAD SWAP1 POP PUSH2 0x21D3 DUP2 PUSH2 0x21AF JUMP JUMPDEST SWAP3 SWAP2 POP POP JUMP JUMPDEST PUSH0 PUSH0 PUSH0 PUSH0 PUSH0 PUSH1 0xA0 DUP7 DUP9 SUB SLT ISZERO PUSH2 0x21F2 JUMPI PUSH2 0x21F1 PUSH2 0x1D46 JUMP JUMPDEST JUMPDEST PUSH0 PUSH2 0x21FF DUP9 DUP3 DUP10 ADD PUSH2 0x1D6D JUMP JUMPDEST SWAP6 POP POP PUSH1 0x20 PUSH2 0x2210 DUP9 DUP3 DUP10 ADD PUSH2 0x1E6D JUMP JUMPDEST SWAP5 POP POP PUSH1 0x40 PUSH2 0x2221 DUP9 DUP3 DUP10 ADD PUSH2 0x1D6D JUMP JUMPDEST SWAP4 POP POP PUSH1 0x60 PUSH2 0x2232 DUP9 DUP3 DUP10 ADD PUSH2 0x1D6D JUMP JUMPDEST SWAP3 POP POP PUSH1 0x80 PUSH2 0x2243 DUP9 DUP3 DUP10 ADD PUSH2 0x21C5 JUMP JUMPDEST SWAP2 POP POP SWAP3 SWAP6 POP SWAP3 SWAP6 SWAP1 SWAP4 POP JUMP JUMPDEST PUSH0 PUSH1 0xFF DUP3 AND SWAP1 POP SWAP2 SWAP1 POP JUMP JUMPDEST PUSH2 0x2265 DUP2 PUSH2 0x2250 JUMP JUMPDEST DUP2 EQ PUSH2 0x226F JUMPI PUSH0 PUSH0 REVERT JUMPDEST POP JUMP JUMPDEST PUSH0 DUP2 CALLDATALOAD SWAP1 POP PUSH2 0x2280 DUP2 PUSH2 0x225C JUMP JUMPDEST SWAP3 SWAP2 POP POP JUMP JUMPDEST PUSH0 DUP2 SWAP1 POP SWAP2 SWAP1 POP JUMP JUMPDEST PUSH2 0x2298 DUP2 PUSH2 0x2286 JUMP JUMPDEST DUP2 EQ PUSH2 0x22A2 JUMPI PUSH0 PUSH0 REVERT JUMPDEST POP JUMP JUMPDEST PUSH0 DUP2 CALLDATALOAD SWAP1 POP PUSH2 0x22B3 DUP2 PUSH2 0x228F JUMP JUMPDEST SWAP3 SWAP2 POP POP JUMP JUMPDEST PUSH0 PUSH0 PUSH0 PUSH0 PUSH0 PUSH0 PUSH1 0xC0 DUP8 DUP10 SUB SLT ISZERO PUSH2 0x22D3 JUMPI PUSH2 0x22D2 PUSH2 0x1D46 JUMP JUMPDEST JUMPDEST PUSH0 PUSH2 0x22E0 DUP10 DUP3 DUP11 ADD PUSH2 0x1D6D JUMP JUMPDEST SWAP7 POP POP PUSH1 0x20 PUSH2 0x22F1 DUP10 DUP3 DUP11 ADD PUSH2 0x1D6D JUMP JUMPDEST SWAP6 POP POP PUSH1 0x40 PUSH2 0x2302 DUP10 DUP3 DUP11 ADD PUSH2 0x1D6D JUMP JUMPDEST SWAP5 POP POP PUSH1 0x60 PUSH2 0x2313 DUP10 DUP3 DUP11 ADD PUSH2 0x2272 JUMP JUMPDEST SWAP4 POP POP PUSH1 0x80 PUSH2 0x2324 DUP10 DUP3 DUP11 ADD PUSH2 0x22A5 JUMP JUMPDEST SWAP3 POP POP PUSH1 0xA0 PUSH2 0x2335 DUP10 DUP3 DUP11 ADD PUSH2 0x22A5 JUMP JUMPDEST SWAP2 POP POP SWAP3 SWAP6 POP SWAP3 SWAP6 POP SWAP3 SWAP6 JUMP JUMPDEST PUSH2 0x234B DUP2 PUSH2 0x2099 JUMP JUMPDEST DUP2 EQ PUSH2 0x2355 JUMPI PUSH0 PUSH0 REVERT JUMPDEST POP JUMP JUMPDEST PUSH0 DUP2 CALLDATALOAD SWAP1 POP PUSH2 0x2366 DUP2 PUSH2 0x2342 JUMP JUMPDEST SWAP3 SWAP2 POP POP JUMP JUMPDEST PUSH0 PUSH1 0x20 DUP3 DUP5 SUB SLT ISZERO PUSH2 0x2381 JUMPI PUSH2 0x2380 PUSH2 0x1D46 JUMP JUMPDEST JUMPDEST PUSH0 PUSH2 0x238E DUP5 DUP3 DUP6 ADD PUSH2 0x2358 JUMP JUMPDEST SWAP2 POP POP SWAP3 SWAP2 POP POP JUMP JUMPDEST PUSH0 PUSH1 0x20 DUP3 DUP5 SUB SLT ISZERO PUSH2 0x23AC JUMPI PUSH2 0x23AB PUSH2 0x1D46 JUMP JUMPDEST JUMPDEST PUSH0 PUSH2 0x23B9 DUP5 DUP3 DUP6 ADD PUSH2 0x1E6D JUMP JUMPDEST SWAP2 POP POP SWAP3 SWAP2 POP POP JUMP JUMPDEST PUSH0 PUSH1 0x20 DUP3 ADD SWAP1 POP PUSH2 0x23D5 PUSH0 DUP4 ADD DUP5 PUSH2 0x1DEB JUMP JUMPDEST SWAP3 SWAP2 POP POP JUMP JUMPDEST PUSH0 DUP2 MLOAD SWAP1 POP PUSH2 0x23E9 DUP2 PUSH2 0x1E57 JUMP JUMPDEST SWAP3 SWAP2 POP POP JUMP JUMPDEST PUSH0 PUSH1 0x20 DUP3 DUP5 SUB SLT ISZERO PUSH2 0x2404 JUMPI PUSH2 0x2403 PUSH2 0x1D46 JUMP JUMPDEST JUMPDEST PUSH0 PUSH2 0x2411 DUP5 DUP3 DUP6 ADD PUSH2 0x23DB JUMP JUMPDEST SWAP2 POP POP SWAP3 SWAP2 POP POP JUMP JUMPDEST PUSH0 PUSH1 0x60 DUP3 ADD SWAP1 POP PUSH2 0x242D PUSH0 DUP4 ADD DUP7 PUSH2 0x1DDC JUMP JUMPDEST PUSH2 0x243A PUSH1 0x20 DUP4 ADD DUP6 PUSH2 0x1DDC JUMP JUMPDEST PUSH2 0x2447 PUSH1 0x40 DUP4 ADD DUP5 PUSH2 0x1DEB JUMP JUMPDEST SWAP5 SWAP4 POP POP POP POP JUMP JUMPDEST PUSH32 0x4E487B7100000000000000000000000000000000000000000000000000000000 PUSH0 MSTORE PUSH1 0x11 PUSH1 0x4 MSTORE PUSH1 0x24 PUSH0 REVERT JUMPDEST PUSH0 PUSH2 0x2486 DUP3 PUSH2 0x1D4E JUMP JUMPDEST SWAP2 POP PUSH32 0xFFFFFFFFFFFFFFFFFFFFFFFFFFFFFFFFFFFFFFFFFFFFFFFFFFFFFFFFFFFFFFFF DUP3 SUB PUSH2 0x24B8 JUMPI PUSH2 0x24B7 PUSH2 0x244F JUMP JUMPDEST JUMPDEST PUSH1 0x1 DUP3 ADD SWAP1 POP SWAP2 SWAP1 POP JUMP JUMPDEST PUSH0 DUP2 MLOAD SWAP1 POP PUSH2 0x24D1 DUP2 PUSH2 0x1D57 JUMP JUMPDEST SWAP3 SWAP2 POP POP JUMP JUMPDEST PUSH0 PUSH1 0x20 DUP3 DUP5 SUB SLT ISZERO PUSH2 0x24EC JUMPI PUSH2 0x24EB PUSH2 0x1D46 JUMP JUMPDEST JUMPDEST PUSH0 PUSH2 0x24F9 DUP5 DUP3 DUP6 ADD PUSH2 0x24C3 JUMP JUMPDEST SWAP2 POP POP SWAP3 SWAP2 POP POP JUMP JUMPDEST PUSH0 DUP2 SWAP1 POP SWAP2 SWAP1 POP JUMP JUMPDEST PUSH0 PUSH2 0x2525 PUSH2 0x2520 PUSH2 0x251B DUP5 PUSH2 0x2502 JUMP JUMPDEST PUSH2 0x20D2 JUMP JUMPDEST PUSH2 0x1D4E JUMP JUMPDEST SWAP1 POP SWAP2 SWAP1 POP JUMP JUMPDEST PUSH2 0x2535 DUP2 PUSH2 0x250B JUMP JUMPDEST DUP3 MSTORE POP POP JUMP JUMPDEST PUSH0 PUSH1 0x40 DUP3 ADD SWAP1 POP PUSH2 0x254E PUSH0 DUP4 ADD DUP6 PUSH2 0x1DDC JUMP JUMPDEST PUSH2 0x255B PUSH1 0x20 DUP4 ADD DUP5 PUSH2 0x252C JUMP JUMPDEST SWAP4 SWAP3 POP POP POP JUMP JUMPDEST PUSH0 PUSH1 0x40 DUP3 ADD SWAP1 POP PUSH2 0x2575 PUSH0 DUP4 ADD DUP6 PUSH2 0x1DDC JUMP JUMPDEST PUSH2 0x2582 PUSH1 0x20 DUP4 ADD DUP5 PUSH2 0x1DEB JUMP JUMPDEST SWAP4 SWAP3 POP POP POP JUMP JUMPDEST PUSH0 DUP2 MLOAD SWAP1 POP PUSH2 0x2597 DUP2 PUSH2 0x21AF JUMP JUMPDEST SWAP3 SWAP2 POP POP JUMP JUMPDEST PUSH0 PUSH1 0x20 DUP3 DUP5 SUB SLT ISZERO PUSH2 0x25B2 JUMPI PUSH2 0x25B1 PUSH2 0x1D46 JUMP JUMPDEST JUMPDEST PUSH0 PUSH2 0x25BF DUP5 DUP3 DUP6 ADD PUSH2 0x2589 JUMP JUMPDEST SWAP2 POP POP SWAP3 SWAP2 POP POP JUMP JUMPDEST PUSH0 DUP2 SWAP1 POP SWAP3 SWAP2 POP POP JUMP JUMPDEST POP JUMP JUMPDEST PUSH0 PUSH2 0x25E0 PUSH0 DUP4 PUSH2 0x25C8 JUMP JUMPDEST SWAP2 POP PUSH2 0x25EB DUP3 PUSH2 0x25D2 JUMP JUMPDEST PUSH0 DUP3 ADD SWAP1 POP SWAP2 SWAP1 POP JUMP JUMPDEST PUSH0 PUSH2 0x25FF DUP3 PUSH2 0x25D5 JUMP JUMPDEST SWAP2 POP DUP2 SWAP1 POP SWAP2 SWAP1 POP JUMP JUMPDEST PUSH0 DUP3 DUP3 MSTORE PUSH1 0x20 DUP3 ADD SWAP1 POP SWAP3 SWAP2 POP POP JUMP JUMPDEST PUSH32 0x455448207472616E73666572206661696C656400000000000000000000000000 PUSH0 DUP3 ADD MSTORE POP JUMP JUMPDEST PUSH0 PUSH2 0x264D PUSH1 0x13 DUP4 PUSH2 0x2609 JUMP JUMPDEST SWAP2 POP PUSH2 0x2658 DUP3 PUSH2 0x2619 JUMP JUMPDEST PUSH1 0x20 DUP3 ADD SWAP1 POP SWAP2 SWAP1 POP JUMP JUMPDEST PUSH0 PUSH1 0x20 DUP3 ADD SWAP1 POP DUP2 DUP2 SUB PUSH0 DUP4 ADD MSTORE PUSH2 0x267A DUP2 PUSH2 0x2641 JUMP JUMPDEST SWAP1 POP SWAP2 SWAP1 POP JUMP JUMPDEST PUSH32 0x7065726D69742076616C7565206D69736D617463680000000000000000000000 PUSH0 DUP3 ADD MSTORE POP JUMP JUMPDEST PUSH0 PUSH2 0x26B5 PUSH1 0x15 DUP4 PUSH2 0x2609 JUMP JUMPDEST SWAP2 POP PUSH2 0x26C0 DUP3 PUSH2 0x2681 JUMP JUMPDEST PUSH1 0x20 DUP3 ADD SWAP1 POP SWAP2 SWAP1 POP JUMP JUMPDEST PUSH0 PUSH1 0x20 DUP3 ADD SWAP1 POP DUP2 DUP2 SUB PUSH0 DUP4 ADD MSTORE PUSH2 0x26E2 DUP2 PUSH2 0x26A9 JUMP JUMPDEST SWAP1 POP SWAP2 SWAP1 POP JUMP JUMPDEST PUSH2 0x26F2 DUP2 PUSH2 0x2250 JUMP JUMPDEST DUP3 MSTORE POP POP JUMP JUMPDEST PUSH2 0x2701 DUP2 PUSH2 0x2286 JUMP JUMPDEST DUP3 MSTORE POP POP JUMP JUMPDEST PUSH0 PUSH1 0xE0 DUP3 ADD SWAP1 POP PUSH2 0x271A PUSH0 DUP4 ADD DUP11 PUSH2 0x1DDC JUMP JUMPDEST PUSH2 0x2727 PUSH1 0x20 DUP4 ADD DUP10 PUSH2 0x1DDC JUMP JUMPDEST PUSH2 0x2734 PUSH1 0x40 DUP4 ADD DUP9 PUSH2 0x1DEB JUMP JUMPDEST PUSH2 0x2741 PUSH1 0x60 DUP4 ADD DUP8 PUSH2 0x1DEB JUMP JUMPDEST PUSH2 0x274E PUSH1 0x80 DUP4 ADD DUP7 PUSH2 0x26E9 JUMP JUMPDEST PUSH2 0x275B PUSH1 0xA0 DUP4 ADD DUP6 PUSH2 0x26F8 JUMP JUMPDEST PUSH2 0x2768 PUSH1 0xC0 DUP4 ADD DUP5 PUSH2 0x26F8 JUMP JUMPDEST SWAP9 SWAP8 POP POP POP POP POP POP POP POP JUMP JUMPDEST PUSH32 0x5265656E7472616E637947756172643A207265656E7472616E742063616C6C00 PUSH0 DUP3 ADD MSTORE POP JUMP JUMPDEST PUSH0 PUSH2 0x27A8 PUSH1 0x1F DUP4 PUSH2 0x2609 JUMP JUMPDEST SWAP2 POP PUSH2 0x27B3 DUP3 PUSH2 0x2774 JUMP JUMPDEST PUSH1 0x20 DUP3 ADD SWAP1 POP SWAP2 SWAP1 POP JUMP JUMPDEST PUSH0 PUSH1 0x20 DUP3 ADD SWAP1 POP DUP2 DUP2 SUB PUSH0 DUP4 ADD MSTORE PUSH2 0x27D5 DUP2 PUSH2 0x279C JUMP JUMPDEST SWAP1 POP SWAP2 SWAP1 POP JUMP INVALID LOG2 PUSH5 0x6970667358 0x22 SLT KECCAK256 SWAP16 0xC1 RETURNCONTRACT 0xBC JUMP 0xC8 0xF6 RETURN SSTORE 0xEB 0x24 0xEB 0xC2 PUSH28 0xC8AE98EDCC2A71AA4FA63DD8F86493B7227A64736F6C634300081E00 CALLER "
				},
				"gasEstimates": {
					"creation": {
						"codeDepositCost": "2051600",
						"executionCost": "infinite",
						"totalCost": "infinite"
					},
					"external": {
						"USDC()": "infinite",
						"buyWithETH(uint256)": "infinite",
						"buyWithUSDC(uint256)": "infinite",
						"buyWithUSDCPermit(uint256,uint256,uint256,uint8,bytes32,bytes32)": "infinite",
						"onERC721Received(address,address,uint256,bytes)": "infinite",
						"owner()": "2538",
						"renounceOwnership()": "infinite",
						"setTier(uint256,address,uint256,uint256,bool)": "infinite",
						"setTreasury(address)": "infinite",
						"sweepERC20(address,address)": "infinite",
						"tiers(uint256)": "infinite",
						"transferOwnership(address)": "infinite",
						"treasury()": "2553",
						"withdrawAll(uint256,address)": "infinite",
						"withdrawN(uint256,uint256,address)": "infinite",
						"withdrawNFT(uint256,uint256,address)": "infinite",
						"withdrawRange(uint256,uint256,uint256,address)": "infinite"
					},
					"internal": {
						"_nextToken(address)": "infinite"
					}
				},
				"methodIdentifiers": {
					"USDC()": "89a30271",
					"buyWithETH(uint256)": "94dc9cf3",
					"buyWithUSDC(uint256)": "aeccf735",
					"buyWithUSDCPermit(uint256,uint256,uint256,uint8,bytes32,bytes32)": "bb6416ae",
					"onERC721Received(address,address,uint256,bytes)": "150b7a02",
					"owner()": "8da5cb5b",
					"renounceOwnership()": "715018a6",
					"setTier(uint256,address,uint256,uint256,bool)": "b5ddc0f4",
					"setTreasury(address)": "f0f44260",
					"sweepERC20(address,address)": "582515c7",
					"tiers(uint256)": "039af9eb",
					"transferOwnership(address)": "f2fde38b",
					"treasury()": "61d027b3",
					"withdrawAll(uint256,address)": "4c2233a5",
					"withdrawN(uint256,uint256,address)": "ddd32898",
					"withdrawNFT(uint256,uint256,address)": "9c66fb7e",
					"withdrawRange(uint256,uint256,uint256,address)": "26e84cc3"
				}
			},
			"storageLayout": {
				"storage": [
					{
						"astId": 248,
						"contract": "contracts/BadSammyNFTStore.sol:BadSammyNFTStore",
						"label": "_status",
						"offset": 0,
						"slot": "0",
						"type": "t_uint256"
					},
					{
						"astId": 8,
						"contract": "contracts/BadSammyNFTStore.sol:BadSammyNFTStore",
						"label": "_owner",
						"offset": 0,
						"slot": "1",
						"type": "t_address"
					},
					{
						"astId": 1124,
						"contract": "contracts/BadSammyNFTStore.sol:BadSammyNFTStore",
						"label": "tiers",
						"offset": 0,
						"slot": "2",
						"type": "t_mapping(t_uint256,t_struct(Tier)1119_storage)"
					},
					{
						"astId": 1126,
						"contract": "contracts/BadSammyNFTStore.sol:BadSammyNFTStore",
						"label": "treasury",
						"offset": 0,
						"slot": "3",
						"type": "t_address_payable"
					}
				],
				"types": {
					"t_address": {
						"encoding": "inplace",
						"label": "address",
						"numberOfBytes": "20"
					},
					"t_address_payable": {
						"encoding": "inplace",
						"label": "address payable",
						"numberOfBytes": "20"
					},
					"t_bool": {
						"encoding": "inplace",
						"label": "bool",
						"numberOfBytes": "1"
					},
					"t_mapping(t_uint256,t_struct(Tier)1119_storage)": {
						"encoding": "mapping",
						"key": "t_uint256",
						"label": "mapping(uint256 => struct BadSammyNFTStore.Tier)",
						"numberOfBytes": "32",
						"value": "t_struct(Tier)1119_storage"
					},
					"t_struct(Tier)1119_storage": {
						"encoding": "inplace",
						"label": "struct BadSammyNFTStore.Tier",
						"members": [
							{
								"astId": 1112,
								"contract": "contracts/BadSammyNFTStore.sol:BadSammyNFTStore",
								"label": "nft",
								"offset": 0,
								"slot": "0",
								"type": "t_address"
							},
							{
								"astId": 1114,
								"contract": "contracts/BadSammyNFTStore.sol:BadSammyNFTStore",
								"label": "priceEth",
								"offset": 0,
								"slot": "1",
								"type": "t_uint256"
							},
							{
								"astId": 1116,
								"contract": "contracts/BadSammyNFTStore.sol:BadSammyNFTStore",
								"label": "priceUsdc",
								"offset": 0,
								"slot": "2",
								"type": "t_uint256"
							},
							{
								"astId": 1118,
								"contract": "contracts/BadSammyNFTStore.sol:BadSammyNFTStore",
								"label": "enabled",
								"offset": 0,
								"slot": "3",
								"type": "t_bool"
							}
						],
						"numberOfBytes": "128"
					},
					"t_uint256": {
						"encoding": "inplace",
						"label": "uint256",
						"numberOfBytes": "32"
					}
				}
			},
			"userdoc": {
				"kind": "user",
				"methods": {},
				"notice": "BadSammyNFTStore (OZ v5) To be used by Base Mini App. OpenSea will not use this but will go directly to Inventory Wallet. - Primary sales for multiple ERC721Enumerable collections (tiers) - Accepts ETH and/or USDC per tier - Store holds inventory so it can transfer immediately - Auto-picks the next token owned by the store",
				"version": 1
			}
		}
	}
}