{
	"contracts/BadSammyNFTStore.sol": {
		"BadSammyNFTStore": {
			"abi": [
				{
					"inputs": [
						{
							"internalType": "address",
							"name": "initialOwner",
							"type": "address"
						},
						{
							"internalType": "address payable",
							"name": "_treasury",
							"type": "address"
						},
						{
							"internalType": "address",
							"name": "usdc",
							"type": "address"
						}
					],
					"stateMutability": "nonpayable",
					"type": "constructor"
				},
				{
					"inputs": [],
					"name": "InvalidTier",
					"type": "error"
				},
				{
					"inputs": [
						{
							"internalType": "address",
							"name": "owner",
							"type": "address"
						}
					],
					"name": "OwnableInvalidOwner",
					"type": "error"
				},
				{
					"inputs": [
						{
							"internalType": "address",
							"name": "account",
							"type": "address"
						}
					],
					"name": "OwnableUnauthorizedAccount",
					"type": "error"
				},
				{
					"inputs": [],
					"name": "PaymentIncorrect",
					"type": "error"
				},
				{
					"inputs": [],
					"name": "SoldOut",
					"type": "error"
				},
				{
					"inputs": [],
					"name": "TierDisabled",
					"type": "error"
				},
				{
					"inputs": [],
					"name": "ZeroAddress",
					"type": "error"
				},
				{
					"anonymous": false,
					"inputs": [
						{
							"indexed": true,
							"internalType": "address",
							"name": "previousOwner",
							"type": "address"
						},
						{
							"indexed": true,
							"internalType": "address",
							"name": "newOwner",
							"type": "address"
						}
					],
					"name": "OwnershipTransferred",
					"type": "event"
				},
				{
					"anonymous": false,
					"inputs": [
						{
							"indexed": true,
							"internalType": "address",
							"name": "oldAddress",
							"type": "address"
						},
						{
							"indexed": true,
							"internalType": "address",
							"name": "newAddress",
							"type": "address"
						}
					],
					"name": "UsdcTokenUpdated",
					"type": "event"
				},
				{
					"inputs": [],
					"name": "USDC",
					"outputs": [
						{
							"internalType": "contract IERC20",
							"name": "",
							"type": "address"
						}
					],
					"stateMutability": "view",
					"type": "function"
				},
				{
					"inputs": [
						{
							"internalType": "uint256",
							"name": "tierId",
							"type": "uint256"
						},
						{
							"internalType": "uint256",
							"name": "quantity",
							"type": "uint256"
						}
					],
					"name": "buyWithUSDC",
					"outputs": [],
					"stateMutability": "nonpayable",
					"type": "function"
				},
				{
					"inputs": [
						{
							"internalType": "uint256",
							"name": "tierId",
							"type": "uint256"
						},
						{
							"internalType": "uint256",
							"name": "quantity",
							"type": "uint256"
						},
						{
							"internalType": "uint256",
							"name": "value",
							"type": "uint256"
						},
						{
							"internalType": "uint256",
							"name": "deadline",
							"type": "uint256"
						},
						{
							"internalType": "uint8",
							"name": "v",
							"type": "uint8"
						},
						{
							"internalType": "bytes32",
							"name": "r",
							"type": "bytes32"
						},
						{
							"internalType": "bytes32",
							"name": "s",
							"type": "bytes32"
						}
					],
					"name": "buyWithUSDCPermit",
					"outputs": [],
					"stateMutability": "nonpayable",
					"type": "function"
				},
				{
					"inputs": [
						{
							"internalType": "address",
							"name": "",
							"type": "address"
						},
						{
							"internalType": "address",
							"name": "",
							"type": "address"
						},
						{
							"internalType": "uint256",
							"name": "",
							"type": "uint256"
						},
						{
							"internalType": "bytes",
							"name": "",
							"type": "bytes"
						}
					],
					"name": "onERC721Received",
					"outputs": [
						{
							"internalType": "bytes4",
							"name": "",
							"type": "bytes4"
						}
					],
					"stateMutability": "pure",
					"type": "function"
				},
				{
					"inputs": [],
					"name": "owner",
					"outputs": [
						{
							"internalType": "address",
							"name": "",
							"type": "address"
						}
					],
					"stateMutability": "view",
					"type": "function"
				},
				{
					"inputs": [],
					"name": "renounceOwnership",
					"outputs": [],
					"stateMutability": "view",
					"type": "function"
				},
				{
					"inputs": [
						{
							"internalType": "uint256",
							"name": "tierId",
							"type": "uint256"
						},
						{
							"internalType": "address",
							"name": "nftAddress",
							"type": "address"
						},
						{
							"internalType": "uint256",
							"name": "priceUsdcUnits",
							"type": "uint256"
						},
						{
							"internalType": "bool",
							"name": "enabled",
							"type": "bool"
						}
					],
					"name": "setTier",
					"outputs": [],
					"stateMutability": "nonpayable",
					"type": "function"
				},
				{
					"inputs": [
						{
							"internalType": "address payable",
							"name": "_treasury",
							"type": "address"
						}
					],
					"name": "setTreasury",
					"outputs": [],
					"stateMutability": "nonpayable",
					"type": "function"
				},
				{
					"inputs": [
						{
							"internalType": "address",
							"name": "_newUSDC",
							"type": "address"
						}
					],
					"name": "setUSDC",
					"outputs": [],
					"stateMutability": "nonpayable",
					"type": "function"
				},
				{
					"inputs": [
						{
							"internalType": "address",
							"name": "token",
							"type": "address"
						},
						{
							"internalType": "address",
							"name": "to",
							"type": "address"
						}
					],
					"name": "sweepERC20",
					"outputs": [],
					"stateMutability": "nonpayable",
					"type": "function"
				},
				{
					"inputs": [
						{
							"internalType": "uint256",
							"name": "",
							"type": "uint256"
						}
					],
					"name": "tiers",
					"outputs": [
						{
							"internalType": "address",
							"name": "nft",
							"type": "address"
						},
						{
							"internalType": "uint256",
							"name": "priceUsdc",
							"type": "uint256"
						},
						{
							"internalType": "bool",
							"name": "enabled",
							"type": "bool"
						}
					],
					"stateMutability": "view",
					"type": "function"
				},
				{
					"inputs": [
						{
							"internalType": "address",
							"name": "newOwner",
							"type": "address"
						}
					],
					"name": "transferOwnership",
					"outputs": [],
					"stateMutability": "nonpayable",
					"type": "function"
				},
				{
					"inputs": [],
					"name": "treasury",
					"outputs": [
						{
							"internalType": "address payable",
							"name": "",
							"type": "address"
						}
					],
					"stateMutability": "view",
					"type": "function"
				},
				{
					"inputs": [
						{
							"internalType": "uint256",
							"name": "tierId",
							"type": "uint256"
						},
						{
							"internalType": "address",
							"name": "to",
							"type": "address"
						}
					],
					"name": "withdrawAll",
					"outputs": [],
					"stateMutability": "nonpayable",
					"type": "function"
				},
				{
					"inputs": [
						{
							"internalType": "uint256",
							"name": "tierId",
							"type": "uint256"
						},
						{
							"internalType": "uint256",
							"name": "quantity",
							"type": "uint256"
						},
						{
							"internalType": "address",
							"name": "to",
							"type": "address"
						}
					],
					"name": "withdrawN",
					"outputs": [],
					"stateMutability": "nonpayable",
					"type": "function"
				},
				{
					"inputs": [
						{
							"internalType": "uint256",
							"name": "tierId",
							"type": "uint256"
						},
						{
							"internalType": "uint256",
							"name": "tokenId",
							"type": "uint256"
						},
						{
							"internalType": "address",
							"name": "to",
							"type": "address"
						}
					],
					"name": "withdrawNFT",
					"outputs": [],
					"stateMutability": "nonpayable",
					"type": "function"
				},
				{
					"stateMutability": "payable",
					"type": "receive"
				}
			],
			"devdoc": {
				"errors": {
					"OwnableInvalidOwner(address)": [
						{
							"details": "The owner is not a valid owner account. (eg. `address(0)`)"
						}
					],
					"OwnableUnauthorizedAccount(address)": [
						{
							"details": "The caller account is not authorized to perform an operation."
						}
					]
				},
				"kind": "dev",
				"methods": {
					"owner()": {
						"details": "Returns the address of the current owner."
					},
					"renounceOwnership()": {
						"details": "Leaves the contract without owner. It will not be possible to call `onlyOwner` functions. Can only be called by the current owner. NOTE: Renouncing ownership will leave the contract without an owner, thereby disabling any functionality that is only available to the owner."
					},
					"transferOwnership(address)": {
						"details": "Transfers ownership of the contract to a new account (`newOwner`). Can only be called by the current owner."
					}
				},
				"version": 1
			},
			"evm": {
				"assembly": "    /* \"contracts/BadSammyNFTStore.sol\":909:9602  contract BadSammyNFTStore is ReentrancyGuard, Ownable, IERC721Receiver {... */\n  mstore(0x40, 0x80)\n    /* \"contracts/BadSammyNFTStore.sol\":1777:2300  constructor(... */\n  callvalue\n  dup1\n  iszero\n  tag_1\n  jumpi\n  revert(0x00, 0x00)\ntag_1:\n  pop\n  mload(0x40)\n  sub(codesize, bytecodeSize)\n  dup1\n  bytecodeSize\n  dup4\n  codecopy\n  dup2\n  dup2\n  add\n  0x40\n  mstore\n  dup2\n  add\n  swap1\n  tag_2\n  swap2\n  swap1\n  tag_3\n  jump\t// in\ntag_2:\n    /* \"contracts/BadSammyNFTStore.sol\":1986:1998  initialOwner */\n  dup3\n    /* \"@openzeppelin/contracts/security/ReentrancyGuard.sol\":1716:1717  1 */\n  0x01\n    /* \"@openzeppelin/contracts/security/ReentrancyGuard.sol\":1821:1828  _status */\n  0x00\n    /* \"@openzeppelin/contracts/security/ReentrancyGuard.sol\":1821:1843  _status = _NOT_ENTERED */\n  dup2\n  swap1\n  sstore\n  pop\n    /* \"@openzeppelin/contracts/access/Ownable.sol\":1297:1298  0 */\n  0x00\n    /* \"@openzeppelin/contracts/access/Ownable.sol\":1273:1299  initialOwner == address(0) */\n  0xffffffffffffffffffffffffffffffffffffffff\n  and\n    /* \"@openzeppelin/contracts/access/Ownable.sol\":1273:1285  initialOwner */\n  dup2\n    /* \"@openzeppelin/contracts/access/Ownable.sol\":1273:1299  initialOwner == address(0) */\n  0xffffffffffffffffffffffffffffffffffffffff\n  and\n  sub\n    /* \"@openzeppelin/contracts/access/Ownable.sol\":1269:1364  if (initialOwner == address(0)) {... */\n  tag_9\n  jumpi\n    /* \"@openzeppelin/contracts/access/Ownable.sol\":1350:1351  0 */\n  0x00\n    /* \"@openzeppelin/contracts/access/Ownable.sol\":1322:1353  OwnableInvalidOwner(address(0)) */\n  mload(0x40)\n  0x1e4fbdf700000000000000000000000000000000000000000000000000000000\n  dup2\n  mstore\n  0x04\n  add\n  tag_10\n  swap2\n  swap1\n  tag_11\n  jump\t// in\ntag_10:\n  mload(0x40)\n  dup1\n  swap2\n  sub\n  swap1\n  revert\n    /* \"@openzeppelin/contracts/access/Ownable.sol\":1269:1364  if (initialOwner == address(0)) {... */\ntag_9:\n    /* \"@openzeppelin/contracts/access/Ownable.sol\":1373:1405  _transferOwnership(initialOwner) */\n  tag_12\n    /* \"@openzeppelin/contracts/access/Ownable.sol\":1392:1404  initialOwner */\n  dup2\n    /* \"@openzeppelin/contracts/access/Ownable.sol\":1373:1391  _transferOwnership */\n  shl(0x20, tag_13)\n    /* \"@openzeppelin/contracts/access/Ownable.sol\":1373:1405  _transferOwnership(initialOwner) */\n  0x20\n  shr\n  jump\t// in\ntag_12:\n    /* \"@openzeppelin/contracts/access/Ownable.sol\":1225:1412  constructor(address initialOwner) {... */\n  pop\n    /* \"contracts/BadSammyNFTStore.sol\":2040:2041  0 */\n  0x00\n    /* \"contracts/BadSammyNFTStore.sol\":2019:2042  _treasury == address(0) */\n  0xffffffffffffffffffffffffffffffffffffffff\n  and\n    /* \"contracts/BadSammyNFTStore.sol\":2019:2028  _treasury */\n  dup3\n    /* \"contracts/BadSammyNFTStore.sol\":2019:2042  _treasury == address(0) */\n  0xffffffffffffffffffffffffffffffffffffffff\n  and\n  eq\n    /* \"contracts/BadSammyNFTStore.sol\":2019:2064  _treasury == address(0) || usdc == address(0) */\n  dup1\n  tag_15\n  jumpi\n  pop\n    /* \"contracts/BadSammyNFTStore.sol\":2062:2063  0 */\n  0x00\n    /* \"contracts/BadSammyNFTStore.sol\":2046:2064  usdc == address(0) */\n  0xffffffffffffffffffffffffffffffffffffffff\n  and\n    /* \"contracts/BadSammyNFTStore.sol\":2046:2050  usdc */\n  dup2\n    /* \"contracts/BadSammyNFTStore.sol\":2046:2064  usdc == address(0) */\n  0xffffffffffffffffffffffffffffffffffffffff\n  and\n  eq\n    /* \"contracts/BadSammyNFTStore.sol\":2019:2064  _treasury == address(0) || usdc == address(0) */\ntag_15:\n    /* \"contracts/BadSammyNFTStore.sol\":2015:2111  if (_treasury == address(0) || usdc == address(0)) {... */\n  iszero\n  tag_16\n  jumpi\n    /* \"contracts/BadSammyNFTStore.sol\":2087:2100  ZeroAddress() */\n  mload(0x40)\n  0xd92e233d00000000000000000000000000000000000000000000000000000000\n  dup2\n  mstore\n  0x04\n  add\n  mload(0x40)\n  dup1\n  swap2\n  sub\n  swap1\n  revert\n    /* \"contracts/BadSammyNFTStore.sol\":2015:2111  if (_treasury == address(0) || usdc == address(0)) {... */\ntag_16:\n    /* \"contracts/BadSammyNFTStore.sol\":2132:2141  _treasury */\n  dup2\n    /* \"contracts/BadSammyNFTStore.sol\":2121:2129  treasury */\n  0x03\n  0x00\n    /* \"contracts/BadSammyNFTStore.sol\":2121:2141  treasury = _treasury */\n  0x0100\n  exp\n  dup2\n  sload\n  dup2\n  0xffffffffffffffffffffffffffffffffffffffff\n  mul\n  not\n  and\n  swap1\n  dup4\n  0xffffffffffffffffffffffffffffffffffffffff\n  and\n  mul\n  or\n  swap1\n  sstore\n  pop\n    /* \"contracts/BadSammyNFTStore.sol\":2165:2169  usdc */\n  dup1\n    /* \"contracts/BadSammyNFTStore.sol\":2151:2155  USDC */\n  0x04\n  0x00\n    /* \"contracts/BadSammyNFTStore.sol\":2151:2170  USDC = IERC20(usdc) */\n  0x0100\n  exp\n  dup2\n  sload\n  dup2\n  0xffffffffffffffffffffffffffffffffffffffff\n  mul\n  not\n  and\n  swap1\n  dup4\n  0xffffffffffffffffffffffffffffffffffffffff\n  and\n  mul\n  or\n  swap1\n  sstore\n  pop\n    /* \"contracts/BadSammyNFTStore.sol\":1777:2300  constructor(... */\n  pop\n  pop\n  pop\n    /* \"contracts/BadSammyNFTStore.sol\":909:9602  contract BadSammyNFTStore is ReentrancyGuard, Ownable, IERC721Receiver {... */\n  jump(tag_17)\n    /* \"@openzeppelin/contracts/access/Ownable.sol\":2912:3099  function _transferOwnership(address newOwner) internal virtual {... */\ntag_13:\n    /* \"@openzeppelin/contracts/access/Ownable.sol\":2985:3001  address oldOwner */\n  0x00\n    /* \"@openzeppelin/contracts/access/Ownable.sol\":3004:3010  _owner */\n  0x01\n  0x00\n  swap1\n  sload\n  swap1\n  0x0100\n  exp\n  swap1\n  div\n  0xffffffffffffffffffffffffffffffffffffffff\n  and\n    /* \"@openzeppelin/contracts/access/Ownable.sol\":2985:3010  address oldOwner = _owner */\n  swap1\n  pop\n    /* \"@openzeppelin/contracts/access/Ownable.sol\":3029:3037  newOwner */\n  dup2\n    /* \"@openzeppelin/contracts/access/Ownable.sol\":3020:3026  _owner */\n  0x01\n  0x00\n    /* \"@openzeppelin/contracts/access/Ownable.sol\":3020:3037  _owner = newOwner */\n  0x0100\n  exp\n  dup2\n  sload\n  dup2\n  0xffffffffffffffffffffffffffffffffffffffff\n  mul\n  not\n  and\n  swap1\n  dup4\n  0xffffffffffffffffffffffffffffffffffffffff\n  and\n  mul\n  or\n  swap1\n  sstore\n  pop\n    /* \"@openzeppelin/contracts/access/Ownable.sol\":3083:3091  newOwner */\n  dup2\n    /* \"@openzeppelin/contracts/access/Ownable.sol\":3052:3092  OwnershipTransferred(oldOwner, newOwner) */\n  0xffffffffffffffffffffffffffffffffffffffff\n  and\n    /* \"@openzeppelin/contracts/access/Ownable.sol\":3073:3081  oldOwner */\n  dup2\n    /* \"@openzeppelin/contracts/access/Ownable.sol\":3052:3092  OwnershipTransferred(oldOwner, newOwner) */\n  0xffffffffffffffffffffffffffffffffffffffff\n  and\n  0x8be0079c531659141344cd1fd0a4f28419497f9722a3daafe3b4186f6b6457e0\n  mload(0x40)\n  mload(0x40)\n  dup1\n  swap2\n  sub\n  swap1\n  log3\n    /* \"@openzeppelin/contracts/access/Ownable.sol\":2975:3099  {... */\n  pop\n    /* \"@openzeppelin/contracts/access/Ownable.sol\":2912:3099  function _transferOwnership(address newOwner) internal virtual {... */\n  pop\n  jump\t// out\n    /* \"#utility.yul\":88:205   */\ntag_20:\n    /* \"#utility.yul\":197:198   */\n  0x00\n    /* \"#utility.yul\":194:195   */\n  0x00\n    /* \"#utility.yul\":187:199   */\n  revert\n    /* \"#utility.yul\":334:460   */\ntag_22:\n    /* \"#utility.yul\":371:378   */\n  0x00\n    /* \"#utility.yul\":411:453   */\n  0xffffffffffffffffffffffffffffffffffffffff\n    /* \"#utility.yul\":404:409   */\n  dup3\n    /* \"#utility.yul\":400:454   */\n  and\n    /* \"#utility.yul\":389:454   */\n  swap1\n  pop\n    /* \"#utility.yul\":334:460   */\n  swap2\n  swap1\n  pop\n  jump\t// out\n    /* \"#utility.yul\":466:562   */\ntag_23:\n    /* \"#utility.yul\":503:510   */\n  0x00\n    /* \"#utility.yul\":532:556   */\n  tag_36\n    /* \"#utility.yul\":550:555   */\n  dup3\n    /* \"#utility.yul\":532:556   */\n  tag_22\n  jump\t// in\ntag_36:\n    /* \"#utility.yul\":521:556   */\n  swap1\n  pop\n    /* \"#utility.yul\":466:562   */\n  swap2\n  swap1\n  pop\n  jump\t// out\n    /* \"#utility.yul\":568:690   */\ntag_24:\n    /* \"#utility.yul\":641:665   */\n  tag_38\n    /* \"#utility.yul\":659:664   */\n  dup2\n    /* \"#utility.yul\":641:665   */\n  tag_23\n  jump\t// in\ntag_38:\n    /* \"#utility.yul\":634:639   */\n  dup2\n    /* \"#utility.yul\":631:666   */\n  eq\n    /* \"#utility.yul\":621:684   */\n  tag_39\n  jumpi\n    /* \"#utility.yul\":680:681   */\n  0x00\n    /* \"#utility.yul\":677:678   */\n  0x00\n    /* \"#utility.yul\":670:682   */\n  revert\n    /* \"#utility.yul\":621:684   */\ntag_39:\n    /* \"#utility.yul\":568:690   */\n  pop\n  jump\t// out\n    /* \"#utility.yul\":696:839   */\ntag_25:\n    /* \"#utility.yul\":753:758   */\n  0x00\n    /* \"#utility.yul\":784:790   */\n  dup2\n    /* \"#utility.yul\":778:791   */\n  mload\n    /* \"#utility.yul\":769:791   */\n  swap1\n  pop\n    /* \"#utility.yul\":800:833   */\n  tag_41\n    /* \"#utility.yul\":827:832   */\n  dup2\n    /* \"#utility.yul\":800:833   */\n  tag_24\n  jump\t// in\ntag_41:\n    /* \"#utility.yul\":696:839   */\n  swap3\n  swap2\n  pop\n  pop\n  jump\t// out\n    /* \"#utility.yul\":845:949   */\ntag_26:\n    /* \"#utility.yul\":890:897   */\n  0x00\n    /* \"#utility.yul\":919:943   */\n  tag_43\n    /* \"#utility.yul\":937:942   */\n  dup3\n    /* \"#utility.yul\":919:943   */\n  tag_22\n  jump\t// in\ntag_43:\n    /* \"#utility.yul\":908:943   */\n  swap1\n  pop\n    /* \"#utility.yul\":845:949   */\n  swap2\n  swap1\n  pop\n  jump\t// out\n    /* \"#utility.yul\":955:1093   */\ntag_27:\n    /* \"#utility.yul\":1036:1068   */\n  tag_45\n    /* \"#utility.yul\":1062:1067   */\n  dup2\n    /* \"#utility.yul\":1036:1068   */\n  tag_26\n  jump\t// in\ntag_45:\n    /* \"#utility.yul\":1029:1034   */\n  dup2\n    /* \"#utility.yul\":1026:1069   */\n  eq\n    /* \"#utility.yul\":1016:1087   */\n  tag_46\n  jumpi\n    /* \"#utility.yul\":1083:1084   */\n  0x00\n    /* \"#utility.yul\":1080:1081   */\n  0x00\n    /* \"#utility.yul\":1073:1085   */\n  revert\n    /* \"#utility.yul\":1016:1087   */\ntag_46:\n    /* \"#utility.yul\":955:1093   */\n  pop\n  jump\t// out\n    /* \"#utility.yul\":1099:1258   */\ntag_28:\n    /* \"#utility.yul\":1164:1169   */\n  0x00\n    /* \"#utility.yul\":1195:1201   */\n  dup2\n    /* \"#utility.yul\":1189:1202   */\n  mload\n    /* \"#utility.yul\":1180:1202   */\n  swap1\n  pop\n    /* \"#utility.yul\":1211:1252   */\n  tag_48\n    /* \"#utility.yul\":1246:1251   */\n  dup2\n    /* \"#utility.yul\":1211:1252   */\n  tag_27\n  jump\t// in\ntag_48:\n    /* \"#utility.yul\":1099:1258   */\n  swap3\n  swap2\n  pop\n  pop\n  jump\t// out\n    /* \"#utility.yul\":1264:1943   */\ntag_3:\n    /* \"#utility.yul\":1360:1366   */\n  0x00\n    /* \"#utility.yul\":1368:1374   */\n  0x00\n    /* \"#utility.yul\":1376:1382   */\n  0x00\n    /* \"#utility.yul\":1425:1427   */\n  0x60\n    /* \"#utility.yul\":1413:1422   */\n  dup5\n    /* \"#utility.yul\":1404:1411   */\n  dup7\n    /* \"#utility.yul\":1400:1423   */\n  sub\n    /* \"#utility.yul\":1396:1428   */\n  slt\n    /* \"#utility.yul\":1393:1512   */\n  iszero\n  tag_50\n  jumpi\n    /* \"#utility.yul\":1431:1510   */\n  tag_51\n  tag_20\n  jump\t// in\ntag_51:\n    /* \"#utility.yul\":1393:1512   */\ntag_50:\n    /* \"#utility.yul\":1551:1552   */\n  0x00\n    /* \"#utility.yul\":1576:1640   */\n  tag_52\n    /* \"#utility.yul\":1632:1639   */\n  dup7\n    /* \"#utility.yul\":1623:1629   */\n  dup3\n    /* \"#utility.yul\":1612:1621   */\n  dup8\n    /* \"#utility.yul\":1608:1630   */\n  add\n    /* \"#utility.yul\":1576:1640   */\n  tag_25\n  jump\t// in\ntag_52:\n    /* \"#utility.yul\":1566:1640   */\n  swap4\n  pop\n    /* \"#utility.yul\":1522:1650   */\n  pop\n    /* \"#utility.yul\":1689:1691   */\n  0x20\n    /* \"#utility.yul\":1715:1787   */\n  tag_53\n    /* \"#utility.yul\":1779:1786   */\n  dup7\n    /* \"#utility.yul\":1770:1776   */\n  dup3\n    /* \"#utility.yul\":1759:1768   */\n  dup8\n    /* \"#utility.yul\":1755:1777   */\n  add\n    /* \"#utility.yul\":1715:1787   */\n  tag_28\n  jump\t// in\ntag_53:\n    /* \"#utility.yul\":1705:1787   */\n  swap3\n  pop\n    /* \"#utility.yul\":1660:1797   */\n  pop\n    /* \"#utility.yul\":1836:1838   */\n  0x40\n    /* \"#utility.yul\":1862:1926   */\n  tag_54\n    /* \"#utility.yul\":1918:1925   */\n  dup7\n    /* \"#utility.yul\":1909:1915   */\n  dup3\n    /* \"#utility.yul\":1898:1907   */\n  dup8\n    /* \"#utility.yul\":1894:1916   */\n  add\n    /* \"#utility.yul\":1862:1926   */\n  tag_25\n  jump\t// in\ntag_54:\n    /* \"#utility.yul\":1852:1926   */\n  swap2\n  pop\n    /* \"#utility.yul\":1807:1936   */\n  pop\n    /* \"#utility.yul\":1264:1943   */\n  swap3\n  pop\n  swap3\n  pop\n  swap3\n  jump\t// out\n    /* \"#utility.yul\":1949:2067   */\ntag_29:\n    /* \"#utility.yul\":2036:2060   */\n  tag_56\n    /* \"#utility.yul\":2054:2059   */\n  dup2\n    /* \"#utility.yul\":2036:2060   */\n  tag_23\n  jump\t// in\ntag_56:\n    /* \"#utility.yul\":2031:2034   */\n  dup3\n    /* \"#utility.yul\":2024:2061   */\n  mstore\n    /* \"#utility.yul\":1949:2067   */\n  pop\n  pop\n  jump\t// out\n    /* \"#utility.yul\":2073:2295   */\ntag_11:\n    /* \"#utility.yul\":2166:2170   */\n  0x00\n    /* \"#utility.yul\":2204:2206   */\n  0x20\n    /* \"#utility.yul\":2193:2202   */\n  dup3\n    /* \"#utility.yul\":2189:2207   */\n  add\n    /* \"#utility.yul\":2181:2207   */\n  swap1\n  pop\n    /* \"#utility.yul\":2217:2288   */\n  tag_58\n    /* \"#utility.yul\":2285:2286   */\n  0x00\n    /* \"#utility.yul\":2274:2283   */\n  dup4\n    /* \"#utility.yul\":2270:2287   */\n  add\n    /* \"#utility.yul\":2261:2267   */\n  dup5\n    /* \"#utility.yul\":2217:2288   */\n  tag_29\n  jump\t// in\ntag_58:\n    /* \"#utility.yul\":2073:2295   */\n  swap3\n  swap2\n  pop\n  pop\n  jump\t// out\n    /* \"contracts/BadSammyNFTStore.sol\":909:9602  contract BadSammyNFTStore is ReentrancyGuard, Ownable, IERC721Receiver {... */\ntag_17:\n  dataSize(sub_0)\n  dup1\n  dataOffset(sub_0)\n  0x00\n  codecopy\n  0x00\n  return\nstop\n\nsub_0: assembly {\n        /* \"contracts/BadSammyNFTStore.sol\":909:9602  contract BadSammyNFTStore is ReentrancyGuard, Ownable, IERC721Receiver {... */\n      mstore(0x40, 0x80)\n      jumpi(tag_1, lt(calldatasize, 0x04))\n      shr(0xe0, calldataload(0x00))\n      dup1\n      0x89a30271\n      gt\n      tag_19\n      jumpi\n      dup1\n      0xb3e089a2\n      gt\n      tag_20\n      jumpi\n      dup1\n      0xb3e089a2\n      eq\n      tag_15\n      jumpi\n      dup1\n      0xddd32898\n      eq\n      tag_16\n      jumpi\n      dup1\n      0xf0f44260\n      eq\n      tag_17\n      jumpi\n      dup1\n      0xf2fde38b\n      eq\n      tag_18\n      jumpi\n      jump(tag_2)\n    tag_20:\n      dup1\n      0x89a30271\n      eq\n      tag_11\n      jumpi\n      dup1\n      0x8da5cb5b\n      eq\n      tag_12\n      jumpi\n      dup1\n      0x9079b243\n      eq\n      tag_13\n      jumpi\n      dup1\n      0x9c66fb7e\n      eq\n      tag_14\n      jumpi\n      jump(tag_2)\n    tag_19:\n      dup1\n      0x4c2233a5\n      gt\n      tag_21\n      jumpi\n      dup1\n      0x4c2233a5\n      eq\n      tag_7\n      jumpi\n      dup1\n      0x582515c7\n      eq\n      tag_8\n      jumpi\n      dup1\n      0x61d027b3\n      eq\n      tag_9\n      jumpi\n      dup1\n      0x715018a6\n      eq\n      tag_10\n      jumpi\n      jump(tag_2)\n    tag_21:\n      dup1\n      0x039af9eb\n      eq\n      tag_3\n      jumpi\n      dup1\n      0x0a340fca\n      eq\n      tag_4\n      jumpi\n      dup1\n      0x150b7a02\n      eq\n      tag_5\n      jumpi\n      dup1\n      0x166e11b7\n      eq\n      tag_6\n      jumpi\n      jump(tag_2)\n    tag_1:\n      jumpi(tag_2, calldatasize)\n      stop\n    tag_2:\n      revert(0x00, 0x00)\n        /* \"contracts/BadSammyNFTStore.sol\":1216:1253  mapping(uint256 => Tier) public tiers */\n    tag_3:\n      callvalue\n      dup1\n      iszero\n      tag_24\n      jumpi\n      revert(0x00, 0x00)\n    tag_24:\n      pop\n      tag_25\n      0x04\n      dup1\n      calldatasize\n      sub\n      dup2\n      add\n      swap1\n      tag_26\n      swap2\n      swap1\n      tag_27\n      jump\t// in\n    tag_26:\n      tag_28\n      jump\t// in\n    tag_25:\n      mload(0x40)\n      tag_29\n      swap4\n      swap3\n      swap2\n      swap1\n      tag_30\n      jump\t// in\n    tag_29:\n      mload(0x40)\n      dup1\n      swap2\n      sub\n      swap1\n      return\n        /* \"contracts/BadSammyNFTStore.sol\":6378:7541  function buyWithUSDCPermit(... */\n    tag_4:\n      callvalue\n      dup1\n      iszero\n      tag_31\n      jumpi\n      revert(0x00, 0x00)\n    tag_31:\n      pop\n      tag_32\n      0x04\n      dup1\n      calldatasize\n      sub\n      dup2\n      add\n      swap1\n      tag_33\n      swap2\n      swap1\n      tag_34\n      jump\t// in\n    tag_33:\n      tag_35\n      jump\t// in\n    tag_32:\n      stop\n        /* \"contracts/BadSammyNFTStore.sol\":9337:9525  function onERC721Received(address, address, uint256, bytes calldata) ... */\n    tag_5:\n      callvalue\n      dup1\n      iszero\n      tag_36\n      jumpi\n      revert(0x00, 0x00)\n    tag_36:\n      pop\n      tag_37\n      0x04\n      dup1\n      calldatasize\n      sub\n      dup2\n      add\n      swap1\n      tag_38\n      swap2\n      swap1\n      tag_39\n      jump\t// in\n    tag_38:\n      tag_40\n      jump\t// in\n    tag_37:\n      mload(0x40)\n      tag_41\n      swap2\n      swap1\n      tag_42\n      jump\t// in\n    tag_41:\n      mload(0x40)\n      dup1\n      swap2\n      sub\n      swap1\n      return\n        /* \"contracts/BadSammyNFTStore.sol\":4476:5057  function buyWithUSDC(uint256 tierId, uint256 quantity) public nonReentrant {... */\n    tag_6:\n      callvalue\n      dup1\n      iszero\n      tag_43\n      jumpi\n      revert(0x00, 0x00)\n    tag_43:\n      pop\n      tag_44\n      0x04\n      dup1\n      calldatasize\n      sub\n      dup2\n      add\n      swap1\n      tag_45\n      swap2\n      swap1\n      tag_46\n      jump\t// in\n    tag_45:\n      tag_47\n      jump\t// in\n    tag_44:\n      stop\n        /* \"contracts/BadSammyNFTStore.sol\":8663:9143  function withdrawAll(uint256 tierId, address to) external onlyOwner {... */\n    tag_7:\n      callvalue\n      dup1\n      iszero\n      tag_48\n      jumpi\n      revert(0x00, 0x00)\n    tag_48:\n      pop\n      tag_49\n      0x04\n      dup1\n      calldatasize\n      sub\n      dup2\n      add\n      swap1\n      tag_50\n      swap2\n      swap1\n      tag_51\n      jump\t// in\n    tag_50:\n      tag_52\n      jump\t// in\n    tag_49:\n      stop\n        /* \"contracts/BadSammyNFTStore.sol\":7667:7843  function sweepERC20(address token, address to) external onlyOwner {... */\n    tag_8:\n      callvalue\n      dup1\n      iszero\n      tag_53\n      jumpi\n      revert(0x00, 0x00)\n    tag_53:\n      pop\n      tag_54\n      0x04\n      dup1\n      calldatasize\n      sub\n      dup2\n      add\n      swap1\n      tag_55\n      swap2\n      swap1\n      tag_56\n      jump\t// in\n    tag_55:\n      tag_57\n      jump\t// in\n    tag_54:\n      stop\n        /* \"contracts/BadSammyNFTStore.sol\":1259:1290  address payable public treasury */\n    tag_9:\n      callvalue\n      dup1\n      iszero\n      tag_58\n      jumpi\n      revert(0x00, 0x00)\n    tag_58:\n      pop\n      tag_59\n      tag_60\n      jump\t// in\n    tag_59:\n      mload(0x40)\n      tag_61\n      swap2\n      swap1\n      tag_62\n      jump\t// in\n    tag_61:\n      mload(0x40)\n      dup1\n      swap2\n      sub\n      swap1\n      return\n        /* \"contracts/BadSammyNFTStore.sol\":9184:9303  function renounceOwnership() public view override onlyOwner {... */\n    tag_10:\n      callvalue\n      dup1\n      iszero\n      tag_63\n      jumpi\n      revert(0x00, 0x00)\n    tag_63:\n      pop\n      tag_64\n      tag_65\n      jump\t// in\n    tag_64:\n      stop\n        /* \"contracts/BadSammyNFTStore.sol\":1323:1341  IERC20 public USDC */\n    tag_11:\n      callvalue\n      dup1\n      iszero\n      tag_66\n      jumpi\n      revert(0x00, 0x00)\n    tag_66:\n      pop\n      tag_67\n      tag_68\n      jump\t// in\n    tag_67:\n      mload(0x40)\n      tag_69\n      swap2\n      swap1\n      tag_70\n      jump\t// in\n    tag_69:\n      mload(0x40)\n      dup1\n      swap2\n      sub\n      swap1\n      return\n        /* \"@openzeppelin/contracts/access/Ownable.sol\":1638:1723  function owner() public view virtual returns (address) {... */\n    tag_12:\n      callvalue\n      dup1\n      iszero\n      tag_71\n      jumpi\n      revert(0x00, 0x00)\n    tag_71:\n      pop\n      tag_72\n      tag_73\n      jump\t// in\n    tag_72:\n      mload(0x40)\n      tag_74\n      swap2\n      swap1\n      tag_75\n      jump\t// in\n    tag_74:\n      mload(0x40)\n      dup1\n      swap2\n      sub\n      swap1\n      return\n        /* \"contracts/BadSammyNFTStore.sol\":2578:2873  function setTier(... */\n    tag_13:\n      callvalue\n      dup1\n      iszero\n      tag_76\n      jumpi\n      revert(0x00, 0x00)\n    tag_76:\n      pop\n      tag_77\n      0x04\n      dup1\n      calldatasize\n      sub\n      dup2\n      add\n      swap1\n      tag_78\n      swap2\n      swap1\n      tag_79\n      jump\t// in\n    tag_78:\n      tag_80\n      jump\t// in\n    tag_77:\n      stop\n        /* \"contracts/BadSammyNFTStore.sol\":7849:8105  function withdrawNFT(uint256 tierId, uint256 tokenId, address to) external onlyOwner {... */\n    tag_14:\n      callvalue\n      dup1\n      iszero\n      tag_81\n      jumpi\n      revert(0x00, 0x00)\n    tag_81:\n      pop\n      tag_82\n      0x04\n      dup1\n      calldatasize\n      sub\n      dup2\n      add\n      swap1\n      tag_83\n      swap2\n      swap1\n      tag_84\n      jump\t// in\n    tag_83:\n      tag_85\n      jump\t// in\n    tag_82:\n      stop\n        /* \"contracts/BadSammyNFTStore.sol\":4222:4470  function setUSDC(... */\n    tag_15:\n      callvalue\n      dup1\n      iszero\n      tag_86\n      jumpi\n      revert(0x00, 0x00)\n    tag_86:\n      pop\n      tag_87\n      0x04\n      dup1\n      calldatasize\n      sub\n      dup2\n      add\n      swap1\n      tag_88\n      swap2\n      swap1\n      tag_89\n      jump\t// in\n    tag_88:\n      tag_90\n      jump\t// in\n    tag_87:\n      stop\n        /* \"contracts/BadSammyNFTStore.sol\":8111:8657  function withdrawN(uint256 tierId, uint256 quantity, address to) external onlyOwner {... */\n    tag_16:\n      callvalue\n      dup1\n      iszero\n      tag_91\n      jumpi\n      revert(0x00, 0x00)\n    tag_91:\n      pop\n      tag_92\n      0x04\n      dup1\n      calldatasize\n      sub\n      dup2\n      add\n      swap1\n      tag_93\n      swap2\n      swap1\n      tag_84\n      jump\t// in\n    tag_93:\n      tag_94\n      jump\t// in\n    tag_92:\n      stop\n        /* \"contracts/BadSammyNFTStore.sol\":2409:2572  function setTreasury(address payable _treasury) external onlyOwner {... */\n    tag_17:\n      callvalue\n      dup1\n      iszero\n      tag_95\n      jumpi\n      revert(0x00, 0x00)\n    tag_95:\n      pop\n      tag_96\n      0x04\n      dup1\n      calldatasize\n      sub\n      dup2\n      add\n      swap1\n      tag_97\n      swap2\n      swap1\n      tag_98\n      jump\t// in\n    tag_97:\n      tag_99\n      jump\t// in\n    tag_96:\n      stop\n        /* \"@openzeppelin/contracts/access/Ownable.sol\":2543:2758  function transferOwnership(address newOwner) public virtual onlyOwner {... */\n    tag_18:\n      callvalue\n      dup1\n      iszero\n      tag_100\n      jumpi\n      revert(0x00, 0x00)\n    tag_100:\n      pop\n      tag_101\n      0x04\n      dup1\n      calldatasize\n      sub\n      dup2\n      add\n      swap1\n      tag_102\n      swap2\n      swap1\n      tag_89\n      jump\t// in\n    tag_102:\n      tag_103\n      jump\t// in\n    tag_101:\n      stop\n        /* \"contracts/BadSammyNFTStore.sol\":1216:1253  mapping(uint256 => Tier) public tiers */\n    tag_28:\n      mstore(0x20, 0x02)\n      dup1\n      0x00\n      mstore\n      keccak256(0x00, 0x40)\n      0x00\n      swap2\n      pop\n      swap1\n      pop\n      dup1\n      0x00\n      add\n      0x00\n      swap1\n      sload\n      swap1\n      0x0100\n      exp\n      swap1\n      div\n      0xffffffffffffffffffffffffffffffffffffffff\n      and\n      swap1\n      dup1\n      0x01\n      add\n      sload\n      swap1\n      dup1\n      0x02\n      add\n      0x00\n      swap1\n      sload\n      swap1\n      0x0100\n      exp\n      swap1\n      div\n      0xff\n      and\n      swap1\n      pop\n      dup4\n      jump\t// out\n        /* \"contracts/BadSammyNFTStore.sol\":6378:7541  function buyWithUSDCPermit(... */\n    tag_35:\n        /* \"@openzeppelin/contracts/security/ReentrancyGuard.sol\":2261:2282  _nonReentrantBefore() */\n      tag_105\n        /* \"@openzeppelin/contracts/security/ReentrancyGuard.sol\":2261:2280  _nonReentrantBefore */\n      tag_106\n        /* \"@openzeppelin/contracts/security/ReentrancyGuard.sol\":2261:2282  _nonReentrantBefore() */\n      jump\t// in\n    tag_105:\n        /* \"contracts/BadSammyNFTStore.sol\":6597:6610  Tier memory t */\n      0x00\n        /* \"contracts/BadSammyNFTStore.sol\":6613:6618  tiers */\n      0x02\n        /* \"contracts/BadSammyNFTStore.sol\":6613:6626  tiers[tierId] */\n      0x00\n        /* \"contracts/BadSammyNFTStore.sol\":6619:6625  tierId */\n      dup10\n        /* \"contracts/BadSammyNFTStore.sol\":6613:6626  tiers[tierId] */\n      dup2\n      mstore\n      0x20\n      add\n      swap1\n      dup2\n      mstore\n      0x20\n      add\n      0x00\n      keccak256\n        /* \"contracts/BadSammyNFTStore.sol\":6597:6626  Tier memory t = tiers[tierId] */\n      mload(0x40)\n      dup1\n      0x60\n      add\n      0x40\n      mstore\n      swap1\n      dup2\n      0x00\n      dup3\n      add\n      0x00\n      swap1\n      sload\n      swap1\n      0x0100\n      exp\n      swap1\n      div\n      0xffffffffffffffffffffffffffffffffffffffff\n      and\n      0xffffffffffffffffffffffffffffffffffffffff\n      and\n      0xffffffffffffffffffffffffffffffffffffffff\n      and\n      dup2\n      mstore\n      0x20\n      add\n      0x01\n      dup3\n      add\n      sload\n      dup2\n      mstore\n      0x20\n      add\n      0x02\n      dup3\n      add\n      0x00\n      swap1\n      sload\n      swap1\n      0x0100\n      exp\n      swap1\n      div\n      0xff\n      and\n      iszero\n      iszero\n      iszero\n      iszero\n      dup2\n      mstore\n      pop\n      pop\n      swap1\n      pop\n        /* \"contracts/BadSammyNFTStore.sol\":6657:6658  0 */\n      0x00\n        /* \"contracts/BadSammyNFTStore.sol\":6640:6659  t.nft == address(0) */\n      0xffffffffffffffffffffffffffffffffffffffff\n      and\n        /* \"contracts/BadSammyNFTStore.sol\":6640:6641  t */\n      dup2\n        /* \"contracts/BadSammyNFTStore.sol\":6640:6645  t.nft */\n      0x00\n      add\n      mload\n        /* \"contracts/BadSammyNFTStore.sol\":6640:6659  t.nft == address(0) */\n      0xffffffffffffffffffffffffffffffffffffffff\n      and\n      sub\n        /* \"contracts/BadSammyNFTStore.sol\":6636:6681  if (t.nft == address(0)) revert InvalidTier() */\n      tag_108\n      jumpi\n        /* \"contracts/BadSammyNFTStore.sol\":6668:6681  InvalidTier() */\n      mload(0x40)\n      0xe142361700000000000000000000000000000000000000000000000000000000\n      dup2\n      mstore\n      0x04\n      add\n      mload(0x40)\n      dup1\n      swap2\n      sub\n      swap1\n      revert\n        /* \"contracts/BadSammyNFTStore.sol\":6636:6681  if (t.nft == address(0)) revert InvalidTier() */\n    tag_108:\n        /* \"contracts/BadSammyNFTStore.sol\":6696:6697  t */\n      dup1\n        /* \"contracts/BadSammyNFTStore.sol\":6696:6705  t.enabled */\n      0x40\n      add\n      mload\n        /* \"contracts/BadSammyNFTStore.sol\":6695:6705  !t.enabled */\n      iszero\n        /* \"contracts/BadSammyNFTStore.sol\":6695:6725  !t.enabled || t.priceUsdc == 0 */\n      dup1\n      tag_109\n      jumpi\n      pop\n        /* \"contracts/BadSammyNFTStore.sol\":6724:6725  0 */\n      0x00\n        /* \"contracts/BadSammyNFTStore.sol\":6709:6710  t */\n      dup2\n        /* \"contracts/BadSammyNFTStore.sol\":6709:6720  t.priceUsdc */\n      0x20\n      add\n      mload\n        /* \"contracts/BadSammyNFTStore.sol\":6709:6725  t.priceUsdc == 0 */\n      eq\n        /* \"contracts/BadSammyNFTStore.sol\":6695:6725  !t.enabled || t.priceUsdc == 0 */\n    tag_109:\n        /* \"contracts/BadSammyNFTStore.sol\":6691:6748  if (!t.enabled || t.priceUsdc == 0) revert TierDisabled() */\n      iszero\n      tag_110\n      jumpi\n        /* \"contracts/BadSammyNFTStore.sol\":6734:6748  TierDisabled() */\n      mload(0x40)\n      0x94d366b500000000000000000000000000000000000000000000000000000000\n      dup2\n      mstore\n      0x04\n      add\n      mload(0x40)\n      dup1\n      swap2\n      sub\n      swap1\n      revert\n        /* \"contracts/BadSammyNFTStore.sol\":6691:6748  if (!t.enabled || t.priceUsdc == 0) revert TierDisabled() */\n    tag_110:\n        /* \"contracts/BadSammyNFTStore.sol\":6774:6775  0 */\n      0x00\n        /* \"contracts/BadSammyNFTStore.sol\":6762:6770  quantity */\n      dup8\n        /* \"contracts/BadSammyNFTStore.sol\":6762:6775  quantity == 0 */\n      sub\n        /* \"contracts/BadSammyNFTStore.sol\":6758:6802  if (quantity == 0) revert PaymentIncorrect() */\n      tag_111\n      jumpi\n        /* \"contracts/BadSammyNFTStore.sol\":6784:6802  PaymentIncorrect() */\n      mload(0x40)\n      0xb0ccca4500000000000000000000000000000000000000000000000000000000\n      dup2\n      mstore\n      0x04\n      add\n      mload(0x40)\n      dup1\n      swap2\n      sub\n      swap1\n      revert\n        /* \"contracts/BadSammyNFTStore.sol\":6758:6802  if (quantity == 0) revert PaymentIncorrect() */\n    tag_111:\n        /* \"contracts/BadSammyNFTStore.sol\":6813:6834  uint256 requiredTotal */\n      0x00\n        /* \"contracts/BadSammyNFTStore.sol\":6851:6859  quantity */\n      dup8\n        /* \"contracts/BadSammyNFTStore.sol\":6837:6838  t */\n      dup3\n        /* \"contracts/BadSammyNFTStore.sol\":6837:6848  t.priceUsdc */\n      0x20\n      add\n      mload\n        /* \"contracts/BadSammyNFTStore.sol\":6837:6859  t.priceUsdc * quantity */\n      tag_112\n      swap2\n      swap1\n      tag_113\n      jump\t// in\n    tag_112:\n        /* \"contracts/BadSammyNFTStore.sol\":6813:6859  uint256 requiredTotal = t.priceUsdc * quantity */\n      swap1\n      pop\n        /* \"contracts/BadSammyNFTStore.sol\":6886:6899  requiredTotal */\n      dup1\n        /* \"contracts/BadSammyNFTStore.sol\":6877:6882  value */\n      dup8\n        /* \"contracts/BadSammyNFTStore.sol\":6877:6899  value == requiredTotal */\n      eq\n        /* \"contracts/BadSammyNFTStore.sol\":6869:6925  require(value == requiredTotal, \"permit value mismatch\") */\n      tag_114\n      jumpi\n      mload(0x40)\n      0x08c379a000000000000000000000000000000000000000000000000000000000\n      dup2\n      mstore\n      0x04\n      add\n      tag_115\n      swap1\n      tag_116\n      jump\t// in\n    tag_115:\n      mload(0x40)\n      dup1\n      swap2\n      sub\n      swap1\n      revert\n    tag_114:\n        /* \"contracts/BadSammyNFTStore.sol\":6991:6995  USDC */\n      0x04\n      0x00\n      swap1\n      sload\n      swap1\n      0x0100\n      exp\n      swap1\n      div\n      0xffffffffffffffffffffffffffffffffffffffff\n      and\n        /* \"contracts/BadSammyNFTStore.sol\":6970:7004  IERC20Permit(address(USDC)).permit */\n      0xffffffffffffffffffffffffffffffffffffffff\n      and\n      0xd505accf\n        /* \"contracts/BadSammyNFTStore.sol\":7018:7028  msg.sender */\n      caller\n        /* \"contracts/BadSammyNFTStore.sol\":7050:7054  this */\n      address\n        /* \"contracts/BadSammyNFTStore.sol\":7069:7074  value */\n      dup11\n        /* \"contracts/BadSammyNFTStore.sol\":7088:7096  deadline */\n      dup11\n        /* \"contracts/BadSammyNFTStore.sol\":7110:7111  v */\n      dup11\n        /* \"contracts/BadSammyNFTStore.sol\":7125:7126  r */\n      dup11\n        /* \"contracts/BadSammyNFTStore.sol\":7140:7141  s */\n      dup11\n        /* \"contracts/BadSammyNFTStore.sol\":6970:7151  IERC20Permit(address(USDC)).permit(... */\n      mload(0x40)\n      dup9\n      0xffffffff\n      and\n      0xe0\n      shl\n      dup2\n      mstore\n      0x04\n      add\n      tag_117\n      swap8\n      swap7\n      swap6\n      swap5\n      swap4\n      swap3\n      swap2\n      swap1\n      tag_118\n      jump\t// in\n    tag_117:\n      0x00\n      mload(0x40)\n      dup1\n      dup4\n      sub\n      dup2\n      0x00\n      dup8\n      dup1\n      extcodesize\n      iszero\n      dup1\n      iszero\n      tag_119\n      jumpi\n      revert(0x00, 0x00)\n    tag_119:\n      pop\n      gas\n      call\n      iszero\n      dup1\n      iszero\n      tag_121\n      jumpi\n      returndatacopy(0x00, 0x00, returndatasize)\n      revert(0x00, returndatasize)\n    tag_121:\n      pop\n      pop\n      pop\n      pop\n        /* \"contracts/BadSammyNFTStore.sol\":7195:7207  bool success */\n      0x00\n        /* \"contracts/BadSammyNFTStore.sol\":7210:7214  USDC */\n      0x04\n      0x00\n      swap1\n      sload\n      swap1\n      0x0100\n      exp\n      swap1\n      div\n      0xffffffffffffffffffffffffffffffffffffffff\n      and\n        /* \"contracts/BadSammyNFTStore.sol\":7210:7227  USDC.transferFrom */\n      0xffffffffffffffffffffffffffffffffffffffff\n      and\n      0x23b872dd\n        /* \"contracts/BadSammyNFTStore.sol\":7228:7238  msg.sender */\n      caller\n        /* \"contracts/BadSammyNFTStore.sol\":7240:7248  treasury */\n      0x03\n      0x00\n      swap1\n      sload\n      swap1\n      0x0100\n      exp\n      swap1\n      div\n      0xffffffffffffffffffffffffffffffffffffffff\n      and\n        /* \"contracts/BadSammyNFTStore.sol\":7250:7255  value */\n      dup12\n        /* \"contracts/BadSammyNFTStore.sol\":7210:7256  USDC.transferFrom(msg.sender, treasury, value) */\n      mload(0x40)\n      dup5\n      0xffffffff\n      and\n      0xe0\n      shl\n      dup2\n      mstore\n      0x04\n      add\n      tag_122\n      swap4\n      swap3\n      swap2\n      swap1\n      tag_123\n      jump\t// in\n    tag_122:\n      0x20\n      mload(0x40)\n      dup1\n      dup4\n      sub\n      dup2\n      0x00\n      dup8\n      gas\n      call\n      iszero\n      dup1\n      iszero\n      tag_125\n      jumpi\n      returndatacopy(0x00, 0x00, returndatasize)\n      revert(0x00, returndatasize)\n    tag_125:\n      pop\n      pop\n      pop\n      pop\n      mload(0x40)\n      returndatasize\n      not(0x1f)\n      0x1f\n      dup3\n      add\n      and\n      dup3\n      add\n      dup1\n      0x40\n      mstore\n      pop\n      dup2\n      add\n      swap1\n      tag_126\n      swap2\n      swap1\n      tag_127\n      jump\t// in\n    tag_126:\n        /* \"contracts/BadSammyNFTStore.sol\":7195:7256  bool success = USDC.transferFrom(msg.sender, treasury, value) */\n      swap1\n      pop\n        /* \"contracts/BadSammyNFTStore.sol\":7271:7278  success */\n      dup1\n        /* \"contracts/BadSammyNFTStore.sol\":7266:7305  if (!success) revert PaymentIncorrect() */\n      tag_128\n      jumpi\n        /* \"contracts/BadSammyNFTStore.sol\":7287:7305  PaymentIncorrect() */\n      mload(0x40)\n      0xb0ccca4500000000000000000000000000000000000000000000000000000000\n      dup2\n      mstore\n      0x04\n      add\n      mload(0x40)\n      dup1\n      swap2\n      sub\n      swap1\n      revert\n        /* \"contracts/BadSammyNFTStore.sol\":7266:7305  if (!success) revert PaymentIncorrect() */\n    tag_128:\n        /* \"contracts/BadSammyNFTStore.sol\":7360:7369  uint256 i */\n      0x00\n        /* \"contracts/BadSammyNFTStore.sol\":7372:7373  0 */\n      0x00\n        /* \"contracts/BadSammyNFTStore.sol\":7360:7373  uint256 i = 0 */\n      swap1\n      pop\n        /* \"contracts/BadSammyNFTStore.sol\":7355:7535  for (uint256 i = 0; i < quantity; i++) {... */\n    tag_129:\n        /* \"contracts/BadSammyNFTStore.sol\":7379:7387  quantity */\n      dup10\n        /* \"contracts/BadSammyNFTStore.sol\":7375:7376  i */\n      dup2\n        /* \"contracts/BadSammyNFTStore.sol\":7375:7387  i < quantity */\n      lt\n        /* \"contracts/BadSammyNFTStore.sol\":7355:7535  for (uint256 i = 0; i < quantity; i++) {... */\n      iszero\n      tag_130\n      jumpi\n        /* \"contracts/BadSammyNFTStore.sol\":7408:7423  uint256 tokenId */\n      0x00\n        /* \"contracts/BadSammyNFTStore.sol\":7426:7443  _nextToken(t.nft) */\n      tag_132\n        /* \"contracts/BadSammyNFTStore.sol\":7437:7438  t */\n      dup6\n        /* \"contracts/BadSammyNFTStore.sol\":7437:7442  t.nft */\n      0x00\n      add\n      mload\n        /* \"contracts/BadSammyNFTStore.sol\":7426:7436  _nextToken */\n      tag_133\n        /* \"contracts/BadSammyNFTStore.sol\":7426:7443  _nextToken(t.nft) */\n      jump\t// in\n    tag_132:\n        /* \"contracts/BadSammyNFTStore.sol\":7408:7443  uint256 tokenId = _nextToken(t.nft) */\n      swap1\n      pop\n        /* \"contracts/BadSammyNFTStore.sol\":7465:7466  t */\n      dup5\n        /* \"contracts/BadSammyNFTStore.sol\":7465:7470  t.nft */\n      0x00\n      add\n      mload\n        /* \"contracts/BadSammyNFTStore.sol\":7457:7488  IERC721(t.nft).safeTransferFrom */\n      0xffffffffffffffffffffffffffffffffffffffff\n      and\n      0x42842e0e\n        /* \"contracts/BadSammyNFTStore.sol\":7497:7501  this */\n      address\n        /* \"contracts/BadSammyNFTStore.sol\":7504:7514  msg.sender */\n      caller\n        /* \"contracts/BadSammyNFTStore.sol\":7516:7523  tokenId */\n      dup5\n        /* \"contracts/BadSammyNFTStore.sol\":7457:7524  IERC721(t.nft).safeTransferFrom(address(this), msg.sender, tokenId) */\n      mload(0x40)\n      dup5\n      0xffffffff\n      and\n      0xe0\n      shl\n      dup2\n      mstore\n      0x04\n      add\n      tag_134\n      swap4\n      swap3\n      swap2\n      swap1\n      tag_135\n      jump\t// in\n    tag_134:\n      0x00\n      mload(0x40)\n      dup1\n      dup4\n      sub\n      dup2\n      0x00\n      dup8\n      dup1\n      extcodesize\n      iszero\n      dup1\n      iszero\n      tag_136\n      jumpi\n      revert(0x00, 0x00)\n    tag_136:\n      pop\n      gas\n      call\n      iszero\n      dup1\n      iszero\n      tag_138\n      jumpi\n      returndatacopy(0x00, 0x00, returndatasize)\n      revert(0x00, returndatasize)\n    tag_138:\n      pop\n      pop\n      pop\n      pop\n        /* \"contracts/BadSammyNFTStore.sol\":7394:7535  {... */\n      pop\n        /* \"contracts/BadSammyNFTStore.sol\":7389:7392  i++ */\n      dup1\n      dup1\n      0x01\n      add\n      swap2\n      pop\n      pop\n        /* \"contracts/BadSammyNFTStore.sol\":7355:7535  for (uint256 i = 0; i < quantity; i++) {... */\n      jump(tag_129)\n    tag_130:\n      pop\n        /* \"contracts/BadSammyNFTStore.sol\":6587:7541  {... */\n      pop\n      pop\n      pop\n        /* \"@openzeppelin/contracts/security/ReentrancyGuard.sol\":2303:2323  _nonReentrantAfter() */\n      tag_139\n        /* \"@openzeppelin/contracts/security/ReentrancyGuard.sol\":2303:2321  _nonReentrantAfter */\n      tag_140\n        /* \"@openzeppelin/contracts/security/ReentrancyGuard.sol\":2303:2323  _nonReentrantAfter() */\n      jump\t// in\n    tag_139:\n        /* \"contracts/BadSammyNFTStore.sol\":6378:7541  function buyWithUSDCPermit(... */\n      pop\n      pop\n      pop\n      pop\n      pop\n      pop\n      pop\n      jump\t// out\n        /* \"contracts/BadSammyNFTStore.sol\":9337:9525  function onERC721Received(address, address, uint256, bytes calldata) ... */\n    tag_40:\n        /* \"contracts/BadSammyNFTStore.sol\":9447:9453  bytes4 */\n      0x00\n        /* \"contracts/BadSammyNFTStore.sol\":9477:9518  IERC721Receiver.onERC721Received.selector */\n      shl(0xe0, 0x150b7a02)\n        /* \"contracts/BadSammyNFTStore.sol\":9470:9518  return IERC721Receiver.onERC721Received.selector */\n      swap1\n      pop\n        /* \"contracts/BadSammyNFTStore.sol\":9337:9525  function onERC721Received(address, address, uint256, bytes calldata) ... */\n      swap6\n      swap5\n      pop\n      pop\n      pop\n      pop\n      pop\n      jump\t// out\n        /* \"contracts/BadSammyNFTStore.sol\":4476:5057  function buyWithUSDC(uint256 tierId, uint256 quantity) public nonReentrant {... */\n    tag_47:\n        /* \"@openzeppelin/contracts/security/ReentrancyGuard.sol\":2261:2282  _nonReentrantBefore() */\n      tag_143\n        /* \"@openzeppelin/contracts/security/ReentrancyGuard.sol\":2261:2280  _nonReentrantBefore */\n      tag_106\n        /* \"@openzeppelin/contracts/security/ReentrancyGuard.sol\":2261:2282  _nonReentrantBefore() */\n      jump\t// in\n    tag_143:\n        /* \"contracts/BadSammyNFTStore.sol\":4561:4574  Tier memory t */\n      0x00\n        /* \"contracts/BadSammyNFTStore.sol\":4577:4582  tiers */\n      0x02\n        /* \"contracts/BadSammyNFTStore.sol\":4577:4590  tiers[tierId] */\n      0x00\n        /* \"contracts/BadSammyNFTStore.sol\":4583:4589  tierId */\n      dup5\n        /* \"contracts/BadSammyNFTStore.sol\":4577:4590  tiers[tierId] */\n      dup2\n      mstore\n      0x20\n      add\n      swap1\n      dup2\n      mstore\n      0x20\n      add\n      0x00\n      keccak256\n        /* \"contracts/BadSammyNFTStore.sol\":4561:4590  Tier memory t = tiers[tierId] */\n      mload(0x40)\n      dup1\n      0x60\n      add\n      0x40\n      mstore\n      swap1\n      dup2\n      0x00\n      dup3\n      add\n      0x00\n      swap1\n      sload\n      swap1\n      0x0100\n      exp\n      swap1\n      div\n      0xffffffffffffffffffffffffffffffffffffffff\n      and\n      0xffffffffffffffffffffffffffffffffffffffff\n      and\n      0xffffffffffffffffffffffffffffffffffffffff\n      and\n      dup2\n      mstore\n      0x20\n      add\n      0x01\n      dup3\n      add\n      sload\n      dup2\n      mstore\n      0x20\n      add\n      0x02\n      dup3\n      add\n      0x00\n      swap1\n      sload\n      swap1\n      0x0100\n      exp\n      swap1\n      div\n      0xff\n      and\n      iszero\n      iszero\n      iszero\n      iszero\n      dup2\n      mstore\n      pop\n      pop\n      swap1\n      pop\n        /* \"contracts/BadSammyNFTStore.sol\":4621:4622  0 */\n      0x00\n        /* \"contracts/BadSammyNFTStore.sol\":4604:4623  t.nft == address(0) */\n      0xffffffffffffffffffffffffffffffffffffffff\n      and\n        /* \"contracts/BadSammyNFTStore.sol\":4604:4605  t */\n      dup2\n        /* \"contracts/BadSammyNFTStore.sol\":4604:4609  t.nft */\n      0x00\n      add\n      mload\n        /* \"contracts/BadSammyNFTStore.sol\":4604:4623  t.nft == address(0) */\n      0xffffffffffffffffffffffffffffffffffffffff\n      and\n      sub\n        /* \"contracts/BadSammyNFTStore.sol\":4600:4645  if (t.nft == address(0)) revert InvalidTier() */\n      tag_145\n      jumpi\n        /* \"contracts/BadSammyNFTStore.sol\":4632:4645  InvalidTier() */\n      mload(0x40)\n      0xe142361700000000000000000000000000000000000000000000000000000000\n      dup2\n      mstore\n      0x04\n      add\n      mload(0x40)\n      dup1\n      swap2\n      sub\n      swap1\n      revert\n        /* \"contracts/BadSammyNFTStore.sol\":4600:4645  if (t.nft == address(0)) revert InvalidTier() */\n    tag_145:\n        /* \"contracts/BadSammyNFTStore.sol\":4660:4661  t */\n      dup1\n        /* \"contracts/BadSammyNFTStore.sol\":4660:4669  t.enabled */\n      0x40\n      add\n      mload\n        /* \"contracts/BadSammyNFTStore.sol\":4659:4669  !t.enabled */\n      iszero\n        /* \"contracts/BadSammyNFTStore.sol\":4659:4689  !t.enabled || t.priceUsdc == 0 */\n      dup1\n      tag_146\n      jumpi\n      pop\n        /* \"contracts/BadSammyNFTStore.sol\":4688:4689  0 */\n      0x00\n        /* \"contracts/BadSammyNFTStore.sol\":4673:4674  t */\n      dup2\n        /* \"contracts/BadSammyNFTStore.sol\":4673:4684  t.priceUsdc */\n      0x20\n      add\n      mload\n        /* \"contracts/BadSammyNFTStore.sol\":4673:4689  t.priceUsdc == 0 */\n      eq\n        /* \"contracts/BadSammyNFTStore.sol\":4659:4689  !t.enabled || t.priceUsdc == 0 */\n    tag_146:\n        /* \"contracts/BadSammyNFTStore.sol\":4655:4712  if (!t.enabled || t.priceUsdc == 0) revert TierDisabled() */\n      iszero\n      tag_147\n      jumpi\n        /* \"contracts/BadSammyNFTStore.sol\":4698:4712  TierDisabled() */\n      mload(0x40)\n      0x94d366b500000000000000000000000000000000000000000000000000000000\n      dup2\n      mstore\n      0x04\n      add\n      mload(0x40)\n      dup1\n      swap2\n      sub\n      swap1\n      revert\n        /* \"contracts/BadSammyNFTStore.sol\":4655:4712  if (!t.enabled || t.priceUsdc == 0) revert TierDisabled() */\n    tag_147:\n        /* \"contracts/BadSammyNFTStore.sol\":4723:4741  uint256 totalPrice */\n      0x00\n        /* \"contracts/BadSammyNFTStore.sol\":4758:4766  quantity */\n      dup3\n        /* \"contracts/BadSammyNFTStore.sol\":4744:4745  t */\n      dup3\n        /* \"contracts/BadSammyNFTStore.sol\":4744:4755  t.priceUsdc */\n      0x20\n      add\n      mload\n        /* \"contracts/BadSammyNFTStore.sol\":4744:4766  t.priceUsdc * quantity */\n      tag_148\n      swap2\n      swap1\n      tag_113\n      jump\t// in\n    tag_148:\n        /* \"contracts/BadSammyNFTStore.sol\":4723:4766  uint256 totalPrice = t.priceUsdc * quantity */\n      swap1\n      pop\n        /* \"contracts/BadSammyNFTStore.sol\":4784:4788  USDC */\n      0x04\n      0x00\n      swap1\n      sload\n      swap1\n      0x0100\n      exp\n      swap1\n      div\n      0xffffffffffffffffffffffffffffffffffffffff\n      and\n        /* \"contracts/BadSammyNFTStore.sol\":4784:4801  USDC.transferFrom */\n      0xffffffffffffffffffffffffffffffffffffffff\n      and\n      0x23b872dd\n        /* \"contracts/BadSammyNFTStore.sol\":4802:4812  msg.sender */\n      caller\n        /* \"contracts/BadSammyNFTStore.sol\":4814:4822  treasury */\n      0x03\n      0x00\n      swap1\n      sload\n      swap1\n      0x0100\n      exp\n      swap1\n      div\n      0xffffffffffffffffffffffffffffffffffffffff\n      and\n        /* \"contracts/BadSammyNFTStore.sol\":4824:4834  totalPrice */\n      dup5\n        /* \"contracts/BadSammyNFTStore.sol\":4784:4835  USDC.transferFrom(msg.sender, treasury, totalPrice) */\n      mload(0x40)\n      dup5\n      0xffffffff\n      and\n      0xe0\n      shl\n      dup2\n      mstore\n      0x04\n      add\n      tag_149\n      swap4\n      swap3\n      swap2\n      swap1\n      tag_123\n      jump\t// in\n    tag_149:\n      0x20\n      mload(0x40)\n      dup1\n      dup4\n      sub\n      dup2\n      0x00\n      dup8\n      gas\n      call\n      iszero\n      dup1\n      iszero\n      tag_151\n      jumpi\n      returndatacopy(0x00, 0x00, returndatasize)\n      revert(0x00, returndatasize)\n    tag_151:\n      pop\n      pop\n      pop\n      pop\n      mload(0x40)\n      returndatasize\n      not(0x1f)\n      0x1f\n      dup3\n      add\n      and\n      dup3\n      add\n      dup1\n      0x40\n      mstore\n      pop\n      dup2\n      add\n      swap1\n      tag_152\n      swap2\n      swap1\n      tag_127\n      jump\t// in\n    tag_152:\n        /* \"contracts/BadSammyNFTStore.sol\":4776:4860  require(USDC.transferFrom(msg.sender, treasury, totalPrice), \"USDC transfer failed\") */\n      tag_153\n      jumpi\n      mload(0x40)\n      0x08c379a000000000000000000000000000000000000000000000000000000000\n      dup2\n      mstore\n      0x04\n      add\n      tag_154\n      swap1\n      tag_155\n      jump\t// in\n    tag_154:\n      mload(0x40)\n      dup1\n      swap2\n      sub\n      swap1\n      revert\n    tag_153:\n        /* \"contracts/BadSammyNFTStore.sol\":4876:4885  uint256 i */\n      0x00\n        /* \"contracts/BadSammyNFTStore.sol\":4888:4889  0 */\n      0x00\n        /* \"contracts/BadSammyNFTStore.sol\":4876:4889  uint256 i = 0 */\n      swap1\n      pop\n        /* \"contracts/BadSammyNFTStore.sol\":4871:5051  for (uint256 i = 0; i < quantity; i++) {... */\n    tag_156:\n        /* \"contracts/BadSammyNFTStore.sol\":4895:4903  quantity */\n      dup4\n        /* \"contracts/BadSammyNFTStore.sol\":4891:4892  i */\n      dup2\n        /* \"contracts/BadSammyNFTStore.sol\":4891:4903  i < quantity */\n      lt\n        /* \"contracts/BadSammyNFTStore.sol\":4871:5051  for (uint256 i = 0; i < quantity; i++) {... */\n      iszero\n      tag_157\n      jumpi\n        /* \"contracts/BadSammyNFTStore.sol\":4924:4939  uint256 tokenId */\n      0x00\n        /* \"contracts/BadSammyNFTStore.sol\":4942:4959  _nextToken(t.nft) */\n      tag_159\n        /* \"contracts/BadSammyNFTStore.sol\":4953:4954  t */\n      dup5\n        /* \"contracts/BadSammyNFTStore.sol\":4953:4958  t.nft */\n      0x00\n      add\n      mload\n        /* \"contracts/BadSammyNFTStore.sol\":4942:4952  _nextToken */\n      tag_133\n        /* \"contracts/BadSammyNFTStore.sol\":4942:4959  _nextToken(t.nft) */\n      jump\t// in\n    tag_159:\n        /* \"contracts/BadSammyNFTStore.sol\":4924:4959  uint256 tokenId = _nextToken(t.nft) */\n      swap1\n      pop\n        /* \"contracts/BadSammyNFTStore.sol\":4981:4982  t */\n      dup4\n        /* \"contracts/BadSammyNFTStore.sol\":4981:4986  t.nft */\n      0x00\n      add\n      mload\n        /* \"contracts/BadSammyNFTStore.sol\":4973:5004  IERC721(t.nft).safeTransferFrom */\n      0xffffffffffffffffffffffffffffffffffffffff\n      and\n      0x42842e0e\n        /* \"contracts/BadSammyNFTStore.sol\":5013:5017  this */\n      address\n        /* \"contracts/BadSammyNFTStore.sol\":5020:5030  msg.sender */\n      caller\n        /* \"contracts/BadSammyNFTStore.sol\":5032:5039  tokenId */\n      dup5\n        /* \"contracts/BadSammyNFTStore.sol\":4973:5040  IERC721(t.nft).safeTransferFrom(address(this), msg.sender, tokenId) */\n      mload(0x40)\n      dup5\n      0xffffffff\n      and\n      0xe0\n      shl\n      dup2\n      mstore\n      0x04\n      add\n      tag_160\n      swap4\n      swap3\n      swap2\n      swap1\n      tag_135\n      jump\t// in\n    tag_160:\n      0x00\n      mload(0x40)\n      dup1\n      dup4\n      sub\n      dup2\n      0x00\n      dup8\n      dup1\n      extcodesize\n      iszero\n      dup1\n      iszero\n      tag_161\n      jumpi\n      revert(0x00, 0x00)\n    tag_161:\n      pop\n      gas\n      call\n      iszero\n      dup1\n      iszero\n      tag_163\n      jumpi\n      returndatacopy(0x00, 0x00, returndatasize)\n      revert(0x00, returndatasize)\n    tag_163:\n      pop\n      pop\n      pop\n      pop\n        /* \"contracts/BadSammyNFTStore.sol\":4910:5051  {... */\n      pop\n        /* \"contracts/BadSammyNFTStore.sol\":4905:4908  i++ */\n      dup1\n      dup1\n      0x01\n      add\n      swap2\n      pop\n      pop\n        /* \"contracts/BadSammyNFTStore.sol\":4871:5051  for (uint256 i = 0; i < quantity; i++) {... */\n      jump(tag_156)\n    tag_157:\n      pop\n        /* \"contracts/BadSammyNFTStore.sol\":4551:5057  {... */\n      pop\n      pop\n        /* \"@openzeppelin/contracts/security/ReentrancyGuard.sol\":2303:2323  _nonReentrantAfter() */\n      tag_164\n        /* \"@openzeppelin/contracts/security/ReentrancyGuard.sol\":2303:2321  _nonReentrantAfter */\n      tag_140\n        /* \"@openzeppelin/contracts/security/ReentrancyGuard.sol\":2303:2323  _nonReentrantAfter() */\n      jump\t// in\n    tag_164:\n        /* \"contracts/BadSammyNFTStore.sol\":4476:5057  function buyWithUSDC(uint256 tierId, uint256 quantity) public nonReentrant {... */\n      pop\n      pop\n      jump\t// out\n        /* \"contracts/BadSammyNFTStore.sol\":8663:9143  function withdrawAll(uint256 tierId, address to) external onlyOwner {... */\n    tag_52:\n        /* \"@openzeppelin/contracts/access/Ownable.sol\":1531:1544  _checkOwner() */\n      tag_166\n        /* \"@openzeppelin/contracts/access/Ownable.sol\":1531:1542  _checkOwner */\n      tag_167\n        /* \"@openzeppelin/contracts/access/Ownable.sol\":1531:1544  _checkOwner() */\n      jump\t// in\n    tag_166:\n        /* \"contracts/BadSammyNFTStore.sol\":8741:8754  Tier memory t */\n      0x00\n        /* \"contracts/BadSammyNFTStore.sol\":8757:8762  tiers */\n      0x02\n        /* \"contracts/BadSammyNFTStore.sol\":8757:8770  tiers[tierId] */\n      0x00\n        /* \"contracts/BadSammyNFTStore.sol\":8763:8769  tierId */\n      dup5\n        /* \"contracts/BadSammyNFTStore.sol\":8757:8770  tiers[tierId] */\n      dup2\n      mstore\n      0x20\n      add\n      swap1\n      dup2\n      mstore\n      0x20\n      add\n      0x00\n      keccak256\n        /* \"contracts/BadSammyNFTStore.sol\":8741:8770  Tier memory t = tiers[tierId] */\n      mload(0x40)\n      dup1\n      0x60\n      add\n      0x40\n      mstore\n      swap1\n      dup2\n      0x00\n      dup3\n      add\n      0x00\n      swap1\n      sload\n      swap1\n      0x0100\n      exp\n      swap1\n      div\n      0xffffffffffffffffffffffffffffffffffffffff\n      and\n      0xffffffffffffffffffffffffffffffffffffffff\n      and\n      0xffffffffffffffffffffffffffffffffffffffff\n      and\n      dup2\n      mstore\n      0x20\n      add\n      0x01\n      dup3\n      add\n      sload\n      dup2\n      mstore\n      0x20\n      add\n      0x02\n      dup3\n      add\n      0x00\n      swap1\n      sload\n      swap1\n      0x0100\n      exp\n      swap1\n      div\n      0xff\n      and\n      iszero\n      iszero\n      iszero\n      iszero\n      dup2\n      mstore\n      pop\n      pop\n      swap1\n      pop\n        /* \"contracts/BadSammyNFTStore.sol\":8801:8802  0 */\n      0x00\n        /* \"contracts/BadSammyNFTStore.sol\":8784:8803  t.nft == address(0) */\n      0xffffffffffffffffffffffffffffffffffffffff\n      and\n        /* \"contracts/BadSammyNFTStore.sol\":8784:8785  t */\n      dup2\n        /* \"contracts/BadSammyNFTStore.sol\":8784:8789  t.nft */\n      0x00\n      add\n      mload\n        /* \"contracts/BadSammyNFTStore.sol\":8784:8803  t.nft == address(0) */\n      0xffffffffffffffffffffffffffffffffffffffff\n      and\n      sub\n        /* \"contracts/BadSammyNFTStore.sol\":8780:8825  if (t.nft == address(0)) revert InvalidTier() */\n      tag_169\n      jumpi\n        /* \"contracts/BadSammyNFTStore.sol\":8812:8825  InvalidTier() */\n      mload(0x40)\n      0xe142361700000000000000000000000000000000000000000000000000000000\n      dup2\n      mstore\n      0x04\n      add\n      mload(0x40)\n      dup1\n      swap2\n      sub\n      swap1\n      revert\n        /* \"contracts/BadSammyNFTStore.sol\":8780:8825  if (t.nft == address(0)) revert InvalidTier() */\n    tag_169:\n        /* \"contracts/BadSammyNFTStore.sol\":8836:8857  IERC721Enumerable nft */\n      0x00\n        /* \"contracts/BadSammyNFTStore.sol\":8878:8879  t */\n      dup2\n        /* \"contracts/BadSammyNFTStore.sol\":8878:8883  t.nft */\n      0x00\n      add\n      mload\n        /* \"contracts/BadSammyNFTStore.sol\":8836:8884  IERC721Enumerable nft = IERC721Enumerable(t.nft) */\n      swap1\n      pop\n        /* \"contracts/BadSammyNFTStore.sol\":8894:8905  uint256 bal */\n      0x00\n        /* \"contracts/BadSammyNFTStore.sol\":8908:8911  nft */\n      dup2\n        /* \"contracts/BadSammyNFTStore.sol\":8908:8921  nft.balanceOf */\n      0xffffffffffffffffffffffffffffffffffffffff\n      and\n      0x70a08231\n        /* \"contracts/BadSammyNFTStore.sol\":8930:8934  this */\n      address\n        /* \"contracts/BadSammyNFTStore.sol\":8908:8936  nft.balanceOf(address(this)) */\n      mload(0x40)\n      dup3\n      0xffffffff\n      and\n      0xe0\n      shl\n      dup2\n      mstore\n      0x04\n      add\n      tag_170\n      swap2\n      swap1\n      tag_75\n      jump\t// in\n    tag_170:\n      0x20\n      mload(0x40)\n      dup1\n      dup4\n      sub\n      dup2\n      dup7\n      gas\n      staticcall\n      iszero\n      dup1\n      iszero\n      tag_172\n      jumpi\n      returndatacopy(0x00, 0x00, returndatasize)\n      revert(0x00, returndatasize)\n    tag_172:\n      pop\n      pop\n      pop\n      pop\n      mload(0x40)\n      returndatasize\n      not(0x1f)\n      0x1f\n      dup3\n      add\n      and\n      dup3\n      add\n      dup1\n      0x40\n      mstore\n      pop\n      dup2\n      add\n      swap1\n      tag_173\n      swap2\n      swap1\n      tag_174\n      jump\t// in\n    tag_173:\n        /* \"contracts/BadSammyNFTStore.sol\":8894:8936  uint256 bal = nft.balanceOf(address(this)) */\n      swap1\n      pop\n        /* \"contracts/BadSammyNFTStore.sol\":8951:8960  uint256 i */\n      0x00\n        /* \"contracts/BadSammyNFTStore.sol\":8963:8964  0 */\n      0x00\n        /* \"contracts/BadSammyNFTStore.sol\":8951:8964  uint256 i = 0 */\n      swap1\n      pop\n        /* \"contracts/BadSammyNFTStore.sol\":8946:9137  for (uint256 i = 0; i < bal; i++) {... */\n    tag_175:\n        /* \"contracts/BadSammyNFTStore.sol\":8970:8973  bal */\n      dup2\n        /* \"contracts/BadSammyNFTStore.sol\":8966:8967  i */\n      dup2\n        /* \"contracts/BadSammyNFTStore.sol\":8966:8973  i < bal */\n      lt\n        /* \"contracts/BadSammyNFTStore.sol\":8946:9137  for (uint256 i = 0; i < bal; i++) {... */\n      iszero\n      tag_176\n      jumpi\n        /* \"contracts/BadSammyNFTStore.sol\":8994:9009  uint256 tokenId */\n      0x00\n        /* \"contracts/BadSammyNFTStore.sol\":9012:9015  nft */\n      dup4\n        /* \"contracts/BadSammyNFTStore.sol\":9012:9035  nft.tokenOfOwnerByIndex */\n      0xffffffffffffffffffffffffffffffffffffffff\n      and\n      0x2f745c59\n        /* \"contracts/BadSammyNFTStore.sol\":9044:9048  this */\n      address\n        /* \"contracts/BadSammyNFTStore.sol\":9051:9052  0 */\n      0x00\n        /* \"contracts/BadSammyNFTStore.sol\":9012:9053  nft.tokenOfOwnerByIndex(address(this), 0) */\n      mload(0x40)\n      dup4\n      0xffffffff\n      and\n      0xe0\n      shl\n      dup2\n      mstore\n      0x04\n      add\n      tag_178\n      swap3\n      swap2\n      swap1\n      tag_179\n      jump\t// in\n    tag_178:\n      0x20\n      mload(0x40)\n      dup1\n      dup4\n      sub\n      dup2\n      dup7\n      gas\n      staticcall\n      iszero\n      dup1\n      iszero\n      tag_181\n      jumpi\n      returndatacopy(0x00, 0x00, returndatasize)\n      revert(0x00, returndatasize)\n    tag_181:\n      pop\n      pop\n      pop\n      pop\n      mload(0x40)\n      returndatasize\n      not(0x1f)\n      0x1f\n      dup3\n      add\n      and\n      dup3\n      add\n      dup1\n      0x40\n      mstore\n      pop\n      dup2\n      add\n      swap1\n      tag_182\n      swap2\n      swap1\n      tag_174\n      jump\t// in\n    tag_182:\n        /* \"contracts/BadSammyNFTStore.sol\":8994:9053  uint256 tokenId = nft.tokenOfOwnerByIndex(address(this), 0) */\n      swap1\n      pop\n        /* \"contracts/BadSammyNFTStore.sol\":9075:9076  t */\n      dup5\n        /* \"contracts/BadSammyNFTStore.sol\":9075:9080  t.nft */\n      0x00\n      add\n      mload\n        /* \"contracts/BadSammyNFTStore.sol\":9067:9098  IERC721(t.nft).safeTransferFrom */\n      0xffffffffffffffffffffffffffffffffffffffff\n      and\n      0x42842e0e\n        /* \"contracts/BadSammyNFTStore.sol\":9107:9111  this */\n      address\n        /* \"contracts/BadSammyNFTStore.sol\":9114:9116  to */\n      dup9\n        /* \"contracts/BadSammyNFTStore.sol\":9118:9125  tokenId */\n      dup5\n        /* \"contracts/BadSammyNFTStore.sol\":9067:9126  IERC721(t.nft).safeTransferFrom(address(this), to, tokenId) */\n      mload(0x40)\n      dup5\n      0xffffffff\n      and\n      0xe0\n      shl\n      dup2\n      mstore\n      0x04\n      add\n      tag_183\n      swap4\n      swap3\n      swap2\n      swap1\n      tag_135\n      jump\t// in\n    tag_183:\n      0x00\n      mload(0x40)\n      dup1\n      dup4\n      sub\n      dup2\n      0x00\n      dup8\n      dup1\n      extcodesize\n      iszero\n      dup1\n      iszero\n      tag_184\n      jumpi\n      revert(0x00, 0x00)\n    tag_184:\n      pop\n      gas\n      call\n      iszero\n      dup1\n      iszero\n      tag_186\n      jumpi\n      returndatacopy(0x00, 0x00, returndatasize)\n      revert(0x00, returndatasize)\n    tag_186:\n      pop\n      pop\n      pop\n      pop\n        /* \"contracts/BadSammyNFTStore.sol\":8980:9137  {... */\n      pop\n        /* \"contracts/BadSammyNFTStore.sol\":8975:8978  i++ */\n      dup1\n      dup1\n      0x01\n      add\n      swap2\n      pop\n      pop\n        /* \"contracts/BadSammyNFTStore.sol\":8946:9137  for (uint256 i = 0; i < bal; i++) {... */\n      jump(tag_175)\n    tag_176:\n      pop\n        /* \"contracts/BadSammyNFTStore.sol\":8731:9143  {... */\n      pop\n      pop\n      pop\n        /* \"contracts/BadSammyNFTStore.sol\":8663:9143  function withdrawAll(uint256 tierId, address to) external onlyOwner {... */\n      pop\n      pop\n      jump\t// out\n        /* \"contracts/BadSammyNFTStore.sol\":7667:7843  function sweepERC20(address token, address to) external onlyOwner {... */\n    tag_57:\n        /* \"@openzeppelin/contracts/access/Ownable.sol\":1531:1544  _checkOwner() */\n      tag_188\n        /* \"@openzeppelin/contracts/access/Ownable.sol\":1531:1542  _checkOwner */\n      tag_167\n        /* \"@openzeppelin/contracts/access/Ownable.sol\":1531:1544  _checkOwner() */\n      jump\t// in\n    tag_188:\n        /* \"contracts/BadSammyNFTStore.sol\":7743:7754  uint256 bal */\n      0x00\n        /* \"contracts/BadSammyNFTStore.sol\":7764:7769  token */\n      dup3\n        /* \"contracts/BadSammyNFTStore.sol\":7757:7780  IERC20(token).balanceOf */\n      0xffffffffffffffffffffffffffffffffffffffff\n      and\n      0x70a08231\n        /* \"contracts/BadSammyNFTStore.sol\":7789:7793  this */\n      address\n        /* \"contracts/BadSammyNFTStore.sol\":7757:7795  IERC20(token).balanceOf(address(this)) */\n      mload(0x40)\n      dup3\n      0xffffffff\n      and\n      0xe0\n      shl\n      dup2\n      mstore\n      0x04\n      add\n      tag_190\n      swap2\n      swap1\n      tag_75\n      jump\t// in\n    tag_190:\n      0x20\n      mload(0x40)\n      dup1\n      dup4\n      sub\n      dup2\n      dup7\n      gas\n      staticcall\n      iszero\n      dup1\n      iszero\n      tag_192\n      jumpi\n      returndatacopy(0x00, 0x00, returndatasize)\n      revert(0x00, returndatasize)\n    tag_192:\n      pop\n      pop\n      pop\n      pop\n      mload(0x40)\n      returndatasize\n      not(0x1f)\n      0x1f\n      dup3\n      add\n      and\n      dup3\n      add\n      dup1\n      0x40\n      mstore\n      pop\n      dup2\n      add\n      swap1\n      tag_193\n      swap2\n      swap1\n      tag_174\n      jump\t// in\n    tag_193:\n        /* \"contracts/BadSammyNFTStore.sol\":7743:7795  uint256 bal = IERC20(token).balanceOf(address(this)) */\n      swap1\n      pop\n        /* \"contracts/BadSammyNFTStore.sol\":7812:7817  token */\n      dup3\n        /* \"contracts/BadSammyNFTStore.sol\":7805:7827  IERC20(token).transfer */\n      0xffffffffffffffffffffffffffffffffffffffff\n      and\n      0xa9059cbb\n        /* \"contracts/BadSammyNFTStore.sol\":7828:7830  to */\n      dup4\n        /* \"contracts/BadSammyNFTStore.sol\":7832:7835  bal */\n      dup4\n        /* \"contracts/BadSammyNFTStore.sol\":7805:7836  IERC20(token).transfer(to, bal) */\n      mload(0x40)\n      dup4\n      0xffffffff\n      and\n      0xe0\n      shl\n      dup2\n      mstore\n      0x04\n      add\n      tag_194\n      swap3\n      swap2\n      swap1\n      tag_195\n      jump\t// in\n    tag_194:\n      0x20\n      mload(0x40)\n      dup1\n      dup4\n      sub\n      dup2\n      0x00\n      dup8\n      gas\n      call\n      iszero\n      dup1\n      iszero\n      tag_197\n      jumpi\n      returndatacopy(0x00, 0x00, returndatasize)\n      revert(0x00, returndatasize)\n    tag_197:\n      pop\n      pop\n      pop\n      pop\n      mload(0x40)\n      returndatasize\n      not(0x1f)\n      0x1f\n      dup3\n      add\n      and\n      dup3\n      add\n      dup1\n      0x40\n      mstore\n      pop\n      dup2\n      add\n      swap1\n      tag_198\n      swap2\n      swap1\n      tag_127\n      jump\t// in\n    tag_198:\n      pop\n        /* \"contracts/BadSammyNFTStore.sol\":7733:7843  {... */\n      pop\n        /* \"contracts/BadSammyNFTStore.sol\":7667:7843  function sweepERC20(address token, address to) external onlyOwner {... */\n      pop\n      pop\n      jump\t// out\n        /* \"contracts/BadSammyNFTStore.sol\":1259:1290  address payable public treasury */\n    tag_60:\n      0x03\n      0x00\n      swap1\n      sload\n      swap1\n      0x0100\n      exp\n      swap1\n      div\n      0xffffffffffffffffffffffffffffffffffffffff\n      and\n      dup2\n      jump\t// out\n        /* \"contracts/BadSammyNFTStore.sol\":9184:9303  function renounceOwnership() public view override onlyOwner {... */\n    tag_65:\n        /* \"@openzeppelin/contracts/access/Ownable.sol\":1531:1544  _checkOwner() */\n      tag_200\n        /* \"@openzeppelin/contracts/access/Ownable.sol\":1531:1542  _checkOwner */\n      tag_167\n        /* \"@openzeppelin/contracts/access/Ownable.sol\":1531:1544  _checkOwner() */\n      jump\t// in\n    tag_200:\n        /* \"contracts/BadSammyNFTStore.sol\":9254:9296  revert(\"Renouncing ownership is disabled\") */\n      mload(0x40)\n      0x08c379a000000000000000000000000000000000000000000000000000000000\n      dup2\n      mstore\n      0x04\n      add\n      tag_202\n      swap1\n      tag_203\n      jump\t// in\n    tag_202:\n      mload(0x40)\n      dup1\n      swap2\n      sub\n      swap1\n      revert\n        /* \"contracts/BadSammyNFTStore.sol\":1323:1341  IERC20 public USDC */\n    tag_68:\n      0x04\n      0x00\n      swap1\n      sload\n      swap1\n      0x0100\n      exp\n      swap1\n      div\n      0xffffffffffffffffffffffffffffffffffffffff\n      and\n      dup2\n      jump\t// out\n        /* \"@openzeppelin/contracts/access/Ownable.sol\":1638:1723  function owner() public view virtual returns (address) {... */\n    tag_73:\n        /* \"@openzeppelin/contracts/access/Ownable.sol\":1684:1691  address */\n      0x00\n        /* \"@openzeppelin/contracts/access/Ownable.sol\":1710:1716  _owner */\n      0x01\n      0x00\n      swap1\n      sload\n      swap1\n      0x0100\n      exp\n      swap1\n      div\n      0xffffffffffffffffffffffffffffffffffffffff\n      and\n        /* \"@openzeppelin/contracts/access/Ownable.sol\":1703:1716  return _owner */\n      swap1\n      pop\n        /* \"@openzeppelin/contracts/access/Ownable.sol\":1638:1723  function owner() public view virtual returns (address) {... */\n      swap1\n      jump\t// out\n        /* \"contracts/BadSammyNFTStore.sol\":2578:2873  function setTier(... */\n    tag_80:\n        /* \"@openzeppelin/contracts/access/Ownable.sol\":1531:1544  _checkOwner() */\n      tag_206\n        /* \"@openzeppelin/contracts/access/Ownable.sol\":1531:1542  _checkOwner */\n      tag_167\n        /* \"@openzeppelin/contracts/access/Ownable.sol\":1531:1544  _checkOwner() */\n      jump\t// in\n    tag_206:\n        /* \"contracts/BadSammyNFTStore.sol\":2752:2866  Tier({... */\n      mload(0x40)\n      dup1\n      0x60\n      add\n      0x40\n      mstore\n      dup1\n        /* \"contracts/BadSammyNFTStore.sol\":2776:2786  nftAddress */\n      dup5\n        /* \"contracts/BadSammyNFTStore.sol\":2752:2866  Tier({... */\n      0xffffffffffffffffffffffffffffffffffffffff\n      and\n      dup2\n      mstore\n      0x20\n      add\n        /* \"contracts/BadSammyNFTStore.sol\":2811:2825  priceUsdcUnits */\n      dup4\n        /* \"contracts/BadSammyNFTStore.sol\":2752:2866  Tier({... */\n      dup2\n      mstore\n      0x20\n      add\n        /* \"contracts/BadSammyNFTStore.sol\":2848:2855  enabled */\n      dup3\n        /* \"contracts/BadSammyNFTStore.sol\":2752:2866  Tier({... */\n      iszero\n      iszero\n      dup2\n      mstore\n      pop\n        /* \"contracts/BadSammyNFTStore.sol\":2736:2741  tiers */\n      0x02\n        /* \"contracts/BadSammyNFTStore.sol\":2736:2749  tiers[tierId] */\n      0x00\n        /* \"contracts/BadSammyNFTStore.sol\":2742:2748  tierId */\n      dup7\n        /* \"contracts/BadSammyNFTStore.sol\":2736:2749  tiers[tierId] */\n      dup2\n      mstore\n      0x20\n      add\n      swap1\n      dup2\n      mstore\n      0x20\n      add\n      0x00\n      keccak256\n        /* \"contracts/BadSammyNFTStore.sol\":2736:2866  tiers[tierId] = Tier({... */\n      0x00\n      dup3\n      add\n      mload\n      dup2\n      0x00\n      add\n      exp(0x0100, 0x00)\n      dup2\n      sload\n      dup2\n      0xffffffffffffffffffffffffffffffffffffffff\n      mul\n      not\n      and\n      swap1\n      dup4\n      0xffffffffffffffffffffffffffffffffffffffff\n      and\n      mul\n      or\n      swap1\n      sstore\n      pop\n      0x20\n      dup3\n      add\n      mload\n      dup2\n      0x01\n      add\n      sstore\n      0x40\n      dup3\n      add\n      mload\n      dup2\n      0x02\n      add\n      exp(0x0100, 0x00)\n      dup2\n      sload\n      dup2\n      0xff\n      mul\n      not\n      and\n      swap1\n      dup4\n      iszero\n      iszero\n      mul\n      or\n      swap1\n      sstore\n      pop\n      swap1\n      pop\n      pop\n        /* \"contracts/BadSammyNFTStore.sol\":2578:2873  function setTier(... */\n      pop\n      pop\n      pop\n      pop\n      jump\t// out\n        /* \"contracts/BadSammyNFTStore.sol\":7849:8105  function withdrawNFT(uint256 tierId, uint256 tokenId, address to) external onlyOwner {... */\n    tag_85:\n        /* \"@openzeppelin/contracts/access/Ownable.sol\":1531:1544  _checkOwner() */\n      tag_209\n        /* \"@openzeppelin/contracts/access/Ownable.sol\":1531:1542  _checkOwner */\n      tag_167\n        /* \"@openzeppelin/contracts/access/Ownable.sol\":1531:1544  _checkOwner() */\n      jump\t// in\n    tag_209:\n        /* \"contracts/BadSammyNFTStore.sol\":7944:7957  Tier memory t */\n      0x00\n        /* \"contracts/BadSammyNFTStore.sol\":7960:7965  tiers */\n      0x02\n        /* \"contracts/BadSammyNFTStore.sol\":7960:7973  tiers[tierId] */\n      0x00\n        /* \"contracts/BadSammyNFTStore.sol\":7966:7972  tierId */\n      dup6\n        /* \"contracts/BadSammyNFTStore.sol\":7960:7973  tiers[tierId] */\n      dup2\n      mstore\n      0x20\n      add\n      swap1\n      dup2\n      mstore\n      0x20\n      add\n      0x00\n      keccak256\n        /* \"contracts/BadSammyNFTStore.sol\":7944:7973  Tier memory t = tiers[tierId] */\n      mload(0x40)\n      dup1\n      0x60\n      add\n      0x40\n      mstore\n      swap1\n      dup2\n      0x00\n      dup3\n      add\n      0x00\n      swap1\n      sload\n      swap1\n      0x0100\n      exp\n      swap1\n      div\n      0xffffffffffffffffffffffffffffffffffffffff\n      and\n      0xffffffffffffffffffffffffffffffffffffffff\n      and\n      0xffffffffffffffffffffffffffffffffffffffff\n      and\n      dup2\n      mstore\n      0x20\n      add\n      0x01\n      dup3\n      add\n      sload\n      dup2\n      mstore\n      0x20\n      add\n      0x02\n      dup3\n      add\n      0x00\n      swap1\n      sload\n      swap1\n      0x0100\n      exp\n      swap1\n      div\n      0xff\n      and\n      iszero\n      iszero\n      iszero\n      iszero\n      dup2\n      mstore\n      pop\n      pop\n      swap1\n      pop\n        /* \"contracts/BadSammyNFTStore.sol\":8004:8005  0 */\n      0x00\n        /* \"contracts/BadSammyNFTStore.sol\":7987:8006  t.nft == address(0) */\n      0xffffffffffffffffffffffffffffffffffffffff\n      and\n        /* \"contracts/BadSammyNFTStore.sol\":7987:7988  t */\n      dup2\n        /* \"contracts/BadSammyNFTStore.sol\":7987:7992  t.nft */\n      0x00\n      add\n      mload\n        /* \"contracts/BadSammyNFTStore.sol\":7987:8006  t.nft == address(0) */\n      0xffffffffffffffffffffffffffffffffffffffff\n      and\n      sub\n        /* \"contracts/BadSammyNFTStore.sol\":7983:8028  if (t.nft == address(0)) revert InvalidTier() */\n      tag_211\n      jumpi\n        /* \"contracts/BadSammyNFTStore.sol\":8015:8028  InvalidTier() */\n      mload(0x40)\n      0xe142361700000000000000000000000000000000000000000000000000000000\n      dup2\n      mstore\n      0x04\n      add\n      mload(0x40)\n      dup1\n      swap2\n      sub\n      swap1\n      revert\n        /* \"contracts/BadSammyNFTStore.sol\":7983:8028  if (t.nft == address(0)) revert InvalidTier() */\n    tag_211:\n        /* \"contracts/BadSammyNFTStore.sol\":8047:8048  t */\n      dup1\n        /* \"contracts/BadSammyNFTStore.sol\":8047:8052  t.nft */\n      0x00\n      add\n      mload\n        /* \"contracts/BadSammyNFTStore.sol\":8039:8070  IERC721(t.nft).safeTransferFrom */\n      0xffffffffffffffffffffffffffffffffffffffff\n      and\n      0x42842e0e\n        /* \"contracts/BadSammyNFTStore.sol\":8079:8083  this */\n      address\n        /* \"contracts/BadSammyNFTStore.sol\":8086:8088  to */\n      dup5\n        /* \"contracts/BadSammyNFTStore.sol\":8090:8097  tokenId */\n      dup7\n        /* \"contracts/BadSammyNFTStore.sol\":8039:8098  IERC721(t.nft).safeTransferFrom(address(this), to, tokenId) */\n      mload(0x40)\n      dup5\n      0xffffffff\n      and\n      0xe0\n      shl\n      dup2\n      mstore\n      0x04\n      add\n      tag_212\n      swap4\n      swap3\n      swap2\n      swap1\n      tag_135\n      jump\t// in\n    tag_212:\n      0x00\n      mload(0x40)\n      dup1\n      dup4\n      sub\n      dup2\n      0x00\n      dup8\n      dup1\n      extcodesize\n      iszero\n      dup1\n      iszero\n      tag_213\n      jumpi\n      revert(0x00, 0x00)\n    tag_213:\n      pop\n      gas\n      call\n      iszero\n      dup1\n      iszero\n      tag_215\n      jumpi\n      returndatacopy(0x00, 0x00, returndatasize)\n      revert(0x00, returndatasize)\n    tag_215:\n      pop\n      pop\n      pop\n      pop\n        /* \"contracts/BadSammyNFTStore.sol\":7934:8105  {... */\n      pop\n        /* \"contracts/BadSammyNFTStore.sol\":7849:8105  function withdrawNFT(uint256 tierId, uint256 tokenId, address to) external onlyOwner {... */\n      pop\n      pop\n      pop\n      jump\t// out\n        /* \"contracts/BadSammyNFTStore.sol\":4222:4470  function setUSDC(... */\n    tag_90:\n        /* \"@openzeppelin/contracts/access/Ownable.sol\":1531:1544  _checkOwner() */\n      tag_217\n        /* \"@openzeppelin/contracts/access/Ownable.sol\":1531:1542  _checkOwner */\n      tag_167\n        /* \"@openzeppelin/contracts/access/Ownable.sol\":1531:1544  _checkOwner() */\n      jump\t// in\n    tag_217:\n        /* \"contracts/BadSammyNFTStore.sol\":4324:4325  0 */\n      0x00\n        /* \"contracts/BadSammyNFTStore.sol\":4304:4326  _newUSDC == address(0) */\n      0xffffffffffffffffffffffffffffffffffffffff\n      and\n        /* \"contracts/BadSammyNFTStore.sol\":4304:4312  _newUSDC */\n      dup2\n        /* \"contracts/BadSammyNFTStore.sol\":4304:4326  _newUSDC == address(0) */\n      0xffffffffffffffffffffffffffffffffffffffff\n      and\n      sub\n        /* \"contracts/BadSammyNFTStore.sol\":4300:4373  if (_newUSDC == address(0)) {... */\n      tag_219\n      jumpi\n        /* \"contracts/BadSammyNFTStore.sol\":4349:4362  ZeroAddress() */\n      mload(0x40)\n      0xd92e233d00000000000000000000000000000000000000000000000000000000\n      dup2\n      mstore\n      0x04\n      add\n      mload(0x40)\n      dup1\n      swap2\n      sub\n      swap1\n      revert\n        /* \"contracts/BadSammyNFTStore.sol\":4300:4373  if (_newUSDC == address(0)) {... */\n    tag_219:\n        /* \"contracts/BadSammyNFTStore.sol\":4420:4428  _newUSDC */\n      dup1\n        /* \"contracts/BadSammyNFTStore.sol\":4388:4429  UsdcTokenUpdated(address(USDC), _newUSDC) */\n      0xffffffffffffffffffffffffffffffffffffffff\n      and\n        /* \"contracts/BadSammyNFTStore.sol\":4413:4417  USDC */\n      0x04\n      0x00\n      swap1\n      sload\n      swap1\n      0x0100\n      exp\n      swap1\n      div\n      0xffffffffffffffffffffffffffffffffffffffff\n      and\n        /* \"contracts/BadSammyNFTStore.sol\":4388:4429  UsdcTokenUpdated(address(USDC), _newUSDC) */\n      0xffffffffffffffffffffffffffffffffffffffff\n      and\n      0x64a623534f7a0e0a6e3f51d4899bb03ec91aed8bddc911128789b05acea7334c\n      mload(0x40)\n      mload(0x40)\n      dup1\n      swap2\n      sub\n      swap1\n      log3\n        /* \"contracts/BadSammyNFTStore.sol\":4454:4462  _newUSDC */\n      dup1\n        /* \"contracts/BadSammyNFTStore.sol\":4440:4444  USDC */\n      0x04\n      0x00\n        /* \"contracts/BadSammyNFTStore.sol\":4440:4463  USDC = IERC20(_newUSDC) */\n      0x0100\n      exp\n      dup2\n      sload\n      dup2\n      0xffffffffffffffffffffffffffffffffffffffff\n      mul\n      not\n      and\n      swap1\n      dup4\n      0xffffffffffffffffffffffffffffffffffffffff\n      and\n      mul\n      or\n      swap1\n      sstore\n      pop\n        /* \"contracts/BadSammyNFTStore.sol\":4222:4470  function setUSDC(... */\n      pop\n      jump\t// out\n        /* \"contracts/BadSammyNFTStore.sol\":8111:8657  function withdrawN(uint256 tierId, uint256 quantity, address to) external onlyOwner {... */\n    tag_94:\n        /* \"@openzeppelin/contracts/access/Ownable.sol\":1531:1544  _checkOwner() */\n      tag_221\n        /* \"@openzeppelin/contracts/access/Ownable.sol\":1531:1542  _checkOwner */\n      tag_167\n        /* \"@openzeppelin/contracts/access/Ownable.sol\":1531:1544  _checkOwner() */\n      jump\t// in\n    tag_221:\n        /* \"contracts/BadSammyNFTStore.sol\":8205:8218  Tier memory t */\n      0x00\n        /* \"contracts/BadSammyNFTStore.sol\":8221:8226  tiers */\n      0x02\n        /* \"contracts/BadSammyNFTStore.sol\":8221:8234  tiers[tierId] */\n      0x00\n        /* \"contracts/BadSammyNFTStore.sol\":8227:8233  tierId */\n      dup6\n        /* \"contracts/BadSammyNFTStore.sol\":8221:8234  tiers[tierId] */\n      dup2\n      mstore\n      0x20\n      add\n      swap1\n      dup2\n      mstore\n      0x20\n      add\n      0x00\n      keccak256\n        /* \"contracts/BadSammyNFTStore.sol\":8205:8234  Tier memory t = tiers[tierId] */\n      mload(0x40)\n      dup1\n      0x60\n      add\n      0x40\n      mstore\n      swap1\n      dup2\n      0x00\n      dup3\n      add\n      0x00\n      swap1\n      sload\n      swap1\n      0x0100\n      exp\n      swap1\n      div\n      0xffffffffffffffffffffffffffffffffffffffff\n      and\n      0xffffffffffffffffffffffffffffffffffffffff\n      and\n      0xffffffffffffffffffffffffffffffffffffffff\n      and\n      dup2\n      mstore\n      0x20\n      add\n      0x01\n      dup3\n      add\n      sload\n      dup2\n      mstore\n      0x20\n      add\n      0x02\n      dup3\n      add\n      0x00\n      swap1\n      sload\n      swap1\n      0x0100\n      exp\n      swap1\n      div\n      0xff\n      and\n      iszero\n      iszero\n      iszero\n      iszero\n      dup2\n      mstore\n      pop\n      pop\n      swap1\n      pop\n        /* \"contracts/BadSammyNFTStore.sol\":8265:8266  0 */\n      0x00\n        /* \"contracts/BadSammyNFTStore.sol\":8248:8267  t.nft == address(0) */\n      0xffffffffffffffffffffffffffffffffffffffff\n      and\n        /* \"contracts/BadSammyNFTStore.sol\":8248:8249  t */\n      dup2\n        /* \"contracts/BadSammyNFTStore.sol\":8248:8253  t.nft */\n      0x00\n      add\n      mload\n        /* \"contracts/BadSammyNFTStore.sol\":8248:8267  t.nft == address(0) */\n      0xffffffffffffffffffffffffffffffffffffffff\n      and\n      sub\n        /* \"contracts/BadSammyNFTStore.sol\":8244:8289  if (t.nft == address(0)) revert InvalidTier() */\n      tag_223\n      jumpi\n        /* \"contracts/BadSammyNFTStore.sol\":8276:8289  InvalidTier() */\n      mload(0x40)\n      0xe142361700000000000000000000000000000000000000000000000000000000\n      dup2\n      mstore\n      0x04\n      add\n      mload(0x40)\n      dup1\n      swap2\n      sub\n      swap1\n      revert\n        /* \"contracts/BadSammyNFTStore.sol\":8244:8289  if (t.nft == address(0)) revert InvalidTier() */\n    tag_223:\n        /* \"contracts/BadSammyNFTStore.sol\":8300:8321  IERC721Enumerable nft */\n      0x00\n        /* \"contracts/BadSammyNFTStore.sol\":8342:8343  t */\n      dup2\n        /* \"contracts/BadSammyNFTStore.sol\":8342:8347  t.nft */\n      0x00\n      add\n      mload\n        /* \"contracts/BadSammyNFTStore.sol\":8300:8348  IERC721Enumerable nft = IERC721Enumerable(t.nft) */\n      swap1\n      pop\n        /* \"contracts/BadSammyNFTStore.sol\":8358:8369  uint256 bal */\n      0x00\n        /* \"contracts/BadSammyNFTStore.sol\":8372:8375  nft */\n      dup2\n        /* \"contracts/BadSammyNFTStore.sol\":8372:8385  nft.balanceOf */\n      0xffffffffffffffffffffffffffffffffffffffff\n      and\n      0x70a08231\n        /* \"contracts/BadSammyNFTStore.sol\":8394:8398  this */\n      address\n        /* \"contracts/BadSammyNFTStore.sol\":8372:8400  nft.balanceOf(address(this)) */\n      mload(0x40)\n      dup3\n      0xffffffff\n      and\n      0xe0\n      shl\n      dup2\n      mstore\n      0x04\n      add\n      tag_224\n      swap2\n      swap1\n      tag_75\n      jump\t// in\n    tag_224:\n      0x20\n      mload(0x40)\n      dup1\n      dup4\n      sub\n      dup2\n      dup7\n      gas\n      staticcall\n      iszero\n      dup1\n      iszero\n      tag_226\n      jumpi\n      returndatacopy(0x00, 0x00, returndatasize)\n      revert(0x00, returndatasize)\n    tag_226:\n      pop\n      pop\n      pop\n      pop\n      mload(0x40)\n      returndatasize\n      not(0x1f)\n      0x1f\n      dup3\n      add\n      and\n      dup3\n      add\n      dup1\n      0x40\n      mstore\n      pop\n      dup2\n      add\n      swap1\n      tag_227\n      swap2\n      swap1\n      tag_174\n      jump\t// in\n    tag_227:\n        /* \"contracts/BadSammyNFTStore.sol\":8358:8400  uint256 bal = nft.balanceOf(address(this)) */\n      swap1\n      pop\n        /* \"contracts/BadSammyNFTStore.sol\":8425:8428  bal */\n      dup1\n        /* \"contracts/BadSammyNFTStore.sol\":8414:8422  quantity */\n      dup6\n        /* \"contracts/BadSammyNFTStore.sol\":8414:8428  quantity > bal */\n      gt\n        /* \"contracts/BadSammyNFTStore.sol\":8410:8444  if (quantity > bal) quantity = bal */\n      iszero\n      tag_228\n      jumpi\n        /* \"contracts/BadSammyNFTStore.sol\":8441:8444  bal */\n      dup1\n        /* \"contracts/BadSammyNFTStore.sol\":8430:8444  quantity = bal */\n      swap5\n      pop\n        /* \"contracts/BadSammyNFTStore.sol\":8410:8444  if (quantity > bal) quantity = bal */\n    tag_228:\n        /* \"contracts/BadSammyNFTStore.sol\":8460:8469  uint256 i */\n      0x00\n        /* \"contracts/BadSammyNFTStore.sol\":8472:8473  0 */\n      0x00\n        /* \"contracts/BadSammyNFTStore.sol\":8460:8473  uint256 i = 0 */\n      swap1\n      pop\n        /* \"contracts/BadSammyNFTStore.sol\":8455:8651  for (uint256 i = 0; i < quantity; i++) {... */\n    tag_229:\n        /* \"contracts/BadSammyNFTStore.sol\":8479:8487  quantity */\n      dup6\n        /* \"contracts/BadSammyNFTStore.sol\":8475:8476  i */\n      dup2\n        /* \"contracts/BadSammyNFTStore.sol\":8475:8487  i < quantity */\n      lt\n        /* \"contracts/BadSammyNFTStore.sol\":8455:8651  for (uint256 i = 0; i < quantity; i++) {... */\n      iszero\n      tag_230\n      jumpi\n        /* \"contracts/BadSammyNFTStore.sol\":8508:8523  uint256 tokenId */\n      0x00\n        /* \"contracts/BadSammyNFTStore.sol\":8526:8529  nft */\n      dup4\n        /* \"contracts/BadSammyNFTStore.sol\":8526:8549  nft.tokenOfOwnerByIndex */\n      0xffffffffffffffffffffffffffffffffffffffff\n      and\n      0x2f745c59\n        /* \"contracts/BadSammyNFTStore.sol\":8558:8562  this */\n      address\n        /* \"contracts/BadSammyNFTStore.sol\":8565:8566  0 */\n      0x00\n        /* \"contracts/BadSammyNFTStore.sol\":8526:8567  nft.tokenOfOwnerByIndex(address(this), 0) */\n      mload(0x40)\n      dup4\n      0xffffffff\n      and\n      0xe0\n      shl\n      dup2\n      mstore\n      0x04\n      add\n      tag_232\n      swap3\n      swap2\n      swap1\n      tag_179\n      jump\t// in\n    tag_232:\n      0x20\n      mload(0x40)\n      dup1\n      dup4\n      sub\n      dup2\n      dup7\n      gas\n      staticcall\n      iszero\n      dup1\n      iszero\n      tag_234\n      jumpi\n      returndatacopy(0x00, 0x00, returndatasize)\n      revert(0x00, returndatasize)\n    tag_234:\n      pop\n      pop\n      pop\n      pop\n      mload(0x40)\n      returndatasize\n      not(0x1f)\n      0x1f\n      dup3\n      add\n      and\n      dup3\n      add\n      dup1\n      0x40\n      mstore\n      pop\n      dup2\n      add\n      swap1\n      tag_235\n      swap2\n      swap1\n      tag_174\n      jump\t// in\n    tag_235:\n        /* \"contracts/BadSammyNFTStore.sol\":8508:8567  uint256 tokenId = nft.tokenOfOwnerByIndex(address(this), 0) */\n      swap1\n      pop\n        /* \"contracts/BadSammyNFTStore.sol\":8589:8590  t */\n      dup5\n        /* \"contracts/BadSammyNFTStore.sol\":8589:8594  t.nft */\n      0x00\n      add\n      mload\n        /* \"contracts/BadSammyNFTStore.sol\":8581:8612  IERC721(t.nft).safeTransferFrom */\n      0xffffffffffffffffffffffffffffffffffffffff\n      and\n      0x42842e0e\n        /* \"contracts/BadSammyNFTStore.sol\":8621:8625  this */\n      address\n        /* \"contracts/BadSammyNFTStore.sol\":8628:8630  to */\n      dup9\n        /* \"contracts/BadSammyNFTStore.sol\":8632:8639  tokenId */\n      dup5\n        /* \"contracts/BadSammyNFTStore.sol\":8581:8640  IERC721(t.nft).safeTransferFrom(address(this), to, tokenId) */\n      mload(0x40)\n      dup5\n      0xffffffff\n      and\n      0xe0\n      shl\n      dup2\n      mstore\n      0x04\n      add\n      tag_236\n      swap4\n      swap3\n      swap2\n      swap1\n      tag_135\n      jump\t// in\n    tag_236:\n      0x00\n      mload(0x40)\n      dup1\n      dup4\n      sub\n      dup2\n      0x00\n      dup8\n      dup1\n      extcodesize\n      iszero\n      dup1\n      iszero\n      tag_237\n      jumpi\n      revert(0x00, 0x00)\n    tag_237:\n      pop\n      gas\n      call\n      iszero\n      dup1\n      iszero\n      tag_239\n      jumpi\n      returndatacopy(0x00, 0x00, returndatasize)\n      revert(0x00, returndatasize)\n    tag_239:\n      pop\n      pop\n      pop\n      pop\n        /* \"contracts/BadSammyNFTStore.sol\":8494:8651  {... */\n      pop\n        /* \"contracts/BadSammyNFTStore.sol\":8489:8492  i++ */\n      dup1\n      dup1\n      0x01\n      add\n      swap2\n      pop\n      pop\n        /* \"contracts/BadSammyNFTStore.sol\":8455:8651  for (uint256 i = 0; i < quantity; i++) {... */\n      jump(tag_229)\n    tag_230:\n      pop\n        /* \"contracts/BadSammyNFTStore.sol\":8195:8657  {... */\n      pop\n      pop\n      pop\n        /* \"contracts/BadSammyNFTStore.sol\":8111:8657  function withdrawN(uint256 tierId, uint256 quantity, address to) external onlyOwner {... */\n      pop\n      pop\n      pop\n      jump\t// out\n        /* \"contracts/BadSammyNFTStore.sol\":2409:2572  function setTreasury(address payable _treasury) external onlyOwner {... */\n    tag_99:\n        /* \"@openzeppelin/contracts/access/Ownable.sol\":1531:1544  _checkOwner() */\n      tag_241\n        /* \"@openzeppelin/contracts/access/Ownable.sol\":1531:1542  _checkOwner */\n      tag_167\n        /* \"@openzeppelin/contracts/access/Ownable.sol\":1531:1544  _checkOwner() */\n      jump\t// in\n    tag_241:\n        /* \"contracts/BadSammyNFTStore.sol\":2511:2512  0 */\n      0x00\n        /* \"contracts/BadSammyNFTStore.sol\":2490:2513  _treasury == address(0) */\n      0xffffffffffffffffffffffffffffffffffffffff\n      and\n        /* \"contracts/BadSammyNFTStore.sol\":2490:2499  _treasury */\n      dup2\n        /* \"contracts/BadSammyNFTStore.sol\":2490:2513  _treasury == address(0) */\n      0xffffffffffffffffffffffffffffffffffffffff\n      and\n      sub\n        /* \"contracts/BadSammyNFTStore.sol\":2486:2535  if (_treasury == address(0)) revert ZeroAddress() */\n      tag_243\n      jumpi\n        /* \"contracts/BadSammyNFTStore.sol\":2522:2535  ZeroAddress() */\n      mload(0x40)\n      0xd92e233d00000000000000000000000000000000000000000000000000000000\n      dup2\n      mstore\n      0x04\n      add\n      mload(0x40)\n      dup1\n      swap2\n      sub\n      swap1\n      revert\n        /* \"contracts/BadSammyNFTStore.sol\":2486:2535  if (_treasury == address(0)) revert ZeroAddress() */\n    tag_243:\n        /* \"contracts/BadSammyNFTStore.sol\":2556:2565  _treasury */\n      dup1\n        /* \"contracts/BadSammyNFTStore.sol\":2545:2553  treasury */\n      0x03\n      0x00\n        /* \"contracts/BadSammyNFTStore.sol\":2545:2565  treasury = _treasury */\n      0x0100\n      exp\n      dup2\n      sload\n      dup2\n      0xffffffffffffffffffffffffffffffffffffffff\n      mul\n      not\n      and\n      swap1\n      dup4\n      0xffffffffffffffffffffffffffffffffffffffff\n      and\n      mul\n      or\n      swap1\n      sstore\n      pop\n        /* \"contracts/BadSammyNFTStore.sol\":2409:2572  function setTreasury(address payable _treasury) external onlyOwner {... */\n      pop\n      jump\t// out\n        /* \"@openzeppelin/contracts/access/Ownable.sol\":2543:2758  function transferOwnership(address newOwner) public virtual onlyOwner {... */\n    tag_103:\n        /* \"@openzeppelin/contracts/access/Ownable.sol\":1531:1544  _checkOwner() */\n      tag_245\n        /* \"@openzeppelin/contracts/access/Ownable.sol\":1531:1542  _checkOwner */\n      tag_167\n        /* \"@openzeppelin/contracts/access/Ownable.sol\":1531:1544  _checkOwner() */\n      jump\t// in\n    tag_245:\n        /* \"@openzeppelin/contracts/access/Ownable.sol\":2647:2648  0 */\n      0x00\n        /* \"@openzeppelin/contracts/access/Ownable.sol\":2627:2649  newOwner == address(0) */\n      0xffffffffffffffffffffffffffffffffffffffff\n      and\n        /* \"@openzeppelin/contracts/access/Ownable.sol\":2627:2635  newOwner */\n      dup2\n        /* \"@openzeppelin/contracts/access/Ownable.sol\":2627:2649  newOwner == address(0) */\n      0xffffffffffffffffffffffffffffffffffffffff\n      and\n      sub\n        /* \"@openzeppelin/contracts/access/Ownable.sol\":2623:2714  if (newOwner == address(0)) {... */\n      tag_247\n      jumpi\n        /* \"@openzeppelin/contracts/access/Ownable.sol\":2700:2701  0 */\n      0x00\n        /* \"@openzeppelin/contracts/access/Ownable.sol\":2672:2703  OwnableInvalidOwner(address(0)) */\n      mload(0x40)\n      0x1e4fbdf700000000000000000000000000000000000000000000000000000000\n      dup2\n      mstore\n      0x04\n      add\n      tag_248\n      swap2\n      swap1\n      tag_75\n      jump\t// in\n    tag_248:\n      mload(0x40)\n      dup1\n      swap2\n      sub\n      swap1\n      revert\n        /* \"@openzeppelin/contracts/access/Ownable.sol\":2623:2714  if (newOwner == address(0)) {... */\n    tag_247:\n        /* \"@openzeppelin/contracts/access/Ownable.sol\":2723:2751  _transferOwnership(newOwner) */\n      tag_249\n        /* \"@openzeppelin/contracts/access/Ownable.sol\":2742:2750  newOwner */\n      dup2\n        /* \"@openzeppelin/contracts/access/Ownable.sol\":2723:2741  _transferOwnership */\n      tag_250\n        /* \"@openzeppelin/contracts/access/Ownable.sol\":2723:2751  _transferOwnership(newOwner) */\n      jump\t// in\n    tag_249:\n        /* \"@openzeppelin/contracts/access/Ownable.sol\":2543:2758  function transferOwnership(address newOwner) public virtual onlyOwner {... */\n      pop\n      jump\t// out\n        /* \"@openzeppelin/contracts/security/ReentrancyGuard.sol\":2336:2623  function _nonReentrantBefore() private {... */\n    tag_106:\n        /* \"@openzeppelin/contracts/security/ReentrancyGuard.sol\":1759:1760  2 */\n      0x02\n        /* \"@openzeppelin/contracts/security/ReentrancyGuard.sol\":2468:2475  _status */\n      sload(0x00)\n        /* \"@openzeppelin/contracts/security/ReentrancyGuard.sol\":2468:2487  _status != _ENTERED */\n      sub\n        /* \"@openzeppelin/contracts/security/ReentrancyGuard.sol\":2460:2523  require(_status != _ENTERED, \"ReentrancyGuard: reentrant call\") */\n      tag_252\n      jumpi\n      mload(0x40)\n      0x08c379a000000000000000000000000000000000000000000000000000000000\n      dup2\n      mstore\n      0x04\n      add\n      tag_253\n      swap1\n      tag_254\n      jump\t// in\n    tag_253:\n      mload(0x40)\n      dup1\n      swap2\n      sub\n      swap1\n      revert\n    tag_252:\n        /* \"@openzeppelin/contracts/security/ReentrancyGuard.sol\":1759:1760  2 */\n      0x02\n        /* \"@openzeppelin/contracts/security/ReentrancyGuard.sol\":2598:2605  _status */\n      0x00\n        /* \"@openzeppelin/contracts/security/ReentrancyGuard.sol\":2598:2616  _status = _ENTERED */\n      dup2\n      swap1\n      sstore\n      pop\n        /* \"@openzeppelin/contracts/security/ReentrancyGuard.sol\":2336:2623  function _nonReentrantBefore() private {... */\n      jump\t// out\n        /* \"contracts/BadSammyNFTStore.sol\":2879:3154  function _nextToken(address nft) internal view returns (uint256) {... */\n    tag_133:\n        /* \"contracts/BadSammyNFTStore.sol\":2935:2942  uint256 */\n      0x00\n        /* \"contracts/BadSammyNFTStore.sol\":2954:2974  IERC721Enumerable en */\n      0x00\n        /* \"contracts/BadSammyNFTStore.sol\":2995:2998  nft */\n      dup3\n        /* \"contracts/BadSammyNFTStore.sol\":2954:2999  IERC721Enumerable en = IERC721Enumerable(nft) */\n      swap1\n      pop\n        /* \"contracts/BadSammyNFTStore.sol\":3009:3020  uint256 bal */\n      0x00\n        /* \"contracts/BadSammyNFTStore.sol\":3023:3025  en */\n      dup2\n        /* \"contracts/BadSammyNFTStore.sol\":3023:3035  en.balanceOf */\n      0xffffffffffffffffffffffffffffffffffffffff\n      and\n      0x70a08231\n        /* \"contracts/BadSammyNFTStore.sol\":3044:3048  this */\n      address\n        /* \"contracts/BadSammyNFTStore.sol\":3023:3050  en.balanceOf(address(this)) */\n      mload(0x40)\n      dup3\n      0xffffffff\n      and\n      0xe0\n      shl\n      dup2\n      mstore\n      0x04\n      add\n      tag_256\n      swap2\n      swap1\n      tag_75\n      jump\t// in\n    tag_256:\n      0x20\n      mload(0x40)\n      dup1\n      dup4\n      sub\n      dup2\n      dup7\n      gas\n      staticcall\n      iszero\n      dup1\n      iszero\n      tag_258\n      jumpi\n      returndatacopy(0x00, 0x00, returndatasize)\n      revert(0x00, returndatasize)\n    tag_258:\n      pop\n      pop\n      pop\n      pop\n      mload(0x40)\n      returndatasize\n      not(0x1f)\n      0x1f\n      dup3\n      add\n      and\n      dup3\n      add\n      dup1\n      0x40\n      mstore\n      pop\n      dup2\n      add\n      swap1\n      tag_259\n      swap2\n      swap1\n      tag_174\n      jump\t// in\n    tag_259:\n        /* \"contracts/BadSammyNFTStore.sol\":3009:3050  uint256 bal = en.balanceOf(address(this)) */\n      swap1\n      pop\n        /* \"contracts/BadSammyNFTStore.sol\":3071:3072  0 */\n      0x00\n        /* \"contracts/BadSammyNFTStore.sol\":3064:3067  bal */\n      dup2\n        /* \"contracts/BadSammyNFTStore.sol\":3064:3072  bal == 0 */\n      sub\n        /* \"contracts/BadSammyNFTStore.sol\":3060:3090  if (bal == 0) revert SoldOut() */\n      tag_260\n      jumpi\n        /* \"contracts/BadSammyNFTStore.sol\":3081:3090  SoldOut() */\n      mload(0x40)\n      0x52df9fe500000000000000000000000000000000000000000000000000000000\n      dup2\n      mstore\n      0x04\n      add\n      mload(0x40)\n      dup1\n      swap2\n      sub\n      swap1\n      revert\n        /* \"contracts/BadSammyNFTStore.sol\":3060:3090  if (bal == 0) revert SoldOut() */\n    tag_260:\n        /* \"contracts/BadSammyNFTStore.sol\":3107:3109  en */\n      dup2\n        /* \"contracts/BadSammyNFTStore.sol\":3107:3129  en.tokenOfOwnerByIndex */\n      0xffffffffffffffffffffffffffffffffffffffff\n      and\n      0x2f745c59\n        /* \"contracts/BadSammyNFTStore.sol\":3138:3142  this */\n      address\n        /* \"contracts/BadSammyNFTStore.sol\":3145:3146  0 */\n      0x00\n        /* \"contracts/BadSammyNFTStore.sol\":3107:3147  en.tokenOfOwnerByIndex(address(this), 0) */\n      mload(0x40)\n      dup4\n      0xffffffff\n      and\n      0xe0\n      shl\n      dup2\n      mstore\n      0x04\n      add\n      tag_261\n      swap3\n      swap2\n      swap1\n      tag_179\n      jump\t// in\n    tag_261:\n      0x20\n      mload(0x40)\n      dup1\n      dup4\n      sub\n      dup2\n      dup7\n      gas\n      staticcall\n      iszero\n      dup1\n      iszero\n      tag_263\n      jumpi\n      returndatacopy(0x00, 0x00, returndatasize)\n      revert(0x00, returndatasize)\n    tag_263:\n      pop\n      pop\n      pop\n      pop\n      mload(0x40)\n      returndatasize\n      not(0x1f)\n      0x1f\n      dup3\n      add\n      and\n      dup3\n      add\n      dup1\n      0x40\n      mstore\n      pop\n      dup2\n      add\n      swap1\n      tag_264\n      swap2\n      swap1\n      tag_174\n      jump\t// in\n    tag_264:\n        /* \"contracts/BadSammyNFTStore.sol\":3100:3147  return en.tokenOfOwnerByIndex(address(this), 0) */\n      swap3\n      pop\n      pop\n      pop\n        /* \"contracts/BadSammyNFTStore.sol\":2879:3154  function _nextToken(address nft) internal view returns (uint256) {... */\n      swap2\n      swap1\n      pop\n      jump\t// out\n        /* \"@openzeppelin/contracts/security/ReentrancyGuard.sol\":2629:2838  function _nonReentrantAfter() private {... */\n    tag_140:\n        /* \"@openzeppelin/contracts/security/ReentrancyGuard.sol\":1716:1717  1 */\n      0x01\n        /* \"@openzeppelin/contracts/security/ReentrancyGuard.sol\":2809:2816  _status */\n      0x00\n        /* \"@openzeppelin/contracts/security/ReentrancyGuard.sol\":2809:2831  _status = _NOT_ENTERED */\n      dup2\n      swap1\n      sstore\n      pop\n        /* \"@openzeppelin/contracts/security/ReentrancyGuard.sol\":2629:2838  function _nonReentrantAfter() private {... */\n      jump\t// out\n        /* \"@openzeppelin/contracts/access/Ownable.sol\":1796:1958  function _checkOwner() internal view virtual {... */\n    tag_167:\n        /* \"@openzeppelin/contracts/access/Ownable.sol\":1866:1878  _msgSender() */\n      tag_267\n        /* \"@openzeppelin/contracts/access/Ownable.sol\":1866:1876  _msgSender */\n      tag_268\n        /* \"@openzeppelin/contracts/access/Ownable.sol\":1866:1878  _msgSender() */\n      jump\t// in\n    tag_267:\n        /* \"@openzeppelin/contracts/access/Ownable.sol\":1855:1878  owner() != _msgSender() */\n      0xffffffffffffffffffffffffffffffffffffffff\n      and\n        /* \"@openzeppelin/contracts/access/Ownable.sol\":1855:1862  owner() */\n      tag_269\n        /* \"@openzeppelin/contracts/access/Ownable.sol\":1855:1860  owner */\n      tag_73\n        /* \"@openzeppelin/contracts/access/Ownable.sol\":1855:1862  owner() */\n      jump\t// in\n    tag_269:\n        /* \"@openzeppelin/contracts/access/Ownable.sol\":1855:1878  owner() != _msgSender() */\n      0xffffffffffffffffffffffffffffffffffffffff\n      and\n      eq\n        /* \"@openzeppelin/contracts/access/Ownable.sol\":1851:1952  if (owner() != _msgSender()) {... */\n      tag_270\n      jumpi\n        /* \"@openzeppelin/contracts/access/Ownable.sol\":1928:1940  _msgSender() */\n      tag_271\n        /* \"@openzeppelin/contracts/access/Ownable.sol\":1928:1938  _msgSender */\n      tag_268\n        /* \"@openzeppelin/contracts/access/Ownable.sol\":1928:1940  _msgSender() */\n      jump\t// in\n    tag_271:\n        /* \"@openzeppelin/contracts/access/Ownable.sol\":1901:1941  OwnableUnauthorizedAccount(_msgSender()) */\n      mload(0x40)\n      0x118cdaa700000000000000000000000000000000000000000000000000000000\n      dup2\n      mstore\n      0x04\n      add\n      tag_272\n      swap2\n      swap1\n      tag_75\n      jump\t// in\n    tag_272:\n      mload(0x40)\n      dup1\n      swap2\n      sub\n      swap1\n      revert\n        /* \"@openzeppelin/contracts/access/Ownable.sol\":1851:1952  if (owner() != _msgSender()) {... */\n    tag_270:\n        /* \"@openzeppelin/contracts/access/Ownable.sol\":1796:1958  function _checkOwner() internal view virtual {... */\n      jump\t// out\n        /* \"@openzeppelin/contracts/access/Ownable.sol\":2912:3099  function _transferOwnership(address newOwner) internal virtual {... */\n    tag_250:\n        /* \"@openzeppelin/contracts/access/Ownable.sol\":2985:3001  address oldOwner */\n      0x00\n        /* \"@openzeppelin/contracts/access/Ownable.sol\":3004:3010  _owner */\n      0x01\n      0x00\n      swap1\n      sload\n      swap1\n      0x0100\n      exp\n      swap1\n      div\n      0xffffffffffffffffffffffffffffffffffffffff\n      and\n        /* \"@openzeppelin/contracts/access/Ownable.sol\":2985:3010  address oldOwner = _owner */\n      swap1\n      pop\n        /* \"@openzeppelin/contracts/access/Ownable.sol\":3029:3037  newOwner */\n      dup2\n        /* \"@openzeppelin/contracts/access/Ownable.sol\":3020:3026  _owner */\n      0x01\n      0x00\n        /* \"@openzeppelin/contracts/access/Ownable.sol\":3020:3037  _owner = newOwner */\n      0x0100\n      exp\n      dup2\n      sload\n      dup2\n      0xffffffffffffffffffffffffffffffffffffffff\n      mul\n      not\n      and\n      swap1\n      dup4\n      0xffffffffffffffffffffffffffffffffffffffff\n      and\n      mul\n      or\n      swap1\n      sstore\n      pop\n        /* \"@openzeppelin/contracts/access/Ownable.sol\":3083:3091  newOwner */\n      dup2\n        /* \"@openzeppelin/contracts/access/Ownable.sol\":3052:3092  OwnershipTransferred(oldOwner, newOwner) */\n      0xffffffffffffffffffffffffffffffffffffffff\n      and\n        /* \"@openzeppelin/contracts/access/Ownable.sol\":3073:3081  oldOwner */\n      dup2\n        /* \"@openzeppelin/contracts/access/Ownable.sol\":3052:3092  OwnershipTransferred(oldOwner, newOwner) */\n      0xffffffffffffffffffffffffffffffffffffffff\n      and\n      0x8be0079c531659141344cd1fd0a4f28419497f9722a3daafe3b4186f6b6457e0\n      mload(0x40)\n      mload(0x40)\n      dup1\n      swap2\n      sub\n      swap1\n      log3\n        /* \"@openzeppelin/contracts/access/Ownable.sol\":2975:3099  {... */\n      pop\n        /* \"@openzeppelin/contracts/access/Ownable.sol\":2912:3099  function _transferOwnership(address newOwner) internal virtual {... */\n      pop\n      jump\t// out\n        /* \"@openzeppelin/contracts/utils/Context.sol\":656:752  function _msgSender() internal view virtual returns (address) {... */\n    tag_268:\n        /* \"@openzeppelin/contracts/utils/Context.sol\":709:716  address */\n      0x00\n        /* \"@openzeppelin/contracts/utils/Context.sol\":735:745  msg.sender */\n      caller\n        /* \"@openzeppelin/contracts/utils/Context.sol\":728:745  return msg.sender */\n      swap1\n      pop\n        /* \"@openzeppelin/contracts/utils/Context.sol\":656:752  function _msgSender() internal view virtual returns (address) {... */\n      swap1\n      jump\t// out\n        /* \"#utility.yul\":88:205   */\n    tag_276:\n        /* \"#utility.yul\":197:198   */\n      0x00\n        /* \"#utility.yul\":194:195   */\n      0x00\n        /* \"#utility.yul\":187:199   */\n      revert\n        /* \"#utility.yul\":211:328   */\n    tag_277:\n        /* \"#utility.yul\":320:321   */\n      0x00\n        /* \"#utility.yul\":317:318   */\n      0x00\n        /* \"#utility.yul\":310:322   */\n      revert\n        /* \"#utility.yul\":334:411   */\n    tag_278:\n        /* \"#utility.yul\":371:378   */\n      0x00\n        /* \"#utility.yul\":400:405   */\n      dup2\n        /* \"#utility.yul\":389:405   */\n      swap1\n      pop\n        /* \"#utility.yul\":334:411   */\n      swap2\n      swap1\n      pop\n      jump\t// out\n        /* \"#utility.yul\":417:539   */\n    tag_279:\n        /* \"#utility.yul\":490:514   */\n      tag_337\n        /* \"#utility.yul\":508:513   */\n      dup2\n        /* \"#utility.yul\":490:514   */\n      tag_278\n      jump\t// in\n    tag_337:\n        /* \"#utility.yul\":483:488   */\n      dup2\n        /* \"#utility.yul\":480:515   */\n      eq\n        /* \"#utility.yul\":470:533   */\n      tag_338\n      jumpi\n        /* \"#utility.yul\":529:530   */\n      0x00\n        /* \"#utility.yul\":526:527   */\n      0x00\n        /* \"#utility.yul\":519:531   */\n      revert\n        /* \"#utility.yul\":470:533   */\n    tag_338:\n        /* \"#utility.yul\":417:539   */\n      pop\n      jump\t// out\n        /* \"#utility.yul\":545:684   */\n    tag_280:\n        /* \"#utility.yul\":591:596   */\n      0x00\n        /* \"#utility.yul\":629:635   */\n      dup2\n        /* \"#utility.yul\":616:636   */\n      calldataload\n        /* \"#utility.yul\":607:636   */\n      swap1\n      pop\n        /* \"#utility.yul\":645:678   */\n      tag_340\n        /* \"#utility.yul\":672:677   */\n      dup2\n        /* \"#utility.yul\":645:678   */\n      tag_279\n      jump\t// in\n    tag_340:\n        /* \"#utility.yul\":545:684   */\n      swap3\n      swap2\n      pop\n      pop\n      jump\t// out\n        /* \"#utility.yul\":690:1019   */\n    tag_27:\n        /* \"#utility.yul\":749:755   */\n      0x00\n        /* \"#utility.yul\":798:800   */\n      0x20\n        /* \"#utility.yul\":786:795   */\n      dup3\n        /* \"#utility.yul\":777:784   */\n      dup5\n        /* \"#utility.yul\":773:796   */\n      sub\n        /* \"#utility.yul\":769:801   */\n      slt\n        /* \"#utility.yul\":766:885   */\n      iszero\n      tag_342\n      jumpi\n        /* \"#utility.yul\":804:883   */\n      tag_343\n      tag_276\n      jump\t// in\n    tag_343:\n        /* \"#utility.yul\":766:885   */\n    tag_342:\n        /* \"#utility.yul\":924:925   */\n      0x00\n        /* \"#utility.yul\":949:1002   */\n      tag_344\n        /* \"#utility.yul\":994:1001   */\n      dup5\n        /* \"#utility.yul\":985:991   */\n      dup3\n        /* \"#utility.yul\":974:983   */\n      dup6\n        /* \"#utility.yul\":970:992   */\n      add\n        /* \"#utility.yul\":949:1002   */\n      tag_280\n      jump\t// in\n    tag_344:\n        /* \"#utility.yul\":939:1002   */\n      swap2\n      pop\n        /* \"#utility.yul\":895:1012   */\n      pop\n        /* \"#utility.yul\":690:1019   */\n      swap3\n      swap2\n      pop\n      pop\n      jump\t// out\n        /* \"#utility.yul\":1025:1151   */\n    tag_281:\n        /* \"#utility.yul\":1062:1069   */\n      0x00\n        /* \"#utility.yul\":1102:1144   */\n      0xffffffffffffffffffffffffffffffffffffffff\n        /* \"#utility.yul\":1095:1100   */\n      dup3\n        /* \"#utility.yul\":1091:1145   */\n      and\n        /* \"#utility.yul\":1080:1145   */\n      swap1\n      pop\n        /* \"#utility.yul\":1025:1151   */\n      swap2\n      swap1\n      pop\n      jump\t// out\n        /* \"#utility.yul\":1157:1253   */\n    tag_282:\n        /* \"#utility.yul\":1194:1201   */\n      0x00\n        /* \"#utility.yul\":1223:1247   */\n      tag_347\n        /* \"#utility.yul\":1241:1246   */\n      dup3\n        /* \"#utility.yul\":1223:1247   */\n      tag_281\n      jump\t// in\n    tag_347:\n        /* \"#utility.yul\":1212:1247   */\n      swap1\n      pop\n        /* \"#utility.yul\":1157:1253   */\n      swap2\n      swap1\n      pop\n      jump\t// out\n        /* \"#utility.yul\":1259:1377   */\n    tag_283:\n        /* \"#utility.yul\":1346:1370   */\n      tag_349\n        /* \"#utility.yul\":1364:1369   */\n      dup2\n        /* \"#utility.yul\":1346:1370   */\n      tag_282\n      jump\t// in\n    tag_349:\n        /* \"#utility.yul\":1341:1344   */\n      dup3\n        /* \"#utility.yul\":1334:1371   */\n      mstore\n        /* \"#utility.yul\":1259:1377   */\n      pop\n      pop\n      jump\t// out\n        /* \"#utility.yul\":1383:1501   */\n    tag_284:\n        /* \"#utility.yul\":1470:1494   */\n      tag_351\n        /* \"#utility.yul\":1488:1493   */\n      dup2\n        /* \"#utility.yul\":1470:1494   */\n      tag_278\n      jump\t// in\n    tag_351:\n        /* \"#utility.yul\":1465:1468   */\n      dup3\n        /* \"#utility.yul\":1458:1495   */\n      mstore\n        /* \"#utility.yul\":1383:1501   */\n      pop\n      pop\n      jump\t// out\n        /* \"#utility.yul\":1507:1597   */\n    tag_285:\n        /* \"#utility.yul\":1541:1548   */\n      0x00\n        /* \"#utility.yul\":1584:1589   */\n      dup2\n        /* \"#utility.yul\":1577:1590   */\n      iszero\n        /* \"#utility.yul\":1570:1591   */\n      iszero\n        /* \"#utility.yul\":1559:1591   */\n      swap1\n      pop\n        /* \"#utility.yul\":1507:1597   */\n      swap2\n      swap1\n      pop\n      jump\t// out\n        /* \"#utility.yul\":1603:1712   */\n    tag_286:\n        /* \"#utility.yul\":1684:1705   */\n      tag_354\n        /* \"#utility.yul\":1699:1704   */\n      dup2\n        /* \"#utility.yul\":1684:1705   */\n      tag_285\n      jump\t// in\n    tag_354:\n        /* \"#utility.yul\":1679:1682   */\n      dup3\n        /* \"#utility.yul\":1672:1706   */\n      mstore\n        /* \"#utility.yul\":1603:1712   */\n      pop\n      pop\n      jump\t// out\n        /* \"#utility.yul\":1718:2148   */\n    tag_30:\n        /* \"#utility.yul\":1861:1865   */\n      0x00\n        /* \"#utility.yul\":1899:1901   */\n      0x60\n        /* \"#utility.yul\":1888:1897   */\n      dup3\n        /* \"#utility.yul\":1884:1902   */\n      add\n        /* \"#utility.yul\":1876:1902   */\n      swap1\n      pop\n        /* \"#utility.yul\":1912:1983   */\n      tag_356\n        /* \"#utility.yul\":1980:1981   */\n      0x00\n        /* \"#utility.yul\":1969:1978   */\n      dup4\n        /* \"#utility.yul\":1965:1982   */\n      add\n        /* \"#utility.yul\":1956:1962   */\n      dup7\n        /* \"#utility.yul\":1912:1983   */\n      tag_283\n      jump\t// in\n    tag_356:\n        /* \"#utility.yul\":1993:2065   */\n      tag_357\n        /* \"#utility.yul\":2061:2063   */\n      0x20\n        /* \"#utility.yul\":2050:2059   */\n      dup4\n        /* \"#utility.yul\":2046:2064   */\n      add\n        /* \"#utility.yul\":2037:2043   */\n      dup6\n        /* \"#utility.yul\":1993:2065   */\n      tag_284\n      jump\t// in\n    tag_357:\n        /* \"#utility.yul\":2075:2141   */\n      tag_358\n        /* \"#utility.yul\":2137:2139   */\n      0x40\n        /* \"#utility.yul\":2126:2135   */\n      dup4\n        /* \"#utility.yul\":2122:2140   */\n      add\n        /* \"#utility.yul\":2113:2119   */\n      dup5\n        /* \"#utility.yul\":2075:2141   */\n      tag_286\n      jump\t// in\n    tag_358:\n        /* \"#utility.yul\":1718:2148   */\n      swap5\n      swap4\n      pop\n      pop\n      pop\n      pop\n      jump\t// out\n        /* \"#utility.yul\":2154:2240   */\n    tag_287:\n        /* \"#utility.yul\":2189:2196   */\n      0x00\n        /* \"#utility.yul\":2229:2233   */\n      0xff\n        /* \"#utility.yul\":2222:2227   */\n      dup3\n        /* \"#utility.yul\":2218:2234   */\n      and\n        /* \"#utility.yul\":2207:2234   */\n      swap1\n      pop\n        /* \"#utility.yul\":2154:2240   */\n      swap2\n      swap1\n      pop\n      jump\t// out\n        /* \"#utility.yul\":2246:2364   */\n    tag_288:\n        /* \"#utility.yul\":2317:2339   */\n      tag_361\n        /* \"#utility.yul\":2333:2338   */\n      dup2\n        /* \"#utility.yul\":2317:2339   */\n      tag_287\n      jump\t// in\n    tag_361:\n        /* \"#utility.yul\":2310:2315   */\n      dup2\n        /* \"#utility.yul\":2307:2340   */\n      eq\n        /* \"#utility.yul\":2297:2358   */\n      tag_362\n      jumpi\n        /* \"#utility.yul\":2354:2355   */\n      0x00\n        /* \"#utility.yul\":2351:2352   */\n      0x00\n        /* \"#utility.yul\":2344:2356   */\n      revert\n        /* \"#utility.yul\":2297:2358   */\n    tag_362:\n        /* \"#utility.yul\":2246:2364   */\n      pop\n      jump\t// out\n        /* \"#utility.yul\":2370:2505   */\n    tag_289:\n        /* \"#utility.yul\":2414:2419   */\n      0x00\n        /* \"#utility.yul\":2452:2458   */\n      dup2\n        /* \"#utility.yul\":2439:2459   */\n      calldataload\n        /* \"#utility.yul\":2430:2459   */\n      swap1\n      pop\n        /* \"#utility.yul\":2468:2499   */\n      tag_364\n        /* \"#utility.yul\":2493:2498   */\n      dup2\n        /* \"#utility.yul\":2468:2499   */\n      tag_288\n      jump\t// in\n    tag_364:\n        /* \"#utility.yul\":2370:2505   */\n      swap3\n      swap2\n      pop\n      pop\n      jump\t// out\n        /* \"#utility.yul\":2511:2588   */\n    tag_290:\n        /* \"#utility.yul\":2548:2555   */\n      0x00\n        /* \"#utility.yul\":2577:2582   */\n      dup2\n        /* \"#utility.yul\":2566:2582   */\n      swap1\n      pop\n        /* \"#utility.yul\":2511:2588   */\n      swap2\n      swap1\n      pop\n      jump\t// out\n        /* \"#utility.yul\":2594:2716   */\n    tag_291:\n        /* \"#utility.yul\":2667:2691   */\n      tag_367\n        /* \"#utility.yul\":2685:2690   */\n      dup2\n        /* \"#utility.yul\":2667:2691   */\n      tag_290\n      jump\t// in\n    tag_367:\n        /* \"#utility.yul\":2660:2665   */\n      dup2\n        /* \"#utility.yul\":2657:2692   */\n      eq\n        /* \"#utility.yul\":2647:2710   */\n      tag_368\n      jumpi\n        /* \"#utility.yul\":2706:2707   */\n      0x00\n        /* \"#utility.yul\":2703:2704   */\n      0x00\n        /* \"#utility.yul\":2696:2708   */\n      revert\n        /* \"#utility.yul\":2647:2710   */\n    tag_368:\n        /* \"#utility.yul\":2594:2716   */\n      pop\n      jump\t// out\n        /* \"#utility.yul\":2722:2861   */\n    tag_292:\n        /* \"#utility.yul\":2768:2773   */\n      0x00\n        /* \"#utility.yul\":2806:2812   */\n      dup2\n        /* \"#utility.yul\":2793:2813   */\n      calldataload\n        /* \"#utility.yul\":2784:2813   */\n      swap1\n      pop\n        /* \"#utility.yul\":2822:2855   */\n      tag_370\n        /* \"#utility.yul\":2849:2854   */\n      dup2\n        /* \"#utility.yul\":2822:2855   */\n      tag_291\n      jump\t// in\n    tag_370:\n        /* \"#utility.yul\":2722:2861   */\n      swap3\n      swap2\n      pop\n      pop\n      jump\t// out\n        /* \"#utility.yul\":2867:4066   */\n    tag_34:\n        /* \"#utility.yul\":2978:2984   */\n      0x00\n        /* \"#utility.yul\":2986:2992   */\n      0x00\n        /* \"#utility.yul\":2994:3000   */\n      0x00\n        /* \"#utility.yul\":3002:3008   */\n      0x00\n        /* \"#utility.yul\":3010:3016   */\n      0x00\n        /* \"#utility.yul\":3018:3024   */\n      0x00\n        /* \"#utility.yul\":3026:3032   */\n      0x00\n        /* \"#utility.yul\":3075:3078   */\n      0xe0\n        /* \"#utility.yul\":3063:3072   */\n      dup9\n        /* \"#utility.yul\":3054:3061   */\n      dup11\n        /* \"#utility.yul\":3050:3073   */\n      sub\n        /* \"#utility.yul\":3046:3079   */\n      slt\n        /* \"#utility.yul\":3043:3163   */\n      iszero\n      tag_372\n      jumpi\n        /* \"#utility.yul\":3082:3161   */\n      tag_373\n      tag_276\n      jump\t// in\n    tag_373:\n        /* \"#utility.yul\":3043:3163   */\n    tag_372:\n        /* \"#utility.yul\":3202:3203   */\n      0x00\n        /* \"#utility.yul\":3227:3280   */\n      tag_374\n        /* \"#utility.yul\":3272:3279   */\n      dup11\n        /* \"#utility.yul\":3263:3269   */\n      dup3\n        /* \"#utility.yul\":3252:3261   */\n      dup12\n        /* \"#utility.yul\":3248:3270   */\n      add\n        /* \"#utility.yul\":3227:3280   */\n      tag_280\n      jump\t// in\n    tag_374:\n        /* \"#utility.yul\":3217:3280   */\n      swap8\n      pop\n        /* \"#utility.yul\":3173:3290   */\n      pop\n        /* \"#utility.yul\":3329:3331   */\n      0x20\n        /* \"#utility.yul\":3355:3408   */\n      tag_375\n        /* \"#utility.yul\":3400:3407   */\n      dup11\n        /* \"#utility.yul\":3391:3397   */\n      dup3\n        /* \"#utility.yul\":3380:3389   */\n      dup12\n        /* \"#utility.yul\":3376:3398   */\n      add\n        /* \"#utility.yul\":3355:3408   */\n      tag_280\n      jump\t// in\n    tag_375:\n        /* \"#utility.yul\":3345:3408   */\n      swap7\n      pop\n        /* \"#utility.yul\":3300:3418   */\n      pop\n        /* \"#utility.yul\":3457:3459   */\n      0x40\n        /* \"#utility.yul\":3483:3536   */\n      tag_376\n        /* \"#utility.yul\":3528:3535   */\n      dup11\n        /* \"#utility.yul\":3519:3525   */\n      dup3\n        /* \"#utility.yul\":3508:3517   */\n      dup12\n        /* \"#utility.yul\":3504:3526   */\n      add\n        /* \"#utility.yul\":3483:3536   */\n      tag_280\n      jump\t// in\n    tag_376:\n        /* \"#utility.yul\":3473:3536   */\n      swap6\n      pop\n        /* \"#utility.yul\":3428:3546   */\n      pop\n        /* \"#utility.yul\":3585:3587   */\n      0x60\n        /* \"#utility.yul\":3611:3664   */\n      tag_377\n        /* \"#utility.yul\":3656:3663   */\n      dup11\n        /* \"#utility.yul\":3647:3653   */\n      dup3\n        /* \"#utility.yul\":3636:3645   */\n      dup12\n        /* \"#utility.yul\":3632:3654   */\n      add\n        /* \"#utility.yul\":3611:3664   */\n      tag_280\n      jump\t// in\n    tag_377:\n        /* \"#utility.yul\":3601:3664   */\n      swap5\n      pop\n        /* \"#utility.yul\":3556:3674   */\n      pop\n        /* \"#utility.yul\":3713:3716   */\n      0x80\n        /* \"#utility.yul\":3740:3791   */\n      tag_378\n        /* \"#utility.yul\":3783:3790   */\n      dup11\n        /* \"#utility.yul\":3774:3780   */\n      dup3\n        /* \"#utility.yul\":3763:3772   */\n      dup12\n        /* \"#utility.yul\":3759:3781   */\n      add\n        /* \"#utility.yul\":3740:3791   */\n      tag_289\n      jump\t// in\n    tag_378:\n        /* \"#utility.yul\":3730:3791   */\n      swap4\n      pop\n        /* \"#utility.yul\":3684:3801   */\n      pop\n        /* \"#utility.yul\":3840:3843   */\n      0xa0\n        /* \"#utility.yul\":3867:3920   */\n      tag_379\n        /* \"#utility.yul\":3912:3919   */\n      dup11\n        /* \"#utility.yul\":3903:3909   */\n      dup3\n        /* \"#utility.yul\":3892:3901   */\n      dup12\n        /* \"#utility.yul\":3888:3910   */\n      add\n        /* \"#utility.yul\":3867:3920   */\n      tag_292\n      jump\t// in\n    tag_379:\n        /* \"#utility.yul\":3857:3920   */\n      swap3\n      pop\n        /* \"#utility.yul\":3811:3930   */\n      pop\n        /* \"#utility.yul\":3969:3972   */\n      0xc0\n        /* \"#utility.yul\":3996:4049   */\n      tag_380\n        /* \"#utility.yul\":4041:4048   */\n      dup11\n        /* \"#utility.yul\":4032:4038   */\n      dup3\n        /* \"#utility.yul\":4021:4030   */\n      dup12\n        /* \"#utility.yul\":4017:4039   */\n      add\n        /* \"#utility.yul\":3996:4049   */\n      tag_292\n      jump\t// in\n    tag_380:\n        /* \"#utility.yul\":3986:4049   */\n      swap2\n      pop\n        /* \"#utility.yul\":3940:4059   */\n      pop\n        /* \"#utility.yul\":2867:4066   */\n      swap3\n      swap6\n      swap9\n      swap2\n      swap5\n      swap8\n      pop\n      swap3\n      swap6\n      pop\n      jump\t// out\n        /* \"#utility.yul\":4072:4194   */\n    tag_293:\n        /* \"#utility.yul\":4145:4169   */\n      tag_382\n        /* \"#utility.yul\":4163:4168   */\n      dup2\n        /* \"#utility.yul\":4145:4169   */\n      tag_282\n      jump\t// in\n    tag_382:\n        /* \"#utility.yul\":4138:4143   */\n      dup2\n        /* \"#utility.yul\":4135:4170   */\n      eq\n        /* \"#utility.yul\":4125:4188   */\n      tag_383\n      jumpi\n        /* \"#utility.yul\":4184:4185   */\n      0x00\n        /* \"#utility.yul\":4181:4182   */\n      0x00\n        /* \"#utility.yul\":4174:4186   */\n      revert\n        /* \"#utility.yul\":4125:4188   */\n    tag_383:\n        /* \"#utility.yul\":4072:4194   */\n      pop\n      jump\t// out\n        /* \"#utility.yul\":4200:4339   */\n    tag_294:\n        /* \"#utility.yul\":4246:4251   */\n      0x00\n        /* \"#utility.yul\":4284:4290   */\n      dup2\n        /* \"#utility.yul\":4271:4291   */\n      calldataload\n        /* \"#utility.yul\":4262:4291   */\n      swap1\n      pop\n        /* \"#utility.yul\":4300:4333   */\n      tag_385\n        /* \"#utility.yul\":4327:4332   */\n      dup2\n        /* \"#utility.yul\":4300:4333   */\n      tag_293\n      jump\t// in\n    tag_385:\n        /* \"#utility.yul\":4200:4339   */\n      swap3\n      swap2\n      pop\n      pop\n      jump\t// out\n        /* \"#utility.yul\":4345:4462   */\n    tag_295:\n        /* \"#utility.yul\":4454:4455   */\n      0x00\n        /* \"#utility.yul\":4451:4452   */\n      0x00\n        /* \"#utility.yul\":4444:4456   */\n      revert\n        /* \"#utility.yul\":4468:4585   */\n    tag_296:\n        /* \"#utility.yul\":4577:4578   */\n      0x00\n        /* \"#utility.yul\":4574:4575   */\n      0x00\n        /* \"#utility.yul\":4567:4579   */\n      revert\n        /* \"#utility.yul\":4591:4708   */\n    tag_297:\n        /* \"#utility.yul\":4700:4701   */\n      0x00\n        /* \"#utility.yul\":4697:4698   */\n      0x00\n        /* \"#utility.yul\":4690:4702   */\n      revert\n        /* \"#utility.yul\":4727:5279   */\n    tag_298:\n        /* \"#utility.yul\":4784:4792   */\n      0x00\n        /* \"#utility.yul\":4794:4800   */\n      0x00\n        /* \"#utility.yul\":4844:4847   */\n      dup4\n        /* \"#utility.yul\":4837:4841   */\n      0x1f\n        /* \"#utility.yul\":4829:4835   */\n      dup5\n        /* \"#utility.yul\":4825:4842   */\n      add\n        /* \"#utility.yul\":4821:4848   */\n      slt\n        /* \"#utility.yul\":4811:4933   */\n      tag_390\n      jumpi\n        /* \"#utility.yul\":4852:4931   */\n      tag_391\n      tag_295\n      jump\t// in\n    tag_391:\n        /* \"#utility.yul\":4811:4933   */\n    tag_390:\n        /* \"#utility.yul\":4965:4971   */\n      dup3\n        /* \"#utility.yul\":4952:4972   */\n      calldataload\n        /* \"#utility.yul\":4942:4972   */\n      swap1\n      pop\n        /* \"#utility.yul\":4995:5013   */\n      0xffffffffffffffff\n        /* \"#utility.yul\":4987:4993   */\n      dup2\n        /* \"#utility.yul\":4984:5014   */\n      gt\n        /* \"#utility.yul\":4981:5098   */\n      iszero\n      tag_392\n      jumpi\n        /* \"#utility.yul\":5017:5096   */\n      tag_393\n      tag_296\n      jump\t// in\n    tag_393:\n        /* \"#utility.yul\":4981:5098   */\n    tag_392:\n        /* \"#utility.yul\":5131:5135   */\n      0x20\n        /* \"#utility.yul\":5123:5129   */\n      dup4\n        /* \"#utility.yul\":5119:5136   */\n      add\n        /* \"#utility.yul\":5107:5136   */\n      swap2\n      pop\n        /* \"#utility.yul\":5185:5188   */\n      dup4\n        /* \"#utility.yul\":5177:5181   */\n      0x01\n        /* \"#utility.yul\":5169:5175   */\n      dup3\n        /* \"#utility.yul\":5165:5182   */\n      mul\n        /* \"#utility.yul\":5155:5163   */\n      dup4\n        /* \"#utility.yul\":5151:5183   */\n      add\n        /* \"#utility.yul\":5148:5189   */\n      gt\n        /* \"#utility.yul\":5145:5273   */\n      iszero\n      tag_394\n      jumpi\n        /* \"#utility.yul\":5192:5271   */\n      tag_395\n      tag_297\n      jump\t// in\n    tag_395:\n        /* \"#utility.yul\":5145:5273   */\n    tag_394:\n        /* \"#utility.yul\":4727:5279   */\n      swap3\n      pop\n      swap3\n      swap1\n      pop\n      jump\t// out\n        /* \"#utility.yul\":5285:6248   */\n    tag_39:\n        /* \"#utility.yul\":5382:5388   */\n      0x00\n        /* \"#utility.yul\":5390:5396   */\n      0x00\n        /* \"#utility.yul\":5398:5404   */\n      0x00\n        /* \"#utility.yul\":5406:5412   */\n      0x00\n        /* \"#utility.yul\":5414:5420   */\n      0x00\n        /* \"#utility.yul\":5463:5466   */\n      0x80\n        /* \"#utility.yul\":5451:5460   */\n      dup7\n        /* \"#utility.yul\":5442:5449   */\n      dup9\n        /* \"#utility.yul\":5438:5461   */\n      sub\n        /* \"#utility.yul\":5434:5467   */\n      slt\n        /* \"#utility.yul\":5431:5551   */\n      iszero\n      tag_397\n      jumpi\n        /* \"#utility.yul\":5470:5549   */\n      tag_398\n      tag_276\n      jump\t// in\n    tag_398:\n        /* \"#utility.yul\":5431:5551   */\n    tag_397:\n        /* \"#utility.yul\":5590:5591   */\n      0x00\n        /* \"#utility.yul\":5615:5668   */\n      tag_399\n        /* \"#utility.yul\":5660:5667   */\n      dup9\n        /* \"#utility.yul\":5651:5657   */\n      dup3\n        /* \"#utility.yul\":5640:5649   */\n      dup10\n        /* \"#utility.yul\":5636:5658   */\n      add\n        /* \"#utility.yul\":5615:5668   */\n      tag_294\n      jump\t// in\n    tag_399:\n        /* \"#utility.yul\":5605:5668   */\n      swap6\n      pop\n        /* \"#utility.yul\":5561:5678   */\n      pop\n        /* \"#utility.yul\":5717:5719   */\n      0x20\n        /* \"#utility.yul\":5743:5796   */\n      tag_400\n        /* \"#utility.yul\":5788:5795   */\n      dup9\n        /* \"#utility.yul\":5779:5785   */\n      dup3\n        /* \"#utility.yul\":5768:5777   */\n      dup10\n        /* \"#utility.yul\":5764:5786   */\n      add\n        /* \"#utility.yul\":5743:5796   */\n      tag_294\n      jump\t// in\n    tag_400:\n        /* \"#utility.yul\":5733:5796   */\n      swap5\n      pop\n        /* \"#utility.yul\":5688:5806   */\n      pop\n        /* \"#utility.yul\":5845:5847   */\n      0x40\n        /* \"#utility.yul\":5871:5924   */\n      tag_401\n        /* \"#utility.yul\":5916:5923   */\n      dup9\n        /* \"#utility.yul\":5907:5913   */\n      dup3\n        /* \"#utility.yul\":5896:5905   */\n      dup10\n        /* \"#utility.yul\":5892:5914   */\n      add\n        /* \"#utility.yul\":5871:5924   */\n      tag_280\n      jump\t// in\n    tag_401:\n        /* \"#utility.yul\":5861:5924   */\n      swap4\n      pop\n        /* \"#utility.yul\":5816:5934   */\n      pop\n        /* \"#utility.yul\":6001:6003   */\n      0x60\n        /* \"#utility.yul\":5990:5999   */\n      dup7\n        /* \"#utility.yul\":5986:6004   */\n      add\n        /* \"#utility.yul\":5973:6005   */\n      calldataload\n        /* \"#utility.yul\":6032:6050   */\n      0xffffffffffffffff\n        /* \"#utility.yul\":6024:6030   */\n      dup2\n        /* \"#utility.yul\":6021:6051   */\n      gt\n        /* \"#utility.yul\":6018:6135   */\n      iszero\n      tag_402\n      jumpi\n        /* \"#utility.yul\":6054:6133   */\n      tag_403\n      tag_277\n      jump\t// in\n    tag_403:\n        /* \"#utility.yul\":6018:6135   */\n    tag_402:\n        /* \"#utility.yul\":6167:6231   */\n      tag_404\n        /* \"#utility.yul\":6223:6230   */\n      dup9\n        /* \"#utility.yul\":6214:6220   */\n      dup3\n        /* \"#utility.yul\":6203:6212   */\n      dup10\n        /* \"#utility.yul\":6199:6221   */\n      add\n        /* \"#utility.yul\":6167:6231   */\n      tag_298\n      jump\t// in\n    tag_404:\n        /* \"#utility.yul\":6149:6231   */\n      swap3\n      pop\n      swap3\n      pop\n        /* \"#utility.yul\":5944:6241   */\n      pop\n        /* \"#utility.yul\":5285:6248   */\n      swap3\n      swap6\n      pop\n      swap3\n      swap6\n      swap1\n      swap4\n      pop\n      jump\t// out\n        /* \"#utility.yul\":6254:6403   */\n    tag_299:\n        /* \"#utility.yul\":6290:6297   */\n      0x00\n        /* \"#utility.yul\":6330:6396   */\n      0xffffffff00000000000000000000000000000000000000000000000000000000\n        /* \"#utility.yul\":6323:6328   */\n      dup3\n        /* \"#utility.yul\":6319:6397   */\n      and\n        /* \"#utility.yul\":6308:6397   */\n      swap1\n      pop\n        /* \"#utility.yul\":6254:6403   */\n      swap2\n      swap1\n      pop\n      jump\t// out\n        /* \"#utility.yul\":6409:6524   */\n    tag_300:\n        /* \"#utility.yul\":6494:6517   */\n      tag_407\n        /* \"#utility.yul\":6511:6516   */\n      dup2\n        /* \"#utility.yul\":6494:6517   */\n      tag_299\n      jump\t// in\n    tag_407:\n        /* \"#utility.yul\":6489:6492   */\n      dup3\n        /* \"#utility.yul\":6482:6518   */\n      mstore\n        /* \"#utility.yul\":6409:6524   */\n      pop\n      pop\n      jump\t// out\n        /* \"#utility.yul\":6530:6748   */\n    tag_42:\n        /* \"#utility.yul\":6621:6625   */\n      0x00\n        /* \"#utility.yul\":6659:6661   */\n      0x20\n        /* \"#utility.yul\":6648:6657   */\n      dup3\n        /* \"#utility.yul\":6644:6662   */\n      add\n        /* \"#utility.yul\":6636:6662   */\n      swap1\n      pop\n        /* \"#utility.yul\":6672:6741   */\n      tag_409\n        /* \"#utility.yul\":6738:6739   */\n      0x00\n        /* \"#utility.yul\":6727:6736   */\n      dup4\n        /* \"#utility.yul\":6723:6740   */\n      add\n        /* \"#utility.yul\":6714:6720   */\n      dup5\n        /* \"#utility.yul\":6672:6741   */\n      tag_300\n      jump\t// in\n    tag_409:\n        /* \"#utility.yul\":6530:6748   */\n      swap3\n      swap2\n      pop\n      pop\n      jump\t// out\n        /* \"#utility.yul\":6754:7228   */\n    tag_46:\n        /* \"#utility.yul\":6822:6828   */\n      0x00\n        /* \"#utility.yul\":6830:6836   */\n      0x00\n        /* \"#utility.yul\":6879:6881   */\n      0x40\n        /* \"#utility.yul\":6867:6876   */\n      dup4\n        /* \"#utility.yul\":6858:6865   */\n      dup6\n        /* \"#utility.yul\":6854:6877   */\n      sub\n        /* \"#utility.yul\":6850:6882   */\n      slt\n        /* \"#utility.yul\":6847:6966   */\n      iszero\n      tag_411\n      jumpi\n        /* \"#utility.yul\":6885:6964   */\n      tag_412\n      tag_276\n      jump\t// in\n    tag_412:\n        /* \"#utility.yul\":6847:6966   */\n    tag_411:\n        /* \"#utility.yul\":7005:7006   */\n      0x00\n        /* \"#utility.yul\":7030:7083   */\n      tag_413\n        /* \"#utility.yul\":7075:7082   */\n      dup6\n        /* \"#utility.yul\":7066:7072   */\n      dup3\n        /* \"#utility.yul\":7055:7064   */\n      dup7\n        /* \"#utility.yul\":7051:7073   */\n      add\n        /* \"#utility.yul\":7030:7083   */\n      tag_280\n      jump\t// in\n    tag_413:\n        /* \"#utility.yul\":7020:7083   */\n      swap3\n      pop\n        /* \"#utility.yul\":6976:7093   */\n      pop\n        /* \"#utility.yul\":7132:7134   */\n      0x20\n        /* \"#utility.yul\":7158:7211   */\n      tag_414\n        /* \"#utility.yul\":7203:7210   */\n      dup6\n        /* \"#utility.yul\":7194:7200   */\n      dup3\n        /* \"#utility.yul\":7183:7192   */\n      dup7\n        /* \"#utility.yul\":7179:7201   */\n      add\n        /* \"#utility.yul\":7158:7211   */\n      tag_280\n      jump\t// in\n    tag_414:\n        /* \"#utility.yul\":7148:7211   */\n      swap2\n      pop\n        /* \"#utility.yul\":7103:7221   */\n      pop\n        /* \"#utility.yul\":6754:7228   */\n      swap3\n      pop\n      swap3\n      swap1\n      pop\n      jump\t// out\n        /* \"#utility.yul\":7234:7708   */\n    tag_51:\n        /* \"#utility.yul\":7302:7308   */\n      0x00\n        /* \"#utility.yul\":7310:7316   */\n      0x00\n        /* \"#utility.yul\":7359:7361   */\n      0x40\n        /* \"#utility.yul\":7347:7356   */\n      dup4\n        /* \"#utility.yul\":7338:7345   */\n      dup6\n        /* \"#utility.yul\":7334:7357   */\n      sub\n        /* \"#utility.yul\":7330:7362   */\n      slt\n        /* \"#utility.yul\":7327:7446   */\n      iszero\n      tag_416\n      jumpi\n        /* \"#utility.yul\":7365:7444   */\n      tag_417\n      tag_276\n      jump\t// in\n    tag_417:\n        /* \"#utility.yul\":7327:7446   */\n    tag_416:\n        /* \"#utility.yul\":7485:7486   */\n      0x00\n        /* \"#utility.yul\":7510:7563   */\n      tag_418\n        /* \"#utility.yul\":7555:7562   */\n      dup6\n        /* \"#utility.yul\":7546:7552   */\n      dup3\n        /* \"#utility.yul\":7535:7544   */\n      dup7\n        /* \"#utility.yul\":7531:7553   */\n      add\n        /* \"#utility.yul\":7510:7563   */\n      tag_280\n      jump\t// in\n    tag_418:\n        /* \"#utility.yul\":7500:7563   */\n      swap3\n      pop\n        /* \"#utility.yul\":7456:7573   */\n      pop\n        /* \"#utility.yul\":7612:7614   */\n      0x20\n        /* \"#utility.yul\":7638:7691   */\n      tag_419\n        /* \"#utility.yul\":7683:7690   */\n      dup6\n        /* \"#utility.yul\":7674:7680   */\n      dup3\n        /* \"#utility.yul\":7663:7672   */\n      dup7\n        /* \"#utility.yul\":7659:7681   */\n      add\n        /* \"#utility.yul\":7638:7691   */\n      tag_294\n      jump\t// in\n    tag_419:\n        /* \"#utility.yul\":7628:7691   */\n      swap2\n      pop\n        /* \"#utility.yul\":7583:7701   */\n      pop\n        /* \"#utility.yul\":7234:7708   */\n      swap3\n      pop\n      swap3\n      swap1\n      pop\n      jump\t// out\n        /* \"#utility.yul\":7714:8188   */\n    tag_56:\n        /* \"#utility.yul\":7782:7788   */\n      0x00\n        /* \"#utility.yul\":7790:7796   */\n      0x00\n        /* \"#utility.yul\":7839:7841   */\n      0x40\n        /* \"#utility.yul\":7827:7836   */\n      dup4\n        /* \"#utility.yul\":7818:7825   */\n      dup6\n        /* \"#utility.yul\":7814:7837   */\n      sub\n        /* \"#utility.yul\":7810:7842   */\n      slt\n        /* \"#utility.yul\":7807:7926   */\n      iszero\n      tag_421\n      jumpi\n        /* \"#utility.yul\":7845:7924   */\n      tag_422\n      tag_276\n      jump\t// in\n    tag_422:\n        /* \"#utility.yul\":7807:7926   */\n    tag_421:\n        /* \"#utility.yul\":7965:7966   */\n      0x00\n        /* \"#utility.yul\":7990:8043   */\n      tag_423\n        /* \"#utility.yul\":8035:8042   */\n      dup6\n        /* \"#utility.yul\":8026:8032   */\n      dup3\n        /* \"#utility.yul\":8015:8024   */\n      dup7\n        /* \"#utility.yul\":8011:8033   */\n      add\n        /* \"#utility.yul\":7990:8043   */\n      tag_294\n      jump\t// in\n    tag_423:\n        /* \"#utility.yul\":7980:8043   */\n      swap3\n      pop\n        /* \"#utility.yul\":7936:8053   */\n      pop\n        /* \"#utility.yul\":8092:8094   */\n      0x20\n        /* \"#utility.yul\":8118:8171   */\n      tag_424\n        /* \"#utility.yul\":8163:8170   */\n      dup6\n        /* \"#utility.yul\":8154:8160   */\n      dup3\n        /* \"#utility.yul\":8143:8152   */\n      dup7\n        /* \"#utility.yul\":8139:8161   */\n      add\n        /* \"#utility.yul\":8118:8171   */\n      tag_294\n      jump\t// in\n    tag_424:\n        /* \"#utility.yul\":8108:8171   */\n      swap2\n      pop\n        /* \"#utility.yul\":8063:8181   */\n      pop\n        /* \"#utility.yul\":7714:8188   */\n      swap3\n      pop\n      swap3\n      swap1\n      pop\n      jump\t// out\n        /* \"#utility.yul\":8194:8298   */\n    tag_301:\n        /* \"#utility.yul\":8239:8246   */\n      0x00\n        /* \"#utility.yul\":8268:8292   */\n      tag_426\n        /* \"#utility.yul\":8286:8291   */\n      dup3\n        /* \"#utility.yul\":8268:8292   */\n      tag_281\n      jump\t// in\n    tag_426:\n        /* \"#utility.yul\":8257:8292   */\n      swap1\n      pop\n        /* \"#utility.yul\":8194:8298   */\n      swap2\n      swap1\n      pop\n      jump\t// out\n        /* \"#utility.yul\":8304:8446   */\n    tag_302:\n        /* \"#utility.yul\":8407:8439   */\n      tag_428\n        /* \"#utility.yul\":8433:8438   */\n      dup2\n        /* \"#utility.yul\":8407:8439   */\n      tag_301\n      jump\t// in\n    tag_428:\n        /* \"#utility.yul\":8402:8405   */\n      dup3\n        /* \"#utility.yul\":8395:8440   */\n      mstore\n        /* \"#utility.yul\":8304:8446   */\n      pop\n      pop\n      jump\t// out\n        /* \"#utility.yul\":8452:8706   */\n    tag_62:\n        /* \"#utility.yul\":8561:8565   */\n      0x00\n        /* \"#utility.yul\":8599:8601   */\n      0x20\n        /* \"#utility.yul\":8588:8597   */\n      dup3\n        /* \"#utility.yul\":8584:8602   */\n      add\n        /* \"#utility.yul\":8576:8602   */\n      swap1\n      pop\n        /* \"#utility.yul\":8612:8699   */\n      tag_430\n        /* \"#utility.yul\":8696:8697   */\n      0x00\n        /* \"#utility.yul\":8685:8694   */\n      dup4\n        /* \"#utility.yul\":8681:8698   */\n      add\n        /* \"#utility.yul\":8672:8678   */\n      dup5\n        /* \"#utility.yul\":8612:8699   */\n      tag_302\n      jump\t// in\n    tag_430:\n        /* \"#utility.yul\":8452:8706   */\n      swap3\n      swap2\n      pop\n      pop\n      jump\t// out\n        /* \"#utility.yul\":8712:8772   */\n    tag_303:\n        /* \"#utility.yul\":8740:8743   */\n      0x00\n        /* \"#utility.yul\":8761:8766   */\n      dup2\n        /* \"#utility.yul\":8754:8766   */\n      swap1\n      pop\n        /* \"#utility.yul\":8712:8772   */\n      swap2\n      swap1\n      pop\n      jump\t// out\n        /* \"#utility.yul\":8778:8920   */\n    tag_304:\n        /* \"#utility.yul\":8828:8837   */\n      0x00\n        /* \"#utility.yul\":8861:8914   */\n      tag_433\n        /* \"#utility.yul\":8879:8913   */\n      tag_434\n        /* \"#utility.yul\":8888:8912   */\n      tag_435\n        /* \"#utility.yul\":8906:8911   */\n      dup5\n        /* \"#utility.yul\":8888:8912   */\n      tag_281\n      jump\t// in\n    tag_435:\n        /* \"#utility.yul\":8879:8913   */\n      tag_303\n      jump\t// in\n    tag_434:\n        /* \"#utility.yul\":8861:8914   */\n      tag_281\n      jump\t// in\n    tag_433:\n        /* \"#utility.yul\":8848:8914   */\n      swap1\n      pop\n        /* \"#utility.yul\":8778:8920   */\n      swap2\n      swap1\n      pop\n      jump\t// out\n        /* \"#utility.yul\":8926:9052   */\n    tag_305:\n        /* \"#utility.yul\":8976:8985   */\n      0x00\n        /* \"#utility.yul\":9009:9046   */\n      tag_437\n        /* \"#utility.yul\":9040:9045   */\n      dup3\n        /* \"#utility.yul\":9009:9046   */\n      tag_304\n      jump\t// in\n    tag_437:\n        /* \"#utility.yul\":8996:9046   */\n      swap1\n      pop\n        /* \"#utility.yul\":8926:9052   */\n      swap2\n      swap1\n      pop\n      jump\t// out\n        /* \"#utility.yul\":9058:9198   */\n    tag_306:\n        /* \"#utility.yul\":9122:9131   */\n      0x00\n        /* \"#utility.yul\":9155:9192   */\n      tag_439\n        /* \"#utility.yul\":9186:9191   */\n      dup3\n        /* \"#utility.yul\":9155:9192   */\n      tag_305\n      jump\t// in\n    tag_439:\n        /* \"#utility.yul\":9142:9192   */\n      swap1\n      pop\n        /* \"#utility.yul\":9058:9198   */\n      swap2\n      swap1\n      pop\n      jump\t// out\n        /* \"#utility.yul\":9204:9363   */\n    tag_307:\n        /* \"#utility.yul\":9305:9356   */\n      tag_441\n        /* \"#utility.yul\":9350:9355   */\n      dup2\n        /* \"#utility.yul\":9305:9356   */\n      tag_306\n      jump\t// in\n    tag_441:\n        /* \"#utility.yul\":9300:9303   */\n      dup3\n        /* \"#utility.yul\":9293:9357   */\n      mstore\n        /* \"#utility.yul\":9204:9363   */\n      pop\n      pop\n      jump\t// out\n        /* \"#utility.yul\":9369:9619   */\n    tag_70:\n        /* \"#utility.yul\":9476:9480   */\n      0x00\n        /* \"#utility.yul\":9514:9516   */\n      0x20\n        /* \"#utility.yul\":9503:9512   */\n      dup3\n        /* \"#utility.yul\":9499:9517   */\n      add\n        /* \"#utility.yul\":9491:9517   */\n      swap1\n      pop\n        /* \"#utility.yul\":9527:9612   */\n      tag_443\n        /* \"#utility.yul\":9609:9610   */\n      0x00\n        /* \"#utility.yul\":9598:9607   */\n      dup4\n        /* \"#utility.yul\":9594:9611   */\n      add\n        /* \"#utility.yul\":9585:9591   */\n      dup5\n        /* \"#utility.yul\":9527:9612   */\n      tag_307\n      jump\t// in\n    tag_443:\n        /* \"#utility.yul\":9369:9619   */\n      swap3\n      swap2\n      pop\n      pop\n      jump\t// out\n        /* \"#utility.yul\":9625:9847   */\n    tag_75:\n        /* \"#utility.yul\":9718:9722   */\n      0x00\n        /* \"#utility.yul\":9756:9758   */\n      0x20\n        /* \"#utility.yul\":9745:9754   */\n      dup3\n        /* \"#utility.yul\":9741:9759   */\n      add\n        /* \"#utility.yul\":9733:9759   */\n      swap1\n      pop\n        /* \"#utility.yul\":9769:9840   */\n      tag_445\n        /* \"#utility.yul\":9837:9838   */\n      0x00\n        /* \"#utility.yul\":9826:9835   */\n      dup4\n        /* \"#utility.yul\":9822:9839   */\n      add\n        /* \"#utility.yul\":9813:9819   */\n      dup5\n        /* \"#utility.yul\":9769:9840   */\n      tag_283\n      jump\t// in\n    tag_445:\n        /* \"#utility.yul\":9625:9847   */\n      swap3\n      swap2\n      pop\n      pop\n      jump\t// out\n        /* \"#utility.yul\":9853:9969   */\n    tag_308:\n        /* \"#utility.yul\":9923:9944   */\n      tag_447\n        /* \"#utility.yul\":9938:9943   */\n      dup2\n        /* \"#utility.yul\":9923:9944   */\n      tag_285\n      jump\t// in\n    tag_447:\n        /* \"#utility.yul\":9916:9921   */\n      dup2\n        /* \"#utility.yul\":9913:9945   */\n      eq\n        /* \"#utility.yul\":9903:9963   */\n      tag_448\n      jumpi\n        /* \"#utility.yul\":9959:9960   */\n      0x00\n        /* \"#utility.yul\":9956:9957   */\n      0x00\n        /* \"#utility.yul\":9949:9961   */\n      revert\n        /* \"#utility.yul\":9903:9963   */\n    tag_448:\n        /* \"#utility.yul\":9853:9969   */\n      pop\n      jump\t// out\n        /* \"#utility.yul\":9975:10108   */\n    tag_309:\n        /* \"#utility.yul\":10018:10023   */\n      0x00\n        /* \"#utility.yul\":10056:10062   */\n      dup2\n        /* \"#utility.yul\":10043:10063   */\n      calldataload\n        /* \"#utility.yul\":10034:10063   */\n      swap1\n      pop\n        /* \"#utility.yul\":10072:10102   */\n      tag_450\n        /* \"#utility.yul\":10096:10101   */\n      dup2\n        /* \"#utility.yul\":10072:10102   */\n      tag_308\n      jump\t// in\n    tag_450:\n        /* \"#utility.yul\":9975:10108   */\n      swap3\n      swap2\n      pop\n      pop\n      jump\t// out\n        /* \"#utility.yul\":10114:10873   */\n    tag_79:\n        /* \"#utility.yul\":10197:10203   */\n      0x00\n        /* \"#utility.yul\":10205:10211   */\n      0x00\n        /* \"#utility.yul\":10213:10219   */\n      0x00\n        /* \"#utility.yul\":10221:10227   */\n      0x00\n        /* \"#utility.yul\":10270:10273   */\n      0x80\n        /* \"#utility.yul\":10258:10267   */\n      dup6\n        /* \"#utility.yul\":10249:10256   */\n      dup8\n        /* \"#utility.yul\":10245:10268   */\n      sub\n        /* \"#utility.yul\":10241:10274   */\n      slt\n        /* \"#utility.yul\":10238:10358   */\n      iszero\n      tag_452\n      jumpi\n        /* \"#utility.yul\":10277:10356   */\n      tag_453\n      tag_276\n      jump\t// in\n    tag_453:\n        /* \"#utility.yul\":10238:10358   */\n    tag_452:\n        /* \"#utility.yul\":10397:10398   */\n      0x00\n        /* \"#utility.yul\":10422:10475   */\n      tag_454\n        /* \"#utility.yul\":10467:10474   */\n      dup8\n        /* \"#utility.yul\":10458:10464   */\n      dup3\n        /* \"#utility.yul\":10447:10456   */\n      dup9\n        /* \"#utility.yul\":10443:10465   */\n      add\n        /* \"#utility.yul\":10422:10475   */\n      tag_280\n      jump\t// in\n    tag_454:\n        /* \"#utility.yul\":10412:10475   */\n      swap5\n      pop\n        /* \"#utility.yul\":10368:10485   */\n      pop\n        /* \"#utility.yul\":10524:10526   */\n      0x20\n        /* \"#utility.yul\":10550:10603   */\n      tag_455\n        /* \"#utility.yul\":10595:10602   */\n      dup8\n        /* \"#utility.yul\":10586:10592   */\n      dup3\n        /* \"#utility.yul\":10575:10584   */\n      dup9\n        /* \"#utility.yul\":10571:10593   */\n      add\n        /* \"#utility.yul\":10550:10603   */\n      tag_294\n      jump\t// in\n    tag_455:\n        /* \"#utility.yul\":10540:10603   */\n      swap4\n      pop\n        /* \"#utility.yul\":10495:10613   */\n      pop\n        /* \"#utility.yul\":10652:10654   */\n      0x40\n        /* \"#utility.yul\":10678:10731   */\n      tag_456\n        /* \"#utility.yul\":10723:10730   */\n      dup8\n        /* \"#utility.yul\":10714:10720   */\n      dup3\n        /* \"#utility.yul\":10703:10712   */\n      dup9\n        /* \"#utility.yul\":10699:10721   */\n      add\n        /* \"#utility.yul\":10678:10731   */\n      tag_280\n      jump\t// in\n    tag_456:\n        /* \"#utility.yul\":10668:10731   */\n      swap3\n      pop\n        /* \"#utility.yul\":10623:10741   */\n      pop\n        /* \"#utility.yul\":10780:10782   */\n      0x60\n        /* \"#utility.yul\":10806:10856   */\n      tag_457\n        /* \"#utility.yul\":10848:10855   */\n      dup8\n        /* \"#utility.yul\":10839:10845   */\n      dup3\n        /* \"#utility.yul\":10828:10837   */\n      dup9\n        /* \"#utility.yul\":10824:10846   */\n      add\n        /* \"#utility.yul\":10806:10856   */\n      tag_309\n      jump\t// in\n    tag_457:\n        /* \"#utility.yul\":10796:10856   */\n      swap2\n      pop\n        /* \"#utility.yul\":10751:10866   */\n      pop\n        /* \"#utility.yul\":10114:10873   */\n      swap3\n      swap6\n      swap2\n      swap5\n      pop\n      swap3\n      pop\n      jump\t// out\n        /* \"#utility.yul\":10879:11498   */\n    tag_84:\n        /* \"#utility.yul\":10956:10962   */\n      0x00\n        /* \"#utility.yul\":10964:10970   */\n      0x00\n        /* \"#utility.yul\":10972:10978   */\n      0x00\n        /* \"#utility.yul\":11021:11023   */\n      0x60\n        /* \"#utility.yul\":11009:11018   */\n      dup5\n        /* \"#utility.yul\":11000:11007   */\n      dup7\n        /* \"#utility.yul\":10996:11019   */\n      sub\n        /* \"#utility.yul\":10992:11024   */\n      slt\n        /* \"#utility.yul\":10989:11108   */\n      iszero\n      tag_459\n      jumpi\n        /* \"#utility.yul\":11027:11106   */\n      tag_460\n      tag_276\n      jump\t// in\n    tag_460:\n        /* \"#utility.yul\":10989:11108   */\n    tag_459:\n        /* \"#utility.yul\":11147:11148   */\n      0x00\n        /* \"#utility.yul\":11172:11225   */\n      tag_461\n        /* \"#utility.yul\":11217:11224   */\n      dup7\n        /* \"#utility.yul\":11208:11214   */\n      dup3\n        /* \"#utility.yul\":11197:11206   */\n      dup8\n        /* \"#utility.yul\":11193:11215   */\n      add\n        /* \"#utility.yul\":11172:11225   */\n      tag_280\n      jump\t// in\n    tag_461:\n        /* \"#utility.yul\":11162:11225   */\n      swap4\n      pop\n        /* \"#utility.yul\":11118:11235   */\n      pop\n        /* \"#utility.yul\":11274:11276   */\n      0x20\n        /* \"#utility.yul\":11300:11353   */\n      tag_462\n        /* \"#utility.yul\":11345:11352   */\n      dup7\n        /* \"#utility.yul\":11336:11342   */\n      dup3\n        /* \"#utility.yul\":11325:11334   */\n      dup8\n        /* \"#utility.yul\":11321:11343   */\n      add\n        /* \"#utility.yul\":11300:11353   */\n      tag_280\n      jump\t// in\n    tag_462:\n        /* \"#utility.yul\":11290:11353   */\n      swap3\n      pop\n        /* \"#utility.yul\":11245:11363   */\n      pop\n        /* \"#utility.yul\":11402:11404   */\n      0x40\n        /* \"#utility.yul\":11428:11481   */\n      tag_463\n        /* \"#utility.yul\":11473:11480   */\n      dup7\n        /* \"#utility.yul\":11464:11470   */\n      dup3\n        /* \"#utility.yul\":11453:11462   */\n      dup8\n        /* \"#utility.yul\":11449:11471   */\n      add\n        /* \"#utility.yul\":11428:11481   */\n      tag_294\n      jump\t// in\n    tag_463:\n        /* \"#utility.yul\":11418:11481   */\n      swap2\n      pop\n        /* \"#utility.yul\":11373:11491   */\n      pop\n        /* \"#utility.yul\":10879:11498   */\n      swap3\n      pop\n      swap3\n      pop\n      swap3\n      jump\t// out\n        /* \"#utility.yul\":11504:11833   */\n    tag_89:\n        /* \"#utility.yul\":11563:11569   */\n      0x00\n        /* \"#utility.yul\":11612:11614   */\n      0x20\n        /* \"#utility.yul\":11600:11609   */\n      dup3\n        /* \"#utility.yul\":11591:11598   */\n      dup5\n        /* \"#utility.yul\":11587:11610   */\n      sub\n        /* \"#utility.yul\":11583:11615   */\n      slt\n        /* \"#utility.yul\":11580:11699   */\n      iszero\n      tag_465\n      jumpi\n        /* \"#utility.yul\":11618:11697   */\n      tag_466\n      tag_276\n      jump\t// in\n    tag_466:\n        /* \"#utility.yul\":11580:11699   */\n    tag_465:\n        /* \"#utility.yul\":11738:11739   */\n      0x00\n        /* \"#utility.yul\":11763:11816   */\n      tag_467\n        /* \"#utility.yul\":11808:11815   */\n      dup5\n        /* \"#utility.yul\":11799:11805   */\n      dup3\n        /* \"#utility.yul\":11788:11797   */\n      dup6\n        /* \"#utility.yul\":11784:11806   */\n      add\n        /* \"#utility.yul\":11763:11816   */\n      tag_294\n      jump\t// in\n    tag_467:\n        /* \"#utility.yul\":11753:11816   */\n      swap2\n      pop\n        /* \"#utility.yul\":11709:11826   */\n      pop\n        /* \"#utility.yul\":11504:11833   */\n      swap3\n      swap2\n      pop\n      pop\n      jump\t// out\n        /* \"#utility.yul\":11839:11977   */\n    tag_310:\n        /* \"#utility.yul\":11920:11952   */\n      tag_469\n        /* \"#utility.yul\":11946:11951   */\n      dup2\n        /* \"#utility.yul\":11920:11952   */\n      tag_301\n      jump\t// in\n    tag_469:\n        /* \"#utility.yul\":11913:11918   */\n      dup2\n        /* \"#utility.yul\":11910:11953   */\n      eq\n        /* \"#utility.yul\":11900:11971   */\n      tag_470\n      jumpi\n        /* \"#utility.yul\":11967:11968   */\n      0x00\n        /* \"#utility.yul\":11964:11965   */\n      0x00\n        /* \"#utility.yul\":11957:11969   */\n      revert\n        /* \"#utility.yul\":11900:11971   */\n    tag_470:\n        /* \"#utility.yul\":11839:11977   */\n      pop\n      jump\t// out\n        /* \"#utility.yul\":11983:12138   */\n    tag_311:\n        /* \"#utility.yul\":12037:12042   */\n      0x00\n        /* \"#utility.yul\":12075:12081   */\n      dup2\n        /* \"#utility.yul\":12062:12082   */\n      calldataload\n        /* \"#utility.yul\":12053:12082   */\n      swap1\n      pop\n        /* \"#utility.yul\":12091:12132   */\n      tag_472\n        /* \"#utility.yul\":12126:12131   */\n      dup2\n        /* \"#utility.yul\":12091:12132   */\n      tag_310\n      jump\t// in\n    tag_472:\n        /* \"#utility.yul\":11983:12138   */\n      swap3\n      swap2\n      pop\n      pop\n      jump\t// out\n        /* \"#utility.yul\":12144:12489   */\n    tag_98:\n        /* \"#utility.yul\":12211:12217   */\n      0x00\n        /* \"#utility.yul\":12260:12262   */\n      0x20\n        /* \"#utility.yul\":12248:12257   */\n      dup3\n        /* \"#utility.yul\":12239:12246   */\n      dup5\n        /* \"#utility.yul\":12235:12258   */\n      sub\n        /* \"#utility.yul\":12231:12263   */\n      slt\n        /* \"#utility.yul\":12228:12347   */\n      iszero\n      tag_474\n      jumpi\n        /* \"#utility.yul\":12266:12345   */\n      tag_475\n      tag_276\n      jump\t// in\n    tag_475:\n        /* \"#utility.yul\":12228:12347   */\n    tag_474:\n        /* \"#utility.yul\":12386:12387   */\n      0x00\n        /* \"#utility.yul\":12411:12472   */\n      tag_476\n        /* \"#utility.yul\":12464:12471   */\n      dup5\n        /* \"#utility.yul\":12455:12461   */\n      dup3\n        /* \"#utility.yul\":12444:12453   */\n      dup6\n        /* \"#utility.yul\":12440:12462   */\n      add\n        /* \"#utility.yul\":12411:12472   */\n      tag_311\n      jump\t// in\n    tag_476:\n        /* \"#utility.yul\":12401:12472   */\n      swap2\n      pop\n        /* \"#utility.yul\":12357:12482   */\n      pop\n        /* \"#utility.yul\":12144:12489   */\n      swap3\n      swap2\n      pop\n      pop\n      jump\t// out\n        /* \"#utility.yul\":12495:12675   */\n    tag_312:\n        /* \"#utility.yul\":12543:12620   */\n      0x4e487b7100000000000000000000000000000000000000000000000000000000\n        /* \"#utility.yul\":12540:12541   */\n      0x00\n        /* \"#utility.yul\":12533:12621   */\n      mstore\n        /* \"#utility.yul\":12640:12644   */\n      0x11\n        /* \"#utility.yul\":12637:12638   */\n      0x04\n        /* \"#utility.yul\":12630:12645   */\n      mstore\n        /* \"#utility.yul\":12664:12668   */\n      0x24\n        /* \"#utility.yul\":12661:12662   */\n      0x00\n        /* \"#utility.yul\":12654:12669   */\n      revert\n        /* \"#utility.yul\":12681:13091   */\n    tag_113:\n        /* \"#utility.yul\":12721:12728   */\n      0x00\n        /* \"#utility.yul\":12744:12764   */\n      tag_479\n        /* \"#utility.yul\":12762:12763   */\n      dup3\n        /* \"#utility.yul\":12744:12764   */\n      tag_278\n      jump\t// in\n    tag_479:\n        /* \"#utility.yul\":12739:12764   */\n      swap2\n      pop\n        /* \"#utility.yul\":12778:12798   */\n      tag_480\n        /* \"#utility.yul\":12796:12797   */\n      dup4\n        /* \"#utility.yul\":12778:12798   */\n      tag_278\n      jump\t// in\n    tag_480:\n        /* \"#utility.yul\":12773:12798   */\n      swap3\n      pop\n        /* \"#utility.yul\":12833:12834   */\n      dup3\n        /* \"#utility.yul\":12830:12831   */\n      dup3\n        /* \"#utility.yul\":12826:12835   */\n      mul\n        /* \"#utility.yul\":12855:12885   */\n      tag_481\n        /* \"#utility.yul\":12873:12884   */\n      dup2\n        /* \"#utility.yul\":12855:12885   */\n      tag_278\n      jump\t// in\n    tag_481:\n        /* \"#utility.yul\":12844:12885   */\n      swap2\n      pop\n        /* \"#utility.yul\":13034:13035   */\n      dup3\n        /* \"#utility.yul\":13025:13032   */\n      dup3\n        /* \"#utility.yul\":13021:13036   */\n      div\n        /* \"#utility.yul\":13018:13019   */\n      dup5\n        /* \"#utility.yul\":13015:13037   */\n      eq\n        /* \"#utility.yul\":12995:12996   */\n      dup4\n        /* \"#utility.yul\":12988:12997   */\n      iszero\n        /* \"#utility.yul\":12968:13051   */\n      or\n        /* \"#utility.yul\":12945:13084   */\n      tag_482\n      jumpi\n        /* \"#utility.yul\":13064:13082   */\n      tag_483\n      tag_312\n      jump\t// in\n    tag_483:\n        /* \"#utility.yul\":12945:13084   */\n    tag_482:\n        /* \"#utility.yul\":12729:13091   */\n      pop\n        /* \"#utility.yul\":12681:13091   */\n      swap3\n      swap2\n      pop\n      pop\n      jump\t// out\n        /* \"#utility.yul\":13097:13266   */\n    tag_313:\n        /* \"#utility.yul\":13181:13192   */\n      0x00\n        /* \"#utility.yul\":13215:13221   */\n      dup3\n        /* \"#utility.yul\":13210:13213   */\n      dup3\n        /* \"#utility.yul\":13203:13222   */\n      mstore\n        /* \"#utility.yul\":13255:13259   */\n      0x20\n        /* \"#utility.yul\":13250:13253   */\n      dup3\n        /* \"#utility.yul\":13246:13260   */\n      add\n        /* \"#utility.yul\":13231:13260   */\n      swap1\n      pop\n        /* \"#utility.yul\":13097:13266   */\n      swap3\n      swap2\n      pop\n      pop\n      jump\t// out\n        /* \"#utility.yul\":13272:13443   */\n    tag_314:\n        /* \"#utility.yul\":13412:13435   */\n      0x7065726d69742076616c7565206d69736d617463680000000000000000000000\n        /* \"#utility.yul\":13408:13409   */\n      0x00\n        /* \"#utility.yul\":13400:13406   */\n      dup3\n        /* \"#utility.yul\":13396:13410   */\n      add\n        /* \"#utility.yul\":13389:13436   */\n      mstore\n        /* \"#utility.yul\":13272:13443   */\n      pop\n      jump\t// out\n        /* \"#utility.yul\":13449:13815   */\n    tag_315:\n        /* \"#utility.yul\":13591:13594   */\n      0x00\n        /* \"#utility.yul\":13612:13679   */\n      tag_487\n        /* \"#utility.yul\":13676:13678   */\n      0x15\n        /* \"#utility.yul\":13671:13674   */\n      dup4\n        /* \"#utility.yul\":13612:13679   */\n      tag_313\n      jump\t// in\n    tag_487:\n        /* \"#utility.yul\":13605:13679   */\n      swap2\n      pop\n        /* \"#utility.yul\":13688:13781   */\n      tag_488\n        /* \"#utility.yul\":13777:13780   */\n      dup3\n        /* \"#utility.yul\":13688:13781   */\n      tag_314\n      jump\t// in\n    tag_488:\n        /* \"#utility.yul\":13806:13808   */\n      0x20\n        /* \"#utility.yul\":13801:13804   */\n      dup3\n        /* \"#utility.yul\":13797:13809   */\n      add\n        /* \"#utility.yul\":13790:13809   */\n      swap1\n      pop\n        /* \"#utility.yul\":13449:13815   */\n      swap2\n      swap1\n      pop\n      jump\t// out\n        /* \"#utility.yul\":13821:14240   */\n    tag_116:\n        /* \"#utility.yul\":13987:13991   */\n      0x00\n        /* \"#utility.yul\":14025:14027   */\n      0x20\n        /* \"#utility.yul\":14014:14023   */\n      dup3\n        /* \"#utility.yul\":14010:14028   */\n      add\n        /* \"#utility.yul\":14002:14028   */\n      swap1\n      pop\n        /* \"#utility.yul\":14074:14083   */\n      dup2\n        /* \"#utility.yul\":14068:14072   */\n      dup2\n        /* \"#utility.yul\":14064:14084   */\n      sub\n        /* \"#utility.yul\":14060:14061   */\n      0x00\n        /* \"#utility.yul\":14049:14058   */\n      dup4\n        /* \"#utility.yul\":14045:14062   */\n      add\n        /* \"#utility.yul\":14038:14085   */\n      mstore\n        /* \"#utility.yul\":14102:14233   */\n      tag_490\n        /* \"#utility.yul\":14228:14232   */\n      dup2\n        /* \"#utility.yul\":14102:14233   */\n      tag_315\n      jump\t// in\n    tag_490:\n        /* \"#utility.yul\":14094:14233   */\n      swap1\n      pop\n        /* \"#utility.yul\":13821:14240   */\n      swap2\n      swap1\n      pop\n      jump\t// out\n        /* \"#utility.yul\":14246:14358   */\n    tag_316:\n        /* \"#utility.yul\":14329:14351   */\n      tag_492\n        /* \"#utility.yul\":14345:14350   */\n      dup2\n        /* \"#utility.yul\":14329:14351   */\n      tag_287\n      jump\t// in\n    tag_492:\n        /* \"#utility.yul\":14324:14327   */\n      dup3\n        /* \"#utility.yul\":14317:14352   */\n      mstore\n        /* \"#utility.yul\":14246:14358   */\n      pop\n      pop\n      jump\t// out\n        /* \"#utility.yul\":14364:14482   */\n    tag_317:\n        /* \"#utility.yul\":14451:14475   */\n      tag_494\n        /* \"#utility.yul\":14469:14474   */\n      dup2\n        /* \"#utility.yul\":14451:14475   */\n      tag_290\n      jump\t// in\n    tag_494:\n        /* \"#utility.yul\":14446:14449   */\n      dup3\n        /* \"#utility.yul\":14439:14476   */\n      mstore\n        /* \"#utility.yul\":14364:14482   */\n      pop\n      pop\n      jump\t// out\n        /* \"#utility.yul\":14488:15366   */\n    tag_118:\n        /* \"#utility.yul\":14745:14749   */\n      0x00\n        /* \"#utility.yul\":14783:14786   */\n      0xe0\n        /* \"#utility.yul\":14772:14781   */\n      dup3\n        /* \"#utility.yul\":14768:14787   */\n      add\n        /* \"#utility.yul\":14760:14787   */\n      swap1\n      pop\n        /* \"#utility.yul\":14797:14868   */\n      tag_496\n        /* \"#utility.yul\":14865:14866   */\n      0x00\n        /* \"#utility.yul\":14854:14863   */\n      dup4\n        /* \"#utility.yul\":14850:14867   */\n      add\n        /* \"#utility.yul\":14841:14847   */\n      dup11\n        /* \"#utility.yul\":14797:14868   */\n      tag_283\n      jump\t// in\n    tag_496:\n        /* \"#utility.yul\":14878:14950   */\n      tag_497\n        /* \"#utility.yul\":14946:14948   */\n      0x20\n        /* \"#utility.yul\":14935:14944   */\n      dup4\n        /* \"#utility.yul\":14931:14949   */\n      add\n        /* \"#utility.yul\":14922:14928   */\n      dup10\n        /* \"#utility.yul\":14878:14950   */\n      tag_283\n      jump\t// in\n    tag_497:\n        /* \"#utility.yul\":14960:15032   */\n      tag_498\n        /* \"#utility.yul\":15028:15030   */\n      0x40\n        /* \"#utility.yul\":15017:15026   */\n      dup4\n        /* \"#utility.yul\":15013:15031   */\n      add\n        /* \"#utility.yul\":15004:15010   */\n      dup9\n        /* \"#utility.yul\":14960:15032   */\n      tag_284\n      jump\t// in\n    tag_498:\n        /* \"#utility.yul\":15042:15114   */\n      tag_499\n        /* \"#utility.yul\":15110:15112   */\n      0x60\n        /* \"#utility.yul\":15099:15108   */\n      dup4\n        /* \"#utility.yul\":15095:15113   */\n      add\n        /* \"#utility.yul\":15086:15092   */\n      dup8\n        /* \"#utility.yul\":15042:15114   */\n      tag_284\n      jump\t// in\n    tag_499:\n        /* \"#utility.yul\":15124:15193   */\n      tag_500\n        /* \"#utility.yul\":15188:15191   */\n      0x80\n        /* \"#utility.yul\":15177:15186   */\n      dup4\n        /* \"#utility.yul\":15173:15192   */\n      add\n        /* \"#utility.yul\":15164:15170   */\n      dup7\n        /* \"#utility.yul\":15124:15193   */\n      tag_316\n      jump\t// in\n    tag_500:\n        /* \"#utility.yul\":15203:15276   */\n      tag_501\n        /* \"#utility.yul\":15271:15274   */\n      0xa0\n        /* \"#utility.yul\":15260:15269   */\n      dup4\n        /* \"#utility.yul\":15256:15275   */\n      add\n        /* \"#utility.yul\":15247:15253   */\n      dup6\n        /* \"#utility.yul\":15203:15276   */\n      tag_317\n      jump\t// in\n    tag_501:\n        /* \"#utility.yul\":15286:15359   */\n      tag_502\n        /* \"#utility.yul\":15354:15357   */\n      0xc0\n        /* \"#utility.yul\":15343:15352   */\n      dup4\n        /* \"#utility.yul\":15339:15358   */\n      add\n        /* \"#utility.yul\":15330:15336   */\n      dup5\n        /* \"#utility.yul\":15286:15359   */\n      tag_317\n      jump\t// in\n    tag_502:\n        /* \"#utility.yul\":14488:15366   */\n      swap9\n      swap8\n      pop\n      pop\n      pop\n      pop\n      pop\n      pop\n      pop\n      pop\n      jump\t// out\n        /* \"#utility.yul\":15372:15506   */\n    tag_318:\n        /* \"#utility.yul\":15430:15439   */\n      0x00\n        /* \"#utility.yul\":15463:15500   */\n      tag_504\n        /* \"#utility.yul\":15494:15499   */\n      dup3\n        /* \"#utility.yul\":15463:15500   */\n      tag_305\n      jump\t// in\n    tag_504:\n        /* \"#utility.yul\":15450:15500   */\n      swap1\n      pop\n        /* \"#utility.yul\":15372:15506   */\n      swap2\n      swap1\n      pop\n      jump\t// out\n        /* \"#utility.yul\":15512:15659   */\n    tag_319:\n        /* \"#utility.yul\":15607:15652   */\n      tag_506\n        /* \"#utility.yul\":15646:15651   */\n      dup2\n        /* \"#utility.yul\":15607:15652   */\n      tag_318\n      jump\t// in\n    tag_506:\n        /* \"#utility.yul\":15602:15605   */\n      dup3\n        /* \"#utility.yul\":15595:15653   */\n      mstore\n        /* \"#utility.yul\":15512:15659   */\n      pop\n      pop\n      jump\t// out\n        /* \"#utility.yul\":15665:16123   */\n    tag_123:\n        /* \"#utility.yul\":15822:15826   */\n      0x00\n        /* \"#utility.yul\":15860:15862   */\n      0x60\n        /* \"#utility.yul\":15849:15858   */\n      dup3\n        /* \"#utility.yul\":15845:15863   */\n      add\n        /* \"#utility.yul\":15837:15863   */\n      swap1\n      pop\n        /* \"#utility.yul\":15873:15944   */\n      tag_508\n        /* \"#utility.yul\":15941:15942   */\n      0x00\n        /* \"#utility.yul\":15930:15939   */\n      dup4\n        /* \"#utility.yul\":15926:15943   */\n      add\n        /* \"#utility.yul\":15917:15923   */\n      dup7\n        /* \"#utility.yul\":15873:15944   */\n      tag_283\n      jump\t// in\n    tag_508:\n        /* \"#utility.yul\":15954:16034   */\n      tag_509\n        /* \"#utility.yul\":16030:16032   */\n      0x20\n        /* \"#utility.yul\":16019:16028   */\n      dup4\n        /* \"#utility.yul\":16015:16033   */\n      add\n        /* \"#utility.yul\":16006:16012   */\n      dup6\n        /* \"#utility.yul\":15954:16034   */\n      tag_319\n      jump\t// in\n    tag_509:\n        /* \"#utility.yul\":16044:16116   */\n      tag_510\n        /* \"#utility.yul\":16112:16114   */\n      0x40\n        /* \"#utility.yul\":16101:16110   */\n      dup4\n        /* \"#utility.yul\":16097:16115   */\n      add\n        /* \"#utility.yul\":16088:16094   */\n      dup5\n        /* \"#utility.yul\":16044:16116   */\n      tag_284\n      jump\t// in\n    tag_510:\n        /* \"#utility.yul\":15665:16123   */\n      swap5\n      swap4\n      pop\n      pop\n      pop\n      pop\n      jump\t// out\n        /* \"#utility.yul\":16129:16266   */\n    tag_320:\n        /* \"#utility.yul\":16183:16188   */\n      0x00\n        /* \"#utility.yul\":16214:16220   */\n      dup2\n        /* \"#utility.yul\":16208:16221   */\n      mload\n        /* \"#utility.yul\":16199:16221   */\n      swap1\n      pop\n        /* \"#utility.yul\":16230:16260   */\n      tag_512\n        /* \"#utility.yul\":16254:16259   */\n      dup2\n        /* \"#utility.yul\":16230:16260   */\n      tag_308\n      jump\t// in\n    tag_512:\n        /* \"#utility.yul\":16129:16266   */\n      swap3\n      swap2\n      pop\n      pop\n      jump\t// out\n        /* \"#utility.yul\":16272:16617   */\n    tag_127:\n        /* \"#utility.yul\":16339:16345   */\n      0x00\n        /* \"#utility.yul\":16388:16390   */\n      0x20\n        /* \"#utility.yul\":16376:16385   */\n      dup3\n        /* \"#utility.yul\":16367:16374   */\n      dup5\n        /* \"#utility.yul\":16363:16386   */\n      sub\n        /* \"#utility.yul\":16359:16391   */\n      slt\n        /* \"#utility.yul\":16356:16475   */\n      iszero\n      tag_514\n      jumpi\n        /* \"#utility.yul\":16394:16473   */\n      tag_515\n      tag_276\n      jump\t// in\n    tag_515:\n        /* \"#utility.yul\":16356:16475   */\n    tag_514:\n        /* \"#utility.yul\":16514:16515   */\n      0x00\n        /* \"#utility.yul\":16539:16600   */\n      tag_516\n        /* \"#utility.yul\":16592:16599   */\n      dup5\n        /* \"#utility.yul\":16583:16589   */\n      dup3\n        /* \"#utility.yul\":16572:16581   */\n      dup6\n        /* \"#utility.yul\":16568:16590   */\n      add\n        /* \"#utility.yul\":16539:16600   */\n      tag_320\n      jump\t// in\n    tag_516:\n        /* \"#utility.yul\":16529:16600   */\n      swap2\n      pop\n        /* \"#utility.yul\":16485:16610   */\n      pop\n        /* \"#utility.yul\":16272:16617   */\n      swap3\n      swap2\n      pop\n      pop\n      jump\t// out\n        /* \"#utility.yul\":16623:17065   */\n    tag_135:\n        /* \"#utility.yul\":16772:16776   */\n      0x00\n        /* \"#utility.yul\":16810:16812   */\n      0x60\n        /* \"#utility.yul\":16799:16808   */\n      dup3\n        /* \"#utility.yul\":16795:16813   */\n      add\n        /* \"#utility.yul\":16787:16813   */\n      swap1\n      pop\n        /* \"#utility.yul\":16823:16894   */\n      tag_518\n        /* \"#utility.yul\":16891:16892   */\n      0x00\n        /* \"#utility.yul\":16880:16889   */\n      dup4\n        /* \"#utility.yul\":16876:16893   */\n      add\n        /* \"#utility.yul\":16867:16873   */\n      dup7\n        /* \"#utility.yul\":16823:16894   */\n      tag_283\n      jump\t// in\n    tag_518:\n        /* \"#utility.yul\":16904:16976   */\n      tag_519\n        /* \"#utility.yul\":16972:16974   */\n      0x20\n        /* \"#utility.yul\":16961:16970   */\n      dup4\n        /* \"#utility.yul\":16957:16975   */\n      add\n        /* \"#utility.yul\":16948:16954   */\n      dup6\n        /* \"#utility.yul\":16904:16976   */\n      tag_283\n      jump\t// in\n    tag_519:\n        /* \"#utility.yul\":16986:17058   */\n      tag_520\n        /* \"#utility.yul\":17054:17056   */\n      0x40\n        /* \"#utility.yul\":17043:17052   */\n      dup4\n        /* \"#utility.yul\":17039:17057   */\n      add\n        /* \"#utility.yul\":17030:17036   */\n      dup5\n        /* \"#utility.yul\":16986:17058   */\n      tag_284\n      jump\t// in\n    tag_520:\n        /* \"#utility.yul\":16623:17065   */\n      swap5\n      swap4\n      pop\n      pop\n      pop\n      pop\n      jump\t// out\n        /* \"#utility.yul\":17071:17241   */\n    tag_321:\n        /* \"#utility.yul\":17211:17233   */\n      0x55534443207472616e73666572206661696c6564000000000000000000000000\n        /* \"#utility.yul\":17207:17208   */\n      0x00\n        /* \"#utility.yul\":17199:17205   */\n      dup3\n        /* \"#utility.yul\":17195:17209   */\n      add\n        /* \"#utility.yul\":17188:17234   */\n      mstore\n        /* \"#utility.yul\":17071:17241   */\n      pop\n      jump\t// out\n        /* \"#utility.yul\":17247:17613   */\n    tag_322:\n        /* \"#utility.yul\":17389:17392   */\n      0x00\n        /* \"#utility.yul\":17410:17477   */\n      tag_523\n        /* \"#utility.yul\":17474:17476   */\n      0x14\n        /* \"#utility.yul\":17469:17472   */\n      dup4\n        /* \"#utility.yul\":17410:17477   */\n      tag_313\n      jump\t// in\n    tag_523:\n        /* \"#utility.yul\":17403:17477   */\n      swap2\n      pop\n        /* \"#utility.yul\":17486:17579   */\n      tag_524\n        /* \"#utility.yul\":17575:17578   */\n      dup3\n        /* \"#utility.yul\":17486:17579   */\n      tag_321\n      jump\t// in\n    tag_524:\n        /* \"#utility.yul\":17604:17606   */\n      0x20\n        /* \"#utility.yul\":17599:17602   */\n      dup3\n        /* \"#utility.yul\":17595:17607   */\n      add\n        /* \"#utility.yul\":17588:17607   */\n      swap1\n      pop\n        /* \"#utility.yul\":17247:17613   */\n      swap2\n      swap1\n      pop\n      jump\t// out\n        /* \"#utility.yul\":17619:18038   */\n    tag_155:\n        /* \"#utility.yul\":17785:17789   */\n      0x00\n        /* \"#utility.yul\":17823:17825   */\n      0x20\n        /* \"#utility.yul\":17812:17821   */\n      dup3\n        /* \"#utility.yul\":17808:17826   */\n      add\n        /* \"#utility.yul\":17800:17826   */\n      swap1\n      pop\n        /* \"#utility.yul\":17872:17881   */\n      dup2\n        /* \"#utility.yul\":17866:17870   */\n      dup2\n        /* \"#utility.yul\":17862:17882   */\n      sub\n        /* \"#utility.yul\":17858:17859   */\n      0x00\n        /* \"#utility.yul\":17847:17856   */\n      dup4\n        /* \"#utility.yul\":17843:17860   */\n      add\n        /* \"#utility.yul\":17836:17883   */\n      mstore\n        /* \"#utility.yul\":17900:18031   */\n      tag_526\n        /* \"#utility.yul\":18026:18030   */\n      dup2\n        /* \"#utility.yul\":17900:18031   */\n      tag_322\n      jump\t// in\n    tag_526:\n        /* \"#utility.yul\":17892:18031   */\n      swap1\n      pop\n        /* \"#utility.yul\":17619:18038   */\n      swap2\n      swap1\n      pop\n      jump\t// out\n        /* \"#utility.yul\":18044:18187   */\n    tag_323:\n        /* \"#utility.yul\":18101:18106   */\n      0x00\n        /* \"#utility.yul\":18132:18138   */\n      dup2\n        /* \"#utility.yul\":18126:18139   */\n      mload\n        /* \"#utility.yul\":18117:18139   */\n      swap1\n      pop\n        /* \"#utility.yul\":18148:18181   */\n      tag_528\n        /* \"#utility.yul\":18175:18180   */\n      dup2\n        /* \"#utility.yul\":18148:18181   */\n      tag_279\n      jump\t// in\n    tag_528:\n        /* \"#utility.yul\":18044:18187   */\n      swap3\n      swap2\n      pop\n      pop\n      jump\t// out\n        /* \"#utility.yul\":18193:18544   */\n    tag_174:\n        /* \"#utility.yul\":18263:18269   */\n      0x00\n        /* \"#utility.yul\":18312:18314   */\n      0x20\n        /* \"#utility.yul\":18300:18309   */\n      dup3\n        /* \"#utility.yul\":18291:18298   */\n      dup5\n        /* \"#utility.yul\":18287:18310   */\n      sub\n        /* \"#utility.yul\":18283:18315   */\n      slt\n        /* \"#utility.yul\":18280:18399   */\n      iszero\n      tag_530\n      jumpi\n        /* \"#utility.yul\":18318:18397   */\n      tag_531\n      tag_276\n      jump\t// in\n    tag_531:\n        /* \"#utility.yul\":18280:18399   */\n    tag_530:\n        /* \"#utility.yul\":18438:18439   */\n      0x00\n        /* \"#utility.yul\":18463:18527   */\n      tag_532\n        /* \"#utility.yul\":18519:18526   */\n      dup5\n        /* \"#utility.yul\":18510:18516   */\n      dup3\n        /* \"#utility.yul\":18499:18508   */\n      dup6\n        /* \"#utility.yul\":18495:18517   */\n      add\n        /* \"#utility.yul\":18463:18527   */\n      tag_323\n      jump\t// in\n    tag_532:\n        /* \"#utility.yul\":18453:18527   */\n      swap2\n      pop\n        /* \"#utility.yul\":18409:18537   */\n      pop\n        /* \"#utility.yul\":18193:18544   */\n      swap3\n      swap2\n      pop\n      pop\n      jump\t// out\n        /* \"#utility.yul\":18550:18635   */\n    tag_324:\n        /* \"#utility.yul\":18595:18602   */\n      0x00\n        /* \"#utility.yul\":18624:18629   */\n      dup2\n        /* \"#utility.yul\":18613:18629   */\n      swap1\n      pop\n        /* \"#utility.yul\":18550:18635   */\n      swap2\n      swap1\n      pop\n      jump\t// out\n        /* \"#utility.yul\":18641:18799   */\n    tag_325:\n        /* \"#utility.yul\":18699:18708   */\n      0x00\n        /* \"#utility.yul\":18732:18793   */\n      tag_535\n        /* \"#utility.yul\":18750:18792   */\n      tag_536\n        /* \"#utility.yul\":18759:18791   */\n      tag_537\n        /* \"#utility.yul\":18785:18790   */\n      dup5\n        /* \"#utility.yul\":18759:18791   */\n      tag_324\n      jump\t// in\n    tag_537:\n        /* \"#utility.yul\":18750:18792   */\n      tag_303\n      jump\t// in\n    tag_536:\n        /* \"#utility.yul\":18732:18793   */\n      tag_278\n      jump\t// in\n    tag_535:\n        /* \"#utility.yul\":18719:18793   */\n      swap1\n      pop\n        /* \"#utility.yul\":18641:18799   */\n      swap2\n      swap1\n      pop\n      jump\t// out\n        /* \"#utility.yul\":18805:18952   */\n    tag_326:\n        /* \"#utility.yul\":18900:18945   */\n      tag_539\n        /* \"#utility.yul\":18939:18944   */\n      dup2\n        /* \"#utility.yul\":18900:18945   */\n      tag_325\n      jump\t// in\n    tag_539:\n        /* \"#utility.yul\":18895:18898   */\n      dup3\n        /* \"#utility.yul\":18888:18946   */\n      mstore\n        /* \"#utility.yul\":18805:18952   */\n      pop\n      pop\n      jump\t// out\n        /* \"#utility.yul\":18958:19306   */\n    tag_179:\n        /* \"#utility.yul\":19087:19091   */\n      0x00\n        /* \"#utility.yul\":19125:19127   */\n      0x40\n        /* \"#utility.yul\":19114:19123   */\n      dup3\n        /* \"#utility.yul\":19110:19128   */\n      add\n        /* \"#utility.yul\":19102:19128   */\n      swap1\n      pop\n        /* \"#utility.yul\":19138:19209   */\n      tag_541\n        /* \"#utility.yul\":19206:19207   */\n      0x00\n        /* \"#utility.yul\":19195:19204   */\n      dup4\n        /* \"#utility.yul\":19191:19208   */\n      add\n        /* \"#utility.yul\":19182:19188   */\n      dup6\n        /* \"#utility.yul\":19138:19209   */\n      tag_283\n      jump\t// in\n    tag_541:\n        /* \"#utility.yul\":19219:19299   */\n      tag_542\n        /* \"#utility.yul\":19295:19297   */\n      0x20\n        /* \"#utility.yul\":19284:19293   */\n      dup4\n        /* \"#utility.yul\":19280:19298   */\n      add\n        /* \"#utility.yul\":19271:19277   */\n      dup5\n        /* \"#utility.yul\":19219:19299   */\n      tag_326\n      jump\t// in\n    tag_542:\n        /* \"#utility.yul\":18958:19306   */\n      swap4\n      swap3\n      pop\n      pop\n      pop\n      jump\t// out\n        /* \"#utility.yul\":19312:19644   */\n    tag_195:\n        /* \"#utility.yul\":19433:19437   */\n      0x00\n        /* \"#utility.yul\":19471:19473   */\n      0x40\n        /* \"#utility.yul\":19460:19469   */\n      dup3\n        /* \"#utility.yul\":19456:19474   */\n      add\n        /* \"#utility.yul\":19448:19474   */\n      swap1\n      pop\n        /* \"#utility.yul\":19484:19555   */\n      tag_544\n        /* \"#utility.yul\":19552:19553   */\n      0x00\n        /* \"#utility.yul\":19541:19550   */\n      dup4\n        /* \"#utility.yul\":19537:19554   */\n      add\n        /* \"#utility.yul\":19528:19534   */\n      dup6\n        /* \"#utility.yul\":19484:19555   */\n      tag_283\n      jump\t// in\n    tag_544:\n        /* \"#utility.yul\":19565:19637   */\n      tag_545\n        /* \"#utility.yul\":19633:19635   */\n      0x20\n        /* \"#utility.yul\":19622:19631   */\n      dup4\n        /* \"#utility.yul\":19618:19636   */\n      add\n        /* \"#utility.yul\":19609:19615   */\n      dup5\n        /* \"#utility.yul\":19565:19637   */\n      tag_284\n      jump\t// in\n    tag_545:\n        /* \"#utility.yul\":19312:19644   */\n      swap4\n      swap3\n      pop\n      pop\n      pop\n      jump\t// out\n        /* \"#utility.yul\":19650:19832   */\n    tag_327:\n        /* \"#utility.yul\":19790:19824   */\n      0x52656e6f756e63696e67206f776e6572736869702069732064697361626c6564\n        /* \"#utility.yul\":19786:19787   */\n      0x00\n        /* \"#utility.yul\":19778:19784   */\n      dup3\n        /* \"#utility.yul\":19774:19788   */\n      add\n        /* \"#utility.yul\":19767:19825   */\n      mstore\n        /* \"#utility.yul\":19650:19832   */\n      pop\n      jump\t// out\n        /* \"#utility.yul\":19838:20204   */\n    tag_328:\n        /* \"#utility.yul\":19980:19983   */\n      0x00\n        /* \"#utility.yul\":20001:20068   */\n      tag_548\n        /* \"#utility.yul\":20065:20067   */\n      0x20\n        /* \"#utility.yul\":20060:20063   */\n      dup4\n        /* \"#utility.yul\":20001:20068   */\n      tag_313\n      jump\t// in\n    tag_548:\n        /* \"#utility.yul\":19994:20068   */\n      swap2\n      pop\n        /* \"#utility.yul\":20077:20170   */\n      tag_549\n        /* \"#utility.yul\":20166:20169   */\n      dup3\n        /* \"#utility.yul\":20077:20170   */\n      tag_327\n      jump\t// in\n    tag_549:\n        /* \"#utility.yul\":20195:20197   */\n      0x20\n        /* \"#utility.yul\":20190:20193   */\n      dup3\n        /* \"#utility.yul\":20186:20198   */\n      add\n        /* \"#utility.yul\":20179:20198   */\n      swap1\n      pop\n        /* \"#utility.yul\":19838:20204   */\n      swap2\n      swap1\n      pop\n      jump\t// out\n        /* \"#utility.yul\":20210:20629   */\n    tag_203:\n        /* \"#utility.yul\":20376:20380   */\n      0x00\n        /* \"#utility.yul\":20414:20416   */\n      0x20\n        /* \"#utility.yul\":20403:20412   */\n      dup3\n        /* \"#utility.yul\":20399:20417   */\n      add\n        /* \"#utility.yul\":20391:20417   */\n      swap1\n      pop\n        /* \"#utility.yul\":20463:20472   */\n      dup2\n        /* \"#utility.yul\":20457:20461   */\n      dup2\n        /* \"#utility.yul\":20453:20473   */\n      sub\n        /* \"#utility.yul\":20449:20450   */\n      0x00\n        /* \"#utility.yul\":20438:20447   */\n      dup4\n        /* \"#utility.yul\":20434:20451   */\n      add\n        /* \"#utility.yul\":20427:20474   */\n      mstore\n        /* \"#utility.yul\":20491:20622   */\n      tag_551\n        /* \"#utility.yul\":20617:20621   */\n      dup2\n        /* \"#utility.yul\":20491:20622   */\n      tag_328\n      jump\t// in\n    tag_551:\n        /* \"#utility.yul\":20483:20622   */\n      swap1\n      pop\n        /* \"#utility.yul\":20210:20629   */\n      swap2\n      swap1\n      pop\n      jump\t// out\n        /* \"#utility.yul\":20635:20816   */\n    tag_329:\n        /* \"#utility.yul\":20775:20808   */\n      0x5265656e7472616e637947756172643a207265656e7472616e742063616c6c00\n        /* \"#utility.yul\":20771:20772   */\n      0x00\n        /* \"#utility.yul\":20763:20769   */\n      dup3\n        /* \"#utility.yul\":20759:20773   */\n      add\n        /* \"#utility.yul\":20752:20809   */\n      mstore\n        /* \"#utility.yul\":20635:20816   */\n      pop\n      jump\t// out\n        /* \"#utility.yul\":20822:21188   */\n    tag_330:\n        /* \"#utility.yul\":20964:20967   */\n      0x00\n        /* \"#utility.yul\":20985:21052   */\n      tag_554\n        /* \"#utility.yul\":21049:21051   */\n      0x1f\n        /* \"#utility.yul\":21044:21047   */\n      dup4\n        /* \"#utility.yul\":20985:21052   */\n      tag_313\n      jump\t// in\n    tag_554:\n        /* \"#utility.yul\":20978:21052   */\n      swap2\n      pop\n        /* \"#utility.yul\":21061:21154   */\n      tag_555\n        /* \"#utility.yul\":21150:21153   */\n      dup3\n        /* \"#utility.yul\":21061:21154   */\n      tag_329\n      jump\t// in\n    tag_555:\n        /* \"#utility.yul\":21179:21181   */\n      0x20\n        /* \"#utility.yul\":21174:21177   */\n      dup3\n        /* \"#utility.yul\":21170:21182   */\n      add\n        /* \"#utility.yul\":21163:21182   */\n      swap1\n      pop\n        /* \"#utility.yul\":20822:21188   */\n      swap2\n      swap1\n      pop\n      jump\t// out\n        /* \"#utility.yul\":21194:21613   */\n    tag_254:\n        /* \"#utility.yul\":21360:21364   */\n      0x00\n        /* \"#utility.yul\":21398:21400   */\n      0x20\n        /* \"#utility.yul\":21387:21396   */\n      dup3\n        /* \"#utility.yul\":21383:21401   */\n      add\n        /* \"#utility.yul\":21375:21401   */\n      swap1\n      pop\n        /* \"#utility.yul\":21447:21456   */\n      dup2\n        /* \"#utility.yul\":21441:21445   */\n      dup2\n        /* \"#utility.yul\":21437:21457   */\n      sub\n        /* \"#utility.yul\":21433:21434   */\n      0x00\n        /* \"#utility.yul\":21422:21431   */\n      dup4\n        /* \"#utility.yul\":21418:21435   */\n      add\n        /* \"#utility.yul\":21411:21458   */\n      mstore\n        /* \"#utility.yul\":21475:21606   */\n      tag_557\n        /* \"#utility.yul\":21601:21605   */\n      dup2\n        /* \"#utility.yul\":21475:21606   */\n      tag_330\n      jump\t// in\n    tag_557:\n        /* \"#utility.yul\":21467:21606   */\n      swap1\n      pop\n        /* \"#utility.yul\":21194:21613   */\n      swap2\n      swap1\n      pop\n      jump\t// out\n\n    auxdata: 0xa26469706673582212209b6201a3d86d5e5eac91ca6219690d494cea37328609604ea204acc59c1730e064736f6c634300081e0033\n}\n",
				"bytecode": {
					"linkReferences": {},
					"object": "608060405234801561000f575f5ffd5b5060405161280a38038061280a83398181016040528101906100319190610339565b8260015f819055505f73ffffffffffffffffffffffffffffffffffffffff168173ffffffffffffffffffffffffffffffffffffffff16036100a9575f6040517f1e4fbdf70000000000000000000000000000000000000000000000000000000081526004016100a09190610398565b60405180910390fd5b6100b8816101dd60201b60201c565b505f73ffffffffffffffffffffffffffffffffffffffff168273ffffffffffffffffffffffffffffffffffffffff16148061011e57505f73ffffffffffffffffffffffffffffffffffffffff168173ffffffffffffffffffffffffffffffffffffffff16145b15610155576040517fd92e233d00000000000000000000000000000000000000000000000000000000815260040160405180910390fd5b8160035f6101000a81548173ffffffffffffffffffffffffffffffffffffffff021916908373ffffffffffffffffffffffffffffffffffffffff1602179055508060045f6101000a81548173ffffffffffffffffffffffffffffffffffffffff021916908373ffffffffffffffffffffffffffffffffffffffff1602179055505050506103b1565b5f60015f9054906101000a900473ffffffffffffffffffffffffffffffffffffffff1690508160015f6101000a81548173ffffffffffffffffffffffffffffffffffffffff021916908373ffffffffffffffffffffffffffffffffffffffff1602179055508173ffffffffffffffffffffffffffffffffffffffff168173ffffffffffffffffffffffffffffffffffffffff167f8be0079c531659141344cd1fd0a4f28419497f9722a3daafe3b4186f6b6457e060405160405180910390a35050565b5f5ffd5b5f73ffffffffffffffffffffffffffffffffffffffff82169050919050565b5f6102cd826102a4565b9050919050565b6102dd816102c3565b81146102e7575f5ffd5b50565b5f815190506102f8816102d4565b92915050565b5f610308826102a4565b9050919050565b610318816102fe565b8114610322575f5ffd5b50565b5f815190506103338161030f565b92915050565b5f5f5f606084860312156103505761034f6102a0565b5b5f61035d868287016102ea565b935050602061036e86828701610325565b925050604061037f868287016102ea565b9150509250925092565b610392816102c3565b82525050565b5f6020820190506103ab5f830184610389565b92915050565b61244c806103be5f395ff3fe6080604052600436106100f6575f3560e01c806389a3027111610089578063b3e089a211610058578063b3e089a2146102ff578063ddd3289814610327578063f0f442601461034f578063f2fde38b14610377576100fd565b806389a302711461025b5780638da5cb5b146102855780639079b243146102af5780639c66fb7e146102d7576100fd565b80634c2233a5116100c55780634c2233a5146101cb578063582515c7146101f357806361d027b31461021b578063715018a614610245576100fd565b8063039af9eb146101015780630a340fca1461013f578063150b7a0214610167578063166e11b7146101a3576100fd565b366100fd57005b5f5ffd5b34801561010c575f5ffd5b50610127600480360381019061012291906119d0565b61039f565b60405161013693929190611a63565b60405180910390f35b34801561014a575f5ffd5b5061016560048036038101906101609190611b01565b6103f0565b005b348015610172575f5ffd5b5061018d60048036038101906101889190611c29565b610808565b60405161019a9190611ce7565b60405180910390f35b3480156101ae575f5ffd5b506101c960048036038101906101c49190611d00565b61081c565b005b3480156101d6575f5ffd5b506101f160048036038101906101ec9190611d3e565b610b25565b005b3480156101fe575f5ffd5b5061021960048036038101906102149190611d7c565b610dbb565b005b348015610226575f5ffd5b5061022f610ebf565b60405161023c9190611dda565b60405180910390f35b348015610250575f5ffd5b50610259610ee4565b005b348015610266575f5ffd5b5061026f610f27565b60405161027c9190611e4e565b60405180910390f35b348015610290575f5ffd5b50610299610f4c565b6040516102a69190611e67565b60405180910390f35b3480156102ba575f5ffd5b506102d560048036038101906102d09190611eaa565b610f74565b005b3480156102e2575f5ffd5b506102fd60048036038101906102f89190611f0e565b611036565b005b34801561030a575f5ffd5b5061032560048036038101906103209190611f5e565b6111b0565b005b348015610332575f5ffd5b5061034d60048036038101906103489190611f0e565b6112db565b005b34801561035a575f5ffd5b5061037560048036038101906103709190611fb3565b61157e565b005b348015610382575f5ffd5b5061039d60048036038101906103989190611f5e565b61162e565b005b6002602052805f5260405f205f91509050805f015f9054906101000a900473ffffffffffffffffffffffffffffffffffffffff1690806001015490806002015f9054906101000a900460ff16905083565b6103f86116b2565b5f60025f8981526020019081526020015f206040518060600160405290815f82015f9054906101000a900473ffffffffffffffffffffffffffffffffffffffff1673ffffffffffffffffffffffffffffffffffffffff1673ffffffffffffffffffffffffffffffffffffffff16815260200160018201548152602001600282015f9054906101000a900460ff16151515158152505090505f73ffffffffffffffffffffffffffffffffffffffff16815f015173ffffffffffffffffffffffffffffffffffffffff16036104f7576040517fe142361700000000000000000000000000000000000000000000000000000000815260040160405180910390fd5b8060400151158061050b57505f8160200151145b15610542576040517f94d366b500000000000000000000000000000000000000000000000000000000815260040160405180910390fd5b5f870361057b576040517fb0ccca4500000000000000000000000000000000000000000000000000000000815260040160405180910390fd5b5f87826020015161058c919061200b565b90508087146105d0576040517f08c379a00000000000000000000000000000000000000000000000000000000081526004016105c7906120a6565b60405180910390fd5b60045f9054906101000a900473ffffffffffffffffffffffffffffffffffffffff1673ffffffffffffffffffffffffffffffffffffffff1663d505accf33308a8a8a8a8a6040518863ffffffff1660e01b815260040161063697969594939291906120e2565b5f604051808303815f87803b15801561064d575f5ffd5b505af115801561065f573d5f5f3e3d5ffd5b505050505f60045f9054906101000a900473ffffffffffffffffffffffffffffffffffffffff1673ffffffffffffffffffffffffffffffffffffffff166323b872dd3360035f9054906101000a900473ffffffffffffffffffffffffffffffffffffffff168b6040518463ffffffff1660e01b81526004016106e39392919061216f565b6020604051808303815f875af11580156106ff573d5f5f3e3d5ffd5b505050506040513d601f19601f8201168201806040525081019061072391906121b8565b90508061075c576040517fb0ccca4500000000000000000000000000000000000000000000000000000000815260040160405180910390fd5b5f5f90505b898110156107f3575f610776855f01516116ff565b9050845f015173ffffffffffffffffffffffffffffffffffffffff166342842e0e3033846040518463ffffffff1660e01b81526004016107b8939291906121e3565b5f604051808303815f87803b1580156107cf575f5ffd5b505af11580156107e1573d5f5f3e3d5ffd5b50505050508080600101915050610761565b505050506107ff61183b565b50505050505050565b5f63150b7a0260e01b905095945050505050565b6108246116b2565b5f60025f8481526020019081526020015f206040518060600160405290815f82015f9054906101000a900473ffffffffffffffffffffffffffffffffffffffff1673ffffffffffffffffffffffffffffffffffffffff1673ffffffffffffffffffffffffffffffffffffffff16815260200160018201548152602001600282015f9054906101000a900460ff16151515158152505090505f73ffffffffffffffffffffffffffffffffffffffff16815f015173ffffffffffffffffffffffffffffffffffffffff1603610923576040517fe142361700000000000000000000000000000000000000000000000000000000815260040160405180910390fd5b8060400151158061093757505f8160200151145b1561096e576040517f94d366b500000000000000000000000000000000000000000000000000000000815260040160405180910390fd5b5f82826020015161097f919061200b565b905060045f9054906101000a900473ffffffffffffffffffffffffffffffffffffffff1673ffffffffffffffffffffffffffffffffffffffff166323b872dd3360035f9054906101000a900473ffffffffffffffffffffffffffffffffffffffff16846040518463ffffffff1660e01b8152600401610a009392919061216f565b6020604051808303815f875af1158015610a1c573d5f5f3e3d5ffd5b505050506040513d601f19601f82011682018060405250810190610a4091906121b8565b610a7f576040517f08c379a0000000000000000000000000000000000000000000000000000000008152600401610a7690612262565b60405180910390fd5b5f5f90505b83811015610b16575f610a99845f01516116ff565b9050835f015173ffffffffffffffffffffffffffffffffffffffff166342842e0e3033846040518463ffffffff1660e01b8152600401610adb939291906121e3565b5f604051808303815f87803b158015610af2575f5ffd5b505af1158015610b04573d5f5f3e3d5ffd5b50505050508080600101915050610a84565b505050610b2161183b565b5050565b610b2d611844565b5f60025f8481526020019081526020015f206040518060600160405290815f82015f9054906101000a900473ffffffffffffffffffffffffffffffffffffffff1673ffffffffffffffffffffffffffffffffffffffff1673ffffffffffffffffffffffffffffffffffffffff16815260200160018201548152602001600282015f9054906101000a900460ff16151515158152505090505f73ffffffffffffffffffffffffffffffffffffffff16815f015173ffffffffffffffffffffffffffffffffffffffff1603610c2c576040517fe142361700000000000000000000000000000000000000000000000000000000815260040160405180910390fd5b5f815f015190505f8173ffffffffffffffffffffffffffffffffffffffff166370a08231306040518263ffffffff1660e01b8152600401610c6d9190611e67565b602060405180830381865afa158015610c88573d5f5f3e3d5ffd5b505050506040513d601f19601f82011682018060405250810190610cac9190612294565b90505f5f90505b81811015610db3575f8373ffffffffffffffffffffffffffffffffffffffff16632f745c59305f6040518363ffffffff1660e01b8152600401610cf79291906122f8565b602060405180830381865afa158015610d12573d5f5f3e3d5ffd5b505050506040513d601f19601f82011682018060405250810190610d369190612294565b9050845f015173ffffffffffffffffffffffffffffffffffffffff166342842e0e3088846040518463ffffffff1660e01b8152600401610d78939291906121e3565b5f604051808303815f87803b158015610d8f575f5ffd5b505af1158015610da1573d5f5f3e3d5ffd5b50505050508080600101915050610cb3565b505050505050565b610dc3611844565b5f8273ffffffffffffffffffffffffffffffffffffffff166370a08231306040518263ffffffff1660e01b8152600401610dfd9190611e67565b602060405180830381865afa158015610e18573d5f5f3e3d5ffd5b505050506040513d601f19601f82011682018060405250810190610e3c9190612294565b90508273ffffffffffffffffffffffffffffffffffffffff1663a9059cbb83836040518363ffffffff1660e01b8152600401610e7992919061231f565b6020604051808303815f875af1158015610e95573d5f5f3e3d5ffd5b505050506040513d601f19601f82011682018060405250810190610eb991906121b8565b50505050565b60035f9054906101000a900473ffffffffffffffffffffffffffffffffffffffff1681565b610eec611844565b6040517f08c379a0000000000000000000000000000000000000000000000000000000008152600401610f1e90612390565b60405180910390fd5b60045f9054906101000a900473ffffffffffffffffffffffffffffffffffffffff1681565b5f60015f9054906101000a900473ffffffffffffffffffffffffffffffffffffffff16905090565b610f7c611844565b60405180606001604052808473ffffffffffffffffffffffffffffffffffffffff16815260200183815260200182151581525060025f8681526020019081526020015f205f820151815f015f6101000a81548173ffffffffffffffffffffffffffffffffffffffff021916908373ffffffffffffffffffffffffffffffffffffffff160217905550602082015181600101556040820151816002015f6101000a81548160ff02191690831515021790555090505050505050565b61103e611844565b5f60025f8581526020019081526020015f206040518060600160405290815f82015f9054906101000a900473ffffffffffffffffffffffffffffffffffffffff1673ffffffffffffffffffffffffffffffffffffffff1673ffffffffffffffffffffffffffffffffffffffff16815260200160018201548152602001600282015f9054906101000a900460ff16151515158152505090505f73ffffffffffffffffffffffffffffffffffffffff16815f015173ffffffffffffffffffffffffffffffffffffffff160361113d576040517fe142361700000000000000000000000000000000000000000000000000000000815260040160405180910390fd5b805f015173ffffffffffffffffffffffffffffffffffffffff166342842e0e3084866040518463ffffffff1660e01b815260040161117d939291906121e3565b5f604051808303815f87803b158015611194575f5ffd5b505af11580156111a6573d5f5f3e3d5ffd5b5050505050505050565b6111b8611844565b5f73ffffffffffffffffffffffffffffffffffffffff168173ffffffffffffffffffffffffffffffffffffffff160361121d576040517fd92e233d00000000000000000000000000000000000000000000000000000000815260040160405180910390fd5b8073ffffffffffffffffffffffffffffffffffffffff1660045f9054906101000a900473ffffffffffffffffffffffffffffffffffffffff1673ffffffffffffffffffffffffffffffffffffffff167f64a623534f7a0e0a6e3f51d4899bb03ec91aed8bddc911128789b05acea7334c60405160405180910390a38060045f6101000a81548173ffffffffffffffffffffffffffffffffffffffff021916908373ffffffffffffffffffffffffffffffffffffffff16021790555050565b6112e3611844565b5f60025f8581526020019081526020015f206040518060600160405290815f82015f9054906101000a900473ffffffffffffffffffffffffffffffffffffffff1673ffffffffffffffffffffffffffffffffffffffff1673ffffffffffffffffffffffffffffffffffffffff16815260200160018201548152602001600282015f9054906101000a900460ff16151515158152505090505f73ffffffffffffffffffffffffffffffffffffffff16815f015173ffffffffffffffffffffffffffffffffffffffff16036113e2576040517fe142361700000000000000000000000000000000000000000000000000000000815260040160405180910390fd5b5f815f015190505f8173ffffffffffffffffffffffffffffffffffffffff166370a08231306040518263ffffffff1660e01b81526004016114239190611e67565b602060405180830381865afa15801561143e573d5f5f3e3d5ffd5b505050506040513d601f19601f820116820180604052508101906114629190612294565b905080851115611470578094505b5f5f90505b85811015611575575f8373ffffffffffffffffffffffffffffffffffffffff16632f745c59305f6040518363ffffffff1660e01b81526004016114b99291906122f8565b602060405180830381865afa1580156114d4573d5f5f3e3d5ffd5b505050506040513d601f19601f820116820180604052508101906114f89190612294565b9050845f015173ffffffffffffffffffffffffffffffffffffffff166342842e0e3088846040518463ffffffff1660e01b815260040161153a939291906121e3565b5f604051808303815f87803b158015611551575f5ffd5b505af1158015611563573d5f5f3e3d5ffd5b50505050508080600101915050611475565b50505050505050565b611586611844565b5f73ffffffffffffffffffffffffffffffffffffffff168173ffffffffffffffffffffffffffffffffffffffff16036115eb576040517fd92e233d00000000000000000000000000000000000000000000000000000000815260040160405180910390fd5b8060035f6101000a81548173ffffffffffffffffffffffffffffffffffffffff021916908373ffffffffffffffffffffffffffffffffffffffff16021790555050565b611636611844565b5f73ffffffffffffffffffffffffffffffffffffffff168173ffffffffffffffffffffffffffffffffffffffff16036116a6575f6040517f1e4fbdf700000000000000000000000000000000000000000000000000000000815260040161169d9190611e67565b60405180910390fd5b6116af816118cb565b50565b60025f54036116f6576040517f08c379a00000000000000000000000000000000000000000000000000000000081526004016116ed906123f8565b60405180910390fd5b60025f81905550565b5f5f8290505f8173ffffffffffffffffffffffffffffffffffffffff166370a08231306040518263ffffffff1660e01b815260040161173e9190611e67565b602060405180830381865afa158015611759573d5f5f3e3d5ffd5b505050506040513d601f19601f8201168201806040525081019061177d9190612294565b90505f81036117b8576040517f52df9fe500000000000000000000000000000000000000000000000000000000815260040160405180910390fd5b8173ffffffffffffffffffffffffffffffffffffffff16632f745c59305f6040518363ffffffff1660e01b81526004016117f39291906122f8565b602060405180830381865afa15801561180e573d5f5f3e3d5ffd5b505050506040513d601f19601f820116820180604052508101906118329190612294565b92505050919050565b60015f81905550565b61184c61198e565b73ffffffffffffffffffffffffffffffffffffffff1661186a610f4c565b73ffffffffffffffffffffffffffffffffffffffff16146118c95761188d61198e565b6040517f118cdaa70000000000000000000000000000000000000000000000000000000081526004016118c09190611e67565b60405180910390fd5b565b5f60015f9054906101000a900473ffffffffffffffffffffffffffffffffffffffff1690508160015f6101000a81548173ffffffffffffffffffffffffffffffffffffffff021916908373ffffffffffffffffffffffffffffffffffffffff1602179055508173ffffffffffffffffffffffffffffffffffffffff168173ffffffffffffffffffffffffffffffffffffffff167f8be0079c531659141344cd1fd0a4f28419497f9722a3daafe3b4186f6b6457e060405160405180910390a35050565b5f33905090565b5f5ffd5b5f5ffd5b5f819050919050565b6119af8161199d565b81146119b9575f5ffd5b50565b5f813590506119ca816119a6565b92915050565b5f602082840312156119e5576119e4611995565b5b5f6119f2848285016119bc565b91505092915050565b5f73ffffffffffffffffffffffffffffffffffffffff82169050919050565b5f611a24826119fb565b9050919050565b611a3481611a1a565b82525050565b611a438161199d565b82525050565b5f8115159050919050565b611a5d81611a49565b82525050565b5f606082019050611a765f830186611a2b565b611a836020830185611a3a565b611a906040830184611a54565b949350505050565b5f60ff82169050919050565b611aad81611a98565b8114611ab7575f5ffd5b50565b5f81359050611ac881611aa4565b92915050565b5f819050919050565b611ae081611ace565b8114611aea575f5ffd5b50565b5f81359050611afb81611ad7565b92915050565b5f5f5f5f5f5f5f60e0888a031215611b1c57611b1b611995565b5b5f611b298a828b016119bc565b9750506020611b3a8a828b016119bc565b9650506040611b4b8a828b016119bc565b9550506060611b5c8a828b016119bc565b9450506080611b6d8a828b01611aba565b93505060a0611b7e8a828b01611aed565b92505060c0611b8f8a828b01611aed565b91505092959891949750929550565b611ba781611a1a565b8114611bb1575f5ffd5b50565b5f81359050611bc281611b9e565b92915050565b5f5ffd5b5f5ffd5b5f5ffd5b5f5f83601f840112611be957611be8611bc8565b5b8235905067ffffffffffffffff811115611c0657611c05611bcc565b5b602083019150836001820283011115611c2257611c21611bd0565b5b9250929050565b5f5f5f5f5f60808688031215611c4257611c41611995565b5b5f611c4f88828901611bb4565b9550506020611c6088828901611bb4565b9450506040611c71888289016119bc565b935050606086013567ffffffffffffffff811115611c9257611c91611999565b5b611c9e88828901611bd4565b92509250509295509295909350565b5f7fffffffff0000000000000000000000000000000000000000000000000000000082169050919050565b611ce181611cad565b82525050565b5f602082019050611cfa5f830184611cd8565b92915050565b5f5f60408385031215611d1657611d15611995565b5b5f611d23858286016119bc565b9250506020611d34858286016119bc565b9150509250929050565b5f5f60408385031215611d5457611d53611995565b5b5f611d61858286016119bc565b9250506020611d7285828601611bb4565b9150509250929050565b5f5f60408385031215611d9257611d91611995565b5b5f611d9f85828601611bb4565b9250506020611db085828601611bb4565b9150509250929050565b5f611dc4826119fb565b9050919050565b611dd481611dba565b82525050565b5f602082019050611ded5f830184611dcb565b92915050565b5f819050919050565b5f611e16611e11611e0c846119fb565b611df3565b6119fb565b9050919050565b5f611e2782611dfc565b9050919050565b5f611e3882611e1d565b9050919050565b611e4881611e2e565b82525050565b5f602082019050611e615f830184611e3f565b92915050565b5f602082019050611e7a5f830184611a2b565b92915050565b611e8981611a49565b8114611e93575f5ffd5b50565b5f81359050611ea481611e80565b92915050565b5f5f5f5f60808587031215611ec257611ec1611995565b5b5f611ecf878288016119bc565b9450506020611ee087828801611bb4565b9350506040611ef1878288016119bc565b9250506060611f0287828801611e96565b91505092959194509250565b5f5f5f60608486031215611f2557611f24611995565b5b5f611f32868287016119bc565b9350506020611f43868287016119bc565b9250506040611f5486828701611bb4565b9150509250925092565b5f60208284031215611f7357611f72611995565b5b5f611f8084828501611bb4565b91505092915050565b611f9281611dba565b8114611f9c575f5ffd5b50565b5f81359050611fad81611f89565b92915050565b5f60208284031215611fc857611fc7611995565b5b5f611fd584828501611f9f565b91505092915050565b7f4e487b71000000000000000000000000000000000000000000000000000000005f52601160045260245ffd5b5f6120158261199d565b91506120208361199d565b925082820261202e8161199d565b9150828204841483151761204557612044611fde565b5b5092915050565b5f82825260208201905092915050565b7f7065726d69742076616c7565206d69736d6174636800000000000000000000005f82015250565b5f61209060158361204c565b915061209b8261205c565b602082019050919050565b5f6020820190508181035f8301526120bd81612084565b9050919050565b6120cd81611a98565b82525050565b6120dc81611ace565b82525050565b5f60e0820190506120f55f83018a611a2b565b6121026020830189611a2b565b61210f6040830188611a3a565b61211c6060830187611a3a565b61212960808301866120c4565b61213660a08301856120d3565b61214360c08301846120d3565b98975050505050505050565b5f61215982611e1d565b9050919050565b6121698161214f565b82525050565b5f6060820190506121825f830186611a2b565b61218f6020830185612160565b61219c6040830184611a3a565b949350505050565b5f815190506121b281611e80565b92915050565b5f602082840312156121cd576121cc611995565b5b5f6121da848285016121a4565b91505092915050565b5f6060820190506121f65f830186611a2b565b6122036020830185611a2b565b6122106040830184611a3a565b949350505050565b7f55534443207472616e73666572206661696c65640000000000000000000000005f82015250565b5f61224c60148361204c565b915061225782612218565b602082019050919050565b5f6020820190508181035f83015261227981612240565b9050919050565b5f8151905061228e816119a6565b92915050565b5f602082840312156122a9576122a8611995565b5b5f6122b684828501612280565b91505092915050565b5f819050919050565b5f6122e26122dd6122d8846122bf565b611df3565b61199d565b9050919050565b6122f2816122c8565b82525050565b5f60408201905061230b5f830185611a2b565b61231860208301846122e9565b9392505050565b5f6040820190506123325f830185611a2b565b61233f6020830184611a3a565b9392505050565b7f52656e6f756e63696e67206f776e6572736869702069732064697361626c65645f82015250565b5f61237a60208361204c565b915061238582612346565b602082019050919050565b5f6020820190508181035f8301526123a78161236e565b9050919050565b7f5265656e7472616e637947756172643a207265656e7472616e742063616c6c005f82015250565b5f6123e2601f8361204c565b91506123ed826123ae565b602082019050919050565b5f6020820190508181035f83015261240f816123d6565b905091905056fea26469706673582212209b6201a3d86d5e5eac91ca6219690d494cea37328609604ea204acc59c1730e064736f6c634300081e0033",
					"opcodes": "PUSH1 0x80 PUSH1 0x40 MSTORE CALLVALUE DUP1 ISZERO PUSH2 0xF JUMPI PUSH0 PUSH0 REVERT JUMPDEST POP PUSH1 0x40 MLOAD PUSH2 0x280A CODESIZE SUB DUP1 PUSH2 0x280A DUP4 CODECOPY DUP2 DUP2 ADD PUSH1 0x40 MSTORE DUP2 ADD SWAP1 PUSH2 0x31 SWAP2 SWAP1 PUSH2 0x339 JUMP JUMPDEST DUP3 PUSH1 0x1 PUSH0 DUP2 SWAP1 SSTORE POP PUSH0 PUSH20 0xFFFFFFFFFFFFFFFFFFFFFFFFFFFFFFFFFFFFFFFF AND DUP2 PUSH20 0xFFFFFFFFFFFFFFFFFFFFFFFFFFFFFFFFFFFFFFFF AND SUB PUSH2 0xA9 JUMPI PUSH0 PUSH1 0x40 MLOAD PUSH32 0x1E4FBDF700000000000000000000000000000000000000000000000000000000 DUP2 MSTORE PUSH1 0x4 ADD PUSH2 0xA0 SWAP2 SWAP1 PUSH2 0x398 JUMP JUMPDEST PUSH1 0x40 MLOAD DUP1 SWAP2 SUB SWAP1 REVERT JUMPDEST PUSH2 0xB8 DUP2 PUSH2 0x1DD PUSH1 0x20 SHL PUSH1 0x20 SHR JUMP JUMPDEST POP PUSH0 PUSH20 0xFFFFFFFFFFFFFFFFFFFFFFFFFFFFFFFFFFFFFFFF AND DUP3 PUSH20 0xFFFFFFFFFFFFFFFFFFFFFFFFFFFFFFFFFFFFFFFF AND EQ DUP1 PUSH2 0x11E JUMPI POP PUSH0 PUSH20 0xFFFFFFFFFFFFFFFFFFFFFFFFFFFFFFFFFFFFFFFF AND DUP2 PUSH20 0xFFFFFFFFFFFFFFFFFFFFFFFFFFFFFFFFFFFFFFFF AND EQ JUMPDEST ISZERO PUSH2 0x155 JUMPI PUSH1 0x40 MLOAD PUSH32 0xD92E233D00000000000000000000000000000000000000000000000000000000 DUP2 MSTORE PUSH1 0x4 ADD PUSH1 0x40 MLOAD DUP1 SWAP2 SUB SWAP1 REVERT JUMPDEST DUP2 PUSH1 0x3 PUSH0 PUSH2 0x100 EXP DUP2 SLOAD DUP2 PUSH20 0xFFFFFFFFFFFFFFFFFFFFFFFFFFFFFFFFFFFFFFFF MUL NOT AND SWAP1 DUP4 PUSH20 0xFFFFFFFFFFFFFFFFFFFFFFFFFFFFFFFFFFFFFFFF AND MUL OR SWAP1 SSTORE POP DUP1 PUSH1 0x4 PUSH0 PUSH2 0x100 EXP DUP2 SLOAD DUP2 PUSH20 0xFFFFFFFFFFFFFFFFFFFFFFFFFFFFFFFFFFFFFFFF MUL NOT AND SWAP1 DUP4 PUSH20 0xFFFFFFFFFFFFFFFFFFFFFFFFFFFFFFFFFFFFFFFF AND MUL OR SWAP1 SSTORE POP POP POP POP PUSH2 0x3B1 JUMP JUMPDEST PUSH0 PUSH1 0x1 PUSH0 SWAP1 SLOAD SWAP1 PUSH2 0x100 EXP SWAP1 DIV PUSH20 0xFFFFFFFFFFFFFFFFFFFFFFFFFFFFFFFFFFFFFFFF AND SWAP1 POP DUP2 PUSH1 0x1 PUSH0 PUSH2 0x100 EXP DUP2 SLOAD DUP2 PUSH20 0xFFFFFFFFFFFFFFFFFFFFFFFFFFFFFFFFFFFFFFFF MUL NOT AND SWAP1 DUP4 PUSH20 0xFFFFFFFFFFFFFFFFFFFFFFFFFFFFFFFFFFFFFFFF AND MUL OR SWAP1 SSTORE POP DUP2 PUSH20 0xFFFFFFFFFFFFFFFFFFFFFFFFFFFFFFFFFFFFFFFF AND DUP2 PUSH20 0xFFFFFFFFFFFFFFFFFFFFFFFFFFFFFFFFFFFFFFFF AND PUSH32 0x8BE0079C531659141344CD1FD0A4F28419497F9722A3DAAFE3B4186F6B6457E0 PUSH1 0x40 MLOAD PUSH1 0x40 MLOAD DUP1 SWAP2 SUB SWAP1 LOG3 POP POP JUMP JUMPDEST PUSH0 PUSH0 REVERT JUMPDEST PUSH0 PUSH20 0xFFFFFFFFFFFFFFFFFFFFFFFFFFFFFFFFFFFFFFFF DUP3 AND SWAP1 POP SWAP2 SWAP1 POP JUMP JUMPDEST PUSH0 PUSH2 0x2CD DUP3 PUSH2 0x2A4 JUMP JUMPDEST SWAP1 POP SWAP2 SWAP1 POP JUMP JUMPDEST PUSH2 0x2DD DUP2 PUSH2 0x2C3 JUMP JUMPDEST DUP2 EQ PUSH2 0x2E7 JUMPI PUSH0 PUSH0 REVERT JUMPDEST POP JUMP JUMPDEST PUSH0 DUP2 MLOAD SWAP1 POP PUSH2 0x2F8 DUP2 PUSH2 0x2D4 JUMP JUMPDEST SWAP3 SWAP2 POP POP JUMP JUMPDEST PUSH0 PUSH2 0x308 DUP3 PUSH2 0x2A4 JUMP JUMPDEST SWAP1 POP SWAP2 SWAP1 POP JUMP JUMPDEST PUSH2 0x318 DUP2 PUSH2 0x2FE JUMP JUMPDEST DUP2 EQ PUSH2 0x322 JUMPI PUSH0 PUSH0 REVERT JUMPDEST POP JUMP JUMPDEST PUSH0 DUP2 MLOAD SWAP1 POP PUSH2 0x333 DUP2 PUSH2 0x30F JUMP JUMPDEST SWAP3 SWAP2 POP POP JUMP JUMPDEST PUSH0 PUSH0 PUSH0 PUSH1 0x60 DUP5 DUP7 SUB SLT ISZERO PUSH2 0x350 JUMPI PUSH2 0x34F PUSH2 0x2A0 JUMP JUMPDEST JUMPDEST PUSH0 PUSH2 0x35D DUP7 DUP3 DUP8 ADD PUSH2 0x2EA JUMP JUMPDEST SWAP4 POP POP PUSH1 0x20 PUSH2 0x36E DUP7 DUP3 DUP8 ADD PUSH2 0x325 JUMP JUMPDEST SWAP3 POP POP PUSH1 0x40 PUSH2 0x37F DUP7 DUP3 DUP8 ADD PUSH2 0x2EA JUMP JUMPDEST SWAP2 POP POP SWAP3 POP SWAP3 POP SWAP3 JUMP JUMPDEST PUSH2 0x392 DUP2 PUSH2 0x2C3 JUMP JUMPDEST DUP3 MSTORE POP POP JUMP JUMPDEST PUSH0 PUSH1 0x20 DUP3 ADD SWAP1 POP PUSH2 0x3AB PUSH0 DUP4 ADD DUP5 PUSH2 0x389 JUMP JUMPDEST SWAP3 SWAP2 POP POP JUMP JUMPDEST PUSH2 0x244C DUP1 PUSH2 0x3BE PUSH0 CODECOPY PUSH0 RETURN INVALID PUSH1 0x80 PUSH1 0x40 MSTORE PUSH1 0x4 CALLDATASIZE LT PUSH2 0xF6 JUMPI PUSH0 CALLDATALOAD PUSH1 0xE0 SHR DUP1 PUSH4 0x89A30271 GT PUSH2 0x89 JUMPI DUP1 PUSH4 0xB3E089A2 GT PUSH2 0x58 JUMPI DUP1 PUSH4 0xB3E089A2 EQ PUSH2 0x2FF JUMPI DUP1 PUSH4 0xDDD32898 EQ PUSH2 0x327 JUMPI DUP1 PUSH4 0xF0F44260 EQ PUSH2 0x34F JUMPI DUP1 PUSH4 0xF2FDE38B EQ PUSH2 0x377 JUMPI PUSH2 0xFD JUMP JUMPDEST DUP1 PUSH4 0x89A30271 EQ PUSH2 0x25B JUMPI DUP1 PUSH4 0x8DA5CB5B EQ PUSH2 0x285 JUMPI DUP1 PUSH4 0x9079B243 EQ PUSH2 0x2AF JUMPI DUP1 PUSH4 0x9C66FB7E EQ PUSH2 0x2D7 JUMPI PUSH2 0xFD JUMP JUMPDEST DUP1 PUSH4 0x4C2233A5 GT PUSH2 0xC5 JUMPI DUP1 PUSH4 0x4C2233A5 EQ PUSH2 0x1CB JUMPI DUP1 PUSH4 0x582515C7 EQ PUSH2 0x1F3 JUMPI DUP1 PUSH4 0x61D027B3 EQ PUSH2 0x21B JUMPI DUP1 PUSH4 0x715018A6 EQ PUSH2 0x245 JUMPI PUSH2 0xFD JUMP JUMPDEST DUP1 PUSH4 0x39AF9EB EQ PUSH2 0x101 JUMPI DUP1 PUSH4 0xA340FCA EQ PUSH2 0x13F JUMPI DUP1 PUSH4 0x150B7A02 EQ PUSH2 0x167 JUMPI DUP1 PUSH4 0x166E11B7 EQ PUSH2 0x1A3 JUMPI PUSH2 0xFD JUMP JUMPDEST CALLDATASIZE PUSH2 0xFD JUMPI STOP JUMPDEST PUSH0 PUSH0 REVERT JUMPDEST CALLVALUE DUP1 ISZERO PUSH2 0x10C JUMPI PUSH0 PUSH0 REVERT JUMPDEST POP PUSH2 0x127 PUSH1 0x4 DUP1 CALLDATASIZE SUB DUP2 ADD SWAP1 PUSH2 0x122 SWAP2 SWAP1 PUSH2 0x19D0 JUMP JUMPDEST PUSH2 0x39F JUMP JUMPDEST PUSH1 0x40 MLOAD PUSH2 0x136 SWAP4 SWAP3 SWAP2 SWAP1 PUSH2 0x1A63 JUMP JUMPDEST PUSH1 0x40 MLOAD DUP1 SWAP2 SUB SWAP1 RETURN JUMPDEST CALLVALUE DUP1 ISZERO PUSH2 0x14A JUMPI PUSH0 PUSH0 REVERT JUMPDEST POP PUSH2 0x165 PUSH1 0x4 DUP1 CALLDATASIZE SUB DUP2 ADD SWAP1 PUSH2 0x160 SWAP2 SWAP1 PUSH2 0x1B01 JUMP JUMPDEST PUSH2 0x3F0 JUMP JUMPDEST STOP JUMPDEST CALLVALUE DUP1 ISZERO PUSH2 0x172 JUMPI PUSH0 PUSH0 REVERT JUMPDEST POP PUSH2 0x18D PUSH1 0x4 DUP1 CALLDATASIZE SUB DUP2 ADD SWAP1 PUSH2 0x188 SWAP2 SWAP1 PUSH2 0x1C29 JUMP JUMPDEST PUSH2 0x808 JUMP JUMPDEST PUSH1 0x40 MLOAD PUSH2 0x19A SWAP2 SWAP1 PUSH2 0x1CE7 JUMP JUMPDEST PUSH1 0x40 MLOAD DUP1 SWAP2 SUB SWAP1 RETURN JUMPDEST CALLVALUE DUP1 ISZERO PUSH2 0x1AE JUMPI PUSH0 PUSH0 REVERT JUMPDEST POP PUSH2 0x1C9 PUSH1 0x4 DUP1 CALLDATASIZE SUB DUP2 ADD SWAP1 PUSH2 0x1C4 SWAP2 SWAP1 PUSH2 0x1D00 JUMP JUMPDEST PUSH2 0x81C JUMP JUMPDEST STOP JUMPDEST CALLVALUE DUP1 ISZERO PUSH2 0x1D6 JUMPI PUSH0 PUSH0 REVERT JUMPDEST POP PUSH2 0x1F1 PUSH1 0x4 DUP1 CALLDATASIZE SUB DUP2 ADD SWAP1 PUSH2 0x1EC SWAP2 SWAP1 PUSH2 0x1D3E JUMP JUMPDEST PUSH2 0xB25 JUMP JUMPDEST STOP JUMPDEST CALLVALUE DUP1 ISZERO PUSH2 0x1FE JUMPI PUSH0 PUSH0 REVERT JUMPDEST POP PUSH2 0x219 PUSH1 0x4 DUP1 CALLDATASIZE SUB DUP2 ADD SWAP1 PUSH2 0x214 SWAP2 SWAP1 PUSH2 0x1D7C JUMP JUMPDEST PUSH2 0xDBB JUMP JUMPDEST STOP JUMPDEST CALLVALUE DUP1 ISZERO PUSH2 0x226 JUMPI PUSH0 PUSH0 REVERT JUMPDEST POP PUSH2 0x22F PUSH2 0xEBF JUMP JUMPDEST PUSH1 0x40 MLOAD PUSH2 0x23C SWAP2 SWAP1 PUSH2 0x1DDA JUMP JUMPDEST PUSH1 0x40 MLOAD DUP1 SWAP2 SUB SWAP1 RETURN JUMPDEST CALLVALUE DUP1 ISZERO PUSH2 0x250 JUMPI PUSH0 PUSH0 REVERT JUMPDEST POP PUSH2 0x259 PUSH2 0xEE4 JUMP JUMPDEST STOP JUMPDEST CALLVALUE DUP1 ISZERO PUSH2 0x266 JUMPI PUSH0 PUSH0 REVERT JUMPDEST POP PUSH2 0x26F PUSH2 0xF27 JUMP JUMPDEST PUSH1 0x40 MLOAD PUSH2 0x27C SWAP2 SWAP1 PUSH2 0x1E4E JUMP JUMPDEST PUSH1 0x40 MLOAD DUP1 SWAP2 SUB SWAP1 RETURN JUMPDEST CALLVALUE DUP1 ISZERO PUSH2 0x290 JUMPI PUSH0 PUSH0 REVERT JUMPDEST POP PUSH2 0x299 PUSH2 0xF4C JUMP JUMPDEST PUSH1 0x40 MLOAD PUSH2 0x2A6 SWAP2 SWAP1 PUSH2 0x1E67 JUMP JUMPDEST PUSH1 0x40 MLOAD DUP1 SWAP2 SUB SWAP1 RETURN JUMPDEST CALLVALUE DUP1 ISZERO PUSH2 0x2BA JUMPI PUSH0 PUSH0 REVERT JUMPDEST POP PUSH2 0x2D5 PUSH1 0x4 DUP1 CALLDATASIZE SUB DUP2 ADD SWAP1 PUSH2 0x2D0 SWAP2 SWAP1 PUSH2 0x1EAA JUMP JUMPDEST PUSH2 0xF74 JUMP JUMPDEST STOP JUMPDEST CALLVALUE DUP1 ISZERO PUSH2 0x2E2 JUMPI PUSH0 PUSH0 REVERT JUMPDEST POP PUSH2 0x2FD PUSH1 0x4 DUP1 CALLDATASIZE SUB DUP2 ADD SWAP1 PUSH2 0x2F8 SWAP2 SWAP1 PUSH2 0x1F0E JUMP JUMPDEST PUSH2 0x1036 JUMP JUMPDEST STOP JUMPDEST CALLVALUE DUP1 ISZERO PUSH2 0x30A JUMPI PUSH0 PUSH0 REVERT JUMPDEST POP PUSH2 0x325 PUSH1 0x4 DUP1 CALLDATASIZE SUB DUP2 ADD SWAP1 PUSH2 0x320 SWAP2 SWAP1 PUSH2 0x1F5E JUMP JUMPDEST PUSH2 0x11B0 JUMP JUMPDEST STOP JUMPDEST CALLVALUE DUP1 ISZERO PUSH2 0x332 JUMPI PUSH0 PUSH0 REVERT JUMPDEST POP PUSH2 0x34D PUSH1 0x4 DUP1 CALLDATASIZE SUB DUP2 ADD SWAP1 PUSH2 0x348 SWAP2 SWAP1 PUSH2 0x1F0E JUMP JUMPDEST PUSH2 0x12DB JUMP JUMPDEST STOP JUMPDEST CALLVALUE DUP1 ISZERO PUSH2 0x35A JUMPI PUSH0 PUSH0 REVERT JUMPDEST POP PUSH2 0x375 PUSH1 0x4 DUP1 CALLDATASIZE SUB DUP2 ADD SWAP1 PUSH2 0x370 SWAP2 SWAP1 PUSH2 0x1FB3 JUMP JUMPDEST PUSH2 0x157E JUMP JUMPDEST STOP JUMPDEST CALLVALUE DUP1 ISZERO PUSH2 0x382 JUMPI PUSH0 PUSH0 REVERT JUMPDEST POP PUSH2 0x39D PUSH1 0x4 DUP1 CALLDATASIZE SUB DUP2 ADD SWAP1 PUSH2 0x398 SWAP2 SWAP1 PUSH2 0x1F5E JUMP JUMPDEST PUSH2 0x162E JUMP JUMPDEST STOP JUMPDEST PUSH1 0x2 PUSH1 0x20 MSTORE DUP1 PUSH0 MSTORE PUSH1 0x40 PUSH0 KECCAK256 PUSH0 SWAP2 POP SWAP1 POP DUP1 PUSH0 ADD PUSH0 SWAP1 SLOAD SWAP1 PUSH2 0x100 EXP SWAP1 DIV PUSH20 0xFFFFFFFFFFFFFFFFFFFFFFFFFFFFFFFFFFFFFFFF AND SWAP1 DUP1 PUSH1 0x1 ADD SLOAD SWAP1 DUP1 PUSH1 0x2 ADD PUSH0 SWAP1 SLOAD SWAP1 PUSH2 0x100 EXP SWAP1 DIV PUSH1 0xFF AND SWAP1 POP DUP4 JUMP JUMPDEST PUSH2 0x3F8 PUSH2 0x16B2 JUMP JUMPDEST PUSH0 PUSH1 0x2 PUSH0 DUP10 DUP2 MSTORE PUSH1 0x20 ADD SWAP1 DUP2 MSTORE PUSH1 0x20 ADD PUSH0 KECCAK256 PUSH1 0x40 MLOAD DUP1 PUSH1 0x60 ADD PUSH1 0x40 MSTORE SWAP1 DUP2 PUSH0 DUP3 ADD PUSH0 SWAP1 SLOAD SWAP1 PUSH2 0x100 EXP SWAP1 DIV PUSH20 0xFFFFFFFFFFFFFFFFFFFFFFFFFFFFFFFFFFFFFFFF AND PUSH20 0xFFFFFFFFFFFFFFFFFFFFFFFFFFFFFFFFFFFFFFFF AND PUSH20 0xFFFFFFFFFFFFFFFFFFFFFFFFFFFFFFFFFFFFFFFF AND DUP2 MSTORE PUSH1 0x20 ADD PUSH1 0x1 DUP3 ADD SLOAD DUP2 MSTORE PUSH1 0x20 ADD PUSH1 0x2 DUP3 ADD PUSH0 SWAP1 SLOAD SWAP1 PUSH2 0x100 EXP SWAP1 DIV PUSH1 0xFF AND ISZERO ISZERO ISZERO ISZERO DUP2 MSTORE POP POP SWAP1 POP PUSH0 PUSH20 0xFFFFFFFFFFFFFFFFFFFFFFFFFFFFFFFFFFFFFFFF AND DUP2 PUSH0 ADD MLOAD PUSH20 0xFFFFFFFFFFFFFFFFFFFFFFFFFFFFFFFFFFFFFFFF AND SUB PUSH2 0x4F7 JUMPI PUSH1 0x40 MLOAD PUSH32 0xE142361700000000000000000000000000000000000000000000000000000000 DUP2 MSTORE PUSH1 0x4 ADD PUSH1 0x40 MLOAD DUP1 SWAP2 SUB SWAP1 REVERT JUMPDEST DUP1 PUSH1 0x40 ADD MLOAD ISZERO DUP1 PUSH2 0x50B JUMPI POP PUSH0 DUP2 PUSH1 0x20 ADD MLOAD EQ JUMPDEST ISZERO PUSH2 0x542 JUMPI PUSH1 0x40 MLOAD PUSH32 0x94D366B500000000000000000000000000000000000000000000000000000000 DUP2 MSTORE PUSH1 0x4 ADD PUSH1 0x40 MLOAD DUP1 SWAP2 SUB SWAP1 REVERT JUMPDEST PUSH0 DUP8 SUB PUSH2 0x57B JUMPI PUSH1 0x40 MLOAD PUSH32 0xB0CCCA4500000000000000000000000000000000000000000000000000000000 DUP2 MSTORE PUSH1 0x4 ADD PUSH1 0x40 MLOAD DUP1 SWAP2 SUB SWAP1 REVERT JUMPDEST PUSH0 DUP8 DUP3 PUSH1 0x20 ADD MLOAD PUSH2 0x58C SWAP2 SWAP1 PUSH2 0x200B JUMP JUMPDEST SWAP1 POP DUP1 DUP8 EQ PUSH2 0x5D0 JUMPI PUSH1 0x40 MLOAD PUSH32 0x8C379A000000000000000000000000000000000000000000000000000000000 DUP2 MSTORE PUSH1 0x4 ADD PUSH2 0x5C7 SWAP1 PUSH2 0x20A6 JUMP JUMPDEST PUSH1 0x40 MLOAD DUP1 SWAP2 SUB SWAP1 REVERT JUMPDEST PUSH1 0x4 PUSH0 SWAP1 SLOAD SWAP1 PUSH2 0x100 EXP SWAP1 DIV PUSH20 0xFFFFFFFFFFFFFFFFFFFFFFFFFFFFFFFFFFFFFFFF AND PUSH20 0xFFFFFFFFFFFFFFFFFFFFFFFFFFFFFFFFFFFFFFFF AND PUSH4 0xD505ACCF CALLER ADDRESS DUP11 DUP11 DUP11 DUP11 DUP11 PUSH1 0x40 MLOAD DUP9 PUSH4 0xFFFFFFFF AND PUSH1 0xE0 SHL DUP2 MSTORE PUSH1 0x4 ADD PUSH2 0x636 SWAP8 SWAP7 SWAP6 SWAP5 SWAP4 SWAP3 SWAP2 SWAP1 PUSH2 0x20E2 JUMP JUMPDEST PUSH0 PUSH1 0x40 MLOAD DUP1 DUP4 SUB DUP2 PUSH0 DUP8 DUP1 EXTCODESIZE ISZERO DUP1 ISZERO PUSH2 0x64D JUMPI PUSH0 PUSH0 REVERT JUMPDEST POP GAS CALL ISZERO DUP1 ISZERO PUSH2 0x65F JUMPI RETURNDATASIZE PUSH0 PUSH0 RETURNDATACOPY RETURNDATASIZE PUSH0 REVERT JUMPDEST POP POP POP POP PUSH0 PUSH1 0x4 PUSH0 SWAP1 SLOAD SWAP1 PUSH2 0x100 EXP SWAP1 DIV PUSH20 0xFFFFFFFFFFFFFFFFFFFFFFFFFFFFFFFFFFFFFFFF AND PUSH20 0xFFFFFFFFFFFFFFFFFFFFFFFFFFFFFFFFFFFFFFFF AND PUSH4 0x23B872DD CALLER PUSH1 0x3 PUSH0 SWAP1 SLOAD SWAP1 PUSH2 0x100 EXP SWAP1 DIV PUSH20 0xFFFFFFFFFFFFFFFFFFFFFFFFFFFFFFFFFFFFFFFF AND DUP12 PUSH1 0x40 MLOAD DUP5 PUSH4 0xFFFFFFFF AND PUSH1 0xE0 SHL DUP2 MSTORE PUSH1 0x4 ADD PUSH2 0x6E3 SWAP4 SWAP3 SWAP2 SWAP1 PUSH2 0x216F JUMP JUMPDEST PUSH1 0x20 PUSH1 0x40 MLOAD DUP1 DUP4 SUB DUP2 PUSH0 DUP8 GAS CALL ISZERO DUP1 ISZERO PUSH2 0x6FF JUMPI RETURNDATASIZE PUSH0 PUSH0 RETURNDATACOPY RETURNDATASIZE PUSH0 REVERT JUMPDEST POP POP POP POP PUSH1 0x40 MLOAD RETURNDATASIZE PUSH1 0x1F NOT PUSH1 0x1F DUP3 ADD AND DUP3 ADD DUP1 PUSH1 0x40 MSTORE POP DUP2 ADD SWAP1 PUSH2 0x723 SWAP2 SWAP1 PUSH2 0x21B8 JUMP JUMPDEST SWAP1 POP DUP1 PUSH2 0x75C JUMPI PUSH1 0x40 MLOAD PUSH32 0xB0CCCA4500000000000000000000000000000000000000000000000000000000 DUP2 MSTORE PUSH1 0x4 ADD PUSH1 0x40 MLOAD DUP1 SWAP2 SUB SWAP1 REVERT JUMPDEST PUSH0 PUSH0 SWAP1 POP JUMPDEST DUP10 DUP2 LT ISZERO PUSH2 0x7F3 JUMPI PUSH0 PUSH2 0x776 DUP6 PUSH0 ADD MLOAD PUSH2 0x16FF JUMP JUMPDEST SWAP1 POP DUP5 PUSH0 ADD MLOAD PUSH20 0xFFFFFFFFFFFFFFFFFFFFFFFFFFFFFFFFFFFFFFFF AND PUSH4 0x42842E0E ADDRESS CALLER DUP5 PUSH1 0x40 MLOAD DUP5 PUSH4 0xFFFFFFFF AND PUSH1 0xE0 SHL DUP2 MSTORE PUSH1 0x4 ADD PUSH2 0x7B8 SWAP4 SWAP3 SWAP2 SWAP1 PUSH2 0x21E3 JUMP JUMPDEST PUSH0 PUSH1 0x40 MLOAD DUP1 DUP4 SUB DUP2 PUSH0 DUP8 DUP1 EXTCODESIZE ISZERO DUP1 ISZERO PUSH2 0x7CF JUMPI PUSH0 PUSH0 REVERT JUMPDEST POP GAS CALL ISZERO DUP1 ISZERO PUSH2 0x7E1 JUMPI RETURNDATASIZE PUSH0 PUSH0 RETURNDATACOPY RETURNDATASIZE PUSH0 REVERT JUMPDEST POP POP POP POP POP DUP1 DUP1 PUSH1 0x1 ADD SWAP2 POP POP PUSH2 0x761 JUMP JUMPDEST POP POP POP POP PUSH2 0x7FF PUSH2 0x183B JUMP JUMPDEST POP POP POP POP POP POP POP JUMP JUMPDEST PUSH0 PUSH4 0x150B7A02 PUSH1 0xE0 SHL SWAP1 POP SWAP6 SWAP5 POP POP POP POP POP JUMP JUMPDEST PUSH2 0x824 PUSH2 0x16B2 JUMP JUMPDEST PUSH0 PUSH1 0x2 PUSH0 DUP5 DUP2 MSTORE PUSH1 0x20 ADD SWAP1 DUP2 MSTORE PUSH1 0x20 ADD PUSH0 KECCAK256 PUSH1 0x40 MLOAD DUP1 PUSH1 0x60 ADD PUSH1 0x40 MSTORE SWAP1 DUP2 PUSH0 DUP3 ADD PUSH0 SWAP1 SLOAD SWAP1 PUSH2 0x100 EXP SWAP1 DIV PUSH20 0xFFFFFFFFFFFFFFFFFFFFFFFFFFFFFFFFFFFFFFFF AND PUSH20 0xFFFFFFFFFFFFFFFFFFFFFFFFFFFFFFFFFFFFFFFF AND PUSH20 0xFFFFFFFFFFFFFFFFFFFFFFFFFFFFFFFFFFFFFFFF AND DUP2 MSTORE PUSH1 0x20 ADD PUSH1 0x1 DUP3 ADD SLOAD DUP2 MSTORE PUSH1 0x20 ADD PUSH1 0x2 DUP3 ADD PUSH0 SWAP1 SLOAD SWAP1 PUSH2 0x100 EXP SWAP1 DIV PUSH1 0xFF AND ISZERO ISZERO ISZERO ISZERO DUP2 MSTORE POP POP SWAP1 POP PUSH0 PUSH20 0xFFFFFFFFFFFFFFFFFFFFFFFFFFFFFFFFFFFFFFFF AND DUP2 PUSH0 ADD MLOAD PUSH20 0xFFFFFFFFFFFFFFFFFFFFFFFFFFFFFFFFFFFFFFFF AND SUB PUSH2 0x923 JUMPI PUSH1 0x40 MLOAD PUSH32 0xE142361700000000000000000000000000000000000000000000000000000000 DUP2 MSTORE PUSH1 0x4 ADD PUSH1 0x40 MLOAD DUP1 SWAP2 SUB SWAP1 REVERT JUMPDEST DUP1 PUSH1 0x40 ADD MLOAD ISZERO DUP1 PUSH2 0x937 JUMPI POP PUSH0 DUP2 PUSH1 0x20 ADD MLOAD EQ JUMPDEST ISZERO PUSH2 0x96E JUMPI PUSH1 0x40 MLOAD PUSH32 0x94D366B500000000000000000000000000000000000000000000000000000000 DUP2 MSTORE PUSH1 0x4 ADD PUSH1 0x40 MLOAD DUP1 SWAP2 SUB SWAP1 REVERT JUMPDEST PUSH0 DUP3 DUP3 PUSH1 0x20 ADD MLOAD PUSH2 0x97F SWAP2 SWAP1 PUSH2 0x200B JUMP JUMPDEST SWAP1 POP PUSH1 0x4 PUSH0 SWAP1 SLOAD SWAP1 PUSH2 0x100 EXP SWAP1 DIV PUSH20 0xFFFFFFFFFFFFFFFFFFFFFFFFFFFFFFFFFFFFFFFF AND PUSH20 0xFFFFFFFFFFFFFFFFFFFFFFFFFFFFFFFFFFFFFFFF AND PUSH4 0x23B872DD CALLER PUSH1 0x3 PUSH0 SWAP1 SLOAD SWAP1 PUSH2 0x100 EXP SWAP1 DIV PUSH20 0xFFFFFFFFFFFFFFFFFFFFFFFFFFFFFFFFFFFFFFFF AND DUP5 PUSH1 0x40 MLOAD DUP5 PUSH4 0xFFFFFFFF AND PUSH1 0xE0 SHL DUP2 MSTORE PUSH1 0x4 ADD PUSH2 0xA00 SWAP4 SWAP3 SWAP2 SWAP1 PUSH2 0x216F JUMP JUMPDEST PUSH1 0x20 PUSH1 0x40 MLOAD DUP1 DUP4 SUB DUP2 PUSH0 DUP8 GAS CALL ISZERO DUP1 ISZERO PUSH2 0xA1C JUMPI RETURNDATASIZE PUSH0 PUSH0 RETURNDATACOPY RETURNDATASIZE PUSH0 REVERT JUMPDEST POP POP POP POP PUSH1 0x40 MLOAD RETURNDATASIZE PUSH1 0x1F NOT PUSH1 0x1F DUP3 ADD AND DUP3 ADD DUP1 PUSH1 0x40 MSTORE POP DUP2 ADD SWAP1 PUSH2 0xA40 SWAP2 SWAP1 PUSH2 0x21B8 JUMP JUMPDEST PUSH2 0xA7F JUMPI PUSH1 0x40 MLOAD PUSH32 0x8C379A000000000000000000000000000000000000000000000000000000000 DUP2 MSTORE PUSH1 0x4 ADD PUSH2 0xA76 SWAP1 PUSH2 0x2262 JUMP JUMPDEST PUSH1 0x40 MLOAD DUP1 SWAP2 SUB SWAP1 REVERT JUMPDEST PUSH0 PUSH0 SWAP1 POP JUMPDEST DUP4 DUP2 LT ISZERO PUSH2 0xB16 JUMPI PUSH0 PUSH2 0xA99 DUP5 PUSH0 ADD MLOAD PUSH2 0x16FF JUMP JUMPDEST SWAP1 POP DUP4 PUSH0 ADD MLOAD PUSH20 0xFFFFFFFFFFFFFFFFFFFFFFFFFFFFFFFFFFFFFFFF AND PUSH4 0x42842E0E ADDRESS CALLER DUP5 PUSH1 0x40 MLOAD DUP5 PUSH4 0xFFFFFFFF AND PUSH1 0xE0 SHL DUP2 MSTORE PUSH1 0x4 ADD PUSH2 0xADB SWAP4 SWAP3 SWAP2 SWAP1 PUSH2 0x21E3 JUMP JUMPDEST PUSH0 PUSH1 0x40 MLOAD DUP1 DUP4 SUB DUP2 PUSH0 DUP8 DUP1 EXTCODESIZE ISZERO DUP1 ISZERO PUSH2 0xAF2 JUMPI PUSH0 PUSH0 REVERT JUMPDEST POP GAS CALL ISZERO DUP1 ISZERO PUSH2 0xB04 JUMPI RETURNDATASIZE PUSH0 PUSH0 RETURNDATACOPY RETURNDATASIZE PUSH0 REVERT JUMPDEST POP POP POP POP POP DUP1 DUP1 PUSH1 0x1 ADD SWAP2 POP POP PUSH2 0xA84 JUMP JUMPDEST POP POP POP PUSH2 0xB21 PUSH2 0x183B JUMP JUMPDEST POP POP JUMP JUMPDEST PUSH2 0xB2D PUSH2 0x1844 JUMP JUMPDEST PUSH0 PUSH1 0x2 PUSH0 DUP5 DUP2 MSTORE PUSH1 0x20 ADD SWAP1 DUP2 MSTORE PUSH1 0x20 ADD PUSH0 KECCAK256 PUSH1 0x40 MLOAD DUP1 PUSH1 0x60 ADD PUSH1 0x40 MSTORE SWAP1 DUP2 PUSH0 DUP3 ADD PUSH0 SWAP1 SLOAD SWAP1 PUSH2 0x100 EXP SWAP1 DIV PUSH20 0xFFFFFFFFFFFFFFFFFFFFFFFFFFFFFFFFFFFFFFFF AND PUSH20 0xFFFFFFFFFFFFFFFFFFFFFFFFFFFFFFFFFFFFFFFF AND PUSH20 0xFFFFFFFFFFFFFFFFFFFFFFFFFFFFFFFFFFFFFFFF AND DUP2 MSTORE PUSH1 0x20 ADD PUSH1 0x1 DUP3 ADD SLOAD DUP2 MSTORE PUSH1 0x20 ADD PUSH1 0x2 DUP3 ADD PUSH0 SWAP1 SLOAD SWAP1 PUSH2 0x100 EXP SWAP1 DIV PUSH1 0xFF AND ISZERO ISZERO ISZERO ISZERO DUP2 MSTORE POP POP SWAP1 POP PUSH0 PUSH20 0xFFFFFFFFFFFFFFFFFFFFFFFFFFFFFFFFFFFFFFFF AND DUP2 PUSH0 ADD MLOAD PUSH20 0xFFFFFFFFFFFFFFFFFFFFFFFFFFFFFFFFFFFFFFFF AND SUB PUSH2 0xC2C JUMPI PUSH1 0x40 MLOAD PUSH32 0xE142361700000000000000000000000000000000000000000000000000000000 DUP2 MSTORE PUSH1 0x4 ADD PUSH1 0x40 MLOAD DUP1 SWAP2 SUB SWAP1 REVERT JUMPDEST PUSH0 DUP2 PUSH0 ADD MLOAD SWAP1 POP PUSH0 DUP2 PUSH20 0xFFFFFFFFFFFFFFFFFFFFFFFFFFFFFFFFFFFFFFFF AND PUSH4 0x70A08231 ADDRESS PUSH1 0x40 MLOAD DUP3 PUSH4 0xFFFFFFFF AND PUSH1 0xE0 SHL DUP2 MSTORE PUSH1 0x4 ADD PUSH2 0xC6D SWAP2 SWAP1 PUSH2 0x1E67 JUMP JUMPDEST PUSH1 0x20 PUSH1 0x40 MLOAD DUP1 DUP4 SUB DUP2 DUP7 GAS STATICCALL ISZERO DUP1 ISZERO PUSH2 0xC88 JUMPI RETURNDATASIZE PUSH0 PUSH0 RETURNDATACOPY RETURNDATASIZE PUSH0 REVERT JUMPDEST POP POP POP POP PUSH1 0x40 MLOAD RETURNDATASIZE PUSH1 0x1F NOT PUSH1 0x1F DUP3 ADD AND DUP3 ADD DUP1 PUSH1 0x40 MSTORE POP DUP2 ADD SWAP1 PUSH2 0xCAC SWAP2 SWAP1 PUSH2 0x2294 JUMP JUMPDEST SWAP1 POP PUSH0 PUSH0 SWAP1 POP JUMPDEST DUP2 DUP2 LT ISZERO PUSH2 0xDB3 JUMPI PUSH0 DUP4 PUSH20 0xFFFFFFFFFFFFFFFFFFFFFFFFFFFFFFFFFFFFFFFF AND PUSH4 0x2F745C59 ADDRESS PUSH0 PUSH1 0x40 MLOAD DUP4 PUSH4 0xFFFFFFFF AND PUSH1 0xE0 SHL DUP2 MSTORE PUSH1 0x4 ADD PUSH2 0xCF7 SWAP3 SWAP2 SWAP1 PUSH2 0x22F8 JUMP JUMPDEST PUSH1 0x20 PUSH1 0x40 MLOAD DUP1 DUP4 SUB DUP2 DUP7 GAS STATICCALL ISZERO DUP1 ISZERO PUSH2 0xD12 JUMPI RETURNDATASIZE PUSH0 PUSH0 RETURNDATACOPY RETURNDATASIZE PUSH0 REVERT JUMPDEST POP POP POP POP PUSH1 0x40 MLOAD RETURNDATASIZE PUSH1 0x1F NOT PUSH1 0x1F DUP3 ADD AND DUP3 ADD DUP1 PUSH1 0x40 MSTORE POP DUP2 ADD SWAP1 PUSH2 0xD36 SWAP2 SWAP1 PUSH2 0x2294 JUMP JUMPDEST SWAP1 POP DUP5 PUSH0 ADD MLOAD PUSH20 0xFFFFFFFFFFFFFFFFFFFFFFFFFFFFFFFFFFFFFFFF AND PUSH4 0x42842E0E ADDRESS DUP9 DUP5 PUSH1 0x40 MLOAD DUP5 PUSH4 0xFFFFFFFF AND PUSH1 0xE0 SHL DUP2 MSTORE PUSH1 0x4 ADD PUSH2 0xD78 SWAP4 SWAP3 SWAP2 SWAP1 PUSH2 0x21E3 JUMP JUMPDEST PUSH0 PUSH1 0x40 MLOAD DUP1 DUP4 SUB DUP2 PUSH0 DUP8 DUP1 EXTCODESIZE ISZERO DUP1 ISZERO PUSH2 0xD8F JUMPI PUSH0 PUSH0 REVERT JUMPDEST POP GAS CALL ISZERO DUP1 ISZERO PUSH2 0xDA1 JUMPI RETURNDATASIZE PUSH0 PUSH0 RETURNDATACOPY RETURNDATASIZE PUSH0 REVERT JUMPDEST POP POP POP POP POP DUP1 DUP1 PUSH1 0x1 ADD SWAP2 POP POP PUSH2 0xCB3 JUMP JUMPDEST POP POP POP POP POP POP JUMP JUMPDEST PUSH2 0xDC3 PUSH2 0x1844 JUMP JUMPDEST PUSH0 DUP3 PUSH20 0xFFFFFFFFFFFFFFFFFFFFFFFFFFFFFFFFFFFFFFFF AND PUSH4 0x70A08231 ADDRESS PUSH1 0x40 MLOAD DUP3 PUSH4 0xFFFFFFFF AND PUSH1 0xE0 SHL DUP2 MSTORE PUSH1 0x4 ADD PUSH2 0xDFD SWAP2 SWAP1 PUSH2 0x1E67 JUMP JUMPDEST PUSH1 0x20 PUSH1 0x40 MLOAD DUP1 DUP4 SUB DUP2 DUP7 GAS STATICCALL ISZERO DUP1 ISZERO PUSH2 0xE18 JUMPI RETURNDATASIZE PUSH0 PUSH0 RETURNDATACOPY RETURNDATASIZE PUSH0 REVERT JUMPDEST POP POP POP POP PUSH1 0x40 MLOAD RETURNDATASIZE PUSH1 0x1F NOT PUSH1 0x1F DUP3 ADD AND DUP3 ADD DUP1 PUSH1 0x40 MSTORE POP DUP2 ADD SWAP1 PUSH2 0xE3C SWAP2 SWAP1 PUSH2 0x2294 JUMP JUMPDEST SWAP1 POP DUP3 PUSH20 0xFFFFFFFFFFFFFFFFFFFFFFFFFFFFFFFFFFFFFFFF AND PUSH4 0xA9059CBB DUP4 DUP4 PUSH1 0x40 MLOAD DUP4 PUSH4 0xFFFFFFFF AND PUSH1 0xE0 SHL DUP2 MSTORE PUSH1 0x4 ADD PUSH2 0xE79 SWAP3 SWAP2 SWAP1 PUSH2 0x231F JUMP JUMPDEST PUSH1 0x20 PUSH1 0x40 MLOAD DUP1 DUP4 SUB DUP2 PUSH0 DUP8 GAS CALL ISZERO DUP1 ISZERO PUSH2 0xE95 JUMPI RETURNDATASIZE PUSH0 PUSH0 RETURNDATACOPY RETURNDATASIZE PUSH0 REVERT JUMPDEST POP POP POP POP PUSH1 0x40 MLOAD RETURNDATASIZE PUSH1 0x1F NOT PUSH1 0x1F DUP3 ADD AND DUP3 ADD DUP1 PUSH1 0x40 MSTORE POP DUP2 ADD SWAP1 PUSH2 0xEB9 SWAP2 SWAP1 PUSH2 0x21B8 JUMP JUMPDEST POP POP POP POP JUMP JUMPDEST PUSH1 0x3 PUSH0 SWAP1 SLOAD SWAP1 PUSH2 0x100 EXP SWAP1 DIV PUSH20 0xFFFFFFFFFFFFFFFFFFFFFFFFFFFFFFFFFFFFFFFF AND DUP2 JUMP JUMPDEST PUSH2 0xEEC PUSH2 0x1844 JUMP JUMPDEST PUSH1 0x40 MLOAD PUSH32 0x8C379A000000000000000000000000000000000000000000000000000000000 DUP2 MSTORE PUSH1 0x4 ADD PUSH2 0xF1E SWAP1 PUSH2 0x2390 JUMP JUMPDEST PUSH1 0x40 MLOAD DUP1 SWAP2 SUB SWAP1 REVERT JUMPDEST PUSH1 0x4 PUSH0 SWAP1 SLOAD SWAP1 PUSH2 0x100 EXP SWAP1 DIV PUSH20 0xFFFFFFFFFFFFFFFFFFFFFFFFFFFFFFFFFFFFFFFF AND DUP2 JUMP JUMPDEST PUSH0 PUSH1 0x1 PUSH0 SWAP1 SLOAD SWAP1 PUSH2 0x100 EXP SWAP1 DIV PUSH20 0xFFFFFFFFFFFFFFFFFFFFFFFFFFFFFFFFFFFFFFFF AND SWAP1 POP SWAP1 JUMP JUMPDEST PUSH2 0xF7C PUSH2 0x1844 JUMP JUMPDEST PUSH1 0x40 MLOAD DUP1 PUSH1 0x60 ADD PUSH1 0x40 MSTORE DUP1 DUP5 PUSH20 0xFFFFFFFFFFFFFFFFFFFFFFFFFFFFFFFFFFFFFFFF AND DUP2 MSTORE PUSH1 0x20 ADD DUP4 DUP2 MSTORE PUSH1 0x20 ADD DUP3 ISZERO ISZERO DUP2 MSTORE POP PUSH1 0x2 PUSH0 DUP7 DUP2 MSTORE PUSH1 0x20 ADD SWAP1 DUP2 MSTORE PUSH1 0x20 ADD PUSH0 KECCAK256 PUSH0 DUP3 ADD MLOAD DUP2 PUSH0 ADD PUSH0 PUSH2 0x100 EXP DUP2 SLOAD DUP2 PUSH20 0xFFFFFFFFFFFFFFFFFFFFFFFFFFFFFFFFFFFFFFFF MUL NOT AND SWAP1 DUP4 PUSH20 0xFFFFFFFFFFFFFFFFFFFFFFFFFFFFFFFFFFFFFFFF AND MUL OR SWAP1 SSTORE POP PUSH1 0x20 DUP3 ADD MLOAD DUP2 PUSH1 0x1 ADD SSTORE PUSH1 0x40 DUP3 ADD MLOAD DUP2 PUSH1 0x2 ADD PUSH0 PUSH2 0x100 EXP DUP2 SLOAD DUP2 PUSH1 0xFF MUL NOT AND SWAP1 DUP4 ISZERO ISZERO MUL OR SWAP1 SSTORE POP SWAP1 POP POP POP POP POP POP JUMP JUMPDEST PUSH2 0x103E PUSH2 0x1844 JUMP JUMPDEST PUSH0 PUSH1 0x2 PUSH0 DUP6 DUP2 MSTORE PUSH1 0x20 ADD SWAP1 DUP2 MSTORE PUSH1 0x20 ADD PUSH0 KECCAK256 PUSH1 0x40 MLOAD DUP1 PUSH1 0x60 ADD PUSH1 0x40 MSTORE SWAP1 DUP2 PUSH0 DUP3 ADD PUSH0 SWAP1 SLOAD SWAP1 PUSH2 0x100 EXP SWAP1 DIV PUSH20 0xFFFFFFFFFFFFFFFFFFFFFFFFFFFFFFFFFFFFFFFF AND PUSH20 0xFFFFFFFFFFFFFFFFFFFFFFFFFFFFFFFFFFFFFFFF AND PUSH20 0xFFFFFFFFFFFFFFFFFFFFFFFFFFFFFFFFFFFFFFFF AND DUP2 MSTORE PUSH1 0x20 ADD PUSH1 0x1 DUP3 ADD SLOAD DUP2 MSTORE PUSH1 0x20 ADD PUSH1 0x2 DUP3 ADD PUSH0 SWAP1 SLOAD SWAP1 PUSH2 0x100 EXP SWAP1 DIV PUSH1 0xFF AND ISZERO ISZERO ISZERO ISZERO DUP2 MSTORE POP POP SWAP1 POP PUSH0 PUSH20 0xFFFFFFFFFFFFFFFFFFFFFFFFFFFFFFFFFFFFFFFF AND DUP2 PUSH0 ADD MLOAD PUSH20 0xFFFFFFFFFFFFFFFFFFFFFFFFFFFFFFFFFFFFFFFF AND SUB PUSH2 0x113D JUMPI PUSH1 0x40 MLOAD PUSH32 0xE142361700000000000000000000000000000000000000000000000000000000 DUP2 MSTORE PUSH1 0x4 ADD PUSH1 0x40 MLOAD DUP1 SWAP2 SUB SWAP1 REVERT JUMPDEST DUP1 PUSH0 ADD MLOAD PUSH20 0xFFFFFFFFFFFFFFFFFFFFFFFFFFFFFFFFFFFFFFFF AND PUSH4 0x42842E0E ADDRESS DUP5 DUP7 PUSH1 0x40 MLOAD DUP5 PUSH4 0xFFFFFFFF AND PUSH1 0xE0 SHL DUP2 MSTORE PUSH1 0x4 ADD PUSH2 0x117D SWAP4 SWAP3 SWAP2 SWAP1 PUSH2 0x21E3 JUMP JUMPDEST PUSH0 PUSH1 0x40 MLOAD DUP1 DUP4 SUB DUP2 PUSH0 DUP8 DUP1 EXTCODESIZE ISZERO DUP1 ISZERO PUSH2 0x1194 JUMPI PUSH0 PUSH0 REVERT JUMPDEST POP GAS CALL ISZERO DUP1 ISZERO PUSH2 0x11A6 JUMPI RETURNDATASIZE PUSH0 PUSH0 RETURNDATACOPY RETURNDATASIZE PUSH0 REVERT JUMPDEST POP POP POP POP POP POP POP POP JUMP JUMPDEST PUSH2 0x11B8 PUSH2 0x1844 JUMP JUMPDEST PUSH0 PUSH20 0xFFFFFFFFFFFFFFFFFFFFFFFFFFFFFFFFFFFFFFFF AND DUP2 PUSH20 0xFFFFFFFFFFFFFFFFFFFFFFFFFFFFFFFFFFFFFFFF AND SUB PUSH2 0x121D JUMPI PUSH1 0x40 MLOAD PUSH32 0xD92E233D00000000000000000000000000000000000000000000000000000000 DUP2 MSTORE PUSH1 0x4 ADD PUSH1 0x40 MLOAD DUP1 SWAP2 SUB SWAP1 REVERT JUMPDEST DUP1 PUSH20 0xFFFFFFFFFFFFFFFFFFFFFFFFFFFFFFFFFFFFFFFF AND PUSH1 0x4 PUSH0 SWAP1 SLOAD SWAP1 PUSH2 0x100 EXP SWAP1 DIV PUSH20 0xFFFFFFFFFFFFFFFFFFFFFFFFFFFFFFFFFFFFFFFF AND PUSH20 0xFFFFFFFFFFFFFFFFFFFFFFFFFFFFFFFFFFFFFFFF AND PUSH32 0x64A623534F7A0E0A6E3F51D4899BB03EC91AED8BDDC911128789B05ACEA7334C PUSH1 0x40 MLOAD PUSH1 0x40 MLOAD DUP1 SWAP2 SUB SWAP1 LOG3 DUP1 PUSH1 0x4 PUSH0 PUSH2 0x100 EXP DUP2 SLOAD DUP2 PUSH20 0xFFFFFFFFFFFFFFFFFFFFFFFFFFFFFFFFFFFFFFFF MUL NOT AND SWAP1 DUP4 PUSH20 0xFFFFFFFFFFFFFFFFFFFFFFFFFFFFFFFFFFFFFFFF AND MUL OR SWAP1 SSTORE POP POP JUMP JUMPDEST PUSH2 0x12E3 PUSH2 0x1844 JUMP JUMPDEST PUSH0 PUSH1 0x2 PUSH0 DUP6 DUP2 MSTORE PUSH1 0x20 ADD SWAP1 DUP2 MSTORE PUSH1 0x20 ADD PUSH0 KECCAK256 PUSH1 0x40 MLOAD DUP1 PUSH1 0x60 ADD PUSH1 0x40 MSTORE SWAP1 DUP2 PUSH0 DUP3 ADD PUSH0 SWAP1 SLOAD SWAP1 PUSH2 0x100 EXP SWAP1 DIV PUSH20 0xFFFFFFFFFFFFFFFFFFFFFFFFFFFFFFFFFFFFFFFF AND PUSH20 0xFFFFFFFFFFFFFFFFFFFFFFFFFFFFFFFFFFFFFFFF AND PUSH20 0xFFFFFFFFFFFFFFFFFFFFFFFFFFFFFFFFFFFFFFFF AND DUP2 MSTORE PUSH1 0x20 ADD PUSH1 0x1 DUP3 ADD SLOAD DUP2 MSTORE PUSH1 0x20 ADD PUSH1 0x2 DUP3 ADD PUSH0 SWAP1 SLOAD SWAP1 PUSH2 0x100 EXP SWAP1 DIV PUSH1 0xFF AND ISZERO ISZERO ISZERO ISZERO DUP2 MSTORE POP POP SWAP1 POP PUSH0 PUSH20 0xFFFFFFFFFFFFFFFFFFFFFFFFFFFFFFFFFFFFFFFF AND DUP2 PUSH0 ADD MLOAD PUSH20 0xFFFFFFFFFFFFFFFFFFFFFFFFFFFFFFFFFFFFFFFF AND SUB PUSH2 0x13E2 JUMPI PUSH1 0x40 MLOAD PUSH32 0xE142361700000000000000000000000000000000000000000000000000000000 DUP2 MSTORE PUSH1 0x4 ADD PUSH1 0x40 MLOAD DUP1 SWAP2 SUB SWAP1 REVERT JUMPDEST PUSH0 DUP2 PUSH0 ADD MLOAD SWAP1 POP PUSH0 DUP2 PUSH20 0xFFFFFFFFFFFFFFFFFFFFFFFFFFFFFFFFFFFFFFFF AND PUSH4 0x70A08231 ADDRESS PUSH1 0x40 MLOAD DUP3 PUSH4 0xFFFFFFFF AND PUSH1 0xE0 SHL DUP2 MSTORE PUSH1 0x4 ADD PUSH2 0x1423 SWAP2 SWAP1 PUSH2 0x1E67 JUMP JUMPDEST PUSH1 0x20 PUSH1 0x40 MLOAD DUP1 DUP4 SUB DUP2 DUP7 GAS STATICCALL ISZERO DUP1 ISZERO PUSH2 0x143E JUMPI RETURNDATASIZE PUSH0 PUSH0 RETURNDATACOPY RETURNDATASIZE PUSH0 REVERT JUMPDEST POP POP POP POP PUSH1 0x40 MLOAD RETURNDATASIZE PUSH1 0x1F NOT PUSH1 0x1F DUP3 ADD AND DUP3 ADD DUP1 PUSH1 0x40 MSTORE POP DUP2 ADD SWAP1 PUSH2 0x1462 SWAP2 SWAP1 PUSH2 0x2294 JUMP JUMPDEST SWAP1 POP DUP1 DUP6 GT ISZERO PUSH2 0x1470 JUMPI DUP1 SWAP5 POP JUMPDEST PUSH0 PUSH0 SWAP1 POP JUMPDEST DUP6 DUP2 LT ISZERO PUSH2 0x1575 JUMPI PUSH0 DUP4 PUSH20 0xFFFFFFFFFFFFFFFFFFFFFFFFFFFFFFFFFFFFFFFF AND PUSH4 0x2F745C59 ADDRESS PUSH0 PUSH1 0x40 MLOAD DUP4 PUSH4 0xFFFFFFFF AND PUSH1 0xE0 SHL DUP2 MSTORE PUSH1 0x4 ADD PUSH2 0x14B9 SWAP3 SWAP2 SWAP1 PUSH2 0x22F8 JUMP JUMPDEST PUSH1 0x20 PUSH1 0x40 MLOAD DUP1 DUP4 SUB DUP2 DUP7 GAS STATICCALL ISZERO DUP1 ISZERO PUSH2 0x14D4 JUMPI RETURNDATASIZE PUSH0 PUSH0 RETURNDATACOPY RETURNDATASIZE PUSH0 REVERT JUMPDEST POP POP POP POP PUSH1 0x40 MLOAD RETURNDATASIZE PUSH1 0x1F NOT PUSH1 0x1F DUP3 ADD AND DUP3 ADD DUP1 PUSH1 0x40 MSTORE POP DUP2 ADD SWAP1 PUSH2 0x14F8 SWAP2 SWAP1 PUSH2 0x2294 JUMP JUMPDEST SWAP1 POP DUP5 PUSH0 ADD MLOAD PUSH20 0xFFFFFFFFFFFFFFFFFFFFFFFFFFFFFFFFFFFFFFFF AND PUSH4 0x42842E0E ADDRESS DUP9 DUP5 PUSH1 0x40 MLOAD DUP5 PUSH4 0xFFFFFFFF AND PUSH1 0xE0 SHL DUP2 MSTORE PUSH1 0x4 ADD PUSH2 0x153A SWAP4 SWAP3 SWAP2 SWAP1 PUSH2 0x21E3 JUMP JUMPDEST PUSH0 PUSH1 0x40 MLOAD DUP1 DUP4 SUB DUP2 PUSH0 DUP8 DUP1 EXTCODESIZE ISZERO DUP1 ISZERO PUSH2 0x1551 JUMPI PUSH0 PUSH0 REVERT JUMPDEST POP GAS CALL ISZERO DUP1 ISZERO PUSH2 0x1563 JUMPI RETURNDATASIZE PUSH0 PUSH0 RETURNDATACOPY RETURNDATASIZE PUSH0 REVERT JUMPDEST POP POP POP POP POP DUP1 DUP1 PUSH1 0x1 ADD SWAP2 POP POP PUSH2 0x1475 JUMP JUMPDEST POP POP POP POP POP POP POP JUMP JUMPDEST PUSH2 0x1586 PUSH2 0x1844 JUMP JUMPDEST PUSH0 PUSH20 0xFFFFFFFFFFFFFFFFFFFFFFFFFFFFFFFFFFFFFFFF AND DUP2 PUSH20 0xFFFFFFFFFFFFFFFFFFFFFFFFFFFFFFFFFFFFFFFF AND SUB PUSH2 0x15EB JUMPI PUSH1 0x40 MLOAD PUSH32 0xD92E233D00000000000000000000000000000000000000000000000000000000 DUP2 MSTORE PUSH1 0x4 ADD PUSH1 0x40 MLOAD DUP1 SWAP2 SUB SWAP1 REVERT JUMPDEST DUP1 PUSH1 0x3 PUSH0 PUSH2 0x100 EXP DUP2 SLOAD DUP2 PUSH20 0xFFFFFFFFFFFFFFFFFFFFFFFFFFFFFFFFFFFFFFFF MUL NOT AND SWAP1 DUP4 PUSH20 0xFFFFFFFFFFFFFFFFFFFFFFFFFFFFFFFFFFFFFFFF AND MUL OR SWAP1 SSTORE POP POP JUMP JUMPDEST PUSH2 0x1636 PUSH2 0x1844 JUMP JUMPDEST PUSH0 PUSH20 0xFFFFFFFFFFFFFFFFFFFFFFFFFFFFFFFFFFFFFFFF AND DUP2 PUSH20 0xFFFFFFFFFFFFFFFFFFFFFFFFFFFFFFFFFFFFFFFF AND SUB PUSH2 0x16A6 JUMPI PUSH0 PUSH1 0x40 MLOAD PUSH32 0x1E4FBDF700000000000000000000000000000000000000000000000000000000 DUP2 MSTORE PUSH1 0x4 ADD PUSH2 0x169D SWAP2 SWAP1 PUSH2 0x1E67 JUMP JUMPDEST PUSH1 0x40 MLOAD DUP1 SWAP2 SUB SWAP1 REVERT JUMPDEST PUSH2 0x16AF DUP2 PUSH2 0x18CB JUMP JUMPDEST POP JUMP JUMPDEST PUSH1 0x2 PUSH0 SLOAD SUB PUSH2 0x16F6 JUMPI PUSH1 0x40 MLOAD PUSH32 0x8C379A000000000000000000000000000000000000000000000000000000000 DUP2 MSTORE PUSH1 0x4 ADD PUSH2 0x16ED SWAP1 PUSH2 0x23F8 JUMP JUMPDEST PUSH1 0x40 MLOAD DUP1 SWAP2 SUB SWAP1 REVERT JUMPDEST PUSH1 0x2 PUSH0 DUP2 SWAP1 SSTORE POP JUMP JUMPDEST PUSH0 PUSH0 DUP3 SWAP1 POP PUSH0 DUP2 PUSH20 0xFFFFFFFFFFFFFFFFFFFFFFFFFFFFFFFFFFFFFFFF AND PUSH4 0x70A08231 ADDRESS PUSH1 0x40 MLOAD DUP3 PUSH4 0xFFFFFFFF AND PUSH1 0xE0 SHL DUP2 MSTORE PUSH1 0x4 ADD PUSH2 0x173E SWAP2 SWAP1 PUSH2 0x1E67 JUMP JUMPDEST PUSH1 0x20 PUSH1 0x40 MLOAD DUP1 DUP4 SUB DUP2 DUP7 GAS STATICCALL ISZERO DUP1 ISZERO PUSH2 0x1759 JUMPI RETURNDATASIZE PUSH0 PUSH0 RETURNDATACOPY RETURNDATASIZE PUSH0 REVERT JUMPDEST POP POP POP POP PUSH1 0x40 MLOAD RETURNDATASIZE PUSH1 0x1F NOT PUSH1 0x1F DUP3 ADD AND DUP3 ADD DUP1 PUSH1 0x40 MSTORE POP DUP2 ADD SWAP1 PUSH2 0x177D SWAP2 SWAP1 PUSH2 0x2294 JUMP JUMPDEST SWAP1 POP PUSH0 DUP2 SUB PUSH2 0x17B8 JUMPI PUSH1 0x40 MLOAD PUSH32 0x52DF9FE500000000000000000000000000000000000000000000000000000000 DUP2 MSTORE PUSH1 0x4 ADD PUSH1 0x40 MLOAD DUP1 SWAP2 SUB SWAP1 REVERT JUMPDEST DUP2 PUSH20 0xFFFFFFFFFFFFFFFFFFFFFFFFFFFFFFFFFFFFFFFF AND PUSH4 0x2F745C59 ADDRESS PUSH0 PUSH1 0x40 MLOAD DUP4 PUSH4 0xFFFFFFFF AND PUSH1 0xE0 SHL DUP2 MSTORE PUSH1 0x4 ADD PUSH2 0x17F3 SWAP3 SWAP2 SWAP1 PUSH2 0x22F8 JUMP JUMPDEST PUSH1 0x20 PUSH1 0x40 MLOAD DUP1 DUP4 SUB DUP2 DUP7 GAS STATICCALL ISZERO DUP1 ISZERO PUSH2 0x180E JUMPI RETURNDATASIZE PUSH0 PUSH0 RETURNDATACOPY RETURNDATASIZE PUSH0 REVERT JUMPDEST POP POP POP POP PUSH1 0x40 MLOAD RETURNDATASIZE PUSH1 0x1F NOT PUSH1 0x1F DUP3 ADD AND DUP3 ADD DUP1 PUSH1 0x40 MSTORE POP DUP2 ADD SWAP1 PUSH2 0x1832 SWAP2 SWAP1 PUSH2 0x2294 JUMP JUMPDEST SWAP3 POP POP POP SWAP2 SWAP1 POP JUMP JUMPDEST PUSH1 0x1 PUSH0 DUP2 SWAP1 SSTORE POP JUMP JUMPDEST PUSH2 0x184C PUSH2 0x198E JUMP JUMPDEST PUSH20 0xFFFFFFFFFFFFFFFFFFFFFFFFFFFFFFFFFFFFFFFF AND PUSH2 0x186A PUSH2 0xF4C JUMP JUMPDEST PUSH20 0xFFFFFFFFFFFFFFFFFFFFFFFFFFFFFFFFFFFFFFFF AND EQ PUSH2 0x18C9 JUMPI PUSH2 0x188D PUSH2 0x198E JUMP JUMPDEST PUSH1 0x40 MLOAD PUSH32 0x118CDAA700000000000000000000000000000000000000000000000000000000 DUP2 MSTORE PUSH1 0x4 ADD PUSH2 0x18C0 SWAP2 SWAP1 PUSH2 0x1E67 JUMP JUMPDEST PUSH1 0x40 MLOAD DUP1 SWAP2 SUB SWAP1 REVERT JUMPDEST JUMP JUMPDEST PUSH0 PUSH1 0x1 PUSH0 SWAP1 SLOAD SWAP1 PUSH2 0x100 EXP SWAP1 DIV PUSH20 0xFFFFFFFFFFFFFFFFFFFFFFFFFFFFFFFFFFFFFFFF AND SWAP1 POP DUP2 PUSH1 0x1 PUSH0 PUSH2 0x100 EXP DUP2 SLOAD DUP2 PUSH20 0xFFFFFFFFFFFFFFFFFFFFFFFFFFFFFFFFFFFFFFFF MUL NOT AND SWAP1 DUP4 PUSH20 0xFFFFFFFFFFFFFFFFFFFFFFFFFFFFFFFFFFFFFFFF AND MUL OR SWAP1 SSTORE POP DUP2 PUSH20 0xFFFFFFFFFFFFFFFFFFFFFFFFFFFFFFFFFFFFFFFF AND DUP2 PUSH20 0xFFFFFFFFFFFFFFFFFFFFFFFFFFFFFFFFFFFFFFFF AND PUSH32 0x8BE0079C531659141344CD1FD0A4F28419497F9722A3DAAFE3B4186F6B6457E0 PUSH1 0x40 MLOAD PUSH1 0x40 MLOAD DUP1 SWAP2 SUB SWAP1 LOG3 POP POP JUMP JUMPDEST PUSH0 CALLER SWAP1 POP SWAP1 JUMP JUMPDEST PUSH0 PUSH0 REVERT JUMPDEST PUSH0 PUSH0 REVERT JUMPDEST PUSH0 DUP2 SWAP1 POP SWAP2 SWAP1 POP JUMP JUMPDEST PUSH2 0x19AF DUP2 PUSH2 0x199D JUMP JUMPDEST DUP2 EQ PUSH2 0x19B9 JUMPI PUSH0 PUSH0 REVERT JUMPDEST POP JUMP JUMPDEST PUSH0 DUP2 CALLDATALOAD SWAP1 POP PUSH2 0x19CA DUP2 PUSH2 0x19A6 JUMP JUMPDEST SWAP3 SWAP2 POP POP JUMP JUMPDEST PUSH0 PUSH1 0x20 DUP3 DUP5 SUB SLT ISZERO PUSH2 0x19E5 JUMPI PUSH2 0x19E4 PUSH2 0x1995 JUMP JUMPDEST JUMPDEST PUSH0 PUSH2 0x19F2 DUP5 DUP3 DUP6 ADD PUSH2 0x19BC JUMP JUMPDEST SWAP2 POP POP SWAP3 SWAP2 POP POP JUMP JUMPDEST PUSH0 PUSH20 0xFFFFFFFFFFFFFFFFFFFFFFFFFFFFFFFFFFFFFFFF DUP3 AND SWAP1 POP SWAP2 SWAP1 POP JUMP JUMPDEST PUSH0 PUSH2 0x1A24 DUP3 PUSH2 0x19FB JUMP JUMPDEST SWAP1 POP SWAP2 SWAP1 POP JUMP JUMPDEST PUSH2 0x1A34 DUP2 PUSH2 0x1A1A JUMP JUMPDEST DUP3 MSTORE POP POP JUMP JUMPDEST PUSH2 0x1A43 DUP2 PUSH2 0x199D JUMP JUMPDEST DUP3 MSTORE POP POP JUMP JUMPDEST PUSH0 DUP2 ISZERO ISZERO SWAP1 POP SWAP2 SWAP1 POP JUMP JUMPDEST PUSH2 0x1A5D DUP2 PUSH2 0x1A49 JUMP JUMPDEST DUP3 MSTORE POP POP JUMP JUMPDEST PUSH0 PUSH1 0x60 DUP3 ADD SWAP1 POP PUSH2 0x1A76 PUSH0 DUP4 ADD DUP7 PUSH2 0x1A2B JUMP JUMPDEST PUSH2 0x1A83 PUSH1 0x20 DUP4 ADD DUP6 PUSH2 0x1A3A JUMP JUMPDEST PUSH2 0x1A90 PUSH1 0x40 DUP4 ADD DUP5 PUSH2 0x1A54 JUMP JUMPDEST SWAP5 SWAP4 POP POP POP POP JUMP JUMPDEST PUSH0 PUSH1 0xFF DUP3 AND SWAP1 POP SWAP2 SWAP1 POP JUMP JUMPDEST PUSH2 0x1AAD DUP2 PUSH2 0x1A98 JUMP JUMPDEST DUP2 EQ PUSH2 0x1AB7 JUMPI PUSH0 PUSH0 REVERT JUMPDEST POP JUMP JUMPDEST PUSH0 DUP2 CALLDATALOAD SWAP1 POP PUSH2 0x1AC8 DUP2 PUSH2 0x1AA4 JUMP JUMPDEST SWAP3 SWAP2 POP POP JUMP JUMPDEST PUSH0 DUP2 SWAP1 POP SWAP2 SWAP1 POP JUMP JUMPDEST PUSH2 0x1AE0 DUP2 PUSH2 0x1ACE JUMP JUMPDEST DUP2 EQ PUSH2 0x1AEA JUMPI PUSH0 PUSH0 REVERT JUMPDEST POP JUMP JUMPDEST PUSH0 DUP2 CALLDATALOAD SWAP1 POP PUSH2 0x1AFB DUP2 PUSH2 0x1AD7 JUMP JUMPDEST SWAP3 SWAP2 POP POP JUMP JUMPDEST PUSH0 PUSH0 PUSH0 PUSH0 PUSH0 PUSH0 PUSH0 PUSH1 0xE0 DUP9 DUP11 SUB SLT ISZERO PUSH2 0x1B1C JUMPI PUSH2 0x1B1B PUSH2 0x1995 JUMP JUMPDEST JUMPDEST PUSH0 PUSH2 0x1B29 DUP11 DUP3 DUP12 ADD PUSH2 0x19BC JUMP JUMPDEST SWAP8 POP POP PUSH1 0x20 PUSH2 0x1B3A DUP11 DUP3 DUP12 ADD PUSH2 0x19BC JUMP JUMPDEST SWAP7 POP POP PUSH1 0x40 PUSH2 0x1B4B DUP11 DUP3 DUP12 ADD PUSH2 0x19BC JUMP JUMPDEST SWAP6 POP POP PUSH1 0x60 PUSH2 0x1B5C DUP11 DUP3 DUP12 ADD PUSH2 0x19BC JUMP JUMPDEST SWAP5 POP POP PUSH1 0x80 PUSH2 0x1B6D DUP11 DUP3 DUP12 ADD PUSH2 0x1ABA JUMP JUMPDEST SWAP4 POP POP PUSH1 0xA0 PUSH2 0x1B7E DUP11 DUP3 DUP12 ADD PUSH2 0x1AED JUMP JUMPDEST SWAP3 POP POP PUSH1 0xC0 PUSH2 0x1B8F DUP11 DUP3 DUP12 ADD PUSH2 0x1AED JUMP JUMPDEST SWAP2 POP POP SWAP3 SWAP6 SWAP9 SWAP2 SWAP5 SWAP8 POP SWAP3 SWAP6 POP JUMP JUMPDEST PUSH2 0x1BA7 DUP2 PUSH2 0x1A1A JUMP JUMPDEST DUP2 EQ PUSH2 0x1BB1 JUMPI PUSH0 PUSH0 REVERT JUMPDEST POP JUMP JUMPDEST PUSH0 DUP2 CALLDATALOAD SWAP1 POP PUSH2 0x1BC2 DUP2 PUSH2 0x1B9E JUMP JUMPDEST SWAP3 SWAP2 POP POP JUMP JUMPDEST PUSH0 PUSH0 REVERT JUMPDEST PUSH0 PUSH0 REVERT JUMPDEST PUSH0 PUSH0 REVERT JUMPDEST PUSH0 PUSH0 DUP4 PUSH1 0x1F DUP5 ADD SLT PUSH2 0x1BE9 JUMPI PUSH2 0x1BE8 PUSH2 0x1BC8 JUMP JUMPDEST JUMPDEST DUP3 CALLDATALOAD SWAP1 POP PUSH8 0xFFFFFFFFFFFFFFFF DUP2 GT ISZERO PUSH2 0x1C06 JUMPI PUSH2 0x1C05 PUSH2 0x1BCC JUMP JUMPDEST JUMPDEST PUSH1 0x20 DUP4 ADD SWAP2 POP DUP4 PUSH1 0x1 DUP3 MUL DUP4 ADD GT ISZERO PUSH2 0x1C22 JUMPI PUSH2 0x1C21 PUSH2 0x1BD0 JUMP JUMPDEST JUMPDEST SWAP3 POP SWAP3 SWAP1 POP JUMP JUMPDEST PUSH0 PUSH0 PUSH0 PUSH0 PUSH0 PUSH1 0x80 DUP7 DUP9 SUB SLT ISZERO PUSH2 0x1C42 JUMPI PUSH2 0x1C41 PUSH2 0x1995 JUMP JUMPDEST JUMPDEST PUSH0 PUSH2 0x1C4F DUP9 DUP3 DUP10 ADD PUSH2 0x1BB4 JUMP JUMPDEST SWAP6 POP POP PUSH1 0x20 PUSH2 0x1C60 DUP9 DUP3 DUP10 ADD PUSH2 0x1BB4 JUMP JUMPDEST SWAP5 POP POP PUSH1 0x40 PUSH2 0x1C71 DUP9 DUP3 DUP10 ADD PUSH2 0x19BC JUMP JUMPDEST SWAP4 POP POP PUSH1 0x60 DUP7 ADD CALLDATALOAD PUSH8 0xFFFFFFFFFFFFFFFF DUP2 GT ISZERO PUSH2 0x1C92 JUMPI PUSH2 0x1C91 PUSH2 0x1999 JUMP JUMPDEST JUMPDEST PUSH2 0x1C9E DUP9 DUP3 DUP10 ADD PUSH2 0x1BD4 JUMP JUMPDEST SWAP3 POP SWAP3 POP POP SWAP3 SWAP6 POP SWAP3 SWAP6 SWAP1 SWAP4 POP JUMP JUMPDEST PUSH0 PUSH32 0xFFFFFFFF00000000000000000000000000000000000000000000000000000000 DUP3 AND SWAP1 POP SWAP2 SWAP1 POP JUMP JUMPDEST PUSH2 0x1CE1 DUP2 PUSH2 0x1CAD JUMP JUMPDEST DUP3 MSTORE POP POP JUMP JUMPDEST PUSH0 PUSH1 0x20 DUP3 ADD SWAP1 POP PUSH2 0x1CFA PUSH0 DUP4 ADD DUP5 PUSH2 0x1CD8 JUMP JUMPDEST SWAP3 SWAP2 POP POP JUMP JUMPDEST PUSH0 PUSH0 PUSH1 0x40 DUP4 DUP6 SUB SLT ISZERO PUSH2 0x1D16 JUMPI PUSH2 0x1D15 PUSH2 0x1995 JUMP JUMPDEST JUMPDEST PUSH0 PUSH2 0x1D23 DUP6 DUP3 DUP7 ADD PUSH2 0x19BC JUMP JUMPDEST SWAP3 POP POP PUSH1 0x20 PUSH2 0x1D34 DUP6 DUP3 DUP7 ADD PUSH2 0x19BC JUMP JUMPDEST SWAP2 POP POP SWAP3 POP SWAP3 SWAP1 POP JUMP JUMPDEST PUSH0 PUSH0 PUSH1 0x40 DUP4 DUP6 SUB SLT ISZERO PUSH2 0x1D54 JUMPI PUSH2 0x1D53 PUSH2 0x1995 JUMP JUMPDEST JUMPDEST PUSH0 PUSH2 0x1D61 DUP6 DUP3 DUP7 ADD PUSH2 0x19BC JUMP JUMPDEST SWAP3 POP POP PUSH1 0x20 PUSH2 0x1D72 DUP6 DUP3 DUP7 ADD PUSH2 0x1BB4 JUMP JUMPDEST SWAP2 POP POP SWAP3 POP SWAP3 SWAP1 POP JUMP JUMPDEST PUSH0 PUSH0 PUSH1 0x40 DUP4 DUP6 SUB SLT ISZERO PUSH2 0x1D92 JUMPI PUSH2 0x1D91 PUSH2 0x1995 JUMP JUMPDEST JUMPDEST PUSH0 PUSH2 0x1D9F DUP6 DUP3 DUP7 ADD PUSH2 0x1BB4 JUMP JUMPDEST SWAP3 POP POP PUSH1 0x20 PUSH2 0x1DB0 DUP6 DUP3 DUP7 ADD PUSH2 0x1BB4 JUMP JUMPDEST SWAP2 POP POP SWAP3 POP SWAP3 SWAP1 POP JUMP JUMPDEST PUSH0 PUSH2 0x1DC4 DUP3 PUSH2 0x19FB JUMP JUMPDEST SWAP1 POP SWAP2 SWAP1 POP JUMP JUMPDEST PUSH2 0x1DD4 DUP2 PUSH2 0x1DBA JUMP JUMPDEST DUP3 MSTORE POP POP JUMP JUMPDEST PUSH0 PUSH1 0x20 DUP3 ADD SWAP1 POP PUSH2 0x1DED PUSH0 DUP4 ADD DUP5 PUSH2 0x1DCB JUMP JUMPDEST SWAP3 SWAP2 POP POP JUMP JUMPDEST PUSH0 DUP2 SWAP1 POP SWAP2 SWAP1 POP JUMP JUMPDEST PUSH0 PUSH2 0x1E16 PUSH2 0x1E11 PUSH2 0x1E0C DUP5 PUSH2 0x19FB JUMP JUMPDEST PUSH2 0x1DF3 JUMP JUMPDEST PUSH2 0x19FB JUMP JUMPDEST SWAP1 POP SWAP2 SWAP1 POP JUMP JUMPDEST PUSH0 PUSH2 0x1E27 DUP3 PUSH2 0x1DFC JUMP JUMPDEST SWAP1 POP SWAP2 SWAP1 POP JUMP JUMPDEST PUSH0 PUSH2 0x1E38 DUP3 PUSH2 0x1E1D JUMP JUMPDEST SWAP1 POP SWAP2 SWAP1 POP JUMP JUMPDEST PUSH2 0x1E48 DUP2 PUSH2 0x1E2E JUMP JUMPDEST DUP3 MSTORE POP POP JUMP JUMPDEST PUSH0 PUSH1 0x20 DUP3 ADD SWAP1 POP PUSH2 0x1E61 PUSH0 DUP4 ADD DUP5 PUSH2 0x1E3F JUMP JUMPDEST SWAP3 SWAP2 POP POP JUMP JUMPDEST PUSH0 PUSH1 0x20 DUP3 ADD SWAP1 POP PUSH2 0x1E7A PUSH0 DUP4 ADD DUP5 PUSH2 0x1A2B JUMP JUMPDEST SWAP3 SWAP2 POP POP JUMP JUMPDEST PUSH2 0x1E89 DUP2 PUSH2 0x1A49 JUMP JUMPDEST DUP2 EQ PUSH2 0x1E93 JUMPI PUSH0 PUSH0 REVERT JUMPDEST POP JUMP JUMPDEST PUSH0 DUP2 CALLDATALOAD SWAP1 POP PUSH2 0x1EA4 DUP2 PUSH2 0x1E80 JUMP JUMPDEST SWAP3 SWAP2 POP POP JUMP JUMPDEST PUSH0 PUSH0 PUSH0 PUSH0 PUSH1 0x80 DUP6 DUP8 SUB SLT ISZERO PUSH2 0x1EC2 JUMPI PUSH2 0x1EC1 PUSH2 0x1995 JUMP JUMPDEST JUMPDEST PUSH0 PUSH2 0x1ECF DUP8 DUP3 DUP9 ADD PUSH2 0x19BC JUMP JUMPDEST SWAP5 POP POP PUSH1 0x20 PUSH2 0x1EE0 DUP8 DUP3 DUP9 ADD PUSH2 0x1BB4 JUMP JUMPDEST SWAP4 POP POP PUSH1 0x40 PUSH2 0x1EF1 DUP8 DUP3 DUP9 ADD PUSH2 0x19BC JUMP JUMPDEST SWAP3 POP POP PUSH1 0x60 PUSH2 0x1F02 DUP8 DUP3 DUP9 ADD PUSH2 0x1E96 JUMP JUMPDEST SWAP2 POP POP SWAP3 SWAP6 SWAP2 SWAP5 POP SWAP3 POP JUMP JUMPDEST PUSH0 PUSH0 PUSH0 PUSH1 0x60 DUP5 DUP7 SUB SLT ISZERO PUSH2 0x1F25 JUMPI PUSH2 0x1F24 PUSH2 0x1995 JUMP JUMPDEST JUMPDEST PUSH0 PUSH2 0x1F32 DUP7 DUP3 DUP8 ADD PUSH2 0x19BC JUMP JUMPDEST SWAP4 POP POP PUSH1 0x20 PUSH2 0x1F43 DUP7 DUP3 DUP8 ADD PUSH2 0x19BC JUMP JUMPDEST SWAP3 POP POP PUSH1 0x40 PUSH2 0x1F54 DUP7 DUP3 DUP8 ADD PUSH2 0x1BB4 JUMP JUMPDEST SWAP2 POP POP SWAP3 POP SWAP3 POP SWAP3 JUMP JUMPDEST PUSH0 PUSH1 0x20 DUP3 DUP5 SUB SLT ISZERO PUSH2 0x1F73 JUMPI PUSH2 0x1F72 PUSH2 0x1995 JUMP JUMPDEST JUMPDEST PUSH0 PUSH2 0x1F80 DUP5 DUP3 DUP6 ADD PUSH2 0x1BB4 JUMP JUMPDEST SWAP2 POP POP SWAP3 SWAP2 POP POP JUMP JUMPDEST PUSH2 0x1F92 DUP2 PUSH2 0x1DBA JUMP JUMPDEST DUP2 EQ PUSH2 0x1F9C JUMPI PUSH0 PUSH0 REVERT JUMPDEST POP JUMP JUMPDEST PUSH0 DUP2 CALLDATALOAD SWAP1 POP PUSH2 0x1FAD DUP2 PUSH2 0x1F89 JUMP JUMPDEST SWAP3 SWAP2 POP POP JUMP JUMPDEST PUSH0 PUSH1 0x20 DUP3 DUP5 SUB SLT ISZERO PUSH2 0x1FC8 JUMPI PUSH2 0x1FC7 PUSH2 0x1995 JUMP JUMPDEST JUMPDEST PUSH0 PUSH2 0x1FD5 DUP5 DUP3 DUP6 ADD PUSH2 0x1F9F JUMP JUMPDEST SWAP2 POP POP SWAP3 SWAP2 POP POP JUMP JUMPDEST PUSH32 0x4E487B7100000000000000000000000000000000000000000000000000000000 PUSH0 MSTORE PUSH1 0x11 PUSH1 0x4 MSTORE PUSH1 0x24 PUSH0 REVERT JUMPDEST PUSH0 PUSH2 0x2015 DUP3 PUSH2 0x199D JUMP JUMPDEST SWAP2 POP PUSH2 0x2020 DUP4 PUSH2 0x199D JUMP JUMPDEST SWAP3 POP DUP3 DUP3 MUL PUSH2 0x202E DUP2 PUSH2 0x199D JUMP JUMPDEST SWAP2 POP DUP3 DUP3 DIV DUP5 EQ DUP4 ISZERO OR PUSH2 0x2045 JUMPI PUSH2 0x2044 PUSH2 0x1FDE JUMP JUMPDEST JUMPDEST POP SWAP3 SWAP2 POP POP JUMP JUMPDEST PUSH0 DUP3 DUP3 MSTORE PUSH1 0x20 DUP3 ADD SWAP1 POP SWAP3 SWAP2 POP POP JUMP JUMPDEST PUSH32 0x7065726D69742076616C7565206D69736D617463680000000000000000000000 PUSH0 DUP3 ADD MSTORE POP JUMP JUMPDEST PUSH0 PUSH2 0x2090 PUSH1 0x15 DUP4 PUSH2 0x204C JUMP JUMPDEST SWAP2 POP PUSH2 0x209B DUP3 PUSH2 0x205C JUMP JUMPDEST PUSH1 0x20 DUP3 ADD SWAP1 POP SWAP2 SWAP1 POP JUMP JUMPDEST PUSH0 PUSH1 0x20 DUP3 ADD SWAP1 POP DUP2 DUP2 SUB PUSH0 DUP4 ADD MSTORE PUSH2 0x20BD DUP2 PUSH2 0x2084 JUMP JUMPDEST SWAP1 POP SWAP2 SWAP1 POP JUMP JUMPDEST PUSH2 0x20CD DUP2 PUSH2 0x1A98 JUMP JUMPDEST DUP3 MSTORE POP POP JUMP JUMPDEST PUSH2 0x20DC DUP2 PUSH2 0x1ACE JUMP JUMPDEST DUP3 MSTORE POP POP JUMP JUMPDEST PUSH0 PUSH1 0xE0 DUP3 ADD SWAP1 POP PUSH2 0x20F5 PUSH0 DUP4 ADD DUP11 PUSH2 0x1A2B JUMP JUMPDEST PUSH2 0x2102 PUSH1 0x20 DUP4 ADD DUP10 PUSH2 0x1A2B JUMP JUMPDEST PUSH2 0x210F PUSH1 0x40 DUP4 ADD DUP9 PUSH2 0x1A3A JUMP JUMPDEST PUSH2 0x211C PUSH1 0x60 DUP4 ADD DUP8 PUSH2 0x1A3A JUMP JUMPDEST PUSH2 0x2129 PUSH1 0x80 DUP4 ADD DUP7 PUSH2 0x20C4 JUMP JUMPDEST PUSH2 0x2136 PUSH1 0xA0 DUP4 ADD DUP6 PUSH2 0x20D3 JUMP JUMPDEST PUSH2 0x2143 PUSH1 0xC0 DUP4 ADD DUP5 PUSH2 0x20D3 JUMP JUMPDEST SWAP9 SWAP8 POP POP POP POP POP POP POP POP JUMP JUMPDEST PUSH0 PUSH2 0x2159 DUP3 PUSH2 0x1E1D JUMP JUMPDEST SWAP1 POP SWAP2 SWAP1 POP JUMP JUMPDEST PUSH2 0x2169 DUP2 PUSH2 0x214F JUMP JUMPDEST DUP3 MSTORE POP POP JUMP JUMPDEST PUSH0 PUSH1 0x60 DUP3 ADD SWAP1 POP PUSH2 0x2182 PUSH0 DUP4 ADD DUP7 PUSH2 0x1A2B JUMP JUMPDEST PUSH2 0x218F PUSH1 0x20 DUP4 ADD DUP6 PUSH2 0x2160 JUMP JUMPDEST PUSH2 0x219C PUSH1 0x40 DUP4 ADD DUP5 PUSH2 0x1A3A JUMP JUMPDEST SWAP5 SWAP4 POP POP POP POP JUMP JUMPDEST PUSH0 DUP2 MLOAD SWAP1 POP PUSH2 0x21B2 DUP2 PUSH2 0x1E80 JUMP JUMPDEST SWAP3 SWAP2 POP POP JUMP JUMPDEST PUSH0 PUSH1 0x20 DUP3 DUP5 SUB SLT ISZERO PUSH2 0x21CD JUMPI PUSH2 0x21CC PUSH2 0x1995 JUMP JUMPDEST JUMPDEST PUSH0 PUSH2 0x21DA DUP5 DUP3 DUP6 ADD PUSH2 0x21A4 JUMP JUMPDEST SWAP2 POP POP SWAP3 SWAP2 POP POP JUMP JUMPDEST PUSH0 PUSH1 0x60 DUP3 ADD SWAP1 POP PUSH2 0x21F6 PUSH0 DUP4 ADD DUP7 PUSH2 0x1A2B JUMP JUMPDEST PUSH2 0x2203 PUSH1 0x20 DUP4 ADD DUP6 PUSH2 0x1A2B JUMP JUMPDEST PUSH2 0x2210 PUSH1 0x40 DUP4 ADD DUP5 PUSH2 0x1A3A JUMP JUMPDEST SWAP5 SWAP4 POP POP POP POP JUMP JUMPDEST PUSH32 0x55534443207472616E73666572206661696C6564000000000000000000000000 PUSH0 DUP3 ADD MSTORE POP JUMP JUMPDEST PUSH0 PUSH2 0x224C PUSH1 0x14 DUP4 PUSH2 0x204C JUMP JUMPDEST SWAP2 POP PUSH2 0x2257 DUP3 PUSH2 0x2218 JUMP JUMPDEST PUSH1 0x20 DUP3 ADD SWAP1 POP SWAP2 SWAP1 POP JUMP JUMPDEST PUSH0 PUSH1 0x20 DUP3 ADD SWAP1 POP DUP2 DUP2 SUB PUSH0 DUP4 ADD MSTORE PUSH2 0x2279 DUP2 PUSH2 0x2240 JUMP JUMPDEST SWAP1 POP SWAP2 SWAP1 POP JUMP JUMPDEST PUSH0 DUP2 MLOAD SWAP1 POP PUSH2 0x228E DUP2 PUSH2 0x19A6 JUMP JUMPDEST SWAP3 SWAP2 POP POP JUMP JUMPDEST PUSH0 PUSH1 0x20 DUP3 DUP5 SUB SLT ISZERO PUSH2 0x22A9 JUMPI PUSH2 0x22A8 PUSH2 0x1995 JUMP JUMPDEST JUMPDEST PUSH0 PUSH2 0x22B6 DUP5 DUP3 DUP6 ADD PUSH2 0x2280 JUMP JUMPDEST SWAP2 POP POP SWAP3 SWAP2 POP POP JUMP JUMPDEST PUSH0 DUP2 SWAP1 POP SWAP2 SWAP1 POP JUMP JUMPDEST PUSH0 PUSH2 0x22E2 PUSH2 0x22DD PUSH2 0x22D8 DUP5 PUSH2 0x22BF JUMP JUMPDEST PUSH2 0x1DF3 JUMP JUMPDEST PUSH2 0x199D JUMP JUMPDEST SWAP1 POP SWAP2 SWAP1 POP JUMP JUMPDEST PUSH2 0x22F2 DUP2 PUSH2 0x22C8 JUMP JUMPDEST DUP3 MSTORE POP POP JUMP JUMPDEST PUSH0 PUSH1 0x40 DUP3 ADD SWAP1 POP PUSH2 0x230B PUSH0 DUP4 ADD DUP6 PUSH2 0x1A2B JUMP JUMPDEST PUSH2 0x2318 PUSH1 0x20 DUP4 ADD DUP5 PUSH2 0x22E9 JUMP JUMPDEST SWAP4 SWAP3 POP POP POP JUMP JUMPDEST PUSH0 PUSH1 0x40 DUP3 ADD SWAP1 POP PUSH2 0x2332 PUSH0 DUP4 ADD DUP6 PUSH2 0x1A2B JUMP JUMPDEST PUSH2 0x233F PUSH1 0x20 DUP4 ADD DUP5 PUSH2 0x1A3A JUMP JUMPDEST SWAP4 SWAP3 POP POP POP JUMP JUMPDEST PUSH32 0x52656E6F756E63696E67206F776E6572736869702069732064697361626C6564 PUSH0 DUP3 ADD MSTORE POP JUMP JUMPDEST PUSH0 PUSH2 0x237A PUSH1 0x20 DUP4 PUSH2 0x204C JUMP JUMPDEST SWAP2 POP PUSH2 0x2385 DUP3 PUSH2 0x2346 JUMP JUMPDEST PUSH1 0x20 DUP3 ADD SWAP1 POP SWAP2 SWAP1 POP JUMP JUMPDEST PUSH0 PUSH1 0x20 DUP3 ADD SWAP1 POP DUP2 DUP2 SUB PUSH0 DUP4 ADD MSTORE PUSH2 0x23A7 DUP2 PUSH2 0x236E JUMP JUMPDEST SWAP1 POP SWAP2 SWAP1 POP JUMP JUMPDEST PUSH32 0x5265656E7472616E637947756172643A207265656E7472616E742063616C6C00 PUSH0 DUP3 ADD MSTORE POP JUMP JUMPDEST PUSH0 PUSH2 0x23E2 PUSH1 0x1F DUP4 PUSH2 0x204C JUMP JUMPDEST SWAP2 POP PUSH2 0x23ED DUP3 PUSH2 0x23AE JUMP JUMPDEST PUSH1 0x20 DUP3 ADD SWAP1 POP SWAP2 SWAP1 POP JUMP JUMPDEST PUSH0 PUSH1 0x20 DUP3 ADD SWAP1 POP DUP2 DUP2 SUB PUSH0 DUP4 ADD MSTORE PUSH2 0x240F DUP2 PUSH2 0x23D6 JUMP JUMPDEST SWAP1 POP SWAP2 SWAP1 POP JUMP INVALID LOG2 PUSH5 0x6970667358 0x22 SLT KECCAK256 SWAP12 PUSH3 0x1A3D8 PUSH14 0x5E5EAC91CA6219690D494CEA3732 DUP7 MULMOD PUSH1 0x4E LOG2 DIV 0xAC 0xC5 SWAP13 OR ADDRESS RJUMP 0x6473 PUSH16 0x6C634300081E00330000000000000000 "
				},
				"gasEstimates": {
					"creation": {
						"codeDepositCost": "1858400",
						"executionCost": "infinite",
						"totalCost": "infinite"
					},
					"external": {
						"USDC()": "infinite",
						"buyWithUSDC(uint256,uint256)": "infinite",
						"buyWithUSDCPermit(uint256,uint256,uint256,uint256,uint8,bytes32,bytes32)": "infinite",
						"onERC721Received(address,address,uint256,bytes)": "infinite",
						"owner()": "2560",
						"renounceOwnership()": "infinite",
						"setTier(uint256,address,uint256,bool)": "infinite",
						"setTreasury(address)": "infinite",
						"setUSDC(address)": "infinite",
						"sweepERC20(address,address)": "infinite",
						"tiers(uint256)": "infinite",
						"transferOwnership(address)": "infinite",
						"treasury()": "2575",
						"withdrawAll(uint256,address)": "infinite",
						"withdrawN(uint256,uint256,address)": "infinite",
						"withdrawNFT(uint256,uint256,address)": "infinite"
					},
					"internal": {
						"_nextToken(address)": "infinite"
					}
				},
				"methodIdentifiers": {
					"USDC()": "89a30271",
					"buyWithUSDC(uint256,uint256)": "166e11b7",
					"buyWithUSDCPermit(uint256,uint256,uint256,uint256,uint8,bytes32,bytes32)": "0a340fca",
					"onERC721Received(address,address,uint256,bytes)": "150b7a02",
					"owner()": "8da5cb5b",
					"renounceOwnership()": "715018a6",
					"setTier(uint256,address,uint256,bool)": "9079b243",
					"setTreasury(address)": "f0f44260",
					"setUSDC(address)": "b3e089a2",
					"sweepERC20(address,address)": "582515c7",
					"tiers(uint256)": "039af9eb",
					"transferOwnership(address)": "f2fde38b",
					"treasury()": "61d027b3",
					"withdrawAll(uint256,address)": "4c2233a5",
					"withdrawN(uint256,uint256,address)": "ddd32898",
					"withdrawNFT(uint256,uint256,address)": "9c66fb7e"
				}
			},
			"storageLayout": {
				"storage": [
					{
						"astId": 248,
						"contract": "contracts/BadSammyNFTStore.sol:BadSammyNFTStore",
						"label": "_status",
						"offset": 0,
						"slot": "0",
						"type": "t_uint256"
					},
					{
						"astId": 8,
						"contract": "contracts/BadSammyNFTStore.sol:BadSammyNFTStore",
						"label": "_owner",
						"offset": 0,
						"slot": "1",
						"type": "t_address"
					},
					{
						"astId": 1122,
						"contract": "contracts/BadSammyNFTStore.sol:BadSammyNFTStore",
						"label": "tiers",
						"offset": 0,
						"slot": "2",
						"type": "t_mapping(t_uint256,t_struct(Tier)1117_storage)"
					},
					{
						"astId": 1124,
						"contract": "contracts/BadSammyNFTStore.sol:BadSammyNFTStore",
						"label": "treasury",
						"offset": 0,
						"slot": "3",
						"type": "t_address_payable"
					},
					{
						"astId": 1127,
						"contract": "contracts/BadSammyNFTStore.sol:BadSammyNFTStore",
						"label": "USDC",
						"offset": 0,
						"slot": "4",
						"type": "t_contract(IERC20)380"
					}
				],
				"types": {
					"t_address": {
						"encoding": "inplace",
						"label": "address",
						"numberOfBytes": "20"
					},
					"t_address_payable": {
						"encoding": "inplace",
						"label": "address payable",
						"numberOfBytes": "20"
					},
					"t_bool": {
						"encoding": "inplace",
						"label": "bool",
						"numberOfBytes": "1"
					},
					"t_contract(IERC20)380": {
						"encoding": "inplace",
						"label": "contract IERC20",
						"numberOfBytes": "20"
					},
					"t_mapping(t_uint256,t_struct(Tier)1117_storage)": {
						"encoding": "mapping",
						"key": "t_uint256",
						"label": "mapping(uint256 => struct BadSammyNFTStore.Tier)",
						"numberOfBytes": "32",
						"value": "t_struct(Tier)1117_storage"
					},
					"t_struct(Tier)1117_storage": {
						"encoding": "inplace",
						"label": "struct BadSammyNFTStore.Tier",
						"members": [
							{
								"astId": 1112,
								"contract": "contracts/BadSammyNFTStore.sol:BadSammyNFTStore",
								"label": "nft",
								"offset": 0,
								"slot": "0",
								"type": "t_address"
							},
							{
								"astId": 1114,
								"contract": "contracts/BadSammyNFTStore.sol:BadSammyNFTStore",
								"label": "priceUsdc",
								"offset": 0,
								"slot": "1",
								"type": "t_uint256"
							},
							{
								"astId": 1116,
								"contract": "contracts/BadSammyNFTStore.sol:BadSammyNFTStore",
								"label": "enabled",
								"offset": 0,
								"slot": "2",
								"type": "t_bool"
							}
						],
						"numberOfBytes": "96"
					},
					"t_uint256": {
						"encoding": "inplace",
						"label": "uint256",
						"numberOfBytes": "32"
					}
				}
			},
			"userdoc": {
				"kind": "user",
				"methods": {},
				"notice": "BadSammyNFTStore (USDC-ONLY MODE) ETH purchasing & price conversion have been commented out. This is a simplified version for launch using ONLY USDC.",
				"version": 1
			}
		}
	}
}