{
	"contracts/BadSammyNFTStore.sol": {
		"BadSammyNFTStore": {
			"abi": [
				{
					"inputs": [
						{
							"internalType": "address",
							"name": "initialOwner",
							"type": "address"
						},
						{
							"internalType": "address payable",
							"name": "_treasury",
							"type": "address"
						},
						{
							"internalType": "address",
							"name": "usdc",
							"type": "address"
						}
					],
					"stateMutability": "nonpayable",
					"type": "constructor"
				},
				{
					"inputs": [],
					"name": "InvalidTier",
					"type": "error"
				},
				{
					"inputs": [
						{
							"internalType": "address",
							"name": "owner",
							"type": "address"
						}
					],
					"name": "OwnableInvalidOwner",
					"type": "error"
				},
				{
					"inputs": [
						{
							"internalType": "address",
							"name": "account",
							"type": "address"
						}
					],
					"name": "OwnableUnauthorizedAccount",
					"type": "error"
				},
				{
					"inputs": [],
					"name": "PaymentIncorrect",
					"type": "error"
				},
				{
					"inputs": [
						{
							"internalType": "address",
							"name": "token",
							"type": "address"
						}
					],
					"name": "SafeERC20FailedOperation",
					"type": "error"
				},
				{
					"inputs": [],
					"name": "SoldOut",
					"type": "error"
				},
				{
					"inputs": [],
					"name": "TierDisabled",
					"type": "error"
				},
				{
					"inputs": [],
					"name": "ZeroAddress",
					"type": "error"
				},
				{
					"anonymous": false,
					"inputs": [
						{
							"indexed": true,
							"internalType": "address",
							"name": "previousOwner",
							"type": "address"
						},
						{
							"indexed": true,
							"internalType": "address",
							"name": "newOwner",
							"type": "address"
						}
					],
					"name": "OwnershipTransferred",
					"type": "event"
				},
				{
					"inputs": [],
					"name": "USDC",
					"outputs": [
						{
							"internalType": "contract IERC20",
							"name": "",
							"type": "address"
						}
					],
					"stateMutability": "view",
					"type": "function"
				},
				{
					"inputs": [
						{
							"internalType": "uint256",
							"name": "tierId",
							"type": "uint256"
						}
					],
					"name": "buyWithETH",
					"outputs": [],
					"stateMutability": "payable",
					"type": "function"
				},
				{
					"inputs": [
						{
							"internalType": "uint256",
							"name": "tierId",
							"type": "uint256"
						}
					],
					"name": "buyWithUSDC",
					"outputs": [],
					"stateMutability": "nonpayable",
					"type": "function"
				},
				{
					"inputs": [
						{
							"internalType": "uint256",
							"name": "tierId",
							"type": "uint256"
						},
						{
							"internalType": "uint256",
							"name": "value",
							"type": "uint256"
						},
						{
							"internalType": "uint256",
							"name": "deadline",
							"type": "uint256"
						},
						{
							"internalType": "uint8",
							"name": "v",
							"type": "uint8"
						},
						{
							"internalType": "bytes32",
							"name": "r",
							"type": "bytes32"
						},
						{
							"internalType": "bytes32",
							"name": "s",
							"type": "bytes32"
						}
					],
					"name": "buyWithUSDCPermit",
					"outputs": [],
					"stateMutability": "nonpayable",
					"type": "function"
				},
				{
					"inputs": [],
					"name": "owner",
					"outputs": [
						{
							"internalType": "address",
							"name": "",
							"type": "address"
						}
					],
					"stateMutability": "view",
					"type": "function"
				},
				{
					"inputs": [],
					"name": "renounceOwnership",
					"outputs": [],
					"stateMutability": "nonpayable",
					"type": "function"
				},
				{
					"inputs": [
						{
							"internalType": "uint256",
							"name": "tierId",
							"type": "uint256"
						},
						{
							"internalType": "address",
							"name": "nftAddress",
							"type": "address"
						},
						{
							"internalType": "uint256",
							"name": "priceEthWei",
							"type": "uint256"
						},
						{
							"internalType": "uint256",
							"name": "priceUsdcUnits",
							"type": "uint256"
						},
						{
							"internalType": "bool",
							"name": "enabled",
							"type": "bool"
						}
					],
					"name": "setTier",
					"outputs": [],
					"stateMutability": "nonpayable",
					"type": "function"
				},
				{
					"inputs": [
						{
							"internalType": "address payable",
							"name": "_treasury",
							"type": "address"
						}
					],
					"name": "setTreasury",
					"outputs": [],
					"stateMutability": "nonpayable",
					"type": "function"
				},
				{
					"inputs": [
						{
							"internalType": "address",
							"name": "token",
							"type": "address"
						},
						{
							"internalType": "address",
							"name": "to",
							"type": "address"
						}
					],
					"name": "sweepERC20",
					"outputs": [],
					"stateMutability": "nonpayable",
					"type": "function"
				},
				{
					"inputs": [
						{
							"internalType": "uint256",
							"name": "",
							"type": "uint256"
						}
					],
					"name": "tiers",
					"outputs": [
						{
							"internalType": "address",
							"name": "nft",
							"type": "address"
						},
						{
							"internalType": "uint256",
							"name": "priceEth",
							"type": "uint256"
						},
						{
							"internalType": "uint256",
							"name": "priceUsdc",
							"type": "uint256"
						},
						{
							"internalType": "bool",
							"name": "enabled",
							"type": "bool"
						}
					],
					"stateMutability": "view",
					"type": "function"
				},
				{
					"inputs": [
						{
							"internalType": "address",
							"name": "newOwner",
							"type": "address"
						}
					],
					"name": "transferOwnership",
					"outputs": [],
					"stateMutability": "nonpayable",
					"type": "function"
				},
				{
					"inputs": [],
					"name": "treasury",
					"outputs": [
						{
							"internalType": "address payable",
							"name": "",
							"type": "address"
						}
					],
					"stateMutability": "view",
					"type": "function"
				},
				{
					"inputs": [
						{
							"internalType": "uint256",
							"name": "tierId",
							"type": "uint256"
						},
						{
							"internalType": "address",
							"name": "to",
							"type": "address"
						}
					],
					"name": "withdrawAll",
					"outputs": [],
					"stateMutability": "nonpayable",
					"type": "function"
				},
				{
					"inputs": [
						{
							"internalType": "uint256",
							"name": "tierId",
							"type": "uint256"
						},
						{
							"internalType": "uint256",
							"name": "quantity",
							"type": "uint256"
						},
						{
							"internalType": "address",
							"name": "to",
							"type": "address"
						}
					],
					"name": "withdrawN",
					"outputs": [],
					"stateMutability": "nonpayable",
					"type": "function"
				},
				{
					"inputs": [
						{
							"internalType": "uint256",
							"name": "tierId",
							"type": "uint256"
						},
						{
							"internalType": "uint256",
							"name": "tokenId",
							"type": "uint256"
						},
						{
							"internalType": "address",
							"name": "to",
							"type": "address"
						}
					],
					"name": "withdrawNFT",
					"outputs": [],
					"stateMutability": "nonpayable",
					"type": "function"
				},
				{
					"inputs": [
						{
							"internalType": "uint256",
							"name": "tierId",
							"type": "uint256"
						},
						{
							"internalType": "uint256",
							"name": "startTokenId",
							"type": "uint256"
						},
						{
							"internalType": "uint256",
							"name": "endTokenId",
							"type": "uint256"
						},
						{
							"internalType": "address",
							"name": "to",
							"type": "address"
						}
					],
					"name": "withdrawRange",
					"outputs": [],
					"stateMutability": "nonpayable",
					"type": "function"
				},
				{
					"stateMutability": "payable",
					"type": "receive"
				}
			],
			"devdoc": {
				"errors": {
					"OwnableInvalidOwner(address)": [
						{
							"details": "The owner is not a valid owner account. (eg. `address(0)`)"
						}
					],
					"OwnableUnauthorizedAccount(address)": [
						{
							"details": "The caller account is not authorized to perform an operation."
						}
					],
					"SafeERC20FailedOperation(address)": [
						{
							"details": "An operation with an ERC-20 token failed."
						}
					]
				},
				"kind": "dev",
				"methods": {
					"owner()": {
						"details": "Returns the address of the current owner."
					},
					"renounceOwnership()": {
						"details": "Leaves the contract without owner. It will not be possible to call `onlyOwner` functions. Can only be called by the current owner. NOTE: Renouncing ownership will leave the contract without an owner, thereby disabling any functionality that is only available to the owner."
					},
					"transferOwnership(address)": {
						"details": "Transfers ownership of the contract to a new account (`newOwner`). Can only be called by the current owner."
					}
				},
				"version": 1
			},
			"evm": {
				"assembly": "    /* \"contracts/BadSammyNFTStore.sol\":862:7074  contract BadSammyNFTStore is ReentrancyGuard, Ownable {... */\n  mstore(0x40, 0xa0)\n    /* \"contracts/BadSammyNFTStore.sol\":1474:1730  constructor(address initialOwner, address payable _treasury, address usdc)... */\n  callvalue\n  dup1\n  iszero\n  tag_1\n  jumpi\n  revert(0x00, 0x00)\ntag_1:\n  pop\n  mload(0x40)\n  sub(codesize, bytecodeSize)\n  dup1\n  bytecodeSize\n  dup4\n  codecopy\n  dup2\n  dup2\n  add\n  0x40\n  mstore\n  dup2\n  add\n  swap1\n  tag_2\n  swap2\n  swap1\n  tag_3\n  jump\t// in\ntag_2:\n    /* \"contracts/BadSammyNFTStore.sol\":1565:1577  initialOwner */\n  dup3\n    /* \"@openzeppelin/contracts/security/ReentrancyGuard.sol\":1716:1717  1 */\n  0x01\n    /* \"@openzeppelin/contracts/security/ReentrancyGuard.sol\":1821:1828  _status */\n  0x00\n    /* \"@openzeppelin/contracts/security/ReentrancyGuard.sol\":1821:1843  _status = _NOT_ENTERED */\n  dup2\n  swap1\n  sstore\n  pop\n    /* \"@openzeppelin/contracts/access/Ownable.sol\":1297:1298  0 */\n  0x00\n    /* \"@openzeppelin/contracts/access/Ownable.sol\":1273:1299  initialOwner == address(0) */\n  0xffffffffffffffffffffffffffffffffffffffff\n  and\n    /* \"@openzeppelin/contracts/access/Ownable.sol\":1273:1285  initialOwner */\n  dup2\n    /* \"@openzeppelin/contracts/access/Ownable.sol\":1273:1299  initialOwner == address(0) */\n  0xffffffffffffffffffffffffffffffffffffffff\n  and\n  sub\n    /* \"@openzeppelin/contracts/access/Ownable.sol\":1269:1364  if (initialOwner == address(0)) {... */\n  tag_9\n  jumpi\n    /* \"@openzeppelin/contracts/access/Ownable.sol\":1350:1351  0 */\n  0x00\n    /* \"@openzeppelin/contracts/access/Ownable.sol\":1322:1353  OwnableInvalidOwner(address(0)) */\n  mload(0x40)\n  0x1e4fbdf700000000000000000000000000000000000000000000000000000000\n  dup2\n  mstore\n  0x04\n  add\n  tag_10\n  swap2\n  swap1\n  tag_11\n  jump\t// in\ntag_10:\n  mload(0x40)\n  dup1\n  swap2\n  sub\n  swap1\n  revert\n    /* \"@openzeppelin/contracts/access/Ownable.sol\":1269:1364  if (initialOwner == address(0)) {... */\ntag_9:\n    /* \"@openzeppelin/contracts/access/Ownable.sol\":1373:1405  _transferOwnership(initialOwner) */\n  tag_12\n    /* \"@openzeppelin/contracts/access/Ownable.sol\":1392:1404  initialOwner */\n  dup2\n    /* \"@openzeppelin/contracts/access/Ownable.sol\":1373:1391  _transferOwnership */\n  shl(0x20, tag_13)\n    /* \"@openzeppelin/contracts/access/Ownable.sol\":1373:1405  _transferOwnership(initialOwner) */\n  0x20\n  shr\n  jump\t// in\ntag_12:\n    /* \"@openzeppelin/contracts/access/Ownable.sol\":1225:1412  constructor(address initialOwner) {... */\n  pop\n    /* \"contracts/BadSammyNFTStore.sol\":1618:1619  0 */\n  0x00\n    /* \"contracts/BadSammyNFTStore.sol\":1597:1620  _treasury == address(0) */\n  0xffffffffffffffffffffffffffffffffffffffff\n  and\n    /* \"contracts/BadSammyNFTStore.sol\":1597:1606  _treasury */\n  dup3\n    /* \"contracts/BadSammyNFTStore.sol\":1597:1620  _treasury == address(0) */\n  0xffffffffffffffffffffffffffffffffffffffff\n  and\n  eq\n    /* \"contracts/BadSammyNFTStore.sol\":1597:1642  _treasury == address(0) || usdc == address(0) */\n  dup1\n  tag_15\n  jumpi\n  pop\n    /* \"contracts/BadSammyNFTStore.sol\":1640:1641  0 */\n  0x00\n    /* \"contracts/BadSammyNFTStore.sol\":1624:1642  usdc == address(0) */\n  0xffffffffffffffffffffffffffffffffffffffff\n  and\n    /* \"contracts/BadSammyNFTStore.sol\":1624:1628  usdc */\n  dup2\n    /* \"contracts/BadSammyNFTStore.sol\":1624:1642  usdc == address(0) */\n  0xffffffffffffffffffffffffffffffffffffffff\n  and\n  eq\n    /* \"contracts/BadSammyNFTStore.sol\":1597:1642  _treasury == address(0) || usdc == address(0) */\ntag_15:\n    /* \"contracts/BadSammyNFTStore.sol\":1593:1664  if (_treasury == address(0) || usdc == address(0)) revert ZeroAddress() */\n  iszero\n  tag_16\n  jumpi\n    /* \"contracts/BadSammyNFTStore.sol\":1651:1664  ZeroAddress() */\n  mload(0x40)\n  0xd92e233d00000000000000000000000000000000000000000000000000000000\n  dup2\n  mstore\n  0x04\n  add\n  mload(0x40)\n  dup1\n  swap2\n  sub\n  swap1\n  revert\n    /* \"contracts/BadSammyNFTStore.sol\":1593:1664  if (_treasury == address(0) || usdc == address(0)) revert ZeroAddress() */\ntag_16:\n    /* \"contracts/BadSammyNFTStore.sol\":1685:1694  _treasury */\n  dup2\n    /* \"contracts/BadSammyNFTStore.sol\":1674:1682  treasury */\n  0x03\n  0x00\n    /* \"contracts/BadSammyNFTStore.sol\":1674:1694  treasury = _treasury */\n  0x0100\n  exp\n  dup2\n  sload\n  dup2\n  0xffffffffffffffffffffffffffffffffffffffff\n  mul\n  not\n  and\n  swap1\n  dup4\n  0xffffffffffffffffffffffffffffffffffffffff\n  and\n  mul\n  or\n  swap1\n  sstore\n  pop\n    /* \"contracts/BadSammyNFTStore.sol\":1718:1722  usdc */\n  dup1\n    /* \"contracts/BadSammyNFTStore.sol\":1704:1723  USDC = IERC20(usdc) */\n  0xffffffffffffffffffffffffffffffffffffffff\n  and\n  0x80\n  dup2\n  0xffffffffffffffffffffffffffffffffffffffff\n  and\n  dup2\n  mstore\n  pop\n  pop\n    /* \"contracts/BadSammyNFTStore.sol\":1474:1730  constructor(address initialOwner, address payable _treasury, address usdc)... */\n  pop\n  pop\n  pop\n    /* \"contracts/BadSammyNFTStore.sol\":862:7074  contract BadSammyNFTStore is ReentrancyGuard, Ownable {... */\n  jump(tag_17)\n    /* \"@openzeppelin/contracts/access/Ownable.sol\":2912:3099  function _transferOwnership(address newOwner) internal virtual {... */\ntag_13:\n    /* \"@openzeppelin/contracts/access/Ownable.sol\":2985:3001  address oldOwner */\n  0x00\n    /* \"@openzeppelin/contracts/access/Ownable.sol\":3004:3010  _owner */\n  0x01\n  0x00\n  swap1\n  sload\n  swap1\n  0x0100\n  exp\n  swap1\n  div\n  0xffffffffffffffffffffffffffffffffffffffff\n  and\n    /* \"@openzeppelin/contracts/access/Ownable.sol\":2985:3010  address oldOwner = _owner */\n  swap1\n  pop\n    /* \"@openzeppelin/contracts/access/Ownable.sol\":3029:3037  newOwner */\n  dup2\n    /* \"@openzeppelin/contracts/access/Ownable.sol\":3020:3026  _owner */\n  0x01\n  0x00\n    /* \"@openzeppelin/contracts/access/Ownable.sol\":3020:3037  _owner = newOwner */\n  0x0100\n  exp\n  dup2\n  sload\n  dup2\n  0xffffffffffffffffffffffffffffffffffffffff\n  mul\n  not\n  and\n  swap1\n  dup4\n  0xffffffffffffffffffffffffffffffffffffffff\n  and\n  mul\n  or\n  swap1\n  sstore\n  pop\n    /* \"@openzeppelin/contracts/access/Ownable.sol\":3083:3091  newOwner */\n  dup2\n    /* \"@openzeppelin/contracts/access/Ownable.sol\":3052:3092  OwnershipTransferred(oldOwner, newOwner) */\n  0xffffffffffffffffffffffffffffffffffffffff\n  and\n    /* \"@openzeppelin/contracts/access/Ownable.sol\":3073:3081  oldOwner */\n  dup2\n    /* \"@openzeppelin/contracts/access/Ownable.sol\":3052:3092  OwnershipTransferred(oldOwner, newOwner) */\n  0xffffffffffffffffffffffffffffffffffffffff\n  and\n  0x8be0079c531659141344cd1fd0a4f28419497f9722a3daafe3b4186f6b6457e0\n  mload(0x40)\n  mload(0x40)\n  dup1\n  swap2\n  sub\n  swap1\n  log3\n    /* \"@openzeppelin/contracts/access/Ownable.sol\":2975:3099  {... */\n  pop\n    /* \"@openzeppelin/contracts/access/Ownable.sol\":2912:3099  function _transferOwnership(address newOwner) internal virtual {... */\n  pop\n  jump\t// out\n    /* \"#utility.yul\":88:205   */\ntag_20:\n    /* \"#utility.yul\":197:198   */\n  0x00\n    /* \"#utility.yul\":194:195   */\n  0x00\n    /* \"#utility.yul\":187:199   */\n  revert\n    /* \"#utility.yul\":334:460   */\ntag_22:\n    /* \"#utility.yul\":371:378   */\n  0x00\n    /* \"#utility.yul\":411:453   */\n  0xffffffffffffffffffffffffffffffffffffffff\n    /* \"#utility.yul\":404:409   */\n  dup3\n    /* \"#utility.yul\":400:454   */\n  and\n    /* \"#utility.yul\":389:454   */\n  swap1\n  pop\n    /* \"#utility.yul\":334:460   */\n  swap2\n  swap1\n  pop\n  jump\t// out\n    /* \"#utility.yul\":466:562   */\ntag_23:\n    /* \"#utility.yul\":503:510   */\n  0x00\n    /* \"#utility.yul\":532:556   */\n  tag_36\n    /* \"#utility.yul\":550:555   */\n  dup3\n    /* \"#utility.yul\":532:556   */\n  tag_22\n  jump\t// in\ntag_36:\n    /* \"#utility.yul\":521:556   */\n  swap1\n  pop\n    /* \"#utility.yul\":466:562   */\n  swap2\n  swap1\n  pop\n  jump\t// out\n    /* \"#utility.yul\":568:690   */\ntag_24:\n    /* \"#utility.yul\":641:665   */\n  tag_38\n    /* \"#utility.yul\":659:664   */\n  dup2\n    /* \"#utility.yul\":641:665   */\n  tag_23\n  jump\t// in\ntag_38:\n    /* \"#utility.yul\":634:639   */\n  dup2\n    /* \"#utility.yul\":631:666   */\n  eq\n    /* \"#utility.yul\":621:684   */\n  tag_39\n  jumpi\n    /* \"#utility.yul\":680:681   */\n  0x00\n    /* \"#utility.yul\":677:678   */\n  0x00\n    /* \"#utility.yul\":670:682   */\n  revert\n    /* \"#utility.yul\":621:684   */\ntag_39:\n    /* \"#utility.yul\":568:690   */\n  pop\n  jump\t// out\n    /* \"#utility.yul\":696:839   */\ntag_25:\n    /* \"#utility.yul\":753:758   */\n  0x00\n    /* \"#utility.yul\":784:790   */\n  dup2\n    /* \"#utility.yul\":778:791   */\n  mload\n    /* \"#utility.yul\":769:791   */\n  swap1\n  pop\n    /* \"#utility.yul\":800:833   */\n  tag_41\n    /* \"#utility.yul\":827:832   */\n  dup2\n    /* \"#utility.yul\":800:833   */\n  tag_24\n  jump\t// in\ntag_41:\n    /* \"#utility.yul\":696:839   */\n  swap3\n  swap2\n  pop\n  pop\n  jump\t// out\n    /* \"#utility.yul\":845:949   */\ntag_26:\n    /* \"#utility.yul\":890:897   */\n  0x00\n    /* \"#utility.yul\":919:943   */\n  tag_43\n    /* \"#utility.yul\":937:942   */\n  dup3\n    /* \"#utility.yul\":919:943   */\n  tag_22\n  jump\t// in\ntag_43:\n    /* \"#utility.yul\":908:943   */\n  swap1\n  pop\n    /* \"#utility.yul\":845:949   */\n  swap2\n  swap1\n  pop\n  jump\t// out\n    /* \"#utility.yul\":955:1093   */\ntag_27:\n    /* \"#utility.yul\":1036:1068   */\n  tag_45\n    /* \"#utility.yul\":1062:1067   */\n  dup2\n    /* \"#utility.yul\":1036:1068   */\n  tag_26\n  jump\t// in\ntag_45:\n    /* \"#utility.yul\":1029:1034   */\n  dup2\n    /* \"#utility.yul\":1026:1069   */\n  eq\n    /* \"#utility.yul\":1016:1087   */\n  tag_46\n  jumpi\n    /* \"#utility.yul\":1083:1084   */\n  0x00\n    /* \"#utility.yul\":1080:1081   */\n  0x00\n    /* \"#utility.yul\":1073:1085   */\n  revert\n    /* \"#utility.yul\":1016:1087   */\ntag_46:\n    /* \"#utility.yul\":955:1093   */\n  pop\n  jump\t// out\n    /* \"#utility.yul\":1099:1258   */\ntag_28:\n    /* \"#utility.yul\":1164:1169   */\n  0x00\n    /* \"#utility.yul\":1195:1201   */\n  dup2\n    /* \"#utility.yul\":1189:1202   */\n  mload\n    /* \"#utility.yul\":1180:1202   */\n  swap1\n  pop\n    /* \"#utility.yul\":1211:1252   */\n  tag_48\n    /* \"#utility.yul\":1246:1251   */\n  dup2\n    /* \"#utility.yul\":1211:1252   */\n  tag_27\n  jump\t// in\ntag_48:\n    /* \"#utility.yul\":1099:1258   */\n  swap3\n  swap2\n  pop\n  pop\n  jump\t// out\n    /* \"#utility.yul\":1264:1943   */\ntag_3:\n    /* \"#utility.yul\":1360:1366   */\n  0x00\n    /* \"#utility.yul\":1368:1374   */\n  0x00\n    /* \"#utility.yul\":1376:1382   */\n  0x00\n    /* \"#utility.yul\":1425:1427   */\n  0x60\n    /* \"#utility.yul\":1413:1422   */\n  dup5\n    /* \"#utility.yul\":1404:1411   */\n  dup7\n    /* \"#utility.yul\":1400:1423   */\n  sub\n    /* \"#utility.yul\":1396:1428   */\n  slt\n    /* \"#utility.yul\":1393:1512   */\n  iszero\n  tag_50\n  jumpi\n    /* \"#utility.yul\":1431:1510   */\n  tag_51\n  tag_20\n  jump\t// in\ntag_51:\n    /* \"#utility.yul\":1393:1512   */\ntag_50:\n    /* \"#utility.yul\":1551:1552   */\n  0x00\n    /* \"#utility.yul\":1576:1640   */\n  tag_52\n    /* \"#utility.yul\":1632:1639   */\n  dup7\n    /* \"#utility.yul\":1623:1629   */\n  dup3\n    /* \"#utility.yul\":1612:1621   */\n  dup8\n    /* \"#utility.yul\":1608:1630   */\n  add\n    /* \"#utility.yul\":1576:1640   */\n  tag_25\n  jump\t// in\ntag_52:\n    /* \"#utility.yul\":1566:1640   */\n  swap4\n  pop\n    /* \"#utility.yul\":1522:1650   */\n  pop\n    /* \"#utility.yul\":1689:1691   */\n  0x20\n    /* \"#utility.yul\":1715:1787   */\n  tag_53\n    /* \"#utility.yul\":1779:1786   */\n  dup7\n    /* \"#utility.yul\":1770:1776   */\n  dup3\n    /* \"#utility.yul\":1759:1768   */\n  dup8\n    /* \"#utility.yul\":1755:1777   */\n  add\n    /* \"#utility.yul\":1715:1787   */\n  tag_28\n  jump\t// in\ntag_53:\n    /* \"#utility.yul\":1705:1787   */\n  swap3\n  pop\n    /* \"#utility.yul\":1660:1797   */\n  pop\n    /* \"#utility.yul\":1836:1838   */\n  0x40\n    /* \"#utility.yul\":1862:1926   */\n  tag_54\n    /* \"#utility.yul\":1918:1925   */\n  dup7\n    /* \"#utility.yul\":1909:1915   */\n  dup3\n    /* \"#utility.yul\":1898:1907   */\n  dup8\n    /* \"#utility.yul\":1894:1916   */\n  add\n    /* \"#utility.yul\":1862:1926   */\n  tag_25\n  jump\t// in\ntag_54:\n    /* \"#utility.yul\":1852:1926   */\n  swap2\n  pop\n    /* \"#utility.yul\":1807:1936   */\n  pop\n    /* \"#utility.yul\":1264:1943   */\n  swap3\n  pop\n  swap3\n  pop\n  swap3\n  jump\t// out\n    /* \"#utility.yul\":1949:2067   */\ntag_29:\n    /* \"#utility.yul\":2036:2060   */\n  tag_56\n    /* \"#utility.yul\":2054:2059   */\n  dup2\n    /* \"#utility.yul\":2036:2060   */\n  tag_23\n  jump\t// in\ntag_56:\n    /* \"#utility.yul\":2031:2034   */\n  dup3\n    /* \"#utility.yul\":2024:2061   */\n  mstore\n    /* \"#utility.yul\":1949:2067   */\n  pop\n  pop\n  jump\t// out\n    /* \"#utility.yul\":2073:2295   */\ntag_11:\n    /* \"#utility.yul\":2166:2170   */\n  0x00\n    /* \"#utility.yul\":2204:2206   */\n  0x20\n    /* \"#utility.yul\":2193:2202   */\n  dup3\n    /* \"#utility.yul\":2189:2207   */\n  add\n    /* \"#utility.yul\":2181:2207   */\n  swap1\n  pop\n    /* \"#utility.yul\":2217:2288   */\n  tag_58\n    /* \"#utility.yul\":2285:2286   */\n  0x00\n    /* \"#utility.yul\":2274:2283   */\n  dup4\n    /* \"#utility.yul\":2270:2287   */\n  add\n    /* \"#utility.yul\":2261:2267   */\n  dup5\n    /* \"#utility.yul\":2217:2288   */\n  tag_29\n  jump\t// in\ntag_58:\n    /* \"#utility.yul\":2073:2295   */\n  swap3\n  swap2\n  pop\n  pop\n  jump\t// out\n    /* \"contracts/BadSammyNFTStore.sol\":862:7074  contract BadSammyNFTStore is ReentrancyGuard, Ownable {... */\ntag_17:\n  mload(0x80)\n  codecopy(0x00, dataOffset(sub_0), dataSize(sub_0))\n  0x00\n  assignImmutable(\"0x33286a54972a80973ee80eee8a51cb72b2462ef9bc83651165b227095b1f09d1\")\n  return(0x00, dataSize(sub_0))\nstop\n\nsub_0: assembly {\n        /* \"contracts/BadSammyNFTStore.sol\":862:7074  contract BadSammyNFTStore is ReentrancyGuard, Ownable {... */\n      mstore(0x40, 0x80)\n      jumpi(tag_1, lt(calldatasize, 0x04))\n      shr(0xe0, calldataload(0x00))\n      dup1\n      0x94dc9cf3\n      gt\n      tag_19\n      jumpi\n      dup1\n      0xbb6416ae\n      gt\n      tag_20\n      jumpi\n      dup1\n      0xbb6416ae\n      eq\n      tag_15\n      jumpi\n      dup1\n      0xddd32898\n      eq\n      tag_16\n      jumpi\n      dup1\n      0xf0f44260\n      eq\n      tag_17\n      jumpi\n      dup1\n      0xf2fde38b\n      eq\n      tag_18\n      jumpi\n      jump(tag_2)\n    tag_20:\n      dup1\n      0x94dc9cf3\n      eq\n      tag_11\n      jumpi\n      dup1\n      0x9c66fb7e\n      eq\n      tag_12\n      jumpi\n      dup1\n      0xaeccf735\n      eq\n      tag_13\n      jumpi\n      dup1\n      0xb5ddc0f4\n      eq\n      tag_14\n      jumpi\n      jump(tag_2)\n    tag_19:\n      dup1\n      0x61d027b3\n      gt\n      tag_21\n      jumpi\n      dup1\n      0x61d027b3\n      eq\n      tag_7\n      jumpi\n      dup1\n      0x715018a6\n      eq\n      tag_8\n      jumpi\n      dup1\n      0x89a30271\n      eq\n      tag_9\n      jumpi\n      dup1\n      0x8da5cb5b\n      eq\n      tag_10\n      jumpi\n      jump(tag_2)\n    tag_21:\n      dup1\n      0x039af9eb\n      eq\n      tag_3\n      jumpi\n      dup1\n      0x26e84cc3\n      eq\n      tag_4\n      jumpi\n      dup1\n      0x4c2233a5\n      eq\n      tag_5\n      jumpi\n      dup1\n      0x582515c7\n      eq\n      tag_6\n      jumpi\n      jump(tag_2)\n    tag_1:\n      jumpi(tag_2, calldatasize)\n      stop\n    tag_2:\n      revert(0x00, 0x00)\n        /* \"contracts/BadSammyNFTStore.sol\":1188:1225  mapping(uint256 => Tier) public tiers */\n    tag_3:\n      callvalue\n      dup1\n      iszero\n      tag_24\n      jumpi\n      revert(0x00, 0x00)\n    tag_24:\n      pop\n      tag_25\n      0x04\n      dup1\n      calldatasize\n      sub\n      dup2\n      add\n      swap1\n      tag_26\n      swap2\n      swap1\n      tag_27\n      jump\t// in\n    tag_26:\n      tag_28\n      jump\t// in\n    tag_25:\n      mload(0x40)\n      tag_29\n      swap5\n      swap4\n      swap3\n      swap2\n      swap1\n      tag_30\n      jump\t// in\n    tag_29:\n      mload(0x40)\n      dup1\n      swap2\n      sub\n      swap1\n      return\n        /* \"contracts/BadSammyNFTStore.sol\":6431:7009  function withdrawRange(... */\n    tag_4:\n      callvalue\n      dup1\n      iszero\n      tag_31\n      jumpi\n      revert(0x00, 0x00)\n    tag_31:\n      pop\n      tag_32\n      0x04\n      dup1\n      calldatasize\n      sub\n      dup2\n      add\n      swap1\n      tag_33\n      swap2\n      swap1\n      tag_34\n      jump\t// in\n    tag_33:\n      tag_35\n      jump\t// in\n    tag_32:\n      stop\n        /* \"contracts/BadSammyNFTStore.sol\":5859:6340  function withdrawAll(uint256 tierId, address to) external onlyOwner {... */\n    tag_5:\n      callvalue\n      dup1\n      iszero\n      tag_36\n      jumpi\n      revert(0x00, 0x00)\n    tag_36:\n      pop\n      tag_37\n      0x04\n      dup1\n      calldatasize\n      sub\n      dup2\n      add\n      swap1\n      tag_38\n      swap2\n      swap1\n      tag_39\n      jump\t// in\n    tag_38:\n      tag_40\n      jump\t// in\n    tag_37:\n      stop\n        /* \"contracts/BadSammyNFTStore.sol\":4518:4694  function sweepERC20(address token, address to) external onlyOwner {... */\n    tag_6:\n      callvalue\n      dup1\n      iszero\n      tag_41\n      jumpi\n      revert(0x00, 0x00)\n    tag_41:\n      pop\n      tag_42\n      0x04\n      dup1\n      calldatasize\n      sub\n      dup2\n      add\n      swap1\n      tag_43\n      swap2\n      swap1\n      tag_44\n      jump\t// in\n    tag_43:\n      tag_45\n      jump\t// in\n    tag_42:\n      stop\n        /* \"contracts/BadSammyNFTStore.sol\":1232:1263  address payable public treasury */\n    tag_7:\n      callvalue\n      dup1\n      iszero\n      tag_46\n      jumpi\n      revert(0x00, 0x00)\n    tag_46:\n      pop\n      tag_47\n      tag_48\n      jump\t// in\n    tag_47:\n      mload(0x40)\n      tag_49\n      swap2\n      swap1\n      tag_50\n      jump\t// in\n    tag_49:\n      mload(0x40)\n      dup1\n      swap2\n      sub\n      swap1\n      return\n        /* \"@openzeppelin/contracts/access/Ownable.sol\":2293:2394  function renounceOwnership() public virtual onlyOwner {... */\n    tag_8:\n      callvalue\n      dup1\n      iszero\n      tag_51\n      jumpi\n      revert(0x00, 0x00)\n    tag_51:\n      pop\n      tag_52\n      tag_53\n      jump\t// in\n    tag_52:\n      stop\n        /* \"contracts/BadSammyNFTStore.sol\":1285:1313  IERC20 public immutable USDC */\n    tag_9:\n      callvalue\n      dup1\n      iszero\n      tag_54\n      jumpi\n      revert(0x00, 0x00)\n    tag_54:\n      pop\n      tag_55\n      tag_56\n      jump\t// in\n    tag_55:\n      mload(0x40)\n      tag_57\n      swap2\n      swap1\n      tag_58\n      jump\t// in\n    tag_57:\n      mload(0x40)\n      dup1\n      swap2\n      sub\n      swap1\n      return\n        /* \"@openzeppelin/contracts/access/Ownable.sol\":1638:1723  function owner() public view virtual returns (address) {... */\n    tag_10:\n      callvalue\n      dup1\n      iszero\n      tag_59\n      jumpi\n      revert(0x00, 0x00)\n    tag_59:\n      pop\n      tag_60\n      tag_61\n      jump\t// in\n    tag_60:\n      mload(0x40)\n      tag_62\n      swap2\n      swap1\n      tag_63\n      jump\t// in\n    tag_62:\n      mload(0x40)\n      dup1\n      swap2\n      sub\n      swap1\n      return\n        /* \"contracts/BadSammyNFTStore.sol\":2579:3151  function buyWithETH(uint256 tierId) external payable nonReentrant {... */\n    tag_11:\n      tag_64\n      0x04\n      dup1\n      calldatasize\n      sub\n      dup2\n      add\n      swap1\n      tag_65\n      swap2\n      swap1\n      tag_27\n      jump\t// in\n    tag_65:\n      tag_66\n      jump\t// in\n    tag_64:\n      stop\n        /* \"contracts/BadSammyNFTStore.sol\":4749:5005  function withdrawNFT(uint256 tierId, uint256 tokenId, address to) external onlyOwner {... */\n    tag_12:\n      callvalue\n      dup1\n      iszero\n      tag_67\n      jumpi\n      revert(0x00, 0x00)\n    tag_67:\n      pop\n      tag_68\n      0x04\n      dup1\n      calldatasize\n      sub\n      dup2\n      add\n      swap1\n      tag_69\n      swap2\n      swap1\n      tag_70\n      jump\t// in\n    tag_69:\n      tag_71\n      jump\t// in\n    tag_68:\n      stop\n        /* \"contracts/BadSammyNFTStore.sol\":3212:3769  function buyWithUSDC(uint256 tierId) public nonReentrant {... */\n    tag_13:\n      callvalue\n      dup1\n      iszero\n      tag_72\n      jumpi\n      revert(0x00, 0x00)\n    tag_72:\n      pop\n      tag_73\n      0x04\n      dup1\n      calldatasize\n      sub\n      dup2\n      add\n      swap1\n      tag_74\n      swap2\n      swap1\n      tag_27\n      jump\t// in\n    tag_74:\n      tag_75\n      jump\t// in\n    tag_73:\n      stop\n        /* \"contracts/BadSammyNFTStore.sol\":1934:2231  function setTier(... */\n    tag_14:\n      callvalue\n      dup1\n      iszero\n      tag_76\n      jumpi\n      revert(0x00, 0x00)\n    tag_76:\n      pop\n      tag_77\n      0x04\n      dup1\n      calldatasize\n      sub\n      dup2\n      add\n      swap1\n      tag_78\n      swap2\n      swap1\n      tag_79\n      jump\t// in\n    tag_78:\n      tag_80\n      jump\t// in\n    tag_77:\n      stop\n        /* \"contracts/BadSammyNFTStore.sol\":3874:4465  function buyWithUSDCPermit(... */\n    tag_15:\n      callvalue\n      dup1\n      iszero\n      tag_81\n      jumpi\n      revert(0x00, 0x00)\n    tag_81:\n      pop\n      tag_82\n      0x04\n      dup1\n      calldatasize\n      sub\n      dup2\n      add\n      swap1\n      tag_83\n      swap2\n      swap1\n      tag_84\n      jump\t// in\n    tag_83:\n      tag_85\n      jump\t// in\n    tag_82:\n      stop\n        /* \"contracts/BadSammyNFTStore.sol\":5096:5755  function withdrawN(uint256 tierId, uint256 quantity, address to) external onlyOwner {... */\n    tag_16:\n      callvalue\n      dup1\n      iszero\n      tag_86\n      jumpi\n      revert(0x00, 0x00)\n    tag_86:\n      pop\n      tag_87\n      0x04\n      dup1\n      calldatasize\n      sub\n      dup2\n      add\n      swap1\n      tag_88\n      swap2\n      swap1\n      tag_70\n      jump\t// in\n    tag_88:\n      tag_89\n      jump\t// in\n    tag_87:\n      stop\n        /* \"contracts/BadSammyNFTStore.sol\":1765:1928  function setTreasury(address payable _treasury) external onlyOwner {... */\n    tag_17:\n      callvalue\n      dup1\n      iszero\n      tag_90\n      jumpi\n      revert(0x00, 0x00)\n    tag_90:\n      pop\n      tag_91\n      0x04\n      dup1\n      calldatasize\n      sub\n      dup2\n      add\n      swap1\n      tag_92\n      swap2\n      swap1\n      tag_93\n      jump\t// in\n    tag_92:\n      tag_94\n      jump\t// in\n    tag_91:\n      stop\n        /* \"@openzeppelin/contracts/access/Ownable.sol\":2543:2758  function transferOwnership(address newOwner) public virtual onlyOwner {... */\n    tag_18:\n      callvalue\n      dup1\n      iszero\n      tag_95\n      jumpi\n      revert(0x00, 0x00)\n    tag_95:\n      pop\n      tag_96\n      0x04\n      dup1\n      calldatasize\n      sub\n      dup2\n      add\n      swap1\n      tag_97\n      swap2\n      swap1\n      tag_98\n      jump\t// in\n    tag_97:\n      tag_99\n      jump\t// in\n    tag_96:\n      stop\n        /* \"contracts/BadSammyNFTStore.sol\":1188:1225  mapping(uint256 => Tier) public tiers */\n    tag_28:\n      mstore(0x20, 0x02)\n      dup1\n      0x00\n      mstore\n      keccak256(0x00, 0x40)\n      0x00\n      swap2\n      pop\n      swap1\n      pop\n      dup1\n      0x00\n      add\n      0x00\n      swap1\n      sload\n      swap1\n      0x0100\n      exp\n      swap1\n      div\n      0xffffffffffffffffffffffffffffffffffffffff\n      and\n      swap1\n      dup1\n      0x01\n      add\n      sload\n      swap1\n      dup1\n      0x02\n      add\n      sload\n      swap1\n      dup1\n      0x03\n      add\n      0x00\n      swap1\n      sload\n      swap1\n      0x0100\n      exp\n      swap1\n      div\n      0xff\n      and\n      swap1\n      pop\n      dup5\n      jump\t// out\n        /* \"contracts/BadSammyNFTStore.sol\":6431:7009  function withdrawRange(... */\n    tag_35:\n        /* \"@openzeppelin/contracts/access/Ownable.sol\":1531:1544  _checkOwner() */\n      tag_101\n        /* \"@openzeppelin/contracts/access/Ownable.sol\":1531:1542  _checkOwner */\n      tag_102\n        /* \"@openzeppelin/contracts/access/Ownable.sol\":1531:1544  _checkOwner() */\n      jump\t// in\n    tag_101:\n        /* \"contracts/BadSammyNFTStore.sol\":6586:6599  Tier memory t */\n      0x00\n        /* \"contracts/BadSammyNFTStore.sol\":6602:6607  tiers */\n      0x02\n        /* \"contracts/BadSammyNFTStore.sol\":6602:6615  tiers[tierId] */\n      0x00\n        /* \"contracts/BadSammyNFTStore.sol\":6608:6614  tierId */\n      dup7\n        /* \"contracts/BadSammyNFTStore.sol\":6602:6615  tiers[tierId] */\n      dup2\n      mstore\n      0x20\n      add\n      swap1\n      dup2\n      mstore\n      0x20\n      add\n      0x00\n      keccak256\n        /* \"contracts/BadSammyNFTStore.sol\":6586:6615  Tier memory t = tiers[tierId] */\n      mload(0x40)\n      dup1\n      0x80\n      add\n      0x40\n      mstore\n      swap1\n      dup2\n      0x00\n      dup3\n      add\n      0x00\n      swap1\n      sload\n      swap1\n      0x0100\n      exp\n      swap1\n      div\n      0xffffffffffffffffffffffffffffffffffffffff\n      and\n      0xffffffffffffffffffffffffffffffffffffffff\n      and\n      0xffffffffffffffffffffffffffffffffffffffff\n      and\n      dup2\n      mstore\n      0x20\n      add\n      0x01\n      dup3\n      add\n      sload\n      dup2\n      mstore\n      0x20\n      add\n      0x02\n      dup3\n      add\n      sload\n      dup2\n      mstore\n      0x20\n      add\n      0x03\n      dup3\n      add\n      0x00\n      swap1\n      sload\n      swap1\n      0x0100\n      exp\n      swap1\n      div\n      0xff\n      and\n      iszero\n      iszero\n      iszero\n      iszero\n      dup2\n      mstore\n      pop\n      pop\n      swap1\n      pop\n        /* \"contracts/BadSammyNFTStore.sol\":6646:6647  0 */\n      0x00\n        /* \"contracts/BadSammyNFTStore.sol\":6629:6648  t.nft == address(0) */\n      0xffffffffffffffffffffffffffffffffffffffff\n      and\n        /* \"contracts/BadSammyNFTStore.sol\":6629:6630  t */\n      dup2\n        /* \"contracts/BadSammyNFTStore.sol\":6629:6634  t.nft */\n      0x00\n      add\n      mload\n        /* \"contracts/BadSammyNFTStore.sol\":6629:6648  t.nft == address(0) */\n      0xffffffffffffffffffffffffffffffffffffffff\n      and\n      sub\n        /* \"contracts/BadSammyNFTStore.sol\":6625:6670  if (t.nft == address(0)) revert InvalidTier() */\n      tag_104\n      jumpi\n        /* \"contracts/BadSammyNFTStore.sol\":6657:6670  InvalidTier() */\n      mload(0x40)\n      0xe142361700000000000000000000000000000000000000000000000000000000\n      dup2\n      mstore\n      0x04\n      add\n      mload(0x40)\n      dup1\n      swap2\n      sub\n      swap1\n      revert\n        /* \"contracts/BadSammyNFTStore.sol\":6625:6670  if (t.nft == address(0)) revert InvalidTier() */\n    tag_104:\n        /* \"contracts/BadSammyNFTStore.sol\":6681:6692  IERC721 nft */\n      0x00\n        /* \"contracts/BadSammyNFTStore.sol\":6703:6704  t */\n      dup2\n        /* \"contracts/BadSammyNFTStore.sol\":6703:6708  t.nft */\n      0x00\n      add\n      mload\n        /* \"contracts/BadSammyNFTStore.sol\":6681:6709  IERC721 nft = IERC721(t.nft) */\n      swap1\n      pop\n        /* \"contracts/BadSammyNFTStore.sol\":6725:6740  uint256 tokenId */\n      0x00\n        /* \"contracts/BadSammyNFTStore.sol\":6743:6755  startTokenId */\n      dup6\n        /* \"contracts/BadSammyNFTStore.sol\":6725:6755  uint256 tokenId = startTokenId */\n      swap1\n      pop\n        /* \"contracts/BadSammyNFTStore.sol\":6720:7003  for (uint256 tokenId = startTokenId; tokenId <= endTokenId; tokenId++) {... */\n    tag_105:\n        /* \"contracts/BadSammyNFTStore.sol\":6768:6778  endTokenId */\n      dup5\n        /* \"contracts/BadSammyNFTStore.sol\":6757:6764  tokenId */\n      dup2\n        /* \"contracts/BadSammyNFTStore.sol\":6757:6778  tokenId <= endTokenId */\n      gt\n        /* \"contracts/BadSammyNFTStore.sol\":6720:7003  for (uint256 tokenId = startTokenId; tokenId <= endTokenId; tokenId++) {... */\n      tag_106\n      jumpi\n        /* \"contracts/BadSammyNFTStore.sol\":6905:6909  this */\n      address\n        /* \"contracts/BadSammyNFTStore.sol\":6873:6910  nft.ownerOf(tokenId) == address(this) */\n      0xffffffffffffffffffffffffffffffffffffffff\n      and\n        /* \"contracts/BadSammyNFTStore.sol\":6873:6876  nft */\n      dup3\n        /* \"contracts/BadSammyNFTStore.sol\":6873:6884  nft.ownerOf */\n      0xffffffffffffffffffffffffffffffffffffffff\n      and\n      0x6352211e\n        /* \"contracts/BadSammyNFTStore.sol\":6885:6892  tokenId */\n      dup4\n        /* \"contracts/BadSammyNFTStore.sol\":6873:6893  nft.ownerOf(tokenId) */\n      mload(0x40)\n      dup3\n      0xffffffff\n      and\n      0xe0\n      shl\n      dup2\n      mstore\n      0x04\n      add\n      tag_108\n      swap2\n      swap1\n      tag_109\n      jump\t// in\n    tag_108:\n      0x20\n      mload(0x40)\n      dup1\n      dup4\n      sub\n      dup2\n      dup7\n      gas\n      staticcall\n      iszero\n      dup1\n      iszero\n      tag_111\n      jumpi\n      returndatacopy(0x00, 0x00, returndatasize)\n      revert(0x00, returndatasize)\n    tag_111:\n      pop\n      pop\n      pop\n      pop\n      mload(0x40)\n      returndatasize\n      not(0x1f)\n      0x1f\n      dup3\n      add\n      and\n      dup3\n      add\n      dup1\n      0x40\n      mstore\n      pop\n      dup2\n      add\n      swap1\n      tag_112\n      swap2\n      swap1\n      tag_113\n      jump\t// in\n    tag_112:\n        /* \"contracts/BadSammyNFTStore.sol\":6873:6910  nft.ownerOf(tokenId) == address(this) */\n      0xffffffffffffffffffffffffffffffffffffffff\n      and\n      sub\n        /* \"contracts/BadSammyNFTStore.sol\":6869:6993  if (nft.ownerOf(tokenId) == address(this)) {... */\n      tag_114\n      jumpi\n        /* \"contracts/BadSammyNFTStore.sol\":6930:6933  nft */\n      dup2\n        /* \"contracts/BadSammyNFTStore.sol\":6930:6950  nft.safeTransferFrom */\n      0xffffffffffffffffffffffffffffffffffffffff\n      and\n      0x42842e0e\n        /* \"contracts/BadSammyNFTStore.sol\":6959:6963  this */\n      address\n        /* \"contracts/BadSammyNFTStore.sol\":6966:6968  to */\n      dup7\n        /* \"contracts/BadSammyNFTStore.sol\":6970:6977  tokenId */\n      dup5\n        /* \"contracts/BadSammyNFTStore.sol\":6930:6978  nft.safeTransferFrom(address(this), to, tokenId) */\n      mload(0x40)\n      dup5\n      0xffffffff\n      and\n      0xe0\n      shl\n      dup2\n      mstore\n      0x04\n      add\n      tag_115\n      swap4\n      swap3\n      swap2\n      swap1\n      tag_116\n      jump\t// in\n    tag_115:\n      0x00\n      mload(0x40)\n      dup1\n      dup4\n      sub\n      dup2\n      0x00\n      dup8\n      dup1\n      extcodesize\n      iszero\n      dup1\n      iszero\n      tag_117\n      jumpi\n      revert(0x00, 0x00)\n    tag_117:\n      pop\n      gas\n      call\n      iszero\n      dup1\n      iszero\n      tag_119\n      jumpi\n      returndatacopy(0x00, 0x00, returndatasize)\n      revert(0x00, returndatasize)\n    tag_119:\n      pop\n      pop\n      pop\n      pop\n        /* \"contracts/BadSammyNFTStore.sol\":6869:6993  if (nft.ownerOf(tokenId) == address(this)) {... */\n    tag_114:\n        /* \"contracts/BadSammyNFTStore.sol\":6780:6789  tokenId++ */\n      dup1\n      dup1\n      tag_120\n      swap1\n      tag_121\n      jump\t// in\n    tag_120:\n      swap2\n      pop\n      pop\n        /* \"contracts/BadSammyNFTStore.sol\":6720:7003  for (uint256 tokenId = startTokenId; tokenId <= endTokenId; tokenId++) {... */\n      jump(tag_105)\n    tag_106:\n      pop\n        /* \"contracts/BadSammyNFTStore.sol\":6576:7009  {... */\n      pop\n      pop\n        /* \"contracts/BadSammyNFTStore.sol\":6431:7009  function withdrawRange(... */\n      pop\n      pop\n      pop\n      pop\n      jump\t// out\n        /* \"contracts/BadSammyNFTStore.sol\":5859:6340  function withdrawAll(uint256 tierId, address to) external onlyOwner {... */\n    tag_40:\n        /* \"@openzeppelin/contracts/access/Ownable.sol\":1531:1544  _checkOwner() */\n      tag_123\n        /* \"@openzeppelin/contracts/access/Ownable.sol\":1531:1542  _checkOwner */\n      tag_102\n        /* \"@openzeppelin/contracts/access/Ownable.sol\":1531:1544  _checkOwner() */\n      jump\t// in\n    tag_123:\n        /* \"contracts/BadSammyNFTStore.sol\":5937:5950  Tier memory t */\n      0x00\n        /* \"contracts/BadSammyNFTStore.sol\":5953:5958  tiers */\n      0x02\n        /* \"contracts/BadSammyNFTStore.sol\":5953:5966  tiers[tierId] */\n      0x00\n        /* \"contracts/BadSammyNFTStore.sol\":5959:5965  tierId */\n      dup5\n        /* \"contracts/BadSammyNFTStore.sol\":5953:5966  tiers[tierId] */\n      dup2\n      mstore\n      0x20\n      add\n      swap1\n      dup2\n      mstore\n      0x20\n      add\n      0x00\n      keccak256\n        /* \"contracts/BadSammyNFTStore.sol\":5937:5966  Tier memory t = tiers[tierId] */\n      mload(0x40)\n      dup1\n      0x80\n      add\n      0x40\n      mstore\n      swap1\n      dup2\n      0x00\n      dup3\n      add\n      0x00\n      swap1\n      sload\n      swap1\n      0x0100\n      exp\n      swap1\n      div\n      0xffffffffffffffffffffffffffffffffffffffff\n      and\n      0xffffffffffffffffffffffffffffffffffffffff\n      and\n      0xffffffffffffffffffffffffffffffffffffffff\n      and\n      dup2\n      mstore\n      0x20\n      add\n      0x01\n      dup3\n      add\n      sload\n      dup2\n      mstore\n      0x20\n      add\n      0x02\n      dup3\n      add\n      sload\n      dup2\n      mstore\n      0x20\n      add\n      0x03\n      dup3\n      add\n      0x00\n      swap1\n      sload\n      swap1\n      0x0100\n      exp\n      swap1\n      div\n      0xff\n      and\n      iszero\n      iszero\n      iszero\n      iszero\n      dup2\n      mstore\n      pop\n      pop\n      swap1\n      pop\n        /* \"contracts/BadSammyNFTStore.sol\":5997:5998  0 */\n      0x00\n        /* \"contracts/BadSammyNFTStore.sol\":5980:5999  t.nft == address(0) */\n      0xffffffffffffffffffffffffffffffffffffffff\n      and\n        /* \"contracts/BadSammyNFTStore.sol\":5980:5981  t */\n      dup2\n        /* \"contracts/BadSammyNFTStore.sol\":5980:5985  t.nft */\n      0x00\n      add\n      mload\n        /* \"contracts/BadSammyNFTStore.sol\":5980:5999  t.nft == address(0) */\n      0xffffffffffffffffffffffffffffffffffffffff\n      and\n      sub\n        /* \"contracts/BadSammyNFTStore.sol\":5976:6021  if (t.nft == address(0)) revert InvalidTier() */\n      tag_125\n      jumpi\n        /* \"contracts/BadSammyNFTStore.sol\":6008:6021  InvalidTier() */\n      mload(0x40)\n      0xe142361700000000000000000000000000000000000000000000000000000000\n      dup2\n      mstore\n      0x04\n      add\n      mload(0x40)\n      dup1\n      swap2\n      sub\n      swap1\n      revert\n        /* \"contracts/BadSammyNFTStore.sol\":5976:6021  if (t.nft == address(0)) revert InvalidTier() */\n    tag_125:\n        /* \"contracts/BadSammyNFTStore.sol\":6032:6053  IERC721Enumerable nft */\n      0x00\n        /* \"contracts/BadSammyNFTStore.sol\":6074:6075  t */\n      dup2\n        /* \"contracts/BadSammyNFTStore.sol\":6074:6079  t.nft */\n      0x00\n      add\n      mload\n        /* \"contracts/BadSammyNFTStore.sol\":6032:6080  IERC721Enumerable nft = IERC721Enumerable(t.nft) */\n      swap1\n      pop\n        /* \"contracts/BadSammyNFTStore.sol\":6090:6101  uint256 bal */\n      0x00\n        /* \"contracts/BadSammyNFTStore.sol\":6104:6107  nft */\n      dup2\n        /* \"contracts/BadSammyNFTStore.sol\":6104:6117  nft.balanceOf */\n      0xffffffffffffffffffffffffffffffffffffffff\n      and\n      0x70a08231\n        /* \"contracts/BadSammyNFTStore.sol\":6126:6130  this */\n      address\n        /* \"contracts/BadSammyNFTStore.sol\":6104:6132  nft.balanceOf(address(this)) */\n      mload(0x40)\n      dup3\n      0xffffffff\n      and\n      0xe0\n      shl\n      dup2\n      mstore\n      0x04\n      add\n      tag_126\n      swap2\n      swap1\n      tag_63\n      jump\t// in\n    tag_126:\n      0x20\n      mload(0x40)\n      dup1\n      dup4\n      sub\n      dup2\n      dup7\n      gas\n      staticcall\n      iszero\n      dup1\n      iszero\n      tag_128\n      jumpi\n      returndatacopy(0x00, 0x00, returndatasize)\n      revert(0x00, returndatasize)\n    tag_128:\n      pop\n      pop\n      pop\n      pop\n      mload(0x40)\n      returndatasize\n      not(0x1f)\n      0x1f\n      dup3\n      add\n      and\n      dup3\n      add\n      dup1\n      0x40\n      mstore\n      pop\n      dup2\n      add\n      swap1\n      tag_129\n      swap2\n      swap1\n      tag_130\n      jump\t// in\n    tag_129:\n        /* \"contracts/BadSammyNFTStore.sol\":6090:6132  uint256 bal = nft.balanceOf(address(this)) */\n      swap1\n      pop\n        /* \"contracts/BadSammyNFTStore.sol\":6148:6157  uint256 i */\n      0x00\n        /* \"contracts/BadSammyNFTStore.sol\":6160:6161  0 */\n      0x00\n        /* \"contracts/BadSammyNFTStore.sol\":6148:6161  uint256 i = 0 */\n      swap1\n      pop\n        /* \"contracts/BadSammyNFTStore.sol\":6143:6334  for (uint256 i = 0; i < bal; i++) {... */\n    tag_131:\n        /* \"contracts/BadSammyNFTStore.sol\":6167:6170  bal */\n      dup2\n        /* \"contracts/BadSammyNFTStore.sol\":6163:6164  i */\n      dup2\n        /* \"contracts/BadSammyNFTStore.sol\":6163:6170  i < bal */\n      lt\n        /* \"contracts/BadSammyNFTStore.sol\":6143:6334  for (uint256 i = 0; i < bal; i++) {... */\n      iszero\n      tag_132\n      jumpi\n        /* \"contracts/BadSammyNFTStore.sol\":6191:6206  uint256 tokenId */\n      0x00\n        /* \"contracts/BadSammyNFTStore.sol\":6209:6212  nft */\n      dup4\n        /* \"contracts/BadSammyNFTStore.sol\":6209:6232  nft.tokenOfOwnerByIndex */\n      0xffffffffffffffffffffffffffffffffffffffff\n      and\n      0x2f745c59\n        /* \"contracts/BadSammyNFTStore.sol\":6241:6245  this */\n      address\n        /* \"contracts/BadSammyNFTStore.sol\":6248:6249  0 */\n      0x00\n        /* \"contracts/BadSammyNFTStore.sol\":6209:6250  nft.tokenOfOwnerByIndex(address(this), 0) */\n      mload(0x40)\n      dup4\n      0xffffffff\n      and\n      0xe0\n      shl\n      dup2\n      mstore\n      0x04\n      add\n      tag_134\n      swap3\n      swap2\n      swap1\n      tag_135\n      jump\t// in\n    tag_134:\n      0x20\n      mload(0x40)\n      dup1\n      dup4\n      sub\n      dup2\n      dup7\n      gas\n      staticcall\n      iszero\n      dup1\n      iszero\n      tag_137\n      jumpi\n      returndatacopy(0x00, 0x00, returndatasize)\n      revert(0x00, returndatasize)\n    tag_137:\n      pop\n      pop\n      pop\n      pop\n      mload(0x40)\n      returndatasize\n      not(0x1f)\n      0x1f\n      dup3\n      add\n      and\n      dup3\n      add\n      dup1\n      0x40\n      mstore\n      pop\n      dup2\n      add\n      swap1\n      tag_138\n      swap2\n      swap1\n      tag_130\n      jump\t// in\n    tag_138:\n        /* \"contracts/BadSammyNFTStore.sol\":6191:6250  uint256 tokenId = nft.tokenOfOwnerByIndex(address(this), 0) */\n      swap1\n      pop\n        /* \"contracts/BadSammyNFTStore.sol\":6272:6273  t */\n      dup5\n        /* \"contracts/BadSammyNFTStore.sol\":6272:6277  t.nft */\n      0x00\n      add\n      mload\n        /* \"contracts/BadSammyNFTStore.sol\":6264:6295  IERC721(t.nft).safeTransferFrom */\n      0xffffffffffffffffffffffffffffffffffffffff\n      and\n      0x42842e0e\n        /* \"contracts/BadSammyNFTStore.sol\":6304:6308  this */\n      address\n        /* \"contracts/BadSammyNFTStore.sol\":6311:6313  to */\n      dup9\n        /* \"contracts/BadSammyNFTStore.sol\":6315:6322  tokenId */\n      dup5\n        /* \"contracts/BadSammyNFTStore.sol\":6264:6323  IERC721(t.nft).safeTransferFrom(address(this), to, tokenId) */\n      mload(0x40)\n      dup5\n      0xffffffff\n      and\n      0xe0\n      shl\n      dup2\n      mstore\n      0x04\n      add\n      tag_139\n      swap4\n      swap3\n      swap2\n      swap1\n      tag_116\n      jump\t// in\n    tag_139:\n      0x00\n      mload(0x40)\n      dup1\n      dup4\n      sub\n      dup2\n      0x00\n      dup8\n      dup1\n      extcodesize\n      iszero\n      dup1\n      iszero\n      tag_140\n      jumpi\n      revert(0x00, 0x00)\n    tag_140:\n      pop\n      gas\n      call\n      iszero\n      dup1\n      iszero\n      tag_142\n      jumpi\n      returndatacopy(0x00, 0x00, returndatasize)\n      revert(0x00, returndatasize)\n    tag_142:\n      pop\n      pop\n      pop\n      pop\n        /* \"contracts/BadSammyNFTStore.sol\":6177:6334  {... */\n      pop\n        /* \"contracts/BadSammyNFTStore.sol\":6172:6175  i++ */\n      dup1\n      dup1\n      0x01\n      add\n      swap2\n      pop\n      pop\n        /* \"contracts/BadSammyNFTStore.sol\":6143:6334  for (uint256 i = 0; i < bal; i++) {... */\n      jump(tag_131)\n    tag_132:\n      pop\n        /* \"contracts/BadSammyNFTStore.sol\":5927:6340  {... */\n      pop\n      pop\n      pop\n        /* \"contracts/BadSammyNFTStore.sol\":5859:6340  function withdrawAll(uint256 tierId, address to) external onlyOwner {... */\n      pop\n      pop\n      jump\t// out\n        /* \"contracts/BadSammyNFTStore.sol\":4518:4694  function sweepERC20(address token, address to) external onlyOwner {... */\n    tag_45:\n        /* \"@openzeppelin/contracts/access/Ownable.sol\":1531:1544  _checkOwner() */\n      tag_144\n        /* \"@openzeppelin/contracts/access/Ownable.sol\":1531:1542  _checkOwner */\n      tag_102\n        /* \"@openzeppelin/contracts/access/Ownable.sol\":1531:1544  _checkOwner() */\n      jump\t// in\n    tag_144:\n        /* \"contracts/BadSammyNFTStore.sol\":4594:4605  uint256 bal */\n      0x00\n        /* \"contracts/BadSammyNFTStore.sol\":4615:4620  token */\n      dup3\n        /* \"contracts/BadSammyNFTStore.sol\":4608:4631  IERC20(token).balanceOf */\n      0xffffffffffffffffffffffffffffffffffffffff\n      and\n      0x70a08231\n        /* \"contracts/BadSammyNFTStore.sol\":4640:4644  this */\n      address\n        /* \"contracts/BadSammyNFTStore.sol\":4608:4646  IERC20(token).balanceOf(address(this)) */\n      mload(0x40)\n      dup3\n      0xffffffff\n      and\n      0xe0\n      shl\n      dup2\n      mstore\n      0x04\n      add\n      tag_146\n      swap2\n      swap1\n      tag_63\n      jump\t// in\n    tag_146:\n      0x20\n      mload(0x40)\n      dup1\n      dup4\n      sub\n      dup2\n      dup7\n      gas\n      staticcall\n      iszero\n      dup1\n      iszero\n      tag_148\n      jumpi\n      returndatacopy(0x00, 0x00, returndatasize)\n      revert(0x00, returndatasize)\n    tag_148:\n      pop\n      pop\n      pop\n      pop\n      mload(0x40)\n      returndatasize\n      not(0x1f)\n      0x1f\n      dup3\n      add\n      and\n      dup3\n      add\n      dup1\n      0x40\n      mstore\n      pop\n      dup2\n      add\n      swap1\n      tag_149\n      swap2\n      swap1\n      tag_130\n      jump\t// in\n    tag_149:\n        /* \"contracts/BadSammyNFTStore.sol\":4594:4646  uint256 bal = IERC20(token).balanceOf(address(this)) */\n      swap1\n      pop\n        /* \"contracts/BadSammyNFTStore.sol\":4663:4668  token */\n      dup3\n        /* \"contracts/BadSammyNFTStore.sol\":4656:4678  IERC20(token).transfer */\n      0xffffffffffffffffffffffffffffffffffffffff\n      and\n      0xa9059cbb\n        /* \"contracts/BadSammyNFTStore.sol\":4679:4681  to */\n      dup4\n        /* \"contracts/BadSammyNFTStore.sol\":4683:4686  bal */\n      dup4\n        /* \"contracts/BadSammyNFTStore.sol\":4656:4687  IERC20(token).transfer(to, bal) */\n      mload(0x40)\n      dup4\n      0xffffffff\n      and\n      0xe0\n      shl\n      dup2\n      mstore\n      0x04\n      add\n      tag_150\n      swap3\n      swap2\n      swap1\n      tag_151\n      jump\t// in\n    tag_150:\n      0x20\n      mload(0x40)\n      dup1\n      dup4\n      sub\n      dup2\n      0x00\n      dup8\n      gas\n      call\n      iszero\n      dup1\n      iszero\n      tag_153\n      jumpi\n      returndatacopy(0x00, 0x00, returndatasize)\n      revert(0x00, returndatasize)\n    tag_153:\n      pop\n      pop\n      pop\n      pop\n      mload(0x40)\n      returndatasize\n      not(0x1f)\n      0x1f\n      dup3\n      add\n      and\n      dup3\n      add\n      dup1\n      0x40\n      mstore\n      pop\n      dup2\n      add\n      swap1\n      tag_154\n      swap2\n      swap1\n      tag_155\n      jump\t// in\n    tag_154:\n      pop\n        /* \"contracts/BadSammyNFTStore.sol\":4584:4694  {... */\n      pop\n        /* \"contracts/BadSammyNFTStore.sol\":4518:4694  function sweepERC20(address token, address to) external onlyOwner {... */\n      pop\n      pop\n      jump\t// out\n        /* \"contracts/BadSammyNFTStore.sol\":1232:1263  address payable public treasury */\n    tag_48:\n      0x03\n      0x00\n      swap1\n      sload\n      swap1\n      0x0100\n      exp\n      swap1\n      div\n      0xffffffffffffffffffffffffffffffffffffffff\n      and\n      dup2\n      jump\t// out\n        /* \"@openzeppelin/contracts/access/Ownable.sol\":2293:2394  function renounceOwnership() public virtual onlyOwner {... */\n    tag_53:\n        /* \"@openzeppelin/contracts/access/Ownable.sol\":1531:1544  _checkOwner() */\n      tag_157\n        /* \"@openzeppelin/contracts/access/Ownable.sol\":1531:1542  _checkOwner */\n      tag_102\n        /* \"@openzeppelin/contracts/access/Ownable.sol\":1531:1544  _checkOwner() */\n      jump\t// in\n    tag_157:\n        /* \"@openzeppelin/contracts/access/Ownable.sol\":2357:2387  _transferOwnership(address(0)) */\n      tag_159\n        /* \"@openzeppelin/contracts/access/Ownable.sol\":2384:2385  0 */\n      0x00\n        /* \"@openzeppelin/contracts/access/Ownable.sol\":2357:2375  _transferOwnership */\n      tag_160\n        /* \"@openzeppelin/contracts/access/Ownable.sol\":2357:2387  _transferOwnership(address(0)) */\n      jump\t// in\n    tag_159:\n        /* \"@openzeppelin/contracts/access/Ownable.sol\":2293:2394  function renounceOwnership() public virtual onlyOwner {... */\n      jump\t// out\n        /* \"contracts/BadSammyNFTStore.sol\":1285:1313  IERC20 public immutable USDC */\n    tag_56:\n      immutable(\"0x33286a54972a80973ee80eee8a51cb72b2462ef9bc83651165b227095b1f09d1\")\n      dup2\n      jump\t// out\n        /* \"@openzeppelin/contracts/access/Ownable.sol\":1638:1723  function owner() public view virtual returns (address) {... */\n    tag_61:\n        /* \"@openzeppelin/contracts/access/Ownable.sol\":1684:1691  address */\n      0x00\n        /* \"@openzeppelin/contracts/access/Ownable.sol\":1710:1716  _owner */\n      0x01\n      0x00\n      swap1\n      sload\n      swap1\n      0x0100\n      exp\n      swap1\n      div\n      0xffffffffffffffffffffffffffffffffffffffff\n      and\n        /* \"@openzeppelin/contracts/access/Ownable.sol\":1703:1716  return _owner */\n      swap1\n      pop\n        /* \"@openzeppelin/contracts/access/Ownable.sol\":1638:1723  function owner() public view virtual returns (address) {... */\n      swap1\n      jump\t// out\n        /* \"contracts/BadSammyNFTStore.sol\":2579:3151  function buyWithETH(uint256 tierId) external payable nonReentrant {... */\n    tag_66:\n        /* \"@openzeppelin/contracts/security/ReentrancyGuard.sol\":2261:2282  _nonReentrantBefore() */\n      tag_163\n        /* \"@openzeppelin/contracts/security/ReentrancyGuard.sol\":2261:2280  _nonReentrantBefore */\n      tag_164\n        /* \"@openzeppelin/contracts/security/ReentrancyGuard.sol\":2261:2282  _nonReentrantBefore() */\n      jump\t// in\n    tag_163:\n        /* \"contracts/BadSammyNFTStore.sol\":2655:2668  Tier memory t */\n      0x00\n        /* \"contracts/BadSammyNFTStore.sol\":2671:2676  tiers */\n      0x02\n        /* \"contracts/BadSammyNFTStore.sol\":2671:2684  tiers[tierId] */\n      0x00\n        /* \"contracts/BadSammyNFTStore.sol\":2677:2683  tierId */\n      dup4\n        /* \"contracts/BadSammyNFTStore.sol\":2671:2684  tiers[tierId] */\n      dup2\n      mstore\n      0x20\n      add\n      swap1\n      dup2\n      mstore\n      0x20\n      add\n      0x00\n      keccak256\n        /* \"contracts/BadSammyNFTStore.sol\":2655:2684  Tier memory t = tiers[tierId] */\n      mload(0x40)\n      dup1\n      0x80\n      add\n      0x40\n      mstore\n      swap1\n      dup2\n      0x00\n      dup3\n      add\n      0x00\n      swap1\n      sload\n      swap1\n      0x0100\n      exp\n      swap1\n      div\n      0xffffffffffffffffffffffffffffffffffffffff\n      and\n      0xffffffffffffffffffffffffffffffffffffffff\n      and\n      0xffffffffffffffffffffffffffffffffffffffff\n      and\n      dup2\n      mstore\n      0x20\n      add\n      0x01\n      dup3\n      add\n      sload\n      dup2\n      mstore\n      0x20\n      add\n      0x02\n      dup3\n      add\n      sload\n      dup2\n      mstore\n      0x20\n      add\n      0x03\n      dup3\n      add\n      0x00\n      swap1\n      sload\n      swap1\n      0x0100\n      exp\n      swap1\n      div\n      0xff\n      and\n      iszero\n      iszero\n      iszero\n      iszero\n      dup2\n      mstore\n      pop\n      pop\n      swap1\n      pop\n        /* \"contracts/BadSammyNFTStore.sol\":2715:2716  0 */\n      0x00\n        /* \"contracts/BadSammyNFTStore.sol\":2698:2717  t.nft == address(0) */\n      0xffffffffffffffffffffffffffffffffffffffff\n      and\n        /* \"contracts/BadSammyNFTStore.sol\":2698:2699  t */\n      dup2\n        /* \"contracts/BadSammyNFTStore.sol\":2698:2703  t.nft */\n      0x00\n      add\n      mload\n        /* \"contracts/BadSammyNFTStore.sol\":2698:2717  t.nft == address(0) */\n      0xffffffffffffffffffffffffffffffffffffffff\n      and\n      sub\n        /* \"contracts/BadSammyNFTStore.sol\":2694:2739  if (t.nft == address(0)) revert InvalidTier() */\n      tag_166\n      jumpi\n        /* \"contracts/BadSammyNFTStore.sol\":2726:2739  InvalidTier() */\n      mload(0x40)\n      0xe142361700000000000000000000000000000000000000000000000000000000\n      dup2\n      mstore\n      0x04\n      add\n      mload(0x40)\n      dup1\n      swap2\n      sub\n      swap1\n      revert\n        /* \"contracts/BadSammyNFTStore.sol\":2694:2739  if (t.nft == address(0)) revert InvalidTier() */\n    tag_166:\n        /* \"contracts/BadSammyNFTStore.sol\":2754:2755  t */\n      dup1\n        /* \"contracts/BadSammyNFTStore.sol\":2754:2763  t.enabled */\n      0x60\n      add\n      mload\n        /* \"contracts/BadSammyNFTStore.sol\":2753:2763  !t.enabled */\n      iszero\n        /* \"contracts/BadSammyNFTStore.sol\":2753:2782  !t.enabled || t.priceEth == 0 */\n      dup1\n      tag_167\n      jumpi\n      pop\n        /* \"contracts/BadSammyNFTStore.sol\":2781:2782  0 */\n      0x00\n        /* \"contracts/BadSammyNFTStore.sol\":2767:2768  t */\n      dup2\n        /* \"contracts/BadSammyNFTStore.sol\":2767:2777  t.priceEth */\n      0x20\n      add\n      mload\n        /* \"contracts/BadSammyNFTStore.sol\":2767:2782  t.priceEth == 0 */\n      eq\n        /* \"contracts/BadSammyNFTStore.sol\":2753:2782  !t.enabled || t.priceEth == 0 */\n    tag_167:\n        /* \"contracts/BadSammyNFTStore.sol\":2749:2805  if (!t.enabled || t.priceEth == 0) revert TierDisabled() */\n      iszero\n      tag_168\n      jumpi\n        /* \"contracts/BadSammyNFTStore.sol\":2791:2805  TierDisabled() */\n      mload(0x40)\n      0x94d366b500000000000000000000000000000000000000000000000000000000\n      dup2\n      mstore\n      0x04\n      add\n      mload(0x40)\n      dup1\n      swap2\n      sub\n      swap1\n      revert\n        /* \"contracts/BadSammyNFTStore.sol\":2749:2805  if (!t.enabled || t.priceEth == 0) revert TierDisabled() */\n    tag_168:\n        /* \"contracts/BadSammyNFTStore.sol\":2832:2833  t */\n      dup1\n        /* \"contracts/BadSammyNFTStore.sol\":2832:2842  t.priceEth */\n      0x20\n      add\n      mload\n        /* \"contracts/BadSammyNFTStore.sol\":2819:2828  msg.value */\n      callvalue\n        /* \"contracts/BadSammyNFTStore.sol\":2819:2842  msg.value != t.priceEth */\n      eq\n        /* \"contracts/BadSammyNFTStore.sol\":2815:2869  if (msg.value != t.priceEth) revert PaymentIncorrect() */\n      tag_169\n      jumpi\n        /* \"contracts/BadSammyNFTStore.sol\":2851:2869  PaymentIncorrect() */\n      mload(0x40)\n      0xb0ccca4500000000000000000000000000000000000000000000000000000000\n      dup2\n      mstore\n      0x04\n      add\n      mload(0x40)\n      dup1\n      swap2\n      sub\n      swap1\n      revert\n        /* \"contracts/BadSammyNFTStore.sol\":2815:2869  if (msg.value != t.priceEth) revert PaymentIncorrect() */\n    tag_169:\n        /* \"contracts/BadSammyNFTStore.sol\":2880:2895  uint256 tokenId */\n      0x00\n        /* \"contracts/BadSammyNFTStore.sol\":2898:2915  _nextToken(t.nft) */\n      tag_170\n        /* \"contracts/BadSammyNFTStore.sol\":2909:2910  t */\n      dup3\n        /* \"contracts/BadSammyNFTStore.sol\":2909:2914  t.nft */\n      0x00\n      add\n      mload\n        /* \"contracts/BadSammyNFTStore.sol\":2898:2908  _nextToken */\n      tag_171\n        /* \"contracts/BadSammyNFTStore.sol\":2898:2915  _nextToken(t.nft) */\n      jump\t// in\n    tag_170:\n        /* \"contracts/BadSammyNFTStore.sol\":2880:2915  uint256 tokenId = _nextToken(t.nft) */\n      swap1\n      pop\n        /* \"contracts/BadSammyNFTStore.sol\":2951:2958  bool ok */\n      0x00\n        /* \"contracts/BadSammyNFTStore.sol\":2964:2972  treasury */\n      0x03\n      0x00\n      swap1\n      sload\n      swap1\n      0x0100\n      exp\n      swap1\n      div\n      0xffffffffffffffffffffffffffffffffffffffff\n      and\n        /* \"contracts/BadSammyNFTStore.sol\":2964:2977  treasury.call */\n      0xffffffffffffffffffffffffffffffffffffffff\n      and\n        /* \"contracts/BadSammyNFTStore.sol\":2985:2994  msg.value */\n      callvalue\n        /* \"contracts/BadSammyNFTStore.sol\":2964:2999  treasury.call{value: msg.value}(\"\") */\n      mload(0x40)\n      tag_172\n      swap1\n      tag_173\n      jump\t// in\n    tag_172:\n      0x00\n      mload(0x40)\n      dup1\n      dup4\n      sub\n      dup2\n      dup6\n      dup8\n      gas\n      call\n      swap3\n      pop\n      pop\n      pop\n      returndatasize\n      dup1\n      0x00\n      dup2\n      eq\n      tag_176\n      jumpi\n      mload(0x40)\n      swap2\n      pop\n      and(add(returndatasize, 0x3f), not(0x1f))\n      dup3\n      add\n      0x40\n      mstore\n      returndatasize\n      dup3\n      mstore\n      returndatasize\n      0x00\n      0x20\n      dup5\n      add\n      returndatacopy\n      jump(tag_175)\n    tag_176:\n      0x60\n      swap2\n      pop\n    tag_175:\n      pop\n        /* \"contracts/BadSammyNFTStore.sol\":2950:2999  (bool ok, ) = treasury.call{value: msg.value}(\"\") */\n      pop\n      swap1\n      pop\n        /* \"contracts/BadSammyNFTStore.sol\":3017:3019  ok */\n      dup1\n        /* \"contracts/BadSammyNFTStore.sol\":3009:3043  require(ok, \"ETH transfer failed\") */\n      tag_177\n      jumpi\n      mload(0x40)\n      0x08c379a000000000000000000000000000000000000000000000000000000000\n      dup2\n      mstore\n      0x04\n      add\n      tag_178\n      swap1\n      tag_179\n      jump\t// in\n    tag_178:\n      mload(0x40)\n      dup1\n      swap2\n      sub\n      swap1\n      revert\n    tag_177:\n        /* \"contracts/BadSammyNFTStore.sol\":3085:3086  t */\n      dup3\n        /* \"contracts/BadSammyNFTStore.sol\":3085:3090  t.nft */\n      0x00\n      add\n      mload\n        /* \"contracts/BadSammyNFTStore.sol\":3077:3108  IERC721(t.nft).safeTransferFrom */\n      0xffffffffffffffffffffffffffffffffffffffff\n      and\n      0x42842e0e\n        /* \"contracts/BadSammyNFTStore.sol\":3117:3121  this */\n      address\n        /* \"contracts/BadSammyNFTStore.sol\":3124:3134  msg.sender */\n      caller\n        /* \"contracts/BadSammyNFTStore.sol\":3136:3143  tokenId */\n      dup6\n        /* \"contracts/BadSammyNFTStore.sol\":3077:3144  IERC721(t.nft).safeTransferFrom(address(this), msg.sender, tokenId) */\n      mload(0x40)\n      dup5\n      0xffffffff\n      and\n      0xe0\n      shl\n      dup2\n      mstore\n      0x04\n      add\n      tag_180\n      swap4\n      swap3\n      swap2\n      swap1\n      tag_116\n      jump\t// in\n    tag_180:\n      0x00\n      mload(0x40)\n      dup1\n      dup4\n      sub\n      dup2\n      0x00\n      dup8\n      dup1\n      extcodesize\n      iszero\n      dup1\n      iszero\n      tag_181\n      jumpi\n      revert(0x00, 0x00)\n    tag_181:\n      pop\n      gas\n      call\n      iszero\n      dup1\n      iszero\n      tag_183\n      jumpi\n      returndatacopy(0x00, 0x00, returndatasize)\n      revert(0x00, returndatasize)\n    tag_183:\n      pop\n      pop\n      pop\n      pop\n        /* \"contracts/BadSammyNFTStore.sol\":2645:3151  {... */\n      pop\n      pop\n      pop\n        /* \"@openzeppelin/contracts/security/ReentrancyGuard.sol\":2303:2323  _nonReentrantAfter() */\n      tag_184\n        /* \"@openzeppelin/contracts/security/ReentrancyGuard.sol\":2303:2321  _nonReentrantAfter */\n      tag_185\n        /* \"@openzeppelin/contracts/security/ReentrancyGuard.sol\":2303:2323  _nonReentrantAfter() */\n      jump\t// in\n    tag_184:\n        /* \"contracts/BadSammyNFTStore.sol\":2579:3151  function buyWithETH(uint256 tierId) external payable nonReentrant {... */\n      pop\n      jump\t// out\n        /* \"contracts/BadSammyNFTStore.sol\":4749:5005  function withdrawNFT(uint256 tierId, uint256 tokenId, address to) external onlyOwner {... */\n    tag_71:\n        /* \"@openzeppelin/contracts/access/Ownable.sol\":1531:1544  _checkOwner() */\n      tag_187\n        /* \"@openzeppelin/contracts/access/Ownable.sol\":1531:1542  _checkOwner */\n      tag_102\n        /* \"@openzeppelin/contracts/access/Ownable.sol\":1531:1544  _checkOwner() */\n      jump\t// in\n    tag_187:\n        /* \"contracts/BadSammyNFTStore.sol\":4844:4857  Tier memory t */\n      0x00\n        /* \"contracts/BadSammyNFTStore.sol\":4860:4865  tiers */\n      0x02\n        /* \"contracts/BadSammyNFTStore.sol\":4860:4873  tiers[tierId] */\n      0x00\n        /* \"contracts/BadSammyNFTStore.sol\":4866:4872  tierId */\n      dup6\n        /* \"contracts/BadSammyNFTStore.sol\":4860:4873  tiers[tierId] */\n      dup2\n      mstore\n      0x20\n      add\n      swap1\n      dup2\n      mstore\n      0x20\n      add\n      0x00\n      keccak256\n        /* \"contracts/BadSammyNFTStore.sol\":4844:4873  Tier memory t = tiers[tierId] */\n      mload(0x40)\n      dup1\n      0x80\n      add\n      0x40\n      mstore\n      swap1\n      dup2\n      0x00\n      dup3\n      add\n      0x00\n      swap1\n      sload\n      swap1\n      0x0100\n      exp\n      swap1\n      div\n      0xffffffffffffffffffffffffffffffffffffffff\n      and\n      0xffffffffffffffffffffffffffffffffffffffff\n      and\n      0xffffffffffffffffffffffffffffffffffffffff\n      and\n      dup2\n      mstore\n      0x20\n      add\n      0x01\n      dup3\n      add\n      sload\n      dup2\n      mstore\n      0x20\n      add\n      0x02\n      dup3\n      add\n      sload\n      dup2\n      mstore\n      0x20\n      add\n      0x03\n      dup3\n      add\n      0x00\n      swap1\n      sload\n      swap1\n      0x0100\n      exp\n      swap1\n      div\n      0xff\n      and\n      iszero\n      iszero\n      iszero\n      iszero\n      dup2\n      mstore\n      pop\n      pop\n      swap1\n      pop\n        /* \"contracts/BadSammyNFTStore.sol\":4904:4905  0 */\n      0x00\n        /* \"contracts/BadSammyNFTStore.sol\":4887:4906  t.nft == address(0) */\n      0xffffffffffffffffffffffffffffffffffffffff\n      and\n        /* \"contracts/BadSammyNFTStore.sol\":4887:4888  t */\n      dup2\n        /* \"contracts/BadSammyNFTStore.sol\":4887:4892  t.nft */\n      0x00\n      add\n      mload\n        /* \"contracts/BadSammyNFTStore.sol\":4887:4906  t.nft == address(0) */\n      0xffffffffffffffffffffffffffffffffffffffff\n      and\n      sub\n        /* \"contracts/BadSammyNFTStore.sol\":4883:4928  if (t.nft == address(0)) revert InvalidTier() */\n      tag_189\n      jumpi\n        /* \"contracts/BadSammyNFTStore.sol\":4915:4928  InvalidTier() */\n      mload(0x40)\n      0xe142361700000000000000000000000000000000000000000000000000000000\n      dup2\n      mstore\n      0x04\n      add\n      mload(0x40)\n      dup1\n      swap2\n      sub\n      swap1\n      revert\n        /* \"contracts/BadSammyNFTStore.sol\":4883:4928  if (t.nft == address(0)) revert InvalidTier() */\n    tag_189:\n        /* \"contracts/BadSammyNFTStore.sol\":4947:4948  t */\n      dup1\n        /* \"contracts/BadSammyNFTStore.sol\":4947:4952  t.nft */\n      0x00\n      add\n      mload\n        /* \"contracts/BadSammyNFTStore.sol\":4939:4970  IERC721(t.nft).safeTransferFrom */\n      0xffffffffffffffffffffffffffffffffffffffff\n      and\n      0x42842e0e\n        /* \"contracts/BadSammyNFTStore.sol\":4979:4983  this */\n      address\n        /* \"contracts/BadSammyNFTStore.sol\":4986:4988  to */\n      dup5\n        /* \"contracts/BadSammyNFTStore.sol\":4990:4997  tokenId */\n      dup7\n        /* \"contracts/BadSammyNFTStore.sol\":4939:4998  IERC721(t.nft).safeTransferFrom(address(this), to, tokenId) */\n      mload(0x40)\n      dup5\n      0xffffffff\n      and\n      0xe0\n      shl\n      dup2\n      mstore\n      0x04\n      add\n      tag_190\n      swap4\n      swap3\n      swap2\n      swap1\n      tag_116\n      jump\t// in\n    tag_190:\n      0x00\n      mload(0x40)\n      dup1\n      dup4\n      sub\n      dup2\n      0x00\n      dup8\n      dup1\n      extcodesize\n      iszero\n      dup1\n      iszero\n      tag_191\n      jumpi\n      revert(0x00, 0x00)\n    tag_191:\n      pop\n      gas\n      call\n      iszero\n      dup1\n      iszero\n      tag_193\n      jumpi\n      returndatacopy(0x00, 0x00, returndatasize)\n      revert(0x00, returndatasize)\n    tag_193:\n      pop\n      pop\n      pop\n      pop\n        /* \"contracts/BadSammyNFTStore.sol\":4834:5005  {... */\n      pop\n        /* \"contracts/BadSammyNFTStore.sol\":4749:5005  function withdrawNFT(uint256 tierId, uint256 tokenId, address to) external onlyOwner {... */\n      pop\n      pop\n      pop\n      jump\t// out\n        /* \"contracts/BadSammyNFTStore.sol\":3212:3769  function buyWithUSDC(uint256 tierId) public nonReentrant {... */\n    tag_75:\n        /* \"@openzeppelin/contracts/security/ReentrancyGuard.sol\":2261:2282  _nonReentrantBefore() */\n      tag_195\n        /* \"@openzeppelin/contracts/security/ReentrancyGuard.sol\":2261:2280  _nonReentrantBefore */\n      tag_164\n        /* \"@openzeppelin/contracts/security/ReentrancyGuard.sol\":2261:2282  _nonReentrantBefore() */\n      jump\t// in\n    tag_195:\n        /* \"contracts/BadSammyNFTStore.sol\":3279:3292  Tier memory t */\n      0x00\n        /* \"contracts/BadSammyNFTStore.sol\":3295:3300  tiers */\n      0x02\n        /* \"contracts/BadSammyNFTStore.sol\":3295:3308  tiers[tierId] */\n      0x00\n        /* \"contracts/BadSammyNFTStore.sol\":3301:3307  tierId */\n      dup4\n        /* \"contracts/BadSammyNFTStore.sol\":3295:3308  tiers[tierId] */\n      dup2\n      mstore\n      0x20\n      add\n      swap1\n      dup2\n      mstore\n      0x20\n      add\n      0x00\n      keccak256\n        /* \"contracts/BadSammyNFTStore.sol\":3279:3308  Tier memory t = tiers[tierId] */\n      mload(0x40)\n      dup1\n      0x80\n      add\n      0x40\n      mstore\n      swap1\n      dup2\n      0x00\n      dup3\n      add\n      0x00\n      swap1\n      sload\n      swap1\n      0x0100\n      exp\n      swap1\n      div\n      0xffffffffffffffffffffffffffffffffffffffff\n      and\n      0xffffffffffffffffffffffffffffffffffffffff\n      and\n      0xffffffffffffffffffffffffffffffffffffffff\n      and\n      dup2\n      mstore\n      0x20\n      add\n      0x01\n      dup3\n      add\n      sload\n      dup2\n      mstore\n      0x20\n      add\n      0x02\n      dup3\n      add\n      sload\n      dup2\n      mstore\n      0x20\n      add\n      0x03\n      dup3\n      add\n      0x00\n      swap1\n      sload\n      swap1\n      0x0100\n      exp\n      swap1\n      div\n      0xff\n      and\n      iszero\n      iszero\n      iszero\n      iszero\n      dup2\n      mstore\n      pop\n      pop\n      swap1\n      pop\n        /* \"contracts/BadSammyNFTStore.sol\":3339:3340  0 */\n      0x00\n        /* \"contracts/BadSammyNFTStore.sol\":3322:3341  t.nft == address(0) */\n      0xffffffffffffffffffffffffffffffffffffffff\n      and\n        /* \"contracts/BadSammyNFTStore.sol\":3322:3323  t */\n      dup2\n        /* \"contracts/BadSammyNFTStore.sol\":3322:3327  t.nft */\n      0x00\n      add\n      mload\n        /* \"contracts/BadSammyNFTStore.sol\":3322:3341  t.nft == address(0) */\n      0xffffffffffffffffffffffffffffffffffffffff\n      and\n      sub\n        /* \"contracts/BadSammyNFTStore.sol\":3318:3363  if (t.nft == address(0)) revert InvalidTier() */\n      tag_197\n      jumpi\n        /* \"contracts/BadSammyNFTStore.sol\":3350:3363  InvalidTier() */\n      mload(0x40)\n      0xe142361700000000000000000000000000000000000000000000000000000000\n      dup2\n      mstore\n      0x04\n      add\n      mload(0x40)\n      dup1\n      swap2\n      sub\n      swap1\n      revert\n        /* \"contracts/BadSammyNFTStore.sol\":3318:3363  if (t.nft == address(0)) revert InvalidTier() */\n    tag_197:\n        /* \"contracts/BadSammyNFTStore.sol\":3378:3379  t */\n      dup1\n        /* \"contracts/BadSammyNFTStore.sol\":3378:3387  t.enabled */\n      0x60\n      add\n      mload\n        /* \"contracts/BadSammyNFTStore.sol\":3377:3387  !t.enabled */\n      iszero\n        /* \"contracts/BadSammyNFTStore.sol\":3377:3407  !t.enabled || t.priceUsdc == 0 */\n      dup1\n      tag_198\n      jumpi\n      pop\n        /* \"contracts/BadSammyNFTStore.sol\":3406:3407  0 */\n      0x00\n        /* \"contracts/BadSammyNFTStore.sol\":3391:3392  t */\n      dup2\n        /* \"contracts/BadSammyNFTStore.sol\":3391:3402  t.priceUsdc */\n      0x40\n      add\n      mload\n        /* \"contracts/BadSammyNFTStore.sol\":3391:3407  t.priceUsdc == 0 */\n      eq\n        /* \"contracts/BadSammyNFTStore.sol\":3377:3407  !t.enabled || t.priceUsdc == 0 */\n    tag_198:\n        /* \"contracts/BadSammyNFTStore.sol\":3373:3430  if (!t.enabled || t.priceUsdc == 0) revert TierDisabled() */\n      iszero\n      tag_199\n      jumpi\n        /* \"contracts/BadSammyNFTStore.sol\":3416:3430  TierDisabled() */\n      mload(0x40)\n      0x94d366b500000000000000000000000000000000000000000000000000000000\n      dup2\n      mstore\n      0x04\n      add\n      mload(0x40)\n      dup1\n      swap2\n      sub\n      swap1\n      revert\n        /* \"contracts/BadSammyNFTStore.sol\":3373:3430  if (!t.enabled || t.priceUsdc == 0) revert TierDisabled() */\n    tag_199:\n        /* \"contracts/BadSammyNFTStore.sol\":3441:3456  uint256 tokenId */\n      0x00\n        /* \"contracts/BadSammyNFTStore.sol\":3459:3476  _nextToken(t.nft) */\n      tag_200\n        /* \"contracts/BadSammyNFTStore.sol\":3470:3471  t */\n      dup3\n        /* \"contracts/BadSammyNFTStore.sol\":3470:3475  t.nft */\n      0x00\n      add\n      mload\n        /* \"contracts/BadSammyNFTStore.sol\":3459:3469  _nextToken */\n      tag_171\n        /* \"contracts/BadSammyNFTStore.sol\":3459:3476  _nextToken(t.nft) */\n      jump\t// in\n    tag_200:\n        /* \"contracts/BadSammyNFTStore.sol\":3441:3476  uint256 tokenId = _nextToken(t.nft) */\n      swap1\n      pop\n        /* \"contracts/BadSammyNFTStore.sol\":3519:3580  USDC.safeTransferFrom(msg.sender, address(this), t.priceUsdc) */\n      tag_201\n        /* \"contracts/BadSammyNFTStore.sol\":3541:3551  msg.sender */\n      caller\n        /* \"contracts/BadSammyNFTStore.sol\":3561:3565  this */\n      address\n        /* \"contracts/BadSammyNFTStore.sol\":3568:3569  t */\n      dup5\n        /* \"contracts/BadSammyNFTStore.sol\":3568:3579  t.priceUsdc */\n      0x40\n      add\n      mload\n        /* \"contracts/BadSammyNFTStore.sol\":3519:3523  USDC */\n      immutable(\"0x33286a54972a80973ee80eee8a51cb72b2462ef9bc83651165b227095b1f09d1\")\n        /* \"contracts/BadSammyNFTStore.sol\":3519:3540  USDC.safeTransferFrom */\n      0xffffffffffffffffffffffffffffffffffffffff\n      and\n      tag_202\n      swap1\n        /* \"contracts/BadSammyNFTStore.sol\":3519:3580  USDC.safeTransferFrom(msg.sender, address(this), t.priceUsdc) */\n      swap4\n      swap3\n      swap2\n      swap1\n      0xffffffff\n      and\n      jump\t// in\n    tag_201:\n        /* \"contracts/BadSammyNFTStore.sol\":3621:3661  USDC.safeTransfer(treasury, t.priceUsdc) */\n      tag_203\n        /* \"contracts/BadSammyNFTStore.sol\":3639:3647  treasury */\n      0x03\n      0x00\n      swap1\n      sload\n      swap1\n      0x0100\n      exp\n      swap1\n      div\n      0xffffffffffffffffffffffffffffffffffffffff\n      and\n        /* \"contracts/BadSammyNFTStore.sol\":3649:3650  t */\n      dup4\n        /* \"contracts/BadSammyNFTStore.sol\":3649:3660  t.priceUsdc */\n      0x40\n      add\n      mload\n        /* \"contracts/BadSammyNFTStore.sol\":3621:3625  USDC */\n      immutable(\"0x33286a54972a80973ee80eee8a51cb72b2462ef9bc83651165b227095b1f09d1\")\n        /* \"contracts/BadSammyNFTStore.sol\":3621:3638  USDC.safeTransfer */\n      0xffffffffffffffffffffffffffffffffffffffff\n      and\n      tag_204\n      swap1\n        /* \"contracts/BadSammyNFTStore.sol\":3621:3661  USDC.safeTransfer(treasury, t.priceUsdc) */\n      swap3\n      swap2\n      swap1\n      0xffffffff\n      and\n      jump\t// in\n    tag_203:\n        /* \"contracts/BadSammyNFTStore.sol\":3703:3704  t */\n      dup2\n        /* \"contracts/BadSammyNFTStore.sol\":3703:3708  t.nft */\n      0x00\n      add\n      mload\n        /* \"contracts/BadSammyNFTStore.sol\":3695:3726  IERC721(t.nft).safeTransferFrom */\n      0xffffffffffffffffffffffffffffffffffffffff\n      and\n      0x42842e0e\n        /* \"contracts/BadSammyNFTStore.sol\":3735:3739  this */\n      address\n        /* \"contracts/BadSammyNFTStore.sol\":3742:3752  msg.sender */\n      caller\n        /* \"contracts/BadSammyNFTStore.sol\":3754:3761  tokenId */\n      dup5\n        /* \"contracts/BadSammyNFTStore.sol\":3695:3762  IERC721(t.nft).safeTransferFrom(address(this), msg.sender, tokenId) */\n      mload(0x40)\n      dup5\n      0xffffffff\n      and\n      0xe0\n      shl\n      dup2\n      mstore\n      0x04\n      add\n      tag_205\n      swap4\n      swap3\n      swap2\n      swap1\n      tag_116\n      jump\t// in\n    tag_205:\n      0x00\n      mload(0x40)\n      dup1\n      dup4\n      sub\n      dup2\n      0x00\n      dup8\n      dup1\n      extcodesize\n      iszero\n      dup1\n      iszero\n      tag_206\n      jumpi\n      revert(0x00, 0x00)\n    tag_206:\n      pop\n      gas\n      call\n      iszero\n      dup1\n      iszero\n      tag_208\n      jumpi\n      returndatacopy(0x00, 0x00, returndatasize)\n      revert(0x00, returndatasize)\n    tag_208:\n      pop\n      pop\n      pop\n      pop\n        /* \"contracts/BadSammyNFTStore.sol\":3269:3769  {... */\n      pop\n      pop\n        /* \"@openzeppelin/contracts/security/ReentrancyGuard.sol\":2303:2323  _nonReentrantAfter() */\n      tag_209\n        /* \"@openzeppelin/contracts/security/ReentrancyGuard.sol\":2303:2321  _nonReentrantAfter */\n      tag_185\n        /* \"@openzeppelin/contracts/security/ReentrancyGuard.sol\":2303:2323  _nonReentrantAfter() */\n      jump\t// in\n    tag_209:\n        /* \"contracts/BadSammyNFTStore.sol\":3212:3769  function buyWithUSDC(uint256 tierId) public nonReentrant {... */\n      pop\n      jump\t// out\n        /* \"contracts/BadSammyNFTStore.sol\":1934:2231  function setTier(... */\n    tag_80:\n        /* \"@openzeppelin/contracts/access/Ownable.sol\":1531:1544  _checkOwner() */\n      tag_211\n        /* \"@openzeppelin/contracts/access/Ownable.sol\":1531:1542  _checkOwner */\n      tag_102\n        /* \"@openzeppelin/contracts/access/Ownable.sol\":1531:1544  _checkOwner() */\n      jump\t// in\n    tag_211:\n        /* \"contracts/BadSammyNFTStore.sol\":2170:2224  Tier(nftAddress, priceEthWei, priceUsdcUnits, enabled) */\n      mload(0x40)\n      dup1\n      0x80\n      add\n      0x40\n      mstore\n      dup1\n        /* \"contracts/BadSammyNFTStore.sol\":2175:2185  nftAddress */\n      dup6\n        /* \"contracts/BadSammyNFTStore.sol\":2170:2224  Tier(nftAddress, priceEthWei, priceUsdcUnits, enabled) */\n      0xffffffffffffffffffffffffffffffffffffffff\n      and\n      dup2\n      mstore\n      0x20\n      add\n        /* \"contracts/BadSammyNFTStore.sol\":2187:2198  priceEthWei */\n      dup5\n        /* \"contracts/BadSammyNFTStore.sol\":2170:2224  Tier(nftAddress, priceEthWei, priceUsdcUnits, enabled) */\n      dup2\n      mstore\n      0x20\n      add\n        /* \"contracts/BadSammyNFTStore.sol\":2200:2214  priceUsdcUnits */\n      dup4\n        /* \"contracts/BadSammyNFTStore.sol\":2170:2224  Tier(nftAddress, priceEthWei, priceUsdcUnits, enabled) */\n      dup2\n      mstore\n      0x20\n      add\n        /* \"contracts/BadSammyNFTStore.sol\":2216:2223  enabled */\n      dup3\n        /* \"contracts/BadSammyNFTStore.sol\":2170:2224  Tier(nftAddress, priceEthWei, priceUsdcUnits, enabled) */\n      iszero\n      iszero\n      dup2\n      mstore\n      pop\n        /* \"contracts/BadSammyNFTStore.sol\":2154:2159  tiers */\n      0x02\n        /* \"contracts/BadSammyNFTStore.sol\":2154:2167  tiers[tierId] */\n      0x00\n        /* \"contracts/BadSammyNFTStore.sol\":2160:2166  tierId */\n      dup8\n        /* \"contracts/BadSammyNFTStore.sol\":2154:2167  tiers[tierId] */\n      dup2\n      mstore\n      0x20\n      add\n      swap1\n      dup2\n      mstore\n      0x20\n      add\n      0x00\n      keccak256\n        /* \"contracts/BadSammyNFTStore.sol\":2154:2224  tiers[tierId] = Tier(nftAddress, priceEthWei, priceUsdcUnits, enabled) */\n      0x00\n      dup3\n      add\n      mload\n      dup2\n      0x00\n      add\n      exp(0x0100, 0x00)\n      dup2\n      sload\n      dup2\n      0xffffffffffffffffffffffffffffffffffffffff\n      mul\n      not\n      and\n      swap1\n      dup4\n      0xffffffffffffffffffffffffffffffffffffffff\n      and\n      mul\n      or\n      swap1\n      sstore\n      pop\n      0x20\n      dup3\n      add\n      mload\n      dup2\n      0x01\n      add\n      sstore\n      0x40\n      dup3\n      add\n      mload\n      dup2\n      0x02\n      add\n      sstore\n      0x60\n      dup3\n      add\n      mload\n      dup2\n      0x03\n      add\n      exp(0x0100, 0x00)\n      dup2\n      sload\n      dup2\n      0xff\n      mul\n      not\n      and\n      swap1\n      dup4\n      iszero\n      iszero\n      mul\n      or\n      swap1\n      sstore\n      pop\n      swap1\n      pop\n      pop\n        /* \"contracts/BadSammyNFTStore.sol\":1934:2231  function setTier(... */\n      pop\n      pop\n      pop\n      pop\n      pop\n      jump\t// out\n        /* \"contracts/BadSammyNFTStore.sol\":3874:4465  function buyWithUSDCPermit(... */\n    tag_85:\n        /* \"@openzeppelin/contracts/security/ReentrancyGuard.sol\":2261:2282  _nonReentrantBefore() */\n      tag_214\n        /* \"@openzeppelin/contracts/security/ReentrancyGuard.sol\":2261:2280  _nonReentrantBefore */\n      tag_164\n        /* \"@openzeppelin/contracts/security/ReentrancyGuard.sol\":2261:2282  _nonReentrantBefore() */\n      jump\t// in\n    tag_214:\n        /* \"contracts/BadSammyNFTStore.sol\":4051:4064  Tier memory t */\n      0x00\n        /* \"contracts/BadSammyNFTStore.sol\":4067:4072  tiers */\n      0x02\n        /* \"contracts/BadSammyNFTStore.sol\":4067:4080  tiers[tierId] */\n      0x00\n        /* \"contracts/BadSammyNFTStore.sol\":4073:4079  tierId */\n      dup9\n        /* \"contracts/BadSammyNFTStore.sol\":4067:4080  tiers[tierId] */\n      dup2\n      mstore\n      0x20\n      add\n      swap1\n      dup2\n      mstore\n      0x20\n      add\n      0x00\n      keccak256\n        /* \"contracts/BadSammyNFTStore.sol\":4051:4080  Tier memory t = tiers[tierId] */\n      mload(0x40)\n      dup1\n      0x80\n      add\n      0x40\n      mstore\n      swap1\n      dup2\n      0x00\n      dup3\n      add\n      0x00\n      swap1\n      sload\n      swap1\n      0x0100\n      exp\n      swap1\n      div\n      0xffffffffffffffffffffffffffffffffffffffff\n      and\n      0xffffffffffffffffffffffffffffffffffffffff\n      and\n      0xffffffffffffffffffffffffffffffffffffffff\n      and\n      dup2\n      mstore\n      0x20\n      add\n      0x01\n      dup3\n      add\n      sload\n      dup2\n      mstore\n      0x20\n      add\n      0x02\n      dup3\n      add\n      sload\n      dup2\n      mstore\n      0x20\n      add\n      0x03\n      dup3\n      add\n      0x00\n      swap1\n      sload\n      swap1\n      0x0100\n      exp\n      swap1\n      div\n      0xff\n      and\n      iszero\n      iszero\n      iszero\n      iszero\n      dup2\n      mstore\n      pop\n      pop\n      swap1\n      pop\n        /* \"contracts/BadSammyNFTStore.sol\":4111:4112  0 */\n      0x00\n        /* \"contracts/BadSammyNFTStore.sol\":4094:4113  t.nft == address(0) */\n      0xffffffffffffffffffffffffffffffffffffffff\n      and\n        /* \"contracts/BadSammyNFTStore.sol\":4094:4095  t */\n      dup2\n        /* \"contracts/BadSammyNFTStore.sol\":4094:4099  t.nft */\n      0x00\n      add\n      mload\n        /* \"contracts/BadSammyNFTStore.sol\":4094:4113  t.nft == address(0) */\n      0xffffffffffffffffffffffffffffffffffffffff\n      and\n      sub\n        /* \"contracts/BadSammyNFTStore.sol\":4090:4135  if (t.nft == address(0)) revert InvalidTier() */\n      tag_216\n      jumpi\n        /* \"contracts/BadSammyNFTStore.sol\":4122:4135  InvalidTier() */\n      mload(0x40)\n      0xe142361700000000000000000000000000000000000000000000000000000000\n      dup2\n      mstore\n      0x04\n      add\n      mload(0x40)\n      dup1\n      swap2\n      sub\n      swap1\n      revert\n        /* \"contracts/BadSammyNFTStore.sol\":4090:4135  if (t.nft == address(0)) revert InvalidTier() */\n    tag_216:\n        /* \"contracts/BadSammyNFTStore.sol\":4150:4151  t */\n      dup1\n        /* \"contracts/BadSammyNFTStore.sol\":4150:4159  t.enabled */\n      0x60\n      add\n      mload\n        /* \"contracts/BadSammyNFTStore.sol\":4149:4159  !t.enabled */\n      iszero\n        /* \"contracts/BadSammyNFTStore.sol\":4149:4179  !t.enabled || t.priceUsdc == 0 */\n      dup1\n      tag_217\n      jumpi\n      pop\n        /* \"contracts/BadSammyNFTStore.sol\":4178:4179  0 */\n      0x00\n        /* \"contracts/BadSammyNFTStore.sol\":4163:4164  t */\n      dup2\n        /* \"contracts/BadSammyNFTStore.sol\":4163:4174  t.priceUsdc */\n      0x40\n      add\n      mload\n        /* \"contracts/BadSammyNFTStore.sol\":4163:4179  t.priceUsdc == 0 */\n      eq\n        /* \"contracts/BadSammyNFTStore.sol\":4149:4179  !t.enabled || t.priceUsdc == 0 */\n    tag_217:\n        /* \"contracts/BadSammyNFTStore.sol\":4145:4202  if (!t.enabled || t.priceUsdc == 0) revert TierDisabled() */\n      iszero\n      tag_218\n      jumpi\n        /* \"contracts/BadSammyNFTStore.sol\":4188:4202  TierDisabled() */\n      mload(0x40)\n      0x94d366b500000000000000000000000000000000000000000000000000000000\n      dup2\n      mstore\n      0x04\n      add\n      mload(0x40)\n      dup1\n      swap2\n      sub\n      swap1\n      revert\n        /* \"contracts/BadSammyNFTStore.sol\":4145:4202  if (!t.enabled || t.priceUsdc == 0) revert TierDisabled() */\n    tag_218:\n        /* \"contracts/BadSammyNFTStore.sol\":4229:4230  t */\n      dup1\n        /* \"contracts/BadSammyNFTStore.sol\":4229:4240  t.priceUsdc */\n      0x40\n      add\n      mload\n        /* \"contracts/BadSammyNFTStore.sol\":4220:4225  value */\n      dup7\n        /* \"contracts/BadSammyNFTStore.sol\":4220:4240  value == t.priceUsdc */\n      eq\n        /* \"contracts/BadSammyNFTStore.sol\":4212:4266  require(value == t.priceUsdc, \"permit value mismatch\") */\n      tag_219\n      jumpi\n      mload(0x40)\n      0x08c379a000000000000000000000000000000000000000000000000000000000\n      dup2\n      mstore\n      0x04\n      add\n      tag_220\n      swap1\n      tag_221\n      jump\t// in\n    tag_220:\n      mload(0x40)\n      dup1\n      swap2\n      sub\n      swap1\n      revert\n    tag_219:\n        /* \"contracts/BadSammyNFTStore.sol\":4339:4343  USDC */\n      immutable(\"0x33286a54972a80973ee80eee8a51cb72b2462ef9bc83651165b227095b1f09d1\")\n        /* \"contracts/BadSammyNFTStore.sol\":4318:4352  IERC20Permit(address(USDC)).permit */\n      0xffffffffffffffffffffffffffffffffffffffff\n      and\n      0xd505accf\n        /* \"contracts/BadSammyNFTStore.sol\":4353:4363  msg.sender */\n      caller\n        /* \"contracts/BadSammyNFTStore.sol\":4373:4377  this */\n      address\n        /* \"contracts/BadSammyNFTStore.sol\":4380:4385  value */\n      dup10\n        /* \"contracts/BadSammyNFTStore.sol\":4387:4395  deadline */\n      dup10\n        /* \"contracts/BadSammyNFTStore.sol\":4397:4398  v */\n      dup10\n        /* \"contracts/BadSammyNFTStore.sol\":4400:4401  r */\n      dup10\n        /* \"contracts/BadSammyNFTStore.sol\":4403:4404  s */\n      dup10\n        /* \"contracts/BadSammyNFTStore.sol\":4318:4405  IERC20Permit(address(USDC)).permit(msg.sender, address(this), value, deadline, v, r, s) */\n      mload(0x40)\n      dup9\n      0xffffffff\n      and\n      0xe0\n      shl\n      dup2\n      mstore\n      0x04\n      add\n      tag_222\n      swap8\n      swap7\n      swap6\n      swap5\n      swap4\n      swap3\n      swap2\n      swap1\n      tag_223\n      jump\t// in\n    tag_222:\n      0x00\n      mload(0x40)\n      dup1\n      dup4\n      sub\n      dup2\n      0x00\n      dup8\n      dup1\n      extcodesize\n      iszero\n      dup1\n      iszero\n      tag_224\n      jumpi\n      revert(0x00, 0x00)\n    tag_224:\n      pop\n      gas\n      call\n      iszero\n      dup1\n      iszero\n      tag_226\n      jumpi\n      returndatacopy(0x00, 0x00, returndatasize)\n      revert(0x00, returndatasize)\n    tag_226:\n      pop\n      pop\n      pop\n      pop\n        /* \"contracts/BadSammyNFTStore.sol\":4439:4458  buyWithUSDC(tierId) */\n      tag_227\n        /* \"contracts/BadSammyNFTStore.sol\":4451:4457  tierId */\n      dup8\n        /* \"contracts/BadSammyNFTStore.sol\":4439:4450  buyWithUSDC */\n      tag_75\n        /* \"contracts/BadSammyNFTStore.sol\":4439:4458  buyWithUSDC(tierId) */\n      jump\t// in\n    tag_227:\n        /* \"contracts/BadSammyNFTStore.sol\":4041:4465  {... */\n      pop\n        /* \"@openzeppelin/contracts/security/ReentrancyGuard.sol\":2303:2323  _nonReentrantAfter() */\n      tag_228\n        /* \"@openzeppelin/contracts/security/ReentrancyGuard.sol\":2303:2321  _nonReentrantAfter */\n      tag_185\n        /* \"@openzeppelin/contracts/security/ReentrancyGuard.sol\":2303:2323  _nonReentrantAfter() */\n      jump\t// in\n    tag_228:\n        /* \"contracts/BadSammyNFTStore.sol\":3874:4465  function buyWithUSDCPermit(... */\n      pop\n      pop\n      pop\n      pop\n      pop\n      pop\n      jump\t// out\n        /* \"contracts/BadSammyNFTStore.sol\":5096:5755  function withdrawN(uint256 tierId, uint256 quantity, address to) external onlyOwner {... */\n    tag_89:\n        /* \"@openzeppelin/contracts/access/Ownable.sol\":1531:1544  _checkOwner() */\n      tag_230\n        /* \"@openzeppelin/contracts/access/Ownable.sol\":1531:1542  _checkOwner */\n      tag_102\n        /* \"@openzeppelin/contracts/access/Ownable.sol\":1531:1544  _checkOwner() */\n      jump\t// in\n    tag_230:\n        /* \"contracts/BadSammyNFTStore.sol\":5190:5203  Tier memory t */\n      0x00\n        /* \"contracts/BadSammyNFTStore.sol\":5206:5211  tiers */\n      0x02\n        /* \"contracts/BadSammyNFTStore.sol\":5206:5219  tiers[tierId] */\n      0x00\n        /* \"contracts/BadSammyNFTStore.sol\":5212:5218  tierId */\n      dup6\n        /* \"contracts/BadSammyNFTStore.sol\":5206:5219  tiers[tierId] */\n      dup2\n      mstore\n      0x20\n      add\n      swap1\n      dup2\n      mstore\n      0x20\n      add\n      0x00\n      keccak256\n        /* \"contracts/BadSammyNFTStore.sol\":5190:5219  Tier memory t = tiers[tierId] */\n      mload(0x40)\n      dup1\n      0x80\n      add\n      0x40\n      mstore\n      swap1\n      dup2\n      0x00\n      dup3\n      add\n      0x00\n      swap1\n      sload\n      swap1\n      0x0100\n      exp\n      swap1\n      div\n      0xffffffffffffffffffffffffffffffffffffffff\n      and\n      0xffffffffffffffffffffffffffffffffffffffff\n      and\n      0xffffffffffffffffffffffffffffffffffffffff\n      and\n      dup2\n      mstore\n      0x20\n      add\n      0x01\n      dup3\n      add\n      sload\n      dup2\n      mstore\n      0x20\n      add\n      0x02\n      dup3\n      add\n      sload\n      dup2\n      mstore\n      0x20\n      add\n      0x03\n      dup3\n      add\n      0x00\n      swap1\n      sload\n      swap1\n      0x0100\n      exp\n      swap1\n      div\n      0xff\n      and\n      iszero\n      iszero\n      iszero\n      iszero\n      dup2\n      mstore\n      pop\n      pop\n      swap1\n      pop\n        /* \"contracts/BadSammyNFTStore.sol\":5250:5251  0 */\n      0x00\n        /* \"contracts/BadSammyNFTStore.sol\":5233:5252  t.nft == address(0) */\n      0xffffffffffffffffffffffffffffffffffffffff\n      and\n        /* \"contracts/BadSammyNFTStore.sol\":5233:5234  t */\n      dup2\n        /* \"contracts/BadSammyNFTStore.sol\":5233:5238  t.nft */\n      0x00\n      add\n      mload\n        /* \"contracts/BadSammyNFTStore.sol\":5233:5252  t.nft == address(0) */\n      0xffffffffffffffffffffffffffffffffffffffff\n      and\n      sub\n        /* \"contracts/BadSammyNFTStore.sol\":5229:5274  if (t.nft == address(0)) revert InvalidTier() */\n      tag_232\n      jumpi\n        /* \"contracts/BadSammyNFTStore.sol\":5261:5274  InvalidTier() */\n      mload(0x40)\n      0xe142361700000000000000000000000000000000000000000000000000000000\n      dup2\n      mstore\n      0x04\n      add\n      mload(0x40)\n      dup1\n      swap2\n      sub\n      swap1\n      revert\n        /* \"contracts/BadSammyNFTStore.sol\":5229:5274  if (t.nft == address(0)) revert InvalidTier() */\n    tag_232:\n        /* \"contracts/BadSammyNFTStore.sol\":5285:5306  IERC721Enumerable nft */\n      0x00\n        /* \"contracts/BadSammyNFTStore.sol\":5327:5328  t */\n      dup2\n        /* \"contracts/BadSammyNFTStore.sol\":5327:5332  t.nft */\n      0x00\n      add\n      mload\n        /* \"contracts/BadSammyNFTStore.sol\":5285:5333  IERC721Enumerable nft = IERC721Enumerable(t.nft) */\n      swap1\n      pop\n        /* \"contracts/BadSammyNFTStore.sol\":5343:5354  uint256 bal */\n      0x00\n        /* \"contracts/BadSammyNFTStore.sol\":5357:5360  nft */\n      dup2\n        /* \"contracts/BadSammyNFTStore.sol\":5357:5370  nft.balanceOf */\n      0xffffffffffffffffffffffffffffffffffffffff\n      and\n      0x70a08231\n        /* \"contracts/BadSammyNFTStore.sol\":5379:5383  this */\n      address\n        /* \"contracts/BadSammyNFTStore.sol\":5357:5385  nft.balanceOf(address(this)) */\n      mload(0x40)\n      dup3\n      0xffffffff\n      and\n      0xe0\n      shl\n      dup2\n      mstore\n      0x04\n      add\n      tag_233\n      swap2\n      swap1\n      tag_63\n      jump\t// in\n    tag_233:\n      0x20\n      mload(0x40)\n      dup1\n      dup4\n      sub\n      dup2\n      dup7\n      gas\n      staticcall\n      iszero\n      dup1\n      iszero\n      tag_235\n      jumpi\n      returndatacopy(0x00, 0x00, returndatasize)\n      revert(0x00, returndatasize)\n    tag_235:\n      pop\n      pop\n      pop\n      pop\n      mload(0x40)\n      returndatasize\n      not(0x1f)\n      0x1f\n      dup3\n      add\n      and\n      dup3\n      add\n      dup1\n      0x40\n      mstore\n      pop\n      dup2\n      add\n      swap1\n      tag_236\n      swap2\n      swap1\n      tag_130\n      jump\t// in\n    tag_236:\n        /* \"contracts/BadSammyNFTStore.sol\":5343:5385  uint256 bal = nft.balanceOf(address(this)) */\n      swap1\n      pop\n        /* \"contracts/BadSammyNFTStore.sol\":5411:5414  bal */\n      dup1\n        /* \"contracts/BadSammyNFTStore.sol\":5400:5408  quantity */\n      dup6\n        /* \"contracts/BadSammyNFTStore.sol\":5400:5414  quantity > bal */\n      gt\n        /* \"contracts/BadSammyNFTStore.sol\":5396:5485  if (quantity > bal) {... */\n      iszero\n      tag_237\n      jumpi\n        /* \"contracts/BadSammyNFTStore.sol\":5441:5444  bal */\n      dup1\n        /* \"contracts/BadSammyNFTStore.sol\":5430:5444  quantity = bal */\n      swap5\n      pop\n        /* \"contracts/BadSammyNFTStore.sol\":5396:5485  if (quantity > bal) {... */\n    tag_237:\n        /* \"contracts/BadSammyNFTStore.sol\":5500:5509  uint256 i */\n      0x00\n        /* \"contracts/BadSammyNFTStore.sol\":5512:5513  0 */\n      0x00\n        /* \"contracts/BadSammyNFTStore.sol\":5500:5513  uint256 i = 0 */\n      swap1\n      pop\n        /* \"contracts/BadSammyNFTStore.sol\":5495:5749  for (uint256 i = 0; i < quantity; i++) {... */\n    tag_238:\n        /* \"contracts/BadSammyNFTStore.sol\":5519:5527  quantity */\n      dup6\n        /* \"contracts/BadSammyNFTStore.sol\":5515:5516  i */\n      dup2\n        /* \"contracts/BadSammyNFTStore.sol\":5515:5527  i < quantity */\n      lt\n        /* \"contracts/BadSammyNFTStore.sol\":5495:5749  for (uint256 i = 0; i < quantity; i++) {... */\n      iszero\n      tag_239\n      jumpi\n        /* \"contracts/BadSammyNFTStore.sol\":5606:5621  uint256 tokenId */\n      0x00\n        /* \"contracts/BadSammyNFTStore.sol\":5624:5627  nft */\n      dup4\n        /* \"contracts/BadSammyNFTStore.sol\":5624:5647  nft.tokenOfOwnerByIndex */\n      0xffffffffffffffffffffffffffffffffffffffff\n      and\n      0x2f745c59\n        /* \"contracts/BadSammyNFTStore.sol\":5656:5660  this */\n      address\n        /* \"contracts/BadSammyNFTStore.sol\":5663:5664  0 */\n      0x00\n        /* \"contracts/BadSammyNFTStore.sol\":5624:5665  nft.tokenOfOwnerByIndex(address(this), 0) */\n      mload(0x40)\n      dup4\n      0xffffffff\n      and\n      0xe0\n      shl\n      dup2\n      mstore\n      0x04\n      add\n      tag_241\n      swap3\n      swap2\n      swap1\n      tag_135\n      jump\t// in\n    tag_241:\n      0x20\n      mload(0x40)\n      dup1\n      dup4\n      sub\n      dup2\n      dup7\n      gas\n      staticcall\n      iszero\n      dup1\n      iszero\n      tag_243\n      jumpi\n      returndatacopy(0x00, 0x00, returndatasize)\n      revert(0x00, returndatasize)\n    tag_243:\n      pop\n      pop\n      pop\n      pop\n      mload(0x40)\n      returndatasize\n      not(0x1f)\n      0x1f\n      dup3\n      add\n      and\n      dup3\n      add\n      dup1\n      0x40\n      mstore\n      pop\n      dup2\n      add\n      swap1\n      tag_244\n      swap2\n      swap1\n      tag_130\n      jump\t// in\n    tag_244:\n        /* \"contracts/BadSammyNFTStore.sol\":5606:5665  uint256 tokenId = nft.tokenOfOwnerByIndex(address(this), 0) */\n      swap1\n      pop\n        /* \"contracts/BadSammyNFTStore.sol\":5687:5688  t */\n      dup5\n        /* \"contracts/BadSammyNFTStore.sol\":5687:5692  t.nft */\n      0x00\n      add\n      mload\n        /* \"contracts/BadSammyNFTStore.sol\":5679:5710  IERC721(t.nft).safeTransferFrom */\n      0xffffffffffffffffffffffffffffffffffffffff\n      and\n      0x42842e0e\n        /* \"contracts/BadSammyNFTStore.sol\":5719:5723  this */\n      address\n        /* \"contracts/BadSammyNFTStore.sol\":5726:5728  to */\n      dup9\n        /* \"contracts/BadSammyNFTStore.sol\":5730:5737  tokenId */\n      dup5\n        /* \"contracts/BadSammyNFTStore.sol\":5679:5738  IERC721(t.nft).safeTransferFrom(address(this), to, tokenId) */\n      mload(0x40)\n      dup5\n      0xffffffff\n      and\n      0xe0\n      shl\n      dup2\n      mstore\n      0x04\n      add\n      tag_245\n      swap4\n      swap3\n      swap2\n      swap1\n      tag_116\n      jump\t// in\n    tag_245:\n      0x00\n      mload(0x40)\n      dup1\n      dup4\n      sub\n      dup2\n      0x00\n      dup8\n      dup1\n      extcodesize\n      iszero\n      dup1\n      iszero\n      tag_246\n      jumpi\n      revert(0x00, 0x00)\n    tag_246:\n      pop\n      gas\n      call\n      iszero\n      dup1\n      iszero\n      tag_248\n      jumpi\n      returndatacopy(0x00, 0x00, returndatasize)\n      revert(0x00, returndatasize)\n    tag_248:\n      pop\n      pop\n      pop\n      pop\n        /* \"contracts/BadSammyNFTStore.sol\":5534:5749  {... */\n      pop\n        /* \"contracts/BadSammyNFTStore.sol\":5529:5532  i++ */\n      dup1\n      dup1\n      0x01\n      add\n      swap2\n      pop\n      pop\n        /* \"contracts/BadSammyNFTStore.sol\":5495:5749  for (uint256 i = 0; i < quantity; i++) {... */\n      jump(tag_238)\n    tag_239:\n      pop\n        /* \"contracts/BadSammyNFTStore.sol\":5180:5755  {... */\n      pop\n      pop\n      pop\n        /* \"contracts/BadSammyNFTStore.sol\":5096:5755  function withdrawN(uint256 tierId, uint256 quantity, address to) external onlyOwner {... */\n      pop\n      pop\n      pop\n      jump\t// out\n        /* \"contracts/BadSammyNFTStore.sol\":1765:1928  function setTreasury(address payable _treasury) external onlyOwner {... */\n    tag_94:\n        /* \"@openzeppelin/contracts/access/Ownable.sol\":1531:1544  _checkOwner() */\n      tag_250\n        /* \"@openzeppelin/contracts/access/Ownable.sol\":1531:1542  _checkOwner */\n      tag_102\n        /* \"@openzeppelin/contracts/access/Ownable.sol\":1531:1544  _checkOwner() */\n      jump\t// in\n    tag_250:\n        /* \"contracts/BadSammyNFTStore.sol\":1867:1868  0 */\n      0x00\n        /* \"contracts/BadSammyNFTStore.sol\":1846:1869  _treasury == address(0) */\n      0xffffffffffffffffffffffffffffffffffffffff\n      and\n        /* \"contracts/BadSammyNFTStore.sol\":1846:1855  _treasury */\n      dup2\n        /* \"contracts/BadSammyNFTStore.sol\":1846:1869  _treasury == address(0) */\n      0xffffffffffffffffffffffffffffffffffffffff\n      and\n      sub\n        /* \"contracts/BadSammyNFTStore.sol\":1842:1891  if (_treasury == address(0)) revert ZeroAddress() */\n      tag_252\n      jumpi\n        /* \"contracts/BadSammyNFTStore.sol\":1878:1891  ZeroAddress() */\n      mload(0x40)\n      0xd92e233d00000000000000000000000000000000000000000000000000000000\n      dup2\n      mstore\n      0x04\n      add\n      mload(0x40)\n      dup1\n      swap2\n      sub\n      swap1\n      revert\n        /* \"contracts/BadSammyNFTStore.sol\":1842:1891  if (_treasury == address(0)) revert ZeroAddress() */\n    tag_252:\n        /* \"contracts/BadSammyNFTStore.sol\":1912:1921  _treasury */\n      dup1\n        /* \"contracts/BadSammyNFTStore.sol\":1901:1909  treasury */\n      0x03\n      0x00\n        /* \"contracts/BadSammyNFTStore.sol\":1901:1921  treasury = _treasury */\n      0x0100\n      exp\n      dup2\n      sload\n      dup2\n      0xffffffffffffffffffffffffffffffffffffffff\n      mul\n      not\n      and\n      swap1\n      dup4\n      0xffffffffffffffffffffffffffffffffffffffff\n      and\n      mul\n      or\n      swap1\n      sstore\n      pop\n        /* \"contracts/BadSammyNFTStore.sol\":1765:1928  function setTreasury(address payable _treasury) external onlyOwner {... */\n      pop\n      jump\t// out\n        /* \"@openzeppelin/contracts/access/Ownable.sol\":2543:2758  function transferOwnership(address newOwner) public virtual onlyOwner {... */\n    tag_99:\n        /* \"@openzeppelin/contracts/access/Ownable.sol\":1531:1544  _checkOwner() */\n      tag_254\n        /* \"@openzeppelin/contracts/access/Ownable.sol\":1531:1542  _checkOwner */\n      tag_102\n        /* \"@openzeppelin/contracts/access/Ownable.sol\":1531:1544  _checkOwner() */\n      jump\t// in\n    tag_254:\n        /* \"@openzeppelin/contracts/access/Ownable.sol\":2647:2648  0 */\n      0x00\n        /* \"@openzeppelin/contracts/access/Ownable.sol\":2627:2649  newOwner == address(0) */\n      0xffffffffffffffffffffffffffffffffffffffff\n      and\n        /* \"@openzeppelin/contracts/access/Ownable.sol\":2627:2635  newOwner */\n      dup2\n        /* \"@openzeppelin/contracts/access/Ownable.sol\":2627:2649  newOwner == address(0) */\n      0xffffffffffffffffffffffffffffffffffffffff\n      and\n      sub\n        /* \"@openzeppelin/contracts/access/Ownable.sol\":2623:2714  if (newOwner == address(0)) {... */\n      tag_256\n      jumpi\n        /* \"@openzeppelin/contracts/access/Ownable.sol\":2700:2701  0 */\n      0x00\n        /* \"@openzeppelin/contracts/access/Ownable.sol\":2672:2703  OwnableInvalidOwner(address(0)) */\n      mload(0x40)\n      0x1e4fbdf700000000000000000000000000000000000000000000000000000000\n      dup2\n      mstore\n      0x04\n      add\n      tag_257\n      swap2\n      swap1\n      tag_63\n      jump\t// in\n    tag_257:\n      mload(0x40)\n      dup1\n      swap2\n      sub\n      swap1\n      revert\n        /* \"@openzeppelin/contracts/access/Ownable.sol\":2623:2714  if (newOwner == address(0)) {... */\n    tag_256:\n        /* \"@openzeppelin/contracts/access/Ownable.sol\":2723:2751  _transferOwnership(newOwner) */\n      tag_258\n        /* \"@openzeppelin/contracts/access/Ownable.sol\":2742:2750  newOwner */\n      dup2\n        /* \"@openzeppelin/contracts/access/Ownable.sol\":2723:2741  _transferOwnership */\n      tag_160\n        /* \"@openzeppelin/contracts/access/Ownable.sol\":2723:2751  _transferOwnership(newOwner) */\n      jump\t// in\n    tag_258:\n        /* \"@openzeppelin/contracts/access/Ownable.sol\":2543:2758  function transferOwnership(address newOwner) public virtual onlyOwner {... */\n      pop\n      jump\t// out\n        /* \"@openzeppelin/contracts/access/Ownable.sol\":1796:1958  function _checkOwner() internal view virtual {... */\n    tag_102:\n        /* \"@openzeppelin/contracts/access/Ownable.sol\":1866:1878  _msgSender() */\n      tag_260\n        /* \"@openzeppelin/contracts/access/Ownable.sol\":1866:1876  _msgSender */\n      tag_261\n        /* \"@openzeppelin/contracts/access/Ownable.sol\":1866:1878  _msgSender() */\n      jump\t// in\n    tag_260:\n        /* \"@openzeppelin/contracts/access/Ownable.sol\":1855:1878  owner() != _msgSender() */\n      0xffffffffffffffffffffffffffffffffffffffff\n      and\n        /* \"@openzeppelin/contracts/access/Ownable.sol\":1855:1862  owner() */\n      tag_262\n        /* \"@openzeppelin/contracts/access/Ownable.sol\":1855:1860  owner */\n      tag_61\n        /* \"@openzeppelin/contracts/access/Ownable.sol\":1855:1862  owner() */\n      jump\t// in\n    tag_262:\n        /* \"@openzeppelin/contracts/access/Ownable.sol\":1855:1878  owner() != _msgSender() */\n      0xffffffffffffffffffffffffffffffffffffffff\n      and\n      eq\n        /* \"@openzeppelin/contracts/access/Ownable.sol\":1851:1952  if (owner() != _msgSender()) {... */\n      tag_263\n      jumpi\n        /* \"@openzeppelin/contracts/access/Ownable.sol\":1928:1940  _msgSender() */\n      tag_264\n        /* \"@openzeppelin/contracts/access/Ownable.sol\":1928:1938  _msgSender */\n      tag_261\n        /* \"@openzeppelin/contracts/access/Ownable.sol\":1928:1940  _msgSender() */\n      jump\t// in\n    tag_264:\n        /* \"@openzeppelin/contracts/access/Ownable.sol\":1901:1941  OwnableUnauthorizedAccount(_msgSender()) */\n      mload(0x40)\n      0x118cdaa700000000000000000000000000000000000000000000000000000000\n      dup2\n      mstore\n      0x04\n      add\n      tag_265\n      swap2\n      swap1\n      tag_63\n      jump\t// in\n    tag_265:\n      mload(0x40)\n      dup1\n      swap2\n      sub\n      swap1\n      revert\n        /* \"@openzeppelin/contracts/access/Ownable.sol\":1851:1952  if (owner() != _msgSender()) {... */\n    tag_263:\n        /* \"@openzeppelin/contracts/access/Ownable.sol\":1796:1958  function _checkOwner() internal view virtual {... */\n      jump\t// out\n        /* \"@openzeppelin/contracts/access/Ownable.sol\":2912:3099  function _transferOwnership(address newOwner) internal virtual {... */\n    tag_160:\n        /* \"@openzeppelin/contracts/access/Ownable.sol\":2985:3001  address oldOwner */\n      0x00\n        /* \"@openzeppelin/contracts/access/Ownable.sol\":3004:3010  _owner */\n      0x01\n      0x00\n      swap1\n      sload\n      swap1\n      0x0100\n      exp\n      swap1\n      div\n      0xffffffffffffffffffffffffffffffffffffffff\n      and\n        /* \"@openzeppelin/contracts/access/Ownable.sol\":2985:3010  address oldOwner = _owner */\n      swap1\n      pop\n        /* \"@openzeppelin/contracts/access/Ownable.sol\":3029:3037  newOwner */\n      dup2\n        /* \"@openzeppelin/contracts/access/Ownable.sol\":3020:3026  _owner */\n      0x01\n      0x00\n        /* \"@openzeppelin/contracts/access/Ownable.sol\":3020:3037  _owner = newOwner */\n      0x0100\n      exp\n      dup2\n      sload\n      dup2\n      0xffffffffffffffffffffffffffffffffffffffff\n      mul\n      not\n      and\n      swap1\n      dup4\n      0xffffffffffffffffffffffffffffffffffffffff\n      and\n      mul\n      or\n      swap1\n      sstore\n      pop\n        /* \"@openzeppelin/contracts/access/Ownable.sol\":3083:3091  newOwner */\n      dup2\n        /* \"@openzeppelin/contracts/access/Ownable.sol\":3052:3092  OwnershipTransferred(oldOwner, newOwner) */\n      0xffffffffffffffffffffffffffffffffffffffff\n      and\n        /* \"@openzeppelin/contracts/access/Ownable.sol\":3073:3081  oldOwner */\n      dup2\n        /* \"@openzeppelin/contracts/access/Ownable.sol\":3052:3092  OwnershipTransferred(oldOwner, newOwner) */\n      0xffffffffffffffffffffffffffffffffffffffff\n      and\n      0x8be0079c531659141344cd1fd0a4f28419497f9722a3daafe3b4186f6b6457e0\n      mload(0x40)\n      mload(0x40)\n      dup1\n      swap2\n      sub\n      swap1\n      log3\n        /* \"@openzeppelin/contracts/access/Ownable.sol\":2975:3099  {... */\n      pop\n        /* \"@openzeppelin/contracts/access/Ownable.sol\":2912:3099  function _transferOwnership(address newOwner) internal virtual {... */\n      pop\n      jump\t// out\n        /* \"@openzeppelin/contracts/security/ReentrancyGuard.sol\":2336:2623  function _nonReentrantBefore() private {... */\n    tag_164:\n        /* \"@openzeppelin/contracts/security/ReentrancyGuard.sol\":1759:1760  2 */\n      0x02\n        /* \"@openzeppelin/contracts/security/ReentrancyGuard.sol\":2468:2475  _status */\n      sload(0x00)\n        /* \"@openzeppelin/contracts/security/ReentrancyGuard.sol\":2468:2487  _status != _ENTERED */\n      sub\n        /* \"@openzeppelin/contracts/security/ReentrancyGuard.sol\":2460:2523  require(_status != _ENTERED, \"ReentrancyGuard: reentrant call\") */\n      tag_268\n      jumpi\n      mload(0x40)\n      0x08c379a000000000000000000000000000000000000000000000000000000000\n      dup2\n      mstore\n      0x04\n      add\n      tag_269\n      swap1\n      tag_270\n      jump\t// in\n    tag_269:\n      mload(0x40)\n      dup1\n      swap2\n      sub\n      swap1\n      revert\n    tag_268:\n        /* \"@openzeppelin/contracts/security/ReentrancyGuard.sol\":1759:1760  2 */\n      0x02\n        /* \"@openzeppelin/contracts/security/ReentrancyGuard.sol\":2598:2605  _status */\n      0x00\n        /* \"@openzeppelin/contracts/security/ReentrancyGuard.sol\":2598:2616  _status = _ENTERED */\n      dup2\n      swap1\n      sstore\n      pop\n        /* \"@openzeppelin/contracts/security/ReentrancyGuard.sol\":2336:2623  function _nonReentrantBefore() private {... */\n      jump\t// out\n        /* \"contracts/BadSammyNFTStore.sol\":2270:2545  function _nextToken(address nft) internal view returns (uint256) {... */\n    tag_171:\n        /* \"contracts/BadSammyNFTStore.sol\":2326:2333  uint256 */\n      0x00\n        /* \"contracts/BadSammyNFTStore.sol\":2345:2365  IERC721Enumerable en */\n      0x00\n        /* \"contracts/BadSammyNFTStore.sol\":2386:2389  nft */\n      dup3\n        /* \"contracts/BadSammyNFTStore.sol\":2345:2390  IERC721Enumerable en = IERC721Enumerable(nft) */\n      swap1\n      pop\n        /* \"contracts/BadSammyNFTStore.sol\":2400:2411  uint256 bal */\n      0x00\n        /* \"contracts/BadSammyNFTStore.sol\":2414:2416  en */\n      dup2\n        /* \"contracts/BadSammyNFTStore.sol\":2414:2426  en.balanceOf */\n      0xffffffffffffffffffffffffffffffffffffffff\n      and\n      0x70a08231\n        /* \"contracts/BadSammyNFTStore.sol\":2435:2439  this */\n      address\n        /* \"contracts/BadSammyNFTStore.sol\":2414:2441  en.balanceOf(address(this)) */\n      mload(0x40)\n      dup3\n      0xffffffff\n      and\n      0xe0\n      shl\n      dup2\n      mstore\n      0x04\n      add\n      tag_272\n      swap2\n      swap1\n      tag_63\n      jump\t// in\n    tag_272:\n      0x20\n      mload(0x40)\n      dup1\n      dup4\n      sub\n      dup2\n      dup7\n      gas\n      staticcall\n      iszero\n      dup1\n      iszero\n      tag_274\n      jumpi\n      returndatacopy(0x00, 0x00, returndatasize)\n      revert(0x00, returndatasize)\n    tag_274:\n      pop\n      pop\n      pop\n      pop\n      mload(0x40)\n      returndatasize\n      not(0x1f)\n      0x1f\n      dup3\n      add\n      and\n      dup3\n      add\n      dup1\n      0x40\n      mstore\n      pop\n      dup2\n      add\n      swap1\n      tag_275\n      swap2\n      swap1\n      tag_130\n      jump\t// in\n    tag_275:\n        /* \"contracts/BadSammyNFTStore.sol\":2400:2441  uint256 bal = en.balanceOf(address(this)) */\n      swap1\n      pop\n        /* \"contracts/BadSammyNFTStore.sol\":2462:2463  0 */\n      0x00\n        /* \"contracts/BadSammyNFTStore.sol\":2455:2458  bal */\n      dup2\n        /* \"contracts/BadSammyNFTStore.sol\":2455:2463  bal == 0 */\n      sub\n        /* \"contracts/BadSammyNFTStore.sol\":2451:2481  if (bal == 0) revert SoldOut() */\n      tag_276\n      jumpi\n        /* \"contracts/BadSammyNFTStore.sol\":2472:2481  SoldOut() */\n      mload(0x40)\n      0x52df9fe500000000000000000000000000000000000000000000000000000000\n      dup2\n      mstore\n      0x04\n      add\n      mload(0x40)\n      dup1\n      swap2\n      sub\n      swap1\n      revert\n        /* \"contracts/BadSammyNFTStore.sol\":2451:2481  if (bal == 0) revert SoldOut() */\n    tag_276:\n        /* \"contracts/BadSammyNFTStore.sol\":2498:2500  en */\n      dup2\n        /* \"contracts/BadSammyNFTStore.sol\":2498:2520  en.tokenOfOwnerByIndex */\n      0xffffffffffffffffffffffffffffffffffffffff\n      and\n      0x2f745c59\n        /* \"contracts/BadSammyNFTStore.sol\":2529:2533  this */\n      address\n        /* \"contracts/BadSammyNFTStore.sol\":2536:2537  0 */\n      0x00\n        /* \"contracts/BadSammyNFTStore.sol\":2498:2538  en.tokenOfOwnerByIndex(address(this), 0) */\n      mload(0x40)\n      dup4\n      0xffffffff\n      and\n      0xe0\n      shl\n      dup2\n      mstore\n      0x04\n      add\n      tag_277\n      swap3\n      swap2\n      swap1\n      tag_135\n      jump\t// in\n    tag_277:\n      0x20\n      mload(0x40)\n      dup1\n      dup4\n      sub\n      dup2\n      dup7\n      gas\n      staticcall\n      iszero\n      dup1\n      iszero\n      tag_279\n      jumpi\n      returndatacopy(0x00, 0x00, returndatasize)\n      revert(0x00, returndatasize)\n    tag_279:\n      pop\n      pop\n      pop\n      pop\n      mload(0x40)\n      returndatasize\n      not(0x1f)\n      0x1f\n      dup3\n      add\n      and\n      dup3\n      add\n      dup1\n      0x40\n      mstore\n      pop\n      dup2\n      add\n      swap1\n      tag_280\n      swap2\n      swap1\n      tag_130\n      jump\t// in\n    tag_280:\n        /* \"contracts/BadSammyNFTStore.sol\":2491:2538  return en.tokenOfOwnerByIndex(address(this), 0) */\n      swap3\n      pop\n      pop\n      pop\n        /* \"contracts/BadSammyNFTStore.sol\":2270:2545  function _nextToken(address nft) internal view returns (uint256) {... */\n      swap2\n      swap1\n      pop\n      jump\t// out\n        /* \"@openzeppelin/contracts/security/ReentrancyGuard.sol\":2629:2838  function _nonReentrantAfter() private {... */\n    tag_185:\n        /* \"@openzeppelin/contracts/security/ReentrancyGuard.sol\":1716:1717  1 */\n      0x01\n        /* \"@openzeppelin/contracts/security/ReentrancyGuard.sol\":2809:2816  _status */\n      0x00\n        /* \"@openzeppelin/contracts/security/ReentrancyGuard.sol\":2809:2831  _status = _NOT_ENTERED */\n      dup2\n      swap1\n      sstore\n      pop\n        /* \"@openzeppelin/contracts/security/ReentrancyGuard.sol\":2629:2838  function _nonReentrantAfter() private {... */\n      jump\t// out\n        /* \"@openzeppelin/contracts/token/ERC20/utils/SafeERC20.sol\":1618:1806  function safeTransferFrom(IERC20 token, address from, address to, uint256 value) internal {... */\n    tag_202:\n        /* \"@openzeppelin/contracts/token/ERC20/utils/SafeERC20.sol\":1718:1799  _callOptionalReturn(token, abi.encodeCall(token.transferFrom, (from, to, value))) */\n      tag_283\n        /* \"@openzeppelin/contracts/token/ERC20/utils/SafeERC20.sol\":1738:1743  token */\n      dup5\n        /* \"@openzeppelin/contracts/token/ERC20/utils/SafeERC20.sol\":1760:1765  token */\n      dup6\n        /* \"@openzeppelin/contracts/token/ERC20/utils/SafeERC20.sol\":1760:1778  token.transferFrom */\n      0xffffffffffffffffffffffffffffffffffffffff\n      and\n      0x23b872dd\n        /* \"@openzeppelin/contracts/token/ERC20/utils/SafeERC20.sol\":1781:1785  from */\n      dup7\n        /* \"@openzeppelin/contracts/token/ERC20/utils/SafeERC20.sol\":1787:1789  to */\n      dup7\n        /* \"@openzeppelin/contracts/token/ERC20/utils/SafeERC20.sol\":1791:1796  value */\n      dup7\n        /* \"@openzeppelin/contracts/token/ERC20/utils/SafeERC20.sol\":1745:1798  abi.encodeCall(token.transferFrom, (from, to, value)) */\n      add(0x24, mload(0x40))\n      tag_284\n      swap4\n      swap3\n      swap2\n      swap1\n      tag_116\n      jump\t// in\n    tag_284:\n      mload(0x40)\n      0x20\n      dup2\n      dup4\n      sub\n      sub\n      dup2\n      mstore\n      swap1\n      0x40\n      mstore\n      swap2\n      pop\n      0xe0\n      shl\n      0x20\n      dup3\n      add\n      dup1\n      mload\n      0xffffffffffffffffffffffffffffffffffffffffffffffffffffffff\n      dup4\n      dup2\n      dup4\n      and\n      or\n      dup4\n      mstore\n      pop\n      pop\n      pop\n      pop\n        /* \"@openzeppelin/contracts/token/ERC20/utils/SafeERC20.sol\":1718:1737  _callOptionalReturn */\n      tag_285\n        /* \"@openzeppelin/contracts/token/ERC20/utils/SafeERC20.sol\":1718:1799  _callOptionalReturn(token, abi.encodeCall(token.transferFrom, (from, to, value))) */\n      jump\t// in\n    tag_283:\n        /* \"@openzeppelin/contracts/token/ERC20/utils/SafeERC20.sol\":1618:1806  function safeTransferFrom(IERC20 token, address from, address to, uint256 value) internal {... */\n      pop\n      pop\n      pop\n      pop\n      jump\t// out\n        /* \"@openzeppelin/contracts/token/ERC20/utils/SafeERC20.sol\":1219:1379  function safeTransfer(IERC20 token, address to, uint256 value) internal {... */\n    tag_204:\n        /* \"@openzeppelin/contracts/token/ERC20/utils/SafeERC20.sol\":1301:1372  _callOptionalReturn(token, abi.encodeCall(token.transfer, (to, value))) */\n      tag_287\n        /* \"@openzeppelin/contracts/token/ERC20/utils/SafeERC20.sol\":1321:1326  token */\n      dup4\n        /* \"@openzeppelin/contracts/token/ERC20/utils/SafeERC20.sol\":1343:1348  token */\n      dup5\n        /* \"@openzeppelin/contracts/token/ERC20/utils/SafeERC20.sol\":1343:1357  token.transfer */\n      0xffffffffffffffffffffffffffffffffffffffff\n      and\n      0xa9059cbb\n        /* \"@openzeppelin/contracts/token/ERC20/utils/SafeERC20.sol\":1360:1362  to */\n      dup6\n        /* \"@openzeppelin/contracts/token/ERC20/utils/SafeERC20.sol\":1364:1369  value */\n      dup6\n        /* \"@openzeppelin/contracts/token/ERC20/utils/SafeERC20.sol\":1328:1371  abi.encodeCall(token.transfer, (to, value)) */\n      add(0x24, mload(0x40))\n      tag_288\n      swap3\n      swap2\n      swap1\n      tag_151\n      jump\t// in\n    tag_288:\n      mload(0x40)\n      0x20\n      dup2\n      dup4\n      sub\n      sub\n      dup2\n      mstore\n      swap1\n      0x40\n      mstore\n      swap2\n      pop\n      0xe0\n      shl\n      0x20\n      dup3\n      add\n      dup1\n      mload\n      0xffffffffffffffffffffffffffffffffffffffffffffffffffffffff\n      dup4\n      dup2\n      dup4\n      and\n      or\n      dup4\n      mstore\n      pop\n      pop\n      pop\n      pop\n        /* \"@openzeppelin/contracts/token/ERC20/utils/SafeERC20.sol\":1301:1320  _callOptionalReturn */\n      tag_285\n        /* \"@openzeppelin/contracts/token/ERC20/utils/SafeERC20.sol\":1301:1372  _callOptionalReturn(token, abi.encodeCall(token.transfer, (to, value))) */\n      jump\t// in\n    tag_287:\n        /* \"@openzeppelin/contracts/token/ERC20/utils/SafeERC20.sol\":1219:1379  function safeTransfer(IERC20 token, address to, uint256 value) internal {... */\n      pop\n      pop\n      pop\n      jump\t// out\n        /* \"@openzeppelin/contracts/utils/Context.sol\":656:752  function _msgSender() internal view virtual returns (address) {... */\n    tag_261:\n        /* \"@openzeppelin/contracts/utils/Context.sol\":709:716  address */\n      0x00\n        /* \"@openzeppelin/contracts/utils/Context.sol\":735:745  msg.sender */\n      caller\n        /* \"@openzeppelin/contracts/utils/Context.sol\":728:745  return msg.sender */\n      swap1\n      pop\n        /* \"@openzeppelin/contracts/utils/Context.sol\":656:752  function _msgSender() internal view virtual returns (address) {... */\n      swap1\n      jump\t// out\n        /* \"@openzeppelin/contracts/token/ERC20/utils/SafeERC20.sol\":8370:9090  function _callOptionalReturn(IERC20 token, bytes memory data) private {... */\n    tag_285:\n        /* \"@openzeppelin/contracts/token/ERC20/utils/SafeERC20.sol\":8450:8468  uint256 returnSize */\n      0x00\n        /* \"@openzeppelin/contracts/token/ERC20/utils/SafeERC20.sol\":8478:8497  uint256 returnValue */\n      0x00\n        /* \"@openzeppelin/contracts/token/ERC20/utils/SafeERC20.sol\":8616:8620  0x20 */\n      0x20\n        /* \"@openzeppelin/contracts/token/ERC20/utils/SafeERC20.sol\":8613:8614  0 */\n      0x00\n        /* \"@openzeppelin/contracts/token/ERC20/utils/SafeERC20.sol\":8606:8610  data */\n      dup5\n        /* \"@openzeppelin/contracts/token/ERC20/utils/SafeERC20.sol\":8600:8611  mload(data) */\n      mload\n        /* \"@openzeppelin/contracts/token/ERC20/utils/SafeERC20.sol\":8593:8597  0x20 */\n      0x20\n        /* \"@openzeppelin/contracts/token/ERC20/utils/SafeERC20.sol\":8587:8591  data */\n      dup7\n        /* \"@openzeppelin/contracts/token/ERC20/utils/SafeERC20.sol\":8583:8598  add(data, 0x20) */\n      add\n        /* \"@openzeppelin/contracts/token/ERC20/utils/SafeERC20.sol\":8580:8581  0 */\n      0x00\n        /* \"@openzeppelin/contracts/token/ERC20/utils/SafeERC20.sol\":8573:8578  token */\n      dup9\n        /* \"@openzeppelin/contracts/token/ERC20/utils/SafeERC20.sol\":8566:8571  gas() */\n      gas\n        /* \"@openzeppelin/contracts/token/ERC20/utils/SafeERC20.sol\":8561:8621  call(gas(), token, 0, add(data, 0x20), mload(data), 0, 0x20) */\n      call\n        /* \"@openzeppelin/contracts/token/ERC20/utils/SafeERC20.sol\":8673:8680  success */\n      dup1\n        /* \"@openzeppelin/contracts/token/ERC20/utils/SafeERC20.sol\":8663:8839  if iszero(success) {... */\n      tag_291\n      jumpi\n        /* \"@openzeppelin/contracts/token/ERC20/utils/SafeERC20.sol\":8717:8721  0x40 */\n      0x40\n        /* \"@openzeppelin/contracts/token/ERC20/utils/SafeERC20.sol\":8711:8722  mload(0x40) */\n      mload\n        /* \"@openzeppelin/contracts/token/ERC20/utils/SafeERC20.sol\":8762:8778  returndatasize() */\n      returndatasize\n        /* \"@openzeppelin/contracts/token/ERC20/utils/SafeERC20.sol\":8759:8760  0 */\n      0x00\n        /* \"@openzeppelin/contracts/token/ERC20/utils/SafeERC20.sol\":8754:8757  ptr */\n      dup3\n        /* \"@openzeppelin/contracts/token/ERC20/utils/SafeERC20.sol\":8739:8779  returndatacopy(ptr, 0, returndatasize()) */\n      returndatacopy\n        /* \"@openzeppelin/contracts/token/ERC20/utils/SafeERC20.sol\":8808:8824  returndatasize() */\n      returndatasize\n        /* \"@openzeppelin/contracts/token/ERC20/utils/SafeERC20.sol\":8803:8806  ptr */\n      dup2\n        /* \"@openzeppelin/contracts/token/ERC20/utils/SafeERC20.sol\":8796:8825  revert(ptr, returndatasize()) */\n      revert\n        /* \"@openzeppelin/contracts/token/ERC20/utils/SafeERC20.sol\":8663:8839  if iszero(success) {... */\n    tag_291:\n        /* \"@openzeppelin/contracts/token/ERC20/utils/SafeERC20.sol\":8866:8882  returndatasize() */\n      returndatasize\n        /* \"@openzeppelin/contracts/token/ERC20/utils/SafeERC20.sol\":8852:8882  returnSize := returndatasize() */\n      swap3\n      pop\n        /* \"@openzeppelin/contracts/token/ERC20/utils/SafeERC20.sol\":8916:8917  0 */\n      0x00\n        /* \"@openzeppelin/contracts/token/ERC20/utils/SafeERC20.sol\":8910:8918  mload(0) */\n      mload\n        /* \"@openzeppelin/contracts/token/ERC20/utils/SafeERC20.sol\":8895:8918  returnValue := mload(0) */\n      swap2\n      pop\n        /* \"@openzeppelin/contracts/token/ERC20/utils/SafeERC20.sol\":8532:8928  {... */\n      pop\n        /* \"@openzeppelin/contracts/token/ERC20/utils/SafeERC20.sol\":8956:8957  0 */\n      0x00\n        /* \"@openzeppelin/contracts/token/ERC20/utils/SafeERC20.sol\":8942:8952  returnSize */\n      dup3\n        /* \"@openzeppelin/contracts/token/ERC20/utils/SafeERC20.sol\":8942:8957  returnSize == 0 */\n      eq\n        /* \"@openzeppelin/contracts/token/ERC20/utils/SafeERC20.sol\":8942:9010  returnSize == 0 ? address(token).code.length == 0 : returnValue != 1 */\n      tag_292\n      jumpi\n        /* \"@openzeppelin/contracts/token/ERC20/utils/SafeERC20.sol\":9009:9010  1 */\n      0x01\n        /* \"@openzeppelin/contracts/token/ERC20/utils/SafeERC20.sol\":8994:9005  returnValue */\n      dup2\n        /* \"@openzeppelin/contracts/token/ERC20/utils/SafeERC20.sol\":8994:9010  returnValue != 1 */\n      eq\n      iszero\n        /* \"@openzeppelin/contracts/token/ERC20/utils/SafeERC20.sol\":8942:9010  returnSize == 0 ? address(token).code.length == 0 : returnValue != 1 */\n      jump(tag_293)\n    tag_292:\n        /* \"@openzeppelin/contracts/token/ERC20/utils/SafeERC20.sol\":8990:8991  0 */\n      0x00\n        /* \"@openzeppelin/contracts/token/ERC20/utils/SafeERC20.sol\":8968:8973  token */\n      dup5\n        /* \"@openzeppelin/contracts/token/ERC20/utils/SafeERC20.sol\":8960:8986  address(token).code.length */\n      0xffffffffffffffffffffffffffffffffffffffff\n      and\n      extcodesize\n        /* \"@openzeppelin/contracts/token/ERC20/utils/SafeERC20.sol\":8960:8991  address(token).code.length == 0 */\n      eq\n        /* \"@openzeppelin/contracts/token/ERC20/utils/SafeERC20.sol\":8942:9010  returnSize == 0 ? address(token).code.length == 0 : returnValue != 1 */\n    tag_293:\n        /* \"@openzeppelin/contracts/token/ERC20/utils/SafeERC20.sol\":8938:9084  if (returnSize == 0 ? address(token).code.length == 0 : returnValue != 1) {... */\n      iszero\n      tag_294\n      jumpi\n        /* \"@openzeppelin/contracts/token/ERC20/utils/SafeERC20.sol\":9066:9071  token */\n      dup4\n        /* \"@openzeppelin/contracts/token/ERC20/utils/SafeERC20.sol\":9033:9073  SafeERC20FailedOperation(address(token)) */\n      mload(0x40)\n      0x5274afe700000000000000000000000000000000000000000000000000000000\n      dup2\n      mstore\n      0x04\n      add\n      tag_295\n      swap2\n      swap1\n      tag_63\n      jump\t// in\n    tag_295:\n      mload(0x40)\n      dup1\n      swap2\n      sub\n      swap1\n      revert\n        /* \"@openzeppelin/contracts/token/ERC20/utils/SafeERC20.sol\":8938:9084  if (returnSize == 0 ? address(token).code.length == 0 : returnValue != 1) {... */\n    tag_294:\n        /* \"@openzeppelin/contracts/token/ERC20/utils/SafeERC20.sol\":8440:9090  {... */\n      pop\n      pop\n        /* \"@openzeppelin/contracts/token/ERC20/utils/SafeERC20.sol\":8370:9090  function _callOptionalReturn(IERC20 token, bytes memory data) private {... */\n      pop\n      pop\n      jump\t// out\n        /* \"#utility.yul\":88:205   */\n    tag_297:\n        /* \"#utility.yul\":197:198   */\n      0x00\n        /* \"#utility.yul\":194:195   */\n      0x00\n        /* \"#utility.yul\":187:199   */\n      revert\n        /* \"#utility.yul\":334:411   */\n    tag_299:\n        /* \"#utility.yul\":371:378   */\n      0x00\n        /* \"#utility.yul\":400:405   */\n      dup2\n        /* \"#utility.yul\":389:405   */\n      swap1\n      pop\n        /* \"#utility.yul\":334:411   */\n      swap2\n      swap1\n      pop\n      jump\t// out\n        /* \"#utility.yul\":417:539   */\n    tag_300:\n        /* \"#utility.yul\":490:514   */\n      tag_352\n        /* \"#utility.yul\":508:513   */\n      dup2\n        /* \"#utility.yul\":490:514   */\n      tag_299\n      jump\t// in\n    tag_352:\n        /* \"#utility.yul\":483:488   */\n      dup2\n        /* \"#utility.yul\":480:515   */\n      eq\n        /* \"#utility.yul\":470:533   */\n      tag_353\n      jumpi\n        /* \"#utility.yul\":529:530   */\n      0x00\n        /* \"#utility.yul\":526:527   */\n      0x00\n        /* \"#utility.yul\":519:531   */\n      revert\n        /* \"#utility.yul\":470:533   */\n    tag_353:\n        /* \"#utility.yul\":417:539   */\n      pop\n      jump\t// out\n        /* \"#utility.yul\":545:684   */\n    tag_301:\n        /* \"#utility.yul\":591:596   */\n      0x00\n        /* \"#utility.yul\":629:635   */\n      dup2\n        /* \"#utility.yul\":616:636   */\n      calldataload\n        /* \"#utility.yul\":607:636   */\n      swap1\n      pop\n        /* \"#utility.yul\":645:678   */\n      tag_355\n        /* \"#utility.yul\":672:677   */\n      dup2\n        /* \"#utility.yul\":645:678   */\n      tag_300\n      jump\t// in\n    tag_355:\n        /* \"#utility.yul\":545:684   */\n      swap3\n      swap2\n      pop\n      pop\n      jump\t// out\n        /* \"#utility.yul\":690:1019   */\n    tag_27:\n        /* \"#utility.yul\":749:755   */\n      0x00\n        /* \"#utility.yul\":798:800   */\n      0x20\n        /* \"#utility.yul\":786:795   */\n      dup3\n        /* \"#utility.yul\":777:784   */\n      dup5\n        /* \"#utility.yul\":773:796   */\n      sub\n        /* \"#utility.yul\":769:801   */\n      slt\n        /* \"#utility.yul\":766:885   */\n      iszero\n      tag_357\n      jumpi\n        /* \"#utility.yul\":804:883   */\n      tag_358\n      tag_297\n      jump\t// in\n    tag_358:\n        /* \"#utility.yul\":766:885   */\n    tag_357:\n        /* \"#utility.yul\":924:925   */\n      0x00\n        /* \"#utility.yul\":949:1002   */\n      tag_359\n        /* \"#utility.yul\":994:1001   */\n      dup5\n        /* \"#utility.yul\":985:991   */\n      dup3\n        /* \"#utility.yul\":974:983   */\n      dup6\n        /* \"#utility.yul\":970:992   */\n      add\n        /* \"#utility.yul\":949:1002   */\n      tag_301\n      jump\t// in\n    tag_359:\n        /* \"#utility.yul\":939:1002   */\n      swap2\n      pop\n        /* \"#utility.yul\":895:1012   */\n      pop\n        /* \"#utility.yul\":690:1019   */\n      swap3\n      swap2\n      pop\n      pop\n      jump\t// out\n        /* \"#utility.yul\":1025:1151   */\n    tag_302:\n        /* \"#utility.yul\":1062:1069   */\n      0x00\n        /* \"#utility.yul\":1102:1144   */\n      0xffffffffffffffffffffffffffffffffffffffff\n        /* \"#utility.yul\":1095:1100   */\n      dup3\n        /* \"#utility.yul\":1091:1145   */\n      and\n        /* \"#utility.yul\":1080:1145   */\n      swap1\n      pop\n        /* \"#utility.yul\":1025:1151   */\n      swap2\n      swap1\n      pop\n      jump\t// out\n        /* \"#utility.yul\":1157:1253   */\n    tag_303:\n        /* \"#utility.yul\":1194:1201   */\n      0x00\n        /* \"#utility.yul\":1223:1247   */\n      tag_362\n        /* \"#utility.yul\":1241:1246   */\n      dup3\n        /* \"#utility.yul\":1223:1247   */\n      tag_302\n      jump\t// in\n    tag_362:\n        /* \"#utility.yul\":1212:1247   */\n      swap1\n      pop\n        /* \"#utility.yul\":1157:1253   */\n      swap2\n      swap1\n      pop\n      jump\t// out\n        /* \"#utility.yul\":1259:1377   */\n    tag_304:\n        /* \"#utility.yul\":1346:1370   */\n      tag_364\n        /* \"#utility.yul\":1364:1369   */\n      dup2\n        /* \"#utility.yul\":1346:1370   */\n      tag_303\n      jump\t// in\n    tag_364:\n        /* \"#utility.yul\":1341:1344   */\n      dup3\n        /* \"#utility.yul\":1334:1371   */\n      mstore\n        /* \"#utility.yul\":1259:1377   */\n      pop\n      pop\n      jump\t// out\n        /* \"#utility.yul\":1383:1501   */\n    tag_305:\n        /* \"#utility.yul\":1470:1494   */\n      tag_366\n        /* \"#utility.yul\":1488:1493   */\n      dup2\n        /* \"#utility.yul\":1470:1494   */\n      tag_299\n      jump\t// in\n    tag_366:\n        /* \"#utility.yul\":1465:1468   */\n      dup3\n        /* \"#utility.yul\":1458:1495   */\n      mstore\n        /* \"#utility.yul\":1383:1501   */\n      pop\n      pop\n      jump\t// out\n        /* \"#utility.yul\":1507:1597   */\n    tag_306:\n        /* \"#utility.yul\":1541:1548   */\n      0x00\n        /* \"#utility.yul\":1584:1589   */\n      dup2\n        /* \"#utility.yul\":1577:1590   */\n      iszero\n        /* \"#utility.yul\":1570:1591   */\n      iszero\n        /* \"#utility.yul\":1559:1591   */\n      swap1\n      pop\n        /* \"#utility.yul\":1507:1597   */\n      swap2\n      swap1\n      pop\n      jump\t// out\n        /* \"#utility.yul\":1603:1712   */\n    tag_307:\n        /* \"#utility.yul\":1684:1705   */\n      tag_369\n        /* \"#utility.yul\":1699:1704   */\n      dup2\n        /* \"#utility.yul\":1684:1705   */\n      tag_306\n      jump\t// in\n    tag_369:\n        /* \"#utility.yul\":1679:1682   */\n      dup3\n        /* \"#utility.yul\":1672:1706   */\n      mstore\n        /* \"#utility.yul\":1603:1712   */\n      pop\n      pop\n      jump\t// out\n        /* \"#utility.yul\":1718:2259   */\n    tag_30:\n        /* \"#utility.yul\":1889:1893   */\n      0x00\n        /* \"#utility.yul\":1927:1930   */\n      0x80\n        /* \"#utility.yul\":1916:1925   */\n      dup3\n        /* \"#utility.yul\":1912:1931   */\n      add\n        /* \"#utility.yul\":1904:1931   */\n      swap1\n      pop\n        /* \"#utility.yul\":1941:2012   */\n      tag_371\n        /* \"#utility.yul\":2009:2010   */\n      0x00\n        /* \"#utility.yul\":1998:2007   */\n      dup4\n        /* \"#utility.yul\":1994:2011   */\n      add\n        /* \"#utility.yul\":1985:1991   */\n      dup8\n        /* \"#utility.yul\":1941:2012   */\n      tag_304\n      jump\t// in\n    tag_371:\n        /* \"#utility.yul\":2022:2094   */\n      tag_372\n        /* \"#utility.yul\":2090:2092   */\n      0x20\n        /* \"#utility.yul\":2079:2088   */\n      dup4\n        /* \"#utility.yul\":2075:2093   */\n      add\n        /* \"#utility.yul\":2066:2072   */\n      dup7\n        /* \"#utility.yul\":2022:2094   */\n      tag_305\n      jump\t// in\n    tag_372:\n        /* \"#utility.yul\":2104:2176   */\n      tag_373\n        /* \"#utility.yul\":2172:2174   */\n      0x40\n        /* \"#utility.yul\":2161:2170   */\n      dup4\n        /* \"#utility.yul\":2157:2175   */\n      add\n        /* \"#utility.yul\":2148:2154   */\n      dup6\n        /* \"#utility.yul\":2104:2176   */\n      tag_305\n      jump\t// in\n    tag_373:\n        /* \"#utility.yul\":2186:2252   */\n      tag_374\n        /* \"#utility.yul\":2248:2250   */\n      0x60\n        /* \"#utility.yul\":2237:2246   */\n      dup4\n        /* \"#utility.yul\":2233:2251   */\n      add\n        /* \"#utility.yul\":2224:2230   */\n      dup5\n        /* \"#utility.yul\":2186:2252   */\n      tag_307\n      jump\t// in\n    tag_374:\n        /* \"#utility.yul\":1718:2259   */\n      swap6\n      swap5\n      pop\n      pop\n      pop\n      pop\n      pop\n      jump\t// out\n        /* \"#utility.yul\":2265:2387   */\n    tag_308:\n        /* \"#utility.yul\":2338:2362   */\n      tag_376\n        /* \"#utility.yul\":2356:2361   */\n      dup2\n        /* \"#utility.yul\":2338:2362   */\n      tag_303\n      jump\t// in\n    tag_376:\n        /* \"#utility.yul\":2331:2336   */\n      dup2\n        /* \"#utility.yul\":2328:2363   */\n      eq\n        /* \"#utility.yul\":2318:2381   */\n      tag_377\n      jumpi\n        /* \"#utility.yul\":2377:2378   */\n      0x00\n        /* \"#utility.yul\":2374:2375   */\n      0x00\n        /* \"#utility.yul\":2367:2379   */\n      revert\n        /* \"#utility.yul\":2318:2381   */\n    tag_377:\n        /* \"#utility.yul\":2265:2387   */\n      pop\n      jump\t// out\n        /* \"#utility.yul\":2393:2532   */\n    tag_309:\n        /* \"#utility.yul\":2439:2444   */\n      0x00\n        /* \"#utility.yul\":2477:2483   */\n      dup2\n        /* \"#utility.yul\":2464:2484   */\n      calldataload\n        /* \"#utility.yul\":2455:2484   */\n      swap1\n      pop\n        /* \"#utility.yul\":2493:2526   */\n      tag_379\n        /* \"#utility.yul\":2520:2525   */\n      dup2\n        /* \"#utility.yul\":2493:2526   */\n      tag_308\n      jump\t// in\n    tag_379:\n        /* \"#utility.yul\":2393:2532   */\n      swap3\n      swap2\n      pop\n      pop\n      jump\t// out\n        /* \"#utility.yul\":2538:3303   */\n    tag_34:\n        /* \"#utility.yul\":2624:2630   */\n      0x00\n        /* \"#utility.yul\":2632:2638   */\n      0x00\n        /* \"#utility.yul\":2640:2646   */\n      0x00\n        /* \"#utility.yul\":2648:2654   */\n      0x00\n        /* \"#utility.yul\":2697:2700   */\n      0x80\n        /* \"#utility.yul\":2685:2694   */\n      dup6\n        /* \"#utility.yul\":2676:2683   */\n      dup8\n        /* \"#utility.yul\":2672:2695   */\n      sub\n        /* \"#utility.yul\":2668:2701   */\n      slt\n        /* \"#utility.yul\":2665:2785   */\n      iszero\n      tag_381\n      jumpi\n        /* \"#utility.yul\":2704:2783   */\n      tag_382\n      tag_297\n      jump\t// in\n    tag_382:\n        /* \"#utility.yul\":2665:2785   */\n    tag_381:\n        /* \"#utility.yul\":2824:2825   */\n      0x00\n        /* \"#utility.yul\":2849:2902   */\n      tag_383\n        /* \"#utility.yul\":2894:2901   */\n      dup8\n        /* \"#utility.yul\":2885:2891   */\n      dup3\n        /* \"#utility.yul\":2874:2883   */\n      dup9\n        /* \"#utility.yul\":2870:2892   */\n      add\n        /* \"#utility.yul\":2849:2902   */\n      tag_301\n      jump\t// in\n    tag_383:\n        /* \"#utility.yul\":2839:2902   */\n      swap5\n      pop\n        /* \"#utility.yul\":2795:2912   */\n      pop\n        /* \"#utility.yul\":2951:2953   */\n      0x20\n        /* \"#utility.yul\":2977:3030   */\n      tag_384\n        /* \"#utility.yul\":3022:3029   */\n      dup8\n        /* \"#utility.yul\":3013:3019   */\n      dup3\n        /* \"#utility.yul\":3002:3011   */\n      dup9\n        /* \"#utility.yul\":2998:3020   */\n      add\n        /* \"#utility.yul\":2977:3030   */\n      tag_301\n      jump\t// in\n    tag_384:\n        /* \"#utility.yul\":2967:3030   */\n      swap4\n      pop\n        /* \"#utility.yul\":2922:3040   */\n      pop\n        /* \"#utility.yul\":3079:3081   */\n      0x40\n        /* \"#utility.yul\":3105:3158   */\n      tag_385\n        /* \"#utility.yul\":3150:3157   */\n      dup8\n        /* \"#utility.yul\":3141:3147   */\n      dup3\n        /* \"#utility.yul\":3130:3139   */\n      dup9\n        /* \"#utility.yul\":3126:3148   */\n      add\n        /* \"#utility.yul\":3105:3158   */\n      tag_301\n      jump\t// in\n    tag_385:\n        /* \"#utility.yul\":3095:3158   */\n      swap3\n      pop\n        /* \"#utility.yul\":3050:3168   */\n      pop\n        /* \"#utility.yul\":3207:3209   */\n      0x60\n        /* \"#utility.yul\":3233:3286   */\n      tag_386\n        /* \"#utility.yul\":3278:3285   */\n      dup8\n        /* \"#utility.yul\":3269:3275   */\n      dup3\n        /* \"#utility.yul\":3258:3267   */\n      dup9\n        /* \"#utility.yul\":3254:3276   */\n      add\n        /* \"#utility.yul\":3233:3286   */\n      tag_309\n      jump\t// in\n    tag_386:\n        /* \"#utility.yul\":3223:3286   */\n      swap2\n      pop\n        /* \"#utility.yul\":3178:3296   */\n      pop\n        /* \"#utility.yul\":2538:3303   */\n      swap3\n      swap6\n      swap2\n      swap5\n      pop\n      swap3\n      pop\n      jump\t// out\n        /* \"#utility.yul\":3309:3783   */\n    tag_39:\n        /* \"#utility.yul\":3377:3383   */\n      0x00\n        /* \"#utility.yul\":3385:3391   */\n      0x00\n        /* \"#utility.yul\":3434:3436   */\n      0x40\n        /* \"#utility.yul\":3422:3431   */\n      dup4\n        /* \"#utility.yul\":3413:3420   */\n      dup6\n        /* \"#utility.yul\":3409:3432   */\n      sub\n        /* \"#utility.yul\":3405:3437   */\n      slt\n        /* \"#utility.yul\":3402:3521   */\n      iszero\n      tag_388\n      jumpi\n        /* \"#utility.yul\":3440:3519   */\n      tag_389\n      tag_297\n      jump\t// in\n    tag_389:\n        /* \"#utility.yul\":3402:3521   */\n    tag_388:\n        /* \"#utility.yul\":3560:3561   */\n      0x00\n        /* \"#utility.yul\":3585:3638   */\n      tag_390\n        /* \"#utility.yul\":3630:3637   */\n      dup6\n        /* \"#utility.yul\":3621:3627   */\n      dup3\n        /* \"#utility.yul\":3610:3619   */\n      dup7\n        /* \"#utility.yul\":3606:3628   */\n      add\n        /* \"#utility.yul\":3585:3638   */\n      tag_301\n      jump\t// in\n    tag_390:\n        /* \"#utility.yul\":3575:3638   */\n      swap3\n      pop\n        /* \"#utility.yul\":3531:3648   */\n      pop\n        /* \"#utility.yul\":3687:3689   */\n      0x20\n        /* \"#utility.yul\":3713:3766   */\n      tag_391\n        /* \"#utility.yul\":3758:3765   */\n      dup6\n        /* \"#utility.yul\":3749:3755   */\n      dup3\n        /* \"#utility.yul\":3738:3747   */\n      dup7\n        /* \"#utility.yul\":3734:3756   */\n      add\n        /* \"#utility.yul\":3713:3766   */\n      tag_309\n      jump\t// in\n    tag_391:\n        /* \"#utility.yul\":3703:3766   */\n      swap2\n      pop\n        /* \"#utility.yul\":3658:3776   */\n      pop\n        /* \"#utility.yul\":3309:3783   */\n      swap3\n      pop\n      swap3\n      swap1\n      pop\n      jump\t// out\n        /* \"#utility.yul\":3789:4263   */\n    tag_44:\n        /* \"#utility.yul\":3857:3863   */\n      0x00\n        /* \"#utility.yul\":3865:3871   */\n      0x00\n        /* \"#utility.yul\":3914:3916   */\n      0x40\n        /* \"#utility.yul\":3902:3911   */\n      dup4\n        /* \"#utility.yul\":3893:3900   */\n      dup6\n        /* \"#utility.yul\":3889:3912   */\n      sub\n        /* \"#utility.yul\":3885:3917   */\n      slt\n        /* \"#utility.yul\":3882:4001   */\n      iszero\n      tag_393\n      jumpi\n        /* \"#utility.yul\":3920:3999   */\n      tag_394\n      tag_297\n      jump\t// in\n    tag_394:\n        /* \"#utility.yul\":3882:4001   */\n    tag_393:\n        /* \"#utility.yul\":4040:4041   */\n      0x00\n        /* \"#utility.yul\":4065:4118   */\n      tag_395\n        /* \"#utility.yul\":4110:4117   */\n      dup6\n        /* \"#utility.yul\":4101:4107   */\n      dup3\n        /* \"#utility.yul\":4090:4099   */\n      dup7\n        /* \"#utility.yul\":4086:4108   */\n      add\n        /* \"#utility.yul\":4065:4118   */\n      tag_309\n      jump\t// in\n    tag_395:\n        /* \"#utility.yul\":4055:4118   */\n      swap3\n      pop\n        /* \"#utility.yul\":4011:4128   */\n      pop\n        /* \"#utility.yul\":4167:4169   */\n      0x20\n        /* \"#utility.yul\":4193:4246   */\n      tag_396\n        /* \"#utility.yul\":4238:4245   */\n      dup6\n        /* \"#utility.yul\":4229:4235   */\n      dup3\n        /* \"#utility.yul\":4218:4227   */\n      dup7\n        /* \"#utility.yul\":4214:4236   */\n      add\n        /* \"#utility.yul\":4193:4246   */\n      tag_309\n      jump\t// in\n    tag_396:\n        /* \"#utility.yul\":4183:4246   */\n      swap2\n      pop\n        /* \"#utility.yul\":4138:4256   */\n      pop\n        /* \"#utility.yul\":3789:4263   */\n      swap3\n      pop\n      swap3\n      swap1\n      pop\n      jump\t// out\n        /* \"#utility.yul\":4269:4373   */\n    tag_310:\n        /* \"#utility.yul\":4314:4321   */\n      0x00\n        /* \"#utility.yul\":4343:4367   */\n      tag_398\n        /* \"#utility.yul\":4361:4366   */\n      dup3\n        /* \"#utility.yul\":4343:4367   */\n      tag_302\n      jump\t// in\n    tag_398:\n        /* \"#utility.yul\":4332:4367   */\n      swap1\n      pop\n        /* \"#utility.yul\":4269:4373   */\n      swap2\n      swap1\n      pop\n      jump\t// out\n        /* \"#utility.yul\":4379:4521   */\n    tag_311:\n        /* \"#utility.yul\":4482:4514   */\n      tag_400\n        /* \"#utility.yul\":4508:4513   */\n      dup2\n        /* \"#utility.yul\":4482:4514   */\n      tag_310\n      jump\t// in\n    tag_400:\n        /* \"#utility.yul\":4477:4480   */\n      dup3\n        /* \"#utility.yul\":4470:4515   */\n      mstore\n        /* \"#utility.yul\":4379:4521   */\n      pop\n      pop\n      jump\t// out\n        /* \"#utility.yul\":4527:4781   */\n    tag_50:\n        /* \"#utility.yul\":4636:4640   */\n      0x00\n        /* \"#utility.yul\":4674:4676   */\n      0x20\n        /* \"#utility.yul\":4663:4672   */\n      dup3\n        /* \"#utility.yul\":4659:4677   */\n      add\n        /* \"#utility.yul\":4651:4677   */\n      swap1\n      pop\n        /* \"#utility.yul\":4687:4774   */\n      tag_402\n        /* \"#utility.yul\":4771:4772   */\n      0x00\n        /* \"#utility.yul\":4760:4769   */\n      dup4\n        /* \"#utility.yul\":4756:4773   */\n      add\n        /* \"#utility.yul\":4747:4753   */\n      dup5\n        /* \"#utility.yul\":4687:4774   */\n      tag_311\n      jump\t// in\n    tag_402:\n        /* \"#utility.yul\":4527:4781   */\n      swap3\n      swap2\n      pop\n      pop\n      jump\t// out\n        /* \"#utility.yul\":4787:4847   */\n    tag_312:\n        /* \"#utility.yul\":4815:4818   */\n      0x00\n        /* \"#utility.yul\":4836:4841   */\n      dup2\n        /* \"#utility.yul\":4829:4841   */\n      swap1\n      pop\n        /* \"#utility.yul\":4787:4847   */\n      swap2\n      swap1\n      pop\n      jump\t// out\n        /* \"#utility.yul\":4853:4995   */\n    tag_313:\n        /* \"#utility.yul\":4903:4912   */\n      0x00\n        /* \"#utility.yul\":4936:4989   */\n      tag_405\n        /* \"#utility.yul\":4954:4988   */\n      tag_406\n        /* \"#utility.yul\":4963:4987   */\n      tag_407\n        /* \"#utility.yul\":4981:4986   */\n      dup5\n        /* \"#utility.yul\":4963:4987   */\n      tag_302\n      jump\t// in\n    tag_407:\n        /* \"#utility.yul\":4954:4988   */\n      tag_312\n      jump\t// in\n    tag_406:\n        /* \"#utility.yul\":4936:4989   */\n      tag_302\n      jump\t// in\n    tag_405:\n        /* \"#utility.yul\":4923:4989   */\n      swap1\n      pop\n        /* \"#utility.yul\":4853:4995   */\n      swap2\n      swap1\n      pop\n      jump\t// out\n        /* \"#utility.yul\":5001:5127   */\n    tag_314:\n        /* \"#utility.yul\":5051:5060   */\n      0x00\n        /* \"#utility.yul\":5084:5121   */\n      tag_409\n        /* \"#utility.yul\":5115:5120   */\n      dup3\n        /* \"#utility.yul\":5084:5121   */\n      tag_313\n      jump\t// in\n    tag_409:\n        /* \"#utility.yul\":5071:5121   */\n      swap1\n      pop\n        /* \"#utility.yul\":5001:5127   */\n      swap2\n      swap1\n      pop\n      jump\t// out\n        /* \"#utility.yul\":5133:5273   */\n    tag_315:\n        /* \"#utility.yul\":5197:5206   */\n      0x00\n        /* \"#utility.yul\":5230:5267   */\n      tag_411\n        /* \"#utility.yul\":5261:5266   */\n      dup3\n        /* \"#utility.yul\":5230:5267   */\n      tag_314\n      jump\t// in\n    tag_411:\n        /* \"#utility.yul\":5217:5267   */\n      swap1\n      pop\n        /* \"#utility.yul\":5133:5273   */\n      swap2\n      swap1\n      pop\n      jump\t// out\n        /* \"#utility.yul\":5279:5438   */\n    tag_316:\n        /* \"#utility.yul\":5380:5431   */\n      tag_413\n        /* \"#utility.yul\":5425:5430   */\n      dup2\n        /* \"#utility.yul\":5380:5431   */\n      tag_315\n      jump\t// in\n    tag_413:\n        /* \"#utility.yul\":5375:5378   */\n      dup3\n        /* \"#utility.yul\":5368:5432   */\n      mstore\n        /* \"#utility.yul\":5279:5438   */\n      pop\n      pop\n      jump\t// out\n        /* \"#utility.yul\":5444:5694   */\n    tag_58:\n        /* \"#utility.yul\":5551:5555   */\n      0x00\n        /* \"#utility.yul\":5589:5591   */\n      0x20\n        /* \"#utility.yul\":5578:5587   */\n      dup3\n        /* \"#utility.yul\":5574:5592   */\n      add\n        /* \"#utility.yul\":5566:5592   */\n      swap1\n      pop\n        /* \"#utility.yul\":5602:5687   */\n      tag_415\n        /* \"#utility.yul\":5684:5685   */\n      0x00\n        /* \"#utility.yul\":5673:5682   */\n      dup4\n        /* \"#utility.yul\":5669:5686   */\n      add\n        /* \"#utility.yul\":5660:5666   */\n      dup5\n        /* \"#utility.yul\":5602:5687   */\n      tag_316\n      jump\t// in\n    tag_415:\n        /* \"#utility.yul\":5444:5694   */\n      swap3\n      swap2\n      pop\n      pop\n      jump\t// out\n        /* \"#utility.yul\":5700:5922   */\n    tag_63:\n        /* \"#utility.yul\":5793:5797   */\n      0x00\n        /* \"#utility.yul\":5831:5833   */\n      0x20\n        /* \"#utility.yul\":5820:5829   */\n      dup3\n        /* \"#utility.yul\":5816:5834   */\n      add\n        /* \"#utility.yul\":5808:5834   */\n      swap1\n      pop\n        /* \"#utility.yul\":5844:5915   */\n      tag_417\n        /* \"#utility.yul\":5912:5913   */\n      0x00\n        /* \"#utility.yul\":5901:5910   */\n      dup4\n        /* \"#utility.yul\":5897:5914   */\n      add\n        /* \"#utility.yul\":5888:5894   */\n      dup5\n        /* \"#utility.yul\":5844:5915   */\n      tag_304\n      jump\t// in\n    tag_417:\n        /* \"#utility.yul\":5700:5922   */\n      swap3\n      swap2\n      pop\n      pop\n      jump\t// out\n        /* \"#utility.yul\":5928:6547   */\n    tag_70:\n        /* \"#utility.yul\":6005:6011   */\n      0x00\n        /* \"#utility.yul\":6013:6019   */\n      0x00\n        /* \"#utility.yul\":6021:6027   */\n      0x00\n        /* \"#utility.yul\":6070:6072   */\n      0x60\n        /* \"#utility.yul\":6058:6067   */\n      dup5\n        /* \"#utility.yul\":6049:6056   */\n      dup7\n        /* \"#utility.yul\":6045:6068   */\n      sub\n        /* \"#utility.yul\":6041:6073   */\n      slt\n        /* \"#utility.yul\":6038:6157   */\n      iszero\n      tag_419\n      jumpi\n        /* \"#utility.yul\":6076:6155   */\n      tag_420\n      tag_297\n      jump\t// in\n    tag_420:\n        /* \"#utility.yul\":6038:6157   */\n    tag_419:\n        /* \"#utility.yul\":6196:6197   */\n      0x00\n        /* \"#utility.yul\":6221:6274   */\n      tag_421\n        /* \"#utility.yul\":6266:6273   */\n      dup7\n        /* \"#utility.yul\":6257:6263   */\n      dup3\n        /* \"#utility.yul\":6246:6255   */\n      dup8\n        /* \"#utility.yul\":6242:6264   */\n      add\n        /* \"#utility.yul\":6221:6274   */\n      tag_301\n      jump\t// in\n    tag_421:\n        /* \"#utility.yul\":6211:6274   */\n      swap4\n      pop\n        /* \"#utility.yul\":6167:6284   */\n      pop\n        /* \"#utility.yul\":6323:6325   */\n      0x20\n        /* \"#utility.yul\":6349:6402   */\n      tag_422\n        /* \"#utility.yul\":6394:6401   */\n      dup7\n        /* \"#utility.yul\":6385:6391   */\n      dup3\n        /* \"#utility.yul\":6374:6383   */\n      dup8\n        /* \"#utility.yul\":6370:6392   */\n      add\n        /* \"#utility.yul\":6349:6402   */\n      tag_301\n      jump\t// in\n    tag_422:\n        /* \"#utility.yul\":6339:6402   */\n      swap3\n      pop\n        /* \"#utility.yul\":6294:6412   */\n      pop\n        /* \"#utility.yul\":6451:6453   */\n      0x40\n        /* \"#utility.yul\":6477:6530   */\n      tag_423\n        /* \"#utility.yul\":6522:6529   */\n      dup7\n        /* \"#utility.yul\":6513:6519   */\n      dup3\n        /* \"#utility.yul\":6502:6511   */\n      dup8\n        /* \"#utility.yul\":6498:6520   */\n      add\n        /* \"#utility.yul\":6477:6530   */\n      tag_309\n      jump\t// in\n    tag_423:\n        /* \"#utility.yul\":6467:6530   */\n      swap2\n      pop\n        /* \"#utility.yul\":6422:6540   */\n      pop\n        /* \"#utility.yul\":5928:6547   */\n      swap3\n      pop\n      swap3\n      pop\n      swap3\n      jump\t// out\n        /* \"#utility.yul\":6553:6669   */\n    tag_317:\n        /* \"#utility.yul\":6623:6644   */\n      tag_425\n        /* \"#utility.yul\":6638:6643   */\n      dup2\n        /* \"#utility.yul\":6623:6644   */\n      tag_306\n      jump\t// in\n    tag_425:\n        /* \"#utility.yul\":6616:6621   */\n      dup2\n        /* \"#utility.yul\":6613:6645   */\n      eq\n        /* \"#utility.yul\":6603:6663   */\n      tag_426\n      jumpi\n        /* \"#utility.yul\":6659:6660   */\n      0x00\n        /* \"#utility.yul\":6656:6657   */\n      0x00\n        /* \"#utility.yul\":6649:6661   */\n      revert\n        /* \"#utility.yul\":6603:6663   */\n    tag_426:\n        /* \"#utility.yul\":6553:6669   */\n      pop\n      jump\t// out\n        /* \"#utility.yul\":6675:6808   */\n    tag_318:\n        /* \"#utility.yul\":6718:6723   */\n      0x00\n        /* \"#utility.yul\":6756:6762   */\n      dup2\n        /* \"#utility.yul\":6743:6763   */\n      calldataload\n        /* \"#utility.yul\":6734:6763   */\n      swap1\n      pop\n        /* \"#utility.yul\":6772:6802   */\n      tag_428\n        /* \"#utility.yul\":6796:6801   */\n      dup2\n        /* \"#utility.yul\":6772:6802   */\n      tag_317\n      jump\t// in\n    tag_428:\n        /* \"#utility.yul\":6675:6808   */\n      swap3\n      swap2\n      pop\n      pop\n      jump\t// out\n        /* \"#utility.yul\":6814:7719   */\n    tag_79:\n        /* \"#utility.yul\":6906:6912   */\n      0x00\n        /* \"#utility.yul\":6914:6920   */\n      0x00\n        /* \"#utility.yul\":6922:6928   */\n      0x00\n        /* \"#utility.yul\":6930:6936   */\n      0x00\n        /* \"#utility.yul\":6938:6944   */\n      0x00\n        /* \"#utility.yul\":6987:6990   */\n      0xa0\n        /* \"#utility.yul\":6975:6984   */\n      dup7\n        /* \"#utility.yul\":6966:6973   */\n      dup9\n        /* \"#utility.yul\":6962:6985   */\n      sub\n        /* \"#utility.yul\":6958:6991   */\n      slt\n        /* \"#utility.yul\":6955:7075   */\n      iszero\n      tag_430\n      jumpi\n        /* \"#utility.yul\":6994:7073   */\n      tag_431\n      tag_297\n      jump\t// in\n    tag_431:\n        /* \"#utility.yul\":6955:7075   */\n    tag_430:\n        /* \"#utility.yul\":7114:7115   */\n      0x00\n        /* \"#utility.yul\":7139:7192   */\n      tag_432\n        /* \"#utility.yul\":7184:7191   */\n      dup9\n        /* \"#utility.yul\":7175:7181   */\n      dup3\n        /* \"#utility.yul\":7164:7173   */\n      dup10\n        /* \"#utility.yul\":7160:7182   */\n      add\n        /* \"#utility.yul\":7139:7192   */\n      tag_301\n      jump\t// in\n    tag_432:\n        /* \"#utility.yul\":7129:7192   */\n      swap6\n      pop\n        /* \"#utility.yul\":7085:7202   */\n      pop\n        /* \"#utility.yul\":7241:7243   */\n      0x20\n        /* \"#utility.yul\":7267:7320   */\n      tag_433\n        /* \"#utility.yul\":7312:7319   */\n      dup9\n        /* \"#utility.yul\":7303:7309   */\n      dup3\n        /* \"#utility.yul\":7292:7301   */\n      dup10\n        /* \"#utility.yul\":7288:7310   */\n      add\n        /* \"#utility.yul\":7267:7320   */\n      tag_309\n      jump\t// in\n    tag_433:\n        /* \"#utility.yul\":7257:7320   */\n      swap5\n      pop\n        /* \"#utility.yul\":7212:7330   */\n      pop\n        /* \"#utility.yul\":7369:7371   */\n      0x40\n        /* \"#utility.yul\":7395:7448   */\n      tag_434\n        /* \"#utility.yul\":7440:7447   */\n      dup9\n        /* \"#utility.yul\":7431:7437   */\n      dup3\n        /* \"#utility.yul\":7420:7429   */\n      dup10\n        /* \"#utility.yul\":7416:7438   */\n      add\n        /* \"#utility.yul\":7395:7448   */\n      tag_301\n      jump\t// in\n    tag_434:\n        /* \"#utility.yul\":7385:7448   */\n      swap4\n      pop\n        /* \"#utility.yul\":7340:7458   */\n      pop\n        /* \"#utility.yul\":7497:7499   */\n      0x60\n        /* \"#utility.yul\":7523:7576   */\n      tag_435\n        /* \"#utility.yul\":7568:7575   */\n      dup9\n        /* \"#utility.yul\":7559:7565   */\n      dup3\n        /* \"#utility.yul\":7548:7557   */\n      dup10\n        /* \"#utility.yul\":7544:7566   */\n      add\n        /* \"#utility.yul\":7523:7576   */\n      tag_301\n      jump\t// in\n    tag_435:\n        /* \"#utility.yul\":7513:7576   */\n      swap3\n      pop\n        /* \"#utility.yul\":7468:7586   */\n      pop\n        /* \"#utility.yul\":7625:7628   */\n      0x80\n        /* \"#utility.yul\":7652:7702   */\n      tag_436\n        /* \"#utility.yul\":7694:7701   */\n      dup9\n        /* \"#utility.yul\":7685:7691   */\n      dup3\n        /* \"#utility.yul\":7674:7683   */\n      dup10\n        /* \"#utility.yul\":7670:7692   */\n      add\n        /* \"#utility.yul\":7652:7702   */\n      tag_318\n      jump\t// in\n    tag_436:\n        /* \"#utility.yul\":7642:7702   */\n      swap2\n      pop\n        /* \"#utility.yul\":7596:7712   */\n      pop\n        /* \"#utility.yul\":6814:7719   */\n      swap3\n      swap6\n      pop\n      swap3\n      swap6\n      swap1\n      swap4\n      pop\n      jump\t// out\n        /* \"#utility.yul\":7725:7811   */\n    tag_319:\n        /* \"#utility.yul\":7760:7767   */\n      0x00\n        /* \"#utility.yul\":7800:7804   */\n      0xff\n        /* \"#utility.yul\":7793:7798   */\n      dup3\n        /* \"#utility.yul\":7789:7805   */\n      and\n        /* \"#utility.yul\":7778:7805   */\n      swap1\n      pop\n        /* \"#utility.yul\":7725:7811   */\n      swap2\n      swap1\n      pop\n      jump\t// out\n        /* \"#utility.yul\":7817:7935   */\n    tag_320:\n        /* \"#utility.yul\":7888:7910   */\n      tag_439\n        /* \"#utility.yul\":7904:7909   */\n      dup2\n        /* \"#utility.yul\":7888:7910   */\n      tag_319\n      jump\t// in\n    tag_439:\n        /* \"#utility.yul\":7881:7886   */\n      dup2\n        /* \"#utility.yul\":7878:7911   */\n      eq\n        /* \"#utility.yul\":7868:7929   */\n      tag_440\n      jumpi\n        /* \"#utility.yul\":7925:7926   */\n      0x00\n        /* \"#utility.yul\":7922:7923   */\n      0x00\n        /* \"#utility.yul\":7915:7927   */\n      revert\n        /* \"#utility.yul\":7868:7929   */\n    tag_440:\n        /* \"#utility.yul\":7817:7935   */\n      pop\n      jump\t// out\n        /* \"#utility.yul\":7941:8076   */\n    tag_321:\n        /* \"#utility.yul\":7985:7990   */\n      0x00\n        /* \"#utility.yul\":8023:8029   */\n      dup2\n        /* \"#utility.yul\":8010:8030   */\n      calldataload\n        /* \"#utility.yul\":8001:8030   */\n      swap1\n      pop\n        /* \"#utility.yul\":8039:8070   */\n      tag_442\n        /* \"#utility.yul\":8064:8069   */\n      dup2\n        /* \"#utility.yul\":8039:8070   */\n      tag_320\n      jump\t// in\n    tag_442:\n        /* \"#utility.yul\":7941:8076   */\n      swap3\n      swap2\n      pop\n      pop\n      jump\t// out\n        /* \"#utility.yul\":8082:8159   */\n    tag_322:\n        /* \"#utility.yul\":8119:8126   */\n      0x00\n        /* \"#utility.yul\":8148:8153   */\n      dup2\n        /* \"#utility.yul\":8137:8153   */\n      swap1\n      pop\n        /* \"#utility.yul\":8082:8159   */\n      swap2\n      swap1\n      pop\n      jump\t// out\n        /* \"#utility.yul\":8165:8287   */\n    tag_323:\n        /* \"#utility.yul\":8238:8262   */\n      tag_445\n        /* \"#utility.yul\":8256:8261   */\n      dup2\n        /* \"#utility.yul\":8238:8262   */\n      tag_322\n      jump\t// in\n    tag_445:\n        /* \"#utility.yul\":8231:8236   */\n      dup2\n        /* \"#utility.yul\":8228:8263   */\n      eq\n        /* \"#utility.yul\":8218:8281   */\n      tag_446\n      jumpi\n        /* \"#utility.yul\":8277:8278   */\n      0x00\n        /* \"#utility.yul\":8274:8275   */\n      0x00\n        /* \"#utility.yul\":8267:8279   */\n      revert\n        /* \"#utility.yul\":8218:8281   */\n    tag_446:\n        /* \"#utility.yul\":8165:8287   */\n      pop\n      jump\t// out\n        /* \"#utility.yul\":8293:8432   */\n    tag_324:\n        /* \"#utility.yul\":8339:8344   */\n      0x00\n        /* \"#utility.yul\":8377:8383   */\n      dup2\n        /* \"#utility.yul\":8364:8384   */\n      calldataload\n        /* \"#utility.yul\":8355:8384   */\n      swap1\n      pop\n        /* \"#utility.yul\":8393:8426   */\n      tag_448\n        /* \"#utility.yul\":8420:8425   */\n      dup2\n        /* \"#utility.yul\":8393:8426   */\n      tag_323\n      jump\t// in\n    tag_448:\n        /* \"#utility.yul\":8293:8432   */\n      swap3\n      swap2\n      pop\n      pop\n      jump\t// out\n        /* \"#utility.yul\":8438:9491   */\n    tag_84:\n        /* \"#utility.yul\":8540:8546   */\n      0x00\n        /* \"#utility.yul\":8548:8554   */\n      0x00\n        /* \"#utility.yul\":8556:8562   */\n      0x00\n        /* \"#utility.yul\":8564:8570   */\n      0x00\n        /* \"#utility.yul\":8572:8578   */\n      0x00\n        /* \"#utility.yul\":8580:8586   */\n      0x00\n        /* \"#utility.yul\":8629:8632   */\n      0xc0\n        /* \"#utility.yul\":8617:8626   */\n      dup8\n        /* \"#utility.yul\":8608:8615   */\n      dup10\n        /* \"#utility.yul\":8604:8627   */\n      sub\n        /* \"#utility.yul\":8600:8633   */\n      slt\n        /* \"#utility.yul\":8597:8717   */\n      iszero\n      tag_450\n      jumpi\n        /* \"#utility.yul\":8636:8715   */\n      tag_451\n      tag_297\n      jump\t// in\n    tag_451:\n        /* \"#utility.yul\":8597:8717   */\n    tag_450:\n        /* \"#utility.yul\":8756:8757   */\n      0x00\n        /* \"#utility.yul\":8781:8834   */\n      tag_452\n        /* \"#utility.yul\":8826:8833   */\n      dup10\n        /* \"#utility.yul\":8817:8823   */\n      dup3\n        /* \"#utility.yul\":8806:8815   */\n      dup11\n        /* \"#utility.yul\":8802:8824   */\n      add\n        /* \"#utility.yul\":8781:8834   */\n      tag_301\n      jump\t// in\n    tag_452:\n        /* \"#utility.yul\":8771:8834   */\n      swap7\n      pop\n        /* \"#utility.yul\":8727:8844   */\n      pop\n        /* \"#utility.yul\":8883:8885   */\n      0x20\n        /* \"#utility.yul\":8909:8962   */\n      tag_453\n        /* \"#utility.yul\":8954:8961   */\n      dup10\n        /* \"#utility.yul\":8945:8951   */\n      dup3\n        /* \"#utility.yul\":8934:8943   */\n      dup11\n        /* \"#utility.yul\":8930:8952   */\n      add\n        /* \"#utility.yul\":8909:8962   */\n      tag_301\n      jump\t// in\n    tag_453:\n        /* \"#utility.yul\":8899:8962   */\n      swap6\n      pop\n        /* \"#utility.yul\":8854:8972   */\n      pop\n        /* \"#utility.yul\":9011:9013   */\n      0x40\n        /* \"#utility.yul\":9037:9090   */\n      tag_454\n        /* \"#utility.yul\":9082:9089   */\n      dup10\n        /* \"#utility.yul\":9073:9079   */\n      dup3\n        /* \"#utility.yul\":9062:9071   */\n      dup11\n        /* \"#utility.yul\":9058:9080   */\n      add\n        /* \"#utility.yul\":9037:9090   */\n      tag_301\n      jump\t// in\n    tag_454:\n        /* \"#utility.yul\":9027:9090   */\n      swap5\n      pop\n        /* \"#utility.yul\":8982:9100   */\n      pop\n        /* \"#utility.yul\":9139:9141   */\n      0x60\n        /* \"#utility.yul\":9165:9216   */\n      tag_455\n        /* \"#utility.yul\":9208:9215   */\n      dup10\n        /* \"#utility.yul\":9199:9205   */\n      dup3\n        /* \"#utility.yul\":9188:9197   */\n      dup11\n        /* \"#utility.yul\":9184:9206   */\n      add\n        /* \"#utility.yul\":9165:9216   */\n      tag_321\n      jump\t// in\n    tag_455:\n        /* \"#utility.yul\":9155:9216   */\n      swap4\n      pop\n        /* \"#utility.yul\":9110:9226   */\n      pop\n        /* \"#utility.yul\":9265:9268   */\n      0x80\n        /* \"#utility.yul\":9292:9345   */\n      tag_456\n        /* \"#utility.yul\":9337:9344   */\n      dup10\n        /* \"#utility.yul\":9328:9334   */\n      dup3\n        /* \"#utility.yul\":9317:9326   */\n      dup11\n        /* \"#utility.yul\":9313:9335   */\n      add\n        /* \"#utility.yul\":9292:9345   */\n      tag_324\n      jump\t// in\n    tag_456:\n        /* \"#utility.yul\":9282:9345   */\n      swap3\n      pop\n        /* \"#utility.yul\":9236:9355   */\n      pop\n        /* \"#utility.yul\":9394:9397   */\n      0xa0\n        /* \"#utility.yul\":9421:9474   */\n      tag_457\n        /* \"#utility.yul\":9466:9473   */\n      dup10\n        /* \"#utility.yul\":9457:9463   */\n      dup3\n        /* \"#utility.yul\":9446:9455   */\n      dup11\n        /* \"#utility.yul\":9442:9464   */\n      add\n        /* \"#utility.yul\":9421:9474   */\n      tag_324\n      jump\t// in\n    tag_457:\n        /* \"#utility.yul\":9411:9474   */\n      swap2\n      pop\n        /* \"#utility.yul\":9365:9484   */\n      pop\n        /* \"#utility.yul\":8438:9491   */\n      swap3\n      swap6\n      pop\n      swap3\n      swap6\n      pop\n      swap3\n      swap6\n      jump\t// out\n        /* \"#utility.yul\":9497:9635   */\n    tag_325:\n        /* \"#utility.yul\":9578:9610   */\n      tag_459\n        /* \"#utility.yul\":9604:9609   */\n      dup2\n        /* \"#utility.yul\":9578:9610   */\n      tag_310\n      jump\t// in\n    tag_459:\n        /* \"#utility.yul\":9571:9576   */\n      dup2\n        /* \"#utility.yul\":9568:9611   */\n      eq\n        /* \"#utility.yul\":9558:9629   */\n      tag_460\n      jumpi\n        /* \"#utility.yul\":9625:9626   */\n      0x00\n        /* \"#utility.yul\":9622:9623   */\n      0x00\n        /* \"#utility.yul\":9615:9627   */\n      revert\n        /* \"#utility.yul\":9558:9629   */\n    tag_460:\n        /* \"#utility.yul\":9497:9635   */\n      pop\n      jump\t// out\n        /* \"#utility.yul\":9641:9796   */\n    tag_326:\n        /* \"#utility.yul\":9695:9700   */\n      0x00\n        /* \"#utility.yul\":9733:9739   */\n      dup2\n        /* \"#utility.yul\":9720:9740   */\n      calldataload\n        /* \"#utility.yul\":9711:9740   */\n      swap1\n      pop\n        /* \"#utility.yul\":9749:9790   */\n      tag_462\n        /* \"#utility.yul\":9784:9789   */\n      dup2\n        /* \"#utility.yul\":9749:9790   */\n      tag_325\n      jump\t// in\n    tag_462:\n        /* \"#utility.yul\":9641:9796   */\n      swap3\n      swap2\n      pop\n      pop\n      jump\t// out\n        /* \"#utility.yul\":9802:10147   */\n    tag_93:\n        /* \"#utility.yul\":9869:9875   */\n      0x00\n        /* \"#utility.yul\":9918:9920   */\n      0x20\n        /* \"#utility.yul\":9906:9915   */\n      dup3\n        /* \"#utility.yul\":9897:9904   */\n      dup5\n        /* \"#utility.yul\":9893:9916   */\n      sub\n        /* \"#utility.yul\":9889:9921   */\n      slt\n        /* \"#utility.yul\":9886:10005   */\n      iszero\n      tag_464\n      jumpi\n        /* \"#utility.yul\":9924:10003   */\n      tag_465\n      tag_297\n      jump\t// in\n    tag_465:\n        /* \"#utility.yul\":9886:10005   */\n    tag_464:\n        /* \"#utility.yul\":10044:10045   */\n      0x00\n        /* \"#utility.yul\":10069:10130   */\n      tag_466\n        /* \"#utility.yul\":10122:10129   */\n      dup5\n        /* \"#utility.yul\":10113:10119   */\n      dup3\n        /* \"#utility.yul\":10102:10111   */\n      dup6\n        /* \"#utility.yul\":10098:10120   */\n      add\n        /* \"#utility.yul\":10069:10130   */\n      tag_326\n      jump\t// in\n    tag_466:\n        /* \"#utility.yul\":10059:10130   */\n      swap2\n      pop\n        /* \"#utility.yul\":10015:10140   */\n      pop\n        /* \"#utility.yul\":9802:10147   */\n      swap3\n      swap2\n      pop\n      pop\n      jump\t// out\n        /* \"#utility.yul\":10153:10482   */\n    tag_98:\n        /* \"#utility.yul\":10212:10218   */\n      0x00\n        /* \"#utility.yul\":10261:10263   */\n      0x20\n        /* \"#utility.yul\":10249:10258   */\n      dup3\n        /* \"#utility.yul\":10240:10247   */\n      dup5\n        /* \"#utility.yul\":10236:10259   */\n      sub\n        /* \"#utility.yul\":10232:10264   */\n      slt\n        /* \"#utility.yul\":10229:10348   */\n      iszero\n      tag_468\n      jumpi\n        /* \"#utility.yul\":10267:10346   */\n      tag_469\n      tag_297\n      jump\t// in\n    tag_469:\n        /* \"#utility.yul\":10229:10348   */\n    tag_468:\n        /* \"#utility.yul\":10387:10388   */\n      0x00\n        /* \"#utility.yul\":10412:10465   */\n      tag_470\n        /* \"#utility.yul\":10457:10464   */\n      dup5\n        /* \"#utility.yul\":10448:10454   */\n      dup3\n        /* \"#utility.yul\":10437:10446   */\n      dup6\n        /* \"#utility.yul\":10433:10455   */\n      add\n        /* \"#utility.yul\":10412:10465   */\n      tag_309\n      jump\t// in\n    tag_470:\n        /* \"#utility.yul\":10402:10465   */\n      swap2\n      pop\n        /* \"#utility.yul\":10358:10475   */\n      pop\n        /* \"#utility.yul\":10153:10482   */\n      swap3\n      swap2\n      pop\n      pop\n      jump\t// out\n        /* \"#utility.yul\":10488:10710   */\n    tag_109:\n        /* \"#utility.yul\":10581:10585   */\n      0x00\n        /* \"#utility.yul\":10619:10621   */\n      0x20\n        /* \"#utility.yul\":10608:10617   */\n      dup3\n        /* \"#utility.yul\":10604:10622   */\n      add\n        /* \"#utility.yul\":10596:10622   */\n      swap1\n      pop\n        /* \"#utility.yul\":10632:10703   */\n      tag_472\n        /* \"#utility.yul\":10700:10701   */\n      0x00\n        /* \"#utility.yul\":10689:10698   */\n      dup4\n        /* \"#utility.yul\":10685:10702   */\n      add\n        /* \"#utility.yul\":10676:10682   */\n      dup5\n        /* \"#utility.yul\":10632:10703   */\n      tag_305\n      jump\t// in\n    tag_472:\n        /* \"#utility.yul\":10488:10710   */\n      swap3\n      swap2\n      pop\n      pop\n      jump\t// out\n        /* \"#utility.yul\":10716:10859   */\n    tag_327:\n        /* \"#utility.yul\":10773:10778   */\n      0x00\n        /* \"#utility.yul\":10804:10810   */\n      dup2\n        /* \"#utility.yul\":10798:10811   */\n      mload\n        /* \"#utility.yul\":10789:10811   */\n      swap1\n      pop\n        /* \"#utility.yul\":10820:10853   */\n      tag_474\n        /* \"#utility.yul\":10847:10852   */\n      dup2\n        /* \"#utility.yul\":10820:10853   */\n      tag_308\n      jump\t// in\n    tag_474:\n        /* \"#utility.yul\":10716:10859   */\n      swap3\n      swap2\n      pop\n      pop\n      jump\t// out\n        /* \"#utility.yul\":10865:11216   */\n    tag_113:\n        /* \"#utility.yul\":10935:10941   */\n      0x00\n        /* \"#utility.yul\":10984:10986   */\n      0x20\n        /* \"#utility.yul\":10972:10981   */\n      dup3\n        /* \"#utility.yul\":10963:10970   */\n      dup5\n        /* \"#utility.yul\":10959:10982   */\n      sub\n        /* \"#utility.yul\":10955:10987   */\n      slt\n        /* \"#utility.yul\":10952:11071   */\n      iszero\n      tag_476\n      jumpi\n        /* \"#utility.yul\":10990:11069   */\n      tag_477\n      tag_297\n      jump\t// in\n    tag_477:\n        /* \"#utility.yul\":10952:11071   */\n    tag_476:\n        /* \"#utility.yul\":11110:11111   */\n      0x00\n        /* \"#utility.yul\":11135:11199   */\n      tag_478\n        /* \"#utility.yul\":11191:11198   */\n      dup5\n        /* \"#utility.yul\":11182:11188   */\n      dup3\n        /* \"#utility.yul\":11171:11180   */\n      dup6\n        /* \"#utility.yul\":11167:11189   */\n      add\n        /* \"#utility.yul\":11135:11199   */\n      tag_327\n      jump\t// in\n    tag_478:\n        /* \"#utility.yul\":11125:11199   */\n      swap2\n      pop\n        /* \"#utility.yul\":11081:11209   */\n      pop\n        /* \"#utility.yul\":10865:11216   */\n      swap3\n      swap2\n      pop\n      pop\n      jump\t// out\n        /* \"#utility.yul\":11222:11664   */\n    tag_116:\n        /* \"#utility.yul\":11371:11375   */\n      0x00\n        /* \"#utility.yul\":11409:11411   */\n      0x60\n        /* \"#utility.yul\":11398:11407   */\n      dup3\n        /* \"#utility.yul\":11394:11412   */\n      add\n        /* \"#utility.yul\":11386:11412   */\n      swap1\n      pop\n        /* \"#utility.yul\":11422:11493   */\n      tag_480\n        /* \"#utility.yul\":11490:11491   */\n      0x00\n        /* \"#utility.yul\":11479:11488   */\n      dup4\n        /* \"#utility.yul\":11475:11492   */\n      add\n        /* \"#utility.yul\":11466:11472   */\n      dup7\n        /* \"#utility.yul\":11422:11493   */\n      tag_304\n      jump\t// in\n    tag_480:\n        /* \"#utility.yul\":11503:11575   */\n      tag_481\n        /* \"#utility.yul\":11571:11573   */\n      0x20\n        /* \"#utility.yul\":11560:11569   */\n      dup4\n        /* \"#utility.yul\":11556:11574   */\n      add\n        /* \"#utility.yul\":11547:11553   */\n      dup6\n        /* \"#utility.yul\":11503:11575   */\n      tag_304\n      jump\t// in\n    tag_481:\n        /* \"#utility.yul\":11585:11657   */\n      tag_482\n        /* \"#utility.yul\":11653:11655   */\n      0x40\n        /* \"#utility.yul\":11642:11651   */\n      dup4\n        /* \"#utility.yul\":11638:11656   */\n      add\n        /* \"#utility.yul\":11629:11635   */\n      dup5\n        /* \"#utility.yul\":11585:11657   */\n      tag_305\n      jump\t// in\n    tag_482:\n        /* \"#utility.yul\":11222:11664   */\n      swap5\n      swap4\n      pop\n      pop\n      pop\n      pop\n      jump\t// out\n        /* \"#utility.yul\":11670:11850   */\n    tag_328:\n        /* \"#utility.yul\":11718:11795   */\n      0x4e487b7100000000000000000000000000000000000000000000000000000000\n        /* \"#utility.yul\":11715:11716   */\n      0x00\n        /* \"#utility.yul\":11708:11796   */\n      mstore\n        /* \"#utility.yul\":11815:11819   */\n      0x11\n        /* \"#utility.yul\":11812:11813   */\n      0x04\n        /* \"#utility.yul\":11805:11820   */\n      mstore\n        /* \"#utility.yul\":11839:11843   */\n      0x24\n        /* \"#utility.yul\":11836:11837   */\n      0x00\n        /* \"#utility.yul\":11829:11844   */\n      revert\n        /* \"#utility.yul\":11856:12089   */\n    tag_121:\n        /* \"#utility.yul\":11895:11898   */\n      0x00\n        /* \"#utility.yul\":11918:11942   */\n      tag_485\n        /* \"#utility.yul\":11936:11941   */\n      dup3\n        /* \"#utility.yul\":11918:11942   */\n      tag_299\n      jump\t// in\n    tag_485:\n        /* \"#utility.yul\":11909:11942   */\n      swap2\n      pop\n        /* \"#utility.yul\":11964:12030   */\n      0xffffffffffffffffffffffffffffffffffffffffffffffffffffffffffffffff\n        /* \"#utility.yul\":11957:11962   */\n      dup3\n        /* \"#utility.yul\":11954:12031   */\n      sub\n        /* \"#utility.yul\":11951:12054   */\n      tag_486\n      jumpi\n        /* \"#utility.yul\":12034:12052   */\n      tag_487\n      tag_328\n      jump\t// in\n    tag_487:\n        /* \"#utility.yul\":11951:12054   */\n    tag_486:\n        /* \"#utility.yul\":12081:12082   */\n      0x01\n        /* \"#utility.yul\":12074:12079   */\n      dup3\n        /* \"#utility.yul\":12070:12083   */\n      add\n        /* \"#utility.yul\":12063:12083   */\n      swap1\n      pop\n        /* \"#utility.yul\":11856:12089   */\n      swap2\n      swap1\n      pop\n      jump\t// out\n        /* \"#utility.yul\":12095:12238   */\n    tag_329:\n        /* \"#utility.yul\":12152:12157   */\n      0x00\n        /* \"#utility.yul\":12183:12189   */\n      dup2\n        /* \"#utility.yul\":12177:12190   */\n      mload\n        /* \"#utility.yul\":12168:12190   */\n      swap1\n      pop\n        /* \"#utility.yul\":12199:12232   */\n      tag_489\n        /* \"#utility.yul\":12226:12231   */\n      dup2\n        /* \"#utility.yul\":12199:12232   */\n      tag_300\n      jump\t// in\n    tag_489:\n        /* \"#utility.yul\":12095:12238   */\n      swap3\n      swap2\n      pop\n      pop\n      jump\t// out\n        /* \"#utility.yul\":12244:12595   */\n    tag_130:\n        /* \"#utility.yul\":12314:12320   */\n      0x00\n        /* \"#utility.yul\":12363:12365   */\n      0x20\n        /* \"#utility.yul\":12351:12360   */\n      dup3\n        /* \"#utility.yul\":12342:12349   */\n      dup5\n        /* \"#utility.yul\":12338:12361   */\n      sub\n        /* \"#utility.yul\":12334:12366   */\n      slt\n        /* \"#utility.yul\":12331:12450   */\n      iszero\n      tag_491\n      jumpi\n        /* \"#utility.yul\":12369:12448   */\n      tag_492\n      tag_297\n      jump\t// in\n    tag_492:\n        /* \"#utility.yul\":12331:12450   */\n    tag_491:\n        /* \"#utility.yul\":12489:12490   */\n      0x00\n        /* \"#utility.yul\":12514:12578   */\n      tag_493\n        /* \"#utility.yul\":12570:12577   */\n      dup5\n        /* \"#utility.yul\":12561:12567   */\n      dup3\n        /* \"#utility.yul\":12550:12559   */\n      dup6\n        /* \"#utility.yul\":12546:12568   */\n      add\n        /* \"#utility.yul\":12514:12578   */\n      tag_329\n      jump\t// in\n    tag_493:\n        /* \"#utility.yul\":12504:12578   */\n      swap2\n      pop\n        /* \"#utility.yul\":12460:12588   */\n      pop\n        /* \"#utility.yul\":12244:12595   */\n      swap3\n      swap2\n      pop\n      pop\n      jump\t// out\n        /* \"#utility.yul\":12601:12686   */\n    tag_330:\n        /* \"#utility.yul\":12646:12653   */\n      0x00\n        /* \"#utility.yul\":12675:12680   */\n      dup2\n        /* \"#utility.yul\":12664:12680   */\n      swap1\n      pop\n        /* \"#utility.yul\":12601:12686   */\n      swap2\n      swap1\n      pop\n      jump\t// out\n        /* \"#utility.yul\":12692:12850   */\n    tag_331:\n        /* \"#utility.yul\":12750:12759   */\n      0x00\n        /* \"#utility.yul\":12783:12844   */\n      tag_496\n        /* \"#utility.yul\":12801:12843   */\n      tag_497\n        /* \"#utility.yul\":12810:12842   */\n      tag_498\n        /* \"#utility.yul\":12836:12841   */\n      dup5\n        /* \"#utility.yul\":12810:12842   */\n      tag_330\n      jump\t// in\n    tag_498:\n        /* \"#utility.yul\":12801:12843   */\n      tag_312\n      jump\t// in\n    tag_497:\n        /* \"#utility.yul\":12783:12844   */\n      tag_299\n      jump\t// in\n    tag_496:\n        /* \"#utility.yul\":12770:12844   */\n      swap1\n      pop\n        /* \"#utility.yul\":12692:12850   */\n      swap2\n      swap1\n      pop\n      jump\t// out\n        /* \"#utility.yul\":12856:13003   */\n    tag_332:\n        /* \"#utility.yul\":12951:12996   */\n      tag_500\n        /* \"#utility.yul\":12990:12995   */\n      dup2\n        /* \"#utility.yul\":12951:12996   */\n      tag_331\n      jump\t// in\n    tag_500:\n        /* \"#utility.yul\":12946:12949   */\n      dup3\n        /* \"#utility.yul\":12939:12997   */\n      mstore\n        /* \"#utility.yul\":12856:13003   */\n      pop\n      pop\n      jump\t// out\n        /* \"#utility.yul\":13009:13357   */\n    tag_135:\n        /* \"#utility.yul\":13138:13142   */\n      0x00\n        /* \"#utility.yul\":13176:13178   */\n      0x40\n        /* \"#utility.yul\":13165:13174   */\n      dup3\n        /* \"#utility.yul\":13161:13179   */\n      add\n        /* \"#utility.yul\":13153:13179   */\n      swap1\n      pop\n        /* \"#utility.yul\":13189:13260   */\n      tag_502\n        /* \"#utility.yul\":13257:13258   */\n      0x00\n        /* \"#utility.yul\":13246:13255   */\n      dup4\n        /* \"#utility.yul\":13242:13259   */\n      add\n        /* \"#utility.yul\":13233:13239   */\n      dup6\n        /* \"#utility.yul\":13189:13260   */\n      tag_304\n      jump\t// in\n    tag_502:\n        /* \"#utility.yul\":13270:13350   */\n      tag_503\n        /* \"#utility.yul\":13346:13348   */\n      0x20\n        /* \"#utility.yul\":13335:13344   */\n      dup4\n        /* \"#utility.yul\":13331:13349   */\n      add\n        /* \"#utility.yul\":13322:13328   */\n      dup5\n        /* \"#utility.yul\":13270:13350   */\n      tag_332\n      jump\t// in\n    tag_503:\n        /* \"#utility.yul\":13009:13357   */\n      swap4\n      swap3\n      pop\n      pop\n      pop\n      jump\t// out\n        /* \"#utility.yul\":13363:13695   */\n    tag_151:\n        /* \"#utility.yul\":13484:13488   */\n      0x00\n        /* \"#utility.yul\":13522:13524   */\n      0x40\n        /* \"#utility.yul\":13511:13520   */\n      dup3\n        /* \"#utility.yul\":13507:13525   */\n      add\n        /* \"#utility.yul\":13499:13525   */\n      swap1\n      pop\n        /* \"#utility.yul\":13535:13606   */\n      tag_505\n        /* \"#utility.yul\":13603:13604   */\n      0x00\n        /* \"#utility.yul\":13592:13601   */\n      dup4\n        /* \"#utility.yul\":13588:13605   */\n      add\n        /* \"#utility.yul\":13579:13585   */\n      dup6\n        /* \"#utility.yul\":13535:13606   */\n      tag_304\n      jump\t// in\n    tag_505:\n        /* \"#utility.yul\":13616:13688   */\n      tag_506\n        /* \"#utility.yul\":13684:13686   */\n      0x20\n        /* \"#utility.yul\":13673:13682   */\n      dup4\n        /* \"#utility.yul\":13669:13687   */\n      add\n        /* \"#utility.yul\":13660:13666   */\n      dup5\n        /* \"#utility.yul\":13616:13688   */\n      tag_305\n      jump\t// in\n    tag_506:\n        /* \"#utility.yul\":13363:13695   */\n      swap4\n      swap3\n      pop\n      pop\n      pop\n      jump\t// out\n        /* \"#utility.yul\":13701:13838   */\n    tag_333:\n        /* \"#utility.yul\":13755:13760   */\n      0x00\n        /* \"#utility.yul\":13786:13792   */\n      dup2\n        /* \"#utility.yul\":13780:13793   */\n      mload\n        /* \"#utility.yul\":13771:13793   */\n      swap1\n      pop\n        /* \"#utility.yul\":13802:13832   */\n      tag_508\n        /* \"#utility.yul\":13826:13831   */\n      dup2\n        /* \"#utility.yul\":13802:13832   */\n      tag_317\n      jump\t// in\n    tag_508:\n        /* \"#utility.yul\":13701:13838   */\n      swap3\n      swap2\n      pop\n      pop\n      jump\t// out\n        /* \"#utility.yul\":13844:14189   */\n    tag_155:\n        /* \"#utility.yul\":13911:13917   */\n      0x00\n        /* \"#utility.yul\":13960:13962   */\n      0x20\n        /* \"#utility.yul\":13948:13957   */\n      dup3\n        /* \"#utility.yul\":13939:13946   */\n      dup5\n        /* \"#utility.yul\":13935:13958   */\n      sub\n        /* \"#utility.yul\":13931:13963   */\n      slt\n        /* \"#utility.yul\":13928:14047   */\n      iszero\n      tag_510\n      jumpi\n        /* \"#utility.yul\":13966:14045   */\n      tag_511\n      tag_297\n      jump\t// in\n    tag_511:\n        /* \"#utility.yul\":13928:14047   */\n    tag_510:\n        /* \"#utility.yul\":14086:14087   */\n      0x00\n        /* \"#utility.yul\":14111:14172   */\n      tag_512\n        /* \"#utility.yul\":14164:14171   */\n      dup5\n        /* \"#utility.yul\":14155:14161   */\n      dup3\n        /* \"#utility.yul\":14144:14153   */\n      dup6\n        /* \"#utility.yul\":14140:14162   */\n      add\n        /* \"#utility.yul\":14111:14172   */\n      tag_333\n      jump\t// in\n    tag_512:\n        /* \"#utility.yul\":14101:14172   */\n      swap2\n      pop\n        /* \"#utility.yul\":14057:14182   */\n      pop\n        /* \"#utility.yul\":13844:14189   */\n      swap3\n      swap2\n      pop\n      pop\n      jump\t// out\n        /* \"#utility.yul\":14195:14342   */\n    tag_334:\n        /* \"#utility.yul\":14296:14307   */\n      0x00\n        /* \"#utility.yul\":14333:14336   */\n      dup2\n        /* \"#utility.yul\":14318:14336   */\n      swap1\n      pop\n        /* \"#utility.yul\":14195:14342   */\n      swap3\n      swap2\n      pop\n      pop\n      jump\t// out\n        /* \"#utility.yul\":14348:14462   */\n    tag_335:\n      pop\n      jump\t// out\n        /* \"#utility.yul\":14468:14866   */\n    tag_336:\n        /* \"#utility.yul\":14627:14630   */\n      0x00\n        /* \"#utility.yul\":14648:14731   */\n      tag_516\n        /* \"#utility.yul\":14729:14730   */\n      0x00\n        /* \"#utility.yul\":14724:14727   */\n      dup4\n        /* \"#utility.yul\":14648:14731   */\n      tag_334\n      jump\t// in\n    tag_516:\n        /* \"#utility.yul\":14641:14731   */\n      swap2\n      pop\n        /* \"#utility.yul\":14740:14833   */\n      tag_517\n        /* \"#utility.yul\":14829:14832   */\n      dup3\n        /* \"#utility.yul\":14740:14833   */\n      tag_335\n      jump\t// in\n    tag_517:\n        /* \"#utility.yul\":14858:14859   */\n      0x00\n        /* \"#utility.yul\":14853:14856   */\n      dup3\n        /* \"#utility.yul\":14849:14860   */\n      add\n        /* \"#utility.yul\":14842:14860   */\n      swap1\n      pop\n        /* \"#utility.yul\":14468:14866   */\n      swap2\n      swap1\n      pop\n      jump\t// out\n        /* \"#utility.yul\":14872:15251   */\n    tag_173:\n        /* \"#utility.yul\":15056:15059   */\n      0x00\n        /* \"#utility.yul\":15078:15225   */\n      tag_519\n        /* \"#utility.yul\":15221:15224   */\n      dup3\n        /* \"#utility.yul\":15078:15225   */\n      tag_336\n      jump\t// in\n    tag_519:\n        /* \"#utility.yul\":15071:15225   */\n      swap2\n      pop\n        /* \"#utility.yul\":15242:15245   */\n      dup2\n        /* \"#utility.yul\":15235:15245   */\n      swap1\n      pop\n        /* \"#utility.yul\":14872:15251   */\n      swap2\n      swap1\n      pop\n      jump\t// out\n        /* \"#utility.yul\":15257:15426   */\n    tag_337:\n        /* \"#utility.yul\":15341:15352   */\n      0x00\n        /* \"#utility.yul\":15375:15381   */\n      dup3\n        /* \"#utility.yul\":15370:15373   */\n      dup3\n        /* \"#utility.yul\":15363:15382   */\n      mstore\n        /* \"#utility.yul\":15415:15419   */\n      0x20\n        /* \"#utility.yul\":15410:15413   */\n      dup3\n        /* \"#utility.yul\":15406:15420   */\n      add\n        /* \"#utility.yul\":15391:15420   */\n      swap1\n      pop\n        /* \"#utility.yul\":15257:15426   */\n      swap3\n      swap2\n      pop\n      pop\n      jump\t// out\n        /* \"#utility.yul\":15432:15601   */\n    tag_338:\n        /* \"#utility.yul\":15572:15593   */\n      0x455448207472616e73666572206661696c656400000000000000000000000000\n        /* \"#utility.yul\":15568:15569   */\n      0x00\n        /* \"#utility.yul\":15560:15566   */\n      dup3\n        /* \"#utility.yul\":15556:15570   */\n      add\n        /* \"#utility.yul\":15549:15594   */\n      mstore\n        /* \"#utility.yul\":15432:15601   */\n      pop\n      jump\t// out\n        /* \"#utility.yul\":15607:15973   */\n    tag_339:\n        /* \"#utility.yul\":15749:15752   */\n      0x00\n        /* \"#utility.yul\":15770:15837   */\n      tag_523\n        /* \"#utility.yul\":15834:15836   */\n      0x13\n        /* \"#utility.yul\":15829:15832   */\n      dup4\n        /* \"#utility.yul\":15770:15837   */\n      tag_337\n      jump\t// in\n    tag_523:\n        /* \"#utility.yul\":15763:15837   */\n      swap2\n      pop\n        /* \"#utility.yul\":15846:15939   */\n      tag_524\n        /* \"#utility.yul\":15935:15938   */\n      dup3\n        /* \"#utility.yul\":15846:15939   */\n      tag_338\n      jump\t// in\n    tag_524:\n        /* \"#utility.yul\":15964:15966   */\n      0x20\n        /* \"#utility.yul\":15959:15962   */\n      dup3\n        /* \"#utility.yul\":15955:15967   */\n      add\n        /* \"#utility.yul\":15948:15967   */\n      swap1\n      pop\n        /* \"#utility.yul\":15607:15973   */\n      swap2\n      swap1\n      pop\n      jump\t// out\n        /* \"#utility.yul\":15979:16398   */\n    tag_179:\n        /* \"#utility.yul\":16145:16149   */\n      0x00\n        /* \"#utility.yul\":16183:16185   */\n      0x20\n        /* \"#utility.yul\":16172:16181   */\n      dup3\n        /* \"#utility.yul\":16168:16186   */\n      add\n        /* \"#utility.yul\":16160:16186   */\n      swap1\n      pop\n        /* \"#utility.yul\":16232:16241   */\n      dup2\n        /* \"#utility.yul\":16226:16230   */\n      dup2\n        /* \"#utility.yul\":16222:16242   */\n      sub\n        /* \"#utility.yul\":16218:16219   */\n      0x00\n        /* \"#utility.yul\":16207:16216   */\n      dup4\n        /* \"#utility.yul\":16203:16220   */\n      add\n        /* \"#utility.yul\":16196:16243   */\n      mstore\n        /* \"#utility.yul\":16260:16391   */\n      tag_526\n        /* \"#utility.yul\":16386:16390   */\n      dup2\n        /* \"#utility.yul\":16260:16391   */\n      tag_339\n      jump\t// in\n    tag_526:\n        /* \"#utility.yul\":16252:16391   */\n      swap1\n      pop\n        /* \"#utility.yul\":15979:16398   */\n      swap2\n      swap1\n      pop\n      jump\t// out\n        /* \"#utility.yul\":16404:16575   */\n    tag_340:\n        /* \"#utility.yul\":16544:16567   */\n      0x7065726d69742076616c7565206d69736d617463680000000000000000000000\n        /* \"#utility.yul\":16540:16541   */\n      0x00\n        /* \"#utility.yul\":16532:16538   */\n      dup3\n        /* \"#utility.yul\":16528:16542   */\n      add\n        /* \"#utility.yul\":16521:16568   */\n      mstore\n        /* \"#utility.yul\":16404:16575   */\n      pop\n      jump\t// out\n        /* \"#utility.yul\":16581:16947   */\n    tag_341:\n        /* \"#utility.yul\":16723:16726   */\n      0x00\n        /* \"#utility.yul\":16744:16811   */\n      tag_529\n        /* \"#utility.yul\":16808:16810   */\n      0x15\n        /* \"#utility.yul\":16803:16806   */\n      dup4\n        /* \"#utility.yul\":16744:16811   */\n      tag_337\n      jump\t// in\n    tag_529:\n        /* \"#utility.yul\":16737:16811   */\n      swap2\n      pop\n        /* \"#utility.yul\":16820:16913   */\n      tag_530\n        /* \"#utility.yul\":16909:16912   */\n      dup3\n        /* \"#utility.yul\":16820:16913   */\n      tag_340\n      jump\t// in\n    tag_530:\n        /* \"#utility.yul\":16938:16940   */\n      0x20\n        /* \"#utility.yul\":16933:16936   */\n      dup3\n        /* \"#utility.yul\":16929:16941   */\n      add\n        /* \"#utility.yul\":16922:16941   */\n      swap1\n      pop\n        /* \"#utility.yul\":16581:16947   */\n      swap2\n      swap1\n      pop\n      jump\t// out\n        /* \"#utility.yul\":16953:17372   */\n    tag_221:\n        /* \"#utility.yul\":17119:17123   */\n      0x00\n        /* \"#utility.yul\":17157:17159   */\n      0x20\n        /* \"#utility.yul\":17146:17155   */\n      dup3\n        /* \"#utility.yul\":17142:17160   */\n      add\n        /* \"#utility.yul\":17134:17160   */\n      swap1\n      pop\n        /* \"#utility.yul\":17206:17215   */\n      dup2\n        /* \"#utility.yul\":17200:17204   */\n      dup2\n        /* \"#utility.yul\":17196:17216   */\n      sub\n        /* \"#utility.yul\":17192:17193   */\n      0x00\n        /* \"#utility.yul\":17181:17190   */\n      dup4\n        /* \"#utility.yul\":17177:17194   */\n      add\n        /* \"#utility.yul\":17170:17217   */\n      mstore\n        /* \"#utility.yul\":17234:17365   */\n      tag_532\n        /* \"#utility.yul\":17360:17364   */\n      dup2\n        /* \"#utility.yul\":17234:17365   */\n      tag_341\n      jump\t// in\n    tag_532:\n        /* \"#utility.yul\":17226:17365   */\n      swap1\n      pop\n        /* \"#utility.yul\":16953:17372   */\n      swap2\n      swap1\n      pop\n      jump\t// out\n        /* \"#utility.yul\":17378:17490   */\n    tag_342:\n        /* \"#utility.yul\":17461:17483   */\n      tag_534\n        /* \"#utility.yul\":17477:17482   */\n      dup2\n        /* \"#utility.yul\":17461:17483   */\n      tag_319\n      jump\t// in\n    tag_534:\n        /* \"#utility.yul\":17456:17459   */\n      dup3\n        /* \"#utility.yul\":17449:17484   */\n      mstore\n        /* \"#utility.yul\":17378:17490   */\n      pop\n      pop\n      jump\t// out\n        /* \"#utility.yul\":17496:17614   */\n    tag_343:\n        /* \"#utility.yul\":17583:17607   */\n      tag_536\n        /* \"#utility.yul\":17601:17606   */\n      dup2\n        /* \"#utility.yul\":17583:17607   */\n      tag_322\n      jump\t// in\n    tag_536:\n        /* \"#utility.yul\":17578:17581   */\n      dup3\n        /* \"#utility.yul\":17571:17608   */\n      mstore\n        /* \"#utility.yul\":17496:17614   */\n      pop\n      pop\n      jump\t// out\n        /* \"#utility.yul\":17620:18498   */\n    tag_223:\n        /* \"#utility.yul\":17877:17881   */\n      0x00\n        /* \"#utility.yul\":17915:17918   */\n      0xe0\n        /* \"#utility.yul\":17904:17913   */\n      dup3\n        /* \"#utility.yul\":17900:17919   */\n      add\n        /* \"#utility.yul\":17892:17919   */\n      swap1\n      pop\n        /* \"#utility.yul\":17929:18000   */\n      tag_538\n        /* \"#utility.yul\":17997:17998   */\n      0x00\n        /* \"#utility.yul\":17986:17995   */\n      dup4\n        /* \"#utility.yul\":17982:17999   */\n      add\n        /* \"#utility.yul\":17973:17979   */\n      dup11\n        /* \"#utility.yul\":17929:18000   */\n      tag_304\n      jump\t// in\n    tag_538:\n        /* \"#utility.yul\":18010:18082   */\n      tag_539\n        /* \"#utility.yul\":18078:18080   */\n      0x20\n        /* \"#utility.yul\":18067:18076   */\n      dup4\n        /* \"#utility.yul\":18063:18081   */\n      add\n        /* \"#utility.yul\":18054:18060   */\n      dup10\n        /* \"#utility.yul\":18010:18082   */\n      tag_304\n      jump\t// in\n    tag_539:\n        /* \"#utility.yul\":18092:18164   */\n      tag_540\n        /* \"#utility.yul\":18160:18162   */\n      0x40\n        /* \"#utility.yul\":18149:18158   */\n      dup4\n        /* \"#utility.yul\":18145:18163   */\n      add\n        /* \"#utility.yul\":18136:18142   */\n      dup9\n        /* \"#utility.yul\":18092:18164   */\n      tag_305\n      jump\t// in\n    tag_540:\n        /* \"#utility.yul\":18174:18246   */\n      tag_541\n        /* \"#utility.yul\":18242:18244   */\n      0x60\n        /* \"#utility.yul\":18231:18240   */\n      dup4\n        /* \"#utility.yul\":18227:18245   */\n      add\n        /* \"#utility.yul\":18218:18224   */\n      dup8\n        /* \"#utility.yul\":18174:18246   */\n      tag_305\n      jump\t// in\n    tag_541:\n        /* \"#utility.yul\":18256:18325   */\n      tag_542\n        /* \"#utility.yul\":18320:18323   */\n      0x80\n        /* \"#utility.yul\":18309:18318   */\n      dup4\n        /* \"#utility.yul\":18305:18324   */\n      add\n        /* \"#utility.yul\":18296:18302   */\n      dup7\n        /* \"#utility.yul\":18256:18325   */\n      tag_342\n      jump\t// in\n    tag_542:\n        /* \"#utility.yul\":18335:18408   */\n      tag_543\n        /* \"#utility.yul\":18403:18406   */\n      0xa0\n        /* \"#utility.yul\":18392:18401   */\n      dup4\n        /* \"#utility.yul\":18388:18407   */\n      add\n        /* \"#utility.yul\":18379:18385   */\n      dup6\n        /* \"#utility.yul\":18335:18408   */\n      tag_343\n      jump\t// in\n    tag_543:\n        /* \"#utility.yul\":18418:18491   */\n      tag_544\n        /* \"#utility.yul\":18486:18489   */\n      0xc0\n        /* \"#utility.yul\":18475:18484   */\n      dup4\n        /* \"#utility.yul\":18471:18490   */\n      add\n        /* \"#utility.yul\":18462:18468   */\n      dup5\n        /* \"#utility.yul\":18418:18491   */\n      tag_343\n      jump\t// in\n    tag_544:\n        /* \"#utility.yul\":17620:18498   */\n      swap9\n      swap8\n      pop\n      pop\n      pop\n      pop\n      pop\n      pop\n      pop\n      pop\n      jump\t// out\n        /* \"#utility.yul\":18504:18685   */\n    tag_344:\n        /* \"#utility.yul\":18644:18677   */\n      0x5265656e7472616e637947756172643a207265656e7472616e742063616c6c00\n        /* \"#utility.yul\":18640:18641   */\n      0x00\n        /* \"#utility.yul\":18632:18638   */\n      dup3\n        /* \"#utility.yul\":18628:18642   */\n      add\n        /* \"#utility.yul\":18621:18678   */\n      mstore\n        /* \"#utility.yul\":18504:18685   */\n      pop\n      jump\t// out\n        /* \"#utility.yul\":18691:19057   */\n    tag_345:\n        /* \"#utility.yul\":18833:18836   */\n      0x00\n        /* \"#utility.yul\":18854:18921   */\n      tag_547\n        /* \"#utility.yul\":18918:18920   */\n      0x1f\n        /* \"#utility.yul\":18913:18916   */\n      dup4\n        /* \"#utility.yul\":18854:18921   */\n      tag_337\n      jump\t// in\n    tag_547:\n        /* \"#utility.yul\":18847:18921   */\n      swap2\n      pop\n        /* \"#utility.yul\":18930:19023   */\n      tag_548\n        /* \"#utility.yul\":19019:19022   */\n      dup3\n        /* \"#utility.yul\":18930:19023   */\n      tag_344\n      jump\t// in\n    tag_548:\n        /* \"#utility.yul\":19048:19050   */\n      0x20\n        /* \"#utility.yul\":19043:19046   */\n      dup3\n        /* \"#utility.yul\":19039:19051   */\n      add\n        /* \"#utility.yul\":19032:19051   */\n      swap1\n      pop\n        /* \"#utility.yul\":18691:19057   */\n      swap2\n      swap1\n      pop\n      jump\t// out\n        /* \"#utility.yul\":19063:19482   */\n    tag_270:\n        /* \"#utility.yul\":19229:19233   */\n      0x00\n        /* \"#utility.yul\":19267:19269   */\n      0x20\n        /* \"#utility.yul\":19256:19265   */\n      dup3\n        /* \"#utility.yul\":19252:19270   */\n      add\n        /* \"#utility.yul\":19244:19270   */\n      swap1\n      pop\n        /* \"#utility.yul\":19316:19325   */\n      dup2\n        /* \"#utility.yul\":19310:19314   */\n      dup2\n        /* \"#utility.yul\":19306:19326   */\n      sub\n        /* \"#utility.yul\":19302:19303   */\n      0x00\n        /* \"#utility.yul\":19291:19300   */\n      dup4\n        /* \"#utility.yul\":19287:19304   */\n      add\n        /* \"#utility.yul\":19280:19327   */\n      mstore\n        /* \"#utility.yul\":19344:19475   */\n      tag_550\n        /* \"#utility.yul\":19470:19474   */\n      dup2\n        /* \"#utility.yul\":19344:19475   */\n      tag_345\n      jump\t// in\n    tag_550:\n        /* \"#utility.yul\":19336:19475   */\n      swap1\n      pop\n        /* \"#utility.yul\":19063:19482   */\n      swap2\n      swap1\n      pop\n      jump\t// out\n\n    auxdata: 0xa26469706673582212202811352a3707573de5cb23fe4aef76350b5d3df80b052bf7705683d04a1db2f164736f6c634300081e0033\n}\n",
				"bytecode": {
					"linkReferences": {},
					"object": "60a060405234801561000f575f5ffd5b50604051612a4d380380612a4d8339818101604052810190610031919061032d565b8260015f819055505f73ffffffffffffffffffffffffffffffffffffffff168173ffffffffffffffffffffffffffffffffffffffff16036100a9575f6040517f1e4fbdf70000000000000000000000000000000000000000000000000000000081526004016100a0919061038c565b60405180910390fd5b6100b8816101d160201b60201c565b505f73ffffffffffffffffffffffffffffffffffffffff168273ffffffffffffffffffffffffffffffffffffffff16148061011e57505f73ffffffffffffffffffffffffffffffffffffffff168173ffffffffffffffffffffffffffffffffffffffff16145b15610155576040517fd92e233d00000000000000000000000000000000000000000000000000000000815260040160405180910390fd5b8160035f6101000a81548173ffffffffffffffffffffffffffffffffffffffff021916908373ffffffffffffffffffffffffffffffffffffffff1602179055508073ffffffffffffffffffffffffffffffffffffffff1660808173ffffffffffffffffffffffffffffffffffffffff16815250505050506103a5565b5f60015f9054906101000a900473ffffffffffffffffffffffffffffffffffffffff1690508160015f6101000a81548173ffffffffffffffffffffffffffffffffffffffff021916908373ffffffffffffffffffffffffffffffffffffffff1602179055508173ffffffffffffffffffffffffffffffffffffffff168173ffffffffffffffffffffffffffffffffffffffff167f8be0079c531659141344cd1fd0a4f28419497f9722a3daafe3b4186f6b6457e060405160405180910390a35050565b5f5ffd5b5f73ffffffffffffffffffffffffffffffffffffffff82169050919050565b5f6102c182610298565b9050919050565b6102d1816102b7565b81146102db575f5ffd5b50565b5f815190506102ec816102c8565b92915050565b5f6102fc82610298565b9050919050565b61030c816102f2565b8114610316575f5ffd5b50565b5f8151905061032781610303565b92915050565b5f5f5f6060848603121561034457610343610294565b5b5f610351868287016102de565b935050602061036286828701610319565b9250506040610373868287016102de565b9150509250925092565b610386816102b7565b82525050565b5f60208201905061039f5f83018461037d565b92915050565b60805161267b6103d25f395f8181610a0a0152818161103b015281816110ac01526113e1015261267b5ff3fe6080604052600436106100f6575f3560e01c806394dc9cf311610089578063bb6416ae11610058578063bb6416ae146102e0578063ddd3289814610308578063f0f4426014610330578063f2fde38b14610358576100fd565b806394dc9cf31461024c5780639c66fb7e14610268578063aeccf73514610290578063b5ddc0f4146102b8576100fd565b806361d027b3116100c557806361d027b3146101b8578063715018a6146101e257806389a30271146101f85780638da5cb5b14610222576100fd565b8063039af9eb1461010157806326e84cc3146101405780634c2233a514610168578063582515c714610190576100fd565b366100fd57005b5f5ffd5b34801561010c575f5ffd5b5061012760048036038101906101229190611d22565b610380565b6040516101379493929190611db5565b60405180910390f35b34801561014b575f5ffd5b5061016660048036038101906101619190611e22565b6103d7565b005b348015610173575f5ffd5b5061018e60048036038101906101899190611e86565b61062c565b005b34801561019b575f5ffd5b506101b660048036038101906101b19190611ec4565b6108cc565b005b3480156101c3575f5ffd5b506101cc6109d0565b6040516101d99190611f22565b60405180910390f35b3480156101ed575f5ffd5b506101f66109f5565b005b348015610203575f5ffd5b5061020c610a08565b6040516102199190611f96565b60405180910390f35b34801561022d575f5ffd5b50610236610a2c565b6040516102439190611faf565b60405180910390f35b61026660048036038101906102619190611d22565b610a54565b005b348015610273575f5ffd5b5061028e60048036038101906102899190611fc8565b610d40565b005b34801561029b575f5ffd5b506102b660048036038101906102b19190611d22565b610ec4565b005b3480156102c3575f5ffd5b506102de60048036038101906102d99190612042565b61116a565b005b3480156102eb575f5ffd5b5061030660048036038101906103019190612122565b61123d565b005b348015610313575f5ffd5b5061032e60048036038101906103299190611fc8565b61148b565b005b34801561033b575f5ffd5b50610356600480360381019061035191906121d5565b611738565b005b348015610363575f5ffd5b5061037e60048036038101906103799190612200565b6117e8565b005b6002602052805f5260405f205f91509050805f015f9054906101000a900473ffffffffffffffffffffffffffffffffffffffff1690806001015490806002015490806003015f9054906101000a900460ff16905084565b6103df61186c565b5f60025f8681526020019081526020015f206040518060800160405290815f82015f9054906101000a900473ffffffffffffffffffffffffffffffffffffffff1673ffffffffffffffffffffffffffffffffffffffff1673ffffffffffffffffffffffffffffffffffffffff1681526020016001820154815260200160028201548152602001600382015f9054906101000a900460ff16151515158152505090505f73ffffffffffffffffffffffffffffffffffffffff16815f015173ffffffffffffffffffffffffffffffffffffffff16036104e8576040517fe142361700000000000000000000000000000000000000000000000000000000815260040160405180910390fd5b5f815f015190505f8590505b848111610623573073ffffffffffffffffffffffffffffffffffffffff168273ffffffffffffffffffffffffffffffffffffffff16636352211e836040518263ffffffff1660e01b815260040161054b919061222b565b602060405180830381865afa158015610566573d5f5f3e3d5ffd5b505050506040513d601f19601f8201168201806040525081019061058a9190612258565b73ffffffffffffffffffffffffffffffffffffffff1603610610578173ffffffffffffffffffffffffffffffffffffffff166342842e0e3086846040518463ffffffff1660e01b81526004016105e293929190612283565b5f604051808303815f87803b1580156105f9575f5ffd5b505af115801561060b573d5f5f3e3d5ffd5b505050505b808061061b906122e5565b9150506104f4565b50505050505050565b61063461186c565b5f60025f8481526020019081526020015f206040518060800160405290815f82015f9054906101000a900473ffffffffffffffffffffffffffffffffffffffff1673ffffffffffffffffffffffffffffffffffffffff1673ffffffffffffffffffffffffffffffffffffffff1681526020016001820154815260200160028201548152602001600382015f9054906101000a900460ff16151515158152505090505f73ffffffffffffffffffffffffffffffffffffffff16815f015173ffffffffffffffffffffffffffffffffffffffff160361073d576040517fe142361700000000000000000000000000000000000000000000000000000000815260040160405180910390fd5b5f815f015190505f8173ffffffffffffffffffffffffffffffffffffffff166370a08231306040518263ffffffff1660e01b815260040161077e9190611faf565b602060405180830381865afa158015610799573d5f5f3e3d5ffd5b505050506040513d601f19601f820116820180604052508101906107bd9190612340565b90505f5f90505b818110156108c4575f8373ffffffffffffffffffffffffffffffffffffffff16632f745c59305f6040518363ffffffff1660e01b81526004016108089291906123a4565b602060405180830381865afa158015610823573d5f5f3e3d5ffd5b505050506040513d601f19601f820116820180604052508101906108479190612340565b9050845f015173ffffffffffffffffffffffffffffffffffffffff166342842e0e3088846040518463ffffffff1660e01b815260040161088993929190612283565b5f604051808303815f87803b1580156108a0575f5ffd5b505af11580156108b2573d5f5f3e3d5ffd5b505050505080806001019150506107c4565b505050505050565b6108d461186c565b5f8273ffffffffffffffffffffffffffffffffffffffff166370a08231306040518263ffffffff1660e01b815260040161090e9190611faf565b602060405180830381865afa158015610929573d5f5f3e3d5ffd5b505050506040513d601f19601f8201168201806040525081019061094d9190612340565b90508273ffffffffffffffffffffffffffffffffffffffff1663a9059cbb83836040518363ffffffff1660e01b815260040161098a9291906123cb565b6020604051808303815f875af11580156109a6573d5f5f3e3d5ffd5b505050506040513d601f19601f820116820180604052508101906109ca9190612406565b50505050565b60035f9054906101000a900473ffffffffffffffffffffffffffffffffffffffff1681565b6109fd61186c565b610a065f6118f3565b565b7f000000000000000000000000000000000000000000000000000000000000000081565b5f60015f9054906101000a900473ffffffffffffffffffffffffffffffffffffffff16905090565b610a5c6119b6565b5f60025f8381526020019081526020015f206040518060800160405290815f82015f9054906101000a900473ffffffffffffffffffffffffffffffffffffffff1673ffffffffffffffffffffffffffffffffffffffff1673ffffffffffffffffffffffffffffffffffffffff1681526020016001820154815260200160028201548152602001600382015f9054906101000a900460ff16151515158152505090505f73ffffffffffffffffffffffffffffffffffffffff16815f015173ffffffffffffffffffffffffffffffffffffffff1603610b65576040517fe142361700000000000000000000000000000000000000000000000000000000815260040160405180910390fd5b80606001511580610b7957505f8160200151145b15610bb0576040517f94d366b500000000000000000000000000000000000000000000000000000000815260040160405180910390fd5b80602001513414610bed576040517fb0ccca4500000000000000000000000000000000000000000000000000000000815260040160405180910390fd5b5f610bfa825f0151611a03565b90505f60035f9054906101000a900473ffffffffffffffffffffffffffffffffffffffff1673ffffffffffffffffffffffffffffffffffffffff1634604051610c429061245e565b5f6040518083038185875af1925050503d805f8114610c7c576040519150601f19603f3d011682016040523d82523d5f602084013e610c81565b606091505b5050905080610cc5576040517f08c379a0000000000000000000000000000000000000000000000000000000008152600401610cbc906124cc565b60405180910390fd5b825f015173ffffffffffffffffffffffffffffffffffffffff166342842e0e3033856040518463ffffffff1660e01b8152600401610d0593929190612283565b5f604051808303815f87803b158015610d1c575f5ffd5b505af1158015610d2e573d5f5f3e3d5ffd5b50505050505050610d3d611b3f565b50565b610d4861186c565b5f60025f8581526020019081526020015f206040518060800160405290815f82015f9054906101000a900473ffffffffffffffffffffffffffffffffffffffff1673ffffffffffffffffffffffffffffffffffffffff1673ffffffffffffffffffffffffffffffffffffffff1681526020016001820154815260200160028201548152602001600382015f9054906101000a900460ff16151515158152505090505f73ffffffffffffffffffffffffffffffffffffffff16815f015173ffffffffffffffffffffffffffffffffffffffff1603610e51576040517fe142361700000000000000000000000000000000000000000000000000000000815260040160405180910390fd5b805f015173ffffffffffffffffffffffffffffffffffffffff166342842e0e3084866040518463ffffffff1660e01b8152600401610e9193929190612283565b5f604051808303815f87803b158015610ea8575f5ffd5b505af1158015610eba573d5f5f3e3d5ffd5b5050505050505050565b610ecc6119b6565b5f60025f8381526020019081526020015f206040518060800160405290815f82015f9054906101000a900473ffffffffffffffffffffffffffffffffffffffff1673ffffffffffffffffffffffffffffffffffffffff1673ffffffffffffffffffffffffffffffffffffffff1681526020016001820154815260200160028201548152602001600382015f9054906101000a900460ff16151515158152505090505f73ffffffffffffffffffffffffffffffffffffffff16815f015173ffffffffffffffffffffffffffffffffffffffff1603610fd5576040517fe142361700000000000000000000000000000000000000000000000000000000815260040160405180910390fd5b80606001511580610fe957505f8160400151145b15611020576040517f94d366b500000000000000000000000000000000000000000000000000000000815260040160405180910390fd5b5f61102d825f0151611a03565b9050611080333084604001517f000000000000000000000000000000000000000000000000000000000000000073ffffffffffffffffffffffffffffffffffffffff16611b48909392919063ffffffff16565b6110f060035f9054906101000a900473ffffffffffffffffffffffffffffffffffffffff1683604001517f000000000000000000000000000000000000000000000000000000000000000073ffffffffffffffffffffffffffffffffffffffff16611bca9092919063ffffffff16565b815f015173ffffffffffffffffffffffffffffffffffffffff166342842e0e3033846040518463ffffffff1660e01b815260040161113093929190612283565b5f604051808303815f87803b158015611147575f5ffd5b505af1158015611159573d5f5f3e3d5ffd5b505050505050611167611b3f565b50565b61117261186c565b60405180608001604052808573ffffffffffffffffffffffffffffffffffffffff16815260200184815260200183815260200182151581525060025f8781526020019081526020015f205f820151815f015f6101000a81548173ffffffffffffffffffffffffffffffffffffffff021916908373ffffffffffffffffffffffffffffffffffffffff16021790555060208201518160010155604082015181600201556060820151816003015f6101000a81548160ff0219169083151502179055509050505050505050565b6112456119b6565b5f60025f8881526020019081526020015f206040518060800160405290815f82015f9054906101000a900473ffffffffffffffffffffffffffffffffffffffff1673ffffffffffffffffffffffffffffffffffffffff1673ffffffffffffffffffffffffffffffffffffffff1681526020016001820154815260200160028201548152602001600382015f9054906101000a900460ff16151515158152505090505f73ffffffffffffffffffffffffffffffffffffffff16815f015173ffffffffffffffffffffffffffffffffffffffff160361134e576040517fe142361700000000000000000000000000000000000000000000000000000000815260040160405180910390fd5b8060600151158061136257505f8160400151145b15611399576040517f94d366b500000000000000000000000000000000000000000000000000000000815260040160405180910390fd5b806040015186146113df576040517f08c379a00000000000000000000000000000000000000000000000000000000081526004016113d690612534565b60405180910390fd5b7f000000000000000000000000000000000000000000000000000000000000000073ffffffffffffffffffffffffffffffffffffffff1663d505accf333089898989896040518863ffffffff1660e01b81526004016114449796959493929190612570565b5f604051808303815f87803b15801561145b575f5ffd5b505af115801561146d573d5f5f3e3d5ffd5b5050505061147a87610ec4565b50611483611b3f565b505050505050565b61149361186c565b5f60025f8581526020019081526020015f206040518060800160405290815f82015f9054906101000a900473ffffffffffffffffffffffffffffffffffffffff1673ffffffffffffffffffffffffffffffffffffffff1673ffffffffffffffffffffffffffffffffffffffff1681526020016001820154815260200160028201548152602001600382015f9054906101000a900460ff16151515158152505090505f73ffffffffffffffffffffffffffffffffffffffff16815f015173ffffffffffffffffffffffffffffffffffffffff160361159c576040517fe142361700000000000000000000000000000000000000000000000000000000815260040160405180910390fd5b5f815f015190505f8173ffffffffffffffffffffffffffffffffffffffff166370a08231306040518263ffffffff1660e01b81526004016115dd9190611faf565b602060405180830381865afa1580156115f8573d5f5f3e3d5ffd5b505050506040513d601f19601f8201168201806040525081019061161c9190612340565b90508085111561162a578094505b5f5f90505b8581101561172f575f8373ffffffffffffffffffffffffffffffffffffffff16632f745c59305f6040518363ffffffff1660e01b81526004016116739291906123a4565b602060405180830381865afa15801561168e573d5f5f3e3d5ffd5b505050506040513d601f19601f820116820180604052508101906116b29190612340565b9050845f015173ffffffffffffffffffffffffffffffffffffffff166342842e0e3088846040518463ffffffff1660e01b81526004016116f493929190612283565b5f604051808303815f87803b15801561170b575f5ffd5b505af115801561171d573d5f5f3e3d5ffd5b5050505050808060010191505061162f565b50505050505050565b61174061186c565b5f73ffffffffffffffffffffffffffffffffffffffff168173ffffffffffffffffffffffffffffffffffffffff16036117a5576040517fd92e233d00000000000000000000000000000000000000000000000000000000815260040160405180910390fd5b8060035f6101000a81548173ffffffffffffffffffffffffffffffffffffffff021916908373ffffffffffffffffffffffffffffffffffffffff16021790555050565b6117f061186c565b5f73ffffffffffffffffffffffffffffffffffffffff168173ffffffffffffffffffffffffffffffffffffffff1603611860575f6040517f1e4fbdf70000000000000000000000000000000000000000000000000000000081526004016118579190611faf565b60405180910390fd5b611869816118f3565b50565b611874611c49565b73ffffffffffffffffffffffffffffffffffffffff16611892610a2c565b73ffffffffffffffffffffffffffffffffffffffff16146118f1576118b5611c49565b6040517f118cdaa70000000000000000000000000000000000000000000000000000000081526004016118e89190611faf565b60405180910390fd5b565b5f60015f9054906101000a900473ffffffffffffffffffffffffffffffffffffffff1690508160015f6101000a81548173ffffffffffffffffffffffffffffffffffffffff021916908373ffffffffffffffffffffffffffffffffffffffff1602179055508173ffffffffffffffffffffffffffffffffffffffff168173ffffffffffffffffffffffffffffffffffffffff167f8be0079c531659141344cd1fd0a4f28419497f9722a3daafe3b4186f6b6457e060405160405180910390a35050565b60025f54036119fa576040517f08c379a00000000000000000000000000000000000000000000000000000000081526004016119f190612627565b60405180910390fd5b60025f81905550565b5f5f8290505f8173ffffffffffffffffffffffffffffffffffffffff166370a08231306040518263ffffffff1660e01b8152600401611a429190611faf565b602060405180830381865afa158015611a5d573d5f5f3e3d5ffd5b505050506040513d601f19601f82011682018060405250810190611a819190612340565b90505f8103611abc576040517f52df9fe500000000000000000000000000000000000000000000000000000000815260040160405180910390fd5b8173ffffffffffffffffffffffffffffffffffffffff16632f745c59305f6040518363ffffffff1660e01b8152600401611af79291906123a4565b602060405180830381865afa158015611b12573d5f5f3e3d5ffd5b505050506040513d601f19601f82011682018060405250810190611b369190612340565b92505050919050565b60015f81905550565b611bc4848573ffffffffffffffffffffffffffffffffffffffff166323b872dd868686604051602401611b7d93929190612283565b604051602081830303815290604052915060e01b6020820180517bffffffffffffffffffffffffffffffffffffffffffffffffffffffff8381831617835250505050611c50565b50505050565b611c44838473ffffffffffffffffffffffffffffffffffffffff1663a9059cbb8585604051602401611bfd9291906123cb565b604051602081830303815290604052915060e01b6020820180517bffffffffffffffffffffffffffffffffffffffffffffffffffffffff8381831617835250505050611c50565b505050565b5f33905090565b5f5f60205f8451602086015f885af180611c6f576040513d5f823e3d81fd5b3d92505f519150505f8214611c88576001811415611ca3565b5f8473ffffffffffffffffffffffffffffffffffffffff163b145b15611ce557836040517f5274afe7000000000000000000000000000000000000000000000000000000008152600401611cdc9190611faf565b60405180910390fd5b50505050565b5f5ffd5b5f819050919050565b611d0181611cef565b8114611d0b575f5ffd5b50565b5f81359050611d1c81611cf8565b92915050565b5f60208284031215611d3757611d36611ceb565b5b5f611d4484828501611d0e565b91505092915050565b5f73ffffffffffffffffffffffffffffffffffffffff82169050919050565b5f611d7682611d4d565b9050919050565b611d8681611d6c565b82525050565b611d9581611cef565b82525050565b5f8115159050919050565b611daf81611d9b565b82525050565b5f608082019050611dc85f830187611d7d565b611dd56020830186611d8c565b611de26040830185611d8c565b611def6060830184611da6565b95945050505050565b611e0181611d6c565b8114611e0b575f5ffd5b50565b5f81359050611e1c81611df8565b92915050565b5f5f5f5f60808587031215611e3a57611e39611ceb565b5b5f611e4787828801611d0e565b9450506020611e5887828801611d0e565b9350506040611e6987828801611d0e565b9250506060611e7a87828801611e0e565b91505092959194509250565b5f5f60408385031215611e9c57611e9b611ceb565b5b5f611ea985828601611d0e565b9250506020611eba85828601611e0e565b9150509250929050565b5f5f60408385031215611eda57611ed9611ceb565b5b5f611ee785828601611e0e565b9250506020611ef885828601611e0e565b9150509250929050565b5f611f0c82611d4d565b9050919050565b611f1c81611f02565b82525050565b5f602082019050611f355f830184611f13565b92915050565b5f819050919050565b5f611f5e611f59611f5484611d4d565b611f3b565b611d4d565b9050919050565b5f611f6f82611f44565b9050919050565b5f611f8082611f65565b9050919050565b611f9081611f76565b82525050565b5f602082019050611fa95f830184611f87565b92915050565b5f602082019050611fc25f830184611d7d565b92915050565b5f5f5f60608486031215611fdf57611fde611ceb565b5b5f611fec86828701611d0e565b9350506020611ffd86828701611d0e565b925050604061200e86828701611e0e565b9150509250925092565b61202181611d9b565b811461202b575f5ffd5b50565b5f8135905061203c81612018565b92915050565b5f5f5f5f5f60a0868803121561205b5761205a611ceb565b5b5f61206888828901611d0e565b955050602061207988828901611e0e565b945050604061208a88828901611d0e565b935050606061209b88828901611d0e565b92505060806120ac8882890161202e565b9150509295509295909350565b5f60ff82169050919050565b6120ce816120b9565b81146120d8575f5ffd5b50565b5f813590506120e9816120c5565b92915050565b5f819050919050565b612101816120ef565b811461210b575f5ffd5b50565b5f8135905061211c816120f8565b92915050565b5f5f5f5f5f5f60c0878903121561213c5761213b611ceb565b5b5f61214989828a01611d0e565b965050602061215a89828a01611d0e565b955050604061216b89828a01611d0e565b945050606061217c89828a016120db565b935050608061218d89828a0161210e565b92505060a061219e89828a0161210e565b9150509295509295509295565b6121b481611f02565b81146121be575f5ffd5b50565b5f813590506121cf816121ab565b92915050565b5f602082840312156121ea576121e9611ceb565b5b5f6121f7848285016121c1565b91505092915050565b5f6020828403121561221557612214611ceb565b5b5f61222284828501611e0e565b91505092915050565b5f60208201905061223e5f830184611d8c565b92915050565b5f8151905061225281611df8565b92915050565b5f6020828403121561226d5761226c611ceb565b5b5f61227a84828501612244565b91505092915050565b5f6060820190506122965f830186611d7d565b6122a36020830185611d7d565b6122b06040830184611d8c565b949350505050565b7f4e487b71000000000000000000000000000000000000000000000000000000005f52601160045260245ffd5b5f6122ef82611cef565b91507fffffffffffffffffffffffffffffffffffffffffffffffffffffffffffffffff8203612321576123206122b8565b5b600182019050919050565b5f8151905061233a81611cf8565b92915050565b5f6020828403121561235557612354611ceb565b5b5f6123628482850161232c565b91505092915050565b5f819050919050565b5f61238e6123896123848461236b565b611f3b565b611cef565b9050919050565b61239e81612374565b82525050565b5f6040820190506123b75f830185611d7d565b6123c46020830184612395565b9392505050565b5f6040820190506123de5f830185611d7d565b6123eb6020830184611d8c565b9392505050565b5f8151905061240081612018565b92915050565b5f6020828403121561241b5761241a611ceb565b5b5f612428848285016123f2565b91505092915050565b5f81905092915050565b50565b5f6124495f83612431565b91506124548261243b565b5f82019050919050565b5f6124688261243e565b9150819050919050565b5f82825260208201905092915050565b7f455448207472616e73666572206661696c6564000000000000000000000000005f82015250565b5f6124b6601383612472565b91506124c182612482565b602082019050919050565b5f6020820190508181035f8301526124e3816124aa565b9050919050565b7f7065726d69742076616c7565206d69736d6174636800000000000000000000005f82015250565b5f61251e601583612472565b9150612529826124ea565b602082019050919050565b5f6020820190508181035f83015261254b81612512565b9050919050565b61255b816120b9565b82525050565b61256a816120ef565b82525050565b5f60e0820190506125835f83018a611d7d565b6125906020830189611d7d565b61259d6040830188611d8c565b6125aa6060830187611d8c565b6125b76080830186612552565b6125c460a0830185612561565b6125d160c0830184612561565b98975050505050505050565b7f5265656e7472616e637947756172643a207265656e7472616e742063616c6c005f82015250565b5f612611601f83612472565b915061261c826125dd565b602082019050919050565b5f6020820190508181035f83015261263e81612605565b905091905056fea26469706673582212202811352a3707573de5cb23fe4aef76350b5d3df80b052bf7705683d04a1db2f164736f6c634300081e0033",
					"opcodes": "PUSH1 0xA0 PUSH1 0x40 MSTORE CALLVALUE DUP1 ISZERO PUSH2 0xF JUMPI PUSH0 PUSH0 REVERT JUMPDEST POP PUSH1 0x40 MLOAD PUSH2 0x2A4D CODESIZE SUB DUP1 PUSH2 0x2A4D DUP4 CODECOPY DUP2 DUP2 ADD PUSH1 0x40 MSTORE DUP2 ADD SWAP1 PUSH2 0x31 SWAP2 SWAP1 PUSH2 0x32D JUMP JUMPDEST DUP3 PUSH1 0x1 PUSH0 DUP2 SWAP1 SSTORE POP PUSH0 PUSH20 0xFFFFFFFFFFFFFFFFFFFFFFFFFFFFFFFFFFFFFFFF AND DUP2 PUSH20 0xFFFFFFFFFFFFFFFFFFFFFFFFFFFFFFFFFFFFFFFF AND SUB PUSH2 0xA9 JUMPI PUSH0 PUSH1 0x40 MLOAD PUSH32 0x1E4FBDF700000000000000000000000000000000000000000000000000000000 DUP2 MSTORE PUSH1 0x4 ADD PUSH2 0xA0 SWAP2 SWAP1 PUSH2 0x38C JUMP JUMPDEST PUSH1 0x40 MLOAD DUP1 SWAP2 SUB SWAP1 REVERT JUMPDEST PUSH2 0xB8 DUP2 PUSH2 0x1D1 PUSH1 0x20 SHL PUSH1 0x20 SHR JUMP JUMPDEST POP PUSH0 PUSH20 0xFFFFFFFFFFFFFFFFFFFFFFFFFFFFFFFFFFFFFFFF AND DUP3 PUSH20 0xFFFFFFFFFFFFFFFFFFFFFFFFFFFFFFFFFFFFFFFF AND EQ DUP1 PUSH2 0x11E JUMPI POP PUSH0 PUSH20 0xFFFFFFFFFFFFFFFFFFFFFFFFFFFFFFFFFFFFFFFF AND DUP2 PUSH20 0xFFFFFFFFFFFFFFFFFFFFFFFFFFFFFFFFFFFFFFFF AND EQ JUMPDEST ISZERO PUSH2 0x155 JUMPI PUSH1 0x40 MLOAD PUSH32 0xD92E233D00000000000000000000000000000000000000000000000000000000 DUP2 MSTORE PUSH1 0x4 ADD PUSH1 0x40 MLOAD DUP1 SWAP2 SUB SWAP1 REVERT JUMPDEST DUP2 PUSH1 0x3 PUSH0 PUSH2 0x100 EXP DUP2 SLOAD DUP2 PUSH20 0xFFFFFFFFFFFFFFFFFFFFFFFFFFFFFFFFFFFFFFFF MUL NOT AND SWAP1 DUP4 PUSH20 0xFFFFFFFFFFFFFFFFFFFFFFFFFFFFFFFFFFFFFFFF AND MUL OR SWAP1 SSTORE POP DUP1 PUSH20 0xFFFFFFFFFFFFFFFFFFFFFFFFFFFFFFFFFFFFFFFF AND PUSH1 0x80 DUP2 PUSH20 0xFFFFFFFFFFFFFFFFFFFFFFFFFFFFFFFFFFFFFFFF AND DUP2 MSTORE POP POP POP POP POP PUSH2 0x3A5 JUMP JUMPDEST PUSH0 PUSH1 0x1 PUSH0 SWAP1 SLOAD SWAP1 PUSH2 0x100 EXP SWAP1 DIV PUSH20 0xFFFFFFFFFFFFFFFFFFFFFFFFFFFFFFFFFFFFFFFF AND SWAP1 POP DUP2 PUSH1 0x1 PUSH0 PUSH2 0x100 EXP DUP2 SLOAD DUP2 PUSH20 0xFFFFFFFFFFFFFFFFFFFFFFFFFFFFFFFFFFFFFFFF MUL NOT AND SWAP1 DUP4 PUSH20 0xFFFFFFFFFFFFFFFFFFFFFFFFFFFFFFFFFFFFFFFF AND MUL OR SWAP1 SSTORE POP DUP2 PUSH20 0xFFFFFFFFFFFFFFFFFFFFFFFFFFFFFFFFFFFFFFFF AND DUP2 PUSH20 0xFFFFFFFFFFFFFFFFFFFFFFFFFFFFFFFFFFFFFFFF AND PUSH32 0x8BE0079C531659141344CD1FD0A4F28419497F9722A3DAAFE3B4186F6B6457E0 PUSH1 0x40 MLOAD PUSH1 0x40 MLOAD DUP1 SWAP2 SUB SWAP1 LOG3 POP POP JUMP JUMPDEST PUSH0 PUSH0 REVERT JUMPDEST PUSH0 PUSH20 0xFFFFFFFFFFFFFFFFFFFFFFFFFFFFFFFFFFFFFFFF DUP3 AND SWAP1 POP SWAP2 SWAP1 POP JUMP JUMPDEST PUSH0 PUSH2 0x2C1 DUP3 PUSH2 0x298 JUMP JUMPDEST SWAP1 POP SWAP2 SWAP1 POP JUMP JUMPDEST PUSH2 0x2D1 DUP2 PUSH2 0x2B7 JUMP JUMPDEST DUP2 EQ PUSH2 0x2DB JUMPI PUSH0 PUSH0 REVERT JUMPDEST POP JUMP JUMPDEST PUSH0 DUP2 MLOAD SWAP1 POP PUSH2 0x2EC DUP2 PUSH2 0x2C8 JUMP JUMPDEST SWAP3 SWAP2 POP POP JUMP JUMPDEST PUSH0 PUSH2 0x2FC DUP3 PUSH2 0x298 JUMP JUMPDEST SWAP1 POP SWAP2 SWAP1 POP JUMP JUMPDEST PUSH2 0x30C DUP2 PUSH2 0x2F2 JUMP JUMPDEST DUP2 EQ PUSH2 0x316 JUMPI PUSH0 PUSH0 REVERT JUMPDEST POP JUMP JUMPDEST PUSH0 DUP2 MLOAD SWAP1 POP PUSH2 0x327 DUP2 PUSH2 0x303 JUMP JUMPDEST SWAP3 SWAP2 POP POP JUMP JUMPDEST PUSH0 PUSH0 PUSH0 PUSH1 0x60 DUP5 DUP7 SUB SLT ISZERO PUSH2 0x344 JUMPI PUSH2 0x343 PUSH2 0x294 JUMP JUMPDEST JUMPDEST PUSH0 PUSH2 0x351 DUP7 DUP3 DUP8 ADD PUSH2 0x2DE JUMP JUMPDEST SWAP4 POP POP PUSH1 0x20 PUSH2 0x362 DUP7 DUP3 DUP8 ADD PUSH2 0x319 JUMP JUMPDEST SWAP3 POP POP PUSH1 0x40 PUSH2 0x373 DUP7 DUP3 DUP8 ADD PUSH2 0x2DE JUMP JUMPDEST SWAP2 POP POP SWAP3 POP SWAP3 POP SWAP3 JUMP JUMPDEST PUSH2 0x386 DUP2 PUSH2 0x2B7 JUMP JUMPDEST DUP3 MSTORE POP POP JUMP JUMPDEST PUSH0 PUSH1 0x20 DUP3 ADD SWAP1 POP PUSH2 0x39F PUSH0 DUP4 ADD DUP5 PUSH2 0x37D JUMP JUMPDEST SWAP3 SWAP2 POP POP JUMP JUMPDEST PUSH1 0x80 MLOAD PUSH2 0x267B PUSH2 0x3D2 PUSH0 CODECOPY PUSH0 DUP2 DUP2 PUSH2 0xA0A ADD MSTORE DUP2 DUP2 PUSH2 0x103B ADD MSTORE DUP2 DUP2 PUSH2 0x10AC ADD MSTORE PUSH2 0x13E1 ADD MSTORE PUSH2 0x267B PUSH0 RETURN INVALID PUSH1 0x80 PUSH1 0x40 MSTORE PUSH1 0x4 CALLDATASIZE LT PUSH2 0xF6 JUMPI PUSH0 CALLDATALOAD PUSH1 0xE0 SHR DUP1 PUSH4 0x94DC9CF3 GT PUSH2 0x89 JUMPI DUP1 PUSH4 0xBB6416AE GT PUSH2 0x58 JUMPI DUP1 PUSH4 0xBB6416AE EQ PUSH2 0x2E0 JUMPI DUP1 PUSH4 0xDDD32898 EQ PUSH2 0x308 JUMPI DUP1 PUSH4 0xF0F44260 EQ PUSH2 0x330 JUMPI DUP1 PUSH4 0xF2FDE38B EQ PUSH2 0x358 JUMPI PUSH2 0xFD JUMP JUMPDEST DUP1 PUSH4 0x94DC9CF3 EQ PUSH2 0x24C JUMPI DUP1 PUSH4 0x9C66FB7E EQ PUSH2 0x268 JUMPI DUP1 PUSH4 0xAECCF735 EQ PUSH2 0x290 JUMPI DUP1 PUSH4 0xB5DDC0F4 EQ PUSH2 0x2B8 JUMPI PUSH2 0xFD JUMP JUMPDEST DUP1 PUSH4 0x61D027B3 GT PUSH2 0xC5 JUMPI DUP1 PUSH4 0x61D027B3 EQ PUSH2 0x1B8 JUMPI DUP1 PUSH4 0x715018A6 EQ PUSH2 0x1E2 JUMPI DUP1 PUSH4 0x89A30271 EQ PUSH2 0x1F8 JUMPI DUP1 PUSH4 0x8DA5CB5B EQ PUSH2 0x222 JUMPI PUSH2 0xFD JUMP JUMPDEST DUP1 PUSH4 0x39AF9EB EQ PUSH2 0x101 JUMPI DUP1 PUSH4 0x26E84CC3 EQ PUSH2 0x140 JUMPI DUP1 PUSH4 0x4C2233A5 EQ PUSH2 0x168 JUMPI DUP1 PUSH4 0x582515C7 EQ PUSH2 0x190 JUMPI PUSH2 0xFD JUMP JUMPDEST CALLDATASIZE PUSH2 0xFD JUMPI STOP JUMPDEST PUSH0 PUSH0 REVERT JUMPDEST CALLVALUE DUP1 ISZERO PUSH2 0x10C JUMPI PUSH0 PUSH0 REVERT JUMPDEST POP PUSH2 0x127 PUSH1 0x4 DUP1 CALLDATASIZE SUB DUP2 ADD SWAP1 PUSH2 0x122 SWAP2 SWAP1 PUSH2 0x1D22 JUMP JUMPDEST PUSH2 0x380 JUMP JUMPDEST PUSH1 0x40 MLOAD PUSH2 0x137 SWAP5 SWAP4 SWAP3 SWAP2 SWAP1 PUSH2 0x1DB5 JUMP JUMPDEST PUSH1 0x40 MLOAD DUP1 SWAP2 SUB SWAP1 RETURN JUMPDEST CALLVALUE DUP1 ISZERO PUSH2 0x14B JUMPI PUSH0 PUSH0 REVERT JUMPDEST POP PUSH2 0x166 PUSH1 0x4 DUP1 CALLDATASIZE SUB DUP2 ADD SWAP1 PUSH2 0x161 SWAP2 SWAP1 PUSH2 0x1E22 JUMP JUMPDEST PUSH2 0x3D7 JUMP JUMPDEST STOP JUMPDEST CALLVALUE DUP1 ISZERO PUSH2 0x173 JUMPI PUSH0 PUSH0 REVERT JUMPDEST POP PUSH2 0x18E PUSH1 0x4 DUP1 CALLDATASIZE SUB DUP2 ADD SWAP1 PUSH2 0x189 SWAP2 SWAP1 PUSH2 0x1E86 JUMP JUMPDEST PUSH2 0x62C JUMP JUMPDEST STOP JUMPDEST CALLVALUE DUP1 ISZERO PUSH2 0x19B JUMPI PUSH0 PUSH0 REVERT JUMPDEST POP PUSH2 0x1B6 PUSH1 0x4 DUP1 CALLDATASIZE SUB DUP2 ADD SWAP1 PUSH2 0x1B1 SWAP2 SWAP1 PUSH2 0x1EC4 JUMP JUMPDEST PUSH2 0x8CC JUMP JUMPDEST STOP JUMPDEST CALLVALUE DUP1 ISZERO PUSH2 0x1C3 JUMPI PUSH0 PUSH0 REVERT JUMPDEST POP PUSH2 0x1CC PUSH2 0x9D0 JUMP JUMPDEST PUSH1 0x40 MLOAD PUSH2 0x1D9 SWAP2 SWAP1 PUSH2 0x1F22 JUMP JUMPDEST PUSH1 0x40 MLOAD DUP1 SWAP2 SUB SWAP1 RETURN JUMPDEST CALLVALUE DUP1 ISZERO PUSH2 0x1ED JUMPI PUSH0 PUSH0 REVERT JUMPDEST POP PUSH2 0x1F6 PUSH2 0x9F5 JUMP JUMPDEST STOP JUMPDEST CALLVALUE DUP1 ISZERO PUSH2 0x203 JUMPI PUSH0 PUSH0 REVERT JUMPDEST POP PUSH2 0x20C PUSH2 0xA08 JUMP JUMPDEST PUSH1 0x40 MLOAD PUSH2 0x219 SWAP2 SWAP1 PUSH2 0x1F96 JUMP JUMPDEST PUSH1 0x40 MLOAD DUP1 SWAP2 SUB SWAP1 RETURN JUMPDEST CALLVALUE DUP1 ISZERO PUSH2 0x22D JUMPI PUSH0 PUSH0 REVERT JUMPDEST POP PUSH2 0x236 PUSH2 0xA2C JUMP JUMPDEST PUSH1 0x40 MLOAD PUSH2 0x243 SWAP2 SWAP1 PUSH2 0x1FAF JUMP JUMPDEST PUSH1 0x40 MLOAD DUP1 SWAP2 SUB SWAP1 RETURN JUMPDEST PUSH2 0x266 PUSH1 0x4 DUP1 CALLDATASIZE SUB DUP2 ADD SWAP1 PUSH2 0x261 SWAP2 SWAP1 PUSH2 0x1D22 JUMP JUMPDEST PUSH2 0xA54 JUMP JUMPDEST STOP JUMPDEST CALLVALUE DUP1 ISZERO PUSH2 0x273 JUMPI PUSH0 PUSH0 REVERT JUMPDEST POP PUSH2 0x28E PUSH1 0x4 DUP1 CALLDATASIZE SUB DUP2 ADD SWAP1 PUSH2 0x289 SWAP2 SWAP1 PUSH2 0x1FC8 JUMP JUMPDEST PUSH2 0xD40 JUMP JUMPDEST STOP JUMPDEST CALLVALUE DUP1 ISZERO PUSH2 0x29B JUMPI PUSH0 PUSH0 REVERT JUMPDEST POP PUSH2 0x2B6 PUSH1 0x4 DUP1 CALLDATASIZE SUB DUP2 ADD SWAP1 PUSH2 0x2B1 SWAP2 SWAP1 PUSH2 0x1D22 JUMP JUMPDEST PUSH2 0xEC4 JUMP JUMPDEST STOP JUMPDEST CALLVALUE DUP1 ISZERO PUSH2 0x2C3 JUMPI PUSH0 PUSH0 REVERT JUMPDEST POP PUSH2 0x2DE PUSH1 0x4 DUP1 CALLDATASIZE SUB DUP2 ADD SWAP1 PUSH2 0x2D9 SWAP2 SWAP1 PUSH2 0x2042 JUMP JUMPDEST PUSH2 0x116A JUMP JUMPDEST STOP JUMPDEST CALLVALUE DUP1 ISZERO PUSH2 0x2EB JUMPI PUSH0 PUSH0 REVERT JUMPDEST POP PUSH2 0x306 PUSH1 0x4 DUP1 CALLDATASIZE SUB DUP2 ADD SWAP1 PUSH2 0x301 SWAP2 SWAP1 PUSH2 0x2122 JUMP JUMPDEST PUSH2 0x123D JUMP JUMPDEST STOP JUMPDEST CALLVALUE DUP1 ISZERO PUSH2 0x313 JUMPI PUSH0 PUSH0 REVERT JUMPDEST POP PUSH2 0x32E PUSH1 0x4 DUP1 CALLDATASIZE SUB DUP2 ADD SWAP1 PUSH2 0x329 SWAP2 SWAP1 PUSH2 0x1FC8 JUMP JUMPDEST PUSH2 0x148B JUMP JUMPDEST STOP JUMPDEST CALLVALUE DUP1 ISZERO PUSH2 0x33B JUMPI PUSH0 PUSH0 REVERT JUMPDEST POP PUSH2 0x356 PUSH1 0x4 DUP1 CALLDATASIZE SUB DUP2 ADD SWAP1 PUSH2 0x351 SWAP2 SWAP1 PUSH2 0x21D5 JUMP JUMPDEST PUSH2 0x1738 JUMP JUMPDEST STOP JUMPDEST CALLVALUE DUP1 ISZERO PUSH2 0x363 JUMPI PUSH0 PUSH0 REVERT JUMPDEST POP PUSH2 0x37E PUSH1 0x4 DUP1 CALLDATASIZE SUB DUP2 ADD SWAP1 PUSH2 0x379 SWAP2 SWAP1 PUSH2 0x2200 JUMP JUMPDEST PUSH2 0x17E8 JUMP JUMPDEST STOP JUMPDEST PUSH1 0x2 PUSH1 0x20 MSTORE DUP1 PUSH0 MSTORE PUSH1 0x40 PUSH0 KECCAK256 PUSH0 SWAP2 POP SWAP1 POP DUP1 PUSH0 ADD PUSH0 SWAP1 SLOAD SWAP1 PUSH2 0x100 EXP SWAP1 DIV PUSH20 0xFFFFFFFFFFFFFFFFFFFFFFFFFFFFFFFFFFFFFFFF AND SWAP1 DUP1 PUSH1 0x1 ADD SLOAD SWAP1 DUP1 PUSH1 0x2 ADD SLOAD SWAP1 DUP1 PUSH1 0x3 ADD PUSH0 SWAP1 SLOAD SWAP1 PUSH2 0x100 EXP SWAP1 DIV PUSH1 0xFF AND SWAP1 POP DUP5 JUMP JUMPDEST PUSH2 0x3DF PUSH2 0x186C JUMP JUMPDEST PUSH0 PUSH1 0x2 PUSH0 DUP7 DUP2 MSTORE PUSH1 0x20 ADD SWAP1 DUP2 MSTORE PUSH1 0x20 ADD PUSH0 KECCAK256 PUSH1 0x40 MLOAD DUP1 PUSH1 0x80 ADD PUSH1 0x40 MSTORE SWAP1 DUP2 PUSH0 DUP3 ADD PUSH0 SWAP1 SLOAD SWAP1 PUSH2 0x100 EXP SWAP1 DIV PUSH20 0xFFFFFFFFFFFFFFFFFFFFFFFFFFFFFFFFFFFFFFFF AND PUSH20 0xFFFFFFFFFFFFFFFFFFFFFFFFFFFFFFFFFFFFFFFF AND PUSH20 0xFFFFFFFFFFFFFFFFFFFFFFFFFFFFFFFFFFFFFFFF AND DUP2 MSTORE PUSH1 0x20 ADD PUSH1 0x1 DUP3 ADD SLOAD DUP2 MSTORE PUSH1 0x20 ADD PUSH1 0x2 DUP3 ADD SLOAD DUP2 MSTORE PUSH1 0x20 ADD PUSH1 0x3 DUP3 ADD PUSH0 SWAP1 SLOAD SWAP1 PUSH2 0x100 EXP SWAP1 DIV PUSH1 0xFF AND ISZERO ISZERO ISZERO ISZERO DUP2 MSTORE POP POP SWAP1 POP PUSH0 PUSH20 0xFFFFFFFFFFFFFFFFFFFFFFFFFFFFFFFFFFFFFFFF AND DUP2 PUSH0 ADD MLOAD PUSH20 0xFFFFFFFFFFFFFFFFFFFFFFFFFFFFFFFFFFFFFFFF AND SUB PUSH2 0x4E8 JUMPI PUSH1 0x40 MLOAD PUSH32 0xE142361700000000000000000000000000000000000000000000000000000000 DUP2 MSTORE PUSH1 0x4 ADD PUSH1 0x40 MLOAD DUP1 SWAP2 SUB SWAP1 REVERT JUMPDEST PUSH0 DUP2 PUSH0 ADD MLOAD SWAP1 POP PUSH0 DUP6 SWAP1 POP JUMPDEST DUP5 DUP2 GT PUSH2 0x623 JUMPI ADDRESS PUSH20 0xFFFFFFFFFFFFFFFFFFFFFFFFFFFFFFFFFFFFFFFF AND DUP3 PUSH20 0xFFFFFFFFFFFFFFFFFFFFFFFFFFFFFFFFFFFFFFFF AND PUSH4 0x6352211E DUP4 PUSH1 0x40 MLOAD DUP3 PUSH4 0xFFFFFFFF AND PUSH1 0xE0 SHL DUP2 MSTORE PUSH1 0x4 ADD PUSH2 0x54B SWAP2 SWAP1 PUSH2 0x222B JUMP JUMPDEST PUSH1 0x20 PUSH1 0x40 MLOAD DUP1 DUP4 SUB DUP2 DUP7 GAS STATICCALL ISZERO DUP1 ISZERO PUSH2 0x566 JUMPI RETURNDATASIZE PUSH0 PUSH0 RETURNDATACOPY RETURNDATASIZE PUSH0 REVERT JUMPDEST POP POP POP POP PUSH1 0x40 MLOAD RETURNDATASIZE PUSH1 0x1F NOT PUSH1 0x1F DUP3 ADD AND DUP3 ADD DUP1 PUSH1 0x40 MSTORE POP DUP2 ADD SWAP1 PUSH2 0x58A SWAP2 SWAP1 PUSH2 0x2258 JUMP JUMPDEST PUSH20 0xFFFFFFFFFFFFFFFFFFFFFFFFFFFFFFFFFFFFFFFF AND SUB PUSH2 0x610 JUMPI DUP2 PUSH20 0xFFFFFFFFFFFFFFFFFFFFFFFFFFFFFFFFFFFFFFFF AND PUSH4 0x42842E0E ADDRESS DUP7 DUP5 PUSH1 0x40 MLOAD DUP5 PUSH4 0xFFFFFFFF AND PUSH1 0xE0 SHL DUP2 MSTORE PUSH1 0x4 ADD PUSH2 0x5E2 SWAP4 SWAP3 SWAP2 SWAP1 PUSH2 0x2283 JUMP JUMPDEST PUSH0 PUSH1 0x40 MLOAD DUP1 DUP4 SUB DUP2 PUSH0 DUP8 DUP1 EXTCODESIZE ISZERO DUP1 ISZERO PUSH2 0x5F9 JUMPI PUSH0 PUSH0 REVERT JUMPDEST POP GAS CALL ISZERO DUP1 ISZERO PUSH2 0x60B JUMPI RETURNDATASIZE PUSH0 PUSH0 RETURNDATACOPY RETURNDATASIZE PUSH0 REVERT JUMPDEST POP POP POP POP JUMPDEST DUP1 DUP1 PUSH2 0x61B SWAP1 PUSH2 0x22E5 JUMP JUMPDEST SWAP2 POP POP PUSH2 0x4F4 JUMP JUMPDEST POP POP POP POP POP POP POP JUMP JUMPDEST PUSH2 0x634 PUSH2 0x186C JUMP JUMPDEST PUSH0 PUSH1 0x2 PUSH0 DUP5 DUP2 MSTORE PUSH1 0x20 ADD SWAP1 DUP2 MSTORE PUSH1 0x20 ADD PUSH0 KECCAK256 PUSH1 0x40 MLOAD DUP1 PUSH1 0x80 ADD PUSH1 0x40 MSTORE SWAP1 DUP2 PUSH0 DUP3 ADD PUSH0 SWAP1 SLOAD SWAP1 PUSH2 0x100 EXP SWAP1 DIV PUSH20 0xFFFFFFFFFFFFFFFFFFFFFFFFFFFFFFFFFFFFFFFF AND PUSH20 0xFFFFFFFFFFFFFFFFFFFFFFFFFFFFFFFFFFFFFFFF AND PUSH20 0xFFFFFFFFFFFFFFFFFFFFFFFFFFFFFFFFFFFFFFFF AND DUP2 MSTORE PUSH1 0x20 ADD PUSH1 0x1 DUP3 ADD SLOAD DUP2 MSTORE PUSH1 0x20 ADD PUSH1 0x2 DUP3 ADD SLOAD DUP2 MSTORE PUSH1 0x20 ADD PUSH1 0x3 DUP3 ADD PUSH0 SWAP1 SLOAD SWAP1 PUSH2 0x100 EXP SWAP1 DIV PUSH1 0xFF AND ISZERO ISZERO ISZERO ISZERO DUP2 MSTORE POP POP SWAP1 POP PUSH0 PUSH20 0xFFFFFFFFFFFFFFFFFFFFFFFFFFFFFFFFFFFFFFFF AND DUP2 PUSH0 ADD MLOAD PUSH20 0xFFFFFFFFFFFFFFFFFFFFFFFFFFFFFFFFFFFFFFFF AND SUB PUSH2 0x73D JUMPI PUSH1 0x40 MLOAD PUSH32 0xE142361700000000000000000000000000000000000000000000000000000000 DUP2 MSTORE PUSH1 0x4 ADD PUSH1 0x40 MLOAD DUP1 SWAP2 SUB SWAP1 REVERT JUMPDEST PUSH0 DUP2 PUSH0 ADD MLOAD SWAP1 POP PUSH0 DUP2 PUSH20 0xFFFFFFFFFFFFFFFFFFFFFFFFFFFFFFFFFFFFFFFF AND PUSH4 0x70A08231 ADDRESS PUSH1 0x40 MLOAD DUP3 PUSH4 0xFFFFFFFF AND PUSH1 0xE0 SHL DUP2 MSTORE PUSH1 0x4 ADD PUSH2 0x77E SWAP2 SWAP1 PUSH2 0x1FAF JUMP JUMPDEST PUSH1 0x20 PUSH1 0x40 MLOAD DUP1 DUP4 SUB DUP2 DUP7 GAS STATICCALL ISZERO DUP1 ISZERO PUSH2 0x799 JUMPI RETURNDATASIZE PUSH0 PUSH0 RETURNDATACOPY RETURNDATASIZE PUSH0 REVERT JUMPDEST POP POP POP POP PUSH1 0x40 MLOAD RETURNDATASIZE PUSH1 0x1F NOT PUSH1 0x1F DUP3 ADD AND DUP3 ADD DUP1 PUSH1 0x40 MSTORE POP DUP2 ADD SWAP1 PUSH2 0x7BD SWAP2 SWAP1 PUSH2 0x2340 JUMP JUMPDEST SWAP1 POP PUSH0 PUSH0 SWAP1 POP JUMPDEST DUP2 DUP2 LT ISZERO PUSH2 0x8C4 JUMPI PUSH0 DUP4 PUSH20 0xFFFFFFFFFFFFFFFFFFFFFFFFFFFFFFFFFFFFFFFF AND PUSH4 0x2F745C59 ADDRESS PUSH0 PUSH1 0x40 MLOAD DUP4 PUSH4 0xFFFFFFFF AND PUSH1 0xE0 SHL DUP2 MSTORE PUSH1 0x4 ADD PUSH2 0x808 SWAP3 SWAP2 SWAP1 PUSH2 0x23A4 JUMP JUMPDEST PUSH1 0x20 PUSH1 0x40 MLOAD DUP1 DUP4 SUB DUP2 DUP7 GAS STATICCALL ISZERO DUP1 ISZERO PUSH2 0x823 JUMPI RETURNDATASIZE PUSH0 PUSH0 RETURNDATACOPY RETURNDATASIZE PUSH0 REVERT JUMPDEST POP POP POP POP PUSH1 0x40 MLOAD RETURNDATASIZE PUSH1 0x1F NOT PUSH1 0x1F DUP3 ADD AND DUP3 ADD DUP1 PUSH1 0x40 MSTORE POP DUP2 ADD SWAP1 PUSH2 0x847 SWAP2 SWAP1 PUSH2 0x2340 JUMP JUMPDEST SWAP1 POP DUP5 PUSH0 ADD MLOAD PUSH20 0xFFFFFFFFFFFFFFFFFFFFFFFFFFFFFFFFFFFFFFFF AND PUSH4 0x42842E0E ADDRESS DUP9 DUP5 PUSH1 0x40 MLOAD DUP5 PUSH4 0xFFFFFFFF AND PUSH1 0xE0 SHL DUP2 MSTORE PUSH1 0x4 ADD PUSH2 0x889 SWAP4 SWAP3 SWAP2 SWAP1 PUSH2 0x2283 JUMP JUMPDEST PUSH0 PUSH1 0x40 MLOAD DUP1 DUP4 SUB DUP2 PUSH0 DUP8 DUP1 EXTCODESIZE ISZERO DUP1 ISZERO PUSH2 0x8A0 JUMPI PUSH0 PUSH0 REVERT JUMPDEST POP GAS CALL ISZERO DUP1 ISZERO PUSH2 0x8B2 JUMPI RETURNDATASIZE PUSH0 PUSH0 RETURNDATACOPY RETURNDATASIZE PUSH0 REVERT JUMPDEST POP POP POP POP POP DUP1 DUP1 PUSH1 0x1 ADD SWAP2 POP POP PUSH2 0x7C4 JUMP JUMPDEST POP POP POP POP POP POP JUMP JUMPDEST PUSH2 0x8D4 PUSH2 0x186C JUMP JUMPDEST PUSH0 DUP3 PUSH20 0xFFFFFFFFFFFFFFFFFFFFFFFFFFFFFFFFFFFFFFFF AND PUSH4 0x70A08231 ADDRESS PUSH1 0x40 MLOAD DUP3 PUSH4 0xFFFFFFFF AND PUSH1 0xE0 SHL DUP2 MSTORE PUSH1 0x4 ADD PUSH2 0x90E SWAP2 SWAP1 PUSH2 0x1FAF JUMP JUMPDEST PUSH1 0x20 PUSH1 0x40 MLOAD DUP1 DUP4 SUB DUP2 DUP7 GAS STATICCALL ISZERO DUP1 ISZERO PUSH2 0x929 JUMPI RETURNDATASIZE PUSH0 PUSH0 RETURNDATACOPY RETURNDATASIZE PUSH0 REVERT JUMPDEST POP POP POP POP PUSH1 0x40 MLOAD RETURNDATASIZE PUSH1 0x1F NOT PUSH1 0x1F DUP3 ADD AND DUP3 ADD DUP1 PUSH1 0x40 MSTORE POP DUP2 ADD SWAP1 PUSH2 0x94D SWAP2 SWAP1 PUSH2 0x2340 JUMP JUMPDEST SWAP1 POP DUP3 PUSH20 0xFFFFFFFFFFFFFFFFFFFFFFFFFFFFFFFFFFFFFFFF AND PUSH4 0xA9059CBB DUP4 DUP4 PUSH1 0x40 MLOAD DUP4 PUSH4 0xFFFFFFFF AND PUSH1 0xE0 SHL DUP2 MSTORE PUSH1 0x4 ADD PUSH2 0x98A SWAP3 SWAP2 SWAP1 PUSH2 0x23CB JUMP JUMPDEST PUSH1 0x20 PUSH1 0x40 MLOAD DUP1 DUP4 SUB DUP2 PUSH0 DUP8 GAS CALL ISZERO DUP1 ISZERO PUSH2 0x9A6 JUMPI RETURNDATASIZE PUSH0 PUSH0 RETURNDATACOPY RETURNDATASIZE PUSH0 REVERT JUMPDEST POP POP POP POP PUSH1 0x40 MLOAD RETURNDATASIZE PUSH1 0x1F NOT PUSH1 0x1F DUP3 ADD AND DUP3 ADD DUP1 PUSH1 0x40 MSTORE POP DUP2 ADD SWAP1 PUSH2 0x9CA SWAP2 SWAP1 PUSH2 0x2406 JUMP JUMPDEST POP POP POP POP JUMP JUMPDEST PUSH1 0x3 PUSH0 SWAP1 SLOAD SWAP1 PUSH2 0x100 EXP SWAP1 DIV PUSH20 0xFFFFFFFFFFFFFFFFFFFFFFFFFFFFFFFFFFFFFFFF AND DUP2 JUMP JUMPDEST PUSH2 0x9FD PUSH2 0x186C JUMP JUMPDEST PUSH2 0xA06 PUSH0 PUSH2 0x18F3 JUMP JUMPDEST JUMP JUMPDEST PUSH32 0x0 DUP2 JUMP JUMPDEST PUSH0 PUSH1 0x1 PUSH0 SWAP1 SLOAD SWAP1 PUSH2 0x100 EXP SWAP1 DIV PUSH20 0xFFFFFFFFFFFFFFFFFFFFFFFFFFFFFFFFFFFFFFFF AND SWAP1 POP SWAP1 JUMP JUMPDEST PUSH2 0xA5C PUSH2 0x19B6 JUMP JUMPDEST PUSH0 PUSH1 0x2 PUSH0 DUP4 DUP2 MSTORE PUSH1 0x20 ADD SWAP1 DUP2 MSTORE PUSH1 0x20 ADD PUSH0 KECCAK256 PUSH1 0x40 MLOAD DUP1 PUSH1 0x80 ADD PUSH1 0x40 MSTORE SWAP1 DUP2 PUSH0 DUP3 ADD PUSH0 SWAP1 SLOAD SWAP1 PUSH2 0x100 EXP SWAP1 DIV PUSH20 0xFFFFFFFFFFFFFFFFFFFFFFFFFFFFFFFFFFFFFFFF AND PUSH20 0xFFFFFFFFFFFFFFFFFFFFFFFFFFFFFFFFFFFFFFFF AND PUSH20 0xFFFFFFFFFFFFFFFFFFFFFFFFFFFFFFFFFFFFFFFF AND DUP2 MSTORE PUSH1 0x20 ADD PUSH1 0x1 DUP3 ADD SLOAD DUP2 MSTORE PUSH1 0x20 ADD PUSH1 0x2 DUP3 ADD SLOAD DUP2 MSTORE PUSH1 0x20 ADD PUSH1 0x3 DUP3 ADD PUSH0 SWAP1 SLOAD SWAP1 PUSH2 0x100 EXP SWAP1 DIV PUSH1 0xFF AND ISZERO ISZERO ISZERO ISZERO DUP2 MSTORE POP POP SWAP1 POP PUSH0 PUSH20 0xFFFFFFFFFFFFFFFFFFFFFFFFFFFFFFFFFFFFFFFF AND DUP2 PUSH0 ADD MLOAD PUSH20 0xFFFFFFFFFFFFFFFFFFFFFFFFFFFFFFFFFFFFFFFF AND SUB PUSH2 0xB65 JUMPI PUSH1 0x40 MLOAD PUSH32 0xE142361700000000000000000000000000000000000000000000000000000000 DUP2 MSTORE PUSH1 0x4 ADD PUSH1 0x40 MLOAD DUP1 SWAP2 SUB SWAP1 REVERT JUMPDEST DUP1 PUSH1 0x60 ADD MLOAD ISZERO DUP1 PUSH2 0xB79 JUMPI POP PUSH0 DUP2 PUSH1 0x20 ADD MLOAD EQ JUMPDEST ISZERO PUSH2 0xBB0 JUMPI PUSH1 0x40 MLOAD PUSH32 0x94D366B500000000000000000000000000000000000000000000000000000000 DUP2 MSTORE PUSH1 0x4 ADD PUSH1 0x40 MLOAD DUP1 SWAP2 SUB SWAP1 REVERT JUMPDEST DUP1 PUSH1 0x20 ADD MLOAD CALLVALUE EQ PUSH2 0xBED JUMPI PUSH1 0x40 MLOAD PUSH32 0xB0CCCA4500000000000000000000000000000000000000000000000000000000 DUP2 MSTORE PUSH1 0x4 ADD PUSH1 0x40 MLOAD DUP1 SWAP2 SUB SWAP1 REVERT JUMPDEST PUSH0 PUSH2 0xBFA DUP3 PUSH0 ADD MLOAD PUSH2 0x1A03 JUMP JUMPDEST SWAP1 POP PUSH0 PUSH1 0x3 PUSH0 SWAP1 SLOAD SWAP1 PUSH2 0x100 EXP SWAP1 DIV PUSH20 0xFFFFFFFFFFFFFFFFFFFFFFFFFFFFFFFFFFFFFFFF AND PUSH20 0xFFFFFFFFFFFFFFFFFFFFFFFFFFFFFFFFFFFFFFFF AND CALLVALUE PUSH1 0x40 MLOAD PUSH2 0xC42 SWAP1 PUSH2 0x245E JUMP JUMPDEST PUSH0 PUSH1 0x40 MLOAD DUP1 DUP4 SUB DUP2 DUP6 DUP8 GAS CALL SWAP3 POP POP POP RETURNDATASIZE DUP1 PUSH0 DUP2 EQ PUSH2 0xC7C JUMPI PUSH1 0x40 MLOAD SWAP2 POP PUSH1 0x1F NOT PUSH1 0x3F RETURNDATASIZE ADD AND DUP3 ADD PUSH1 0x40 MSTORE RETURNDATASIZE DUP3 MSTORE RETURNDATASIZE PUSH0 PUSH1 0x20 DUP5 ADD RETURNDATACOPY PUSH2 0xC81 JUMP JUMPDEST PUSH1 0x60 SWAP2 POP JUMPDEST POP POP SWAP1 POP DUP1 PUSH2 0xCC5 JUMPI PUSH1 0x40 MLOAD PUSH32 0x8C379A000000000000000000000000000000000000000000000000000000000 DUP2 MSTORE PUSH1 0x4 ADD PUSH2 0xCBC SWAP1 PUSH2 0x24CC JUMP JUMPDEST PUSH1 0x40 MLOAD DUP1 SWAP2 SUB SWAP1 REVERT JUMPDEST DUP3 PUSH0 ADD MLOAD PUSH20 0xFFFFFFFFFFFFFFFFFFFFFFFFFFFFFFFFFFFFFFFF AND PUSH4 0x42842E0E ADDRESS CALLER DUP6 PUSH1 0x40 MLOAD DUP5 PUSH4 0xFFFFFFFF AND PUSH1 0xE0 SHL DUP2 MSTORE PUSH1 0x4 ADD PUSH2 0xD05 SWAP4 SWAP3 SWAP2 SWAP1 PUSH2 0x2283 JUMP JUMPDEST PUSH0 PUSH1 0x40 MLOAD DUP1 DUP4 SUB DUP2 PUSH0 DUP8 DUP1 EXTCODESIZE ISZERO DUP1 ISZERO PUSH2 0xD1C JUMPI PUSH0 PUSH0 REVERT JUMPDEST POP GAS CALL ISZERO DUP1 ISZERO PUSH2 0xD2E JUMPI RETURNDATASIZE PUSH0 PUSH0 RETURNDATACOPY RETURNDATASIZE PUSH0 REVERT JUMPDEST POP POP POP POP POP POP POP PUSH2 0xD3D PUSH2 0x1B3F JUMP JUMPDEST POP JUMP JUMPDEST PUSH2 0xD48 PUSH2 0x186C JUMP JUMPDEST PUSH0 PUSH1 0x2 PUSH0 DUP6 DUP2 MSTORE PUSH1 0x20 ADD SWAP1 DUP2 MSTORE PUSH1 0x20 ADD PUSH0 KECCAK256 PUSH1 0x40 MLOAD DUP1 PUSH1 0x80 ADD PUSH1 0x40 MSTORE SWAP1 DUP2 PUSH0 DUP3 ADD PUSH0 SWAP1 SLOAD SWAP1 PUSH2 0x100 EXP SWAP1 DIV PUSH20 0xFFFFFFFFFFFFFFFFFFFFFFFFFFFFFFFFFFFFFFFF AND PUSH20 0xFFFFFFFFFFFFFFFFFFFFFFFFFFFFFFFFFFFFFFFF AND PUSH20 0xFFFFFFFFFFFFFFFFFFFFFFFFFFFFFFFFFFFFFFFF AND DUP2 MSTORE PUSH1 0x20 ADD PUSH1 0x1 DUP3 ADD SLOAD DUP2 MSTORE PUSH1 0x20 ADD PUSH1 0x2 DUP3 ADD SLOAD DUP2 MSTORE PUSH1 0x20 ADD PUSH1 0x3 DUP3 ADD PUSH0 SWAP1 SLOAD SWAP1 PUSH2 0x100 EXP SWAP1 DIV PUSH1 0xFF AND ISZERO ISZERO ISZERO ISZERO DUP2 MSTORE POP POP SWAP1 POP PUSH0 PUSH20 0xFFFFFFFFFFFFFFFFFFFFFFFFFFFFFFFFFFFFFFFF AND DUP2 PUSH0 ADD MLOAD PUSH20 0xFFFFFFFFFFFFFFFFFFFFFFFFFFFFFFFFFFFFFFFF AND SUB PUSH2 0xE51 JUMPI PUSH1 0x40 MLOAD PUSH32 0xE142361700000000000000000000000000000000000000000000000000000000 DUP2 MSTORE PUSH1 0x4 ADD PUSH1 0x40 MLOAD DUP1 SWAP2 SUB SWAP1 REVERT JUMPDEST DUP1 PUSH0 ADD MLOAD PUSH20 0xFFFFFFFFFFFFFFFFFFFFFFFFFFFFFFFFFFFFFFFF AND PUSH4 0x42842E0E ADDRESS DUP5 DUP7 PUSH1 0x40 MLOAD DUP5 PUSH4 0xFFFFFFFF AND PUSH1 0xE0 SHL DUP2 MSTORE PUSH1 0x4 ADD PUSH2 0xE91 SWAP4 SWAP3 SWAP2 SWAP1 PUSH2 0x2283 JUMP JUMPDEST PUSH0 PUSH1 0x40 MLOAD DUP1 DUP4 SUB DUP2 PUSH0 DUP8 DUP1 EXTCODESIZE ISZERO DUP1 ISZERO PUSH2 0xEA8 JUMPI PUSH0 PUSH0 REVERT JUMPDEST POP GAS CALL ISZERO DUP1 ISZERO PUSH2 0xEBA JUMPI RETURNDATASIZE PUSH0 PUSH0 RETURNDATACOPY RETURNDATASIZE PUSH0 REVERT JUMPDEST POP POP POP POP POP POP POP POP JUMP JUMPDEST PUSH2 0xECC PUSH2 0x19B6 JUMP JUMPDEST PUSH0 PUSH1 0x2 PUSH0 DUP4 DUP2 MSTORE PUSH1 0x20 ADD SWAP1 DUP2 MSTORE PUSH1 0x20 ADD PUSH0 KECCAK256 PUSH1 0x40 MLOAD DUP1 PUSH1 0x80 ADD PUSH1 0x40 MSTORE SWAP1 DUP2 PUSH0 DUP3 ADD PUSH0 SWAP1 SLOAD SWAP1 PUSH2 0x100 EXP SWAP1 DIV PUSH20 0xFFFFFFFFFFFFFFFFFFFFFFFFFFFFFFFFFFFFFFFF AND PUSH20 0xFFFFFFFFFFFFFFFFFFFFFFFFFFFFFFFFFFFFFFFF AND PUSH20 0xFFFFFFFFFFFFFFFFFFFFFFFFFFFFFFFFFFFFFFFF AND DUP2 MSTORE PUSH1 0x20 ADD PUSH1 0x1 DUP3 ADD SLOAD DUP2 MSTORE PUSH1 0x20 ADD PUSH1 0x2 DUP3 ADD SLOAD DUP2 MSTORE PUSH1 0x20 ADD PUSH1 0x3 DUP3 ADD PUSH0 SWAP1 SLOAD SWAP1 PUSH2 0x100 EXP SWAP1 DIV PUSH1 0xFF AND ISZERO ISZERO ISZERO ISZERO DUP2 MSTORE POP POP SWAP1 POP PUSH0 PUSH20 0xFFFFFFFFFFFFFFFFFFFFFFFFFFFFFFFFFFFFFFFF AND DUP2 PUSH0 ADD MLOAD PUSH20 0xFFFFFFFFFFFFFFFFFFFFFFFFFFFFFFFFFFFFFFFF AND SUB PUSH2 0xFD5 JUMPI PUSH1 0x40 MLOAD PUSH32 0xE142361700000000000000000000000000000000000000000000000000000000 DUP2 MSTORE PUSH1 0x4 ADD PUSH1 0x40 MLOAD DUP1 SWAP2 SUB SWAP1 REVERT JUMPDEST DUP1 PUSH1 0x60 ADD MLOAD ISZERO DUP1 PUSH2 0xFE9 JUMPI POP PUSH0 DUP2 PUSH1 0x40 ADD MLOAD EQ JUMPDEST ISZERO PUSH2 0x1020 JUMPI PUSH1 0x40 MLOAD PUSH32 0x94D366B500000000000000000000000000000000000000000000000000000000 DUP2 MSTORE PUSH1 0x4 ADD PUSH1 0x40 MLOAD DUP1 SWAP2 SUB SWAP1 REVERT JUMPDEST PUSH0 PUSH2 0x102D DUP3 PUSH0 ADD MLOAD PUSH2 0x1A03 JUMP JUMPDEST SWAP1 POP PUSH2 0x1080 CALLER ADDRESS DUP5 PUSH1 0x40 ADD MLOAD PUSH32 0x0 PUSH20 0xFFFFFFFFFFFFFFFFFFFFFFFFFFFFFFFFFFFFFFFF AND PUSH2 0x1B48 SWAP1 SWAP4 SWAP3 SWAP2 SWAP1 PUSH4 0xFFFFFFFF AND JUMP JUMPDEST PUSH2 0x10F0 PUSH1 0x3 PUSH0 SWAP1 SLOAD SWAP1 PUSH2 0x100 EXP SWAP1 DIV PUSH20 0xFFFFFFFFFFFFFFFFFFFFFFFFFFFFFFFFFFFFFFFF AND DUP4 PUSH1 0x40 ADD MLOAD PUSH32 0x0 PUSH20 0xFFFFFFFFFFFFFFFFFFFFFFFFFFFFFFFFFFFFFFFF AND PUSH2 0x1BCA SWAP1 SWAP3 SWAP2 SWAP1 PUSH4 0xFFFFFFFF AND JUMP JUMPDEST DUP2 PUSH0 ADD MLOAD PUSH20 0xFFFFFFFFFFFFFFFFFFFFFFFFFFFFFFFFFFFFFFFF AND PUSH4 0x42842E0E ADDRESS CALLER DUP5 PUSH1 0x40 MLOAD DUP5 PUSH4 0xFFFFFFFF AND PUSH1 0xE0 SHL DUP2 MSTORE PUSH1 0x4 ADD PUSH2 0x1130 SWAP4 SWAP3 SWAP2 SWAP1 PUSH2 0x2283 JUMP JUMPDEST PUSH0 PUSH1 0x40 MLOAD DUP1 DUP4 SUB DUP2 PUSH0 DUP8 DUP1 EXTCODESIZE ISZERO DUP1 ISZERO PUSH2 0x1147 JUMPI PUSH0 PUSH0 REVERT JUMPDEST POP GAS CALL ISZERO DUP1 ISZERO PUSH2 0x1159 JUMPI RETURNDATASIZE PUSH0 PUSH0 RETURNDATACOPY RETURNDATASIZE PUSH0 REVERT JUMPDEST POP POP POP POP POP POP PUSH2 0x1167 PUSH2 0x1B3F JUMP JUMPDEST POP JUMP JUMPDEST PUSH2 0x1172 PUSH2 0x186C JUMP JUMPDEST PUSH1 0x40 MLOAD DUP1 PUSH1 0x80 ADD PUSH1 0x40 MSTORE DUP1 DUP6 PUSH20 0xFFFFFFFFFFFFFFFFFFFFFFFFFFFFFFFFFFFFFFFF AND DUP2 MSTORE PUSH1 0x20 ADD DUP5 DUP2 MSTORE PUSH1 0x20 ADD DUP4 DUP2 MSTORE PUSH1 0x20 ADD DUP3 ISZERO ISZERO DUP2 MSTORE POP PUSH1 0x2 PUSH0 DUP8 DUP2 MSTORE PUSH1 0x20 ADD SWAP1 DUP2 MSTORE PUSH1 0x20 ADD PUSH0 KECCAK256 PUSH0 DUP3 ADD MLOAD DUP2 PUSH0 ADD PUSH0 PUSH2 0x100 EXP DUP2 SLOAD DUP2 PUSH20 0xFFFFFFFFFFFFFFFFFFFFFFFFFFFFFFFFFFFFFFFF MUL NOT AND SWAP1 DUP4 PUSH20 0xFFFFFFFFFFFFFFFFFFFFFFFFFFFFFFFFFFFFFFFF AND MUL OR SWAP1 SSTORE POP PUSH1 0x20 DUP3 ADD MLOAD DUP2 PUSH1 0x1 ADD SSTORE PUSH1 0x40 DUP3 ADD MLOAD DUP2 PUSH1 0x2 ADD SSTORE PUSH1 0x60 DUP3 ADD MLOAD DUP2 PUSH1 0x3 ADD PUSH0 PUSH2 0x100 EXP DUP2 SLOAD DUP2 PUSH1 0xFF MUL NOT AND SWAP1 DUP4 ISZERO ISZERO MUL OR SWAP1 SSTORE POP SWAP1 POP POP POP POP POP POP POP JUMP JUMPDEST PUSH2 0x1245 PUSH2 0x19B6 JUMP JUMPDEST PUSH0 PUSH1 0x2 PUSH0 DUP9 DUP2 MSTORE PUSH1 0x20 ADD SWAP1 DUP2 MSTORE PUSH1 0x20 ADD PUSH0 KECCAK256 PUSH1 0x40 MLOAD DUP1 PUSH1 0x80 ADD PUSH1 0x40 MSTORE SWAP1 DUP2 PUSH0 DUP3 ADD PUSH0 SWAP1 SLOAD SWAP1 PUSH2 0x100 EXP SWAP1 DIV PUSH20 0xFFFFFFFFFFFFFFFFFFFFFFFFFFFFFFFFFFFFFFFF AND PUSH20 0xFFFFFFFFFFFFFFFFFFFFFFFFFFFFFFFFFFFFFFFF AND PUSH20 0xFFFFFFFFFFFFFFFFFFFFFFFFFFFFFFFFFFFFFFFF AND DUP2 MSTORE PUSH1 0x20 ADD PUSH1 0x1 DUP3 ADD SLOAD DUP2 MSTORE PUSH1 0x20 ADD PUSH1 0x2 DUP3 ADD SLOAD DUP2 MSTORE PUSH1 0x20 ADD PUSH1 0x3 DUP3 ADD PUSH0 SWAP1 SLOAD SWAP1 PUSH2 0x100 EXP SWAP1 DIV PUSH1 0xFF AND ISZERO ISZERO ISZERO ISZERO DUP2 MSTORE POP POP SWAP1 POP PUSH0 PUSH20 0xFFFFFFFFFFFFFFFFFFFFFFFFFFFFFFFFFFFFFFFF AND DUP2 PUSH0 ADD MLOAD PUSH20 0xFFFFFFFFFFFFFFFFFFFFFFFFFFFFFFFFFFFFFFFF AND SUB PUSH2 0x134E JUMPI PUSH1 0x40 MLOAD PUSH32 0xE142361700000000000000000000000000000000000000000000000000000000 DUP2 MSTORE PUSH1 0x4 ADD PUSH1 0x40 MLOAD DUP1 SWAP2 SUB SWAP1 REVERT JUMPDEST DUP1 PUSH1 0x60 ADD MLOAD ISZERO DUP1 PUSH2 0x1362 JUMPI POP PUSH0 DUP2 PUSH1 0x40 ADD MLOAD EQ JUMPDEST ISZERO PUSH2 0x1399 JUMPI PUSH1 0x40 MLOAD PUSH32 0x94D366B500000000000000000000000000000000000000000000000000000000 DUP2 MSTORE PUSH1 0x4 ADD PUSH1 0x40 MLOAD DUP1 SWAP2 SUB SWAP1 REVERT JUMPDEST DUP1 PUSH1 0x40 ADD MLOAD DUP7 EQ PUSH2 0x13DF JUMPI PUSH1 0x40 MLOAD PUSH32 0x8C379A000000000000000000000000000000000000000000000000000000000 DUP2 MSTORE PUSH1 0x4 ADD PUSH2 0x13D6 SWAP1 PUSH2 0x2534 JUMP JUMPDEST PUSH1 0x40 MLOAD DUP1 SWAP2 SUB SWAP1 REVERT JUMPDEST PUSH32 0x0 PUSH20 0xFFFFFFFFFFFFFFFFFFFFFFFFFFFFFFFFFFFFFFFF AND PUSH4 0xD505ACCF CALLER ADDRESS DUP10 DUP10 DUP10 DUP10 DUP10 PUSH1 0x40 MLOAD DUP9 PUSH4 0xFFFFFFFF AND PUSH1 0xE0 SHL DUP2 MSTORE PUSH1 0x4 ADD PUSH2 0x1444 SWAP8 SWAP7 SWAP6 SWAP5 SWAP4 SWAP3 SWAP2 SWAP1 PUSH2 0x2570 JUMP JUMPDEST PUSH0 PUSH1 0x40 MLOAD DUP1 DUP4 SUB DUP2 PUSH0 DUP8 DUP1 EXTCODESIZE ISZERO DUP1 ISZERO PUSH2 0x145B JUMPI PUSH0 PUSH0 REVERT JUMPDEST POP GAS CALL ISZERO DUP1 ISZERO PUSH2 0x146D JUMPI RETURNDATASIZE PUSH0 PUSH0 RETURNDATACOPY RETURNDATASIZE PUSH0 REVERT JUMPDEST POP POP POP POP PUSH2 0x147A DUP8 PUSH2 0xEC4 JUMP JUMPDEST POP PUSH2 0x1483 PUSH2 0x1B3F JUMP JUMPDEST POP POP POP POP POP POP JUMP JUMPDEST PUSH2 0x1493 PUSH2 0x186C JUMP JUMPDEST PUSH0 PUSH1 0x2 PUSH0 DUP6 DUP2 MSTORE PUSH1 0x20 ADD SWAP1 DUP2 MSTORE PUSH1 0x20 ADD PUSH0 KECCAK256 PUSH1 0x40 MLOAD DUP1 PUSH1 0x80 ADD PUSH1 0x40 MSTORE SWAP1 DUP2 PUSH0 DUP3 ADD PUSH0 SWAP1 SLOAD SWAP1 PUSH2 0x100 EXP SWAP1 DIV PUSH20 0xFFFFFFFFFFFFFFFFFFFFFFFFFFFFFFFFFFFFFFFF AND PUSH20 0xFFFFFFFFFFFFFFFFFFFFFFFFFFFFFFFFFFFFFFFF AND PUSH20 0xFFFFFFFFFFFFFFFFFFFFFFFFFFFFFFFFFFFFFFFF AND DUP2 MSTORE PUSH1 0x20 ADD PUSH1 0x1 DUP3 ADD SLOAD DUP2 MSTORE PUSH1 0x20 ADD PUSH1 0x2 DUP3 ADD SLOAD DUP2 MSTORE PUSH1 0x20 ADD PUSH1 0x3 DUP3 ADD PUSH0 SWAP1 SLOAD SWAP1 PUSH2 0x100 EXP SWAP1 DIV PUSH1 0xFF AND ISZERO ISZERO ISZERO ISZERO DUP2 MSTORE POP POP SWAP1 POP PUSH0 PUSH20 0xFFFFFFFFFFFFFFFFFFFFFFFFFFFFFFFFFFFFFFFF AND DUP2 PUSH0 ADD MLOAD PUSH20 0xFFFFFFFFFFFFFFFFFFFFFFFFFFFFFFFFFFFFFFFF AND SUB PUSH2 0x159C JUMPI PUSH1 0x40 MLOAD PUSH32 0xE142361700000000000000000000000000000000000000000000000000000000 DUP2 MSTORE PUSH1 0x4 ADD PUSH1 0x40 MLOAD DUP1 SWAP2 SUB SWAP1 REVERT JUMPDEST PUSH0 DUP2 PUSH0 ADD MLOAD SWAP1 POP PUSH0 DUP2 PUSH20 0xFFFFFFFFFFFFFFFFFFFFFFFFFFFFFFFFFFFFFFFF AND PUSH4 0x70A08231 ADDRESS PUSH1 0x40 MLOAD DUP3 PUSH4 0xFFFFFFFF AND PUSH1 0xE0 SHL DUP2 MSTORE PUSH1 0x4 ADD PUSH2 0x15DD SWAP2 SWAP1 PUSH2 0x1FAF JUMP JUMPDEST PUSH1 0x20 PUSH1 0x40 MLOAD DUP1 DUP4 SUB DUP2 DUP7 GAS STATICCALL ISZERO DUP1 ISZERO PUSH2 0x15F8 JUMPI RETURNDATASIZE PUSH0 PUSH0 RETURNDATACOPY RETURNDATASIZE PUSH0 REVERT JUMPDEST POP POP POP POP PUSH1 0x40 MLOAD RETURNDATASIZE PUSH1 0x1F NOT PUSH1 0x1F DUP3 ADD AND DUP3 ADD DUP1 PUSH1 0x40 MSTORE POP DUP2 ADD SWAP1 PUSH2 0x161C SWAP2 SWAP1 PUSH2 0x2340 JUMP JUMPDEST SWAP1 POP DUP1 DUP6 GT ISZERO PUSH2 0x162A JUMPI DUP1 SWAP5 POP JUMPDEST PUSH0 PUSH0 SWAP1 POP JUMPDEST DUP6 DUP2 LT ISZERO PUSH2 0x172F JUMPI PUSH0 DUP4 PUSH20 0xFFFFFFFFFFFFFFFFFFFFFFFFFFFFFFFFFFFFFFFF AND PUSH4 0x2F745C59 ADDRESS PUSH0 PUSH1 0x40 MLOAD DUP4 PUSH4 0xFFFFFFFF AND PUSH1 0xE0 SHL DUP2 MSTORE PUSH1 0x4 ADD PUSH2 0x1673 SWAP3 SWAP2 SWAP1 PUSH2 0x23A4 JUMP JUMPDEST PUSH1 0x20 PUSH1 0x40 MLOAD DUP1 DUP4 SUB DUP2 DUP7 GAS STATICCALL ISZERO DUP1 ISZERO PUSH2 0x168E JUMPI RETURNDATASIZE PUSH0 PUSH0 RETURNDATACOPY RETURNDATASIZE PUSH0 REVERT JUMPDEST POP POP POP POP PUSH1 0x40 MLOAD RETURNDATASIZE PUSH1 0x1F NOT PUSH1 0x1F DUP3 ADD AND DUP3 ADD DUP1 PUSH1 0x40 MSTORE POP DUP2 ADD SWAP1 PUSH2 0x16B2 SWAP2 SWAP1 PUSH2 0x2340 JUMP JUMPDEST SWAP1 POP DUP5 PUSH0 ADD MLOAD PUSH20 0xFFFFFFFFFFFFFFFFFFFFFFFFFFFFFFFFFFFFFFFF AND PUSH4 0x42842E0E ADDRESS DUP9 DUP5 PUSH1 0x40 MLOAD DUP5 PUSH4 0xFFFFFFFF AND PUSH1 0xE0 SHL DUP2 MSTORE PUSH1 0x4 ADD PUSH2 0x16F4 SWAP4 SWAP3 SWAP2 SWAP1 PUSH2 0x2283 JUMP JUMPDEST PUSH0 PUSH1 0x40 MLOAD DUP1 DUP4 SUB DUP2 PUSH0 DUP8 DUP1 EXTCODESIZE ISZERO DUP1 ISZERO PUSH2 0x170B JUMPI PUSH0 PUSH0 REVERT JUMPDEST POP GAS CALL ISZERO DUP1 ISZERO PUSH2 0x171D JUMPI RETURNDATASIZE PUSH0 PUSH0 RETURNDATACOPY RETURNDATASIZE PUSH0 REVERT JUMPDEST POP POP POP POP POP DUP1 DUP1 PUSH1 0x1 ADD SWAP2 POP POP PUSH2 0x162F JUMP JUMPDEST POP POP POP POP POP POP POP JUMP JUMPDEST PUSH2 0x1740 PUSH2 0x186C JUMP JUMPDEST PUSH0 PUSH20 0xFFFFFFFFFFFFFFFFFFFFFFFFFFFFFFFFFFFFFFFF AND DUP2 PUSH20 0xFFFFFFFFFFFFFFFFFFFFFFFFFFFFFFFFFFFFFFFF AND SUB PUSH2 0x17A5 JUMPI PUSH1 0x40 MLOAD PUSH32 0xD92E233D00000000000000000000000000000000000000000000000000000000 DUP2 MSTORE PUSH1 0x4 ADD PUSH1 0x40 MLOAD DUP1 SWAP2 SUB SWAP1 REVERT JUMPDEST DUP1 PUSH1 0x3 PUSH0 PUSH2 0x100 EXP DUP2 SLOAD DUP2 PUSH20 0xFFFFFFFFFFFFFFFFFFFFFFFFFFFFFFFFFFFFFFFF MUL NOT AND SWAP1 DUP4 PUSH20 0xFFFFFFFFFFFFFFFFFFFFFFFFFFFFFFFFFFFFFFFF AND MUL OR SWAP1 SSTORE POP POP JUMP JUMPDEST PUSH2 0x17F0 PUSH2 0x186C JUMP JUMPDEST PUSH0 PUSH20 0xFFFFFFFFFFFFFFFFFFFFFFFFFFFFFFFFFFFFFFFF AND DUP2 PUSH20 0xFFFFFFFFFFFFFFFFFFFFFFFFFFFFFFFFFFFFFFFF AND SUB PUSH2 0x1860 JUMPI PUSH0 PUSH1 0x40 MLOAD PUSH32 0x1E4FBDF700000000000000000000000000000000000000000000000000000000 DUP2 MSTORE PUSH1 0x4 ADD PUSH2 0x1857 SWAP2 SWAP1 PUSH2 0x1FAF JUMP JUMPDEST PUSH1 0x40 MLOAD DUP1 SWAP2 SUB SWAP1 REVERT JUMPDEST PUSH2 0x1869 DUP2 PUSH2 0x18F3 JUMP JUMPDEST POP JUMP JUMPDEST PUSH2 0x1874 PUSH2 0x1C49 JUMP JUMPDEST PUSH20 0xFFFFFFFFFFFFFFFFFFFFFFFFFFFFFFFFFFFFFFFF AND PUSH2 0x1892 PUSH2 0xA2C JUMP JUMPDEST PUSH20 0xFFFFFFFFFFFFFFFFFFFFFFFFFFFFFFFFFFFFFFFF AND EQ PUSH2 0x18F1 JUMPI PUSH2 0x18B5 PUSH2 0x1C49 JUMP JUMPDEST PUSH1 0x40 MLOAD PUSH32 0x118CDAA700000000000000000000000000000000000000000000000000000000 DUP2 MSTORE PUSH1 0x4 ADD PUSH2 0x18E8 SWAP2 SWAP1 PUSH2 0x1FAF JUMP JUMPDEST PUSH1 0x40 MLOAD DUP1 SWAP2 SUB SWAP1 REVERT JUMPDEST JUMP JUMPDEST PUSH0 PUSH1 0x1 PUSH0 SWAP1 SLOAD SWAP1 PUSH2 0x100 EXP SWAP1 DIV PUSH20 0xFFFFFFFFFFFFFFFFFFFFFFFFFFFFFFFFFFFFFFFF AND SWAP1 POP DUP2 PUSH1 0x1 PUSH0 PUSH2 0x100 EXP DUP2 SLOAD DUP2 PUSH20 0xFFFFFFFFFFFFFFFFFFFFFFFFFFFFFFFFFFFFFFFF MUL NOT AND SWAP1 DUP4 PUSH20 0xFFFFFFFFFFFFFFFFFFFFFFFFFFFFFFFFFFFFFFFF AND MUL OR SWAP1 SSTORE POP DUP2 PUSH20 0xFFFFFFFFFFFFFFFFFFFFFFFFFFFFFFFFFFFFFFFF AND DUP2 PUSH20 0xFFFFFFFFFFFFFFFFFFFFFFFFFFFFFFFFFFFFFFFF AND PUSH32 0x8BE0079C531659141344CD1FD0A4F28419497F9722A3DAAFE3B4186F6B6457E0 PUSH1 0x40 MLOAD PUSH1 0x40 MLOAD DUP1 SWAP2 SUB SWAP1 LOG3 POP POP JUMP JUMPDEST PUSH1 0x2 PUSH0 SLOAD SUB PUSH2 0x19FA JUMPI PUSH1 0x40 MLOAD PUSH32 0x8C379A000000000000000000000000000000000000000000000000000000000 DUP2 MSTORE PUSH1 0x4 ADD PUSH2 0x19F1 SWAP1 PUSH2 0x2627 JUMP JUMPDEST PUSH1 0x40 MLOAD DUP1 SWAP2 SUB SWAP1 REVERT JUMPDEST PUSH1 0x2 PUSH0 DUP2 SWAP1 SSTORE POP JUMP JUMPDEST PUSH0 PUSH0 DUP3 SWAP1 POP PUSH0 DUP2 PUSH20 0xFFFFFFFFFFFFFFFFFFFFFFFFFFFFFFFFFFFFFFFF AND PUSH4 0x70A08231 ADDRESS PUSH1 0x40 MLOAD DUP3 PUSH4 0xFFFFFFFF AND PUSH1 0xE0 SHL DUP2 MSTORE PUSH1 0x4 ADD PUSH2 0x1A42 SWAP2 SWAP1 PUSH2 0x1FAF JUMP JUMPDEST PUSH1 0x20 PUSH1 0x40 MLOAD DUP1 DUP4 SUB DUP2 DUP7 GAS STATICCALL ISZERO DUP1 ISZERO PUSH2 0x1A5D JUMPI RETURNDATASIZE PUSH0 PUSH0 RETURNDATACOPY RETURNDATASIZE PUSH0 REVERT JUMPDEST POP POP POP POP PUSH1 0x40 MLOAD RETURNDATASIZE PUSH1 0x1F NOT PUSH1 0x1F DUP3 ADD AND DUP3 ADD DUP1 PUSH1 0x40 MSTORE POP DUP2 ADD SWAP1 PUSH2 0x1A81 SWAP2 SWAP1 PUSH2 0x2340 JUMP JUMPDEST SWAP1 POP PUSH0 DUP2 SUB PUSH2 0x1ABC JUMPI PUSH1 0x40 MLOAD PUSH32 0x52DF9FE500000000000000000000000000000000000000000000000000000000 DUP2 MSTORE PUSH1 0x4 ADD PUSH1 0x40 MLOAD DUP1 SWAP2 SUB SWAP1 REVERT JUMPDEST DUP2 PUSH20 0xFFFFFFFFFFFFFFFFFFFFFFFFFFFFFFFFFFFFFFFF AND PUSH4 0x2F745C59 ADDRESS PUSH0 PUSH1 0x40 MLOAD DUP4 PUSH4 0xFFFFFFFF AND PUSH1 0xE0 SHL DUP2 MSTORE PUSH1 0x4 ADD PUSH2 0x1AF7 SWAP3 SWAP2 SWAP1 PUSH2 0x23A4 JUMP JUMPDEST PUSH1 0x20 PUSH1 0x40 MLOAD DUP1 DUP4 SUB DUP2 DUP7 GAS STATICCALL ISZERO DUP1 ISZERO PUSH2 0x1B12 JUMPI RETURNDATASIZE PUSH0 PUSH0 RETURNDATACOPY RETURNDATASIZE PUSH0 REVERT JUMPDEST POP POP POP POP PUSH1 0x40 MLOAD RETURNDATASIZE PUSH1 0x1F NOT PUSH1 0x1F DUP3 ADD AND DUP3 ADD DUP1 PUSH1 0x40 MSTORE POP DUP2 ADD SWAP1 PUSH2 0x1B36 SWAP2 SWAP1 PUSH2 0x2340 JUMP JUMPDEST SWAP3 POP POP POP SWAP2 SWAP1 POP JUMP JUMPDEST PUSH1 0x1 PUSH0 DUP2 SWAP1 SSTORE POP JUMP JUMPDEST PUSH2 0x1BC4 DUP5 DUP6 PUSH20 0xFFFFFFFFFFFFFFFFFFFFFFFFFFFFFFFFFFFFFFFF AND PUSH4 0x23B872DD DUP7 DUP7 DUP7 PUSH1 0x40 MLOAD PUSH1 0x24 ADD PUSH2 0x1B7D SWAP4 SWAP3 SWAP2 SWAP1 PUSH2 0x2283 JUMP JUMPDEST PUSH1 0x40 MLOAD PUSH1 0x20 DUP2 DUP4 SUB SUB DUP2 MSTORE SWAP1 PUSH1 0x40 MSTORE SWAP2 POP PUSH1 0xE0 SHL PUSH1 0x20 DUP3 ADD DUP1 MLOAD PUSH28 0xFFFFFFFFFFFFFFFFFFFFFFFFFFFFFFFFFFFFFFFFFFFFFFFFFFFFFFFF DUP4 DUP2 DUP4 AND OR DUP4 MSTORE POP POP POP POP PUSH2 0x1C50 JUMP JUMPDEST POP POP POP POP JUMP JUMPDEST PUSH2 0x1C44 DUP4 DUP5 PUSH20 0xFFFFFFFFFFFFFFFFFFFFFFFFFFFFFFFFFFFFFFFF AND PUSH4 0xA9059CBB DUP6 DUP6 PUSH1 0x40 MLOAD PUSH1 0x24 ADD PUSH2 0x1BFD SWAP3 SWAP2 SWAP1 PUSH2 0x23CB JUMP JUMPDEST PUSH1 0x40 MLOAD PUSH1 0x20 DUP2 DUP4 SUB SUB DUP2 MSTORE SWAP1 PUSH1 0x40 MSTORE SWAP2 POP PUSH1 0xE0 SHL PUSH1 0x20 DUP3 ADD DUP1 MLOAD PUSH28 0xFFFFFFFFFFFFFFFFFFFFFFFFFFFFFFFFFFFFFFFFFFFFFFFFFFFFFFFF DUP4 DUP2 DUP4 AND OR DUP4 MSTORE POP POP POP POP PUSH2 0x1C50 JUMP JUMPDEST POP POP POP JUMP JUMPDEST PUSH0 CALLER SWAP1 POP SWAP1 JUMP JUMPDEST PUSH0 PUSH0 PUSH1 0x20 PUSH0 DUP5 MLOAD PUSH1 0x20 DUP7 ADD PUSH0 DUP9 GAS CALL DUP1 PUSH2 0x1C6F JUMPI PUSH1 0x40 MLOAD RETURNDATASIZE PUSH0 DUP3 RETURNDATACOPY RETURNDATASIZE DUP2 REVERT JUMPDEST RETURNDATASIZE SWAP3 POP PUSH0 MLOAD SWAP2 POP POP PUSH0 DUP3 EQ PUSH2 0x1C88 JUMPI PUSH1 0x1 DUP2 EQ ISZERO PUSH2 0x1CA3 JUMP JUMPDEST PUSH0 DUP5 PUSH20 0xFFFFFFFFFFFFFFFFFFFFFFFFFFFFFFFFFFFFFFFF AND EXTCODESIZE EQ JUMPDEST ISZERO PUSH2 0x1CE5 JUMPI DUP4 PUSH1 0x40 MLOAD PUSH32 0x5274AFE700000000000000000000000000000000000000000000000000000000 DUP2 MSTORE PUSH1 0x4 ADD PUSH2 0x1CDC SWAP2 SWAP1 PUSH2 0x1FAF JUMP JUMPDEST PUSH1 0x40 MLOAD DUP1 SWAP2 SUB SWAP1 REVERT JUMPDEST POP POP POP POP JUMP JUMPDEST PUSH0 PUSH0 REVERT JUMPDEST PUSH0 DUP2 SWAP1 POP SWAP2 SWAP1 POP JUMP JUMPDEST PUSH2 0x1D01 DUP2 PUSH2 0x1CEF JUMP JUMPDEST DUP2 EQ PUSH2 0x1D0B JUMPI PUSH0 PUSH0 REVERT JUMPDEST POP JUMP JUMPDEST PUSH0 DUP2 CALLDATALOAD SWAP1 POP PUSH2 0x1D1C DUP2 PUSH2 0x1CF8 JUMP JUMPDEST SWAP3 SWAP2 POP POP JUMP JUMPDEST PUSH0 PUSH1 0x20 DUP3 DUP5 SUB SLT ISZERO PUSH2 0x1D37 JUMPI PUSH2 0x1D36 PUSH2 0x1CEB JUMP JUMPDEST JUMPDEST PUSH0 PUSH2 0x1D44 DUP5 DUP3 DUP6 ADD PUSH2 0x1D0E JUMP JUMPDEST SWAP2 POP POP SWAP3 SWAP2 POP POP JUMP JUMPDEST PUSH0 PUSH20 0xFFFFFFFFFFFFFFFFFFFFFFFFFFFFFFFFFFFFFFFF DUP3 AND SWAP1 POP SWAP2 SWAP1 POP JUMP JUMPDEST PUSH0 PUSH2 0x1D76 DUP3 PUSH2 0x1D4D JUMP JUMPDEST SWAP1 POP SWAP2 SWAP1 POP JUMP JUMPDEST PUSH2 0x1D86 DUP2 PUSH2 0x1D6C JUMP JUMPDEST DUP3 MSTORE POP POP JUMP JUMPDEST PUSH2 0x1D95 DUP2 PUSH2 0x1CEF JUMP JUMPDEST DUP3 MSTORE POP POP JUMP JUMPDEST PUSH0 DUP2 ISZERO ISZERO SWAP1 POP SWAP2 SWAP1 POP JUMP JUMPDEST PUSH2 0x1DAF DUP2 PUSH2 0x1D9B JUMP JUMPDEST DUP3 MSTORE POP POP JUMP JUMPDEST PUSH0 PUSH1 0x80 DUP3 ADD SWAP1 POP PUSH2 0x1DC8 PUSH0 DUP4 ADD DUP8 PUSH2 0x1D7D JUMP JUMPDEST PUSH2 0x1DD5 PUSH1 0x20 DUP4 ADD DUP7 PUSH2 0x1D8C JUMP JUMPDEST PUSH2 0x1DE2 PUSH1 0x40 DUP4 ADD DUP6 PUSH2 0x1D8C JUMP JUMPDEST PUSH2 0x1DEF PUSH1 0x60 DUP4 ADD DUP5 PUSH2 0x1DA6 JUMP JUMPDEST SWAP6 SWAP5 POP POP POP POP POP JUMP JUMPDEST PUSH2 0x1E01 DUP2 PUSH2 0x1D6C JUMP JUMPDEST DUP2 EQ PUSH2 0x1E0B JUMPI PUSH0 PUSH0 REVERT JUMPDEST POP JUMP JUMPDEST PUSH0 DUP2 CALLDATALOAD SWAP1 POP PUSH2 0x1E1C DUP2 PUSH2 0x1DF8 JUMP JUMPDEST SWAP3 SWAP2 POP POP JUMP JUMPDEST PUSH0 PUSH0 PUSH0 PUSH0 PUSH1 0x80 DUP6 DUP8 SUB SLT ISZERO PUSH2 0x1E3A JUMPI PUSH2 0x1E39 PUSH2 0x1CEB JUMP JUMPDEST JUMPDEST PUSH0 PUSH2 0x1E47 DUP8 DUP3 DUP9 ADD PUSH2 0x1D0E JUMP JUMPDEST SWAP5 POP POP PUSH1 0x20 PUSH2 0x1E58 DUP8 DUP3 DUP9 ADD PUSH2 0x1D0E JUMP JUMPDEST SWAP4 POP POP PUSH1 0x40 PUSH2 0x1E69 DUP8 DUP3 DUP9 ADD PUSH2 0x1D0E JUMP JUMPDEST SWAP3 POP POP PUSH1 0x60 PUSH2 0x1E7A DUP8 DUP3 DUP9 ADD PUSH2 0x1E0E JUMP JUMPDEST SWAP2 POP POP SWAP3 SWAP6 SWAP2 SWAP5 POP SWAP3 POP JUMP JUMPDEST PUSH0 PUSH0 PUSH1 0x40 DUP4 DUP6 SUB SLT ISZERO PUSH2 0x1E9C JUMPI PUSH2 0x1E9B PUSH2 0x1CEB JUMP JUMPDEST JUMPDEST PUSH0 PUSH2 0x1EA9 DUP6 DUP3 DUP7 ADD PUSH2 0x1D0E JUMP JUMPDEST SWAP3 POP POP PUSH1 0x20 PUSH2 0x1EBA DUP6 DUP3 DUP7 ADD PUSH2 0x1E0E JUMP JUMPDEST SWAP2 POP POP SWAP3 POP SWAP3 SWAP1 POP JUMP JUMPDEST PUSH0 PUSH0 PUSH1 0x40 DUP4 DUP6 SUB SLT ISZERO PUSH2 0x1EDA JUMPI PUSH2 0x1ED9 PUSH2 0x1CEB JUMP JUMPDEST JUMPDEST PUSH0 PUSH2 0x1EE7 DUP6 DUP3 DUP7 ADD PUSH2 0x1E0E JUMP JUMPDEST SWAP3 POP POP PUSH1 0x20 PUSH2 0x1EF8 DUP6 DUP3 DUP7 ADD PUSH2 0x1E0E JUMP JUMPDEST SWAP2 POP POP SWAP3 POP SWAP3 SWAP1 POP JUMP JUMPDEST PUSH0 PUSH2 0x1F0C DUP3 PUSH2 0x1D4D JUMP JUMPDEST SWAP1 POP SWAP2 SWAP1 POP JUMP JUMPDEST PUSH2 0x1F1C DUP2 PUSH2 0x1F02 JUMP JUMPDEST DUP3 MSTORE POP POP JUMP JUMPDEST PUSH0 PUSH1 0x20 DUP3 ADD SWAP1 POP PUSH2 0x1F35 PUSH0 DUP4 ADD DUP5 PUSH2 0x1F13 JUMP JUMPDEST SWAP3 SWAP2 POP POP JUMP JUMPDEST PUSH0 DUP2 SWAP1 POP SWAP2 SWAP1 POP JUMP JUMPDEST PUSH0 PUSH2 0x1F5E PUSH2 0x1F59 PUSH2 0x1F54 DUP5 PUSH2 0x1D4D JUMP JUMPDEST PUSH2 0x1F3B JUMP JUMPDEST PUSH2 0x1D4D JUMP JUMPDEST SWAP1 POP SWAP2 SWAP1 POP JUMP JUMPDEST PUSH0 PUSH2 0x1F6F DUP3 PUSH2 0x1F44 JUMP JUMPDEST SWAP1 POP SWAP2 SWAP1 POP JUMP JUMPDEST PUSH0 PUSH2 0x1F80 DUP3 PUSH2 0x1F65 JUMP JUMPDEST SWAP1 POP SWAP2 SWAP1 POP JUMP JUMPDEST PUSH2 0x1F90 DUP2 PUSH2 0x1F76 JUMP JUMPDEST DUP3 MSTORE POP POP JUMP JUMPDEST PUSH0 PUSH1 0x20 DUP3 ADD SWAP1 POP PUSH2 0x1FA9 PUSH0 DUP4 ADD DUP5 PUSH2 0x1F87 JUMP JUMPDEST SWAP3 SWAP2 POP POP JUMP JUMPDEST PUSH0 PUSH1 0x20 DUP3 ADD SWAP1 POP PUSH2 0x1FC2 PUSH0 DUP4 ADD DUP5 PUSH2 0x1D7D JUMP JUMPDEST SWAP3 SWAP2 POP POP JUMP JUMPDEST PUSH0 PUSH0 PUSH0 PUSH1 0x60 DUP5 DUP7 SUB SLT ISZERO PUSH2 0x1FDF JUMPI PUSH2 0x1FDE PUSH2 0x1CEB JUMP JUMPDEST JUMPDEST PUSH0 PUSH2 0x1FEC DUP7 DUP3 DUP8 ADD PUSH2 0x1D0E JUMP JUMPDEST SWAP4 POP POP PUSH1 0x20 PUSH2 0x1FFD DUP7 DUP3 DUP8 ADD PUSH2 0x1D0E JUMP JUMPDEST SWAP3 POP POP PUSH1 0x40 PUSH2 0x200E DUP7 DUP3 DUP8 ADD PUSH2 0x1E0E JUMP JUMPDEST SWAP2 POP POP SWAP3 POP SWAP3 POP SWAP3 JUMP JUMPDEST PUSH2 0x2021 DUP2 PUSH2 0x1D9B JUMP JUMPDEST DUP2 EQ PUSH2 0x202B JUMPI PUSH0 PUSH0 REVERT JUMPDEST POP JUMP JUMPDEST PUSH0 DUP2 CALLDATALOAD SWAP1 POP PUSH2 0x203C DUP2 PUSH2 0x2018 JUMP JUMPDEST SWAP3 SWAP2 POP POP JUMP JUMPDEST PUSH0 PUSH0 PUSH0 PUSH0 PUSH0 PUSH1 0xA0 DUP7 DUP9 SUB SLT ISZERO PUSH2 0x205B JUMPI PUSH2 0x205A PUSH2 0x1CEB JUMP JUMPDEST JUMPDEST PUSH0 PUSH2 0x2068 DUP9 DUP3 DUP10 ADD PUSH2 0x1D0E JUMP JUMPDEST SWAP6 POP POP PUSH1 0x20 PUSH2 0x2079 DUP9 DUP3 DUP10 ADD PUSH2 0x1E0E JUMP JUMPDEST SWAP5 POP POP PUSH1 0x40 PUSH2 0x208A DUP9 DUP3 DUP10 ADD PUSH2 0x1D0E JUMP JUMPDEST SWAP4 POP POP PUSH1 0x60 PUSH2 0x209B DUP9 DUP3 DUP10 ADD PUSH2 0x1D0E JUMP JUMPDEST SWAP3 POP POP PUSH1 0x80 PUSH2 0x20AC DUP9 DUP3 DUP10 ADD PUSH2 0x202E JUMP JUMPDEST SWAP2 POP POP SWAP3 SWAP6 POP SWAP3 SWAP6 SWAP1 SWAP4 POP JUMP JUMPDEST PUSH0 PUSH1 0xFF DUP3 AND SWAP1 POP SWAP2 SWAP1 POP JUMP JUMPDEST PUSH2 0x20CE DUP2 PUSH2 0x20B9 JUMP JUMPDEST DUP2 EQ PUSH2 0x20D8 JUMPI PUSH0 PUSH0 REVERT JUMPDEST POP JUMP JUMPDEST PUSH0 DUP2 CALLDATALOAD SWAP1 POP PUSH2 0x20E9 DUP2 PUSH2 0x20C5 JUMP JUMPDEST SWAP3 SWAP2 POP POP JUMP JUMPDEST PUSH0 DUP2 SWAP1 POP SWAP2 SWAP1 POP JUMP JUMPDEST PUSH2 0x2101 DUP2 PUSH2 0x20EF JUMP JUMPDEST DUP2 EQ PUSH2 0x210B JUMPI PUSH0 PUSH0 REVERT JUMPDEST POP JUMP JUMPDEST PUSH0 DUP2 CALLDATALOAD SWAP1 POP PUSH2 0x211C DUP2 PUSH2 0x20F8 JUMP JUMPDEST SWAP3 SWAP2 POP POP JUMP JUMPDEST PUSH0 PUSH0 PUSH0 PUSH0 PUSH0 PUSH0 PUSH1 0xC0 DUP8 DUP10 SUB SLT ISZERO PUSH2 0x213C JUMPI PUSH2 0x213B PUSH2 0x1CEB JUMP JUMPDEST JUMPDEST PUSH0 PUSH2 0x2149 DUP10 DUP3 DUP11 ADD PUSH2 0x1D0E JUMP JUMPDEST SWAP7 POP POP PUSH1 0x20 PUSH2 0x215A DUP10 DUP3 DUP11 ADD PUSH2 0x1D0E JUMP JUMPDEST SWAP6 POP POP PUSH1 0x40 PUSH2 0x216B DUP10 DUP3 DUP11 ADD PUSH2 0x1D0E JUMP JUMPDEST SWAP5 POP POP PUSH1 0x60 PUSH2 0x217C DUP10 DUP3 DUP11 ADD PUSH2 0x20DB JUMP JUMPDEST SWAP4 POP POP PUSH1 0x80 PUSH2 0x218D DUP10 DUP3 DUP11 ADD PUSH2 0x210E JUMP JUMPDEST SWAP3 POP POP PUSH1 0xA0 PUSH2 0x219E DUP10 DUP3 DUP11 ADD PUSH2 0x210E JUMP JUMPDEST SWAP2 POP POP SWAP3 SWAP6 POP SWAP3 SWAP6 POP SWAP3 SWAP6 JUMP JUMPDEST PUSH2 0x21B4 DUP2 PUSH2 0x1F02 JUMP JUMPDEST DUP2 EQ PUSH2 0x21BE JUMPI PUSH0 PUSH0 REVERT JUMPDEST POP JUMP JUMPDEST PUSH0 DUP2 CALLDATALOAD SWAP1 POP PUSH2 0x21CF DUP2 PUSH2 0x21AB JUMP JUMPDEST SWAP3 SWAP2 POP POP JUMP JUMPDEST PUSH0 PUSH1 0x20 DUP3 DUP5 SUB SLT ISZERO PUSH2 0x21EA JUMPI PUSH2 0x21E9 PUSH2 0x1CEB JUMP JUMPDEST JUMPDEST PUSH0 PUSH2 0x21F7 DUP5 DUP3 DUP6 ADD PUSH2 0x21C1 JUMP JUMPDEST SWAP2 POP POP SWAP3 SWAP2 POP POP JUMP JUMPDEST PUSH0 PUSH1 0x20 DUP3 DUP5 SUB SLT ISZERO PUSH2 0x2215 JUMPI PUSH2 0x2214 PUSH2 0x1CEB JUMP JUMPDEST JUMPDEST PUSH0 PUSH2 0x2222 DUP5 DUP3 DUP6 ADD PUSH2 0x1E0E JUMP JUMPDEST SWAP2 POP POP SWAP3 SWAP2 POP POP JUMP JUMPDEST PUSH0 PUSH1 0x20 DUP3 ADD SWAP1 POP PUSH2 0x223E PUSH0 DUP4 ADD DUP5 PUSH2 0x1D8C JUMP JUMPDEST SWAP3 SWAP2 POP POP JUMP JUMPDEST PUSH0 DUP2 MLOAD SWAP1 POP PUSH2 0x2252 DUP2 PUSH2 0x1DF8 JUMP JUMPDEST SWAP3 SWAP2 POP POP JUMP JUMPDEST PUSH0 PUSH1 0x20 DUP3 DUP5 SUB SLT ISZERO PUSH2 0x226D JUMPI PUSH2 0x226C PUSH2 0x1CEB JUMP JUMPDEST JUMPDEST PUSH0 PUSH2 0x227A DUP5 DUP3 DUP6 ADD PUSH2 0x2244 JUMP JUMPDEST SWAP2 POP POP SWAP3 SWAP2 POP POP JUMP JUMPDEST PUSH0 PUSH1 0x60 DUP3 ADD SWAP1 POP PUSH2 0x2296 PUSH0 DUP4 ADD DUP7 PUSH2 0x1D7D JUMP JUMPDEST PUSH2 0x22A3 PUSH1 0x20 DUP4 ADD DUP6 PUSH2 0x1D7D JUMP JUMPDEST PUSH2 0x22B0 PUSH1 0x40 DUP4 ADD DUP5 PUSH2 0x1D8C JUMP JUMPDEST SWAP5 SWAP4 POP POP POP POP JUMP JUMPDEST PUSH32 0x4E487B7100000000000000000000000000000000000000000000000000000000 PUSH0 MSTORE PUSH1 0x11 PUSH1 0x4 MSTORE PUSH1 0x24 PUSH0 REVERT JUMPDEST PUSH0 PUSH2 0x22EF DUP3 PUSH2 0x1CEF JUMP JUMPDEST SWAP2 POP PUSH32 0xFFFFFFFFFFFFFFFFFFFFFFFFFFFFFFFFFFFFFFFFFFFFFFFFFFFFFFFFFFFFFFFF DUP3 SUB PUSH2 0x2321 JUMPI PUSH2 0x2320 PUSH2 0x22B8 JUMP JUMPDEST JUMPDEST PUSH1 0x1 DUP3 ADD SWAP1 POP SWAP2 SWAP1 POP JUMP JUMPDEST PUSH0 DUP2 MLOAD SWAP1 POP PUSH2 0x233A DUP2 PUSH2 0x1CF8 JUMP JUMPDEST SWAP3 SWAP2 POP POP JUMP JUMPDEST PUSH0 PUSH1 0x20 DUP3 DUP5 SUB SLT ISZERO PUSH2 0x2355 JUMPI PUSH2 0x2354 PUSH2 0x1CEB JUMP JUMPDEST JUMPDEST PUSH0 PUSH2 0x2362 DUP5 DUP3 DUP6 ADD PUSH2 0x232C JUMP JUMPDEST SWAP2 POP POP SWAP3 SWAP2 POP POP JUMP JUMPDEST PUSH0 DUP2 SWAP1 POP SWAP2 SWAP1 POP JUMP JUMPDEST PUSH0 PUSH2 0x238E PUSH2 0x2389 PUSH2 0x2384 DUP5 PUSH2 0x236B JUMP JUMPDEST PUSH2 0x1F3B JUMP JUMPDEST PUSH2 0x1CEF JUMP JUMPDEST SWAP1 POP SWAP2 SWAP1 POP JUMP JUMPDEST PUSH2 0x239E DUP2 PUSH2 0x2374 JUMP JUMPDEST DUP3 MSTORE POP POP JUMP JUMPDEST PUSH0 PUSH1 0x40 DUP3 ADD SWAP1 POP PUSH2 0x23B7 PUSH0 DUP4 ADD DUP6 PUSH2 0x1D7D JUMP JUMPDEST PUSH2 0x23C4 PUSH1 0x20 DUP4 ADD DUP5 PUSH2 0x2395 JUMP JUMPDEST SWAP4 SWAP3 POP POP POP JUMP JUMPDEST PUSH0 PUSH1 0x40 DUP3 ADD SWAP1 POP PUSH2 0x23DE PUSH0 DUP4 ADD DUP6 PUSH2 0x1D7D JUMP JUMPDEST PUSH2 0x23EB PUSH1 0x20 DUP4 ADD DUP5 PUSH2 0x1D8C JUMP JUMPDEST SWAP4 SWAP3 POP POP POP JUMP JUMPDEST PUSH0 DUP2 MLOAD SWAP1 POP PUSH2 0x2400 DUP2 PUSH2 0x2018 JUMP JUMPDEST SWAP3 SWAP2 POP POP JUMP JUMPDEST PUSH0 PUSH1 0x20 DUP3 DUP5 SUB SLT ISZERO PUSH2 0x241B JUMPI PUSH2 0x241A PUSH2 0x1CEB JUMP JUMPDEST JUMPDEST PUSH0 PUSH2 0x2428 DUP5 DUP3 DUP6 ADD PUSH2 0x23F2 JUMP JUMPDEST SWAP2 POP POP SWAP3 SWAP2 POP POP JUMP JUMPDEST PUSH0 DUP2 SWAP1 POP SWAP3 SWAP2 POP POP JUMP JUMPDEST POP JUMP JUMPDEST PUSH0 PUSH2 0x2449 PUSH0 DUP4 PUSH2 0x2431 JUMP JUMPDEST SWAP2 POP PUSH2 0x2454 DUP3 PUSH2 0x243B JUMP JUMPDEST PUSH0 DUP3 ADD SWAP1 POP SWAP2 SWAP1 POP JUMP JUMPDEST PUSH0 PUSH2 0x2468 DUP3 PUSH2 0x243E JUMP JUMPDEST SWAP2 POP DUP2 SWAP1 POP SWAP2 SWAP1 POP JUMP JUMPDEST PUSH0 DUP3 DUP3 MSTORE PUSH1 0x20 DUP3 ADD SWAP1 POP SWAP3 SWAP2 POP POP JUMP JUMPDEST PUSH32 0x455448207472616E73666572206661696C656400000000000000000000000000 PUSH0 DUP3 ADD MSTORE POP JUMP JUMPDEST PUSH0 PUSH2 0x24B6 PUSH1 0x13 DUP4 PUSH2 0x2472 JUMP JUMPDEST SWAP2 POP PUSH2 0x24C1 DUP3 PUSH2 0x2482 JUMP JUMPDEST PUSH1 0x20 DUP3 ADD SWAP1 POP SWAP2 SWAP1 POP JUMP JUMPDEST PUSH0 PUSH1 0x20 DUP3 ADD SWAP1 POP DUP2 DUP2 SUB PUSH0 DUP4 ADD MSTORE PUSH2 0x24E3 DUP2 PUSH2 0x24AA JUMP JUMPDEST SWAP1 POP SWAP2 SWAP1 POP JUMP JUMPDEST PUSH32 0x7065726D69742076616C7565206D69736D617463680000000000000000000000 PUSH0 DUP3 ADD MSTORE POP JUMP JUMPDEST PUSH0 PUSH2 0x251E PUSH1 0x15 DUP4 PUSH2 0x2472 JUMP JUMPDEST SWAP2 POP PUSH2 0x2529 DUP3 PUSH2 0x24EA JUMP JUMPDEST PUSH1 0x20 DUP3 ADD SWAP1 POP SWAP2 SWAP1 POP JUMP JUMPDEST PUSH0 PUSH1 0x20 DUP3 ADD SWAP1 POP DUP2 DUP2 SUB PUSH0 DUP4 ADD MSTORE PUSH2 0x254B DUP2 PUSH2 0x2512 JUMP JUMPDEST SWAP1 POP SWAP2 SWAP1 POP JUMP JUMPDEST PUSH2 0x255B DUP2 PUSH2 0x20B9 JUMP JUMPDEST DUP3 MSTORE POP POP JUMP JUMPDEST PUSH2 0x256A DUP2 PUSH2 0x20EF JUMP JUMPDEST DUP3 MSTORE POP POP JUMP JUMPDEST PUSH0 PUSH1 0xE0 DUP3 ADD SWAP1 POP PUSH2 0x2583 PUSH0 DUP4 ADD DUP11 PUSH2 0x1D7D JUMP JUMPDEST PUSH2 0x2590 PUSH1 0x20 DUP4 ADD DUP10 PUSH2 0x1D7D JUMP JUMPDEST PUSH2 0x259D PUSH1 0x40 DUP4 ADD DUP9 PUSH2 0x1D8C JUMP JUMPDEST PUSH2 0x25AA PUSH1 0x60 DUP4 ADD DUP8 PUSH2 0x1D8C JUMP JUMPDEST PUSH2 0x25B7 PUSH1 0x80 DUP4 ADD DUP7 PUSH2 0x2552 JUMP JUMPDEST PUSH2 0x25C4 PUSH1 0xA0 DUP4 ADD DUP6 PUSH2 0x2561 JUMP JUMPDEST PUSH2 0x25D1 PUSH1 0xC0 DUP4 ADD DUP5 PUSH2 0x2561 JUMP JUMPDEST SWAP9 SWAP8 POP POP POP POP POP POP POP POP JUMP JUMPDEST PUSH32 0x5265656E7472616E637947756172643A207265656E7472616E742063616C6C00 PUSH0 DUP3 ADD MSTORE POP JUMP JUMPDEST PUSH0 PUSH2 0x2611 PUSH1 0x1F DUP4 PUSH2 0x2472 JUMP JUMPDEST SWAP2 POP PUSH2 0x261C DUP3 PUSH2 0x25DD JUMP JUMPDEST PUSH1 0x20 DUP3 ADD SWAP1 POP SWAP2 SWAP1 POP JUMP JUMPDEST PUSH0 PUSH1 0x20 DUP3 ADD SWAP1 POP DUP2 DUP2 SUB PUSH0 DUP4 ADD MSTORE PUSH2 0x263E DUP2 PUSH2 0x2605 JUMP JUMPDEST SWAP1 POP SWAP2 SWAP1 POP JUMP INVALID LOG2 PUSH5 0x6970667358 0x22 SLT KECCAK256 0x28 GT CALLDATALOAD 0x2A CALLDATACOPY SMOD JUMPI RETURNDATASIZE JUMPF 0xCB23 INVALID BLOBBASEFEE 0xEF PUSH23 0x350B5D3DF80B052BF7705683D04A1DB2F164736F6C6343 STOP ADDMOD 0x1E STOP CALLER "
				},
				"gasEstimates": {
					"creation": {
						"codeDepositCost": "1970200",
						"executionCost": "infinite",
						"totalCost": "infinite"
					},
					"external": {
						"USDC()": "infinite",
						"buyWithETH(uint256)": "infinite",
						"buyWithUSDC(uint256)": "infinite",
						"buyWithUSDCPermit(uint256,uint256,uint256,uint8,bytes32,bytes32)": "infinite",
						"owner()": "2604",
						"renounceOwnership()": "infinite",
						"setTier(uint256,address,uint256,uint256,bool)": "infinite",
						"setTreasury(address)": "infinite",
						"sweepERC20(address,address)": "infinite",
						"tiers(uint256)": "infinite",
						"transferOwnership(address)": "infinite",
						"treasury()": "2531",
						"withdrawAll(uint256,address)": "infinite",
						"withdrawN(uint256,uint256,address)": "infinite",
						"withdrawNFT(uint256,uint256,address)": "infinite",
						"withdrawRange(uint256,uint256,uint256,address)": "infinite"
					},
					"internal": {
						"_nextToken(address)": "infinite"
					}
				},
				"methodIdentifiers": {
					"USDC()": "89a30271",
					"buyWithETH(uint256)": "94dc9cf3",
					"buyWithUSDC(uint256)": "aeccf735",
					"buyWithUSDCPermit(uint256,uint256,uint256,uint8,bytes32,bytes32)": "bb6416ae",
					"owner()": "8da5cb5b",
					"renounceOwnership()": "715018a6",
					"setTier(uint256,address,uint256,uint256,bool)": "b5ddc0f4",
					"setTreasury(address)": "f0f44260",
					"sweepERC20(address,address)": "582515c7",
					"tiers(uint256)": "039af9eb",
					"transferOwnership(address)": "f2fde38b",
					"treasury()": "61d027b3",
					"withdrawAll(uint256,address)": "4c2233a5",
					"withdrawN(uint256,uint256,address)": "ddd32898",
					"withdrawNFT(uint256,uint256,address)": "9c66fb7e",
					"withdrawRange(uint256,uint256,uint256,address)": "26e84cc3"
				}
			},
			"storageLayout": {
				"storage": [
					{
						"astId": 248,
						"contract": "contracts/BadSammyNFTStore.sol:BadSammyNFTStore",
						"label": "_status",
						"offset": 0,
						"slot": "0",
						"type": "t_uint256"
					},
					{
						"astId": 8,
						"contract": "contracts/BadSammyNFTStore.sol:BadSammyNFTStore",
						"label": "_owner",
						"offset": 0,
						"slot": "1",
						"type": "t_address"
					},
					{
						"astId": 1103,
						"contract": "contracts/BadSammyNFTStore.sol:BadSammyNFTStore",
						"label": "tiers",
						"offset": 0,
						"slot": "2",
						"type": "t_mapping(t_uint256,t_struct(Tier)1098_storage)"
					},
					{
						"astId": 1105,
						"contract": "contracts/BadSammyNFTStore.sol:BadSammyNFTStore",
						"label": "treasury",
						"offset": 0,
						"slot": "3",
						"type": "t_address_payable"
					}
				],
				"types": {
					"t_address": {
						"encoding": "inplace",
						"label": "address",
						"numberOfBytes": "20"
					},
					"t_address_payable": {
						"encoding": "inplace",
						"label": "address payable",
						"numberOfBytes": "20"
					},
					"t_bool": {
						"encoding": "inplace",
						"label": "bool",
						"numberOfBytes": "1"
					},
					"t_mapping(t_uint256,t_struct(Tier)1098_storage)": {
						"encoding": "mapping",
						"key": "t_uint256",
						"label": "mapping(uint256 => struct BadSammyNFTStore.Tier)",
						"numberOfBytes": "32",
						"value": "t_struct(Tier)1098_storage"
					},
					"t_struct(Tier)1098_storage": {
						"encoding": "inplace",
						"label": "struct BadSammyNFTStore.Tier",
						"members": [
							{
								"astId": 1091,
								"contract": "contracts/BadSammyNFTStore.sol:BadSammyNFTStore",
								"label": "nft",
								"offset": 0,
								"slot": "0",
								"type": "t_address"
							},
							{
								"astId": 1093,
								"contract": "contracts/BadSammyNFTStore.sol:BadSammyNFTStore",
								"label": "priceEth",
								"offset": 0,
								"slot": "1",
								"type": "t_uint256"
							},
							{
								"astId": 1095,
								"contract": "contracts/BadSammyNFTStore.sol:BadSammyNFTStore",
								"label": "priceUsdc",
								"offset": 0,
								"slot": "2",
								"type": "t_uint256"
							},
							{
								"astId": 1097,
								"contract": "contracts/BadSammyNFTStore.sol:BadSammyNFTStore",
								"label": "enabled",
								"offset": 0,
								"slot": "3",
								"type": "t_bool"
							}
						],
						"numberOfBytes": "128"
					},
					"t_uint256": {
						"encoding": "inplace",
						"label": "uint256",
						"numberOfBytes": "32"
					}
				}
			},
			"userdoc": {
				"kind": "user",
				"methods": {},
				"notice": "BadSammyNFTStore (OZ v5) To be used by Base Mini App. OpenSea will not use this but will go directly to Inventory Wallet. - Primary sales for multiple ERC721Enumerable collections (tiers) - Accepts ETH and/or USDC per tier - Store holds inventory so it can transfer immediately - Auto-picks the next token owned by the store",
				"version": 1
			}
		}
	}
}