{
	"data": {
		"bytecode": {
			"linkReferences": {},
			"object": "608060405234801561000f575f5ffd5b5060405161a58638038061a586833981810160405281019061003191906121f0565b61004d61004261101260201b60201c565b61101960201b60201c565b80604001515f60146101000a81548160ff021916908360ff160217905550805f01516009908161007d919061243e565b508060200151600a9081610091919061243e565b5080606001516006819055506006545f196100ac919061253a565b5f196100b89190612597565b60078190555060075460015f6100d261101260201b60201c565b73ffffffffffffffffffffffffffffffffffffffff1673ffffffffffffffffffffffffffffffffffffffff1681526020019081526020015f208190555060065460025f61012361101260201b60201c565b73ffffffffffffffffffffffffffffffffffffffff1673ffffffffffffffffffffffffffffffffffffffff1681526020019081526020015f20819055505f73ffffffffffffffffffffffffffffffffffffffff16816080015173ffffffffffffffffffffffffffffffffffffffff16036101d2576040517f08c379a00000000000000000000000000000000000000000000000000000000081526004016101c990612624565b60405180910390fd5b5f73ffffffffffffffffffffffffffffffffffffffff168160a0015173ffffffffffffffffffffffffffffffffffffffff1603610244576040517f08c379a000000000000000000000000000000000000000000000000000000000815260040161023b9061268c565b60405180910390fd5b5f73ffffffffffffffffffffffffffffffffffffffff168160c0015173ffffffffffffffffffffffffffffffffffffffff16036102b6576040517f08c379a00000000000000000000000000000000000000000000000000000000081526004016102ad906126f4565b60405180910390fd5b806080015173ffffffffffffffffffffffffffffffffffffffff168160c0015173ffffffffffffffffffffffffffffffffffffffff160361032c576040517f08c379a000000000000000000000000000000000000000000000000000000000815260040161032390612782565b60405180910390fd5b806080015160165f6101000a81548173ffffffffffffffffffffffffffffffffffffffff021916908373ffffffffffffffffffffffffffffffffffffffff1602179055508060c0015160175f6101000a81548173ffffffffffffffffffffffffffffffffffffffff021916908373ffffffffffffffffffffffffffffffffffffffff1602179055505f73ffffffffffffffffffffffffffffffffffffffff1660165f9054906101000a900473ffffffffffffffffffffffffffffffffffffffff1673ffffffffffffffffffffffffffffffffffffffff167facf03c50dcf01e53e2775267d12acd0158d87c2f20fb84226837142693b36ae760405160405180910390a35f73ffffffffffffffffffffffffffffffffffffffff1660175f9054906101000a900473ffffffffffffffffffffffffffffffffffffffff1673ffffffffffffffffffffffffffffffffffffffff167f79a52cbec002ef70283103eb4140713100276944fca2819713130141d04df18360405160405180910390a38060a0015160195f6101000a81548173ffffffffffffffffffffffffffffffffffffffff021916908373ffffffffffffffffffffffffffffffffffffffff1602179055506105213060195f9054906101000a900473ffffffffffffffffffffffffffffffffffffffff165f196110da60201b60201c565b60195f9054906101000a900473ffffffffffffffffffffffffffffffffffffffff1673ffffffffffffffffffffffffffffffffffffffff1663c45a01556040518163ffffffff1660e01b8152600401602060405180830381865afa15801561058b573d5f5f3e3d5ffd5b505050506040513d601f19601f820116820180604052508101906105af91906127a0565b73ffffffffffffffffffffffffffffffffffffffff1663c9c653963060195f9054906101000a900473ffffffffffffffffffffffffffffffffffffffff1673ffffffffffffffffffffffffffffffffffffffff1663ad5c46486040518163ffffffff1660e01b8152600401602060405180830381865afa158015610635573d5f5f3e3d5ffd5b505050506040513d601f19601f8201168201806040525081019061065991906127a0565b6040518363ffffffff1660e01b81526004016106769291906127da565b6020604051808303815f875af1158015610692573d5f5f3e3d5ffd5b505050506040513d601f19601f820116820180604052508101906106b691906127a0565b601a5f6101000a81548173ffffffffffffffffffffffffffffffffffffffff021916908373ffffffffffffffffffffffffffffffffffffffff1602179055507f751e970af297d4e5267dabcea7b369ad737038498379b46448d190d9e261f3c560195f9054906101000a900473ffffffffffffffffffffffffffffffffffffffff16601a5f9054906101000a900473ffffffffffffffffffffffffffffffffffffffff166040516107689291906127da565b60405180910390a18060e00151601560076101000a81548162ffffff021916908362ffffff1602179055508061010001516015600a6101000a81548162ffffff021916908362ffffff1602179055507fdec183740138e3a28dfd6f973ecd3bf00cd5d9b2544f6763c0a87f721444c5d1601560079054906101000a900462ffffff166015600a9054906101000a900462ffffff165f5f60405161080e9493929190612849565b60405180910390a18061012001516015600d6101000a81548162ffffff021916908362ffffff160217905550806101400151601560106101000a81548162ffffff021916908362ffffff1602179055507f70748cb9cb3bcb4dfd4fff8f2a6f23f636067b33e0244631f9abd38159c1de856015600d9054906101000a900462ffffff16601560109054906101000a900462ffffff165f5f6040516108b59493929190612849565b60405180910390a1806101600151601560136101000a81548162ffffff021916908362ffffff160217905550806101800151601560166101000a81548162ffffff021916908362ffffff1602179055507fc239c020ec275d4a3e59d37954f59c061e7302d35a1b6bad801059aafe9631ee601560139054906101000a900462ffffff16601560169054906101000a900462ffffff165f5f60405161095c9493929190612849565b60405180910390a1806101e00151601560196101000a81548162ffffff021916908362ffffff1602179055508061020001516015601c6101000a81548162ffffff021916908362ffffff1602179055507fdc717222e8a01249bcfb0a887e700321c9465eda757255fd7895bd39fab714d2601560199054906101000a900462ffffff166015601c9054906101000a900462ffffff165f5f604051610a039493929190612849565b60405180910390a1806101a00151601560016101000a81548162ffffff021916908362ffffff160217905550806101c00151601560046101000a81548162ffffff021916908362ffffff1602179055507f2e7d9780ec398c47872eab5651ba43f0fa44ffed738321577e0db663fe8a05a5601560019054906101000a900462ffffff16601560049054906101000a900462ffffff165f5f604051610aaa9493929190612849565b60405180910390a16127108160600151610ac4919061288c565b6018819055507f772a06bc936eb749842080c472181e970cd4f23bd1ab7d0b84a80aec269104346018545f604051610afd9291906128fb565b60405180910390a1600160045f61dead73ffffffffffffffffffffffffffffffffffffffff1673ffffffffffffffffffffffffffffffffffffffff1681526020019081526020015f205f6101000a81548160ff021916908315150217905550600561dead908060018154018082558091505060019003905f5260205f20015f9091909190916101000a81548173ffffffffffffffffffffffffffffffffffffffff021916908373ffffffffffffffffffffffffffffffffffffffff160217905550600160045f3073ffffffffffffffffffffffffffffffffffffffff1673ffffffffffffffffffffffffffffffffffffffff1681526020019081526020015f205f6101000a81548160ff021916908315150217905550600530908060018154018082558091505060019003905f5260205f20015f9091909190916101000a81548173ffffffffffffffffffffffffffffffffffffffff021916908373ffffffffffffffffffffffffffffffffffffffff160217905550600160045f60175f9054906101000a900473ffffffffffffffffffffffffffffffffffffffff1673ffffffffffffffffffffffffffffffffffffffff1673ffffffffffffffffffffffffffffffffffffffff1681526020019081526020015f205f6101000a81548160ff021916908315150217905550600560175f9054906101000a900473ffffffffffffffffffffffffffffffffffffffff16908060018154018082558091505060019003905f5260205f20015f9091909190916101000a81548173ffffffffffffffffffffffffffffffffffffffff021916908373ffffffffffffffffffffffffffffffffffffffff1602179055506001601b5f3073ffffffffffffffffffffffffffffffffffffffff1673ffffffffffffffffffffffffffffffffffffffff1681526020019081526020015f205f6101000a81548160ff0219169083151502179055506001601b5f60165f9054906101000a900473ffffffffffffffffffffffffffffffffffffffff1673ffffffffffffffffffffffffffffffffffffffff1673ffffffffffffffffffffffffffffffffffffffff1681526020019081526020015f205f6101000a81548160ff0219169083151502179055506001601b5f60175f9054906101000a900473ffffffffffffffffffffffffffffffffffffffff1673ffffffffffffffffffffffffffffffffffffffff1673ffffffffffffffffffffffffffffffffffffffff1681526020019081526020015f205f6101000a81548160ff0219169083151502179055506001601b5f610ebe61101260201b60201c565b73ffffffffffffffffffffffffffffffffffffffff1673ffffffffffffffffffffffffffffffffffffffff1681526020019081526020015f205f6101000a81548160ff0219169083151502179055506001601b5f61dead73ffffffffffffffffffffffffffffffffffffffff1673ffffffffffffffffffffffffffffffffffffffff1681526020019081526020015f205f6101000a81548160ff021916908315150217905550610f96601a5f9054906101000a900473ffffffffffffffffffffffffffffffffffffffff16600161129d60201b60201c565b610fa461101260201b60201c565b73ffffffffffffffffffffffffffffffffffffffff165f73ffffffffffffffffffffffffffffffffffffffff167fddf252ad1be2c89b69c2b068fc378daa952ba7f163c4a11628f55a4df523b3ef83606001516040516110049190612922565b60405180910390a350612e60565b5f33905090565b5f5f5f9054906101000a900473ffffffffffffffffffffffffffffffffffffffff169050815f5f6101000a81548173ffffffffffffffffffffffffffffffffffffffff021916908373ffffffffffffffffffffffffffffffffffffffff1602179055508173ffffffffffffffffffffffffffffffffffffffff168173ffffffffffffffffffffffffffffffffffffffff167f8be0079c531659141344cd1fd0a4f28419497f9722a3daafe3b4186f6b6457e060405160405180910390a35050565b5f73ffffffffffffffffffffffffffffffffffffffff168373ffffffffffffffffffffffffffffffffffffffff1603611148576040517f08c379a000000000000000000000000000000000000000000000000000000000815260040161113f906129ab565b60405180910390fd5b5f73ffffffffffffffffffffffffffffffffffffffff168273ffffffffffffffffffffffffffffffffffffffff16036111b6576040517f08c379a00000000000000000000000000000000000000000000000000000000081526004016111ad90612a39565b60405180910390fd5b8060035f8573ffffffffffffffffffffffffffffffffffffffff1673ffffffffffffffffffffffffffffffffffffffff1681526020019081526020015f205f8473ffffffffffffffffffffffffffffffffffffffff1673ffffffffffffffffffffffffffffffffffffffff1681526020019081526020015f20819055508173ffffffffffffffffffffffffffffffffffffffff168373ffffffffffffffffffffffffffffffffffffffff167f8c5be1e5ebec7d5bd14f71427d1e84f3dd0314c0f7b2291e5b200ac8c7c3b925836040516112909190612922565b60405180910390a3505050565b801515601c5f8473ffffffffffffffffffffffffffffffffffffffff1673ffffffffffffffffffffffffffffffffffffffff1681526020019081526020015f205f9054906101000a900460ff1615150361132c576040517f08c379a000000000000000000000000000000000000000000000000000000000815260040161132390612ac7565b60405180910390fd5b80601c5f8473ffffffffffffffffffffffffffffffffffffffff1673ffffffffffffffffffffffffffffffffffffffff1681526020019081526020015f205f6101000a81548160ff021916908315150217905550801561139a57611395826113fc60201b60201c565b6113aa565b6113a98261167460201b60201c565b5b8173ffffffffffffffffffffffffffffffffffffffff167fffa9187bf1f18bf477bd0ea1bcbb64e93b6a98132473929edfce215cd9b16fab826040516113f09190612aff565b60405180910390a25050565b61140a611a1460201b60201c565b60045f8273ffffffffffffffffffffffffffffffffffffffff1673ffffffffffffffffffffffffffffffffffffffff1681526020019081526020015f205f9054906101000a900460ff1615611494576040517f08c379a000000000000000000000000000000000000000000000000000000000815260040161148b90612b62565b60405180910390fd5b603260016005805490506114a89190612b80565b11156114e9576040517f08c379a00000000000000000000000000000000000000000000000000000000081526004016114e090612c49565b60405180910390fd5b5f60015f8373ffffffffffffffffffffffffffffffffffffffff1673ffffffffffffffffffffffffffffffffffffffff1681526020019081526020015f205411156115bc5761157a60015f8373ffffffffffffffffffffffffffffffffffffffff1673ffffffffffffffffffffffffffffffffffffffff1681526020019081526020015f2054611a9e60201b60201c565b60025f8373ffffffffffffffffffffffffffffffffffffffff1673ffffffffffffffffffffffffffffffffffffffff1681526020019081526020015f20819055505b600160045f8373ffffffffffffffffffffffffffffffffffffffff1673ffffffffffffffffffffffffffffffffffffffff1681526020019081526020015f205f6101000a81548160ff021916908315150217905550600581908060018154018082558091505060019003905f5260205f20015f9091909190916101000a81548173ffffffffffffffffffffffffffffffffffffffff021916908373ffffffffffffffffffffffffffffffffffffffff16021790555050565b611682611a1460201b60201c565b60045f8273ffffffffffffffffffffffffffffffffffffffff1673ffffffffffffffffffffffffffffffffffffffff1681526020019081526020015f205f9054906101000a900460ff1661170b576040517f08c379a000000000000000000000000000000000000000000000000000000000815260040161170290612cb1565b60405180910390fd5b5f5f90505b600580549050811015611a10578173ffffffffffffffffffffffffffffffffffffffff166005828154811061174857611747612ccf565b5b905f5260205f20015f9054906101000a900473ffffffffffffffffffffffffffffffffffffffff1673ffffffffffffffffffffffffffffffffffffffff1603611a03575f60015f8473ffffffffffffffffffffffffffffffffffffffff1673ffffffffffffffffffffffffffffffffffffffff1681526020019081526020015f205490506117da611b0960201b60201c565b60025f8573ffffffffffffffffffffffffffffffffffffffff1673ffffffffffffffffffffffffffffffffffffffff1681526020019081526020015f20546118229190612cfc565b60015f8573ffffffffffffffffffffffffffffffffffffffff1673ffffffffffffffffffffffffffffffffffffffff1681526020019081526020015f208190555060015f8473ffffffffffffffffffffffffffffffffffffffff1673ffffffffffffffffffffffffffffffffffffffff1681526020019081526020015f2054816007546118af9190612597565b6118b99190612b80565b6007819055505f60045f8573ffffffffffffffffffffffffffffffffffffffff1673ffffffffffffffffffffffffffffffffffffffff1681526020019081526020015f205f6101000a81548160ff021916908315150217905550600560016005805490506119279190612597565b8154811061193857611937612ccf565b5b905f5260205f20015f9054906101000a900473ffffffffffffffffffffffffffffffffffffffff166005838154811061197457611973612ccf565b5b905f5260205f20015f6101000a81548173ffffffffffffffffffffffffffffffffffffffff021916908373ffffffffffffffffffffffffffffffffffffffff16021790555060058054806119cb576119ca612d3d565b5b600190038181905f5260205f20015f6101000a81549073ffffffffffffffffffffffffffffffffffffffff0219169055905550611a10565b8080600101915050611710565b5050565b611a2261101260201b60201c565b73ffffffffffffffffffffffffffffffffffffffff16611a46611b3160201b60201c565b73ffffffffffffffffffffffffffffffffffffffff1614611a9c576040517f08c379a0000000000000000000000000000000000000000000000000000000008152600401611a9390612db4565b60405180910390fd5b565b5f600754821115611ae4576040517f08c379a0000000000000000000000000000000000000000000000000000000008152600401611adb90612e42565b60405180910390fd5b5f611af3611b0960201b60201c565b90508083611b01919061288c565b915050919050565b5f5f5f611b1a611b5860201b60201c565b915091508082611b2a919061288c565b9250505090565b5f5f5f9054906101000a900473ffffffffffffffffffffffffffffffffffffffff16905090565b5f5f5f60075490505f60065490505f5f90505b600580549050811015611da5578260015f60058481548110611b9057611b8f612ccf565b5b905f5260205f20015f9054906101000a900473ffffffffffffffffffffffffffffffffffffffff1673ffffffffffffffffffffffffffffffffffffffff1673ffffffffffffffffffffffffffffffffffffffff1681526020019081526020015f20541180611c7557508160025f60058481548110611c1157611c10612ccf565b5b905f5260205f20015f9054906101000a900473ffffffffffffffffffffffffffffffffffffffff1673ffffffffffffffffffffffffffffffffffffffff1673ffffffffffffffffffffffffffffffffffffffff1681526020019081526020015f2054115b15611c8c5760075460065494509450505050611dd7565b60015f60058381548110611ca357611ca2612ccf565b5b905f5260205f20015f9054906101000a900473ffffffffffffffffffffffffffffffffffffffff1673ffffffffffffffffffffffffffffffffffffffff1673ffffffffffffffffffffffffffffffffffffffff1681526020019081526020015f205483611d109190612597565b925060025f60058381548110611d2957611d28612ccf565b5b905f5260205f20015f9054906101000a900473ffffffffffffffffffffffffffffffffffffffff1673ffffffffffffffffffffffffffffffffffffffff1673ffffffffffffffffffffffffffffffffffffffff1681526020019081526020015f205482611d969190612597565b91508080600101915050611b6b565b50600654600754611db6919061288c565b821015611dce57600754600654935093505050611dd7565b81819350935050505b9091565b5f604051905090565b5f5ffd5b5f5ffd5b5f5ffd5b5f601f19601f8301169050919050565b7f4e487b71000000000000000000000000000000000000000000000000000000005f52604160045260245ffd5b611e3682611df0565b810181811067ffffffffffffffff82111715611e5557611e54611e00565b5b80604052505050565b5f611e67611ddb565b9050611e738282611e2d565b919050565b5f5ffd5b5f5ffd5b5f5ffd5b5f67ffffffffffffffff821115611e9e57611e9d611e00565b5b611ea782611df0565b9050602081019050919050565b8281835e5f83830152505050565b5f611ed4611ecf84611e84565b611e5e565b905082815260208101848484011115611ef057611eef611e80565b5b611efb848285611eb4565b509392505050565b5f82601f830112611f1757611f16611e7c565b5b8151611f27848260208601611ec2565b91505092915050565b5f60ff82169050919050565b611f4581611f30565b8114611f4f575f5ffd5b50565b5f81519050611f6081611f3c565b92915050565b5f819050919050565b611f7881611f66565b8114611f82575f5ffd5b50565b5f81519050611f9381611f6f565b92915050565b5f73ffffffffffffffffffffffffffffffffffffffff82169050919050565b5f611fc282611f99565b9050919050565b611fd281611fb8565b8114611fdc575f5ffd5b50565b5f81519050611fed81611fc9565b92915050565b5f62ffffff82169050919050565b61200a81611ff3565b8114612014575f5ffd5b50565b5f8151905061202581612001565b92915050565b5f610220828403121561204157612040611dec565b5b61204c610220611e5e565b90505f82015167ffffffffffffffff81111561206b5761206a611e78565b5b61207784828501611f03565b5f83015250602082015167ffffffffffffffff81111561209a57612099611e78565b5b6120a684828501611f03565b60208301525060406120ba84828501611f52565b60408301525060606120ce84828501611f85565b60608301525060806120e284828501611fdf565b60808301525060a06120f684828501611fdf565b60a08301525060c061210a84828501611fdf565b60c08301525060e061211e84828501612017565b60e08301525061010061213384828501612017565b6101008301525061012061214984828501612017565b6101208301525061014061215f84828501612017565b6101408301525061016061217584828501612017565b6101608301525061018061218b84828501612017565b610180830152506101a06121a184828501612017565b6101a0830152506101c06121b784828501612017565b6101c0830152506101e06121cd84828501612017565b6101e0830152506102006121e384828501612017565b6102008301525092915050565b5f6020828403121561220557612204611de4565b5b5f82015167ffffffffffffffff81111561222257612221611de8565b5b61222e8482850161202b565b91505092915050565b5f81519050919050565b7f4e487b71000000000000000000000000000000000000000000000000000000005f52602260045260245ffd5b5f600282049050600182168061228557607f821691505b60208210810361229857612297612241565b5b50919050565b5f819050815f5260205f209050919050565b5f6020601f8301049050919050565b5f82821b905092915050565b5f600883026122fa7fffffffffffffffffffffffffffffffffffffffffffffffffffffffffffffffff826122bf565b61230486836122bf565b95508019841693508086168417925050509392505050565b5f819050919050565b5f61233f61233a61233584611f66565b61231c565b611f66565b9050919050565b5f819050919050565b61235883612325565b61236c61236482612346565b8484546122cb565b825550505050565b5f5f905090565b612383612374565b61238e81848461234f565b505050565b5b818110156123b1576123a65f8261237b565b600181019050612394565b5050565b601f8211156123f6576123c78161229e565b6123d0846122b0565b810160208510156123df578190505b6123f36123eb856122b0565b830182612393565b50505b505050565b5f82821c905092915050565b5f6124165f19846008026123fb565b1980831691505092915050565b5f61242e8383612407565b9150826002028217905092915050565b61244782612237565b67ffffffffffffffff8111156124605761245f611e00565b5b61246a825461226e565b6124758282856123b5565b5f60209050601f8311600181146124a6575f8415612494578287015190505b61249e8582612423565b865550612505565b601f1984166124b48661229e565b5f5b828110156124db578489015182556001820191506020850194506020810190506124b6565b868310156124f857848901516124f4601f891682612407565b8355505b6001600288020188555050505b505050505050565b7f4e487b71000000000000000000000000000000000000000000000000000000005f52601260045260245ffd5b5f61254482611f66565b915061254f83611f66565b92508261255f5761255e61250d565b5b828206905092915050565b7f4e487b71000000000000000000000000000000000000000000000000000000005f52601160045260245ffd5b5f6125a182611f66565b91506125ac83611f66565b92508282039050818111156125c4576125c361256a565b5b92915050565b5f82825260208201905092915050565b7f6d61726b6574696e672077616c6c65742063616e206e6f7420626520300000005f82015250565b5f61260e601d836125ca565b9150612619826125da565b602082019050919050565b5f6020820190508181035f83015261263b81612602565b9050919050565b7f526f7574657220616464726573732063616e206e6f74206265203000000000005f82015250565b5f612676601b836125ca565b915061268182612642565b602082019050919050565b5f6020820190508181035f8301526126a38161266a565b9050919050565b7f54726561737572792077616c6c65742063616e206e6f742062652030000000005f82015250565b5f6126de601c836125ca565b91506126e9826126aa565b602082019050919050565b5f6020820190508181035f83015261270b816126d2565b9050919050565b7f54726561737572792077616c6c65742063616e206e6f742062652073616d65205f8201527f77697468206d61726b6574696e672077616c6c65740000000000000000000000602082015250565b5f61276c6035836125ca565b915061277782612712565b604082019050919050565b5f6020820190508181035f83015261279981612760565b9050919050565b5f602082840312156127b5576127b4611de4565b5b5f6127c284828501611fdf565b91505092915050565b6127d481611fb8565b82525050565b5f6040820190506127ed5f8301856127cb565b6127fa60208301846127cb565b9392505050565b61280a81611ff3565b82525050565b5f819050919050565b5f61283361282e61282984612810565b61231c565b611ff3565b9050919050565b61284381612819565b82525050565b5f60808201905061285c5f830187612801565b6128696020830186612801565b612876604083018561283a565b612883606083018461283a565b95945050505050565b5f61289682611f66565b91506128a183611f66565b9250826128b1576128b061250d565b5b828204905092915050565b6128c581611f66565b82525050565b5f6128e56128e06128db84612810565b61231c565b611f66565b9050919050565b6128f5816128cb565b82525050565b5f60408201905061290e5f8301856128bc565b61291b60208301846128ec565b9392505050565b5f6020820190506129355f8301846128bc565b92915050565b7f45524332303a20617070726f76652066726f6d20746865207a65726f206164645f8201527f7265737300000000000000000000000000000000000000000000000000000000602082015250565b5f6129956024836125ca565b91506129a08261293b565b604082019050919050565b5f6020820190508181035f8301526129c281612989565b9050919050565b7f45524332303a20617070726f766520746f20746865207a65726f2061646472655f8201527f7373000000000000000000000000000000000000000000000000000000000000602082015250565b5f612a236022836125ca565b9150612a2e826129c9565b604082019050919050565b5f6020820190508181035f830152612a5081612a17565b9050919050565b7f4175746f6d61746564206d61726b6574206d616b6572207061697220697320615f8201527f6c72656164792073657420746f20746861742076616c75650000000000000000602082015250565b5f612ab16038836125ca565b9150612abc82612a57565b604082019050919050565b5f6020820190508181035f830152612ade81612aa5565b9050919050565b5f8115159050919050565b612af981612ae5565b82525050565b5f602082019050612b125f830184612af0565b92915050565b7f4163636f756e7420697320616c7265616479206578636c7564656400000000005f82015250565b5f612b4c601b836125ca565b9150612b5782612b18565b602082019050919050565b5f6020820190508181035f830152612b7981612b40565b9050919050565b5f612b8a82611f66565b9150612b9583611f66565b9250828201905080821115612bad57612bac61256a565b5b92915050565b7f43616e6e6f74206578636c756465206d6f7265207468616e203530206163636f5f8201527f756e74732e2020496e636c75646520612070726576696f75736c79206578636c60208201527f7564656420616464726573732e00000000000000000000000000000000000000604082015250565b5f612c33604d836125ca565b9150612c3e82612bb3565b606082019050919050565b5f6020820190508181035f830152612c6081612c27565b9050919050565b7f4163636f756e74206973206e6f74206578636c756465640000000000000000005f82015250565b5f612c9b6017836125ca565b9150612ca682612c67565b602082019050919050565b5f6020820190508181035f830152612cc881612c8f565b9050919050565b7f4e487b71000000000000000000000000000000000000000000000000000000005f52603260045260245ffd5b5f612d0682611f66565b9150612d1183611f66565b9250828202612d1f81611f66565b91508282048414831517612d3657612d3561256a565b5b5092915050565b7f4e487b71000000000000000000000000000000000000000000000000000000005f52603160045260245ffd5b7f4f776e61626c653a2063616c6c6572206973206e6f7420746865206f776e65725f82015250565b5f612d9e6020836125ca565b9150612da982612d6a565b602082019050919050565b5f6020820190508181035f830152612dcb81612d92565b9050919050565b7f416d6f756e74206d757374206265206c657373207468616e20746f74616c20725f8201527f65666c656374696f6e7300000000000000000000000000000000000000000000602082015250565b5f612e2c602a836125ca565b9150612e3782612dd2565b604082019050919050565b5f6020820190508181035f830152612e5981612e20565b9050919050565b61771980612e6d5f395ff3fe6080604052600436106102e7575f3560e01c806388f820201161018f578063cf188ad0116100db578063e086e5ec11610094578063f11a24d31161006e578063f11a24d314610b1c578063f2fde38b14610b46578063f637434214610b6e578063fc59d23d14610b98576102ee565b8063e086e5ec14610ab4578063e71dc3f514610aca578063ec44adc814610af4576102ee565b8063cf188ad0146109ac578063d5bf72b7146109d6578063db4091e9146109fe578063dd62ed3e14610a26578063de0aad5314610a62578063df8408fe14610a8c576102ee565b80639a7a23d611610148578063aacebbe311610122578063aacebbe3146108f6578063adb873bd1461091e578063b62496f514610948578063b95d11be14610984576102ee565b80639a7a23d614610856578063a457c2d71461087e578063a9059cbb146108ba576102ee565b806388f820201461076a57806389476069146107a65780638da5cb5b146107ce5780638f0bc167146107f8578063921369131461080257806395d89b411461082c576102ee565b80634626402b1161024e578063715018a6116102075780637bce5a04116101e15780637bce5a04146106c6578063809d458d146106f057806382685df51461071857806385af30c514610740576102ee565b8063715018a61461065e57806373b9e82c1461067457806375f0a8741461069c576102ee565b80634626402b1461054057806352390c021461056a5780635342acb4146105925780635c068a8c146105ce5780636b2fb124146105f857806370a0823114610622576102ee565b80632d838119116102a05780632d83811914610412578063313ce5671461044e5780633685d4191461047857806339509351146104a05780633fd1c86d146104dc5780634549b03914610504576102ee565b806306fdde03146102f2578063095ea7b31461031c5780630cfe2f3f1461035857806313114a9d1461038257806318160ddd146103ac57806323b872dd146103d6576102ee565b366102ee57005b5f5ffd5b3480156102fd575f5ffd5b50610306610bc2565b6040516103139190615f02565b60405180910390f35b348015610327575f5ffd5b50610342600480360381019061033d9190615fb3565b610c52565b60405161034f919061600b565b60405180910390f35b348015610363575f5ffd5b5061036c610c6f565b6040516103799190616041565b60405180910390f35b34801561038d575f5ffd5b50610396610c84565b6040516103a39190616069565b60405180910390f35b3480156103b7575f5ffd5b506103c0610c8d565b6040516103cd9190616069565b60405180910390f35b3480156103e1575f5ffd5b506103fc60048036038101906103f79190616082565b610c96565b604051610409919061600b565b60405180910390f35b34801561041d575f5ffd5b50610438600480360381019061043391906160d2565b610d49565b6040516104459190616069565b60405180910390f35b348015610459575f5ffd5b50610462610dae565b60405161046f9190616118565b60405180910390f35b348015610483575f5ffd5b5061049e60048036038101906104999190616131565b610dc3565b005b3480156104ab575f5ffd5b506104c660048036038101906104c19190615fb3565b611157565b6040516104d3919061600b565b60405180910390f35b3480156104e7575f5ffd5b5061050260048036038101906104fd9190616186565b6111fe565b005b34801561050f575f5ffd5b5061052a600480360381019061052591906161ee565b6114b3565b6040516105379190616069565b60405180910390f35b34801561054b575f5ffd5b50610554611596565b604051610561919061623b565b60405180910390f35b348015610575575f5ffd5b50610590600480360381019061058b9190616131565b6115bb565b005b34801561059d575f5ffd5b506105b860048036038101906105b39190616131565b611827565b6040516105c5919061600b565b60405180910390f35b3480156105d9575f5ffd5b506105e2611844565b6040516105ef9190616041565b60405180910390f35b348015610603575f5ffd5b5061060c611859565b6040516106199190616041565b60405180910390f35b34801561062d575f5ffd5b5061064860048036038101906106439190616131565b61186e565b6040516106559190616069565b60405180910390f35b348015610669575f5ffd5b50610672611951565b005b34801561067f575f5ffd5b5061069a600480360381019061069591906160d2565b611964565b005b3480156106a7575f5ffd5b506106b06119f3565b6040516106bd919061623b565b60405180910390f35b3480156106d1575f5ffd5b506106da611a18565b6040516106e79190616041565b60405180910390f35b3480156106fb575f5ffd5b5061071660048036038101906107119190616131565b611a2d565b005b348015610723575f5ffd5b5061073e60048036038101906107399190616186565b611cb3565b005b34801561074b575f5ffd5b50610754611f68565b604051610761919061623b565b60405180910390f35b348015610775575f5ffd5b50610790600480360381019061078b9190616131565b611f8d565b60405161079d919061600b565b60405180910390f35b3480156107b1575f5ffd5b506107cc60048036038101906107c79190616131565b611fdf565b005b3480156107d9575f5ffd5b506107e2612101565b6040516107ef919061623b565b60405180910390f35b610800612128565b005b34801561080d575f5ffd5b50610816612903565b6040516108239190616041565b60405180910390f35b348015610837575f5ffd5b50610840612918565b60405161084d9190615f02565b60405180910390f35b348015610861575f5ffd5b5061087c60048036038101906108779190616254565b6129a8565b005b348015610889575f5ffd5b506108a4600480360381019061089f9190615fb3565b6129be565b6040516108b1919061600b565b60405180910390f35b3480156108c5575f5ffd5b506108e060048036038101906108db9190615fb3565b612a65565b6040516108ed919061600b565b60405180910390f35b348015610901575f5ffd5b5061091c60048036038101906109179190616131565b612a82565b005b348015610929575f5ffd5b50610932612c9a565b60405161093f9190616041565b60405180910390f35b348015610953575f5ffd5b5061096e60048036038101906109699190616131565b612caf565b60405161097b919061600b565b60405180910390f35b34801561098f575f5ffd5b506109aa60048036038101906109a59190616131565b612ccc565b005b3480156109b7575f5ffd5b506109c0612ff3565b6040516109cd91906162ed565b60405180910390f35b3480156109e1575f5ffd5b506109fc60048036038101906109f79190616186565b613018565b005b348015610a09575f5ffd5b50610a246004803603810190610a1f9190616186565b6132cd565b005b348015610a31575f5ffd5b50610a4c6004803603810190610a479190616306565b613582565b604051610a599190616069565b60405180910390f35b348015610a6d575f5ffd5b50610a76613604565b604051610a839190616041565b60405180910390f35b348015610a97575f5ffd5b50610ab26004803603810190610aad9190616254565b613619565b005b348015610abf575f5ffd5b50610ac8613756565b005b348015610ad5575f5ffd5b50610ade613810565b604051610aeb9190616041565b60405180910390f35b348015610aff575f5ffd5b50610b1a6004803603810190610b159190616186565b613825565b005b348015610b27575f5ffd5b50610b30613ada565b604051610b3d9190616041565b60405180910390f35b348015610b51575f5ffd5b50610b6c6004803603810190610b679190616131565b613aef565b005b348015610b79575f5ffd5b50610b82613b71565b604051610b8f9190616041565b60405180910390f35b348015610ba3575f5ffd5b50610bac613b86565b604051610bb99190616069565b60405180910390f35b606060098054610bd190616371565b80601f0160208091040260200160405190810160405280929190818152602001828054610bfd90616371565b8015610c485780601f10610c1f57610100808354040283529160200191610c48565b820191905f5260205f20905b815481529060010190602001808311610c2b57829003601f168201915b5050505050905090565b5f610c65610c5e613b8c565b8484613b93565b6001905092915050565b601560049054906101000a900462ffffff1681565b5f600854905090565b5f600654905090565b5f610ca2848484613d56565b610d3e84610cae613b8c565b8460035f8973ffffffffffffffffffffffffffffffffffffffff1673ffffffffffffffffffffffffffffffffffffffff1681526020019081526020015f205f610cf5613b8c565b73ffffffffffffffffffffffffffffffffffffffff1673ffffffffffffffffffffffffffffffffffffffff1681526020019081526020015f2054610d3991906163ce565b613b93565b600190509392505050565b5f600754821115610d8f576040517f08c379a0000000000000000000000000000000000000000000000000000000008152600401610d8690616471565b60405180910390fd5b5f610d986141b9565b90508083610da691906164bc565b915050919050565b5f5f60149054906101000a900460ff16905090565b610dcb6141db565b60045f8273ffffffffffffffffffffffffffffffffffffffff1673ffffffffffffffffffffffffffffffffffffffff1681526020019081526020015f205f9054906101000a900460ff16610e54576040517f08c379a0000000000000000000000000000000000000000000000000000000008152600401610e4b90616536565b60405180910390fd5b5f5f90505b600580549050811015611153578173ffffffffffffffffffffffffffffffffffffffff1660058281548110610e9157610e90616554565b5b905f5260205f20015f9054906101000a900473ffffffffffffffffffffffffffffffffffffffff1673ffffffffffffffffffffffffffffffffffffffff1603611146575f60015f8473ffffffffffffffffffffffffffffffffffffffff1673ffffffffffffffffffffffffffffffffffffffff1681526020019081526020015f20549050610f1d6141b9565b60025f8573ffffffffffffffffffffffffffffffffffffffff1673ffffffffffffffffffffffffffffffffffffffff1681526020019081526020015f2054610f659190616581565b60015f8573ffffffffffffffffffffffffffffffffffffffff1673ffffffffffffffffffffffffffffffffffffffff1681526020019081526020015f208190555060015f8473ffffffffffffffffffffffffffffffffffffffff1673ffffffffffffffffffffffffffffffffffffffff1681526020019081526020015f205481600754610ff291906163ce565b610ffc91906165c2565b6007819055505f60045f8573ffffffffffffffffffffffffffffffffffffffff1673ffffffffffffffffffffffffffffffffffffffff1681526020019081526020015f205f6101000a81548160ff0219169083151502179055506005600160058054905061106a91906163ce565b8154811061107b5761107a616554565b5b905f5260205f20015f9054906101000a900473ffffffffffffffffffffffffffffffffffffffff16600583815481106110b7576110b6616554565b5b905f5260205f20015f6101000a81548173ffffffffffffffffffffffffffffffffffffffff021916908373ffffffffffffffffffffffffffffffffffffffff160217905550600580548061110e5761110d6165f5565b5b600190038181905f5260205f20015f6101000a81549073ffffffffffffffffffffffffffffffffffffffff0219169055905550611153565b8080600101915050610e59565b5050565b5f6111f4611163613b8c565b848460035f611170613b8c565b73ffffffffffffffffffffffffffffffffffffffff1673ffffffffffffffffffffffffffffffffffffffff1681526020019081526020015f205f8873ffffffffffffffffffffffffffffffffffffffff1673ffffffffffffffffffffffffffffffffffffffff1681526020019081526020015f20546111ef91906165c2565b613b93565b6001905092915050565b6112066141db565b62030d40601560199054906101000a900462ffffff16601560019054906101000a900462ffffff166015600d9054906101000a900462ffffff16601560079054906101000a900462ffffff168661125d9190616622565b6112679190616622565b6112719190616622565b61127b9190616622565b62ffffff1611156112c1576040517f08c379a00000000000000000000000000000000000000000000000000000000081526004016112b8906166a2565b60405180910390fd5b62030d406015601c9054906101000a900462ffffff16601560049054906101000a900462ffffff16601560109054906101000a900462ffffff166015600a9054906101000a900462ffffff16856113189190616622565b6113229190616622565b61132c9190616622565b6113369190616622565b62ffffff16111561137c576040517f08c379a00000000000000000000000000000000000000000000000000000000081526004016113739061670a565b60405180910390fd5b620249f08262ffffff1611156113c7576040517f08c379a00000000000000000000000000000000000000000000000000000000081526004016113be90616772565b60405180910390fd5b620249f08162ffffff161115611412576040517f08c379a0000000000000000000000000000000000000000000000000000000008152600401611409906167da565b60405180910390fd5b7fc239c020ec275d4a3e59d37954f59c061e7302d35a1b6bad801059aafe9631ee8282601560139054906101000a900462ffffff16601560169054906101000a900462ffffff1660405161146994939291906167f8565b60405180910390a181601560136101000a81548162ffffff021916908362ffffff16021790555080601560166101000a81548162ffffff021916908362ffffff1602179055505050565b5f6006548311156114f9576040517f08c379a00000000000000000000000000000000000000000000000000000000081526004016114f090616885565b60405180910390fd5b5f6115026141b9565b905082611522575f81856115169190616581565b90508092505050611590565b5f5f5f5f5f61153089614259565b945094509450945094505f81838587898e61154b91906163ce565b61155591906163ce565b61155f91906163ce565b61156991906163ce565b61157391906163ce565b90505f87826115829190616581565b905080985050505050505050505b92915050565b60175f9054906101000a900473ffffffffffffffffffffffffffffffffffffffff1681565b6115c36141db565b60045f8273ffffffffffffffffffffffffffffffffffffffff1673ffffffffffffffffffffffffffffffffffffffff1681526020019081526020015f205f9054906101000a900460ff161561164d576040517f08c379a0000000000000000000000000000000000000000000000000000000008152600401611644906168ed565b60405180910390fd5b6032600160058054905061166191906165c2565b11156116a2576040517f08c379a0000000000000000000000000000000000000000000000000000000008152600401611699906169a1565b60405180910390fd5b5f60015f8373ffffffffffffffffffffffffffffffffffffffff1673ffffffffffffffffffffffffffffffffffffffff1681526020019081526020015f2054111561176f5761172d60015f8373ffffffffffffffffffffffffffffffffffffffff1673ffffffffffffffffffffffffffffffffffffffff1681526020019081526020015f2054610d49565b60025f8373ffffffffffffffffffffffffffffffffffffffff1673ffffffffffffffffffffffffffffffffffffffff1681526020019081526020015f20819055505b600160045f8373ffffffffffffffffffffffffffffffffffffffff1673ffffffffffffffffffffffffffffffffffffffff1681526020019081526020015f205f6101000a81548160ff021916908315150217905550600581908060018154018082558091505060019003905f5260205f20015f9091909190916101000a81548173ffffffffffffffffffffffffffffffffffffffff021916908373ffffffffffffffffffffffffffffffffffffffff16021790555050565b601b602052805f5260405f205f915054906101000a900460ff1681565b601560169054906101000a900462ffffff1681565b601560139054906101000a900462ffffff1681565b5f60045f8373ffffffffffffffffffffffffffffffffffffffff1673ffffffffffffffffffffffffffffffffffffffff1681526020019081526020015f205f9054906101000a900460ff16156119035760025f8373ffffffffffffffffffffffffffffffffffffffff1673ffffffffffffffffffffffffffffffffffffffff1681526020019081526020015f2054905061194c565b61194960015f8473ffffffffffffffffffffffffffffffffffffffff1673ffffffffffffffffffffffffffffffffffffffff1681526020019081526020015f2054610d49565b90505b919050565b6119596141db565b6119625f6142b7565b565b61196c6141db565b5f81116119ae576040517f08c379a00000000000000000000000000000000000000000000000000000000081526004016119a590616a09565b60405180910390fd5b7f772a06bc936eb749842080c472181e970cd4f23bd1ab7d0b84a80aec26910434816018546040516119e1929190616a27565b60405180910390a18060188190555050565b60165f9054906101000a900473ffffffffffffffffffffffffffffffffffffffff1681565b601560109054906101000a900462ffffff1681565b611a356141db565b5f73ffffffffffffffffffffffffffffffffffffffff168173ffffffffffffffffffffffffffffffffffffffff1603611aa3576040517f08c379a0000000000000000000000000000000000000000000000000000000008152600401611a9a90616a98565b60405180910390fd5b3073ffffffffffffffffffffffffffffffffffffffff168173ffffffffffffffffffffffffffffffffffffffff1603611b11576040517f08c379a0000000000000000000000000000000000000000000000000000000008152600401611b0890616b26565b60405180910390fd5b8073ffffffffffffffffffffffffffffffffffffffff1660165f9054906101000a900473ffffffffffffffffffffffffffffffffffffffff1673ffffffffffffffffffffffffffffffffffffffff1603611ba0576040517f08c379a0000000000000000000000000000000000000000000000000000000008152600401611b9790616bb4565b60405180910390fd5b60175f9054906101000a900473ffffffffffffffffffffffffffffffffffffffff1673ffffffffffffffffffffffffffffffffffffffff168173ffffffffffffffffffffffffffffffffffffffff167f79a52cbec002ef70283103eb4140713100276944fca2819713130141d04df18360405160405180910390a38060175f6101000a81548173ffffffffffffffffffffffffffffffffffffffff021916908373ffffffffffffffffffffffffffffffffffffffff1602179055506001601b5f8373ffffffffffffffffffffffffffffffffffffffff1673ffffffffffffffffffffffffffffffffffffffff1681526020019081526020015f205f6101000a81548160ff02191690831515021790555050565b611cbb6141db565b62030d40601560199054906101000a900462ffffff16601560139054906101000a900462ffffff166015600d9054906101000a900462ffffff16601560079054906101000a900462ffffff1686611d129190616622565b611d1c9190616622565b611d269190616622565b611d309190616622565b62ffffff161115611d76576040517f08c379a0000000000000000000000000000000000000000000000000000000008152600401611d6d906166a2565b60405180910390fd5b62030d406015601c9054906101000a900462ffffff16601560169054906101000a900462ffffff16601560109054906101000a900462ffffff166015600a9054906101000a900462ffffff1685611dcd9190616622565b611dd79190616622565b611de19190616622565b611deb9190616622565b62ffffff161115611e31576040517f08c379a0000000000000000000000000000000000000000000000000000000008152600401611e289061670a565b60405180910390fd5b620249f08262ffffff161115611e7c576040517f08c379a0000000000000000000000000000000000000000000000000000000008152600401611e7390616772565b60405180910390fd5b620249f08162ffffff161115611ec7576040517f08c379a0000000000000000000000000000000000000000000000000000000008152600401611ebe906167da565b60405180910390fd5b7f2e7d9780ec398c47872eab5651ba43f0fa44ffed738321577e0db663fe8a05a58282601560019054906101000a900462ffffff16601560049054906101000a900462ffffff16604051611f1e94939291906167f8565b60405180910390a181601560016101000a81548162ffffff021916908362ffffff16021790555080601560046101000a81548162ffffff021916908362ffffff1602179055505050565b601a5f9054906101000a900473ffffffffffffffffffffffffffffffffffffffff1681565b5f60045f8373ffffffffffffffffffffffffffffffffffffffff1673ffffffffffffffffffffffffffffffffffffffff1681526020019081526020015f205f9054906101000a900460ff169050919050565b611fe76141db565b8073ffffffffffffffffffffffffffffffffffffffff163073ffffffffffffffffffffffffffffffffffffffff1603612055576040517f08c379a000000000000000000000000000000000000000000000000000000000815260040161204c90616c1c565b60405180910390fd5b6120fe612060612101565b8273ffffffffffffffffffffffffffffffffffffffff166370a08231306040518263ffffffff1660e01b8152600401612099919061623b565b602060405180830381865afa1580156120b4573d5f5f3e3d5ffd5b505050506040513d601f19601f820116820180604052508101906120d89190616c4e565b8373ffffffffffffffffffffffffffffffffffffffff166143789092919063ffffffff16565b50565b5f5f5f9054906101000a900473ffffffffffffffffffffffffffffffffffffffff16905090565b5f600267ffffffffffffffff81111561214457612143616c79565b5b6040519080825280602002602001820160405280156121725781602001602082028036833780820191505090505b50905060195f9054906101000a900473ffffffffffffffffffffffffffffffffffffffff1673ffffffffffffffffffffffffffffffffffffffff1663ad5c46486040518163ffffffff1660e01b8152600401602060405180830381865afa1580156121df573d5f5f3e3d5ffd5b505050506040513d601f19601f820116820180604052508101906122039190616cba565b815f8151811061221657612215616554565b5b602002602001019073ffffffffffffffffffffffffffffffffffffffff16908173ffffffffffffffffffffffffffffffffffffffff1681525050308160018151811061226557612264616554565b5b602002602001019073ffffffffffffffffffffffffffffffffffffffff16908173ffffffffffffffffffffffffffffffffffffffff168152505060195f9054906101000a900473ffffffffffffffffffffffffffffffffffffffff1673ffffffffffffffffffffffffffffffffffffffff1663b6f9de95345f8460175f9054906101000a900473ffffffffffffffffffffffffffffffffffffffff16426040518663ffffffff1660e01b81526004016123219493929190616dd5565b5f604051808303818588803b158015612338575f5ffd5b505af115801561234a573d5f5f3e3d5ffd5b505050505060045f60175f9054906101000a900473ffffffffffffffffffffffffffffffffffffffff1673ffffffffffffffffffffffffffffffffffffffff1673ffffffffffffffffffffffffffffffffffffffff1681526020019081526020015f205f9054906101000a900460ff16156126b95760025f60175f9054906101000a900473ffffffffffffffffffffffffffffffffffffffff1673ffffffffffffffffffffffffffffffffffffffff1673ffffffffffffffffffffffffffffffffffffffff1681526020019081526020015f205460065461242b91906163ce565b60068190555060015f60175f9054906101000a900473ffffffffffffffffffffffffffffffffffffffff1673ffffffffffffffffffffffffffffffffffffffff1673ffffffffffffffffffffffffffffffffffffffff1681526020019081526020015f205460075461249d91906163ce565b6007819055505f60025f60175f9054906101000a900473ffffffffffffffffffffffffffffffffffffffff1673ffffffffffffffffffffffffffffffffffffffff1673ffffffffffffffffffffffffffffffffffffffff1681526020019081526020015f205411156125ee575f73ffffffffffffffffffffffffffffffffffffffff1660175f9054906101000a900473ffffffffffffffffffffffffffffffffffffffff1673ffffffffffffffffffffffffffffffffffffffff167fddf252ad1be2c89b69c2b068fc378daa952ba7f163c4a11628f55a4df523b3ef60025f60175f9054906101000a900473ffffffffffffffffffffffffffffffffffffffff1673ffffffffffffffffffffffffffffffffffffffff1673ffffffffffffffffffffffffffffffffffffffff1681526020019081526020015f20546040516125e59190616069565b60405180910390a35b5f60015f60175f9054906101000a900473ffffffffffffffffffffffffffffffffffffffff1673ffffffffffffffffffffffffffffffffffffffff1673ffffffffffffffffffffffffffffffffffffffff1681526020019081526020015f20819055505f60025f60175f9054906101000a900473ffffffffffffffffffffffffffffffffffffffff1673ffffffffffffffffffffffffffffffffffffffff1673ffffffffffffffffffffffffffffffffffffffff1681526020019081526020015f2081905550612900565b5f61272160015f60175f9054906101000a900473ffffffffffffffffffffffffffffffffffffffff1673ffffffffffffffffffffffffffffffffffffffff1673ffffffffffffffffffffffffffffffffffffffff1681526020019081526020015f2054610d49565b90508060065461273191906163ce565b60068190555060015f60175f9054906101000a900473ffffffffffffffffffffffffffffffffffffffff1673ffffffffffffffffffffffffffffffffffffffff1673ffffffffffffffffffffffffffffffffffffffff1681526020019081526020015f20546007546127a391906163ce565b6007819055505f811115612838575f73ffffffffffffffffffffffffffffffffffffffff1660175f9054906101000a900473ffffffffffffffffffffffffffffffffffffffff1673ffffffffffffffffffffffffffffffffffffffff167fddf252ad1be2c89b69c2b068fc378daa952ba7f163c4a11628f55a4df523b3ef8360405161282f9190616069565b60405180910390a35b5f60015f60175f9054906101000a900473ffffffffffffffffffffffffffffffffffffffff1673ffffffffffffffffffffffffffffffffffffffff1673ffffffffffffffffffffffffffffffffffffffff1681526020019081526020015f20819055505f60025f60175f9054906101000a900473ffffffffffffffffffffffffffffffffffffffff1673ffffffffffffffffffffffffffffffffffffffff1673ffffffffffffffffffffffffffffffffffffffff1681526020019081526020015f2081905550505b50565b6015600d9054906101000a900462ffffff1681565b6060600a805461292790616371565b80601f016020809104026020016040519081016040528092919081815260200182805461295390616371565b801561299e5780601f106129755761010080835404028352916020019161299e565b820191905f5260205f20905b81548152906001019060200180831161298157829003601f168201915b5050505050905090565b6129b06141db565b6129ba82826143fe565b5050565b5f612a5b6129ca613b8c565b848460035f6129d7613b8c565b73ffffffffffffffffffffffffffffffffffffffff1673ffffffffffffffffffffffffffffffffffffffff1681526020019081526020015f205f8873ffffffffffffffffffffffffffffffffffffffff1673ffffffffffffffffffffffffffffffffffffffff1681526020019081526020015f2054612a5691906163ce565b613b93565b6001905092915050565b5f612a78612a71613b8c565b8484613d56565b6001905092915050565b612a8a6141db565b5f73ffffffffffffffffffffffffffffffffffffffff168173ffffffffffffffffffffffffffffffffffffffff1603612af8576040517f08c379a0000000000000000000000000000000000000000000000000000000008152600401612aef90616e69565b60405180910390fd5b60175f9054906101000a900473ffffffffffffffffffffffffffffffffffffffff1673ffffffffffffffffffffffffffffffffffffffff168173ffffffffffffffffffffffffffffffffffffffff1603612b87576040517f08c379a0000000000000000000000000000000000000000000000000000000008152600401612b7e90616bb4565b60405180910390fd5b60165f9054906101000a900473ffffffffffffffffffffffffffffffffffffffff1673ffffffffffffffffffffffffffffffffffffffff168173ffffffffffffffffffffffffffffffffffffffff167facf03c50dcf01e53e2775267d12acd0158d87c2f20fb84226837142693b36ae760405160405180910390a38060165f6101000a81548173ffffffffffffffffffffffffffffffffffffffff021916908373ffffffffffffffffffffffffffffffffffffffff1602179055506001601b5f8373ffffffffffffffffffffffffffffffffffffffff1673ffffffffffffffffffffffffffffffffffffffff1681526020019081526020015f205f6101000a81548160ff02191690831515021790555050565b601560199054906101000a900462ffffff1681565b601c602052805f5260405f205f915054906101000a900460ff1681565b612cd46141db565b8073ffffffffffffffffffffffffffffffffffffffff1660195f9054906101000a900473ffffffffffffffffffffffffffffffffffffffff1673ffffffffffffffffffffffffffffffffffffffff1614612d7557612d3430825f19613b93565b8060195f6101000a81548173ffffffffffffffffffffffffffffffffffffffff021916908373ffffffffffffffffffffffffffffffffffffffff1602179055505b60195f9054906101000a900473ffffffffffffffffffffffffffffffffffffffff1673ffffffffffffffffffffffffffffffffffffffff1663c45a01556040518163ffffffff1660e01b8152600401602060405180830381865afa158015612ddf573d5f5f3e3d5ffd5b505050506040513d601f19601f82011682018060405250810190612e039190616cba565b73ffffffffffffffffffffffffffffffffffffffff1663c9c653963060195f9054906101000a900473ffffffffffffffffffffffffffffffffffffffff1673ffffffffffffffffffffffffffffffffffffffff1663ad5c46486040518163ffffffff1660e01b8152600401602060405180830381865afa158015612e89573d5f5f3e3d5ffd5b505050506040513d601f19601f82011682018060405250810190612ead9190616cba565b6040518363ffffffff1660e01b8152600401612eca929190616e87565b6020604051808303815f875af1158015612ee6573d5f5f3e3d5ffd5b505050506040513d601f19601f82011682018060405250810190612f0a9190616cba565b601a5f6101000a81548173ffffffffffffffffffffffffffffffffffffffff021916908373ffffffffffffffffffffffffffffffffffffffff1602179055507f751e970af297d4e5267dabcea7b369ad737038498379b46448d190d9e261f3c560195f9054906101000a900473ffffffffffffffffffffffffffffffffffffffff16601a5f9054906101000a900473ffffffffffffffffffffffffffffffffffffffff16604051612fbc929190616e87565b60405180910390a1612ff0601a5f9054906101000a900473ffffffffffffffffffffffffffffffffffffffff1660016143fe565b50565b60195f9054906101000a900473ffffffffffffffffffffffffffffffffffffffff1681565b6130206141db565b62030d40601560199054906101000a900462ffffff16601560139054906101000a900462ffffff16601560019054906101000a900462ffffff166015600d9054906101000a900462ffffff16866130779190616622565b6130819190616622565b61308b9190616622565b6130959190616622565b62ffffff1611156130db576040517f08c379a00000000000000000000000000000000000000000000000000000000081526004016130d2906166a2565b60405180910390fd5b62030d406015601c9054906101000a900462ffffff16601560169054906101000a900462ffffff16601560049054906101000a900462ffffff16601560109054906101000a900462ffffff16856131329190616622565b61313c9190616622565b6131469190616622565b6131509190616622565b62ffffff161115613196576040517f08c379a000000000000000000000000000000000000000000000000000000000815260040161318d9061670a565b60405180910390fd5b620249f08262ffffff1611156131e1576040517f08c379a00000000000000000000000000000000000000000000000000000000081526004016131d890616772565b60405180910390fd5b620249f08162ffffff16111561322c576040517f08c379a0000000000000000000000000000000000000000000000000000000008152600401613223906167da565b60405180910390fd5b7fdec183740138e3a28dfd6f973ecd3bf00cd5d9b2544f6763c0a87f721444c5d18282601560079054906101000a900462ffffff166015600a9054906101000a900462ffffff1660405161328394939291906167f8565b60405180910390a181601560076101000a81548162ffffff021916908362ffffff160217905550806015600a6101000a81548162ffffff021916908362ffffff1602179055505050565b6132d56141db565b62030d40601560019054906101000a900462ffffff16601560139054906101000a900462ffffff166015600d9054906101000a900462ffffff16601560079054906101000a900462ffffff168661332c9190616622565b6133369190616622565b6133409190616622565b61334a9190616622565b62ffffff161115613390576040517f08c379a0000000000000000000000000000000000000000000000000000000008152600401613387906166a2565b60405180910390fd5b62030d40601560049054906101000a900462ffffff16601560169054906101000a900462ffffff16601560109054906101000a900462ffffff166015600a9054906101000a900462ffffff16856133e79190616622565b6133f19190616622565b6133fb9190616622565b6134059190616622565b62ffffff16111561344b576040517f08c379a00000000000000000000000000000000000000000000000000000000081526004016134429061670a565b60405180910390fd5b620249f08262ffffff161115613496576040517f08c379a000000000000000000000000000000000000000000000000000000000815260040161348d90616772565b60405180910390fd5b620249f08162ffffff1611156134e1576040517f08c379a00000000000000000000000000000000000000000000000000000000081526004016134d8906167da565b60405180910390fd5b7fdc717222e8a01249bcfb0a887e700321c9465eda757255fd7895bd39fab714d28282601560199054906101000a900462ffffff166015601c9054906101000a900462ffffff1660405161353894939291906167f8565b60405180910390a181601560196101000a81548162ffffff021916908362ffffff160217905550806015601c6101000a81548162ffffff021916908362ffffff1602179055505050565b5f60035f8473ffffffffffffffffffffffffffffffffffffffff1673ffffffffffffffffffffffffffffffffffffffff1681526020019081526020015f205f8373ffffffffffffffffffffffffffffffffffffffff1673ffffffffffffffffffffffffffffffffffffffff1681526020019081526020015f2054905092915050565b601560019054906101000a900462ffffff1681565b6136216141db565b801515601b5f8473ffffffffffffffffffffffffffffffffffffffff1673ffffffffffffffffffffffffffffffffffffffff1681526020019081526020015f205f9054906101000a900460ff161515036136b0576040517f08c379a00000000000000000000000000000000000000000000000000000000081526004016136a790616ef8565b60405180910390fd5b80601b5f8473ffffffffffffffffffffffffffffffffffffffff1673ffffffffffffffffffffffffffffffffffffffff1681526020019081526020015f205f6101000a81548160ff0219169083151502179055508173ffffffffffffffffffffffffffffffffffffffff167f2d43abd87b27cee7b0aa8c6f7e0b4a3247b683262a83cbc2318b0df398a49aa98260405161374a919061600b565b60405180910390a25050565b61375e6141db565b5f613767612101565b73ffffffffffffffffffffffffffffffffffffffff164760405161378a90616f43565b5f6040518083038185875af1925050503d805f81146137c4576040519150601f19603f3d011682016040523d82523d5f602084013e6137c9565b606091505b505090508061380d576040517f08c379a000000000000000000000000000000000000000000000000000000000815260040161380490616fa1565b60405180910390fd5b50565b6015601c9054906101000a900462ffffff1681565b61382d6141db565b62030d40601560199054906101000a900462ffffff16601560139054906101000a900462ffffff16601560019054906101000a900462ffffff16601560079054906101000a900462ffffff16866138849190616622565b61388e9190616622565b6138989190616622565b6138a29190616622565b62ffffff1611156138e8576040517f08c379a00000000000000000000000000000000000000000000000000000000081526004016138df906166a2565b60405180910390fd5b62030d406015601c9054906101000a900462ffffff16601560169054906101000a900462ffffff16601560049054906101000a900462ffffff166015600a9054906101000a900462ffffff168561393f9190616622565b6139499190616622565b6139539190616622565b61395d9190616622565b62ffffff1611156139a3576040517f08c379a000000000000000000000000000000000000000000000000000000000815260040161399a9061670a565b60405180910390fd5b620249f08262ffffff1611156139ee576040517f08c379a00000000000000000000000000000000000000000000000000000000081526004016139e590616772565b60405180910390fd5b620249f08162ffffff161115613a39576040517f08c379a0000000000000000000000000000000000000000000000000000000008152600401613a30906167da565b60405180910390fd5b7f70748cb9cb3bcb4dfd4fff8f2a6f23f636067b33e0244631f9abd38159c1de8582826015600d9054906101000a900462ffffff16601560109054906101000a900462ffffff16604051613a9094939291906167f8565b60405180910390a1816015600d6101000a81548162ffffff021916908362ffffff16021790555080601560106101000a81548162ffffff021916908362ffffff1602179055505050565b6015600a9054906101000a900462ffffff1681565b613af76141db565b5f73ffffffffffffffffffffffffffffffffffffffff168173ffffffffffffffffffffffffffffffffffffffff1603613b65576040517f08c379a0000000000000000000000000000000000000000000000000000000008152600401613b5c9061702f565b60405180910390fd5b613b6e816142b7565b50565b601560079054906101000a900462ffffff1681565b60185481565b5f33905090565b5f73ffffffffffffffffffffffffffffffffffffffff168373ffffffffffffffffffffffffffffffffffffffff1603613c01576040517f08c379a0000000000000000000000000000000000000000000000000000000008152600401613bf8906170bd565b60405180910390fd5b5f73ffffffffffffffffffffffffffffffffffffffff168273ffffffffffffffffffffffffffffffffffffffff1603613c6f576040517f08c379a0000000000000000000000000000000000000000000000000000000008152600401613c669061714b565b60405180910390fd5b8060035f8573ffffffffffffffffffffffffffffffffffffffff1673ffffffffffffffffffffffffffffffffffffffff1681526020019081526020015f205f8473ffffffffffffffffffffffffffffffffffffffff1673ffffffffffffffffffffffffffffffffffffffff1681526020019081526020015f20819055508173ffffffffffffffffffffffffffffffffffffffff168373ffffffffffffffffffffffffffffffffffffffff167f8c5be1e5ebec7d5bd14f71427d1e84f3dd0314c0f7b2291e5b200ac8c7c3b92583604051613d499190616069565b60405180910390a3505050565b5f73ffffffffffffffffffffffffffffffffffffffff168373ffffffffffffffffffffffffffffffffffffffff1603613dc4576040517f08c379a0000000000000000000000000000000000000000000000000000000008152600401613dbb906171d9565b60405180910390fd5b5f73ffffffffffffffffffffffffffffffffffffffff168273ffffffffffffffffffffffffffffffffffffffff1603613e32576040517f08c379a0000000000000000000000000000000000000000000000000000000008152600401613e2990617267565b60405180910390fd5b5f613e3c3061186e565b90505f601e54601d54613e4f91906165c2565b90505f6018548210158015613e645750828211155b905060155f9054906101000a900460ff16158015613e7f5750805b8015613eb357505f613eb1601a5f9054906101000a900473ffffffffffffffffffffffffffffffffffffffff1661186e565b115b8015613f055750601c5f8673ffffffffffffffffffffffffffffffffffffffff1673ffffffffffffffffffffffffffffffffffffffff1681526020019081526020015f205f9054906101000a900460ff165b15613f1357613f12614551565b5b613f1b6148e1565b60155f9054906101000a900460ff16158015613f7e5750601b5f8773ffffffffffffffffffffffffffffffffffffffff1673ffffffffffffffffffffffffffffffffffffffff1681526020019081526020015f205f9054906101000a900460ff16155b8015613fd15750601b5f8673ffffffffffffffffffffffffffffffffffffffff1673ffffffffffffffffffffffffffffffffffffffff1681526020019081526020015f205f9054906101000a900460ff16155b1561419e57601c5f8773ffffffffffffffffffffffffffffffffffffffff1673ffffffffffffffffffffffffffffffffffffffff1681526020019081526020015f205f9054906101000a900460ff16156140bb57601560049054906101000a900462ffffff1662ffffff16600b819055506015600a9054906101000a900462ffffff1662ffffff16600d81905550601560109054906101000a900462ffffff1662ffffff16600f81905550601560169054906101000a900462ffffff1662ffffff166011819055506015601c9054906101000a900462ffffff1662ffffff1660138190555061419d565b601c5f8673ffffffffffffffffffffffffffffffffffffffff1673ffffffffffffffffffffffffffffffffffffffff1681526020019081526020015f205f9054906101000a900460ff161561419c57601560019054906101000a900462ffffff1662ffffff16600b81905550601560079054906101000a900462ffffff1662ffffff16600d819055506015600d9054906101000a900462ffffff1662ffffff16600f81905550601560139054906101000a900462ffffff1662ffffff16601181905550601560199054906101000a900462ffffff1662ffffff166013819055505b5b5b6141a9868686614933565b6141b16155bc565b505050505050565b5f5f5f6141c46155eb565b9150915080826141d491906164bc565b9250505090565b6141e3613b8c565b73ffffffffffffffffffffffffffffffffffffffff16614201612101565b73ffffffffffffffffffffffffffffffffffffffff1614614257576040517f08c379a000000000000000000000000000000000000000000000000000000000815260040161424e906172cf565b60405180910390fd5b565b5f5f5f5f5f5f6142688761586e565b90505f61427488615892565b90505f614280896158b6565b90505f61428c8a6158da565b90505f6142988b6158fe565b9050848484848499509950995099509950505050505091939590929450565b5f5f5f9054906101000a900473ffffffffffffffffffffffffffffffffffffffff169050815f5f6101000a81548173ffffffffffffffffffffffffffffffffffffffff021916908373ffffffffffffffffffffffffffffffffffffffff1602179055508173ffffffffffffffffffffffffffffffffffffffff168173ffffffffffffffffffffffffffffffffffffffff167f8be0079c531659141344cd1fd0a4f28419497f9722a3daafe3b4186f6b6457e060405160405180910390a35050565b6143f98363a9059cbb60e01b84846040516024016143979291906172ed565b604051602081830303815290604052907bffffffffffffffffffffffffffffffffffffffffffffffffffffffff19166020820180517bffffffffffffffffffffffffffffffffffffffffffffffffffffffff8381831617835250505050615922565b505050565b801515601c5f8473ffffffffffffffffffffffffffffffffffffffff1673ffffffffffffffffffffffffffffffffffffffff1681526020019081526020015f205f9054906101000a900460ff1615150361448d576040517f08c379a000000000000000000000000000000000000000000000000000000000815260040161448490617384565b60405180910390fd5b80601c5f8473ffffffffffffffffffffffffffffffffffffffff1673ffffffffffffffffffffffffffffffffffffffff1681526020019081526020015f205f6101000a81548160ff02191690831515021790555080156144f5576144f0826115bb565b6144ff565b6144fe82610dc3565b5b8173ffffffffffffffffffffffffffffffffffffffff167fffa9187bf1f18bf477bd0ea1bcbb64e93b6a98132473929edfce215cd9b16fab82604051614545919061600b565b60405180910390a25050565b600160155f6101000a81548160ff0219169083151502179055505f6002601d5461457b91906164bc565b90505f4790505f5f5f601f54601e548661459591906165c2565b61459f91906165c2565b90505f8111156145b3576145b2816159e8565b5b5f84476145c091906163ce565b90505f82601e54836145d29190616581565b6145dc91906164bc565b90508287836145eb9190616581565b6145f591906164bc565b945084818361460491906163ce565b61460e91906163ce565b93505f8111156146e3575f60165f9054906101000a900473ffffffffffffffffffffffffffffffffffffffff1673ffffffffffffffffffffffffffffffffffffffff168260405161465e90616f43565b5f6040518083038185875af1925050503d805f8114614698576040519150601f19603f3d011682016040523d82523d5f602084013e61469d565b606091505b5050905080156146e1577f6f92bce3e91466137aa4d5474fe565c002872fb18ed6af4a856959be0a81277a5f836040516146d89291906173a2565b60405180910390a15b505b5f871180156146f157505f85115b1561473a576147008786615bf2565b7f28fc98272ce761178794ad6768050fea1648e07f1e2ffe15afd3a290f83814868786604051614731929190616a27565b60405180910390a15b5f84111561480b575f60175f9054906101000a900473ffffffffffffffffffffffffffffffffffffffff1673ffffffffffffffffffffffffffffffffffffffff168560405161478890616f43565b5f6040518083038185875af1925050503d805f81146147c2576040519150601f19603f3d011682016040523d82523d5f602084013e6147c7565b606091505b505090508015614809577fe3630e0003fb3e9f9d835bb839022e52ffd576f9f35c395dd17517106f78cb33856040516148009190616069565b60405180910390a15b505b5f601e819055505f601f819055505f601d819055505f61482a3061186e565b11156148bf575f73ffffffffffffffffffffffffffffffffffffffff1661484f612101565b73ffffffffffffffffffffffffffffffffffffffff16146148895761488430614876612101565b61487f3061186e565b613d56565b6148be565b6148bd3060175f9054906101000a900473ffffffffffffffffffffffffffffffffffffffff166148b83061186e565b613d56565b5b5b505050505050505f60155f6101000a81548160ff021916908315150217905550565b600b54600c81905550600d54600e81905550600f546010819055506011546012819055506013546014819055505f6013819055505f6011819055505f600f819055505f600b819055505f600d81905550565b5f5f5f5f5f61494186614259565b945094509450945094505f81838587898b61495c91906163ce565b61496691906163ce565b61497091906163ce565b61497a91906163ce565b61498491906163ce565b90505f61498f6141b9565b90508260065461499f91906163ce565b60068190555080836149b19190616581565b6007546149be91906163ce565b6007819055505f831115614a32575f73ffffffffffffffffffffffffffffffffffffffff168a73ffffffffffffffffffffffffffffffffffffffff167fddf252ad1be2c89b69c2b068fc378daa952ba7f163c4a11628f55a4df523b3ef85604051614a299190616069565b60405180910390a35b85601d54614a4091906165c2565b601d8190555084601e54614a5491906165c2565b601e8190555083601f54614a6891906165c2565b601f819055505f848688614a7c91906165c2565b614a8691906165c2565b90508181614a949190616581565b60015f3073ffffffffffffffffffffffffffffffffffffffff1673ffffffffffffffffffffffffffffffffffffffff1681526020019081526020015f2054614adc91906165c2565b60015f3073ffffffffffffffffffffffffffffffffffffffff1673ffffffffffffffffffffffffffffffffffffffff1681526020019081526020015f208190555060045f3073ffffffffffffffffffffffffffffffffffffffff1673ffffffffffffffffffffffffffffffffffffffff1681526020019081526020015f205f9054906101000a900460ff1615614bf7578060025f3073ffffffffffffffffffffffffffffffffffffffff1673ffffffffffffffffffffffffffffffffffffffff1681526020019081526020015f2054614bb591906165c2565b60025f3073ffffffffffffffffffffffffffffffffffffffff1673ffffffffffffffffffffffffffffffffffffffff1681526020019081526020015f20819055505b5f811115614c65573073ffffffffffffffffffffffffffffffffffffffff168b73ffffffffffffffffffffffffffffffffffffffff167fddf252ad1be2c89b69c2b068fc378daa952ba7f163c4a11628f55a4df523b3ef83604051614c5c9190616069565b60405180910390a35b5060045f8b73ffffffffffffffffffffffffffffffffffffffff1673ffffffffffffffffffffffffffffffffffffffff1681526020019081526020015f205f9054906101000a900460ff168015614d03575060045f8a73ffffffffffffffffffffffffffffffffffffffff1673ffffffffffffffffffffffffffffffffffffffff1681526020019081526020015f205f9054906101000a900460ff16155b15614ec1578760025f8c73ffffffffffffffffffffffffffffffffffffffff1673ffffffffffffffffffffffffffffffffffffffff1681526020019081526020015f2054614d5191906163ce565b60025f8c73ffffffffffffffffffffffffffffffffffffffff1673ffffffffffffffffffffffffffffffffffffffff1681526020019081526020015f20819055508088614d9e9190616581565b60015f8c73ffffffffffffffffffffffffffffffffffffffff1673ffffffffffffffffffffffffffffffffffffffff1681526020019081526020015f2054614de691906163ce565b60015f8c73ffffffffffffffffffffffffffffffffffffffff1673ffffffffffffffffffffffffffffffffffffffff1681526020019081526020015f20819055508082614e339190616581565b60015f8b73ffffffffffffffffffffffffffffffffffffffff1673ffffffffffffffffffffffffffffffffffffffff1681526020019081526020015f2054614e7b91906165c2565b60015f8b73ffffffffffffffffffffffffffffffffffffffff1673ffffffffffffffffffffffffffffffffffffffff1681526020019081526020015f208190555061552d565b60045f8b73ffffffffffffffffffffffffffffffffffffffff1673ffffffffffffffffffffffffffffffffffffffff1681526020019081526020015f205f9054906101000a900460ff16158015614f5e575060045f8a73ffffffffffffffffffffffffffffffffffffffff1673ffffffffffffffffffffffffffffffffffffffff1681526020019081526020015f205f9054906101000a900460ff165b1561511c578088614f6f9190616581565b60015f8c73ffffffffffffffffffffffffffffffffffffffff1673ffffffffffffffffffffffffffffffffffffffff1681526020019081526020015f2054614fb791906163ce565b60015f8c73ffffffffffffffffffffffffffffffffffffffff1673ffffffffffffffffffffffffffffffffffffffff1681526020019081526020015f20819055508160025f8b73ffffffffffffffffffffffffffffffffffffffff1673ffffffffffffffffffffffffffffffffffffffff1681526020019081526020015f205461504191906165c2565b60025f8b73ffffffffffffffffffffffffffffffffffffffff1673ffffffffffffffffffffffffffffffffffffffff1681526020019081526020015f2081905550808261508e9190616581565b60015f8b73ffffffffffffffffffffffffffffffffffffffff1673ffffffffffffffffffffffffffffffffffffffff1681526020019081526020015f20546150d691906165c2565b60015f8b73ffffffffffffffffffffffffffffffffffffffff1673ffffffffffffffffffffffffffffffffffffffff1681526020019081526020015f208190555061552c565b60045f8b73ffffffffffffffffffffffffffffffffffffffff1673ffffffffffffffffffffffffffffffffffffffff1681526020019081526020015f205f9054906101000a900460ff1680156151b8575060045f8a73ffffffffffffffffffffffffffffffffffffffff1673ffffffffffffffffffffffffffffffffffffffff1681526020019081526020015f205f9054906101000a900460ff165b15615400578760025f8c73ffffffffffffffffffffffffffffffffffffffff1673ffffffffffffffffffffffffffffffffffffffff1681526020019081526020015f205461520691906163ce565b60025f8c73ffffffffffffffffffffffffffffffffffffffff1673ffffffffffffffffffffffffffffffffffffffff1681526020019081526020015f208190555080886152539190616581565b60015f8c73ffffffffffffffffffffffffffffffffffffffff1673ffffffffffffffffffffffffffffffffffffffff1681526020019081526020015f205461529b91906163ce565b60015f8c73ffffffffffffffffffffffffffffffffffffffff1673ffffffffffffffffffffffffffffffffffffffff1681526020019081526020015f20819055508160025f8b73ffffffffffffffffffffffffffffffffffffffff1673ffffffffffffffffffffffffffffffffffffffff1681526020019081526020015f205461532591906165c2565b60025f8b73ffffffffffffffffffffffffffffffffffffffff1673ffffffffffffffffffffffffffffffffffffffff1681526020019081526020015f208190555080826153729190616581565b60015f8b73ffffffffffffffffffffffffffffffffffffffff1673ffffffffffffffffffffffffffffffffffffffff1681526020019081526020015f20546153ba91906165c2565b60015f8b73ffffffffffffffffffffffffffffffffffffffff1673ffffffffffffffffffffffffffffffffffffffff1681526020019081526020015f208190555061552b565b808861540c9190616581565b60015f8c73ffffffffffffffffffffffffffffffffffffffff1673ffffffffffffffffffffffffffffffffffffffff1681526020019081526020015f205461545491906163ce565b60015f8c73ffffffffffffffffffffffffffffffffffffffff1673ffffffffffffffffffffffffffffffffffffffff1681526020019081526020015f208190555080826154a19190616581565b60015f8b73ffffffffffffffffffffffffffffffffffffffff1673ffffffffffffffffffffffffffffffffffffffff1681526020019081526020015f20546154e991906165c2565b60015f8b73ffffffffffffffffffffffffffffffffffffffff1673ffffffffffffffffffffffffffffffffffffffff1681526020019081526020015f20819055505b5b5b615542818861553c9190616581565b88615ca1565b5f8211156155b0578873ffffffffffffffffffffffffffffffffffffffff168a73ffffffffffffffffffffffffffffffffffffffff167fddf252ad1be2c89b69c2b068fc378daa952ba7f163c4a11628f55a4df523b3ef846040516155a79190616069565b60405180910390a35b50505050505050505050565b601454601381905550601254601181905550600c54600b81905550600e54600d81905550601054600f81905550565b5f5f5f60075490505f60065490505f5f90505b600580549050811015615838578260015f6005848154811061562357615622616554565b5b905f5260205f20015f9054906101000a900473ffffffffffffffffffffffffffffffffffffffff1673ffffffffffffffffffffffffffffffffffffffff1673ffffffffffffffffffffffffffffffffffffffff1681526020019081526020015f2054118061570857508160025f600584815481106156a4576156a3616554565b5b905f5260205f20015f9054906101000a900473ffffffffffffffffffffffffffffffffffffffff1673ffffffffffffffffffffffffffffffffffffffff1673ffffffffffffffffffffffffffffffffffffffff1681526020019081526020015f2054115b1561571f576007546006549450945050505061586a565b60015f6005838154811061573657615735616554565b5b905f5260205f20015f9054906101000a900473ffffffffffffffffffffffffffffffffffffffff1673ffffffffffffffffffffffffffffffffffffffff1673ffffffffffffffffffffffffffffffffffffffff1681526020019081526020015f2054836157a391906163ce565b925060025f600583815481106157bc576157bb616554565b5b905f5260205f20015f9054906101000a900473ffffffffffffffffffffffffffffffffffffffff1673ffffffffffffffffffffffffffffffffffffffff1673ffffffffffffffffffffffffffffffffffffffff1681526020019081526020015f20548261582991906163ce565b915080806001019150506155fe565b5060065460075461584991906164bc565b8210156158615760075460065493509350505061586a565b81819350935050505b9091565b5f620f4240600b54836158819190616581565b61588b91906164bc565b9050919050565b5f620f4240600d54836158a59190616581565b6158af91906164bc565b9050919050565b5f620f4240600f54836158c99190616581565b6158d391906164bc565b9050919050565b5f620f4240601154836158ed9190616581565b6158f791906164bc565b9050919050565b5f620f4240601354836159119190616581565b61591b91906164bc565b9050919050565b5f615983826040518060400160405280602081526020017f5361666545524332303a206c6f772d6c6576656c2063616c6c206661696c65648152508573ffffffffffffffffffffffffffffffffffffffff16615ccd9092919063ffffffff16565b90505f815114806159a45750808060200190518101906159a391906173dd565b5b6159e3576040517f08c379a00000000000000000000000000000000000000000000000000000000081526004016159da90617478565b60405180910390fd5b505050565b5f600267ffffffffffffffff811115615a0457615a03616c79565b5b604051908082528060200260200182016040528015615a325781602001602082028036833780820191505090505b50905030815f81518110615a4957615a48616554565b5b602002602001019073ffffffffffffffffffffffffffffffffffffffff16908173ffffffffffffffffffffffffffffffffffffffff168152505060195f9054906101000a900473ffffffffffffffffffffffffffffffffffffffff1673ffffffffffffffffffffffffffffffffffffffff1663ad5c46486040518163ffffffff1660e01b8152600401602060405180830381865afa158015615aed573d5f5f3e3d5ffd5b505050506040513d601f19601f82011682018060405250810190615b119190616cba565b81600181518110615b2557615b24616554565b5b602002602001019073ffffffffffffffffffffffffffffffffffffffff16908173ffffffffffffffffffffffffffffffffffffffff168152505060195f9054906101000a900473ffffffffffffffffffffffffffffffffffffffff1673ffffffffffffffffffffffffffffffffffffffff1663791ac947835f8430426040518663ffffffff1660e01b8152600401615bc1959493929190617496565b5f604051808303815f87803b158015615bd8575f5ffd5b505af1158015615bea573d5f5f3e3d5ffd5b505050505050565b60195f9054906101000a900473ffffffffffffffffffffffffffffffffffffffff1673ffffffffffffffffffffffffffffffffffffffff1663f305d7198230855f5f61dead426040518863ffffffff1660e01b8152600401615c59969594939291906174ee565b60606040518083038185885af1158015615c75573d5f5f3e3d5ffd5b50505050506040513d601f19601f82011682018060405250810190615c9a919061754d565b5050505050565b81600754615caf91906163ce565b60078190555080600854615cc391906165c2565b6008819055505050565b6060615cdb84845f85615ce4565b90509392505050565b606082471015615d29576040517f08c379a0000000000000000000000000000000000000000000000000000000008152600401615d209061760d565b60405180910390fd5b5f5f8673ffffffffffffffffffffffffffffffffffffffff168587604051615d519190617665565b5f6040518083038185875af1925050503d805f8114615d8b576040519150601f19603f3d011682016040523d82523d5f602084013e615d90565b606091505b5091509150615da187838387615dad565b92505050949350505050565b60608315615e0e575f835103615e0657615dc685615e21565b615e05576040517f08c379a0000000000000000000000000000000000000000000000000000000008152600401615dfc906176c5565b60405180910390fd5b5b829050615e19565b615e188383615e43565b5b949350505050565b5f5f8273ffffffffffffffffffffffffffffffffffffffff163b119050919050565b5f82511115615e555781518083602001fd5b806040517f08c379a0000000000000000000000000000000000000000000000000000000008152600401615e899190615f02565b60405180910390fd5b5f81519050919050565b5f82825260208201905092915050565b8281835e5f83830152505050565b5f601f19601f8301169050919050565b5f615ed482615e92565b615ede8185615e9c565b9350615eee818560208601615eac565b615ef781615eba565b840191505092915050565b5f6020820190508181035f830152615f1a8184615eca565b905092915050565b5f5ffd5b5f73ffffffffffffffffffffffffffffffffffffffff82169050919050565b5f615f4f82615f26565b9050919050565b615f5f81615f45565b8114615f69575f5ffd5b50565b5f81359050615f7a81615f56565b92915050565b5f819050919050565b615f9281615f80565b8114615f9c575f5ffd5b50565b5f81359050615fad81615f89565b92915050565b5f5f60408385031215615fc957615fc8615f22565b5b5f615fd685828601615f6c565b9250506020615fe785828601615f9f565b9150509250929050565b5f8115159050919050565b61600581615ff1565b82525050565b5f60208201905061601e5f830184615ffc565b92915050565b5f62ffffff82169050919050565b61603b81616024565b82525050565b5f6020820190506160545f830184616032565b92915050565b61606381615f80565b82525050565b5f60208201905061607c5f83018461605a565b92915050565b5f5f5f6060848603121561609957616098615f22565b5b5f6160a686828701615f6c565b93505060206160b786828701615f6c565b92505060406160c886828701615f9f565b9150509250925092565b5f602082840312156160e7576160e6615f22565b5b5f6160f484828501615f9f565b91505092915050565b5f60ff82169050919050565b616112816160fd565b82525050565b5f60208201905061612b5f830184616109565b92915050565b5f6020828403121561614657616145615f22565b5b5f61615384828501615f6c565b91505092915050565b61616581616024565b811461616f575f5ffd5b50565b5f813590506161808161615c565b92915050565b5f5f6040838503121561619c5761619b615f22565b5b5f6161a985828601616172565b92505060206161ba85828601616172565b9150509250929050565b6161cd81615ff1565b81146161d7575f5ffd5b50565b5f813590506161e8816161c4565b92915050565b5f5f6040838503121561620457616203615f22565b5b5f61621185828601615f9f565b9250506020616222858286016161da565b9150509250929050565b61623581615f45565b82525050565b5f60208201905061624e5f83018461622c565b92915050565b5f5f6040838503121561626a57616269615f22565b5b5f61627785828601615f6c565b9250506020616288858286016161da565b9150509250929050565b5f819050919050565b5f6162b56162b06162ab84615f26565b616292565b615f26565b9050919050565b5f6162c68261629b565b9050919050565b5f6162d7826162bc565b9050919050565b6162e7816162cd565b82525050565b5f6020820190506163005f8301846162de565b92915050565b5f5f6040838503121561631c5761631b615f22565b5b5f61632985828601615f6c565b925050602061633a85828601615f6c565b9150509250929050565b7f4e487b71000000000000000000000000000000000000000000000000000000005f52602260045260245ffd5b5f600282049050600182168061638857607f821691505b60208210810361639b5761639a616344565b5b50919050565b7f4e487b71000000000000000000000000000000000000000000000000000000005f52601160045260245ffd5b5f6163d882615f80565b91506163e383615f80565b92508282039050818111156163fb576163fa6163a1565b5b92915050565b7f416d6f756e74206d757374206265206c657373207468616e20746f74616c20725f8201527f65666c656374696f6e7300000000000000000000000000000000000000000000602082015250565b5f61645b602a83615e9c565b915061646682616401565b604082019050919050565b5f6020820190508181035f8301526164888161644f565b9050919050565b7f4e487b71000000000000000000000000000000000000000000000000000000005f52601260045260245ffd5b5f6164c682615f80565b91506164d183615f80565b9250826164e1576164e061648f565b5b828204905092915050565b7f4163636f756e74206973206e6f74206578636c756465640000000000000000005f82015250565b5f616520601783615e9c565b915061652b826164ec565b602082019050919050565b5f6020820190508181035f83015261654d81616514565b9050919050565b7f4e487b71000000000000000000000000000000000000000000000000000000005f52603260045260245ffd5b5f61658b82615f80565b915061659683615f80565b92508282026165a481615f80565b915082820484148315176165bb576165ba6163a1565b5b5092915050565b5f6165cc82615f80565b91506165d783615f80565b92508282019050808211156165ef576165ee6163a1565b5b92915050565b7f4e487b71000000000000000000000000000000000000000000000000000000005f52603160045260245ffd5b5f61662c82616024565b915061663783616024565b9250828201905062ffffff811115616652576166516163a1565b5b92915050565b7f73656c6c20746f74616c20666565203c3d2033302500000000000000000000005f82015250565b5f61668c601583615e9c565b915061669782616658565b602082019050919050565b5f6020820190508181035f8301526166b981616680565b9050919050565b7f62757920746f74616c20666565203c3d203330250000000000000000000000005f82015250565b5f6166f4601483615e9c565b91506166ff826166c0565b602082019050919050565b5f6020820190508181035f830152616721816166e8565b9050919050565b7f73656c6c20666565203c3d2031352500000000000000000000000000000000005f82015250565b5f61675c600f83615e9c565b915061676782616728565b602082019050919050565b5f6020820190508181035f83015261678981616750565b9050919050565b7f62757920666565203c3d203135250000000000000000000000000000000000005f82015250565b5f6167c4600e83615e9c565b91506167cf82616790565b602082019050919050565b5f6020820190508181035f8301526167f1816167b8565b9050919050565b5f60808201905061680b5f830187616032565b6168186020830186616032565b6168256040830185616032565b6168326060830184616032565b95945050505050565b7f416d6f756e74206d757374206265206c657373207468616e20737570706c79005f82015250565b5f61686f601f83615e9c565b915061687a8261683b565b602082019050919050565b5f6020820190508181035f83015261689c81616863565b9050919050565b7f4163636f756e7420697320616c7265616479206578636c7564656400000000005f82015250565b5f6168d7601b83615e9c565b91506168e2826168a3565b602082019050919050565b5f6020820190508181035f830152616904816168cb565b9050919050565b7f43616e6e6f74206578636c756465206d6f7265207468616e203530206163636f5f8201527f756e74732e2020496e636c75646520612070726576696f75736c79206578636c60208201527f7564656420616464726573732e00000000000000000000000000000000000000604082015250565b5f61698b604d83615e9c565b91506169968261690b565b606082019050919050565b5f6020820190508181035f8301526169b88161697f565b9050919050565b7f6d696e416d6f756e74546f54616b65466565203e2030000000000000000000005f82015250565b5f6169f3601683615e9c565b91506169fe826169bf565b602082019050919050565b5f6020820190508181035f830152616a20816169e7565b9050919050565b5f604082019050616a3a5f83018561605a565b616a47602083018461605a565b9392505050565b7f54726561737572792077616c6c65742063616e277420626520300000000000005f82015250565b5f616a82601a83615e9c565b9150616a8d82616a4e565b602082019050919050565b5f6020820190508181035f830152616aaf81616a76565b9050919050565b7f54726561737572792077616c6c65742063616e2774206265207468652073616d5f8201527f6520617320746f6b656e00000000000000000000000000000000000000000000602082015250565b5f616b10602a83615e9c565b9150616b1b82616ab6565b604082019050919050565b5f6020820190508181035f830152616b3d81616b04565b9050919050565b7f6d61726b6574696e672077616c6c65742063616e27742062652073616d6520775f8201527f6974682054726561737572792077616c6c657400000000000000000000000000602082015250565b5f616b9e603383615e9c565b9150616ba982616b44565b604082019050919050565b5f6020820190508181035f830152616bcb81616b92565b9050919050565b7f4e6f7420616c6c6f7765640000000000000000000000000000000000000000005f82015250565b5f616c06600b83615e9c565b9150616c1182616bd2565b602082019050919050565b5f6020820190508181035f830152616c3381616bfa565b9050919050565b5f81519050616c4881615f89565b92915050565b5f60208284031215616c6357616c62615f22565b5b5f616c7084828501616c3a565b91505092915050565b7f4e487b71000000000000000000000000000000000000000000000000000000005f52604160045260245ffd5b5f81519050616cb481615f56565b92915050565b5f60208284031215616ccf57616cce615f22565b5b5f616cdc84828501616ca6565b91505092915050565b5f819050919050565b5f616d08616d03616cfe84616ce5565b616292565b615f80565b9050919050565b616d1881616cee565b82525050565b5f81519050919050565b5f82825260208201905092915050565b5f819050602082019050919050565b616d5081615f45565b82525050565b5f616d618383616d47565b60208301905092915050565b5f602082019050919050565b5f616d8382616d1e565b616d8d8185616d28565b9350616d9883616d38565b805f5b83811015616dc8578151616daf8882616d56565b9750616dba83616d6d565b925050600181019050616d9b565b5085935050505092915050565b5f608082019050616de85f830187616d0f565b8181036020830152616dfa8186616d79565b9050616e09604083018561622c565b616e16606083018461605a565b95945050505050565b7f6d61726b6574696e672077616c6c65742063616e2774206265203000000000005f82015250565b5f616e53601b83615e9c565b9150616e5e82616e1f565b602082019050919050565b5f6020820190508181035f830152616e8081616e47565b9050919050565b5f604082019050616e9a5f83018561622c565b616ea7602083018461622c565b9392505050565b7f616c7265616479000000000000000000000000000000000000000000000000005f82015250565b5f616ee2600783615e9c565b9150616eed82616eae565b602082019050919050565b5f6020820190508181035f830152616f0f81616ed6565b9050919050565b5f81905092915050565b50565b5f616f2e5f83616f16565b9150616f3982616f20565b5f82019050919050565b5f616f4d82616f23565b9150819050919050565b7f4661696c656420696e207769746864726177616c0000000000000000000000005f82015250565b5f616f8b601483615e9c565b9150616f9682616f57565b602082019050919050565b5f6020820190508181035f830152616fb881616f7f565b9050919050565b7f4f776e61626c653a206e6577206f776e657220697320746865207a65726f20615f8201527f6464726573730000000000000000000000000000000000000000000000000000602082015250565b5f617019602683615e9c565b915061702482616fbf565b604082019050919050565b5f6020820190508181035f8301526170468161700d565b9050919050565b7f45524332303a20617070726f76652066726f6d20746865207a65726f206164645f8201527f7265737300000000000000000000000000000000000000000000000000000000602082015250565b5f6170a7602483615e9c565b91506170b28261704d565b604082019050919050565b5f6020820190508181035f8301526170d48161709b565b9050919050565b7f45524332303a20617070726f766520746f20746865207a65726f2061646472655f8201527f7373000000000000000000000000000000000000000000000000000000000000602082015250565b5f617135602283615e9c565b9150617140826170db565b604082019050919050565b5f6020820190508181035f83015261716281617129565b9050919050565b7f45524332303a207472616e736665722066726f6d20746865207a65726f2061645f8201527f6472657373000000000000000000000000000000000000000000000000000000602082015250565b5f6171c3602583615e9c565b91506171ce82617169565b604082019050919050565b5f6020820190508181035f8301526171f0816171b7565b9050919050565b7f45524332303a207472616e7366657220746f20746865207a65726f20616464725f8201527f6573730000000000000000000000000000000000000000000000000000000000602082015250565b5f617251602383615e9c565b915061725c826171f7565b604082019050919050565b5f6020820190508181035f83015261727e81617245565b9050919050565b7f4f776e61626c653a2063616c6c6572206973206e6f7420746865206f776e65725f82015250565b5f6172b9602083615e9c565b91506172c482617285565b602082019050919050565b5f6020820190508181035f8301526172e6816172ad565b9050919050565b5f6040820190506173005f83018561622c565b61730d602083018461605a565b9392505050565b7f4175746f6d61746564206d61726b6574206d616b6572207061697220697320615f8201527f6c72656164792073657420746f20746861742076616c75650000000000000000602082015250565b5f61736e603883615e9c565b915061737982617314565b604082019050919050565b5f6020820190508181035f83015261739b81617362565b9050919050565b5f6040820190506173b55f830185616d0f565b6173c2602083018461605a565b9392505050565b5f815190506173d7816161c4565b92915050565b5f602082840312156173f2576173f1615f22565b5b5f6173ff848285016173c9565b91505092915050565b7f5361666545524332303a204552433230206f7065726174696f6e20646964206e5f8201527f6f74207375636365656400000000000000000000000000000000000000000000602082015250565b5f617462602a83615e9c565b915061746d82617408565b604082019050919050565b5f6020820190508181035f83015261748f81617456565b9050919050565b5f60a0820190506174a95f83018861605a565b6174b66020830187616d0f565b81810360408301526174c88186616d79565b90506174d7606083018561622c565b6174e4608083018461605a565b9695505050505050565b5f60c0820190506175015f83018961622c565b61750e602083018861605a565b61751b6040830187616d0f565b6175286060830186616d0f565b617535608083018561622c565b61754260a083018461605a565b979650505050505050565b5f5f5f6060848603121561756457617563615f22565b5b5f61757186828701616c3a565b935050602061758286828701616c3a565b925050604061759386828701616c3a565b9150509250925092565b7f416464726573733a20696e73756666696369656e742062616c616e636520666f5f8201527f722063616c6c0000000000000000000000000000000000000000000000000000602082015250565b5f6175f7602683615e9c565b91506176028261759d565b604082019050919050565b5f6020820190508181035f830152617624816175eb565b9050919050565b5f81519050919050565b5f61763f8261762b565b6176498185616f16565b9350617659818560208601615eac565b80840191505092915050565b5f6176708284617635565b915081905092915050565b7f416464726573733a2063616c6c20746f206e6f6e2d636f6e74726163740000005f82015250565b5f6176af601d83615e9c565b91506176ba8261767b565b602082019050919050565b5f6020820190508181035f8301526176dc816176a3565b905091905056fea2646970667358221220e45edf6d39f5627cfa820cc6a8ab8cfc2189d9f05b2abb64b510f8f851034b3664736f6c634300081e0033",
			"opcodes": "PUSH1 0x80 PUSH1 0x40 MSTORE CALLVALUE DUP1 ISZERO PUSH2 0xF JUMPI PUSH0 PUSH0 REVERT JUMPDEST POP PUSH1 0x40 MLOAD PUSH2 0xA586 CODESIZE SUB DUP1 PUSH2 0xA586 DUP4 CODECOPY DUP2 DUP2 ADD PUSH1 0x40 MSTORE DUP2 ADD SWAP1 PUSH2 0x31 SWAP2 SWAP1 PUSH2 0x21F0 JUMP JUMPDEST PUSH2 0x4D PUSH2 0x42 PUSH2 0x1012 PUSH1 0x20 SHL PUSH1 0x20 SHR JUMP JUMPDEST PUSH2 0x1019 PUSH1 0x20 SHL PUSH1 0x20 SHR JUMP JUMPDEST DUP1 PUSH1 0x40 ADD MLOAD PUSH0 PUSH1 0x14 PUSH2 0x100 EXP DUP2 SLOAD DUP2 PUSH1 0xFF MUL NOT AND SWAP1 DUP4 PUSH1 0xFF AND MUL OR SWAP1 SSTORE POP DUP1 PUSH0 ADD MLOAD PUSH1 0x9 SWAP1 DUP2 PUSH2 0x7D SWAP2 SWAP1 PUSH2 0x243E JUMP JUMPDEST POP DUP1 PUSH1 0x20 ADD MLOAD PUSH1 0xA SWAP1 DUP2 PUSH2 0x91 SWAP2 SWAP1 PUSH2 0x243E JUMP JUMPDEST POP DUP1 PUSH1 0x60 ADD MLOAD PUSH1 0x6 DUP2 SWAP1 SSTORE POP PUSH1 0x6 SLOAD PUSH0 NOT PUSH2 0xAC SWAP2 SWAP1 PUSH2 0x253A JUMP JUMPDEST PUSH0 NOT PUSH2 0xB8 SWAP2 SWAP1 PUSH2 0x2597 JUMP JUMPDEST PUSH1 0x7 DUP2 SWAP1 SSTORE POP PUSH1 0x7 SLOAD PUSH1 0x1 PUSH0 PUSH2 0xD2 PUSH2 0x1012 PUSH1 0x20 SHL PUSH1 0x20 SHR JUMP JUMPDEST PUSH20 0xFFFFFFFFFFFFFFFFFFFFFFFFFFFFFFFFFFFFFFFF AND PUSH20 0xFFFFFFFFFFFFFFFFFFFFFFFFFFFFFFFFFFFFFFFF AND DUP2 MSTORE PUSH1 0x20 ADD SWAP1 DUP2 MSTORE PUSH1 0x20 ADD PUSH0 KECCAK256 DUP2 SWAP1 SSTORE POP PUSH1 0x6 SLOAD PUSH1 0x2 PUSH0 PUSH2 0x123 PUSH2 0x1012 PUSH1 0x20 SHL PUSH1 0x20 SHR JUMP JUMPDEST PUSH20 0xFFFFFFFFFFFFFFFFFFFFFFFFFFFFFFFFFFFFFFFF AND PUSH20 0xFFFFFFFFFFFFFFFFFFFFFFFFFFFFFFFFFFFFFFFF AND DUP2 MSTORE PUSH1 0x20 ADD SWAP1 DUP2 MSTORE PUSH1 0x20 ADD PUSH0 KECCAK256 DUP2 SWAP1 SSTORE POP PUSH0 PUSH20 0xFFFFFFFFFFFFFFFFFFFFFFFFFFFFFFFFFFFFFFFF AND DUP2 PUSH1 0x80 ADD MLOAD PUSH20 0xFFFFFFFFFFFFFFFFFFFFFFFFFFFFFFFFFFFFFFFF AND SUB PUSH2 0x1D2 JUMPI PUSH1 0x40 MLOAD PUSH32 0x8C379A000000000000000000000000000000000000000000000000000000000 DUP2 MSTORE PUSH1 0x4 ADD PUSH2 0x1C9 SWAP1 PUSH2 0x2624 JUMP JUMPDEST PUSH1 0x40 MLOAD DUP1 SWAP2 SUB SWAP1 REVERT JUMPDEST PUSH0 PUSH20 0xFFFFFFFFFFFFFFFFFFFFFFFFFFFFFFFFFFFFFFFF AND DUP2 PUSH1 0xA0 ADD MLOAD PUSH20 0xFFFFFFFFFFFFFFFFFFFFFFFFFFFFFFFFFFFFFFFF AND SUB PUSH2 0x244 JUMPI PUSH1 0x40 MLOAD PUSH32 0x8C379A000000000000000000000000000000000000000000000000000000000 DUP2 MSTORE PUSH1 0x4 ADD PUSH2 0x23B SWAP1 PUSH2 0x268C JUMP JUMPDEST PUSH1 0x40 MLOAD DUP1 SWAP2 SUB SWAP1 REVERT JUMPDEST PUSH0 PUSH20 0xFFFFFFFFFFFFFFFFFFFFFFFFFFFFFFFFFFFFFFFF AND DUP2 PUSH1 0xC0 ADD MLOAD PUSH20 0xFFFFFFFFFFFFFFFFFFFFFFFFFFFFFFFFFFFFFFFF AND SUB PUSH2 0x2B6 JUMPI PUSH1 0x40 MLOAD PUSH32 0x8C379A000000000000000000000000000000000000000000000000000000000 DUP2 MSTORE PUSH1 0x4 ADD PUSH2 0x2AD SWAP1 PUSH2 0x26F4 JUMP JUMPDEST PUSH1 0x40 MLOAD DUP1 SWAP2 SUB SWAP1 REVERT JUMPDEST DUP1 PUSH1 0x80 ADD MLOAD PUSH20 0xFFFFFFFFFFFFFFFFFFFFFFFFFFFFFFFFFFFFFFFF AND DUP2 PUSH1 0xC0 ADD MLOAD PUSH20 0xFFFFFFFFFFFFFFFFFFFFFFFFFFFFFFFFFFFFFFFF AND SUB PUSH2 0x32C JUMPI PUSH1 0x40 MLOAD PUSH32 0x8C379A000000000000000000000000000000000000000000000000000000000 DUP2 MSTORE PUSH1 0x4 ADD PUSH2 0x323 SWAP1 PUSH2 0x2782 JUMP JUMPDEST PUSH1 0x40 MLOAD DUP1 SWAP2 SUB SWAP1 REVERT JUMPDEST DUP1 PUSH1 0x80 ADD MLOAD PUSH1 0x16 PUSH0 PUSH2 0x100 EXP DUP2 SLOAD DUP2 PUSH20 0xFFFFFFFFFFFFFFFFFFFFFFFFFFFFFFFFFFFFFFFF MUL NOT AND SWAP1 DUP4 PUSH20 0xFFFFFFFFFFFFFFFFFFFFFFFFFFFFFFFFFFFFFFFF AND MUL OR SWAP1 SSTORE POP DUP1 PUSH1 0xC0 ADD MLOAD PUSH1 0x17 PUSH0 PUSH2 0x100 EXP DUP2 SLOAD DUP2 PUSH20 0xFFFFFFFFFFFFFFFFFFFFFFFFFFFFFFFFFFFFFFFF MUL NOT AND SWAP1 DUP4 PUSH20 0xFFFFFFFFFFFFFFFFFFFFFFFFFFFFFFFFFFFFFFFF AND MUL OR SWAP1 SSTORE POP PUSH0 PUSH20 0xFFFFFFFFFFFFFFFFFFFFFFFFFFFFFFFFFFFFFFFF AND PUSH1 0x16 PUSH0 SWAP1 SLOAD SWAP1 PUSH2 0x100 EXP SWAP1 DIV PUSH20 0xFFFFFFFFFFFFFFFFFFFFFFFFFFFFFFFFFFFFFFFF AND PUSH20 0xFFFFFFFFFFFFFFFFFFFFFFFFFFFFFFFFFFFFFFFF AND PUSH32 0xACF03C50DCF01E53E2775267D12ACD0158D87C2F20FB84226837142693B36AE7 PUSH1 0x40 MLOAD PUSH1 0x40 MLOAD DUP1 SWAP2 SUB SWAP1 LOG3 PUSH0 PUSH20 0xFFFFFFFFFFFFFFFFFFFFFFFFFFFFFFFFFFFFFFFF AND PUSH1 0x17 PUSH0 SWAP1 SLOAD SWAP1 PUSH2 0x100 EXP SWAP1 DIV PUSH20 0xFFFFFFFFFFFFFFFFFFFFFFFFFFFFFFFFFFFFFFFF AND PUSH20 0xFFFFFFFFFFFFFFFFFFFFFFFFFFFFFFFFFFFFFFFF AND PUSH32 0x79A52CBEC002EF70283103EB4140713100276944FCA2819713130141D04DF183 PUSH1 0x40 MLOAD PUSH1 0x40 MLOAD DUP1 SWAP2 SUB SWAP1 LOG3 DUP1 PUSH1 0xA0 ADD MLOAD PUSH1 0x19 PUSH0 PUSH2 0x100 EXP DUP2 SLOAD DUP2 PUSH20 0xFFFFFFFFFFFFFFFFFFFFFFFFFFFFFFFFFFFFFFFF MUL NOT AND SWAP1 DUP4 PUSH20 0xFFFFFFFFFFFFFFFFFFFFFFFFFFFFFFFFFFFFFFFF AND MUL OR SWAP1 SSTORE POP PUSH2 0x521 ADDRESS PUSH1 0x19 PUSH0 SWAP1 SLOAD SWAP1 PUSH2 0x100 EXP SWAP1 DIV PUSH20 0xFFFFFFFFFFFFFFFFFFFFFFFFFFFFFFFFFFFFFFFF AND PUSH0 NOT PUSH2 0x10DA PUSH1 0x20 SHL PUSH1 0x20 SHR JUMP JUMPDEST PUSH1 0x19 PUSH0 SWAP1 SLOAD SWAP1 PUSH2 0x100 EXP SWAP1 DIV PUSH20 0xFFFFFFFFFFFFFFFFFFFFFFFFFFFFFFFFFFFFFFFF AND PUSH20 0xFFFFFFFFFFFFFFFFFFFFFFFFFFFFFFFFFFFFFFFF AND PUSH4 0xC45A0155 PUSH1 0x40 MLOAD DUP2 PUSH4 0xFFFFFFFF AND PUSH1 0xE0 SHL DUP2 MSTORE PUSH1 0x4 ADD PUSH1 0x20 PUSH1 0x40 MLOAD DUP1 DUP4 SUB DUP2 DUP7 GAS STATICCALL ISZERO DUP1 ISZERO PUSH2 0x58B JUMPI RETURNDATASIZE PUSH0 PUSH0 RETURNDATACOPY RETURNDATASIZE PUSH0 REVERT JUMPDEST POP POP POP POP PUSH1 0x40 MLOAD RETURNDATASIZE PUSH1 0x1F NOT PUSH1 0x1F DUP3 ADD AND DUP3 ADD DUP1 PUSH1 0x40 MSTORE POP DUP2 ADD SWAP1 PUSH2 0x5AF SWAP2 SWAP1 PUSH2 0x27A0 JUMP JUMPDEST PUSH20 0xFFFFFFFFFFFFFFFFFFFFFFFFFFFFFFFFFFFFFFFF AND PUSH4 0xC9C65396 ADDRESS PUSH1 0x19 PUSH0 SWAP1 SLOAD SWAP1 PUSH2 0x100 EXP SWAP1 DIV PUSH20 0xFFFFFFFFFFFFFFFFFFFFFFFFFFFFFFFFFFFFFFFF AND PUSH20 0xFFFFFFFFFFFFFFFFFFFFFFFFFFFFFFFFFFFFFFFF AND PUSH4 0xAD5C4648 PUSH1 0x40 MLOAD DUP2 PUSH4 0xFFFFFFFF AND PUSH1 0xE0 SHL DUP2 MSTORE PUSH1 0x4 ADD PUSH1 0x20 PUSH1 0x40 MLOAD DUP1 DUP4 SUB DUP2 DUP7 GAS STATICCALL ISZERO DUP1 ISZERO PUSH2 0x635 JUMPI RETURNDATASIZE PUSH0 PUSH0 RETURNDATACOPY RETURNDATASIZE PUSH0 REVERT JUMPDEST POP POP POP POP PUSH1 0x40 MLOAD RETURNDATASIZE PUSH1 0x1F NOT PUSH1 0x1F DUP3 ADD AND DUP3 ADD DUP1 PUSH1 0x40 MSTORE POP DUP2 ADD SWAP1 PUSH2 0x659 SWAP2 SWAP1 PUSH2 0x27A0 JUMP JUMPDEST PUSH1 0x40 MLOAD DUP4 PUSH4 0xFFFFFFFF AND PUSH1 0xE0 SHL DUP2 MSTORE PUSH1 0x4 ADD PUSH2 0x676 SWAP3 SWAP2 SWAP1 PUSH2 0x27DA JUMP JUMPDEST PUSH1 0x20 PUSH1 0x40 MLOAD DUP1 DUP4 SUB DUP2 PUSH0 DUP8 GAS CALL ISZERO DUP1 ISZERO PUSH2 0x692 JUMPI RETURNDATASIZE PUSH0 PUSH0 RETURNDATACOPY RETURNDATASIZE PUSH0 REVERT JUMPDEST POP POP POP POP PUSH1 0x40 MLOAD RETURNDATASIZE PUSH1 0x1F NOT PUSH1 0x1F DUP3 ADD AND DUP3 ADD DUP1 PUSH1 0x40 MSTORE POP DUP2 ADD SWAP1 PUSH2 0x6B6 SWAP2 SWAP1 PUSH2 0x27A0 JUMP JUMPDEST PUSH1 0x1A PUSH0 PUSH2 0x100 EXP DUP2 SLOAD DUP2 PUSH20 0xFFFFFFFFFFFFFFFFFFFFFFFFFFFFFFFFFFFFFFFF MUL NOT AND SWAP1 DUP4 PUSH20 0xFFFFFFFFFFFFFFFFFFFFFFFFFFFFFFFFFFFFFFFF AND MUL OR SWAP1 SSTORE POP PUSH32 0x751E970AF297D4E5267DABCEA7B369AD737038498379B46448D190D9E261F3C5 PUSH1 0x19 PUSH0 SWAP1 SLOAD SWAP1 PUSH2 0x100 EXP SWAP1 DIV PUSH20 0xFFFFFFFFFFFFFFFFFFFFFFFFFFFFFFFFFFFFFFFF AND PUSH1 0x1A PUSH0 SWAP1 SLOAD SWAP1 PUSH2 0x100 EXP SWAP1 DIV PUSH20 0xFFFFFFFFFFFFFFFFFFFFFFFFFFFFFFFFFFFFFFFF AND PUSH1 0x40 MLOAD PUSH2 0x768 SWAP3 SWAP2 SWAP1 PUSH2 0x27DA JUMP JUMPDEST PUSH1 0x40 MLOAD DUP1 SWAP2 SUB SWAP1 LOG1 DUP1 PUSH1 0xE0 ADD MLOAD PUSH1 0x15 PUSH1 0x7 PUSH2 0x100 EXP DUP2 SLOAD DUP2 PUSH3 0xFFFFFF MUL NOT AND SWAP1 DUP4 PUSH3 0xFFFFFF AND MUL OR SWAP1 SSTORE POP DUP1 PUSH2 0x100 ADD MLOAD PUSH1 0x15 PUSH1 0xA PUSH2 0x100 EXP DUP2 SLOAD DUP2 PUSH3 0xFFFFFF MUL NOT AND SWAP1 DUP4 PUSH3 0xFFFFFF AND MUL OR SWAP1 SSTORE POP PUSH32 0xDEC183740138E3A28DFD6F973ECD3BF00CD5D9B2544F6763C0A87F721444C5D1 PUSH1 0x15 PUSH1 0x7 SWAP1 SLOAD SWAP1 PUSH2 0x100 EXP SWAP1 DIV PUSH3 0xFFFFFF AND PUSH1 0x15 PUSH1 0xA SWAP1 SLOAD SWAP1 PUSH2 0x100 EXP SWAP1 DIV PUSH3 0xFFFFFF AND PUSH0 PUSH0 PUSH1 0x40 MLOAD PUSH2 0x80E SWAP5 SWAP4 SWAP3 SWAP2 SWAP1 PUSH2 0x2849 JUMP JUMPDEST PUSH1 0x40 MLOAD DUP1 SWAP2 SUB SWAP1 LOG1 DUP1 PUSH2 0x120 ADD MLOAD PUSH1 0x15 PUSH1 0xD PUSH2 0x100 EXP DUP2 SLOAD DUP2 PUSH3 0xFFFFFF MUL NOT AND SWAP1 DUP4 PUSH3 0xFFFFFF AND MUL OR SWAP1 SSTORE POP DUP1 PUSH2 0x140 ADD MLOAD PUSH1 0x15 PUSH1 0x10 PUSH2 0x100 EXP DUP2 SLOAD DUP2 PUSH3 0xFFFFFF MUL NOT AND SWAP1 DUP4 PUSH3 0xFFFFFF AND MUL OR SWAP1 SSTORE POP PUSH32 0x70748CB9CB3BCB4DFD4FFF8F2A6F23F636067B33E0244631F9ABD38159C1DE85 PUSH1 0x15 PUSH1 0xD SWAP1 SLOAD SWAP1 PUSH2 0x100 EXP SWAP1 DIV PUSH3 0xFFFFFF AND PUSH1 0x15 PUSH1 0x10 SWAP1 SLOAD SWAP1 PUSH2 0x100 EXP SWAP1 DIV PUSH3 0xFFFFFF AND PUSH0 PUSH0 PUSH1 0x40 MLOAD PUSH2 0x8B5 SWAP5 SWAP4 SWAP3 SWAP2 SWAP1 PUSH2 0x2849 JUMP JUMPDEST PUSH1 0x40 MLOAD DUP1 SWAP2 SUB SWAP1 LOG1 DUP1 PUSH2 0x160 ADD MLOAD PUSH1 0x15 PUSH1 0x13 PUSH2 0x100 EXP DUP2 SLOAD DUP2 PUSH3 0xFFFFFF MUL NOT AND SWAP1 DUP4 PUSH3 0xFFFFFF AND MUL OR SWAP1 SSTORE POP DUP1 PUSH2 0x180 ADD MLOAD PUSH1 0x15 PUSH1 0x16 PUSH2 0x100 EXP DUP2 SLOAD DUP2 PUSH3 0xFFFFFF MUL NOT AND SWAP1 DUP4 PUSH3 0xFFFFFF AND MUL OR SWAP1 SSTORE POP PUSH32 0xC239C020EC275D4A3E59D37954F59C061E7302D35A1B6BAD801059AAFE9631EE PUSH1 0x15 PUSH1 0x13 SWAP1 SLOAD SWAP1 PUSH2 0x100 EXP SWAP1 DIV PUSH3 0xFFFFFF AND PUSH1 0x15 PUSH1 0x16 SWAP1 SLOAD SWAP1 PUSH2 0x100 EXP SWAP1 DIV PUSH3 0xFFFFFF AND PUSH0 PUSH0 PUSH1 0x40 MLOAD PUSH2 0x95C SWAP5 SWAP4 SWAP3 SWAP2 SWAP1 PUSH2 0x2849 JUMP JUMPDEST PUSH1 0x40 MLOAD DUP1 SWAP2 SUB SWAP1 LOG1 DUP1 PUSH2 0x1E0 ADD MLOAD PUSH1 0x15 PUSH1 0x19 PUSH2 0x100 EXP DUP2 SLOAD DUP2 PUSH3 0xFFFFFF MUL NOT AND SWAP1 DUP4 PUSH3 0xFFFFFF AND MUL OR SWAP1 SSTORE POP DUP1 PUSH2 0x200 ADD MLOAD PUSH1 0x15 PUSH1 0x1C PUSH2 0x100 EXP DUP2 SLOAD DUP2 PUSH3 0xFFFFFF MUL NOT AND SWAP1 DUP4 PUSH3 0xFFFFFF AND MUL OR SWAP1 SSTORE POP PUSH32 0xDC717222E8A01249BCFB0A887E700321C9465EDA757255FD7895BD39FAB714D2 PUSH1 0x15 PUSH1 0x19 SWAP1 SLOAD SWAP1 PUSH2 0x100 EXP SWAP1 DIV PUSH3 0xFFFFFF AND PUSH1 0x15 PUSH1 0x1C SWAP1 SLOAD SWAP1 PUSH2 0x100 EXP SWAP1 DIV PUSH3 0xFFFFFF AND PUSH0 PUSH0 PUSH1 0x40 MLOAD PUSH2 0xA03 SWAP5 SWAP4 SWAP3 SWAP2 SWAP1 PUSH2 0x2849 JUMP JUMPDEST PUSH1 0x40 MLOAD DUP1 SWAP2 SUB SWAP1 LOG1 DUP1 PUSH2 0x1A0 ADD MLOAD PUSH1 0x15 PUSH1 0x1 PUSH2 0x100 EXP DUP2 SLOAD DUP2 PUSH3 0xFFFFFF MUL NOT AND SWAP1 DUP4 PUSH3 0xFFFFFF AND MUL OR SWAP1 SSTORE POP DUP1 PUSH2 0x1C0 ADD MLOAD PUSH1 0x15 PUSH1 0x4 PUSH2 0x100 EXP DUP2 SLOAD DUP2 PUSH3 0xFFFFFF MUL NOT AND SWAP1 DUP4 PUSH3 0xFFFFFF AND MUL OR SWAP1 SSTORE POP PUSH32 0x2E7D9780EC398C47872EAB5651BA43F0FA44FFED738321577E0DB663FE8A05A5 PUSH1 0x15 PUSH1 0x1 SWAP1 SLOAD SWAP1 PUSH2 0x100 EXP SWAP1 DIV PUSH3 0xFFFFFF AND PUSH1 0x15 PUSH1 0x4 SWAP1 SLOAD SWAP1 PUSH2 0x100 EXP SWAP1 DIV PUSH3 0xFFFFFF AND PUSH0 PUSH0 PUSH1 0x40 MLOAD PUSH2 0xAAA SWAP5 SWAP4 SWAP3 SWAP2 SWAP1 PUSH2 0x2849 JUMP JUMPDEST PUSH1 0x40 MLOAD DUP1 SWAP2 SUB SWAP1 LOG1 PUSH2 0x2710 DUP2 PUSH1 0x60 ADD MLOAD PUSH2 0xAC4 SWAP2 SWAP1 PUSH2 0x288C JUMP JUMPDEST PUSH1 0x18 DUP2 SWAP1 SSTORE POP PUSH32 0x772A06BC936EB749842080C472181E970CD4F23BD1AB7D0B84A80AEC26910434 PUSH1 0x18 SLOAD PUSH0 PUSH1 0x40 MLOAD PUSH2 0xAFD SWAP3 SWAP2 SWAP1 PUSH2 0x28FB JUMP JUMPDEST PUSH1 0x40 MLOAD DUP1 SWAP2 SUB SWAP1 LOG1 PUSH1 0x1 PUSH1 0x4 PUSH0 PUSH2 0xDEAD PUSH20 0xFFFFFFFFFFFFFFFFFFFFFFFFFFFFFFFFFFFFFFFF AND PUSH20 0xFFFFFFFFFFFFFFFFFFFFFFFFFFFFFFFFFFFFFFFF AND DUP2 MSTORE PUSH1 0x20 ADD SWAP1 DUP2 MSTORE PUSH1 0x20 ADD PUSH0 KECCAK256 PUSH0 PUSH2 0x100 EXP DUP2 SLOAD DUP2 PUSH1 0xFF MUL NOT AND SWAP1 DUP4 ISZERO ISZERO MUL OR SWAP1 SSTORE POP PUSH1 0x5 PUSH2 0xDEAD SWAP1 DUP1 PUSH1 0x1 DUP2 SLOAD ADD DUP1 DUP3 SSTORE DUP1 SWAP2 POP POP PUSH1 0x1 SWAP1 SUB SWAP1 PUSH0 MSTORE PUSH1 0x20 PUSH0 KECCAK256 ADD PUSH0 SWAP1 SWAP2 SWAP1 SWAP2 SWAP1 SWAP2 PUSH2 0x100 EXP DUP2 SLOAD DUP2 PUSH20 0xFFFFFFFFFFFFFFFFFFFFFFFFFFFFFFFFFFFFFFFF MUL NOT AND SWAP1 DUP4 PUSH20 0xFFFFFFFFFFFFFFFFFFFFFFFFFFFFFFFFFFFFFFFF AND MUL OR SWAP1 SSTORE POP PUSH1 0x1 PUSH1 0x4 PUSH0 ADDRESS PUSH20 0xFFFFFFFFFFFFFFFFFFFFFFFFFFFFFFFFFFFFFFFF AND PUSH20 0xFFFFFFFFFFFFFFFFFFFFFFFFFFFFFFFFFFFFFFFF AND DUP2 MSTORE PUSH1 0x20 ADD SWAP1 DUP2 MSTORE PUSH1 0x20 ADD PUSH0 KECCAK256 PUSH0 PUSH2 0x100 EXP DUP2 SLOAD DUP2 PUSH1 0xFF MUL NOT AND SWAP1 DUP4 ISZERO ISZERO MUL OR SWAP1 SSTORE POP PUSH1 0x5 ADDRESS SWAP1 DUP1 PUSH1 0x1 DUP2 SLOAD ADD DUP1 DUP3 SSTORE DUP1 SWAP2 POP POP PUSH1 0x1 SWAP1 SUB SWAP1 PUSH0 MSTORE PUSH1 0x20 PUSH0 KECCAK256 ADD PUSH0 SWAP1 SWAP2 SWAP1 SWAP2 SWAP1 SWAP2 PUSH2 0x100 EXP DUP2 SLOAD DUP2 PUSH20 0xFFFFFFFFFFFFFFFFFFFFFFFFFFFFFFFFFFFFFFFF MUL NOT AND SWAP1 DUP4 PUSH20 0xFFFFFFFFFFFFFFFFFFFFFFFFFFFFFFFFFFFFFFFF AND MUL OR SWAP1 SSTORE POP PUSH1 0x1 PUSH1 0x4 PUSH0 PUSH1 0x17 PUSH0 SWAP1 SLOAD SWAP1 PUSH2 0x100 EXP SWAP1 DIV PUSH20 0xFFFFFFFFFFFFFFFFFFFFFFFFFFFFFFFFFFFFFFFF AND PUSH20 0xFFFFFFFFFFFFFFFFFFFFFFFFFFFFFFFFFFFFFFFF AND PUSH20 0xFFFFFFFFFFFFFFFFFFFFFFFFFFFFFFFFFFFFFFFF AND DUP2 MSTORE PUSH1 0x20 ADD SWAP1 DUP2 MSTORE PUSH1 0x20 ADD PUSH0 KECCAK256 PUSH0 PUSH2 0x100 EXP DUP2 SLOAD DUP2 PUSH1 0xFF MUL NOT AND SWAP1 DUP4 ISZERO ISZERO MUL OR SWAP1 SSTORE POP PUSH1 0x5 PUSH1 0x17 PUSH0 SWAP1 SLOAD SWAP1 PUSH2 0x100 EXP SWAP1 DIV PUSH20 0xFFFFFFFFFFFFFFFFFFFFFFFFFFFFFFFFFFFFFFFF AND SWAP1 DUP1 PUSH1 0x1 DUP2 SLOAD ADD DUP1 DUP3 SSTORE DUP1 SWAP2 POP POP PUSH1 0x1 SWAP1 SUB SWAP1 PUSH0 MSTORE PUSH1 0x20 PUSH0 KECCAK256 ADD PUSH0 SWAP1 SWAP2 SWAP1 SWAP2 SWAP1 SWAP2 PUSH2 0x100 EXP DUP2 SLOAD DUP2 PUSH20 0xFFFFFFFFFFFFFFFFFFFFFFFFFFFFFFFFFFFFFFFF MUL NOT AND SWAP1 DUP4 PUSH20 0xFFFFFFFFFFFFFFFFFFFFFFFFFFFFFFFFFFFFFFFF AND MUL OR SWAP1 SSTORE POP PUSH1 0x1 PUSH1 0x1B PUSH0 ADDRESS PUSH20 0xFFFFFFFFFFFFFFFFFFFFFFFFFFFFFFFFFFFFFFFF AND PUSH20 0xFFFFFFFFFFFFFFFFFFFFFFFFFFFFFFFFFFFFFFFF AND DUP2 MSTORE PUSH1 0x20 ADD SWAP1 DUP2 MSTORE PUSH1 0x20 ADD PUSH0 KECCAK256 PUSH0 PUSH2 0x100 EXP DUP2 SLOAD DUP2 PUSH1 0xFF MUL NOT AND SWAP1 DUP4 ISZERO ISZERO MUL OR SWAP1 SSTORE POP PUSH1 0x1 PUSH1 0x1B PUSH0 PUSH1 0x16 PUSH0 SWAP1 SLOAD SWAP1 PUSH2 0x100 EXP SWAP1 DIV PUSH20 0xFFFFFFFFFFFFFFFFFFFFFFFFFFFFFFFFFFFFFFFF AND PUSH20 0xFFFFFFFFFFFFFFFFFFFFFFFFFFFFFFFFFFFFFFFF AND PUSH20 0xFFFFFFFFFFFFFFFFFFFFFFFFFFFFFFFFFFFFFFFF AND DUP2 MSTORE PUSH1 0x20 ADD SWAP1 DUP2 MSTORE PUSH1 0x20 ADD PUSH0 KECCAK256 PUSH0 PUSH2 0x100 EXP DUP2 SLOAD DUP2 PUSH1 0xFF MUL NOT AND SWAP1 DUP4 ISZERO ISZERO MUL OR SWAP1 SSTORE POP PUSH1 0x1 PUSH1 0x1B PUSH0 PUSH1 0x17 PUSH0 SWAP1 SLOAD SWAP1 PUSH2 0x100 EXP SWAP1 DIV PUSH20 0xFFFFFFFFFFFFFFFFFFFFFFFFFFFFFFFFFFFFFFFF AND PUSH20 0xFFFFFFFFFFFFFFFFFFFFFFFFFFFFFFFFFFFFFFFF AND PUSH20 0xFFFFFFFFFFFFFFFFFFFFFFFFFFFFFFFFFFFFFFFF AND DUP2 MSTORE PUSH1 0x20 ADD SWAP1 DUP2 MSTORE PUSH1 0x20 ADD PUSH0 KECCAK256 PUSH0 PUSH2 0x100 EXP DUP2 SLOAD DUP2 PUSH1 0xFF MUL NOT AND SWAP1 DUP4 ISZERO ISZERO MUL OR SWAP1 SSTORE POP PUSH1 0x1 PUSH1 0x1B PUSH0 PUSH2 0xEBE PUSH2 0x1012 PUSH1 0x20 SHL PUSH1 0x20 SHR JUMP JUMPDEST PUSH20 0xFFFFFFFFFFFFFFFFFFFFFFFFFFFFFFFFFFFFFFFF AND PUSH20 0xFFFFFFFFFFFFFFFFFFFFFFFFFFFFFFFFFFFFFFFF AND DUP2 MSTORE PUSH1 0x20 ADD SWAP1 DUP2 MSTORE PUSH1 0x20 ADD PUSH0 KECCAK256 PUSH0 PUSH2 0x100 EXP DUP2 SLOAD DUP2 PUSH1 0xFF MUL NOT AND SWAP1 DUP4 ISZERO ISZERO MUL OR SWAP1 SSTORE POP PUSH1 0x1 PUSH1 0x1B PUSH0 PUSH2 0xDEAD PUSH20 0xFFFFFFFFFFFFFFFFFFFFFFFFFFFFFFFFFFFFFFFF AND PUSH20 0xFFFFFFFFFFFFFFFFFFFFFFFFFFFFFFFFFFFFFFFF AND DUP2 MSTORE PUSH1 0x20 ADD SWAP1 DUP2 MSTORE PUSH1 0x20 ADD PUSH0 KECCAK256 PUSH0 PUSH2 0x100 EXP DUP2 SLOAD DUP2 PUSH1 0xFF MUL NOT AND SWAP1 DUP4 ISZERO ISZERO MUL OR SWAP1 SSTORE POP PUSH2 0xF96 PUSH1 0x1A PUSH0 SWAP1 SLOAD SWAP1 PUSH2 0x100 EXP SWAP1 DIV PUSH20 0xFFFFFFFFFFFFFFFFFFFFFFFFFFFFFFFFFFFFFFFF AND PUSH1 0x1 PUSH2 0x129D PUSH1 0x20 SHL PUSH1 0x20 SHR JUMP JUMPDEST PUSH2 0xFA4 PUSH2 0x1012 PUSH1 0x20 SHL PUSH1 0x20 SHR JUMP JUMPDEST PUSH20 0xFFFFFFFFFFFFFFFFFFFFFFFFFFFFFFFFFFFFFFFF AND PUSH0 PUSH20 0xFFFFFFFFFFFFFFFFFFFFFFFFFFFFFFFFFFFFFFFF AND PUSH32 0xDDF252AD1BE2C89B69C2B068FC378DAA952BA7F163C4A11628F55A4DF523B3EF DUP4 PUSH1 0x60 ADD MLOAD PUSH1 0x40 MLOAD PUSH2 0x1004 SWAP2 SWAP1 PUSH2 0x2922 JUMP JUMPDEST PUSH1 0x40 MLOAD DUP1 SWAP2 SUB SWAP1 LOG3 POP PUSH2 0x2E60 JUMP JUMPDEST PUSH0 CALLER SWAP1 POP SWAP1 JUMP JUMPDEST PUSH0 PUSH0 PUSH0 SWAP1 SLOAD SWAP1 PUSH2 0x100 EXP SWAP1 DIV PUSH20 0xFFFFFFFFFFFFFFFFFFFFFFFFFFFFFFFFFFFFFFFF AND SWAP1 POP DUP2 PUSH0 PUSH0 PUSH2 0x100 EXP DUP2 SLOAD DUP2 PUSH20 0xFFFFFFFFFFFFFFFFFFFFFFFFFFFFFFFFFFFFFFFF MUL NOT AND SWAP1 DUP4 PUSH20 0xFFFFFFFFFFFFFFFFFFFFFFFFFFFFFFFFFFFFFFFF AND MUL OR SWAP1 SSTORE POP DUP2 PUSH20 0xFFFFFFFFFFFFFFFFFFFFFFFFFFFFFFFFFFFFFFFF AND DUP2 PUSH20 0xFFFFFFFFFFFFFFFFFFFFFFFFFFFFFFFFFFFFFFFF AND PUSH32 0x8BE0079C531659141344CD1FD0A4F28419497F9722A3DAAFE3B4186F6B6457E0 PUSH1 0x40 MLOAD PUSH1 0x40 MLOAD DUP1 SWAP2 SUB SWAP1 LOG3 POP POP JUMP JUMPDEST PUSH0 PUSH20 0xFFFFFFFFFFFFFFFFFFFFFFFFFFFFFFFFFFFFFFFF AND DUP4 PUSH20 0xFFFFFFFFFFFFFFFFFFFFFFFFFFFFFFFFFFFFFFFF AND SUB PUSH2 0x1148 JUMPI PUSH1 0x40 MLOAD PUSH32 0x8C379A000000000000000000000000000000000000000000000000000000000 DUP2 MSTORE PUSH1 0x4 ADD PUSH2 0x113F SWAP1 PUSH2 0x29AB JUMP JUMPDEST PUSH1 0x40 MLOAD DUP1 SWAP2 SUB SWAP1 REVERT JUMPDEST PUSH0 PUSH20 0xFFFFFFFFFFFFFFFFFFFFFFFFFFFFFFFFFFFFFFFF AND DUP3 PUSH20 0xFFFFFFFFFFFFFFFFFFFFFFFFFFFFFFFFFFFFFFFF AND SUB PUSH2 0x11B6 JUMPI PUSH1 0x40 MLOAD PUSH32 0x8C379A000000000000000000000000000000000000000000000000000000000 DUP2 MSTORE PUSH1 0x4 ADD PUSH2 0x11AD SWAP1 PUSH2 0x2A39 JUMP JUMPDEST PUSH1 0x40 MLOAD DUP1 SWAP2 SUB SWAP1 REVERT JUMPDEST DUP1 PUSH1 0x3 PUSH0 DUP6 PUSH20 0xFFFFFFFFFFFFFFFFFFFFFFFFFFFFFFFFFFFFFFFF AND PUSH20 0xFFFFFFFFFFFFFFFFFFFFFFFFFFFFFFFFFFFFFFFF AND DUP2 MSTORE PUSH1 0x20 ADD SWAP1 DUP2 MSTORE PUSH1 0x20 ADD PUSH0 KECCAK256 PUSH0 DUP5 PUSH20 0xFFFFFFFFFFFFFFFFFFFFFFFFFFFFFFFFFFFFFFFF AND PUSH20 0xFFFFFFFFFFFFFFFFFFFFFFFFFFFFFFFFFFFFFFFF AND DUP2 MSTORE PUSH1 0x20 ADD SWAP1 DUP2 MSTORE PUSH1 0x20 ADD PUSH0 KECCAK256 DUP2 SWAP1 SSTORE POP DUP2 PUSH20 0xFFFFFFFFFFFFFFFFFFFFFFFFFFFFFFFFFFFFFFFF AND DUP4 PUSH20 0xFFFFFFFFFFFFFFFFFFFFFFFFFFFFFFFFFFFFFFFF AND PUSH32 0x8C5BE1E5EBEC7D5BD14F71427D1E84F3DD0314C0F7B2291E5B200AC8C7C3B925 DUP4 PUSH1 0x40 MLOAD PUSH2 0x1290 SWAP2 SWAP1 PUSH2 0x2922 JUMP JUMPDEST PUSH1 0x40 MLOAD DUP1 SWAP2 SUB SWAP1 LOG3 POP POP POP JUMP JUMPDEST DUP1 ISZERO ISZERO PUSH1 0x1C PUSH0 DUP5 PUSH20 0xFFFFFFFFFFFFFFFFFFFFFFFFFFFFFFFFFFFFFFFF AND PUSH20 0xFFFFFFFFFFFFFFFFFFFFFFFFFFFFFFFFFFFFFFFF AND DUP2 MSTORE PUSH1 0x20 ADD SWAP1 DUP2 MSTORE PUSH1 0x20 ADD PUSH0 KECCAK256 PUSH0 SWAP1 SLOAD SWAP1 PUSH2 0x100 EXP SWAP1 DIV PUSH1 0xFF AND ISZERO ISZERO SUB PUSH2 0x132C JUMPI PUSH1 0x40 MLOAD PUSH32 0x8C379A000000000000000000000000000000000000000000000000000000000 DUP2 MSTORE PUSH1 0x4 ADD PUSH2 0x1323 SWAP1 PUSH2 0x2AC7 JUMP JUMPDEST PUSH1 0x40 MLOAD DUP1 SWAP2 SUB SWAP1 REVERT JUMPDEST DUP1 PUSH1 0x1C PUSH0 DUP5 PUSH20 0xFFFFFFFFFFFFFFFFFFFFFFFFFFFFFFFFFFFFFFFF AND PUSH20 0xFFFFFFFFFFFFFFFFFFFFFFFFFFFFFFFFFFFFFFFF AND DUP2 MSTORE PUSH1 0x20 ADD SWAP1 DUP2 MSTORE PUSH1 0x20 ADD PUSH0 KECCAK256 PUSH0 PUSH2 0x100 EXP DUP2 SLOAD DUP2 PUSH1 0xFF MUL NOT AND SWAP1 DUP4 ISZERO ISZERO MUL OR SWAP1 SSTORE POP DUP1 ISZERO PUSH2 0x139A JUMPI PUSH2 0x1395 DUP3 PUSH2 0x13FC PUSH1 0x20 SHL PUSH1 0x20 SHR JUMP JUMPDEST PUSH2 0x13AA JUMP JUMPDEST PUSH2 0x13A9 DUP3 PUSH2 0x1674 PUSH1 0x20 SHL PUSH1 0x20 SHR JUMP JUMPDEST JUMPDEST DUP2 PUSH20 0xFFFFFFFFFFFFFFFFFFFFFFFFFFFFFFFFFFFFFFFF AND PUSH32 0xFFA9187BF1F18BF477BD0EA1BCBB64E93B6A98132473929EDFCE215CD9B16FAB DUP3 PUSH1 0x40 MLOAD PUSH2 0x13F0 SWAP2 SWAP1 PUSH2 0x2AFF JUMP JUMPDEST PUSH1 0x40 MLOAD DUP1 SWAP2 SUB SWAP1 LOG2 POP POP JUMP JUMPDEST PUSH2 0x140A PUSH2 0x1A14 PUSH1 0x20 SHL PUSH1 0x20 SHR JUMP JUMPDEST PUSH1 0x4 PUSH0 DUP3 PUSH20 0xFFFFFFFFFFFFFFFFFFFFFFFFFFFFFFFFFFFFFFFF AND PUSH20 0xFFFFFFFFFFFFFFFFFFFFFFFFFFFFFFFFFFFFFFFF AND DUP2 MSTORE PUSH1 0x20 ADD SWAP1 DUP2 MSTORE PUSH1 0x20 ADD PUSH0 KECCAK256 PUSH0 SWAP1 SLOAD SWAP1 PUSH2 0x100 EXP SWAP1 DIV PUSH1 0xFF AND ISZERO PUSH2 0x1494 JUMPI PUSH1 0x40 MLOAD PUSH32 0x8C379A000000000000000000000000000000000000000000000000000000000 DUP2 MSTORE PUSH1 0x4 ADD PUSH2 0x148B SWAP1 PUSH2 0x2B62 JUMP JUMPDEST PUSH1 0x40 MLOAD DUP1 SWAP2 SUB SWAP1 REVERT JUMPDEST PUSH1 0x32 PUSH1 0x1 PUSH1 0x5 DUP1 SLOAD SWAP1 POP PUSH2 0x14A8 SWAP2 SWAP1 PUSH2 0x2B80 JUMP JUMPDEST GT ISZERO PUSH2 0x14E9 JUMPI PUSH1 0x40 MLOAD PUSH32 0x8C379A000000000000000000000000000000000000000000000000000000000 DUP2 MSTORE PUSH1 0x4 ADD PUSH2 0x14E0 SWAP1 PUSH2 0x2C49 JUMP JUMPDEST PUSH1 0x40 MLOAD DUP1 SWAP2 SUB SWAP1 REVERT JUMPDEST PUSH0 PUSH1 0x1 PUSH0 DUP4 PUSH20 0xFFFFFFFFFFFFFFFFFFFFFFFFFFFFFFFFFFFFFFFF AND PUSH20 0xFFFFFFFFFFFFFFFFFFFFFFFFFFFFFFFFFFFFFFFF AND DUP2 MSTORE PUSH1 0x20 ADD SWAP1 DUP2 MSTORE PUSH1 0x20 ADD PUSH0 KECCAK256 SLOAD GT ISZERO PUSH2 0x15BC JUMPI PUSH2 0x157A PUSH1 0x1 PUSH0 DUP4 PUSH20 0xFFFFFFFFFFFFFFFFFFFFFFFFFFFFFFFFFFFFFFFF AND PUSH20 0xFFFFFFFFFFFFFFFFFFFFFFFFFFFFFFFFFFFFFFFF AND DUP2 MSTORE PUSH1 0x20 ADD SWAP1 DUP2 MSTORE PUSH1 0x20 ADD PUSH0 KECCAK256 SLOAD PUSH2 0x1A9E PUSH1 0x20 SHL PUSH1 0x20 SHR JUMP JUMPDEST PUSH1 0x2 PUSH0 DUP4 PUSH20 0xFFFFFFFFFFFFFFFFFFFFFFFFFFFFFFFFFFFFFFFF AND PUSH20 0xFFFFFFFFFFFFFFFFFFFFFFFFFFFFFFFFFFFFFFFF AND DUP2 MSTORE PUSH1 0x20 ADD SWAP1 DUP2 MSTORE PUSH1 0x20 ADD PUSH0 KECCAK256 DUP2 SWAP1 SSTORE POP JUMPDEST PUSH1 0x1 PUSH1 0x4 PUSH0 DUP4 PUSH20 0xFFFFFFFFFFFFFFFFFFFFFFFFFFFFFFFFFFFFFFFF AND PUSH20 0xFFFFFFFFFFFFFFFFFFFFFFFFFFFFFFFFFFFFFFFF AND DUP2 MSTORE PUSH1 0x20 ADD SWAP1 DUP2 MSTORE PUSH1 0x20 ADD PUSH0 KECCAK256 PUSH0 PUSH2 0x100 EXP DUP2 SLOAD DUP2 PUSH1 0xFF MUL NOT AND SWAP1 DUP4 ISZERO ISZERO MUL OR SWAP1 SSTORE POP PUSH1 0x5 DUP2 SWAP1 DUP1 PUSH1 0x1 DUP2 SLOAD ADD DUP1 DUP3 SSTORE DUP1 SWAP2 POP POP PUSH1 0x1 SWAP1 SUB SWAP1 PUSH0 MSTORE PUSH1 0x20 PUSH0 KECCAK256 ADD PUSH0 SWAP1 SWAP2 SWAP1 SWAP2 SWAP1 SWAP2 PUSH2 0x100 EXP DUP2 SLOAD DUP2 PUSH20 0xFFFFFFFFFFFFFFFFFFFFFFFFFFFFFFFFFFFFFFFF MUL NOT AND SWAP1 DUP4 PUSH20 0xFFFFFFFFFFFFFFFFFFFFFFFFFFFFFFFFFFFFFFFF AND MUL OR SWAP1 SSTORE POP POP JUMP JUMPDEST PUSH2 0x1682 PUSH2 0x1A14 PUSH1 0x20 SHL PUSH1 0x20 SHR JUMP JUMPDEST PUSH1 0x4 PUSH0 DUP3 PUSH20 0xFFFFFFFFFFFFFFFFFFFFFFFFFFFFFFFFFFFFFFFF AND PUSH20 0xFFFFFFFFFFFFFFFFFFFFFFFFFFFFFFFFFFFFFFFF AND DUP2 MSTORE PUSH1 0x20 ADD SWAP1 DUP2 MSTORE PUSH1 0x20 ADD PUSH0 KECCAK256 PUSH0 SWAP1 SLOAD SWAP1 PUSH2 0x100 EXP SWAP1 DIV PUSH1 0xFF AND PUSH2 0x170B JUMPI PUSH1 0x40 MLOAD PUSH32 0x8C379A000000000000000000000000000000000000000000000000000000000 DUP2 MSTORE PUSH1 0x4 ADD PUSH2 0x1702 SWAP1 PUSH2 0x2CB1 JUMP JUMPDEST PUSH1 0x40 MLOAD DUP1 SWAP2 SUB SWAP1 REVERT JUMPDEST PUSH0 PUSH0 SWAP1 POP JUMPDEST PUSH1 0x5 DUP1 SLOAD SWAP1 POP DUP2 LT ISZERO PUSH2 0x1A10 JUMPI DUP2 PUSH20 0xFFFFFFFFFFFFFFFFFFFFFFFFFFFFFFFFFFFFFFFF AND PUSH1 0x5 DUP3 DUP2 SLOAD DUP2 LT PUSH2 0x1748 JUMPI PUSH2 0x1747 PUSH2 0x2CCF JUMP JUMPDEST JUMPDEST SWAP1 PUSH0 MSTORE PUSH1 0x20 PUSH0 KECCAK256 ADD PUSH0 SWAP1 SLOAD SWAP1 PUSH2 0x100 EXP SWAP1 DIV PUSH20 0xFFFFFFFFFFFFFFFFFFFFFFFFFFFFFFFFFFFFFFFF AND PUSH20 0xFFFFFFFFFFFFFFFFFFFFFFFFFFFFFFFFFFFFFFFF AND SUB PUSH2 0x1A03 JUMPI PUSH0 PUSH1 0x1 PUSH0 DUP5 PUSH20 0xFFFFFFFFFFFFFFFFFFFFFFFFFFFFFFFFFFFFFFFF AND PUSH20 0xFFFFFFFFFFFFFFFFFFFFFFFFFFFFFFFFFFFFFFFF AND DUP2 MSTORE PUSH1 0x20 ADD SWAP1 DUP2 MSTORE PUSH1 0x20 ADD PUSH0 KECCAK256 SLOAD SWAP1 POP PUSH2 0x17DA PUSH2 0x1B09 PUSH1 0x20 SHL PUSH1 0x20 SHR JUMP JUMPDEST PUSH1 0x2 PUSH0 DUP6 PUSH20 0xFFFFFFFFFFFFFFFFFFFFFFFFFFFFFFFFFFFFFFFF AND PUSH20 0xFFFFFFFFFFFFFFFFFFFFFFFFFFFFFFFFFFFFFFFF AND DUP2 MSTORE PUSH1 0x20 ADD SWAP1 DUP2 MSTORE PUSH1 0x20 ADD PUSH0 KECCAK256 SLOAD PUSH2 0x1822 SWAP2 SWAP1 PUSH2 0x2CFC JUMP JUMPDEST PUSH1 0x1 PUSH0 DUP6 PUSH20 0xFFFFFFFFFFFFFFFFFFFFFFFFFFFFFFFFFFFFFFFF AND PUSH20 0xFFFFFFFFFFFFFFFFFFFFFFFFFFFFFFFFFFFFFFFF AND DUP2 MSTORE PUSH1 0x20 ADD SWAP1 DUP2 MSTORE PUSH1 0x20 ADD PUSH0 KECCAK256 DUP2 SWAP1 SSTORE POP PUSH1 0x1 PUSH0 DUP5 PUSH20 0xFFFFFFFFFFFFFFFFFFFFFFFFFFFFFFFFFFFFFFFF AND PUSH20 0xFFFFFFFFFFFFFFFFFFFFFFFFFFFFFFFFFFFFFFFF AND DUP2 MSTORE PUSH1 0x20 ADD SWAP1 DUP2 MSTORE PUSH1 0x20 ADD PUSH0 KECCAK256 SLOAD DUP2 PUSH1 0x7 SLOAD PUSH2 0x18AF SWAP2 SWAP1 PUSH2 0x2597 JUMP JUMPDEST PUSH2 0x18B9 SWAP2 SWAP1 PUSH2 0x2B80 JUMP JUMPDEST PUSH1 0x7 DUP2 SWAP1 SSTORE POP PUSH0 PUSH1 0x4 PUSH0 DUP6 PUSH20 0xFFFFFFFFFFFFFFFFFFFFFFFFFFFFFFFFFFFFFFFF AND PUSH20 0xFFFFFFFFFFFFFFFFFFFFFFFFFFFFFFFFFFFFFFFF AND DUP2 MSTORE PUSH1 0x20 ADD SWAP1 DUP2 MSTORE PUSH1 0x20 ADD PUSH0 KECCAK256 PUSH0 PUSH2 0x100 EXP DUP2 SLOAD DUP2 PUSH1 0xFF MUL NOT AND SWAP1 DUP4 ISZERO ISZERO MUL OR SWAP1 SSTORE POP PUSH1 0x5 PUSH1 0x1 PUSH1 0x5 DUP1 SLOAD SWAP1 POP PUSH2 0x1927 SWAP2 SWAP1 PUSH2 0x2597 JUMP JUMPDEST DUP2 SLOAD DUP2 LT PUSH2 0x1938 JUMPI PUSH2 0x1937 PUSH2 0x2CCF JUMP JUMPDEST JUMPDEST SWAP1 PUSH0 MSTORE PUSH1 0x20 PUSH0 KECCAK256 ADD PUSH0 SWAP1 SLOAD SWAP1 PUSH2 0x100 EXP SWAP1 DIV PUSH20 0xFFFFFFFFFFFFFFFFFFFFFFFFFFFFFFFFFFFFFFFF AND PUSH1 0x5 DUP4 DUP2 SLOAD DUP2 LT PUSH2 0x1974 JUMPI PUSH2 0x1973 PUSH2 0x2CCF JUMP JUMPDEST JUMPDEST SWAP1 PUSH0 MSTORE PUSH1 0x20 PUSH0 KECCAK256 ADD PUSH0 PUSH2 0x100 EXP DUP2 SLOAD DUP2 PUSH20 0xFFFFFFFFFFFFFFFFFFFFFFFFFFFFFFFFFFFFFFFF MUL NOT AND SWAP1 DUP4 PUSH20 0xFFFFFFFFFFFFFFFFFFFFFFFFFFFFFFFFFFFFFFFF AND MUL OR SWAP1 SSTORE POP PUSH1 0x5 DUP1 SLOAD DUP1 PUSH2 0x19CB JUMPI PUSH2 0x19CA PUSH2 0x2D3D JUMP JUMPDEST JUMPDEST PUSH1 0x1 SWAP1 SUB DUP2 DUP2 SWAP1 PUSH0 MSTORE PUSH1 0x20 PUSH0 KECCAK256 ADD PUSH0 PUSH2 0x100 EXP DUP2 SLOAD SWAP1 PUSH20 0xFFFFFFFFFFFFFFFFFFFFFFFFFFFFFFFFFFFFFFFF MUL NOT AND SWAP1 SSTORE SWAP1 SSTORE POP PUSH2 0x1A10 JUMP JUMPDEST DUP1 DUP1 PUSH1 0x1 ADD SWAP2 POP POP PUSH2 0x1710 JUMP JUMPDEST POP POP JUMP JUMPDEST PUSH2 0x1A22 PUSH2 0x1012 PUSH1 0x20 SHL PUSH1 0x20 SHR JUMP JUMPDEST PUSH20 0xFFFFFFFFFFFFFFFFFFFFFFFFFFFFFFFFFFFFFFFF AND PUSH2 0x1A46 PUSH2 0x1B31 PUSH1 0x20 SHL PUSH1 0x20 SHR JUMP JUMPDEST PUSH20 0xFFFFFFFFFFFFFFFFFFFFFFFFFFFFFFFFFFFFFFFF AND EQ PUSH2 0x1A9C JUMPI PUSH1 0x40 MLOAD PUSH32 0x8C379A000000000000000000000000000000000000000000000000000000000 DUP2 MSTORE PUSH1 0x4 ADD PUSH2 0x1A93 SWAP1 PUSH2 0x2DB4 JUMP JUMPDEST PUSH1 0x40 MLOAD DUP1 SWAP2 SUB SWAP1 REVERT JUMPDEST JUMP JUMPDEST PUSH0 PUSH1 0x7 SLOAD DUP3 GT ISZERO PUSH2 0x1AE4 JUMPI PUSH1 0x40 MLOAD PUSH32 0x8C379A000000000000000000000000000000000000000000000000000000000 DUP2 MSTORE PUSH1 0x4 ADD PUSH2 0x1ADB SWAP1 PUSH2 0x2E42 JUMP JUMPDEST PUSH1 0x40 MLOAD DUP1 SWAP2 SUB SWAP1 REVERT JUMPDEST PUSH0 PUSH2 0x1AF3 PUSH2 0x1B09 PUSH1 0x20 SHL PUSH1 0x20 SHR JUMP JUMPDEST SWAP1 POP DUP1 DUP4 PUSH2 0x1B01 SWAP2 SWAP1 PUSH2 0x288C JUMP JUMPDEST SWAP2 POP POP SWAP2 SWAP1 POP JUMP JUMPDEST PUSH0 PUSH0 PUSH0 PUSH2 0x1B1A PUSH2 0x1B58 PUSH1 0x20 SHL PUSH1 0x20 SHR JUMP JUMPDEST SWAP2 POP SWAP2 POP DUP1 DUP3 PUSH2 0x1B2A SWAP2 SWAP1 PUSH2 0x288C JUMP JUMPDEST SWAP3 POP POP POP SWAP1 JUMP JUMPDEST PUSH0 PUSH0 PUSH0 SWAP1 SLOAD SWAP1 PUSH2 0x100 EXP SWAP1 DIV PUSH20 0xFFFFFFFFFFFFFFFFFFFFFFFFFFFFFFFFFFFFFFFF AND SWAP1 POP SWAP1 JUMP JUMPDEST PUSH0 PUSH0 PUSH0 PUSH1 0x7 SLOAD SWAP1 POP PUSH0 PUSH1 0x6 SLOAD SWAP1 POP PUSH0 PUSH0 SWAP1 POP JUMPDEST PUSH1 0x5 DUP1 SLOAD SWAP1 POP DUP2 LT ISZERO PUSH2 0x1DA5 JUMPI DUP3 PUSH1 0x1 PUSH0 PUSH1 0x5 DUP5 DUP2 SLOAD DUP2 LT PUSH2 0x1B90 JUMPI PUSH2 0x1B8F PUSH2 0x2CCF JUMP JUMPDEST JUMPDEST SWAP1 PUSH0 MSTORE PUSH1 0x20 PUSH0 KECCAK256 ADD PUSH0 SWAP1 SLOAD SWAP1 PUSH2 0x100 EXP SWAP1 DIV PUSH20 0xFFFFFFFFFFFFFFFFFFFFFFFFFFFFFFFFFFFFFFFF AND PUSH20 0xFFFFFFFFFFFFFFFFFFFFFFFFFFFFFFFFFFFFFFFF AND PUSH20 0xFFFFFFFFFFFFFFFFFFFFFFFFFFFFFFFFFFFFFFFF AND DUP2 MSTORE PUSH1 0x20 ADD SWAP1 DUP2 MSTORE PUSH1 0x20 ADD PUSH0 KECCAK256 SLOAD GT DUP1 PUSH2 0x1C75 JUMPI POP DUP2 PUSH1 0x2 PUSH0 PUSH1 0x5 DUP5 DUP2 SLOAD DUP2 LT PUSH2 0x1C11 JUMPI PUSH2 0x1C10 PUSH2 0x2CCF JUMP JUMPDEST JUMPDEST SWAP1 PUSH0 MSTORE PUSH1 0x20 PUSH0 KECCAK256 ADD PUSH0 SWAP1 SLOAD SWAP1 PUSH2 0x100 EXP SWAP1 DIV PUSH20 0xFFFFFFFFFFFFFFFFFFFFFFFFFFFFFFFFFFFFFFFF AND PUSH20 0xFFFFFFFFFFFFFFFFFFFFFFFFFFFFFFFFFFFFFFFF AND PUSH20 0xFFFFFFFFFFFFFFFFFFFFFFFFFFFFFFFFFFFFFFFF AND DUP2 MSTORE PUSH1 0x20 ADD SWAP1 DUP2 MSTORE PUSH1 0x20 ADD PUSH0 KECCAK256 SLOAD GT JUMPDEST ISZERO PUSH2 0x1C8C JUMPI PUSH1 0x7 SLOAD PUSH1 0x6 SLOAD SWAP5 POP SWAP5 POP POP POP POP PUSH2 0x1DD7 JUMP JUMPDEST PUSH1 0x1 PUSH0 PUSH1 0x5 DUP4 DUP2 SLOAD DUP2 LT PUSH2 0x1CA3 JUMPI PUSH2 0x1CA2 PUSH2 0x2CCF JUMP JUMPDEST JUMPDEST SWAP1 PUSH0 MSTORE PUSH1 0x20 PUSH0 KECCAK256 ADD PUSH0 SWAP1 SLOAD SWAP1 PUSH2 0x100 EXP SWAP1 DIV PUSH20 0xFFFFFFFFFFFFFFFFFFFFFFFFFFFFFFFFFFFFFFFF AND PUSH20 0xFFFFFFFFFFFFFFFFFFFFFFFFFFFFFFFFFFFFFFFF AND PUSH20 0xFFFFFFFFFFFFFFFFFFFFFFFFFFFFFFFFFFFFFFFF AND DUP2 MSTORE PUSH1 0x20 ADD SWAP1 DUP2 MSTORE PUSH1 0x20 ADD PUSH0 KECCAK256 SLOAD DUP4 PUSH2 0x1D10 SWAP2 SWAP1 PUSH2 0x2597 JUMP JUMPDEST SWAP3 POP PUSH1 0x2 PUSH0 PUSH1 0x5 DUP4 DUP2 SLOAD DUP2 LT PUSH2 0x1D29 JUMPI PUSH2 0x1D28 PUSH2 0x2CCF JUMP JUMPDEST JUMPDEST SWAP1 PUSH0 MSTORE PUSH1 0x20 PUSH0 KECCAK256 ADD PUSH0 SWAP1 SLOAD SWAP1 PUSH2 0x100 EXP SWAP1 DIV PUSH20 0xFFFFFFFFFFFFFFFFFFFFFFFFFFFFFFFFFFFFFFFF AND PUSH20 0xFFFFFFFFFFFFFFFFFFFFFFFFFFFFFFFFFFFFFFFF AND PUSH20 0xFFFFFFFFFFFFFFFFFFFFFFFFFFFFFFFFFFFFFFFF AND DUP2 MSTORE PUSH1 0x20 ADD SWAP1 DUP2 MSTORE PUSH1 0x20 ADD PUSH0 KECCAK256 SLOAD DUP3 PUSH2 0x1D96 SWAP2 SWAP1 PUSH2 0x2597 JUMP JUMPDEST SWAP2 POP DUP1 DUP1 PUSH1 0x1 ADD SWAP2 POP POP PUSH2 0x1B6B JUMP JUMPDEST POP PUSH1 0x6 SLOAD PUSH1 0x7 SLOAD PUSH2 0x1DB6 SWAP2 SWAP1 PUSH2 0x288C JUMP JUMPDEST DUP3 LT ISZERO PUSH2 0x1DCE JUMPI PUSH1 0x7 SLOAD PUSH1 0x6 SLOAD SWAP4 POP SWAP4 POP POP POP PUSH2 0x1DD7 JUMP JUMPDEST DUP2 DUP2 SWAP4 POP SWAP4 POP POP POP JUMPDEST SWAP1 SWAP2 JUMP JUMPDEST PUSH0 PUSH1 0x40 MLOAD SWAP1 POP SWAP1 JUMP JUMPDEST PUSH0 PUSH0 REVERT JUMPDEST PUSH0 PUSH0 REVERT JUMPDEST PUSH0 PUSH0 REVERT JUMPDEST PUSH0 PUSH1 0x1F NOT PUSH1 0x1F DUP4 ADD AND SWAP1 POP SWAP2 SWAP1 POP JUMP JUMPDEST PUSH32 0x4E487B7100000000000000000000000000000000000000000000000000000000 PUSH0 MSTORE PUSH1 0x41 PUSH1 0x4 MSTORE PUSH1 0x24 PUSH0 REVERT JUMPDEST PUSH2 0x1E36 DUP3 PUSH2 0x1DF0 JUMP JUMPDEST DUP2 ADD DUP2 DUP2 LT PUSH8 0xFFFFFFFFFFFFFFFF DUP3 GT OR ISZERO PUSH2 0x1E55 JUMPI PUSH2 0x1E54 PUSH2 0x1E00 JUMP JUMPDEST JUMPDEST DUP1 PUSH1 0x40 MSTORE POP POP POP JUMP JUMPDEST PUSH0 PUSH2 0x1E67 PUSH2 0x1DDB JUMP JUMPDEST SWAP1 POP PUSH2 0x1E73 DUP3 DUP3 PUSH2 0x1E2D JUMP JUMPDEST SWAP2 SWAP1 POP JUMP JUMPDEST PUSH0 PUSH0 REVERT JUMPDEST PUSH0 PUSH0 REVERT JUMPDEST PUSH0 PUSH0 REVERT JUMPDEST PUSH0 PUSH8 0xFFFFFFFFFFFFFFFF DUP3 GT ISZERO PUSH2 0x1E9E JUMPI PUSH2 0x1E9D PUSH2 0x1E00 JUMP JUMPDEST JUMPDEST PUSH2 0x1EA7 DUP3 PUSH2 0x1DF0 JUMP JUMPDEST SWAP1 POP PUSH1 0x20 DUP2 ADD SWAP1 POP SWAP2 SWAP1 POP JUMP JUMPDEST DUP3 DUP2 DUP4 MCOPY PUSH0 DUP4 DUP4 ADD MSTORE POP POP POP JUMP JUMPDEST PUSH0 PUSH2 0x1ED4 PUSH2 0x1ECF DUP5 PUSH2 0x1E84 JUMP JUMPDEST PUSH2 0x1E5E JUMP JUMPDEST SWAP1 POP DUP3 DUP2 MSTORE PUSH1 0x20 DUP2 ADD DUP5 DUP5 DUP5 ADD GT ISZERO PUSH2 0x1EF0 JUMPI PUSH2 0x1EEF PUSH2 0x1E80 JUMP JUMPDEST JUMPDEST PUSH2 0x1EFB DUP5 DUP3 DUP6 PUSH2 0x1EB4 JUMP JUMPDEST POP SWAP4 SWAP3 POP POP POP JUMP JUMPDEST PUSH0 DUP3 PUSH1 0x1F DUP4 ADD SLT PUSH2 0x1F17 JUMPI PUSH2 0x1F16 PUSH2 0x1E7C JUMP JUMPDEST JUMPDEST DUP2 MLOAD PUSH2 0x1F27 DUP5 DUP3 PUSH1 0x20 DUP7 ADD PUSH2 0x1EC2 JUMP JUMPDEST SWAP2 POP POP SWAP3 SWAP2 POP POP JUMP JUMPDEST PUSH0 PUSH1 0xFF DUP3 AND SWAP1 POP SWAP2 SWAP1 POP JUMP JUMPDEST PUSH2 0x1F45 DUP2 PUSH2 0x1F30 JUMP JUMPDEST DUP2 EQ PUSH2 0x1F4F JUMPI PUSH0 PUSH0 REVERT JUMPDEST POP JUMP JUMPDEST PUSH0 DUP2 MLOAD SWAP1 POP PUSH2 0x1F60 DUP2 PUSH2 0x1F3C JUMP JUMPDEST SWAP3 SWAP2 POP POP JUMP JUMPDEST PUSH0 DUP2 SWAP1 POP SWAP2 SWAP1 POP JUMP JUMPDEST PUSH2 0x1F78 DUP2 PUSH2 0x1F66 JUMP JUMPDEST DUP2 EQ PUSH2 0x1F82 JUMPI PUSH0 PUSH0 REVERT JUMPDEST POP JUMP JUMPDEST PUSH0 DUP2 MLOAD SWAP1 POP PUSH2 0x1F93 DUP2 PUSH2 0x1F6F JUMP JUMPDEST SWAP3 SWAP2 POP POP JUMP JUMPDEST PUSH0 PUSH20 0xFFFFFFFFFFFFFFFFFFFFFFFFFFFFFFFFFFFFFFFF DUP3 AND SWAP1 POP SWAP2 SWAP1 POP JUMP JUMPDEST PUSH0 PUSH2 0x1FC2 DUP3 PUSH2 0x1F99 JUMP JUMPDEST SWAP1 POP SWAP2 SWAP1 POP JUMP JUMPDEST PUSH2 0x1FD2 DUP2 PUSH2 0x1FB8 JUMP JUMPDEST DUP2 EQ PUSH2 0x1FDC JUMPI PUSH0 PUSH0 REVERT JUMPDEST POP JUMP JUMPDEST PUSH0 DUP2 MLOAD SWAP1 POP PUSH2 0x1FED DUP2 PUSH2 0x1FC9 JUMP JUMPDEST SWAP3 SWAP2 POP POP JUMP JUMPDEST PUSH0 PUSH3 0xFFFFFF DUP3 AND SWAP1 POP SWAP2 SWAP1 POP JUMP JUMPDEST PUSH2 0x200A DUP2 PUSH2 0x1FF3 JUMP JUMPDEST DUP2 EQ PUSH2 0x2014 JUMPI PUSH0 PUSH0 REVERT JUMPDEST POP JUMP JUMPDEST PUSH0 DUP2 MLOAD SWAP1 POP PUSH2 0x2025 DUP2 PUSH2 0x2001 JUMP JUMPDEST SWAP3 SWAP2 POP POP JUMP JUMPDEST PUSH0 PUSH2 0x220 DUP3 DUP5 SUB SLT ISZERO PUSH2 0x2041 JUMPI PUSH2 0x2040 PUSH2 0x1DEC JUMP JUMPDEST JUMPDEST PUSH2 0x204C PUSH2 0x220 PUSH2 0x1E5E JUMP JUMPDEST SWAP1 POP PUSH0 DUP3 ADD MLOAD PUSH8 0xFFFFFFFFFFFFFFFF DUP2 GT ISZERO PUSH2 0x206B JUMPI PUSH2 0x206A PUSH2 0x1E78 JUMP JUMPDEST JUMPDEST PUSH2 0x2077 DUP5 DUP3 DUP6 ADD PUSH2 0x1F03 JUMP JUMPDEST PUSH0 DUP4 ADD MSTORE POP PUSH1 0x20 DUP3 ADD MLOAD PUSH8 0xFFFFFFFFFFFFFFFF DUP2 GT ISZERO PUSH2 0x209A JUMPI PUSH2 0x2099 PUSH2 0x1E78 JUMP JUMPDEST JUMPDEST PUSH2 0x20A6 DUP5 DUP3 DUP6 ADD PUSH2 0x1F03 JUMP JUMPDEST PUSH1 0x20 DUP4 ADD MSTORE POP PUSH1 0x40 PUSH2 0x20BA DUP5 DUP3 DUP6 ADD PUSH2 0x1F52 JUMP JUMPDEST PUSH1 0x40 DUP4 ADD MSTORE POP PUSH1 0x60 PUSH2 0x20CE DUP5 DUP3 DUP6 ADD PUSH2 0x1F85 JUMP JUMPDEST PUSH1 0x60 DUP4 ADD MSTORE POP PUSH1 0x80 PUSH2 0x20E2 DUP5 DUP3 DUP6 ADD PUSH2 0x1FDF JUMP JUMPDEST PUSH1 0x80 DUP4 ADD MSTORE POP PUSH1 0xA0 PUSH2 0x20F6 DUP5 DUP3 DUP6 ADD PUSH2 0x1FDF JUMP JUMPDEST PUSH1 0xA0 DUP4 ADD MSTORE POP PUSH1 0xC0 PUSH2 0x210A DUP5 DUP3 DUP6 ADD PUSH2 0x1FDF JUMP JUMPDEST PUSH1 0xC0 DUP4 ADD MSTORE POP PUSH1 0xE0 PUSH2 0x211E DUP5 DUP3 DUP6 ADD PUSH2 0x2017 JUMP JUMPDEST PUSH1 0xE0 DUP4 ADD MSTORE POP PUSH2 0x100 PUSH2 0x2133 DUP5 DUP3 DUP6 ADD PUSH2 0x2017 JUMP JUMPDEST PUSH2 0x100 DUP4 ADD MSTORE POP PUSH2 0x120 PUSH2 0x2149 DUP5 DUP3 DUP6 ADD PUSH2 0x2017 JUMP JUMPDEST PUSH2 0x120 DUP4 ADD MSTORE POP PUSH2 0x140 PUSH2 0x215F DUP5 DUP3 DUP6 ADD PUSH2 0x2017 JUMP JUMPDEST PUSH2 0x140 DUP4 ADD MSTORE POP PUSH2 0x160 PUSH2 0x2175 DUP5 DUP3 DUP6 ADD PUSH2 0x2017 JUMP JUMPDEST PUSH2 0x160 DUP4 ADD MSTORE POP PUSH2 0x180 PUSH2 0x218B DUP5 DUP3 DUP6 ADD PUSH2 0x2017 JUMP JUMPDEST PUSH2 0x180 DUP4 ADD MSTORE POP PUSH2 0x1A0 PUSH2 0x21A1 DUP5 DUP3 DUP6 ADD PUSH2 0x2017 JUMP JUMPDEST PUSH2 0x1A0 DUP4 ADD MSTORE POP PUSH2 0x1C0 PUSH2 0x21B7 DUP5 DUP3 DUP6 ADD PUSH2 0x2017 JUMP JUMPDEST PUSH2 0x1C0 DUP4 ADD MSTORE POP PUSH2 0x1E0 PUSH2 0x21CD DUP5 DUP3 DUP6 ADD PUSH2 0x2017 JUMP JUMPDEST PUSH2 0x1E0 DUP4 ADD MSTORE POP PUSH2 0x200 PUSH2 0x21E3 DUP5 DUP3 DUP6 ADD PUSH2 0x2017 JUMP JUMPDEST PUSH2 0x200 DUP4 ADD MSTORE POP SWAP3 SWAP2 POP POP JUMP JUMPDEST PUSH0 PUSH1 0x20 DUP3 DUP5 SUB SLT ISZERO PUSH2 0x2205 JUMPI PUSH2 0x2204 PUSH2 0x1DE4 JUMP JUMPDEST JUMPDEST PUSH0 DUP3 ADD MLOAD PUSH8 0xFFFFFFFFFFFFFFFF DUP2 GT ISZERO PUSH2 0x2222 JUMPI PUSH2 0x2221 PUSH2 0x1DE8 JUMP JUMPDEST JUMPDEST PUSH2 0x222E DUP5 DUP3 DUP6 ADD PUSH2 0x202B JUMP JUMPDEST SWAP2 POP POP SWAP3 SWAP2 POP POP JUMP JUMPDEST PUSH0 DUP2 MLOAD SWAP1 POP SWAP2 SWAP1 POP JUMP JUMPDEST PUSH32 0x4E487B7100000000000000000000000000000000000000000000000000000000 PUSH0 MSTORE PUSH1 0x22 PUSH1 0x4 MSTORE PUSH1 0x24 PUSH0 REVERT JUMPDEST PUSH0 PUSH1 0x2 DUP3 DIV SWAP1 POP PUSH1 0x1 DUP3 AND DUP1 PUSH2 0x2285 JUMPI PUSH1 0x7F DUP3 AND SWAP2 POP JUMPDEST PUSH1 0x20 DUP3 LT DUP2 SUB PUSH2 0x2298 JUMPI PUSH2 0x2297 PUSH2 0x2241 JUMP JUMPDEST JUMPDEST POP SWAP2 SWAP1 POP JUMP JUMPDEST PUSH0 DUP2 SWAP1 POP DUP2 PUSH0 MSTORE PUSH1 0x20 PUSH0 KECCAK256 SWAP1 POP SWAP2 SWAP1 POP JUMP JUMPDEST PUSH0 PUSH1 0x20 PUSH1 0x1F DUP4 ADD DIV SWAP1 POP SWAP2 SWAP1 POP JUMP JUMPDEST PUSH0 DUP3 DUP3 SHL SWAP1 POP SWAP3 SWAP2 POP POP JUMP JUMPDEST PUSH0 PUSH1 0x8 DUP4 MUL PUSH2 0x22FA PUSH32 0xFFFFFFFFFFFFFFFFFFFFFFFFFFFFFFFFFFFFFFFFFFFFFFFFFFFFFFFFFFFFFFFF DUP3 PUSH2 0x22BF JUMP JUMPDEST PUSH2 0x2304 DUP7 DUP4 PUSH2 0x22BF JUMP JUMPDEST SWAP6 POP DUP1 NOT DUP5 AND SWAP4 POP DUP1 DUP7 AND DUP5 OR SWAP3 POP POP POP SWAP4 SWAP3 POP POP POP JUMP JUMPDEST PUSH0 DUP2 SWAP1 POP SWAP2 SWAP1 POP JUMP JUMPDEST PUSH0 PUSH2 0x233F PUSH2 0x233A PUSH2 0x2335 DUP5 PUSH2 0x1F66 JUMP JUMPDEST PUSH2 0x231C JUMP JUMPDEST PUSH2 0x1F66 JUMP JUMPDEST SWAP1 POP SWAP2 SWAP1 POP JUMP JUMPDEST PUSH0 DUP2 SWAP1 POP SWAP2 SWAP1 POP JUMP JUMPDEST PUSH2 0x2358 DUP4 PUSH2 0x2325 JUMP JUMPDEST PUSH2 0x236C PUSH2 0x2364 DUP3 PUSH2 0x2346 JUMP JUMPDEST DUP5 DUP5 SLOAD PUSH2 0x22CB JUMP JUMPDEST DUP3 SSTORE POP POP POP POP JUMP JUMPDEST PUSH0 PUSH0 SWAP1 POP SWAP1 JUMP JUMPDEST PUSH2 0x2383 PUSH2 0x2374 JUMP JUMPDEST PUSH2 0x238E DUP2 DUP5 DUP5 PUSH2 0x234F JUMP JUMPDEST POP POP POP JUMP JUMPDEST JUMPDEST DUP2 DUP2 LT ISZERO PUSH2 0x23B1 JUMPI PUSH2 0x23A6 PUSH0 DUP3 PUSH2 0x237B JUMP JUMPDEST PUSH1 0x1 DUP2 ADD SWAP1 POP PUSH2 0x2394 JUMP JUMPDEST POP POP JUMP JUMPDEST PUSH1 0x1F DUP3 GT ISZERO PUSH2 0x23F6 JUMPI PUSH2 0x23C7 DUP2 PUSH2 0x229E JUMP JUMPDEST PUSH2 0x23D0 DUP5 PUSH2 0x22B0 JUMP JUMPDEST DUP2 ADD PUSH1 0x20 DUP6 LT ISZERO PUSH2 0x23DF JUMPI DUP2 SWAP1 POP JUMPDEST PUSH2 0x23F3 PUSH2 0x23EB DUP6 PUSH2 0x22B0 JUMP JUMPDEST DUP4 ADD DUP3 PUSH2 0x2393 JUMP JUMPDEST POP POP JUMPDEST POP POP POP JUMP JUMPDEST PUSH0 DUP3 DUP3 SHR SWAP1 POP SWAP3 SWAP2 POP POP JUMP JUMPDEST PUSH0 PUSH2 0x2416 PUSH0 NOT DUP5 PUSH1 0x8 MUL PUSH2 0x23FB JUMP JUMPDEST NOT DUP1 DUP4 AND SWAP2 POP POP SWAP3 SWAP2 POP POP JUMP JUMPDEST PUSH0 PUSH2 0x242E DUP4 DUP4 PUSH2 0x2407 JUMP JUMPDEST SWAP2 POP DUP3 PUSH1 0x2 MUL DUP3 OR SWAP1 POP SWAP3 SWAP2 POP POP JUMP JUMPDEST PUSH2 0x2447 DUP3 PUSH2 0x2237 JUMP JUMPDEST PUSH8 0xFFFFFFFFFFFFFFFF DUP2 GT ISZERO PUSH2 0x2460 JUMPI PUSH2 0x245F PUSH2 0x1E00 JUMP JUMPDEST JUMPDEST PUSH2 0x246A DUP3 SLOAD PUSH2 0x226E JUMP JUMPDEST PUSH2 0x2475 DUP3 DUP3 DUP6 PUSH2 0x23B5 JUMP JUMPDEST PUSH0 PUSH1 0x20 SWAP1 POP PUSH1 0x1F DUP4 GT PUSH1 0x1 DUP2 EQ PUSH2 0x24A6 JUMPI PUSH0 DUP5 ISZERO PUSH2 0x2494 JUMPI DUP3 DUP8 ADD MLOAD SWAP1 POP JUMPDEST PUSH2 0x249E DUP6 DUP3 PUSH2 0x2423 JUMP JUMPDEST DUP7 SSTORE POP PUSH2 0x2505 JUMP JUMPDEST PUSH1 0x1F NOT DUP5 AND PUSH2 0x24B4 DUP7 PUSH2 0x229E JUMP JUMPDEST PUSH0 JUMPDEST DUP3 DUP2 LT ISZERO PUSH2 0x24DB JUMPI DUP5 DUP10 ADD MLOAD DUP3 SSTORE PUSH1 0x1 DUP3 ADD SWAP2 POP PUSH1 0x20 DUP6 ADD SWAP5 POP PUSH1 0x20 DUP2 ADD SWAP1 POP PUSH2 0x24B6 JUMP JUMPDEST DUP7 DUP4 LT ISZERO PUSH2 0x24F8 JUMPI DUP5 DUP10 ADD MLOAD PUSH2 0x24F4 PUSH1 0x1F DUP10 AND DUP3 PUSH2 0x2407 JUMP JUMPDEST DUP4 SSTORE POP JUMPDEST PUSH1 0x1 PUSH1 0x2 DUP9 MUL ADD DUP9 SSTORE POP POP POP JUMPDEST POP POP POP POP POP POP JUMP JUMPDEST PUSH32 0x4E487B7100000000000000000000000000000000000000000000000000000000 PUSH0 MSTORE PUSH1 0x12 PUSH1 0x4 MSTORE PUSH1 0x24 PUSH0 REVERT JUMPDEST PUSH0 PUSH2 0x2544 DUP3 PUSH2 0x1F66 JUMP JUMPDEST SWAP2 POP PUSH2 0x254F DUP4 PUSH2 0x1F66 JUMP JUMPDEST SWAP3 POP DUP3 PUSH2 0x255F JUMPI PUSH2 0x255E PUSH2 0x250D JUMP JUMPDEST JUMPDEST DUP3 DUP3 MOD SWAP1 POP SWAP3 SWAP2 POP POP JUMP JUMPDEST PUSH32 0x4E487B7100000000000000000000000000000000000000000000000000000000 PUSH0 MSTORE PUSH1 0x11 PUSH1 0x4 MSTORE PUSH1 0x24 PUSH0 REVERT JUMPDEST PUSH0 PUSH2 0x25A1 DUP3 PUSH2 0x1F66 JUMP JUMPDEST SWAP2 POP PUSH2 0x25AC DUP4 PUSH2 0x1F66 JUMP JUMPDEST SWAP3 POP DUP3 DUP3 SUB SWAP1 POP DUP2 DUP2 GT ISZERO PUSH2 0x25C4 JUMPI PUSH2 0x25C3 PUSH2 0x256A JUMP JUMPDEST JUMPDEST SWAP3 SWAP2 POP POP JUMP JUMPDEST PUSH0 DUP3 DUP3 MSTORE PUSH1 0x20 DUP3 ADD SWAP1 POP SWAP3 SWAP2 POP POP JUMP JUMPDEST PUSH32 0x6D61726B6574696E672077616C6C65742063616E206E6F742062652030000000 PUSH0 DUP3 ADD MSTORE POP JUMP JUMPDEST PUSH0 PUSH2 0x260E PUSH1 0x1D DUP4 PUSH2 0x25CA JUMP JUMPDEST SWAP2 POP PUSH2 0x2619 DUP3 PUSH2 0x25DA JUMP JUMPDEST PUSH1 0x20 DUP3 ADD SWAP1 POP SWAP2 SWAP1 POP JUMP JUMPDEST PUSH0 PUSH1 0x20 DUP3 ADD SWAP1 POP DUP2 DUP2 SUB PUSH0 DUP4 ADD MSTORE PUSH2 0x263B DUP2 PUSH2 0x2602 JUMP JUMPDEST SWAP1 POP SWAP2 SWAP1 POP JUMP JUMPDEST PUSH32 0x526F7574657220616464726573732063616E206E6F7420626520300000000000 PUSH0 DUP3 ADD MSTORE POP JUMP JUMPDEST PUSH0 PUSH2 0x2676 PUSH1 0x1B DUP4 PUSH2 0x25CA JUMP JUMPDEST SWAP2 POP PUSH2 0x2681 DUP3 PUSH2 0x2642 JUMP JUMPDEST PUSH1 0x20 DUP3 ADD SWAP1 POP SWAP2 SWAP1 POP JUMP JUMPDEST PUSH0 PUSH1 0x20 DUP3 ADD SWAP1 POP DUP2 DUP2 SUB PUSH0 DUP4 ADD MSTORE PUSH2 0x26A3 DUP2 PUSH2 0x266A JUMP JUMPDEST SWAP1 POP SWAP2 SWAP1 POP JUMP JUMPDEST PUSH32 0x54726561737572792077616C6C65742063616E206E6F74206265203000000000 PUSH0 DUP3 ADD MSTORE POP JUMP JUMPDEST PUSH0 PUSH2 0x26DE PUSH1 0x1C DUP4 PUSH2 0x25CA JUMP JUMPDEST SWAP2 POP PUSH2 0x26E9 DUP3 PUSH2 0x26AA JUMP JUMPDEST PUSH1 0x20 DUP3 ADD SWAP1 POP SWAP2 SWAP1 POP JUMP JUMPDEST PUSH0 PUSH1 0x20 DUP3 ADD SWAP1 POP DUP2 DUP2 SUB PUSH0 DUP4 ADD MSTORE PUSH2 0x270B DUP2 PUSH2 0x26D2 JUMP JUMPDEST SWAP1 POP SWAP2 SWAP1 POP JUMP JUMPDEST PUSH32 0x54726561737572792077616C6C65742063616E206E6F742062652073616D6520 PUSH0 DUP3 ADD MSTORE PUSH32 0x77697468206D61726B6574696E672077616C6C65740000000000000000000000 PUSH1 0x20 DUP3 ADD MSTORE POP JUMP JUMPDEST PUSH0 PUSH2 0x276C PUSH1 0x35 DUP4 PUSH2 0x25CA JUMP JUMPDEST SWAP2 POP PUSH2 0x2777 DUP3 PUSH2 0x2712 JUMP JUMPDEST PUSH1 0x40 DUP3 ADD SWAP1 POP SWAP2 SWAP1 POP JUMP JUMPDEST PUSH0 PUSH1 0x20 DUP3 ADD SWAP1 POP DUP2 DUP2 SUB PUSH0 DUP4 ADD MSTORE PUSH2 0x2799 DUP2 PUSH2 0x2760 JUMP JUMPDEST SWAP1 POP SWAP2 SWAP1 POP JUMP JUMPDEST PUSH0 PUSH1 0x20 DUP3 DUP5 SUB SLT ISZERO PUSH2 0x27B5 JUMPI PUSH2 0x27B4 PUSH2 0x1DE4 JUMP JUMPDEST JUMPDEST PUSH0 PUSH2 0x27C2 DUP5 DUP3 DUP6 ADD PUSH2 0x1FDF JUMP JUMPDEST SWAP2 POP POP SWAP3 SWAP2 POP POP JUMP JUMPDEST PUSH2 0x27D4 DUP2 PUSH2 0x1FB8 JUMP JUMPDEST DUP3 MSTORE POP POP JUMP JUMPDEST PUSH0 PUSH1 0x40 DUP3 ADD SWAP1 POP PUSH2 0x27ED PUSH0 DUP4 ADD DUP6 PUSH2 0x27CB JUMP JUMPDEST PUSH2 0x27FA PUSH1 0x20 DUP4 ADD DUP5 PUSH2 0x27CB JUMP JUMPDEST SWAP4 SWAP3 POP POP POP JUMP JUMPDEST PUSH2 0x280A DUP2 PUSH2 0x1FF3 JUMP JUMPDEST DUP3 MSTORE POP POP JUMP JUMPDEST PUSH0 DUP2 SWAP1 POP SWAP2 SWAP1 POP JUMP JUMPDEST PUSH0 PUSH2 0x2833 PUSH2 0x282E PUSH2 0x2829 DUP5 PUSH2 0x2810 JUMP JUMPDEST PUSH2 0x231C JUMP JUMPDEST PUSH2 0x1FF3 JUMP JUMPDEST SWAP1 POP SWAP2 SWAP1 POP JUMP JUMPDEST PUSH2 0x2843 DUP2 PUSH2 0x2819 JUMP JUMPDEST DUP3 MSTORE POP POP JUMP JUMPDEST PUSH0 PUSH1 0x80 DUP3 ADD SWAP1 POP PUSH2 0x285C PUSH0 DUP4 ADD DUP8 PUSH2 0x2801 JUMP JUMPDEST PUSH2 0x2869 PUSH1 0x20 DUP4 ADD DUP7 PUSH2 0x2801 JUMP JUMPDEST PUSH2 0x2876 PUSH1 0x40 DUP4 ADD DUP6 PUSH2 0x283A JUMP JUMPDEST PUSH2 0x2883 PUSH1 0x60 DUP4 ADD DUP5 PUSH2 0x283A JUMP JUMPDEST SWAP6 SWAP5 POP POP POP POP POP JUMP JUMPDEST PUSH0 PUSH2 0x2896 DUP3 PUSH2 0x1F66 JUMP JUMPDEST SWAP2 POP PUSH2 0x28A1 DUP4 PUSH2 0x1F66 JUMP JUMPDEST SWAP3 POP DUP3 PUSH2 0x28B1 JUMPI PUSH2 0x28B0 PUSH2 0x250D JUMP JUMPDEST JUMPDEST DUP3 DUP3 DIV SWAP1 POP SWAP3 SWAP2 POP POP JUMP JUMPDEST PUSH2 0x28C5 DUP2 PUSH2 0x1F66 JUMP JUMPDEST DUP3 MSTORE POP POP JUMP JUMPDEST PUSH0 PUSH2 0x28E5 PUSH2 0x28E0 PUSH2 0x28DB DUP5 PUSH2 0x2810 JUMP JUMPDEST PUSH2 0x231C JUMP JUMPDEST PUSH2 0x1F66 JUMP JUMPDEST SWAP1 POP SWAP2 SWAP1 POP JUMP JUMPDEST PUSH2 0x28F5 DUP2 PUSH2 0x28CB JUMP JUMPDEST DUP3 MSTORE POP POP JUMP JUMPDEST PUSH0 PUSH1 0x40 DUP3 ADD SWAP1 POP PUSH2 0x290E PUSH0 DUP4 ADD DUP6 PUSH2 0x28BC JUMP JUMPDEST PUSH2 0x291B PUSH1 0x20 DUP4 ADD DUP5 PUSH2 0x28EC JUMP JUMPDEST SWAP4 SWAP3 POP POP POP JUMP JUMPDEST PUSH0 PUSH1 0x20 DUP3 ADD SWAP1 POP PUSH2 0x2935 PUSH0 DUP4 ADD DUP5 PUSH2 0x28BC JUMP JUMPDEST SWAP3 SWAP2 POP POP JUMP JUMPDEST PUSH32 0x45524332303A20617070726F76652066726F6D20746865207A65726F20616464 PUSH0 DUP3 ADD MSTORE PUSH32 0x7265737300000000000000000000000000000000000000000000000000000000 PUSH1 0x20 DUP3 ADD MSTORE POP JUMP JUMPDEST PUSH0 PUSH2 0x2995 PUSH1 0x24 DUP4 PUSH2 0x25CA JUMP JUMPDEST SWAP2 POP PUSH2 0x29A0 DUP3 PUSH2 0x293B JUMP JUMPDEST PUSH1 0x40 DUP3 ADD SWAP1 POP SWAP2 SWAP1 POP JUMP JUMPDEST PUSH0 PUSH1 0x20 DUP3 ADD SWAP1 POP DUP2 DUP2 SUB PUSH0 DUP4 ADD MSTORE PUSH2 0x29C2 DUP2 PUSH2 0x2989 JUMP JUMPDEST SWAP1 POP SWAP2 SWAP1 POP JUMP JUMPDEST PUSH32 0x45524332303A20617070726F766520746F20746865207A65726F206164647265 PUSH0 DUP3 ADD MSTORE PUSH32 0x7373000000000000000000000000000000000000000000000000000000000000 PUSH1 0x20 DUP3 ADD MSTORE POP JUMP JUMPDEST PUSH0 PUSH2 0x2A23 PUSH1 0x22 DUP4 PUSH2 0x25CA JUMP JUMPDEST SWAP2 POP PUSH2 0x2A2E DUP3 PUSH2 0x29C9 JUMP JUMPDEST PUSH1 0x40 DUP3 ADD SWAP1 POP SWAP2 SWAP1 POP JUMP JUMPDEST PUSH0 PUSH1 0x20 DUP3 ADD SWAP1 POP DUP2 DUP2 SUB PUSH0 DUP4 ADD MSTORE PUSH2 0x2A50 DUP2 PUSH2 0x2A17 JUMP JUMPDEST SWAP1 POP SWAP2 SWAP1 POP JUMP JUMPDEST PUSH32 0x4175746F6D61746564206D61726B6574206D616B657220706169722069732061 PUSH0 DUP3 ADD MSTORE PUSH32 0x6C72656164792073657420746F20746861742076616C75650000000000000000 PUSH1 0x20 DUP3 ADD MSTORE POP JUMP JUMPDEST PUSH0 PUSH2 0x2AB1 PUSH1 0x38 DUP4 PUSH2 0x25CA JUMP JUMPDEST SWAP2 POP PUSH2 0x2ABC DUP3 PUSH2 0x2A57 JUMP JUMPDEST PUSH1 0x40 DUP3 ADD SWAP1 POP SWAP2 SWAP1 POP JUMP JUMPDEST PUSH0 PUSH1 0x20 DUP3 ADD SWAP1 POP DUP2 DUP2 SUB PUSH0 DUP4 ADD MSTORE PUSH2 0x2ADE DUP2 PUSH2 0x2AA5 JUMP JUMPDEST SWAP1 POP SWAP2 SWAP1 POP JUMP JUMPDEST PUSH0 DUP2 ISZERO ISZERO SWAP1 POP SWAP2 SWAP1 POP JUMP JUMPDEST PUSH2 0x2AF9 DUP2 PUSH2 0x2AE5 JUMP JUMPDEST DUP3 MSTORE POP POP JUMP JUMPDEST PUSH0 PUSH1 0x20 DUP3 ADD SWAP1 POP PUSH2 0x2B12 PUSH0 DUP4 ADD DUP5 PUSH2 0x2AF0 JUMP JUMPDEST SWAP3 SWAP2 POP POP JUMP JUMPDEST PUSH32 0x4163636F756E7420697320616C7265616479206578636C756465640000000000 PUSH0 DUP3 ADD MSTORE POP JUMP JUMPDEST PUSH0 PUSH2 0x2B4C PUSH1 0x1B DUP4 PUSH2 0x25CA JUMP JUMPDEST SWAP2 POP PUSH2 0x2B57 DUP3 PUSH2 0x2B18 JUMP JUMPDEST PUSH1 0x20 DUP3 ADD SWAP1 POP SWAP2 SWAP1 POP JUMP JUMPDEST PUSH0 PUSH1 0x20 DUP3 ADD SWAP1 POP DUP2 DUP2 SUB PUSH0 DUP4 ADD MSTORE PUSH2 0x2B79 DUP2 PUSH2 0x2B40 JUMP JUMPDEST SWAP1 POP SWAP2 SWAP1 POP JUMP JUMPDEST PUSH0 PUSH2 0x2B8A DUP3 PUSH2 0x1F66 JUMP JUMPDEST SWAP2 POP PUSH2 0x2B95 DUP4 PUSH2 0x1F66 JUMP JUMPDEST SWAP3 POP DUP3 DUP3 ADD SWAP1 POP DUP1 DUP3 GT ISZERO PUSH2 0x2BAD JUMPI PUSH2 0x2BAC PUSH2 0x256A JUMP JUMPDEST JUMPDEST SWAP3 SWAP2 POP POP JUMP JUMPDEST PUSH32 0x43616E6E6F74206578636C756465206D6F7265207468616E203530206163636F PUSH0 DUP3 ADD MSTORE PUSH32 0x756E74732E2020496E636C75646520612070726576696F75736C79206578636C PUSH1 0x20 DUP3 ADD MSTORE PUSH32 0x7564656420616464726573732E00000000000000000000000000000000000000 PUSH1 0x40 DUP3 ADD MSTORE POP JUMP JUMPDEST PUSH0 PUSH2 0x2C33 PUSH1 0x4D DUP4 PUSH2 0x25CA JUMP JUMPDEST SWAP2 POP PUSH2 0x2C3E DUP3 PUSH2 0x2BB3 JUMP JUMPDEST PUSH1 0x60 DUP3 ADD SWAP1 POP SWAP2 SWAP1 POP JUMP JUMPDEST PUSH0 PUSH1 0x20 DUP3 ADD SWAP1 POP DUP2 DUP2 SUB PUSH0 DUP4 ADD MSTORE PUSH2 0x2C60 DUP2 PUSH2 0x2C27 JUMP JUMPDEST SWAP1 POP SWAP2 SWAP1 POP JUMP JUMPDEST PUSH32 0x4163636F756E74206973206E6F74206578636C75646564000000000000000000 PUSH0 DUP3 ADD MSTORE POP JUMP JUMPDEST PUSH0 PUSH2 0x2C9B PUSH1 0x17 DUP4 PUSH2 0x25CA JUMP JUMPDEST SWAP2 POP PUSH2 0x2CA6 DUP3 PUSH2 0x2C67 JUMP JUMPDEST PUSH1 0x20 DUP3 ADD SWAP1 POP SWAP2 SWAP1 POP JUMP JUMPDEST PUSH0 PUSH1 0x20 DUP3 ADD SWAP1 POP DUP2 DUP2 SUB PUSH0 DUP4 ADD MSTORE PUSH2 0x2CC8 DUP2 PUSH2 0x2C8F JUMP JUMPDEST SWAP1 POP SWAP2 SWAP1 POP JUMP JUMPDEST PUSH32 0x4E487B7100000000000000000000000000000000000000000000000000000000 PUSH0 MSTORE PUSH1 0x32 PUSH1 0x4 MSTORE PUSH1 0x24 PUSH0 REVERT JUMPDEST PUSH0 PUSH2 0x2D06 DUP3 PUSH2 0x1F66 JUMP JUMPDEST SWAP2 POP PUSH2 0x2D11 DUP4 PUSH2 0x1F66 JUMP JUMPDEST SWAP3 POP DUP3 DUP3 MUL PUSH2 0x2D1F DUP2 PUSH2 0x1F66 JUMP JUMPDEST SWAP2 POP DUP3 DUP3 DIV DUP5 EQ DUP4 ISZERO OR PUSH2 0x2D36 JUMPI PUSH2 0x2D35 PUSH2 0x256A JUMP JUMPDEST JUMPDEST POP SWAP3 SWAP2 POP POP JUMP JUMPDEST PUSH32 0x4E487B7100000000000000000000000000000000000000000000000000000000 PUSH0 MSTORE PUSH1 0x31 PUSH1 0x4 MSTORE PUSH1 0x24 PUSH0 REVERT JUMPDEST PUSH32 0x4F776E61626C653A2063616C6C6572206973206E6F7420746865206F776E6572 PUSH0 DUP3 ADD MSTORE POP JUMP JUMPDEST PUSH0 PUSH2 0x2D9E PUSH1 0x20 DUP4 PUSH2 0x25CA JUMP JUMPDEST SWAP2 POP PUSH2 0x2DA9 DUP3 PUSH2 0x2D6A JUMP JUMPDEST PUSH1 0x20 DUP3 ADD SWAP1 POP SWAP2 SWAP1 POP JUMP JUMPDEST PUSH0 PUSH1 0x20 DUP3 ADD SWAP1 POP DUP2 DUP2 SUB PUSH0 DUP4 ADD MSTORE PUSH2 0x2DCB DUP2 PUSH2 0x2D92 JUMP JUMPDEST SWAP1 POP SWAP2 SWAP1 POP JUMP JUMPDEST PUSH32 0x416D6F756E74206D757374206265206C657373207468616E20746F74616C2072 PUSH0 DUP3 ADD MSTORE PUSH32 0x65666C656374696F6E7300000000000000000000000000000000000000000000 PUSH1 0x20 DUP3 ADD MSTORE POP JUMP JUMPDEST PUSH0 PUSH2 0x2E2C PUSH1 0x2A DUP4 PUSH2 0x25CA JUMP JUMPDEST SWAP2 POP PUSH2 0x2E37 DUP3 PUSH2 0x2DD2 JUMP JUMPDEST PUSH1 0x40 DUP3 ADD SWAP1 POP SWAP2 SWAP1 POP JUMP JUMPDEST PUSH0 PUSH1 0x20 DUP3 ADD SWAP1 POP DUP2 DUP2 SUB PUSH0 DUP4 ADD MSTORE PUSH2 0x2E59 DUP2 PUSH2 0x2E20 JUMP JUMPDEST SWAP1 POP SWAP2 SWAP1 POP JUMP JUMPDEST PUSH2 0x7719 DUP1 PUSH2 0x2E6D PUSH0 CODECOPY PUSH0 RETURN INVALID PUSH1 0x80 PUSH1 0x40 MSTORE PUSH1 0x4 CALLDATASIZE LT PUSH2 0x2E7 JUMPI PUSH0 CALLDATALOAD PUSH1 0xE0 SHR DUP1 PUSH4 0x88F82020 GT PUSH2 0x18F JUMPI DUP1 PUSH4 0xCF188AD0 GT PUSH2 0xDB JUMPI DUP1 PUSH4 0xE086E5EC GT PUSH2 0x94 JUMPI DUP1 PUSH4 0xF11A24D3 GT PUSH2 0x6E JUMPI DUP1 PUSH4 0xF11A24D3 EQ PUSH2 0xB1C JUMPI DUP1 PUSH4 0xF2FDE38B EQ PUSH2 0xB46 JUMPI DUP1 PUSH4 0xF6374342 EQ PUSH2 0xB6E JUMPI DUP1 PUSH4 0xFC59D23D EQ PUSH2 0xB98 JUMPI PUSH2 0x2EE JUMP JUMPDEST DUP1 PUSH4 0xE086E5EC EQ PUSH2 0xAB4 JUMPI DUP1 PUSH4 0xE71DC3F5 EQ PUSH2 0xACA JUMPI DUP1 PUSH4 0xEC44ADC8 EQ PUSH2 0xAF4 JUMPI PUSH2 0x2EE JUMP JUMPDEST DUP1 PUSH4 0xCF188AD0 EQ PUSH2 0x9AC JUMPI DUP1 PUSH4 0xD5BF72B7 EQ PUSH2 0x9D6 JUMPI DUP1 PUSH4 0xDB4091E9 EQ PUSH2 0x9FE JUMPI DUP1 PUSH4 0xDD62ED3E EQ PUSH2 0xA26 JUMPI DUP1 PUSH4 0xDE0AAD53 EQ PUSH2 0xA62 JUMPI DUP1 PUSH4 0xDF8408FE EQ PUSH2 0xA8C JUMPI PUSH2 0x2EE JUMP JUMPDEST DUP1 PUSH4 0x9A7A23D6 GT PUSH2 0x148 JUMPI DUP1 PUSH4 0xAACEBBE3 GT PUSH2 0x122 JUMPI DUP1 PUSH4 0xAACEBBE3 EQ PUSH2 0x8F6 JUMPI DUP1 PUSH4 0xADB873BD EQ PUSH2 0x91E JUMPI DUP1 PUSH4 0xB62496F5 EQ PUSH2 0x948 JUMPI DUP1 PUSH4 0xB95D11BE EQ PUSH2 0x984 JUMPI PUSH2 0x2EE JUMP JUMPDEST DUP1 PUSH4 0x9A7A23D6 EQ PUSH2 0x856 JUMPI DUP1 PUSH4 0xA457C2D7 EQ PUSH2 0x87E JUMPI DUP1 PUSH4 0xA9059CBB EQ PUSH2 0x8BA JUMPI PUSH2 0x2EE JUMP JUMPDEST DUP1 PUSH4 0x88F82020 EQ PUSH2 0x76A JUMPI DUP1 PUSH4 0x89476069 EQ PUSH2 0x7A6 JUMPI DUP1 PUSH4 0x8DA5CB5B EQ PUSH2 0x7CE JUMPI DUP1 PUSH4 0x8F0BC167 EQ PUSH2 0x7F8 JUMPI DUP1 PUSH4 0x92136913 EQ PUSH2 0x802 JUMPI DUP1 PUSH4 0x95D89B41 EQ PUSH2 0x82C JUMPI PUSH2 0x2EE JUMP JUMPDEST DUP1 PUSH4 0x4626402B GT PUSH2 0x24E JUMPI DUP1 PUSH4 0x715018A6 GT PUSH2 0x207 JUMPI DUP1 PUSH4 0x7BCE5A04 GT PUSH2 0x1E1 JUMPI DUP1 PUSH4 0x7BCE5A04 EQ PUSH2 0x6C6 JUMPI DUP1 PUSH4 0x809D458D EQ PUSH2 0x6F0 JUMPI DUP1 PUSH4 0x82685DF5 EQ PUSH2 0x718 JUMPI DUP1 PUSH4 0x85AF30C5 EQ PUSH2 0x740 JUMPI PUSH2 0x2EE JUMP JUMPDEST DUP1 PUSH4 0x715018A6 EQ PUSH2 0x65E JUMPI DUP1 PUSH4 0x73B9E82C EQ PUSH2 0x674 JUMPI DUP1 PUSH4 0x75F0A874 EQ PUSH2 0x69C JUMPI PUSH2 0x2EE JUMP JUMPDEST DUP1 PUSH4 0x4626402B EQ PUSH2 0x540 JUMPI DUP1 PUSH4 0x52390C02 EQ PUSH2 0x56A JUMPI DUP1 PUSH4 0x5342ACB4 EQ PUSH2 0x592 JUMPI DUP1 PUSH4 0x5C068A8C EQ PUSH2 0x5CE JUMPI DUP1 PUSH4 0x6B2FB124 EQ PUSH2 0x5F8 JUMPI DUP1 PUSH4 0x70A08231 EQ PUSH2 0x622 JUMPI PUSH2 0x2EE JUMP JUMPDEST DUP1 PUSH4 0x2D838119 GT PUSH2 0x2A0 JUMPI DUP1 PUSH4 0x2D838119 EQ PUSH2 0x412 JUMPI DUP1 PUSH4 0x313CE567 EQ PUSH2 0x44E JUMPI DUP1 PUSH4 0x3685D419 EQ PUSH2 0x478 JUMPI DUP1 PUSH4 0x39509351 EQ PUSH2 0x4A0 JUMPI DUP1 PUSH4 0x3FD1C86D EQ PUSH2 0x4DC JUMPI DUP1 PUSH4 0x4549B039 EQ PUSH2 0x504 JUMPI PUSH2 0x2EE JUMP JUMPDEST DUP1 PUSH4 0x6FDDE03 EQ PUSH2 0x2F2 JUMPI DUP1 PUSH4 0x95EA7B3 EQ PUSH2 0x31C JUMPI DUP1 PUSH4 0xCFE2F3F EQ PUSH2 0x358 JUMPI DUP1 PUSH4 0x13114A9D EQ PUSH2 0x382 JUMPI DUP1 PUSH4 0x18160DDD EQ PUSH2 0x3AC JUMPI DUP1 PUSH4 0x23B872DD EQ PUSH2 0x3D6 JUMPI PUSH2 0x2EE JUMP JUMPDEST CALLDATASIZE PUSH2 0x2EE JUMPI STOP JUMPDEST PUSH0 PUSH0 REVERT JUMPDEST CALLVALUE DUP1 ISZERO PUSH2 0x2FD JUMPI PUSH0 PUSH0 REVERT JUMPDEST POP PUSH2 0x306 PUSH2 0xBC2 JUMP JUMPDEST PUSH1 0x40 MLOAD PUSH2 0x313 SWAP2 SWAP1 PUSH2 0x5F02 JUMP JUMPDEST PUSH1 0x40 MLOAD DUP1 SWAP2 SUB SWAP1 RETURN JUMPDEST CALLVALUE DUP1 ISZERO PUSH2 0x327 JUMPI PUSH0 PUSH0 REVERT JUMPDEST POP PUSH2 0x342 PUSH1 0x4 DUP1 CALLDATASIZE SUB DUP2 ADD SWAP1 PUSH2 0x33D SWAP2 SWAP1 PUSH2 0x5FB3 JUMP JUMPDEST PUSH2 0xC52 JUMP JUMPDEST PUSH1 0x40 MLOAD PUSH2 0x34F SWAP2 SWAP1 PUSH2 0x600B JUMP JUMPDEST PUSH1 0x40 MLOAD DUP1 SWAP2 SUB SWAP1 RETURN JUMPDEST CALLVALUE DUP1 ISZERO PUSH2 0x363 JUMPI PUSH0 PUSH0 REVERT JUMPDEST POP PUSH2 0x36C PUSH2 0xC6F JUMP JUMPDEST PUSH1 0x40 MLOAD PUSH2 0x379 SWAP2 SWAP1 PUSH2 0x6041 JUMP JUMPDEST PUSH1 0x40 MLOAD DUP1 SWAP2 SUB SWAP1 RETURN JUMPDEST CALLVALUE DUP1 ISZERO PUSH2 0x38D JUMPI PUSH0 PUSH0 REVERT JUMPDEST POP PUSH2 0x396 PUSH2 0xC84 JUMP JUMPDEST PUSH1 0x40 MLOAD PUSH2 0x3A3 SWAP2 SWAP1 PUSH2 0x6069 JUMP JUMPDEST PUSH1 0x40 MLOAD DUP1 SWAP2 SUB SWAP1 RETURN JUMPDEST CALLVALUE DUP1 ISZERO PUSH2 0x3B7 JUMPI PUSH0 PUSH0 REVERT JUMPDEST POP PUSH2 0x3C0 PUSH2 0xC8D JUMP JUMPDEST PUSH1 0x40 MLOAD PUSH2 0x3CD SWAP2 SWAP1 PUSH2 0x6069 JUMP JUMPDEST PUSH1 0x40 MLOAD DUP1 SWAP2 SUB SWAP1 RETURN JUMPDEST CALLVALUE DUP1 ISZERO PUSH2 0x3E1 JUMPI PUSH0 PUSH0 REVERT JUMPDEST POP PUSH2 0x3FC PUSH1 0x4 DUP1 CALLDATASIZE SUB DUP2 ADD SWAP1 PUSH2 0x3F7 SWAP2 SWAP1 PUSH2 0x6082 JUMP JUMPDEST PUSH2 0xC96 JUMP JUMPDEST PUSH1 0x40 MLOAD PUSH2 0x409 SWAP2 SWAP1 PUSH2 0x600B JUMP JUMPDEST PUSH1 0x40 MLOAD DUP1 SWAP2 SUB SWAP1 RETURN JUMPDEST CALLVALUE DUP1 ISZERO PUSH2 0x41D JUMPI PUSH0 PUSH0 REVERT JUMPDEST POP PUSH2 0x438 PUSH1 0x4 DUP1 CALLDATASIZE SUB DUP2 ADD SWAP1 PUSH2 0x433 SWAP2 SWAP1 PUSH2 0x60D2 JUMP JUMPDEST PUSH2 0xD49 JUMP JUMPDEST PUSH1 0x40 MLOAD PUSH2 0x445 SWAP2 SWAP1 PUSH2 0x6069 JUMP JUMPDEST PUSH1 0x40 MLOAD DUP1 SWAP2 SUB SWAP1 RETURN JUMPDEST CALLVALUE DUP1 ISZERO PUSH2 0x459 JUMPI PUSH0 PUSH0 REVERT JUMPDEST POP PUSH2 0x462 PUSH2 0xDAE JUMP JUMPDEST PUSH1 0x40 MLOAD PUSH2 0x46F SWAP2 SWAP1 PUSH2 0x6118 JUMP JUMPDEST PUSH1 0x40 MLOAD DUP1 SWAP2 SUB SWAP1 RETURN JUMPDEST CALLVALUE DUP1 ISZERO PUSH2 0x483 JUMPI PUSH0 PUSH0 REVERT JUMPDEST POP PUSH2 0x49E PUSH1 0x4 DUP1 CALLDATASIZE SUB DUP2 ADD SWAP1 PUSH2 0x499 SWAP2 SWAP1 PUSH2 0x6131 JUMP JUMPDEST PUSH2 0xDC3 JUMP JUMPDEST STOP JUMPDEST CALLVALUE DUP1 ISZERO PUSH2 0x4AB JUMPI PUSH0 PUSH0 REVERT JUMPDEST POP PUSH2 0x4C6 PUSH1 0x4 DUP1 CALLDATASIZE SUB DUP2 ADD SWAP1 PUSH2 0x4C1 SWAP2 SWAP1 PUSH2 0x5FB3 JUMP JUMPDEST PUSH2 0x1157 JUMP JUMPDEST PUSH1 0x40 MLOAD PUSH2 0x4D3 SWAP2 SWAP1 PUSH2 0x600B JUMP JUMPDEST PUSH1 0x40 MLOAD DUP1 SWAP2 SUB SWAP1 RETURN JUMPDEST CALLVALUE DUP1 ISZERO PUSH2 0x4E7 JUMPI PUSH0 PUSH0 REVERT JUMPDEST POP PUSH2 0x502 PUSH1 0x4 DUP1 CALLDATASIZE SUB DUP2 ADD SWAP1 PUSH2 0x4FD SWAP2 SWAP1 PUSH2 0x6186 JUMP JUMPDEST PUSH2 0x11FE JUMP JUMPDEST STOP JUMPDEST CALLVALUE DUP1 ISZERO PUSH2 0x50F JUMPI PUSH0 PUSH0 REVERT JUMPDEST POP PUSH2 0x52A PUSH1 0x4 DUP1 CALLDATASIZE SUB DUP2 ADD SWAP1 PUSH2 0x525 SWAP2 SWAP1 PUSH2 0x61EE JUMP JUMPDEST PUSH2 0x14B3 JUMP JUMPDEST PUSH1 0x40 MLOAD PUSH2 0x537 SWAP2 SWAP1 PUSH2 0x6069 JUMP JUMPDEST PUSH1 0x40 MLOAD DUP1 SWAP2 SUB SWAP1 RETURN JUMPDEST CALLVALUE DUP1 ISZERO PUSH2 0x54B JUMPI PUSH0 PUSH0 REVERT JUMPDEST POP PUSH2 0x554 PUSH2 0x1596 JUMP JUMPDEST PUSH1 0x40 MLOAD PUSH2 0x561 SWAP2 SWAP1 PUSH2 0x623B JUMP JUMPDEST PUSH1 0x40 MLOAD DUP1 SWAP2 SUB SWAP1 RETURN JUMPDEST CALLVALUE DUP1 ISZERO PUSH2 0x575 JUMPI PUSH0 PUSH0 REVERT JUMPDEST POP PUSH2 0x590 PUSH1 0x4 DUP1 CALLDATASIZE SUB DUP2 ADD SWAP1 PUSH2 0x58B SWAP2 SWAP1 PUSH2 0x6131 JUMP JUMPDEST PUSH2 0x15BB JUMP JUMPDEST STOP JUMPDEST CALLVALUE DUP1 ISZERO PUSH2 0x59D JUMPI PUSH0 PUSH0 REVERT JUMPDEST POP PUSH2 0x5B8 PUSH1 0x4 DUP1 CALLDATASIZE SUB DUP2 ADD SWAP1 PUSH2 0x5B3 SWAP2 SWAP1 PUSH2 0x6131 JUMP JUMPDEST PUSH2 0x1827 JUMP JUMPDEST PUSH1 0x40 MLOAD PUSH2 0x5C5 SWAP2 SWAP1 PUSH2 0x600B JUMP JUMPDEST PUSH1 0x40 MLOAD DUP1 SWAP2 SUB SWAP1 RETURN JUMPDEST CALLVALUE DUP1 ISZERO PUSH2 0x5D9 JUMPI PUSH0 PUSH0 REVERT JUMPDEST POP PUSH2 0x5E2 PUSH2 0x1844 JUMP JUMPDEST PUSH1 0x40 MLOAD PUSH2 0x5EF SWAP2 SWAP1 PUSH2 0x6041 JUMP JUMPDEST PUSH1 0x40 MLOAD DUP1 SWAP2 SUB SWAP1 RETURN JUMPDEST CALLVALUE DUP1 ISZERO PUSH2 0x603 JUMPI PUSH0 PUSH0 REVERT JUMPDEST POP PUSH2 0x60C PUSH2 0x1859 JUMP JUMPDEST PUSH1 0x40 MLOAD PUSH2 0x619 SWAP2 SWAP1 PUSH2 0x6041 JUMP JUMPDEST PUSH1 0x40 MLOAD DUP1 SWAP2 SUB SWAP1 RETURN JUMPDEST CALLVALUE DUP1 ISZERO PUSH2 0x62D JUMPI PUSH0 PUSH0 REVERT JUMPDEST POP PUSH2 0x648 PUSH1 0x4 DUP1 CALLDATASIZE SUB DUP2 ADD SWAP1 PUSH2 0x643 SWAP2 SWAP1 PUSH2 0x6131 JUMP JUMPDEST PUSH2 0x186E JUMP JUMPDEST PUSH1 0x40 MLOAD PUSH2 0x655 SWAP2 SWAP1 PUSH2 0x6069 JUMP JUMPDEST PUSH1 0x40 MLOAD DUP1 SWAP2 SUB SWAP1 RETURN JUMPDEST CALLVALUE DUP1 ISZERO PUSH2 0x669 JUMPI PUSH0 PUSH0 REVERT JUMPDEST POP PUSH2 0x672 PUSH2 0x1951 JUMP JUMPDEST STOP JUMPDEST CALLVALUE DUP1 ISZERO PUSH2 0x67F JUMPI PUSH0 PUSH0 REVERT JUMPDEST POP PUSH2 0x69A PUSH1 0x4 DUP1 CALLDATASIZE SUB DUP2 ADD SWAP1 PUSH2 0x695 SWAP2 SWAP1 PUSH2 0x60D2 JUMP JUMPDEST PUSH2 0x1964 JUMP JUMPDEST STOP JUMPDEST CALLVALUE DUP1 ISZERO PUSH2 0x6A7 JUMPI PUSH0 PUSH0 REVERT JUMPDEST POP PUSH2 0x6B0 PUSH2 0x19F3 JUMP JUMPDEST PUSH1 0x40 MLOAD PUSH2 0x6BD SWAP2 SWAP1 PUSH2 0x623B JUMP JUMPDEST PUSH1 0x40 MLOAD DUP1 SWAP2 SUB SWAP1 RETURN JUMPDEST CALLVALUE DUP1 ISZERO PUSH2 0x6D1 JUMPI PUSH0 PUSH0 REVERT JUMPDEST POP PUSH2 0x6DA PUSH2 0x1A18 JUMP JUMPDEST PUSH1 0x40 MLOAD PUSH2 0x6E7 SWAP2 SWAP1 PUSH2 0x6041 JUMP JUMPDEST PUSH1 0x40 MLOAD DUP1 SWAP2 SUB SWAP1 RETURN JUMPDEST CALLVALUE DUP1 ISZERO PUSH2 0x6FB JUMPI PUSH0 PUSH0 REVERT JUMPDEST POP PUSH2 0x716 PUSH1 0x4 DUP1 CALLDATASIZE SUB DUP2 ADD SWAP1 PUSH2 0x711 SWAP2 SWAP1 PUSH2 0x6131 JUMP JUMPDEST PUSH2 0x1A2D JUMP JUMPDEST STOP JUMPDEST CALLVALUE DUP1 ISZERO PUSH2 0x723 JUMPI PUSH0 PUSH0 REVERT JUMPDEST POP PUSH2 0x73E PUSH1 0x4 DUP1 CALLDATASIZE SUB DUP2 ADD SWAP1 PUSH2 0x739 SWAP2 SWAP1 PUSH2 0x6186 JUMP JUMPDEST PUSH2 0x1CB3 JUMP JUMPDEST STOP JUMPDEST CALLVALUE DUP1 ISZERO PUSH2 0x74B JUMPI PUSH0 PUSH0 REVERT JUMPDEST POP PUSH2 0x754 PUSH2 0x1F68 JUMP JUMPDEST PUSH1 0x40 MLOAD PUSH2 0x761 SWAP2 SWAP1 PUSH2 0x623B JUMP JUMPDEST PUSH1 0x40 MLOAD DUP1 SWAP2 SUB SWAP1 RETURN JUMPDEST CALLVALUE DUP1 ISZERO PUSH2 0x775 JUMPI PUSH0 PUSH0 REVERT JUMPDEST POP PUSH2 0x790 PUSH1 0x4 DUP1 CALLDATASIZE SUB DUP2 ADD SWAP1 PUSH2 0x78B SWAP2 SWAP1 PUSH2 0x6131 JUMP JUMPDEST PUSH2 0x1F8D JUMP JUMPDEST PUSH1 0x40 MLOAD PUSH2 0x79D SWAP2 SWAP1 PUSH2 0x600B JUMP JUMPDEST PUSH1 0x40 MLOAD DUP1 SWAP2 SUB SWAP1 RETURN JUMPDEST CALLVALUE DUP1 ISZERO PUSH2 0x7B1 JUMPI PUSH0 PUSH0 REVERT JUMPDEST POP PUSH2 0x7CC PUSH1 0x4 DUP1 CALLDATASIZE SUB DUP2 ADD SWAP1 PUSH2 0x7C7 SWAP2 SWAP1 PUSH2 0x6131 JUMP JUMPDEST PUSH2 0x1FDF JUMP JUMPDEST STOP JUMPDEST CALLVALUE DUP1 ISZERO PUSH2 0x7D9 JUMPI PUSH0 PUSH0 REVERT JUMPDEST POP PUSH2 0x7E2 PUSH2 0x2101 JUMP JUMPDEST PUSH1 0x40 MLOAD PUSH2 0x7EF SWAP2 SWAP1 PUSH2 0x623B JUMP JUMPDEST PUSH1 0x40 MLOAD DUP1 SWAP2 SUB SWAP1 RETURN JUMPDEST PUSH2 0x800 PUSH2 0x2128 JUMP JUMPDEST STOP JUMPDEST CALLVALUE DUP1 ISZERO PUSH2 0x80D JUMPI PUSH0 PUSH0 REVERT JUMPDEST POP PUSH2 0x816 PUSH2 0x2903 JUMP JUMPDEST PUSH1 0x40 MLOAD PUSH2 0x823 SWAP2 SWAP1 PUSH2 0x6041 JUMP JUMPDEST PUSH1 0x40 MLOAD DUP1 SWAP2 SUB SWAP1 RETURN JUMPDEST CALLVALUE DUP1 ISZERO PUSH2 0x837 JUMPI PUSH0 PUSH0 REVERT JUMPDEST POP PUSH2 0x840 PUSH2 0x2918 JUMP JUMPDEST PUSH1 0x40 MLOAD PUSH2 0x84D SWAP2 SWAP1 PUSH2 0x5F02 JUMP JUMPDEST PUSH1 0x40 MLOAD DUP1 SWAP2 SUB SWAP1 RETURN JUMPDEST CALLVALUE DUP1 ISZERO PUSH2 0x861 JUMPI PUSH0 PUSH0 REVERT JUMPDEST POP PUSH2 0x87C PUSH1 0x4 DUP1 CALLDATASIZE SUB DUP2 ADD SWAP1 PUSH2 0x877 SWAP2 SWAP1 PUSH2 0x6254 JUMP JUMPDEST PUSH2 0x29A8 JUMP JUMPDEST STOP JUMPDEST CALLVALUE DUP1 ISZERO PUSH2 0x889 JUMPI PUSH0 PUSH0 REVERT JUMPDEST POP PUSH2 0x8A4 PUSH1 0x4 DUP1 CALLDATASIZE SUB DUP2 ADD SWAP1 PUSH2 0x89F SWAP2 SWAP1 PUSH2 0x5FB3 JUMP JUMPDEST PUSH2 0x29BE JUMP JUMPDEST PUSH1 0x40 MLOAD PUSH2 0x8B1 SWAP2 SWAP1 PUSH2 0x600B JUMP JUMPDEST PUSH1 0x40 MLOAD DUP1 SWAP2 SUB SWAP1 RETURN JUMPDEST CALLVALUE DUP1 ISZERO PUSH2 0x8C5 JUMPI PUSH0 PUSH0 REVERT JUMPDEST POP PUSH2 0x8E0 PUSH1 0x4 DUP1 CALLDATASIZE SUB DUP2 ADD SWAP1 PUSH2 0x8DB SWAP2 SWAP1 PUSH2 0x5FB3 JUMP JUMPDEST PUSH2 0x2A65 JUMP JUMPDEST PUSH1 0x40 MLOAD PUSH2 0x8ED SWAP2 SWAP1 PUSH2 0x600B JUMP JUMPDEST PUSH1 0x40 MLOAD DUP1 SWAP2 SUB SWAP1 RETURN JUMPDEST CALLVALUE DUP1 ISZERO PUSH2 0x901 JUMPI PUSH0 PUSH0 REVERT JUMPDEST POP PUSH2 0x91C PUSH1 0x4 DUP1 CALLDATASIZE SUB DUP2 ADD SWAP1 PUSH2 0x917 SWAP2 SWAP1 PUSH2 0x6131 JUMP JUMPDEST PUSH2 0x2A82 JUMP JUMPDEST STOP JUMPDEST CALLVALUE DUP1 ISZERO PUSH2 0x929 JUMPI PUSH0 PUSH0 REVERT JUMPDEST POP PUSH2 0x932 PUSH2 0x2C9A JUMP JUMPDEST PUSH1 0x40 MLOAD PUSH2 0x93F SWAP2 SWAP1 PUSH2 0x6041 JUMP JUMPDEST PUSH1 0x40 MLOAD DUP1 SWAP2 SUB SWAP1 RETURN JUMPDEST CALLVALUE DUP1 ISZERO PUSH2 0x953 JUMPI PUSH0 PUSH0 REVERT JUMPDEST POP PUSH2 0x96E PUSH1 0x4 DUP1 CALLDATASIZE SUB DUP2 ADD SWAP1 PUSH2 0x969 SWAP2 SWAP1 PUSH2 0x6131 JUMP JUMPDEST PUSH2 0x2CAF JUMP JUMPDEST PUSH1 0x40 MLOAD PUSH2 0x97B SWAP2 SWAP1 PUSH2 0x600B JUMP JUMPDEST PUSH1 0x40 MLOAD DUP1 SWAP2 SUB SWAP1 RETURN JUMPDEST CALLVALUE DUP1 ISZERO PUSH2 0x98F JUMPI PUSH0 PUSH0 REVERT JUMPDEST POP PUSH2 0x9AA PUSH1 0x4 DUP1 CALLDATASIZE SUB DUP2 ADD SWAP1 PUSH2 0x9A5 SWAP2 SWAP1 PUSH2 0x6131 JUMP JUMPDEST PUSH2 0x2CCC JUMP JUMPDEST STOP JUMPDEST CALLVALUE DUP1 ISZERO PUSH2 0x9B7 JUMPI PUSH0 PUSH0 REVERT JUMPDEST POP PUSH2 0x9C0 PUSH2 0x2FF3 JUMP JUMPDEST PUSH1 0x40 MLOAD PUSH2 0x9CD SWAP2 SWAP1 PUSH2 0x62ED JUMP JUMPDEST PUSH1 0x40 MLOAD DUP1 SWAP2 SUB SWAP1 RETURN JUMPDEST CALLVALUE DUP1 ISZERO PUSH2 0x9E1 JUMPI PUSH0 PUSH0 REVERT JUMPDEST POP PUSH2 0x9FC PUSH1 0x4 DUP1 CALLDATASIZE SUB DUP2 ADD SWAP1 PUSH2 0x9F7 SWAP2 SWAP1 PUSH2 0x6186 JUMP JUMPDEST PUSH2 0x3018 JUMP JUMPDEST STOP JUMPDEST CALLVALUE DUP1 ISZERO PUSH2 0xA09 JUMPI PUSH0 PUSH0 REVERT JUMPDEST POP PUSH2 0xA24 PUSH1 0x4 DUP1 CALLDATASIZE SUB DUP2 ADD SWAP1 PUSH2 0xA1F SWAP2 SWAP1 PUSH2 0x6186 JUMP JUMPDEST PUSH2 0x32CD JUMP JUMPDEST STOP JUMPDEST CALLVALUE DUP1 ISZERO PUSH2 0xA31 JUMPI PUSH0 PUSH0 REVERT JUMPDEST POP PUSH2 0xA4C PUSH1 0x4 DUP1 CALLDATASIZE SUB DUP2 ADD SWAP1 PUSH2 0xA47 SWAP2 SWAP1 PUSH2 0x6306 JUMP JUMPDEST PUSH2 0x3582 JUMP JUMPDEST PUSH1 0x40 MLOAD PUSH2 0xA59 SWAP2 SWAP1 PUSH2 0x6069 JUMP JUMPDEST PUSH1 0x40 MLOAD DUP1 SWAP2 SUB SWAP1 RETURN JUMPDEST CALLVALUE DUP1 ISZERO PUSH2 0xA6D JUMPI PUSH0 PUSH0 REVERT JUMPDEST POP PUSH2 0xA76 PUSH2 0x3604 JUMP JUMPDEST PUSH1 0x40 MLOAD PUSH2 0xA83 SWAP2 SWAP1 PUSH2 0x6041 JUMP JUMPDEST PUSH1 0x40 MLOAD DUP1 SWAP2 SUB SWAP1 RETURN JUMPDEST CALLVALUE DUP1 ISZERO PUSH2 0xA97 JUMPI PUSH0 PUSH0 REVERT JUMPDEST POP PUSH2 0xAB2 PUSH1 0x4 DUP1 CALLDATASIZE SUB DUP2 ADD SWAP1 PUSH2 0xAAD SWAP2 SWAP1 PUSH2 0x6254 JUMP JUMPDEST PUSH2 0x3619 JUMP JUMPDEST STOP JUMPDEST CALLVALUE DUP1 ISZERO PUSH2 0xABF JUMPI PUSH0 PUSH0 REVERT JUMPDEST POP PUSH2 0xAC8 PUSH2 0x3756 JUMP JUMPDEST STOP JUMPDEST CALLVALUE DUP1 ISZERO PUSH2 0xAD5 JUMPI PUSH0 PUSH0 REVERT JUMPDEST POP PUSH2 0xADE PUSH2 0x3810 JUMP JUMPDEST PUSH1 0x40 MLOAD PUSH2 0xAEB SWAP2 SWAP1 PUSH2 0x6041 JUMP JUMPDEST PUSH1 0x40 MLOAD DUP1 SWAP2 SUB SWAP1 RETURN JUMPDEST CALLVALUE DUP1 ISZERO PUSH2 0xAFF JUMPI PUSH0 PUSH0 REVERT JUMPDEST POP PUSH2 0xB1A PUSH1 0x4 DUP1 CALLDATASIZE SUB DUP2 ADD SWAP1 PUSH2 0xB15 SWAP2 SWAP1 PUSH2 0x6186 JUMP JUMPDEST PUSH2 0x3825 JUMP JUMPDEST STOP JUMPDEST CALLVALUE DUP1 ISZERO PUSH2 0xB27 JUMPI PUSH0 PUSH0 REVERT JUMPDEST POP PUSH2 0xB30 PUSH2 0x3ADA JUMP JUMPDEST PUSH1 0x40 MLOAD PUSH2 0xB3D SWAP2 SWAP1 PUSH2 0x6041 JUMP JUMPDEST PUSH1 0x40 MLOAD DUP1 SWAP2 SUB SWAP1 RETURN JUMPDEST CALLVALUE DUP1 ISZERO PUSH2 0xB51 JUMPI PUSH0 PUSH0 REVERT JUMPDEST POP PUSH2 0xB6C PUSH1 0x4 DUP1 CALLDATASIZE SUB DUP2 ADD SWAP1 PUSH2 0xB67 SWAP2 SWAP1 PUSH2 0x6131 JUMP JUMPDEST PUSH2 0x3AEF JUMP JUMPDEST STOP JUMPDEST CALLVALUE DUP1 ISZERO PUSH2 0xB79 JUMPI PUSH0 PUSH0 REVERT JUMPDEST POP PUSH2 0xB82 PUSH2 0x3B71 JUMP JUMPDEST PUSH1 0x40 MLOAD PUSH2 0xB8F SWAP2 SWAP1 PUSH2 0x6041 JUMP JUMPDEST PUSH1 0x40 MLOAD DUP1 SWAP2 SUB SWAP1 RETURN JUMPDEST CALLVALUE DUP1 ISZERO PUSH2 0xBA3 JUMPI PUSH0 PUSH0 REVERT JUMPDEST POP PUSH2 0xBAC PUSH2 0x3B86 JUMP JUMPDEST PUSH1 0x40 MLOAD PUSH2 0xBB9 SWAP2 SWAP1 PUSH2 0x6069 JUMP JUMPDEST PUSH1 0x40 MLOAD DUP1 SWAP2 SUB SWAP1 RETURN JUMPDEST PUSH1 0x60 PUSH1 0x9 DUP1 SLOAD PUSH2 0xBD1 SWAP1 PUSH2 0x6371 JUMP JUMPDEST DUP1 PUSH1 0x1F ADD PUSH1 0x20 DUP1 SWAP2 DIV MUL PUSH1 0x20 ADD PUSH1 0x40 MLOAD SWAP1 DUP2 ADD PUSH1 0x40 MSTORE DUP1 SWAP3 SWAP2 SWAP1 DUP2 DUP2 MSTORE PUSH1 0x20 ADD DUP3 DUP1 SLOAD PUSH2 0xBFD SWAP1 PUSH2 0x6371 JUMP JUMPDEST DUP1 ISZERO PUSH2 0xC48 JUMPI DUP1 PUSH1 0x1F LT PUSH2 0xC1F JUMPI PUSH2 0x100 DUP1 DUP4 SLOAD DIV MUL DUP4 MSTORE SWAP2 PUSH1 0x20 ADD SWAP2 PUSH2 0xC48 JUMP JUMPDEST DUP3 ADD SWAP2 SWAP1 PUSH0 MSTORE PUSH1 0x20 PUSH0 KECCAK256 SWAP1 JUMPDEST DUP2 SLOAD DUP2 MSTORE SWAP1 PUSH1 0x1 ADD SWAP1 PUSH1 0x20 ADD DUP1 DUP4 GT PUSH2 0xC2B JUMPI DUP3 SWAP1 SUB PUSH1 0x1F AND DUP3 ADD SWAP2 JUMPDEST POP POP POP POP POP SWAP1 POP SWAP1 JUMP JUMPDEST PUSH0 PUSH2 0xC65 PUSH2 0xC5E PUSH2 0x3B8C JUMP JUMPDEST DUP5 DUP5 PUSH2 0x3B93 JUMP JUMPDEST PUSH1 0x1 SWAP1 POP SWAP3 SWAP2 POP POP JUMP JUMPDEST PUSH1 0x15 PUSH1 0x4 SWAP1 SLOAD SWAP1 PUSH2 0x100 EXP SWAP1 DIV PUSH3 0xFFFFFF AND DUP2 JUMP JUMPDEST PUSH0 PUSH1 0x8 SLOAD SWAP1 POP SWAP1 JUMP JUMPDEST PUSH0 PUSH1 0x6 SLOAD SWAP1 POP SWAP1 JUMP JUMPDEST PUSH0 PUSH2 0xCA2 DUP5 DUP5 DUP5 PUSH2 0x3D56 JUMP JUMPDEST PUSH2 0xD3E DUP5 PUSH2 0xCAE PUSH2 0x3B8C JUMP JUMPDEST DUP5 PUSH1 0x3 PUSH0 DUP10 PUSH20 0xFFFFFFFFFFFFFFFFFFFFFFFFFFFFFFFFFFFFFFFF AND PUSH20 0xFFFFFFFFFFFFFFFFFFFFFFFFFFFFFFFFFFFFFFFF AND DUP2 MSTORE PUSH1 0x20 ADD SWAP1 DUP2 MSTORE PUSH1 0x20 ADD PUSH0 KECCAK256 PUSH0 PUSH2 0xCF5 PUSH2 0x3B8C JUMP JUMPDEST PUSH20 0xFFFFFFFFFFFFFFFFFFFFFFFFFFFFFFFFFFFFFFFF AND PUSH20 0xFFFFFFFFFFFFFFFFFFFFFFFFFFFFFFFFFFFFFFFF AND DUP2 MSTORE PUSH1 0x20 ADD SWAP1 DUP2 MSTORE PUSH1 0x20 ADD PUSH0 KECCAK256 SLOAD PUSH2 0xD39 SWAP2 SWAP1 PUSH2 0x63CE JUMP JUMPDEST PUSH2 0x3B93 JUMP JUMPDEST PUSH1 0x1 SWAP1 POP SWAP4 SWAP3 POP POP POP JUMP JUMPDEST PUSH0 PUSH1 0x7 SLOAD DUP3 GT ISZERO PUSH2 0xD8F JUMPI PUSH1 0x40 MLOAD PUSH32 0x8C379A000000000000000000000000000000000000000000000000000000000 DUP2 MSTORE PUSH1 0x4 ADD PUSH2 0xD86 SWAP1 PUSH2 0x6471 JUMP JUMPDEST PUSH1 0x40 MLOAD DUP1 SWAP2 SUB SWAP1 REVERT JUMPDEST PUSH0 PUSH2 0xD98 PUSH2 0x41B9 JUMP JUMPDEST SWAP1 POP DUP1 DUP4 PUSH2 0xDA6 SWAP2 SWAP1 PUSH2 0x64BC JUMP JUMPDEST SWAP2 POP POP SWAP2 SWAP1 POP JUMP JUMPDEST PUSH0 PUSH0 PUSH1 0x14 SWAP1 SLOAD SWAP1 PUSH2 0x100 EXP SWAP1 DIV PUSH1 0xFF AND SWAP1 POP SWAP1 JUMP JUMPDEST PUSH2 0xDCB PUSH2 0x41DB JUMP JUMPDEST PUSH1 0x4 PUSH0 DUP3 PUSH20 0xFFFFFFFFFFFFFFFFFFFFFFFFFFFFFFFFFFFFFFFF AND PUSH20 0xFFFFFFFFFFFFFFFFFFFFFFFFFFFFFFFFFFFFFFFF AND DUP2 MSTORE PUSH1 0x20 ADD SWAP1 DUP2 MSTORE PUSH1 0x20 ADD PUSH0 KECCAK256 PUSH0 SWAP1 SLOAD SWAP1 PUSH2 0x100 EXP SWAP1 DIV PUSH1 0xFF AND PUSH2 0xE54 JUMPI PUSH1 0x40 MLOAD PUSH32 0x8C379A000000000000000000000000000000000000000000000000000000000 DUP2 MSTORE PUSH1 0x4 ADD PUSH2 0xE4B SWAP1 PUSH2 0x6536 JUMP JUMPDEST PUSH1 0x40 MLOAD DUP1 SWAP2 SUB SWAP1 REVERT JUMPDEST PUSH0 PUSH0 SWAP1 POP JUMPDEST PUSH1 0x5 DUP1 SLOAD SWAP1 POP DUP2 LT ISZERO PUSH2 0x1153 JUMPI DUP2 PUSH20 0xFFFFFFFFFFFFFFFFFFFFFFFFFFFFFFFFFFFFFFFF AND PUSH1 0x5 DUP3 DUP2 SLOAD DUP2 LT PUSH2 0xE91 JUMPI PUSH2 0xE90 PUSH2 0x6554 JUMP JUMPDEST JUMPDEST SWAP1 PUSH0 MSTORE PUSH1 0x20 PUSH0 KECCAK256 ADD PUSH0 SWAP1 SLOAD SWAP1 PUSH2 0x100 EXP SWAP1 DIV PUSH20 0xFFFFFFFFFFFFFFFFFFFFFFFFFFFFFFFFFFFFFFFF AND PUSH20 0xFFFFFFFFFFFFFFFFFFFFFFFFFFFFFFFFFFFFFFFF AND SUB PUSH2 0x1146 JUMPI PUSH0 PUSH1 0x1 PUSH0 DUP5 PUSH20 0xFFFFFFFFFFFFFFFFFFFFFFFFFFFFFFFFFFFFFFFF AND PUSH20 0xFFFFFFFFFFFFFFFFFFFFFFFFFFFFFFFFFFFFFFFF AND DUP2 MSTORE PUSH1 0x20 ADD SWAP1 DUP2 MSTORE PUSH1 0x20 ADD PUSH0 KECCAK256 SLOAD SWAP1 POP PUSH2 0xF1D PUSH2 0x41B9 JUMP JUMPDEST PUSH1 0x2 PUSH0 DUP6 PUSH20 0xFFFFFFFFFFFFFFFFFFFFFFFFFFFFFFFFFFFFFFFF AND PUSH20 0xFFFFFFFFFFFFFFFFFFFFFFFFFFFFFFFFFFFFFFFF AND DUP2 MSTORE PUSH1 0x20 ADD SWAP1 DUP2 MSTORE PUSH1 0x20 ADD PUSH0 KECCAK256 SLOAD PUSH2 0xF65 SWAP2 SWAP1 PUSH2 0x6581 JUMP JUMPDEST PUSH1 0x1 PUSH0 DUP6 PUSH20 0xFFFFFFFFFFFFFFFFFFFFFFFFFFFFFFFFFFFFFFFF AND PUSH20 0xFFFFFFFFFFFFFFFFFFFFFFFFFFFFFFFFFFFFFFFF AND DUP2 MSTORE PUSH1 0x20 ADD SWAP1 DUP2 MSTORE PUSH1 0x20 ADD PUSH0 KECCAK256 DUP2 SWAP1 SSTORE POP PUSH1 0x1 PUSH0 DUP5 PUSH20 0xFFFFFFFFFFFFFFFFFFFFFFFFFFFFFFFFFFFFFFFF AND PUSH20 0xFFFFFFFFFFFFFFFFFFFFFFFFFFFFFFFFFFFFFFFF AND DUP2 MSTORE PUSH1 0x20 ADD SWAP1 DUP2 MSTORE PUSH1 0x20 ADD PUSH0 KECCAK256 SLOAD DUP2 PUSH1 0x7 SLOAD PUSH2 0xFF2 SWAP2 SWAP1 PUSH2 0x63CE JUMP JUMPDEST PUSH2 0xFFC SWAP2 SWAP1 PUSH2 0x65C2 JUMP JUMPDEST PUSH1 0x7 DUP2 SWAP1 SSTORE POP PUSH0 PUSH1 0x4 PUSH0 DUP6 PUSH20 0xFFFFFFFFFFFFFFFFFFFFFFFFFFFFFFFFFFFFFFFF AND PUSH20 0xFFFFFFFFFFFFFFFFFFFFFFFFFFFFFFFFFFFFFFFF AND DUP2 MSTORE PUSH1 0x20 ADD SWAP1 DUP2 MSTORE PUSH1 0x20 ADD PUSH0 KECCAK256 PUSH0 PUSH2 0x100 EXP DUP2 SLOAD DUP2 PUSH1 0xFF MUL NOT AND SWAP1 DUP4 ISZERO ISZERO MUL OR SWAP1 SSTORE POP PUSH1 0x5 PUSH1 0x1 PUSH1 0x5 DUP1 SLOAD SWAP1 POP PUSH2 0x106A SWAP2 SWAP1 PUSH2 0x63CE JUMP JUMPDEST DUP2 SLOAD DUP2 LT PUSH2 0x107B JUMPI PUSH2 0x107A PUSH2 0x6554 JUMP JUMPDEST JUMPDEST SWAP1 PUSH0 MSTORE PUSH1 0x20 PUSH0 KECCAK256 ADD PUSH0 SWAP1 SLOAD SWAP1 PUSH2 0x100 EXP SWAP1 DIV PUSH20 0xFFFFFFFFFFFFFFFFFFFFFFFFFFFFFFFFFFFFFFFF AND PUSH1 0x5 DUP4 DUP2 SLOAD DUP2 LT PUSH2 0x10B7 JUMPI PUSH2 0x10B6 PUSH2 0x6554 JUMP JUMPDEST JUMPDEST SWAP1 PUSH0 MSTORE PUSH1 0x20 PUSH0 KECCAK256 ADD PUSH0 PUSH2 0x100 EXP DUP2 SLOAD DUP2 PUSH20 0xFFFFFFFFFFFFFFFFFFFFFFFFFFFFFFFFFFFFFFFF MUL NOT AND SWAP1 DUP4 PUSH20 0xFFFFFFFFFFFFFFFFFFFFFFFFFFFFFFFFFFFFFFFF AND MUL OR SWAP1 SSTORE POP PUSH1 0x5 DUP1 SLOAD DUP1 PUSH2 0x110E JUMPI PUSH2 0x110D PUSH2 0x65F5 JUMP JUMPDEST JUMPDEST PUSH1 0x1 SWAP1 SUB DUP2 DUP2 SWAP1 PUSH0 MSTORE PUSH1 0x20 PUSH0 KECCAK256 ADD PUSH0 PUSH2 0x100 EXP DUP2 SLOAD SWAP1 PUSH20 0xFFFFFFFFFFFFFFFFFFFFFFFFFFFFFFFFFFFFFFFF MUL NOT AND SWAP1 SSTORE SWAP1 SSTORE POP PUSH2 0x1153 JUMP JUMPDEST DUP1 DUP1 PUSH1 0x1 ADD SWAP2 POP POP PUSH2 0xE59 JUMP JUMPDEST POP POP JUMP JUMPDEST PUSH0 PUSH2 0x11F4 PUSH2 0x1163 PUSH2 0x3B8C JUMP JUMPDEST DUP5 DUP5 PUSH1 0x3 PUSH0 PUSH2 0x1170 PUSH2 0x3B8C JUMP JUMPDEST PUSH20 0xFFFFFFFFFFFFFFFFFFFFFFFFFFFFFFFFFFFFFFFF AND PUSH20 0xFFFFFFFFFFFFFFFFFFFFFFFFFFFFFFFFFFFFFFFF AND DUP2 MSTORE PUSH1 0x20 ADD SWAP1 DUP2 MSTORE PUSH1 0x20 ADD PUSH0 KECCAK256 PUSH0 DUP9 PUSH20 0xFFFFFFFFFFFFFFFFFFFFFFFFFFFFFFFFFFFFFFFF AND PUSH20 0xFFFFFFFFFFFFFFFFFFFFFFFFFFFFFFFFFFFFFFFF AND DUP2 MSTORE PUSH1 0x20 ADD SWAP1 DUP2 MSTORE PUSH1 0x20 ADD PUSH0 KECCAK256 SLOAD PUSH2 0x11EF SWAP2 SWAP1 PUSH2 0x65C2 JUMP JUMPDEST PUSH2 0x3B93 JUMP JUMPDEST PUSH1 0x1 SWAP1 POP SWAP3 SWAP2 POP POP JUMP JUMPDEST PUSH2 0x1206 PUSH2 0x41DB JUMP JUMPDEST PUSH3 0x30D40 PUSH1 0x15 PUSH1 0x19 SWAP1 SLOAD SWAP1 PUSH2 0x100 EXP SWAP1 DIV PUSH3 0xFFFFFF AND PUSH1 0x15 PUSH1 0x1 SWAP1 SLOAD SWAP1 PUSH2 0x100 EXP SWAP1 DIV PUSH3 0xFFFFFF AND PUSH1 0x15 PUSH1 0xD SWAP1 SLOAD SWAP1 PUSH2 0x100 EXP SWAP1 DIV PUSH3 0xFFFFFF AND PUSH1 0x15 PUSH1 0x7 SWAP1 SLOAD SWAP1 PUSH2 0x100 EXP SWAP1 DIV PUSH3 0xFFFFFF AND DUP7 PUSH2 0x125D SWAP2 SWAP1 PUSH2 0x6622 JUMP JUMPDEST PUSH2 0x1267 SWAP2 SWAP1 PUSH2 0x6622 JUMP JUMPDEST PUSH2 0x1271 SWAP2 SWAP1 PUSH2 0x6622 JUMP JUMPDEST PUSH2 0x127B SWAP2 SWAP1 PUSH2 0x6622 JUMP JUMPDEST PUSH3 0xFFFFFF AND GT ISZERO PUSH2 0x12C1 JUMPI PUSH1 0x40 MLOAD PUSH32 0x8C379A000000000000000000000000000000000000000000000000000000000 DUP2 MSTORE PUSH1 0x4 ADD PUSH2 0x12B8 SWAP1 PUSH2 0x66A2 JUMP JUMPDEST PUSH1 0x40 MLOAD DUP1 SWAP2 SUB SWAP1 REVERT JUMPDEST PUSH3 0x30D40 PUSH1 0x15 PUSH1 0x1C SWAP1 SLOAD SWAP1 PUSH2 0x100 EXP SWAP1 DIV PUSH3 0xFFFFFF AND PUSH1 0x15 PUSH1 0x4 SWAP1 SLOAD SWAP1 PUSH2 0x100 EXP SWAP1 DIV PUSH3 0xFFFFFF AND PUSH1 0x15 PUSH1 0x10 SWAP1 SLOAD SWAP1 PUSH2 0x100 EXP SWAP1 DIV PUSH3 0xFFFFFF AND PUSH1 0x15 PUSH1 0xA SWAP1 SLOAD SWAP1 PUSH2 0x100 EXP SWAP1 DIV PUSH3 0xFFFFFF AND DUP6 PUSH2 0x1318 SWAP2 SWAP1 PUSH2 0x6622 JUMP JUMPDEST PUSH2 0x1322 SWAP2 SWAP1 PUSH2 0x6622 JUMP JUMPDEST PUSH2 0x132C SWAP2 SWAP1 PUSH2 0x6622 JUMP JUMPDEST PUSH2 0x1336 SWAP2 SWAP1 PUSH2 0x6622 JUMP JUMPDEST PUSH3 0xFFFFFF AND GT ISZERO PUSH2 0x137C JUMPI PUSH1 0x40 MLOAD PUSH32 0x8C379A000000000000000000000000000000000000000000000000000000000 DUP2 MSTORE PUSH1 0x4 ADD PUSH2 0x1373 SWAP1 PUSH2 0x670A JUMP JUMPDEST PUSH1 0x40 MLOAD DUP1 SWAP2 SUB SWAP1 REVERT JUMPDEST PUSH3 0x249F0 DUP3 PUSH3 0xFFFFFF AND GT ISZERO PUSH2 0x13C7 JUMPI PUSH1 0x40 MLOAD PUSH32 0x8C379A000000000000000000000000000000000000000000000000000000000 DUP2 MSTORE PUSH1 0x4 ADD PUSH2 0x13BE SWAP1 PUSH2 0x6772 JUMP JUMPDEST PUSH1 0x40 MLOAD DUP1 SWAP2 SUB SWAP1 REVERT JUMPDEST PUSH3 0x249F0 DUP2 PUSH3 0xFFFFFF AND GT ISZERO PUSH2 0x1412 JUMPI PUSH1 0x40 MLOAD PUSH32 0x8C379A000000000000000000000000000000000000000000000000000000000 DUP2 MSTORE PUSH1 0x4 ADD PUSH2 0x1409 SWAP1 PUSH2 0x67DA JUMP JUMPDEST PUSH1 0x40 MLOAD DUP1 SWAP2 SUB SWAP1 REVERT JUMPDEST PUSH32 0xC239C020EC275D4A3E59D37954F59C061E7302D35A1B6BAD801059AAFE9631EE DUP3 DUP3 PUSH1 0x15 PUSH1 0x13 SWAP1 SLOAD SWAP1 PUSH2 0x100 EXP SWAP1 DIV PUSH3 0xFFFFFF AND PUSH1 0x15 PUSH1 0x16 SWAP1 SLOAD SWAP1 PUSH2 0x100 EXP SWAP1 DIV PUSH3 0xFFFFFF AND PUSH1 0x40 MLOAD PUSH2 0x1469 SWAP5 SWAP4 SWAP3 SWAP2 SWAP1 PUSH2 0x67F8 JUMP JUMPDEST PUSH1 0x40 MLOAD DUP1 SWAP2 SUB SWAP1 LOG1 DUP2 PUSH1 0x15 PUSH1 0x13 PUSH2 0x100 EXP DUP2 SLOAD DUP2 PUSH3 0xFFFFFF MUL NOT AND SWAP1 DUP4 PUSH3 0xFFFFFF AND MUL OR SWAP1 SSTORE POP DUP1 PUSH1 0x15 PUSH1 0x16 PUSH2 0x100 EXP DUP2 SLOAD DUP2 PUSH3 0xFFFFFF MUL NOT AND SWAP1 DUP4 PUSH3 0xFFFFFF AND MUL OR SWAP1 SSTORE POP POP POP JUMP JUMPDEST PUSH0 PUSH1 0x6 SLOAD DUP4 GT ISZERO PUSH2 0x14F9 JUMPI PUSH1 0x40 MLOAD PUSH32 0x8C379A000000000000000000000000000000000000000000000000000000000 DUP2 MSTORE PUSH1 0x4 ADD PUSH2 0x14F0 SWAP1 PUSH2 0x6885 JUMP JUMPDEST PUSH1 0x40 MLOAD DUP1 SWAP2 SUB SWAP1 REVERT JUMPDEST PUSH0 PUSH2 0x1502 PUSH2 0x41B9 JUMP JUMPDEST SWAP1 POP DUP3 PUSH2 0x1522 JUMPI PUSH0 DUP2 DUP6 PUSH2 0x1516 SWAP2 SWAP1 PUSH2 0x6581 JUMP JUMPDEST SWAP1 POP DUP1 SWAP3 POP POP POP PUSH2 0x1590 JUMP JUMPDEST PUSH0 PUSH0 PUSH0 PUSH0 PUSH0 PUSH2 0x1530 DUP10 PUSH2 0x4259 JUMP JUMPDEST SWAP5 POP SWAP5 POP SWAP5 POP SWAP5 POP SWAP5 POP PUSH0 DUP2 DUP4 DUP6 DUP8 DUP10 DUP15 PUSH2 0x154B SWAP2 SWAP1 PUSH2 0x63CE JUMP JUMPDEST PUSH2 0x1555 SWAP2 SWAP1 PUSH2 0x63CE JUMP JUMPDEST PUSH2 0x155F SWAP2 SWAP1 PUSH2 0x63CE JUMP JUMPDEST PUSH2 0x1569 SWAP2 SWAP1 PUSH2 0x63CE JUMP JUMPDEST PUSH2 0x1573 SWAP2 SWAP1 PUSH2 0x63CE JUMP JUMPDEST SWAP1 POP PUSH0 DUP8 DUP3 PUSH2 0x1582 SWAP2 SWAP1 PUSH2 0x6581 JUMP JUMPDEST SWAP1 POP DUP1 SWAP9 POP POP POP POP POP POP POP POP POP JUMPDEST SWAP3 SWAP2 POP POP JUMP JUMPDEST PUSH1 0x17 PUSH0 SWAP1 SLOAD SWAP1 PUSH2 0x100 EXP SWAP1 DIV PUSH20 0xFFFFFFFFFFFFFFFFFFFFFFFFFFFFFFFFFFFFFFFF AND DUP2 JUMP JUMPDEST PUSH2 0x15C3 PUSH2 0x41DB JUMP JUMPDEST PUSH1 0x4 PUSH0 DUP3 PUSH20 0xFFFFFFFFFFFFFFFFFFFFFFFFFFFFFFFFFFFFFFFF AND PUSH20 0xFFFFFFFFFFFFFFFFFFFFFFFFFFFFFFFFFFFFFFFF AND DUP2 MSTORE PUSH1 0x20 ADD SWAP1 DUP2 MSTORE PUSH1 0x20 ADD PUSH0 KECCAK256 PUSH0 SWAP1 SLOAD SWAP1 PUSH2 0x100 EXP SWAP1 DIV PUSH1 0xFF AND ISZERO PUSH2 0x164D JUMPI PUSH1 0x40 MLOAD PUSH32 0x8C379A000000000000000000000000000000000000000000000000000000000 DUP2 MSTORE PUSH1 0x4 ADD PUSH2 0x1644 SWAP1 PUSH2 0x68ED JUMP JUMPDEST PUSH1 0x40 MLOAD DUP1 SWAP2 SUB SWAP1 REVERT JUMPDEST PUSH1 0x32 PUSH1 0x1 PUSH1 0x5 DUP1 SLOAD SWAP1 POP PUSH2 0x1661 SWAP2 SWAP1 PUSH2 0x65C2 JUMP JUMPDEST GT ISZERO PUSH2 0x16A2 JUMPI PUSH1 0x40 MLOAD PUSH32 0x8C379A000000000000000000000000000000000000000000000000000000000 DUP2 MSTORE PUSH1 0x4 ADD PUSH2 0x1699 SWAP1 PUSH2 0x69A1 JUMP JUMPDEST PUSH1 0x40 MLOAD DUP1 SWAP2 SUB SWAP1 REVERT JUMPDEST PUSH0 PUSH1 0x1 PUSH0 DUP4 PUSH20 0xFFFFFFFFFFFFFFFFFFFFFFFFFFFFFFFFFFFFFFFF AND PUSH20 0xFFFFFFFFFFFFFFFFFFFFFFFFFFFFFFFFFFFFFFFF AND DUP2 MSTORE PUSH1 0x20 ADD SWAP1 DUP2 MSTORE PUSH1 0x20 ADD PUSH0 KECCAK256 SLOAD GT ISZERO PUSH2 0x176F JUMPI PUSH2 0x172D PUSH1 0x1 PUSH0 DUP4 PUSH20 0xFFFFFFFFFFFFFFFFFFFFFFFFFFFFFFFFFFFFFFFF AND PUSH20 0xFFFFFFFFFFFFFFFFFFFFFFFFFFFFFFFFFFFFFFFF AND DUP2 MSTORE PUSH1 0x20 ADD SWAP1 DUP2 MSTORE PUSH1 0x20 ADD PUSH0 KECCAK256 SLOAD PUSH2 0xD49 JUMP JUMPDEST PUSH1 0x2 PUSH0 DUP4 PUSH20 0xFFFFFFFFFFFFFFFFFFFFFFFFFFFFFFFFFFFFFFFF AND PUSH20 0xFFFFFFFFFFFFFFFFFFFFFFFFFFFFFFFFFFFFFFFF AND DUP2 MSTORE PUSH1 0x20 ADD SWAP1 DUP2 MSTORE PUSH1 0x20 ADD PUSH0 KECCAK256 DUP2 SWAP1 SSTORE POP JUMPDEST PUSH1 0x1 PUSH1 0x4 PUSH0 DUP4 PUSH20 0xFFFFFFFFFFFFFFFFFFFFFFFFFFFFFFFFFFFFFFFF AND PUSH20 0xFFFFFFFFFFFFFFFFFFFFFFFFFFFFFFFFFFFFFFFF AND DUP2 MSTORE PUSH1 0x20 ADD SWAP1 DUP2 MSTORE PUSH1 0x20 ADD PUSH0 KECCAK256 PUSH0 PUSH2 0x100 EXP DUP2 SLOAD DUP2 PUSH1 0xFF MUL NOT AND SWAP1 DUP4 ISZERO ISZERO MUL OR SWAP1 SSTORE POP PUSH1 0x5 DUP2 SWAP1 DUP1 PUSH1 0x1 DUP2 SLOAD ADD DUP1 DUP3 SSTORE DUP1 SWAP2 POP POP PUSH1 0x1 SWAP1 SUB SWAP1 PUSH0 MSTORE PUSH1 0x20 PUSH0 KECCAK256 ADD PUSH0 SWAP1 SWAP2 SWAP1 SWAP2 SWAP1 SWAP2 PUSH2 0x100 EXP DUP2 SLOAD DUP2 PUSH20 0xFFFFFFFFFFFFFFFFFFFFFFFFFFFFFFFFFFFFFFFF MUL NOT AND SWAP1 DUP4 PUSH20 0xFFFFFFFFFFFFFFFFFFFFFFFFFFFFFFFFFFFFFFFF AND MUL OR SWAP1 SSTORE POP POP JUMP JUMPDEST PUSH1 0x1B PUSH1 0x20 MSTORE DUP1 PUSH0 MSTORE PUSH1 0x40 PUSH0 KECCAK256 PUSH0 SWAP2 POP SLOAD SWAP1 PUSH2 0x100 EXP SWAP1 DIV PUSH1 0xFF AND DUP2 JUMP JUMPDEST PUSH1 0x15 PUSH1 0x16 SWAP1 SLOAD SWAP1 PUSH2 0x100 EXP SWAP1 DIV PUSH3 0xFFFFFF AND DUP2 JUMP JUMPDEST PUSH1 0x15 PUSH1 0x13 SWAP1 SLOAD SWAP1 PUSH2 0x100 EXP SWAP1 DIV PUSH3 0xFFFFFF AND DUP2 JUMP JUMPDEST PUSH0 PUSH1 0x4 PUSH0 DUP4 PUSH20 0xFFFFFFFFFFFFFFFFFFFFFFFFFFFFFFFFFFFFFFFF AND PUSH20 0xFFFFFFFFFFFFFFFFFFFFFFFFFFFFFFFFFFFFFFFF AND DUP2 MSTORE PUSH1 0x20 ADD SWAP1 DUP2 MSTORE PUSH1 0x20 ADD PUSH0 KECCAK256 PUSH0 SWAP1 SLOAD SWAP1 PUSH2 0x100 EXP SWAP1 DIV PUSH1 0xFF AND ISZERO PUSH2 0x1903 JUMPI PUSH1 0x2 PUSH0 DUP4 PUSH20 0xFFFFFFFFFFFFFFFFFFFFFFFFFFFFFFFFFFFFFFFF AND PUSH20 0xFFFFFFFFFFFFFFFFFFFFFFFFFFFFFFFFFFFFFFFF AND DUP2 MSTORE PUSH1 0x20 ADD SWAP1 DUP2 MSTORE PUSH1 0x20 ADD PUSH0 KECCAK256 SLOAD SWAP1 POP PUSH2 0x194C JUMP JUMPDEST PUSH2 0x1949 PUSH1 0x1 PUSH0 DUP5 PUSH20 0xFFFFFFFFFFFFFFFFFFFFFFFFFFFFFFFFFFFFFFFF AND PUSH20 0xFFFFFFFFFFFFFFFFFFFFFFFFFFFFFFFFFFFFFFFF AND DUP2 MSTORE PUSH1 0x20 ADD SWAP1 DUP2 MSTORE PUSH1 0x20 ADD PUSH0 KECCAK256 SLOAD PUSH2 0xD49 JUMP JUMPDEST SWAP1 POP JUMPDEST SWAP2 SWAP1 POP JUMP JUMPDEST PUSH2 0x1959 PUSH2 0x41DB JUMP JUMPDEST PUSH2 0x1962 PUSH0 PUSH2 0x42B7 JUMP JUMPDEST JUMP JUMPDEST PUSH2 0x196C PUSH2 0x41DB JUMP JUMPDEST PUSH0 DUP2 GT PUSH2 0x19AE JUMPI PUSH1 0x40 MLOAD PUSH32 0x8C379A000000000000000000000000000000000000000000000000000000000 DUP2 MSTORE PUSH1 0x4 ADD PUSH2 0x19A5 SWAP1 PUSH2 0x6A09 JUMP JUMPDEST PUSH1 0x40 MLOAD DUP1 SWAP2 SUB SWAP1 REVERT JUMPDEST PUSH32 0x772A06BC936EB749842080C472181E970CD4F23BD1AB7D0B84A80AEC26910434 DUP2 PUSH1 0x18 SLOAD PUSH1 0x40 MLOAD PUSH2 0x19E1 SWAP3 SWAP2 SWAP1 PUSH2 0x6A27 JUMP JUMPDEST PUSH1 0x40 MLOAD DUP1 SWAP2 SUB SWAP1 LOG1 DUP1 PUSH1 0x18 DUP2 SWAP1 SSTORE POP POP JUMP JUMPDEST PUSH1 0x16 PUSH0 SWAP1 SLOAD SWAP1 PUSH2 0x100 EXP SWAP1 DIV PUSH20 0xFFFFFFFFFFFFFFFFFFFFFFFFFFFFFFFFFFFFFFFF AND DUP2 JUMP JUMPDEST PUSH1 0x15 PUSH1 0x10 SWAP1 SLOAD SWAP1 PUSH2 0x100 EXP SWAP1 DIV PUSH3 0xFFFFFF AND DUP2 JUMP JUMPDEST PUSH2 0x1A35 PUSH2 0x41DB JUMP JUMPDEST PUSH0 PUSH20 0xFFFFFFFFFFFFFFFFFFFFFFFFFFFFFFFFFFFFFFFF AND DUP2 PUSH20 0xFFFFFFFFFFFFFFFFFFFFFFFFFFFFFFFFFFFFFFFF AND SUB PUSH2 0x1AA3 JUMPI PUSH1 0x40 MLOAD PUSH32 0x8C379A000000000000000000000000000000000000000000000000000000000 DUP2 MSTORE PUSH1 0x4 ADD PUSH2 0x1A9A SWAP1 PUSH2 0x6A98 JUMP JUMPDEST PUSH1 0x40 MLOAD DUP1 SWAP2 SUB SWAP1 REVERT JUMPDEST ADDRESS PUSH20 0xFFFFFFFFFFFFFFFFFFFFFFFFFFFFFFFFFFFFFFFF AND DUP2 PUSH20 0xFFFFFFFFFFFFFFFFFFFFFFFFFFFFFFFFFFFFFFFF AND SUB PUSH2 0x1B11 JUMPI PUSH1 0x40 MLOAD PUSH32 0x8C379A000000000000000000000000000000000000000000000000000000000 DUP2 MSTORE PUSH1 0x4 ADD PUSH2 0x1B08 SWAP1 PUSH2 0x6B26 JUMP JUMPDEST PUSH1 0x40 MLOAD DUP1 SWAP2 SUB SWAP1 REVERT JUMPDEST DUP1 PUSH20 0xFFFFFFFFFFFFFFFFFFFFFFFFFFFFFFFFFFFFFFFF AND PUSH1 0x16 PUSH0 SWAP1 SLOAD SWAP1 PUSH2 0x100 EXP SWAP1 DIV PUSH20 0xFFFFFFFFFFFFFFFFFFFFFFFFFFFFFFFFFFFFFFFF AND PUSH20 0xFFFFFFFFFFFFFFFFFFFFFFFFFFFFFFFFFFFFFFFF AND SUB PUSH2 0x1BA0 JUMPI PUSH1 0x40 MLOAD PUSH32 0x8C379A000000000000000000000000000000000000000000000000000000000 DUP2 MSTORE PUSH1 0x4 ADD PUSH2 0x1B97 SWAP1 PUSH2 0x6BB4 JUMP JUMPDEST PUSH1 0x40 MLOAD DUP1 SWAP2 SUB SWAP1 REVERT JUMPDEST PUSH1 0x17 PUSH0 SWAP1 SLOAD SWAP1 PUSH2 0x100 EXP SWAP1 DIV PUSH20 0xFFFFFFFFFFFFFFFFFFFFFFFFFFFFFFFFFFFFFFFF AND PUSH20 0xFFFFFFFFFFFFFFFFFFFFFFFFFFFFFFFFFFFFFFFF AND DUP2 PUSH20 0xFFFFFFFFFFFFFFFFFFFFFFFFFFFFFFFFFFFFFFFF AND PUSH32 0x79A52CBEC002EF70283103EB4140713100276944FCA2819713130141D04DF183 PUSH1 0x40 MLOAD PUSH1 0x40 MLOAD DUP1 SWAP2 SUB SWAP1 LOG3 DUP1 PUSH1 0x17 PUSH0 PUSH2 0x100 EXP DUP2 SLOAD DUP2 PUSH20 0xFFFFFFFFFFFFFFFFFFFFFFFFFFFFFFFFFFFFFFFF MUL NOT AND SWAP1 DUP4 PUSH20 0xFFFFFFFFFFFFFFFFFFFFFFFFFFFFFFFFFFFFFFFF AND MUL OR SWAP1 SSTORE POP PUSH1 0x1 PUSH1 0x1B PUSH0 DUP4 PUSH20 0xFFFFFFFFFFFFFFFFFFFFFFFFFFFFFFFFFFFFFFFF AND PUSH20 0xFFFFFFFFFFFFFFFFFFFFFFFFFFFFFFFFFFFFFFFF AND DUP2 MSTORE PUSH1 0x20 ADD SWAP1 DUP2 MSTORE PUSH1 0x20 ADD PUSH0 KECCAK256 PUSH0 PUSH2 0x100 EXP DUP2 SLOAD DUP2 PUSH1 0xFF MUL NOT AND SWAP1 DUP4 ISZERO ISZERO MUL OR SWAP1 SSTORE POP POP JUMP JUMPDEST PUSH2 0x1CBB PUSH2 0x41DB JUMP JUMPDEST PUSH3 0x30D40 PUSH1 0x15 PUSH1 0x19 SWAP1 SLOAD SWAP1 PUSH2 0x100 EXP SWAP1 DIV PUSH3 0xFFFFFF AND PUSH1 0x15 PUSH1 0x13 SWAP1 SLOAD SWAP1 PUSH2 0x100 EXP SWAP1 DIV PUSH3 0xFFFFFF AND PUSH1 0x15 PUSH1 0xD SWAP1 SLOAD SWAP1 PUSH2 0x100 EXP SWAP1 DIV PUSH3 0xFFFFFF AND PUSH1 0x15 PUSH1 0x7 SWAP1 SLOAD SWAP1 PUSH2 0x100 EXP SWAP1 DIV PUSH3 0xFFFFFF AND DUP7 PUSH2 0x1D12 SWAP2 SWAP1 PUSH2 0x6622 JUMP JUMPDEST PUSH2 0x1D1C SWAP2 SWAP1 PUSH2 0x6622 JUMP JUMPDEST PUSH2 0x1D26 SWAP2 SWAP1 PUSH2 0x6622 JUMP JUMPDEST PUSH2 0x1D30 SWAP2 SWAP1 PUSH2 0x6622 JUMP JUMPDEST PUSH3 0xFFFFFF AND GT ISZERO PUSH2 0x1D76 JUMPI PUSH1 0x40 MLOAD PUSH32 0x8C379A000000000000000000000000000000000000000000000000000000000 DUP2 MSTORE PUSH1 0x4 ADD PUSH2 0x1D6D SWAP1 PUSH2 0x66A2 JUMP JUMPDEST PUSH1 0x40 MLOAD DUP1 SWAP2 SUB SWAP1 REVERT JUMPDEST PUSH3 0x30D40 PUSH1 0x15 PUSH1 0x1C SWAP1 SLOAD SWAP1 PUSH2 0x100 EXP SWAP1 DIV PUSH3 0xFFFFFF AND PUSH1 0x15 PUSH1 0x16 SWAP1 SLOAD SWAP1 PUSH2 0x100 EXP SWAP1 DIV PUSH3 0xFFFFFF AND PUSH1 0x15 PUSH1 0x10 SWAP1 SLOAD SWAP1 PUSH2 0x100 EXP SWAP1 DIV PUSH3 0xFFFFFF AND PUSH1 0x15 PUSH1 0xA SWAP1 SLOAD SWAP1 PUSH2 0x100 EXP SWAP1 DIV PUSH3 0xFFFFFF AND DUP6 PUSH2 0x1DCD SWAP2 SWAP1 PUSH2 0x6622 JUMP JUMPDEST PUSH2 0x1DD7 SWAP2 SWAP1 PUSH2 0x6622 JUMP JUMPDEST PUSH2 0x1DE1 SWAP2 SWAP1 PUSH2 0x6622 JUMP JUMPDEST PUSH2 0x1DEB SWAP2 SWAP1 PUSH2 0x6622 JUMP JUMPDEST PUSH3 0xFFFFFF AND GT ISZERO PUSH2 0x1E31 JUMPI PUSH1 0x40 MLOAD PUSH32 0x8C379A000000000000000000000000000000000000000000000000000000000 DUP2 MSTORE PUSH1 0x4 ADD PUSH2 0x1E28 SWAP1 PUSH2 0x670A JUMP JUMPDEST PUSH1 0x40 MLOAD DUP1 SWAP2 SUB SWAP1 REVERT JUMPDEST PUSH3 0x249F0 DUP3 PUSH3 0xFFFFFF AND GT ISZERO PUSH2 0x1E7C JUMPI PUSH1 0x40 MLOAD PUSH32 0x8C379A000000000000000000000000000000000000000000000000000000000 DUP2 MSTORE PUSH1 0x4 ADD PUSH2 0x1E73 SWAP1 PUSH2 0x6772 JUMP JUMPDEST PUSH1 0x40 MLOAD DUP1 SWAP2 SUB SWAP1 REVERT JUMPDEST PUSH3 0x249F0 DUP2 PUSH3 0xFFFFFF AND GT ISZERO PUSH2 0x1EC7 JUMPI PUSH1 0x40 MLOAD PUSH32 0x8C379A000000000000000000000000000000000000000000000000000000000 DUP2 MSTORE PUSH1 0x4 ADD PUSH2 0x1EBE SWAP1 PUSH2 0x67DA JUMP JUMPDEST PUSH1 0x40 MLOAD DUP1 SWAP2 SUB SWAP1 REVERT JUMPDEST PUSH32 0x2E7D9780EC398C47872EAB5651BA43F0FA44FFED738321577E0DB663FE8A05A5 DUP3 DUP3 PUSH1 0x15 PUSH1 0x1 SWAP1 SLOAD SWAP1 PUSH2 0x100 EXP SWAP1 DIV PUSH3 0xFFFFFF AND PUSH1 0x15 PUSH1 0x4 SWAP1 SLOAD SWAP1 PUSH2 0x100 EXP SWAP1 DIV PUSH3 0xFFFFFF AND PUSH1 0x40 MLOAD PUSH2 0x1F1E SWAP5 SWAP4 SWAP3 SWAP2 SWAP1 PUSH2 0x67F8 JUMP JUMPDEST PUSH1 0x40 MLOAD DUP1 SWAP2 SUB SWAP1 LOG1 DUP2 PUSH1 0x15 PUSH1 0x1 PUSH2 0x100 EXP DUP2 SLOAD DUP2 PUSH3 0xFFFFFF MUL NOT AND SWAP1 DUP4 PUSH3 0xFFFFFF AND MUL OR SWAP1 SSTORE POP DUP1 PUSH1 0x15 PUSH1 0x4 PUSH2 0x100 EXP DUP2 SLOAD DUP2 PUSH3 0xFFFFFF MUL NOT AND SWAP1 DUP4 PUSH3 0xFFFFFF AND MUL OR SWAP1 SSTORE POP POP POP JUMP JUMPDEST PUSH1 0x1A PUSH0 SWAP1 SLOAD SWAP1 PUSH2 0x100 EXP SWAP1 DIV PUSH20 0xFFFFFFFFFFFFFFFFFFFFFFFFFFFFFFFFFFFFFFFF AND DUP2 JUMP JUMPDEST PUSH0 PUSH1 0x4 PUSH0 DUP4 PUSH20 0xFFFFFFFFFFFFFFFFFFFFFFFFFFFFFFFFFFFFFFFF AND PUSH20 0xFFFFFFFFFFFFFFFFFFFFFFFFFFFFFFFFFFFFFFFF AND DUP2 MSTORE PUSH1 0x20 ADD SWAP1 DUP2 MSTORE PUSH1 0x20 ADD PUSH0 KECCAK256 PUSH0 SWAP1 SLOAD SWAP1 PUSH2 0x100 EXP SWAP1 DIV PUSH1 0xFF AND SWAP1 POP SWAP2 SWAP1 POP JUMP JUMPDEST PUSH2 0x1FE7 PUSH2 0x41DB JUMP JUMPDEST DUP1 PUSH20 0xFFFFFFFFFFFFFFFFFFFFFFFFFFFFFFFFFFFFFFFF AND ADDRESS PUSH20 0xFFFFFFFFFFFFFFFFFFFFFFFFFFFFFFFFFFFFFFFF AND SUB PUSH2 0x2055 JUMPI PUSH1 0x40 MLOAD PUSH32 0x8C379A000000000000000000000000000000000000000000000000000000000 DUP2 MSTORE PUSH1 0x4 ADD PUSH2 0x204C SWAP1 PUSH2 0x6C1C JUMP JUMPDEST PUSH1 0x40 MLOAD DUP1 SWAP2 SUB SWAP1 REVERT JUMPDEST PUSH2 0x20FE PUSH2 0x2060 PUSH2 0x2101 JUMP JUMPDEST DUP3 PUSH20 0xFFFFFFFFFFFFFFFFFFFFFFFFFFFFFFFFFFFFFFFF AND PUSH4 0x70A08231 ADDRESS PUSH1 0x40 MLOAD DUP3 PUSH4 0xFFFFFFFF AND PUSH1 0xE0 SHL DUP2 MSTORE PUSH1 0x4 ADD PUSH2 0x2099 SWAP2 SWAP1 PUSH2 0x623B JUMP JUMPDEST PUSH1 0x20 PUSH1 0x40 MLOAD DUP1 DUP4 SUB DUP2 DUP7 GAS STATICCALL ISZERO DUP1 ISZERO PUSH2 0x20B4 JUMPI RETURNDATASIZE PUSH0 PUSH0 RETURNDATACOPY RETURNDATASIZE PUSH0 REVERT JUMPDEST POP POP POP POP PUSH1 0x40 MLOAD RETURNDATASIZE PUSH1 0x1F NOT PUSH1 0x1F DUP3 ADD AND DUP3 ADD DUP1 PUSH1 0x40 MSTORE POP DUP2 ADD SWAP1 PUSH2 0x20D8 SWAP2 SWAP1 PUSH2 0x6C4E JUMP JUMPDEST DUP4 PUSH20 0xFFFFFFFFFFFFFFFFFFFFFFFFFFFFFFFFFFFFFFFF AND PUSH2 0x4378 SWAP1 SWAP3 SWAP2 SWAP1 PUSH4 0xFFFFFFFF AND JUMP JUMPDEST POP JUMP JUMPDEST PUSH0 PUSH0 PUSH0 SWAP1 SLOAD SWAP1 PUSH2 0x100 EXP SWAP1 DIV PUSH20 0xFFFFFFFFFFFFFFFFFFFFFFFFFFFFFFFFFFFFFFFF AND SWAP1 POP SWAP1 JUMP JUMPDEST PUSH0 PUSH1 0x2 PUSH8 0xFFFFFFFFFFFFFFFF DUP2 GT ISZERO PUSH2 0x2144 JUMPI PUSH2 0x2143 PUSH2 0x6C79 JUMP JUMPDEST JUMPDEST PUSH1 0x40 MLOAD SWAP1 DUP1 DUP3 MSTORE DUP1 PUSH1 0x20 MUL PUSH1 0x20 ADD DUP3 ADD PUSH1 0x40 MSTORE DUP1 ISZERO PUSH2 0x2172 JUMPI DUP2 PUSH1 0x20 ADD PUSH1 0x20 DUP3 MUL DUP1 CALLDATASIZE DUP4 CALLDATACOPY DUP1 DUP3 ADD SWAP2 POP POP SWAP1 POP JUMPDEST POP SWAP1 POP PUSH1 0x19 PUSH0 SWAP1 SLOAD SWAP1 PUSH2 0x100 EXP SWAP1 DIV PUSH20 0xFFFFFFFFFFFFFFFFFFFFFFFFFFFFFFFFFFFFFFFF AND PUSH20 0xFFFFFFFFFFFFFFFFFFFFFFFFFFFFFFFFFFFFFFFF AND PUSH4 0xAD5C4648 PUSH1 0x40 MLOAD DUP2 PUSH4 0xFFFFFFFF AND PUSH1 0xE0 SHL DUP2 MSTORE PUSH1 0x4 ADD PUSH1 0x20 PUSH1 0x40 MLOAD DUP1 DUP4 SUB DUP2 DUP7 GAS STATICCALL ISZERO DUP1 ISZERO PUSH2 0x21DF JUMPI RETURNDATASIZE PUSH0 PUSH0 RETURNDATACOPY RETURNDATASIZE PUSH0 REVERT JUMPDEST POP POP POP POP PUSH1 0x40 MLOAD RETURNDATASIZE PUSH1 0x1F NOT PUSH1 0x1F DUP3 ADD AND DUP3 ADD DUP1 PUSH1 0x40 MSTORE POP DUP2 ADD SWAP1 PUSH2 0x2203 SWAP2 SWAP1 PUSH2 0x6CBA JUMP JUMPDEST DUP2 PUSH0 DUP2 MLOAD DUP2 LT PUSH2 0x2216 JUMPI PUSH2 0x2215 PUSH2 0x6554 JUMP JUMPDEST JUMPDEST PUSH1 0x20 MUL PUSH1 0x20 ADD ADD SWAP1 PUSH20 0xFFFFFFFFFFFFFFFFFFFFFFFFFFFFFFFFFFFFFFFF AND SWAP1 DUP2 PUSH20 0xFFFFFFFFFFFFFFFFFFFFFFFFFFFFFFFFFFFFFFFF AND DUP2 MSTORE POP POP ADDRESS DUP2 PUSH1 0x1 DUP2 MLOAD DUP2 LT PUSH2 0x2265 JUMPI PUSH2 0x2264 PUSH2 0x6554 JUMP JUMPDEST JUMPDEST PUSH1 0x20 MUL PUSH1 0x20 ADD ADD SWAP1 PUSH20 0xFFFFFFFFFFFFFFFFFFFFFFFFFFFFFFFFFFFFFFFF AND SWAP1 DUP2 PUSH20 0xFFFFFFFFFFFFFFFFFFFFFFFFFFFFFFFFFFFFFFFF AND DUP2 MSTORE POP POP PUSH1 0x19 PUSH0 SWAP1 SLOAD SWAP1 PUSH2 0x100 EXP SWAP1 DIV PUSH20 0xFFFFFFFFFFFFFFFFFFFFFFFFFFFFFFFFFFFFFFFF AND PUSH20 0xFFFFFFFFFFFFFFFFFFFFFFFFFFFFFFFFFFFFFFFF AND PUSH4 0xB6F9DE95 CALLVALUE PUSH0 DUP5 PUSH1 0x17 PUSH0 SWAP1 SLOAD SWAP1 PUSH2 0x100 EXP SWAP1 DIV PUSH20 0xFFFFFFFFFFFFFFFFFFFFFFFFFFFFFFFFFFFFFFFF AND TIMESTAMP PUSH1 0x40 MLOAD DUP7 PUSH4 0xFFFFFFFF AND PUSH1 0xE0 SHL DUP2 MSTORE PUSH1 0x4 ADD PUSH2 0x2321 SWAP5 SWAP4 SWAP3 SWAP2 SWAP1 PUSH2 0x6DD5 JUMP JUMPDEST PUSH0 PUSH1 0x40 MLOAD DUP1 DUP4 SUB DUP2 DUP6 DUP9 DUP1 EXTCODESIZE ISZERO DUP1 ISZERO PUSH2 0x2338 JUMPI PUSH0 PUSH0 REVERT JUMPDEST POP GAS CALL ISZERO DUP1 ISZERO PUSH2 0x234A JUMPI RETURNDATASIZE PUSH0 PUSH0 RETURNDATACOPY RETURNDATASIZE PUSH0 REVERT JUMPDEST POP POP POP POP POP PUSH1 0x4 PUSH0 PUSH1 0x17 PUSH0 SWAP1 SLOAD SWAP1 PUSH2 0x100 EXP SWAP1 DIV PUSH20 0xFFFFFFFFFFFFFFFFFFFFFFFFFFFFFFFFFFFFFFFF AND PUSH20 0xFFFFFFFFFFFFFFFFFFFFFFFFFFFFFFFFFFFFFFFF AND PUSH20 0xFFFFFFFFFFFFFFFFFFFFFFFFFFFFFFFFFFFFFFFF AND DUP2 MSTORE PUSH1 0x20 ADD SWAP1 DUP2 MSTORE PUSH1 0x20 ADD PUSH0 KECCAK256 PUSH0 SWAP1 SLOAD SWAP1 PUSH2 0x100 EXP SWAP1 DIV PUSH1 0xFF AND ISZERO PUSH2 0x26B9 JUMPI PUSH1 0x2 PUSH0 PUSH1 0x17 PUSH0 SWAP1 SLOAD SWAP1 PUSH2 0x100 EXP SWAP1 DIV PUSH20 0xFFFFFFFFFFFFFFFFFFFFFFFFFFFFFFFFFFFFFFFF AND PUSH20 0xFFFFFFFFFFFFFFFFFFFFFFFFFFFFFFFFFFFFFFFF AND PUSH20 0xFFFFFFFFFFFFFFFFFFFFFFFFFFFFFFFFFFFFFFFF AND DUP2 MSTORE PUSH1 0x20 ADD SWAP1 DUP2 MSTORE PUSH1 0x20 ADD PUSH0 KECCAK256 SLOAD PUSH1 0x6 SLOAD PUSH2 0x242B SWAP2 SWAP1 PUSH2 0x63CE JUMP JUMPDEST PUSH1 0x6 DUP2 SWAP1 SSTORE POP PUSH1 0x1 PUSH0 PUSH1 0x17 PUSH0 SWAP1 SLOAD SWAP1 PUSH2 0x100 EXP SWAP1 DIV PUSH20 0xFFFFFFFFFFFFFFFFFFFFFFFFFFFFFFFFFFFFFFFF AND PUSH20 0xFFFFFFFFFFFFFFFFFFFFFFFFFFFFFFFFFFFFFFFF AND PUSH20 0xFFFFFFFFFFFFFFFFFFFFFFFFFFFFFFFFFFFFFFFF AND DUP2 MSTORE PUSH1 0x20 ADD SWAP1 DUP2 MSTORE PUSH1 0x20 ADD PUSH0 KECCAK256 SLOAD PUSH1 0x7 SLOAD PUSH2 0x249D SWAP2 SWAP1 PUSH2 0x63CE JUMP JUMPDEST PUSH1 0x7 DUP2 SWAP1 SSTORE POP PUSH0 PUSH1 0x2 PUSH0 PUSH1 0x17 PUSH0 SWAP1 SLOAD SWAP1 PUSH2 0x100 EXP SWAP1 DIV PUSH20 0xFFFFFFFFFFFFFFFFFFFFFFFFFFFFFFFFFFFFFFFF AND PUSH20 0xFFFFFFFFFFFFFFFFFFFFFFFFFFFFFFFFFFFFFFFF AND PUSH20 0xFFFFFFFFFFFFFFFFFFFFFFFFFFFFFFFFFFFFFFFF AND DUP2 MSTORE PUSH1 0x20 ADD SWAP1 DUP2 MSTORE PUSH1 0x20 ADD PUSH0 KECCAK256 SLOAD GT ISZERO PUSH2 0x25EE JUMPI PUSH0 PUSH20 0xFFFFFFFFFFFFFFFFFFFFFFFFFFFFFFFFFFFFFFFF AND PUSH1 0x17 PUSH0 SWAP1 SLOAD SWAP1 PUSH2 0x100 EXP SWAP1 DIV PUSH20 0xFFFFFFFFFFFFFFFFFFFFFFFFFFFFFFFFFFFFFFFF AND PUSH20 0xFFFFFFFFFFFFFFFFFFFFFFFFFFFFFFFFFFFFFFFF AND PUSH32 0xDDF252AD1BE2C89B69C2B068FC378DAA952BA7F163C4A11628F55A4DF523B3EF PUSH1 0x2 PUSH0 PUSH1 0x17 PUSH0 SWAP1 SLOAD SWAP1 PUSH2 0x100 EXP SWAP1 DIV PUSH20 0xFFFFFFFFFFFFFFFFFFFFFFFFFFFFFFFFFFFFFFFF AND PUSH20 0xFFFFFFFFFFFFFFFFFFFFFFFFFFFFFFFFFFFFFFFF AND PUSH20 0xFFFFFFFFFFFFFFFFFFFFFFFFFFFFFFFFFFFFFFFF AND DUP2 MSTORE PUSH1 0x20 ADD SWAP1 DUP2 MSTORE PUSH1 0x20 ADD PUSH0 KECCAK256 SLOAD PUSH1 0x40 MLOAD PUSH2 0x25E5 SWAP2 SWAP1 PUSH2 0x6069 JUMP JUMPDEST PUSH1 0x40 MLOAD DUP1 SWAP2 SUB SWAP1 LOG3 JUMPDEST PUSH0 PUSH1 0x1 PUSH0 PUSH1 0x17 PUSH0 SWAP1 SLOAD SWAP1 PUSH2 0x100 EXP SWAP1 DIV PUSH20 0xFFFFFFFFFFFFFFFFFFFFFFFFFFFFFFFFFFFFFFFF AND PUSH20 0xFFFFFFFFFFFFFFFFFFFFFFFFFFFFFFFFFFFFFFFF AND PUSH20 0xFFFFFFFFFFFFFFFFFFFFFFFFFFFFFFFFFFFFFFFF AND DUP2 MSTORE PUSH1 0x20 ADD SWAP1 DUP2 MSTORE PUSH1 0x20 ADD PUSH0 KECCAK256 DUP2 SWAP1 SSTORE POP PUSH0 PUSH1 0x2 PUSH0 PUSH1 0x17 PUSH0 SWAP1 SLOAD SWAP1 PUSH2 0x100 EXP SWAP1 DIV PUSH20 0xFFFFFFFFFFFFFFFFFFFFFFFFFFFFFFFFFFFFFFFF AND PUSH20 0xFFFFFFFFFFFFFFFFFFFFFFFFFFFFFFFFFFFFFFFF AND PUSH20 0xFFFFFFFFFFFFFFFFFFFFFFFFFFFFFFFFFFFFFFFF AND DUP2 MSTORE PUSH1 0x20 ADD SWAP1 DUP2 MSTORE PUSH1 0x20 ADD PUSH0 KECCAK256 DUP2 SWAP1 SSTORE POP PUSH2 0x2900 JUMP JUMPDEST PUSH0 PUSH2 0x2721 PUSH1 0x1 PUSH0 PUSH1 0x17 PUSH0 SWAP1 SLOAD SWAP1 PUSH2 0x100 EXP SWAP1 DIV PUSH20 0xFFFFFFFFFFFFFFFFFFFFFFFFFFFFFFFFFFFFFFFF AND PUSH20 0xFFFFFFFFFFFFFFFFFFFFFFFFFFFFFFFFFFFFFFFF AND PUSH20 0xFFFFFFFFFFFFFFFFFFFFFFFFFFFFFFFFFFFFFFFF AND DUP2 MSTORE PUSH1 0x20 ADD SWAP1 DUP2 MSTORE PUSH1 0x20 ADD PUSH0 KECCAK256 SLOAD PUSH2 0xD49 JUMP JUMPDEST SWAP1 POP DUP1 PUSH1 0x6 SLOAD PUSH2 0x2731 SWAP2 SWAP1 PUSH2 0x63CE JUMP JUMPDEST PUSH1 0x6 DUP2 SWAP1 SSTORE POP PUSH1 0x1 PUSH0 PUSH1 0x17 PUSH0 SWAP1 SLOAD SWAP1 PUSH2 0x100 EXP SWAP1 DIV PUSH20 0xFFFFFFFFFFFFFFFFFFFFFFFFFFFFFFFFFFFFFFFF AND PUSH20 0xFFFFFFFFFFFFFFFFFFFFFFFFFFFFFFFFFFFFFFFF AND PUSH20 0xFFFFFFFFFFFFFFFFFFFFFFFFFFFFFFFFFFFFFFFF AND DUP2 MSTORE PUSH1 0x20 ADD SWAP1 DUP2 MSTORE PUSH1 0x20 ADD PUSH0 KECCAK256 SLOAD PUSH1 0x7 SLOAD PUSH2 0x27A3 SWAP2 SWAP1 PUSH2 0x63CE JUMP JUMPDEST PUSH1 0x7 DUP2 SWAP1 SSTORE POP PUSH0 DUP2 GT ISZERO PUSH2 0x2838 JUMPI PUSH0 PUSH20 0xFFFFFFFFFFFFFFFFFFFFFFFFFFFFFFFFFFFFFFFF AND PUSH1 0x17 PUSH0 SWAP1 SLOAD SWAP1 PUSH2 0x100 EXP SWAP1 DIV PUSH20 0xFFFFFFFFFFFFFFFFFFFFFFFFFFFFFFFFFFFFFFFF AND PUSH20 0xFFFFFFFFFFFFFFFFFFFFFFFFFFFFFFFFFFFFFFFF AND PUSH32 0xDDF252AD1BE2C89B69C2B068FC378DAA952BA7F163C4A11628F55A4DF523B3EF DUP4 PUSH1 0x40 MLOAD PUSH2 0x282F SWAP2 SWAP1 PUSH2 0x6069 JUMP JUMPDEST PUSH1 0x40 MLOAD DUP1 SWAP2 SUB SWAP1 LOG3 JUMPDEST PUSH0 PUSH1 0x1 PUSH0 PUSH1 0x17 PUSH0 SWAP1 SLOAD SWAP1 PUSH2 0x100 EXP SWAP1 DIV PUSH20 0xFFFFFFFFFFFFFFFFFFFFFFFFFFFFFFFFFFFFFFFF AND PUSH20 0xFFFFFFFFFFFFFFFFFFFFFFFFFFFFFFFFFFFFFFFF AND PUSH20 0xFFFFFFFFFFFFFFFFFFFFFFFFFFFFFFFFFFFFFFFF AND DUP2 MSTORE PUSH1 0x20 ADD SWAP1 DUP2 MSTORE PUSH1 0x20 ADD PUSH0 KECCAK256 DUP2 SWAP1 SSTORE POP PUSH0 PUSH1 0x2 PUSH0 PUSH1 0x17 PUSH0 SWAP1 SLOAD SWAP1 PUSH2 0x100 EXP SWAP1 DIV PUSH20 0xFFFFFFFFFFFFFFFFFFFFFFFFFFFFFFFFFFFFFFFF AND PUSH20 0xFFFFFFFFFFFFFFFFFFFFFFFFFFFFFFFFFFFFFFFF AND PUSH20 0xFFFFFFFFFFFFFFFFFFFFFFFFFFFFFFFFFFFFFFFF AND DUP2 MSTORE PUSH1 0x20 ADD SWAP1 DUP2 MSTORE PUSH1 0x20 ADD PUSH0 KECCAK256 DUP2 SWAP1 SSTORE POP POP JUMPDEST POP JUMP JUMPDEST PUSH1 0x15 PUSH1 0xD SWAP1 SLOAD SWAP1 PUSH2 0x100 EXP SWAP1 DIV PUSH3 0xFFFFFF AND DUP2 JUMP JUMPDEST PUSH1 0x60 PUSH1 0xA DUP1 SLOAD PUSH2 0x2927 SWAP1 PUSH2 0x6371 JUMP JUMPDEST DUP1 PUSH1 0x1F ADD PUSH1 0x20 DUP1 SWAP2 DIV MUL PUSH1 0x20 ADD PUSH1 0x40 MLOAD SWAP1 DUP2 ADD PUSH1 0x40 MSTORE DUP1 SWAP3 SWAP2 SWAP1 DUP2 DUP2 MSTORE PUSH1 0x20 ADD DUP3 DUP1 SLOAD PUSH2 0x2953 SWAP1 PUSH2 0x6371 JUMP JUMPDEST DUP1 ISZERO PUSH2 0x299E JUMPI DUP1 PUSH1 0x1F LT PUSH2 0x2975 JUMPI PUSH2 0x100 DUP1 DUP4 SLOAD DIV MUL DUP4 MSTORE SWAP2 PUSH1 0x20 ADD SWAP2 PUSH2 0x299E JUMP JUMPDEST DUP3 ADD SWAP2 SWAP1 PUSH0 MSTORE PUSH1 0x20 PUSH0 KECCAK256 SWAP1 JUMPDEST DUP2 SLOAD DUP2 MSTORE SWAP1 PUSH1 0x1 ADD SWAP1 PUSH1 0x20 ADD DUP1 DUP4 GT PUSH2 0x2981 JUMPI DUP3 SWAP1 SUB PUSH1 0x1F AND DUP3 ADD SWAP2 JUMPDEST POP POP POP POP POP SWAP1 POP SWAP1 JUMP JUMPDEST PUSH2 0x29B0 PUSH2 0x41DB JUMP JUMPDEST PUSH2 0x29BA DUP3 DUP3 PUSH2 0x43FE JUMP JUMPDEST POP POP JUMP JUMPDEST PUSH0 PUSH2 0x2A5B PUSH2 0x29CA PUSH2 0x3B8C JUMP JUMPDEST DUP5 DUP5 PUSH1 0x3 PUSH0 PUSH2 0x29D7 PUSH2 0x3B8C JUMP JUMPDEST PUSH20 0xFFFFFFFFFFFFFFFFFFFFFFFFFFFFFFFFFFFFFFFF AND PUSH20 0xFFFFFFFFFFFFFFFFFFFFFFFFFFFFFFFFFFFFFFFF AND DUP2 MSTORE PUSH1 0x20 ADD SWAP1 DUP2 MSTORE PUSH1 0x20 ADD PUSH0 KECCAK256 PUSH0 DUP9 PUSH20 0xFFFFFFFFFFFFFFFFFFFFFFFFFFFFFFFFFFFFFFFF AND PUSH20 0xFFFFFFFFFFFFFFFFFFFFFFFFFFFFFFFFFFFFFFFF AND DUP2 MSTORE PUSH1 0x20 ADD SWAP1 DUP2 MSTORE PUSH1 0x20 ADD PUSH0 KECCAK256 SLOAD PUSH2 0x2A56 SWAP2 SWAP1 PUSH2 0x63CE JUMP JUMPDEST PUSH2 0x3B93 JUMP JUMPDEST PUSH1 0x1 SWAP1 POP SWAP3 SWAP2 POP POP JUMP JUMPDEST PUSH0 PUSH2 0x2A78 PUSH2 0x2A71 PUSH2 0x3B8C JUMP JUMPDEST DUP5 DUP5 PUSH2 0x3D56 JUMP JUMPDEST PUSH1 0x1 SWAP1 POP SWAP3 SWAP2 POP POP JUMP JUMPDEST PUSH2 0x2A8A PUSH2 0x41DB JUMP JUMPDEST PUSH0 PUSH20 0xFFFFFFFFFFFFFFFFFFFFFFFFFFFFFFFFFFFFFFFF AND DUP2 PUSH20 0xFFFFFFFFFFFFFFFFFFFFFFFFFFFFFFFFFFFFFFFF AND SUB PUSH2 0x2AF8 JUMPI PUSH1 0x40 MLOAD PUSH32 0x8C379A000000000000000000000000000000000000000000000000000000000 DUP2 MSTORE PUSH1 0x4 ADD PUSH2 0x2AEF SWAP1 PUSH2 0x6E69 JUMP JUMPDEST PUSH1 0x40 MLOAD DUP1 SWAP2 SUB SWAP1 REVERT JUMPDEST PUSH1 0x17 PUSH0 SWAP1 SLOAD SWAP1 PUSH2 0x100 EXP SWAP1 DIV PUSH20 0xFFFFFFFFFFFFFFFFFFFFFFFFFFFFFFFFFFFFFFFF AND PUSH20 0xFFFFFFFFFFFFFFFFFFFFFFFFFFFFFFFFFFFFFFFF AND DUP2 PUSH20 0xFFFFFFFFFFFFFFFFFFFFFFFFFFFFFFFFFFFFFFFF AND SUB PUSH2 0x2B87 JUMPI PUSH1 0x40 MLOAD PUSH32 0x8C379A000000000000000000000000000000000000000000000000000000000 DUP2 MSTORE PUSH1 0x4 ADD PUSH2 0x2B7E SWAP1 PUSH2 0x6BB4 JUMP JUMPDEST PUSH1 0x40 MLOAD DUP1 SWAP2 SUB SWAP1 REVERT JUMPDEST PUSH1 0x16 PUSH0 SWAP1 SLOAD SWAP1 PUSH2 0x100 EXP SWAP1 DIV PUSH20 0xFFFFFFFFFFFFFFFFFFFFFFFFFFFFFFFFFFFFFFFF AND PUSH20 0xFFFFFFFFFFFFFFFFFFFFFFFFFFFFFFFFFFFFFFFF AND DUP2 PUSH20 0xFFFFFFFFFFFFFFFFFFFFFFFFFFFFFFFFFFFFFFFF AND PUSH32 0xACF03C50DCF01E53E2775267D12ACD0158D87C2F20FB84226837142693B36AE7 PUSH1 0x40 MLOAD PUSH1 0x40 MLOAD DUP1 SWAP2 SUB SWAP1 LOG3 DUP1 PUSH1 0x16 PUSH0 PUSH2 0x100 EXP DUP2 SLOAD DUP2 PUSH20 0xFFFFFFFFFFFFFFFFFFFFFFFFFFFFFFFFFFFFFFFF MUL NOT AND SWAP1 DUP4 PUSH20 0xFFFFFFFFFFFFFFFFFFFFFFFFFFFFFFFFFFFFFFFF AND MUL OR SWAP1 SSTORE POP PUSH1 0x1 PUSH1 0x1B PUSH0 DUP4 PUSH20 0xFFFFFFFFFFFFFFFFFFFFFFFFFFFFFFFFFFFFFFFF AND PUSH20 0xFFFFFFFFFFFFFFFFFFFFFFFFFFFFFFFFFFFFFFFF AND DUP2 MSTORE PUSH1 0x20 ADD SWAP1 DUP2 MSTORE PUSH1 0x20 ADD PUSH0 KECCAK256 PUSH0 PUSH2 0x100 EXP DUP2 SLOAD DUP2 PUSH1 0xFF MUL NOT AND SWAP1 DUP4 ISZERO ISZERO MUL OR SWAP1 SSTORE POP POP JUMP JUMPDEST PUSH1 0x15 PUSH1 0x19 SWAP1 SLOAD SWAP1 PUSH2 0x100 EXP SWAP1 DIV PUSH3 0xFFFFFF AND DUP2 JUMP JUMPDEST PUSH1 0x1C PUSH1 0x20 MSTORE DUP1 PUSH0 MSTORE PUSH1 0x40 PUSH0 KECCAK256 PUSH0 SWAP2 POP SLOAD SWAP1 PUSH2 0x100 EXP SWAP1 DIV PUSH1 0xFF AND DUP2 JUMP JUMPDEST PUSH2 0x2CD4 PUSH2 0x41DB JUMP JUMPDEST DUP1 PUSH20 0xFFFFFFFFFFFFFFFFFFFFFFFFFFFFFFFFFFFFFFFF AND PUSH1 0x19 PUSH0 SWAP1 SLOAD SWAP1 PUSH2 0x100 EXP SWAP1 DIV PUSH20 0xFFFFFFFFFFFFFFFFFFFFFFFFFFFFFFFFFFFFFFFF AND PUSH20 0xFFFFFFFFFFFFFFFFFFFFFFFFFFFFFFFFFFFFFFFF AND EQ PUSH2 0x2D75 JUMPI PUSH2 0x2D34 ADDRESS DUP3 PUSH0 NOT PUSH2 0x3B93 JUMP JUMPDEST DUP1 PUSH1 0x19 PUSH0 PUSH2 0x100 EXP DUP2 SLOAD DUP2 PUSH20 0xFFFFFFFFFFFFFFFFFFFFFFFFFFFFFFFFFFFFFFFF MUL NOT AND SWAP1 DUP4 PUSH20 0xFFFFFFFFFFFFFFFFFFFFFFFFFFFFFFFFFFFFFFFF AND MUL OR SWAP1 SSTORE POP JUMPDEST PUSH1 0x19 PUSH0 SWAP1 SLOAD SWAP1 PUSH2 0x100 EXP SWAP1 DIV PUSH20 0xFFFFFFFFFFFFFFFFFFFFFFFFFFFFFFFFFFFFFFFF AND PUSH20 0xFFFFFFFFFFFFFFFFFFFFFFFFFFFFFFFFFFFFFFFF AND PUSH4 0xC45A0155 PUSH1 0x40 MLOAD DUP2 PUSH4 0xFFFFFFFF AND PUSH1 0xE0 SHL DUP2 MSTORE PUSH1 0x4 ADD PUSH1 0x20 PUSH1 0x40 MLOAD DUP1 DUP4 SUB DUP2 DUP7 GAS STATICCALL ISZERO DUP1 ISZERO PUSH2 0x2DDF JUMPI RETURNDATASIZE PUSH0 PUSH0 RETURNDATACOPY RETURNDATASIZE PUSH0 REVERT JUMPDEST POP POP POP POP PUSH1 0x40 MLOAD RETURNDATASIZE PUSH1 0x1F NOT PUSH1 0x1F DUP3 ADD AND DUP3 ADD DUP1 PUSH1 0x40 MSTORE POP DUP2 ADD SWAP1 PUSH2 0x2E03 SWAP2 SWAP1 PUSH2 0x6CBA JUMP JUMPDEST PUSH20 0xFFFFFFFFFFFFFFFFFFFFFFFFFFFFFFFFFFFFFFFF AND PUSH4 0xC9C65396 ADDRESS PUSH1 0x19 PUSH0 SWAP1 SLOAD SWAP1 PUSH2 0x100 EXP SWAP1 DIV PUSH20 0xFFFFFFFFFFFFFFFFFFFFFFFFFFFFFFFFFFFFFFFF AND PUSH20 0xFFFFFFFFFFFFFFFFFFFFFFFFFFFFFFFFFFFFFFFF AND PUSH4 0xAD5C4648 PUSH1 0x40 MLOAD DUP2 PUSH4 0xFFFFFFFF AND PUSH1 0xE0 SHL DUP2 MSTORE PUSH1 0x4 ADD PUSH1 0x20 PUSH1 0x40 MLOAD DUP1 DUP4 SUB DUP2 DUP7 GAS STATICCALL ISZERO DUP1 ISZERO PUSH2 0x2E89 JUMPI RETURNDATASIZE PUSH0 PUSH0 RETURNDATACOPY RETURNDATASIZE PUSH0 REVERT JUMPDEST POP POP POP POP PUSH1 0x40 MLOAD RETURNDATASIZE PUSH1 0x1F NOT PUSH1 0x1F DUP3 ADD AND DUP3 ADD DUP1 PUSH1 0x40 MSTORE POP DUP2 ADD SWAP1 PUSH2 0x2EAD SWAP2 SWAP1 PUSH2 0x6CBA JUMP JUMPDEST PUSH1 0x40 MLOAD DUP4 PUSH4 0xFFFFFFFF AND PUSH1 0xE0 SHL DUP2 MSTORE PUSH1 0x4 ADD PUSH2 0x2ECA SWAP3 SWAP2 SWAP1 PUSH2 0x6E87 JUMP JUMPDEST PUSH1 0x20 PUSH1 0x40 MLOAD DUP1 DUP4 SUB DUP2 PUSH0 DUP8 GAS CALL ISZERO DUP1 ISZERO PUSH2 0x2EE6 JUMPI RETURNDATASIZE PUSH0 PUSH0 RETURNDATACOPY RETURNDATASIZE PUSH0 REVERT JUMPDEST POP POP POP POP PUSH1 0x40 MLOAD RETURNDATASIZE PUSH1 0x1F NOT PUSH1 0x1F DUP3 ADD AND DUP3 ADD DUP1 PUSH1 0x40 MSTORE POP DUP2 ADD SWAP1 PUSH2 0x2F0A SWAP2 SWAP1 PUSH2 0x6CBA JUMP JUMPDEST PUSH1 0x1A PUSH0 PUSH2 0x100 EXP DUP2 SLOAD DUP2 PUSH20 0xFFFFFFFFFFFFFFFFFFFFFFFFFFFFFFFFFFFFFFFF MUL NOT AND SWAP1 DUP4 PUSH20 0xFFFFFFFFFFFFFFFFFFFFFFFFFFFFFFFFFFFFFFFF AND MUL OR SWAP1 SSTORE POP PUSH32 0x751E970AF297D4E5267DABCEA7B369AD737038498379B46448D190D9E261F3C5 PUSH1 0x19 PUSH0 SWAP1 SLOAD SWAP1 PUSH2 0x100 EXP SWAP1 DIV PUSH20 0xFFFFFFFFFFFFFFFFFFFFFFFFFFFFFFFFFFFFFFFF AND PUSH1 0x1A PUSH0 SWAP1 SLOAD SWAP1 PUSH2 0x100 EXP SWAP1 DIV PUSH20 0xFFFFFFFFFFFFFFFFFFFFFFFFFFFFFFFFFFFFFFFF AND PUSH1 0x40 MLOAD PUSH2 0x2FBC SWAP3 SWAP2 SWAP1 PUSH2 0x6E87 JUMP JUMPDEST PUSH1 0x40 MLOAD DUP1 SWAP2 SUB SWAP1 LOG1 PUSH2 0x2FF0 PUSH1 0x1A PUSH0 SWAP1 SLOAD SWAP1 PUSH2 0x100 EXP SWAP1 DIV PUSH20 0xFFFFFFFFFFFFFFFFFFFFFFFFFFFFFFFFFFFFFFFF AND PUSH1 0x1 PUSH2 0x43FE JUMP JUMPDEST POP JUMP JUMPDEST PUSH1 0x19 PUSH0 SWAP1 SLOAD SWAP1 PUSH2 0x100 EXP SWAP1 DIV PUSH20 0xFFFFFFFFFFFFFFFFFFFFFFFFFFFFFFFFFFFFFFFF AND DUP2 JUMP JUMPDEST PUSH2 0x3020 PUSH2 0x41DB JUMP JUMPDEST PUSH3 0x30D40 PUSH1 0x15 PUSH1 0x19 SWAP1 SLOAD SWAP1 PUSH2 0x100 EXP SWAP1 DIV PUSH3 0xFFFFFF AND PUSH1 0x15 PUSH1 0x13 SWAP1 SLOAD SWAP1 PUSH2 0x100 EXP SWAP1 DIV PUSH3 0xFFFFFF AND PUSH1 0x15 PUSH1 0x1 SWAP1 SLOAD SWAP1 PUSH2 0x100 EXP SWAP1 DIV PUSH3 0xFFFFFF AND PUSH1 0x15 PUSH1 0xD SWAP1 SLOAD SWAP1 PUSH2 0x100 EXP SWAP1 DIV PUSH3 0xFFFFFF AND DUP7 PUSH2 0x3077 SWAP2 SWAP1 PUSH2 0x6622 JUMP JUMPDEST PUSH2 0x3081 SWAP2 SWAP1 PUSH2 0x6622 JUMP JUMPDEST PUSH2 0x308B SWAP2 SWAP1 PUSH2 0x6622 JUMP JUMPDEST PUSH2 0x3095 SWAP2 SWAP1 PUSH2 0x6622 JUMP JUMPDEST PUSH3 0xFFFFFF AND GT ISZERO PUSH2 0x30DB JUMPI PUSH1 0x40 MLOAD PUSH32 0x8C379A000000000000000000000000000000000000000000000000000000000 DUP2 MSTORE PUSH1 0x4 ADD PUSH2 0x30D2 SWAP1 PUSH2 0x66A2 JUMP JUMPDEST PUSH1 0x40 MLOAD DUP1 SWAP2 SUB SWAP1 REVERT JUMPDEST PUSH3 0x30D40 PUSH1 0x15 PUSH1 0x1C SWAP1 SLOAD SWAP1 PUSH2 0x100 EXP SWAP1 DIV PUSH3 0xFFFFFF AND PUSH1 0x15 PUSH1 0x16 SWAP1 SLOAD SWAP1 PUSH2 0x100 EXP SWAP1 DIV PUSH3 0xFFFFFF AND PUSH1 0x15 PUSH1 0x4 SWAP1 SLOAD SWAP1 PUSH2 0x100 EXP SWAP1 DIV PUSH3 0xFFFFFF AND PUSH1 0x15 PUSH1 0x10 SWAP1 SLOAD SWAP1 PUSH2 0x100 EXP SWAP1 DIV PUSH3 0xFFFFFF AND DUP6 PUSH2 0x3132 SWAP2 SWAP1 PUSH2 0x6622 JUMP JUMPDEST PUSH2 0x313C SWAP2 SWAP1 PUSH2 0x6622 JUMP JUMPDEST PUSH2 0x3146 SWAP2 SWAP1 PUSH2 0x6622 JUMP JUMPDEST PUSH2 0x3150 SWAP2 SWAP1 PUSH2 0x6622 JUMP JUMPDEST PUSH3 0xFFFFFF AND GT ISZERO PUSH2 0x3196 JUMPI PUSH1 0x40 MLOAD PUSH32 0x8C379A000000000000000000000000000000000000000000000000000000000 DUP2 MSTORE PUSH1 0x4 ADD PUSH2 0x318D SWAP1 PUSH2 0x670A JUMP JUMPDEST PUSH1 0x40 MLOAD DUP1 SWAP2 SUB SWAP1 REVERT JUMPDEST PUSH3 0x249F0 DUP3 PUSH3 0xFFFFFF AND GT ISZERO PUSH2 0x31E1 JUMPI PUSH1 0x40 MLOAD PUSH32 0x8C379A000000000000000000000000000000000000000000000000000000000 DUP2 MSTORE PUSH1 0x4 ADD PUSH2 0x31D8 SWAP1 PUSH2 0x6772 JUMP JUMPDEST PUSH1 0x40 MLOAD DUP1 SWAP2 SUB SWAP1 REVERT JUMPDEST PUSH3 0x249F0 DUP2 PUSH3 0xFFFFFF AND GT ISZERO PUSH2 0x322C JUMPI PUSH1 0x40 MLOAD PUSH32 0x8C379A000000000000000000000000000000000000000000000000000000000 DUP2 MSTORE PUSH1 0x4 ADD PUSH2 0x3223 SWAP1 PUSH2 0x67DA JUMP JUMPDEST PUSH1 0x40 MLOAD DUP1 SWAP2 SUB SWAP1 REVERT JUMPDEST PUSH32 0xDEC183740138E3A28DFD6F973ECD3BF00CD5D9B2544F6763C0A87F721444C5D1 DUP3 DUP3 PUSH1 0x15 PUSH1 0x7 SWAP1 SLOAD SWAP1 PUSH2 0x100 EXP SWAP1 DIV PUSH3 0xFFFFFF AND PUSH1 0x15 PUSH1 0xA SWAP1 SLOAD SWAP1 PUSH2 0x100 EXP SWAP1 DIV PUSH3 0xFFFFFF AND PUSH1 0x40 MLOAD PUSH2 0x3283 SWAP5 SWAP4 SWAP3 SWAP2 SWAP1 PUSH2 0x67F8 JUMP JUMPDEST PUSH1 0x40 MLOAD DUP1 SWAP2 SUB SWAP1 LOG1 DUP2 PUSH1 0x15 PUSH1 0x7 PUSH2 0x100 EXP DUP2 SLOAD DUP2 PUSH3 0xFFFFFF MUL NOT AND SWAP1 DUP4 PUSH3 0xFFFFFF AND MUL OR SWAP1 SSTORE POP DUP1 PUSH1 0x15 PUSH1 0xA PUSH2 0x100 EXP DUP2 SLOAD DUP2 PUSH3 0xFFFFFF MUL NOT AND SWAP1 DUP4 PUSH3 0xFFFFFF AND MUL OR SWAP1 SSTORE POP POP POP JUMP JUMPDEST PUSH2 0x32D5 PUSH2 0x41DB JUMP JUMPDEST PUSH3 0x30D40 PUSH1 0x15 PUSH1 0x1 SWAP1 SLOAD SWAP1 PUSH2 0x100 EXP SWAP1 DIV PUSH3 0xFFFFFF AND PUSH1 0x15 PUSH1 0x13 SWAP1 SLOAD SWAP1 PUSH2 0x100 EXP SWAP1 DIV PUSH3 0xFFFFFF AND PUSH1 0x15 PUSH1 0xD SWAP1 SLOAD SWAP1 PUSH2 0x100 EXP SWAP1 DIV PUSH3 0xFFFFFF AND PUSH1 0x15 PUSH1 0x7 SWAP1 SLOAD SWAP1 PUSH2 0x100 EXP SWAP1 DIV PUSH3 0xFFFFFF AND DUP7 PUSH2 0x332C SWAP2 SWAP1 PUSH2 0x6622 JUMP JUMPDEST PUSH2 0x3336 SWAP2 SWAP1 PUSH2 0x6622 JUMP JUMPDEST PUSH2 0x3340 SWAP2 SWAP1 PUSH2 0x6622 JUMP JUMPDEST PUSH2 0x334A SWAP2 SWAP1 PUSH2 0x6622 JUMP JUMPDEST PUSH3 0xFFFFFF AND GT ISZERO PUSH2 0x3390 JUMPI PUSH1 0x40 MLOAD PUSH32 0x8C379A000000000000000000000000000000000000000000000000000000000 DUP2 MSTORE PUSH1 0x4 ADD PUSH2 0x3387 SWAP1 PUSH2 0x66A2 JUMP JUMPDEST PUSH1 0x40 MLOAD DUP1 SWAP2 SUB SWAP1 REVERT JUMPDEST PUSH3 0x30D40 PUSH1 0x15 PUSH1 0x4 SWAP1 SLOAD SWAP1 PUSH2 0x100 EXP SWAP1 DIV PUSH3 0xFFFFFF AND PUSH1 0x15 PUSH1 0x16 SWAP1 SLOAD SWAP1 PUSH2 0x100 EXP SWAP1 DIV PUSH3 0xFFFFFF AND PUSH1 0x15 PUSH1 0x10 SWAP1 SLOAD SWAP1 PUSH2 0x100 EXP SWAP1 DIV PUSH3 0xFFFFFF AND PUSH1 0x15 PUSH1 0xA SWAP1 SLOAD SWAP1 PUSH2 0x100 EXP SWAP1 DIV PUSH3 0xFFFFFF AND DUP6 PUSH2 0x33E7 SWAP2 SWAP1 PUSH2 0x6622 JUMP JUMPDEST PUSH2 0x33F1 SWAP2 SWAP1 PUSH2 0x6622 JUMP JUMPDEST PUSH2 0x33FB SWAP2 SWAP1 PUSH2 0x6622 JUMP JUMPDEST PUSH2 0x3405 SWAP2 SWAP1 PUSH2 0x6622 JUMP JUMPDEST PUSH3 0xFFFFFF AND GT ISZERO PUSH2 0x344B JUMPI PUSH1 0x40 MLOAD PUSH32 0x8C379A000000000000000000000000000000000000000000000000000000000 DUP2 MSTORE PUSH1 0x4 ADD PUSH2 0x3442 SWAP1 PUSH2 0x670A JUMP JUMPDEST PUSH1 0x40 MLOAD DUP1 SWAP2 SUB SWAP1 REVERT JUMPDEST PUSH3 0x249F0 DUP3 PUSH3 0xFFFFFF AND GT ISZERO PUSH2 0x3496 JUMPI PUSH1 0x40 MLOAD PUSH32 0x8C379A000000000000000000000000000000000000000000000000000000000 DUP2 MSTORE PUSH1 0x4 ADD PUSH2 0x348D SWAP1 PUSH2 0x6772 JUMP JUMPDEST PUSH1 0x40 MLOAD DUP1 SWAP2 SUB SWAP1 REVERT JUMPDEST PUSH3 0x249F0 DUP2 PUSH3 0xFFFFFF AND GT ISZERO PUSH2 0x34E1 JUMPI PUSH1 0x40 MLOAD PUSH32 0x8C379A000000000000000000000000000000000000000000000000000000000 DUP2 MSTORE PUSH1 0x4 ADD PUSH2 0x34D8 SWAP1 PUSH2 0x67DA JUMP JUMPDEST PUSH1 0x40 MLOAD DUP1 SWAP2 SUB SWAP1 REVERT JUMPDEST PUSH32 0xDC717222E8A01249BCFB0A887E700321C9465EDA757255FD7895BD39FAB714D2 DUP3 DUP3 PUSH1 0x15 PUSH1 0x19 SWAP1 SLOAD SWAP1 PUSH2 0x100 EXP SWAP1 DIV PUSH3 0xFFFFFF AND PUSH1 0x15 PUSH1 0x1C SWAP1 SLOAD SWAP1 PUSH2 0x100 EXP SWAP1 DIV PUSH3 0xFFFFFF AND PUSH1 0x40 MLOAD PUSH2 0x3538 SWAP5 SWAP4 SWAP3 SWAP2 SWAP1 PUSH2 0x67F8 JUMP JUMPDEST PUSH1 0x40 MLOAD DUP1 SWAP2 SUB SWAP1 LOG1 DUP2 PUSH1 0x15 PUSH1 0x19 PUSH2 0x100 EXP DUP2 SLOAD DUP2 PUSH3 0xFFFFFF MUL NOT AND SWAP1 DUP4 PUSH3 0xFFFFFF AND MUL OR SWAP1 SSTORE POP DUP1 PUSH1 0x15 PUSH1 0x1C PUSH2 0x100 EXP DUP2 SLOAD DUP2 PUSH3 0xFFFFFF MUL NOT AND SWAP1 DUP4 PUSH3 0xFFFFFF AND MUL OR SWAP1 SSTORE POP POP POP JUMP JUMPDEST PUSH0 PUSH1 0x3 PUSH0 DUP5 PUSH20 0xFFFFFFFFFFFFFFFFFFFFFFFFFFFFFFFFFFFFFFFF AND PUSH20 0xFFFFFFFFFFFFFFFFFFFFFFFFFFFFFFFFFFFFFFFF AND DUP2 MSTORE PUSH1 0x20 ADD SWAP1 DUP2 MSTORE PUSH1 0x20 ADD PUSH0 KECCAK256 PUSH0 DUP4 PUSH20 0xFFFFFFFFFFFFFFFFFFFFFFFFFFFFFFFFFFFFFFFF AND PUSH20 0xFFFFFFFFFFFFFFFFFFFFFFFFFFFFFFFFFFFFFFFF AND DUP2 MSTORE PUSH1 0x20 ADD SWAP1 DUP2 MSTORE PUSH1 0x20 ADD PUSH0 KECCAK256 SLOAD SWAP1 POP SWAP3 SWAP2 POP POP JUMP JUMPDEST PUSH1 0x15 PUSH1 0x1 SWAP1 SLOAD SWAP1 PUSH2 0x100 EXP SWAP1 DIV PUSH3 0xFFFFFF AND DUP2 JUMP JUMPDEST PUSH2 0x3621 PUSH2 0x41DB JUMP JUMPDEST DUP1 ISZERO ISZERO PUSH1 0x1B PUSH0 DUP5 PUSH20 0xFFFFFFFFFFFFFFFFFFFFFFFFFFFFFFFFFFFFFFFF AND PUSH20 0xFFFFFFFFFFFFFFFFFFFFFFFFFFFFFFFFFFFFFFFF AND DUP2 MSTORE PUSH1 0x20 ADD SWAP1 DUP2 MSTORE PUSH1 0x20 ADD PUSH0 KECCAK256 PUSH0 SWAP1 SLOAD SWAP1 PUSH2 0x100 EXP SWAP1 DIV PUSH1 0xFF AND ISZERO ISZERO SUB PUSH2 0x36B0 JUMPI PUSH1 0x40 MLOAD PUSH32 0x8C379A000000000000000000000000000000000000000000000000000000000 DUP2 MSTORE PUSH1 0x4 ADD PUSH2 0x36A7 SWAP1 PUSH2 0x6EF8 JUMP JUMPDEST PUSH1 0x40 MLOAD DUP1 SWAP2 SUB SWAP1 REVERT JUMPDEST DUP1 PUSH1 0x1B PUSH0 DUP5 PUSH20 0xFFFFFFFFFFFFFFFFFFFFFFFFFFFFFFFFFFFFFFFF AND PUSH20 0xFFFFFFFFFFFFFFFFFFFFFFFFFFFFFFFFFFFFFFFF AND DUP2 MSTORE PUSH1 0x20 ADD SWAP1 DUP2 MSTORE PUSH1 0x20 ADD PUSH0 KECCAK256 PUSH0 PUSH2 0x100 EXP DUP2 SLOAD DUP2 PUSH1 0xFF MUL NOT AND SWAP1 DUP4 ISZERO ISZERO MUL OR SWAP1 SSTORE POP DUP2 PUSH20 0xFFFFFFFFFFFFFFFFFFFFFFFFFFFFFFFFFFFFFFFF AND PUSH32 0x2D43ABD87B27CEE7B0AA8C6F7E0B4A3247B683262A83CBC2318B0DF398A49AA9 DUP3 PUSH1 0x40 MLOAD PUSH2 0x374A SWAP2 SWAP1 PUSH2 0x600B JUMP JUMPDEST PUSH1 0x40 MLOAD DUP1 SWAP2 SUB SWAP1 LOG2 POP POP JUMP JUMPDEST PUSH2 0x375E PUSH2 0x41DB JUMP JUMPDEST PUSH0 PUSH2 0x3767 PUSH2 0x2101 JUMP JUMPDEST PUSH20 0xFFFFFFFFFFFFFFFFFFFFFFFFFFFFFFFFFFFFFFFF AND SELFBALANCE PUSH1 0x40 MLOAD PUSH2 0x378A SWAP1 PUSH2 0x6F43 JUMP JUMPDEST PUSH0 PUSH1 0x40 MLOAD DUP1 DUP4 SUB DUP2 DUP6 DUP8 GAS CALL SWAP3 POP POP POP RETURNDATASIZE DUP1 PUSH0 DUP2 EQ PUSH2 0x37C4 JUMPI PUSH1 0x40 MLOAD SWAP2 POP PUSH1 0x1F NOT PUSH1 0x3F RETURNDATASIZE ADD AND DUP3 ADD PUSH1 0x40 MSTORE RETURNDATASIZE DUP3 MSTORE RETURNDATASIZE PUSH0 PUSH1 0x20 DUP5 ADD RETURNDATACOPY PUSH2 0x37C9 JUMP JUMPDEST PUSH1 0x60 SWAP2 POP JUMPDEST POP POP SWAP1 POP DUP1 PUSH2 0x380D JUMPI PUSH1 0x40 MLOAD PUSH32 0x8C379A000000000000000000000000000000000000000000000000000000000 DUP2 MSTORE PUSH1 0x4 ADD PUSH2 0x3804 SWAP1 PUSH2 0x6FA1 JUMP JUMPDEST PUSH1 0x40 MLOAD DUP1 SWAP2 SUB SWAP1 REVERT JUMPDEST POP JUMP JUMPDEST PUSH1 0x15 PUSH1 0x1C SWAP1 SLOAD SWAP1 PUSH2 0x100 EXP SWAP1 DIV PUSH3 0xFFFFFF AND DUP2 JUMP JUMPDEST PUSH2 0x382D PUSH2 0x41DB JUMP JUMPDEST PUSH3 0x30D40 PUSH1 0x15 PUSH1 0x19 SWAP1 SLOAD SWAP1 PUSH2 0x100 EXP SWAP1 DIV PUSH3 0xFFFFFF AND PUSH1 0x15 PUSH1 0x13 SWAP1 SLOAD SWAP1 PUSH2 0x100 EXP SWAP1 DIV PUSH3 0xFFFFFF AND PUSH1 0x15 PUSH1 0x1 SWAP1 SLOAD SWAP1 PUSH2 0x100 EXP SWAP1 DIV PUSH3 0xFFFFFF AND PUSH1 0x15 PUSH1 0x7 SWAP1 SLOAD SWAP1 PUSH2 0x100 EXP SWAP1 DIV PUSH3 0xFFFFFF AND DUP7 PUSH2 0x3884 SWAP2 SWAP1 PUSH2 0x6622 JUMP JUMPDEST PUSH2 0x388E SWAP2 SWAP1 PUSH2 0x6622 JUMP JUMPDEST PUSH2 0x3898 SWAP2 SWAP1 PUSH2 0x6622 JUMP JUMPDEST PUSH2 0x38A2 SWAP2 SWAP1 PUSH2 0x6622 JUMP JUMPDEST PUSH3 0xFFFFFF AND GT ISZERO PUSH2 0x38E8 JUMPI PUSH1 0x40 MLOAD PUSH32 0x8C379A000000000000000000000000000000000000000000000000000000000 DUP2 MSTORE PUSH1 0x4 ADD PUSH2 0x38DF SWAP1 PUSH2 0x66A2 JUMP JUMPDEST PUSH1 0x40 MLOAD DUP1 SWAP2 SUB SWAP1 REVERT JUMPDEST PUSH3 0x30D40 PUSH1 0x15 PUSH1 0x1C SWAP1 SLOAD SWAP1 PUSH2 0x100 EXP SWAP1 DIV PUSH3 0xFFFFFF AND PUSH1 0x15 PUSH1 0x16 SWAP1 SLOAD SWAP1 PUSH2 0x100 EXP SWAP1 DIV PUSH3 0xFFFFFF AND PUSH1 0x15 PUSH1 0x4 SWAP1 SLOAD SWAP1 PUSH2 0x100 EXP SWAP1 DIV PUSH3 0xFFFFFF AND PUSH1 0x15 PUSH1 0xA SWAP1 SLOAD SWAP1 PUSH2 0x100 EXP SWAP1 DIV PUSH3 0xFFFFFF AND DUP6 PUSH2 0x393F SWAP2 SWAP1 PUSH2 0x6622 JUMP JUMPDEST PUSH2 0x3949 SWAP2 SWAP1 PUSH2 0x6622 JUMP JUMPDEST PUSH2 0x3953 SWAP2 SWAP1 PUSH2 0x6622 JUMP JUMPDEST PUSH2 0x395D SWAP2 SWAP1 PUSH2 0x6622 JUMP JUMPDEST PUSH3 0xFFFFFF AND GT ISZERO PUSH2 0x39A3 JUMPI PUSH1 0x40 MLOAD PUSH32 0x8C379A000000000000000000000000000000000000000000000000000000000 DUP2 MSTORE PUSH1 0x4 ADD PUSH2 0x399A SWAP1 PUSH2 0x670A JUMP JUMPDEST PUSH1 0x40 MLOAD DUP1 SWAP2 SUB SWAP1 REVERT JUMPDEST PUSH3 0x249F0 DUP3 PUSH3 0xFFFFFF AND GT ISZERO PUSH2 0x39EE JUMPI PUSH1 0x40 MLOAD PUSH32 0x8C379A000000000000000000000000000000000000000000000000000000000 DUP2 MSTORE PUSH1 0x4 ADD PUSH2 0x39E5 SWAP1 PUSH2 0x6772 JUMP JUMPDEST PUSH1 0x40 MLOAD DUP1 SWAP2 SUB SWAP1 REVERT JUMPDEST PUSH3 0x249F0 DUP2 PUSH3 0xFFFFFF AND GT ISZERO PUSH2 0x3A39 JUMPI PUSH1 0x40 MLOAD PUSH32 0x8C379A000000000000000000000000000000000000000000000000000000000 DUP2 MSTORE PUSH1 0x4 ADD PUSH2 0x3A30 SWAP1 PUSH2 0x67DA JUMP JUMPDEST PUSH1 0x40 MLOAD DUP1 SWAP2 SUB SWAP1 REVERT JUMPDEST PUSH32 0x70748CB9CB3BCB4DFD4FFF8F2A6F23F636067B33E0244631F9ABD38159C1DE85 DUP3 DUP3 PUSH1 0x15 PUSH1 0xD SWAP1 SLOAD SWAP1 PUSH2 0x100 EXP SWAP1 DIV PUSH3 0xFFFFFF AND PUSH1 0x15 PUSH1 0x10 SWAP1 SLOAD SWAP1 PUSH2 0x100 EXP SWAP1 DIV PUSH3 0xFFFFFF AND PUSH1 0x40 MLOAD PUSH2 0x3A90 SWAP5 SWAP4 SWAP3 SWAP2 SWAP1 PUSH2 0x67F8 JUMP JUMPDEST PUSH1 0x40 MLOAD DUP1 SWAP2 SUB SWAP1 LOG1 DUP2 PUSH1 0x15 PUSH1 0xD PUSH2 0x100 EXP DUP2 SLOAD DUP2 PUSH3 0xFFFFFF MUL NOT AND SWAP1 DUP4 PUSH3 0xFFFFFF AND MUL OR SWAP1 SSTORE POP DUP1 PUSH1 0x15 PUSH1 0x10 PUSH2 0x100 EXP DUP2 SLOAD DUP2 PUSH3 0xFFFFFF MUL NOT AND SWAP1 DUP4 PUSH3 0xFFFFFF AND MUL OR SWAP1 SSTORE POP POP POP JUMP JUMPDEST PUSH1 0x15 PUSH1 0xA SWAP1 SLOAD SWAP1 PUSH2 0x100 EXP SWAP1 DIV PUSH3 0xFFFFFF AND DUP2 JUMP JUMPDEST PUSH2 0x3AF7 PUSH2 0x41DB JUMP JUMPDEST PUSH0 PUSH20 0xFFFFFFFFFFFFFFFFFFFFFFFFFFFFFFFFFFFFFFFF AND DUP2 PUSH20 0xFFFFFFFFFFFFFFFFFFFFFFFFFFFFFFFFFFFFFFFF AND SUB PUSH2 0x3B65 JUMPI PUSH1 0x40 MLOAD PUSH32 0x8C379A000000000000000000000000000000000000000000000000000000000 DUP2 MSTORE PUSH1 0x4 ADD PUSH2 0x3B5C SWAP1 PUSH2 0x702F JUMP JUMPDEST PUSH1 0x40 MLOAD DUP1 SWAP2 SUB SWAP1 REVERT JUMPDEST PUSH2 0x3B6E DUP2 PUSH2 0x42B7 JUMP JUMPDEST POP JUMP JUMPDEST PUSH1 0x15 PUSH1 0x7 SWAP1 SLOAD SWAP1 PUSH2 0x100 EXP SWAP1 DIV PUSH3 0xFFFFFF AND DUP2 JUMP JUMPDEST PUSH1 0x18 SLOAD DUP2 JUMP JUMPDEST PUSH0 CALLER SWAP1 POP SWAP1 JUMP JUMPDEST PUSH0 PUSH20 0xFFFFFFFFFFFFFFFFFFFFFFFFFFFFFFFFFFFFFFFF AND DUP4 PUSH20 0xFFFFFFFFFFFFFFFFFFFFFFFFFFFFFFFFFFFFFFFF AND SUB PUSH2 0x3C01 JUMPI PUSH1 0x40 MLOAD PUSH32 0x8C379A000000000000000000000000000000000000000000000000000000000 DUP2 MSTORE PUSH1 0x4 ADD PUSH2 0x3BF8 SWAP1 PUSH2 0x70BD JUMP JUMPDEST PUSH1 0x40 MLOAD DUP1 SWAP2 SUB SWAP1 REVERT JUMPDEST PUSH0 PUSH20 0xFFFFFFFFFFFFFFFFFFFFFFFFFFFFFFFFFFFFFFFF AND DUP3 PUSH20 0xFFFFFFFFFFFFFFFFFFFFFFFFFFFFFFFFFFFFFFFF AND SUB PUSH2 0x3C6F JUMPI PUSH1 0x40 MLOAD PUSH32 0x8C379A000000000000000000000000000000000000000000000000000000000 DUP2 MSTORE PUSH1 0x4 ADD PUSH2 0x3C66 SWAP1 PUSH2 0x714B JUMP JUMPDEST PUSH1 0x40 MLOAD DUP1 SWAP2 SUB SWAP1 REVERT JUMPDEST DUP1 PUSH1 0x3 PUSH0 DUP6 PUSH20 0xFFFFFFFFFFFFFFFFFFFFFFFFFFFFFFFFFFFFFFFF AND PUSH20 0xFFFFFFFFFFFFFFFFFFFFFFFFFFFFFFFFFFFFFFFF AND DUP2 MSTORE PUSH1 0x20 ADD SWAP1 DUP2 MSTORE PUSH1 0x20 ADD PUSH0 KECCAK256 PUSH0 DUP5 PUSH20 0xFFFFFFFFFFFFFFFFFFFFFFFFFFFFFFFFFFFFFFFF AND PUSH20 0xFFFFFFFFFFFFFFFFFFFFFFFFFFFFFFFFFFFFFFFF AND DUP2 MSTORE PUSH1 0x20 ADD SWAP1 DUP2 MSTORE PUSH1 0x20 ADD PUSH0 KECCAK256 DUP2 SWAP1 SSTORE POP DUP2 PUSH20 0xFFFFFFFFFFFFFFFFFFFFFFFFFFFFFFFFFFFFFFFF AND DUP4 PUSH20 0xFFFFFFFFFFFFFFFFFFFFFFFFFFFFFFFFFFFFFFFF AND PUSH32 0x8C5BE1E5EBEC7D5BD14F71427D1E84F3DD0314C0F7B2291E5B200AC8C7C3B925 DUP4 PUSH1 0x40 MLOAD PUSH2 0x3D49 SWAP2 SWAP1 PUSH2 0x6069 JUMP JUMPDEST PUSH1 0x40 MLOAD DUP1 SWAP2 SUB SWAP1 LOG3 POP POP POP JUMP JUMPDEST PUSH0 PUSH20 0xFFFFFFFFFFFFFFFFFFFFFFFFFFFFFFFFFFFFFFFF AND DUP4 PUSH20 0xFFFFFFFFFFFFFFFFFFFFFFFFFFFFFFFFFFFFFFFF AND SUB PUSH2 0x3DC4 JUMPI PUSH1 0x40 MLOAD PUSH32 0x8C379A000000000000000000000000000000000000000000000000000000000 DUP2 MSTORE PUSH1 0x4 ADD PUSH2 0x3DBB SWAP1 PUSH2 0x71D9 JUMP JUMPDEST PUSH1 0x40 MLOAD DUP1 SWAP2 SUB SWAP1 REVERT JUMPDEST PUSH0 PUSH20 0xFFFFFFFFFFFFFFFFFFFFFFFFFFFFFFFFFFFFFFFF AND DUP3 PUSH20 0xFFFFFFFFFFFFFFFFFFFFFFFFFFFFFFFFFFFFFFFF AND SUB PUSH2 0x3E32 JUMPI PUSH1 0x40 MLOAD PUSH32 0x8C379A000000000000000000000000000000000000000000000000000000000 DUP2 MSTORE PUSH1 0x4 ADD PUSH2 0x3E29 SWAP1 PUSH2 0x7267 JUMP JUMPDEST PUSH1 0x40 MLOAD DUP1 SWAP2 SUB SWAP1 REVERT JUMPDEST PUSH0 PUSH2 0x3E3C ADDRESS PUSH2 0x186E JUMP JUMPDEST SWAP1 POP PUSH0 PUSH1 0x1E SLOAD PUSH1 0x1D SLOAD PUSH2 0x3E4F SWAP2 SWAP1 PUSH2 0x65C2 JUMP JUMPDEST SWAP1 POP PUSH0 PUSH1 0x18 SLOAD DUP3 LT ISZERO DUP1 ISZERO PUSH2 0x3E64 JUMPI POP DUP3 DUP3 GT ISZERO JUMPDEST SWAP1 POP PUSH1 0x15 PUSH0 SWAP1 SLOAD SWAP1 PUSH2 0x100 EXP SWAP1 DIV PUSH1 0xFF AND ISZERO DUP1 ISZERO PUSH2 0x3E7F JUMPI POP DUP1 JUMPDEST DUP1 ISZERO PUSH2 0x3EB3 JUMPI POP PUSH0 PUSH2 0x3EB1 PUSH1 0x1A PUSH0 SWAP1 SLOAD SWAP1 PUSH2 0x100 EXP SWAP1 DIV PUSH20 0xFFFFFFFFFFFFFFFFFFFFFFFFFFFFFFFFFFFFFFFF AND PUSH2 0x186E JUMP JUMPDEST GT JUMPDEST DUP1 ISZERO PUSH2 0x3F05 JUMPI POP PUSH1 0x1C PUSH0 DUP7 PUSH20 0xFFFFFFFFFFFFFFFFFFFFFFFFFFFFFFFFFFFFFFFF AND PUSH20 0xFFFFFFFFFFFFFFFFFFFFFFFFFFFFFFFFFFFFFFFF AND DUP2 MSTORE PUSH1 0x20 ADD SWAP1 DUP2 MSTORE PUSH1 0x20 ADD PUSH0 KECCAK256 PUSH0 SWAP1 SLOAD SWAP1 PUSH2 0x100 EXP SWAP1 DIV PUSH1 0xFF AND JUMPDEST ISZERO PUSH2 0x3F13 JUMPI PUSH2 0x3F12 PUSH2 0x4551 JUMP JUMPDEST JUMPDEST PUSH2 0x3F1B PUSH2 0x48E1 JUMP JUMPDEST PUSH1 0x15 PUSH0 SWAP1 SLOAD SWAP1 PUSH2 0x100 EXP SWAP1 DIV PUSH1 0xFF AND ISZERO DUP1 ISZERO PUSH2 0x3F7E JUMPI POP PUSH1 0x1B PUSH0 DUP8 PUSH20 0xFFFFFFFFFFFFFFFFFFFFFFFFFFFFFFFFFFFFFFFF AND PUSH20 0xFFFFFFFFFFFFFFFFFFFFFFFFFFFFFFFFFFFFFFFF AND DUP2 MSTORE PUSH1 0x20 ADD SWAP1 DUP2 MSTORE PUSH1 0x20 ADD PUSH0 KECCAK256 PUSH0 SWAP1 SLOAD SWAP1 PUSH2 0x100 EXP SWAP1 DIV PUSH1 0xFF AND ISZERO JUMPDEST DUP1 ISZERO PUSH2 0x3FD1 JUMPI POP PUSH1 0x1B PUSH0 DUP7 PUSH20 0xFFFFFFFFFFFFFFFFFFFFFFFFFFFFFFFFFFFFFFFF AND PUSH20 0xFFFFFFFFFFFFFFFFFFFFFFFFFFFFFFFFFFFFFFFF AND DUP2 MSTORE PUSH1 0x20 ADD SWAP1 DUP2 MSTORE PUSH1 0x20 ADD PUSH0 KECCAK256 PUSH0 SWAP1 SLOAD SWAP1 PUSH2 0x100 EXP SWAP1 DIV PUSH1 0xFF AND ISZERO JUMPDEST ISZERO PUSH2 0x419E JUMPI PUSH1 0x1C PUSH0 DUP8 PUSH20 0xFFFFFFFFFFFFFFFFFFFFFFFFFFFFFFFFFFFFFFFF AND PUSH20 0xFFFFFFFFFFFFFFFFFFFFFFFFFFFFFFFFFFFFFFFF AND DUP2 MSTORE PUSH1 0x20 ADD SWAP1 DUP2 MSTORE PUSH1 0x20 ADD PUSH0 KECCAK256 PUSH0 SWAP1 SLOAD SWAP1 PUSH2 0x100 EXP SWAP1 DIV PUSH1 0xFF AND ISZERO PUSH2 0x40BB JUMPI PUSH1 0x15 PUSH1 0x4 SWAP1 SLOAD SWAP1 PUSH2 0x100 EXP SWAP1 DIV PUSH3 0xFFFFFF AND PUSH3 0xFFFFFF AND PUSH1 0xB DUP2 SWAP1 SSTORE POP PUSH1 0x15 PUSH1 0xA SWAP1 SLOAD SWAP1 PUSH2 0x100 EXP SWAP1 DIV PUSH3 0xFFFFFF AND PUSH3 0xFFFFFF AND PUSH1 0xD DUP2 SWAP1 SSTORE POP PUSH1 0x15 PUSH1 0x10 SWAP1 SLOAD SWAP1 PUSH2 0x100 EXP SWAP1 DIV PUSH3 0xFFFFFF AND PUSH3 0xFFFFFF AND PUSH1 0xF DUP2 SWAP1 SSTORE POP PUSH1 0x15 PUSH1 0x16 SWAP1 SLOAD SWAP1 PUSH2 0x100 EXP SWAP1 DIV PUSH3 0xFFFFFF AND PUSH3 0xFFFFFF AND PUSH1 0x11 DUP2 SWAP1 SSTORE POP PUSH1 0x15 PUSH1 0x1C SWAP1 SLOAD SWAP1 PUSH2 0x100 EXP SWAP1 DIV PUSH3 0xFFFFFF AND PUSH3 0xFFFFFF AND PUSH1 0x13 DUP2 SWAP1 SSTORE POP PUSH2 0x419D JUMP JUMPDEST PUSH1 0x1C PUSH0 DUP7 PUSH20 0xFFFFFFFFFFFFFFFFFFFFFFFFFFFFFFFFFFFFFFFF AND PUSH20 0xFFFFFFFFFFFFFFFFFFFFFFFFFFFFFFFFFFFFFFFF AND DUP2 MSTORE PUSH1 0x20 ADD SWAP1 DUP2 MSTORE PUSH1 0x20 ADD PUSH0 KECCAK256 PUSH0 SWAP1 SLOAD SWAP1 PUSH2 0x100 EXP SWAP1 DIV PUSH1 0xFF AND ISZERO PUSH2 0x419C JUMPI PUSH1 0x15 PUSH1 0x1 SWAP1 SLOAD SWAP1 PUSH2 0x100 EXP SWAP1 DIV PUSH3 0xFFFFFF AND PUSH3 0xFFFFFF AND PUSH1 0xB DUP2 SWAP1 SSTORE POP PUSH1 0x15 PUSH1 0x7 SWAP1 SLOAD SWAP1 PUSH2 0x100 EXP SWAP1 DIV PUSH3 0xFFFFFF AND PUSH3 0xFFFFFF AND PUSH1 0xD DUP2 SWAP1 SSTORE POP PUSH1 0x15 PUSH1 0xD SWAP1 SLOAD SWAP1 PUSH2 0x100 EXP SWAP1 DIV PUSH3 0xFFFFFF AND PUSH3 0xFFFFFF AND PUSH1 0xF DUP2 SWAP1 SSTORE POP PUSH1 0x15 PUSH1 0x13 SWAP1 SLOAD SWAP1 PUSH2 0x100 EXP SWAP1 DIV PUSH3 0xFFFFFF AND PUSH3 0xFFFFFF AND PUSH1 0x11 DUP2 SWAP1 SSTORE POP PUSH1 0x15 PUSH1 0x19 SWAP1 SLOAD SWAP1 PUSH2 0x100 EXP SWAP1 DIV PUSH3 0xFFFFFF AND PUSH3 0xFFFFFF AND PUSH1 0x13 DUP2 SWAP1 SSTORE POP JUMPDEST JUMPDEST JUMPDEST PUSH2 0x41A9 DUP7 DUP7 DUP7 PUSH2 0x4933 JUMP JUMPDEST PUSH2 0x41B1 PUSH2 0x55BC JUMP JUMPDEST POP POP POP POP POP POP JUMP JUMPDEST PUSH0 PUSH0 PUSH0 PUSH2 0x41C4 PUSH2 0x55EB JUMP JUMPDEST SWAP2 POP SWAP2 POP DUP1 DUP3 PUSH2 0x41D4 SWAP2 SWAP1 PUSH2 0x64BC JUMP JUMPDEST SWAP3 POP POP POP SWAP1 JUMP JUMPDEST PUSH2 0x41E3 PUSH2 0x3B8C JUMP JUMPDEST PUSH20 0xFFFFFFFFFFFFFFFFFFFFFFFFFFFFFFFFFFFFFFFF AND PUSH2 0x4201 PUSH2 0x2101 JUMP JUMPDEST PUSH20 0xFFFFFFFFFFFFFFFFFFFFFFFFFFFFFFFFFFFFFFFF AND EQ PUSH2 0x4257 JUMPI PUSH1 0x40 MLOAD PUSH32 0x8C379A000000000000000000000000000000000000000000000000000000000 DUP2 MSTORE PUSH1 0x4 ADD PUSH2 0x424E SWAP1 PUSH2 0x72CF JUMP JUMPDEST PUSH1 0x40 MLOAD DUP1 SWAP2 SUB SWAP1 REVERT JUMPDEST JUMP JUMPDEST PUSH0 PUSH0 PUSH0 PUSH0 PUSH0 PUSH0 PUSH2 0x4268 DUP8 PUSH2 0x586E JUMP JUMPDEST SWAP1 POP PUSH0 PUSH2 0x4274 DUP9 PUSH2 0x5892 JUMP JUMPDEST SWAP1 POP PUSH0 PUSH2 0x4280 DUP10 PUSH2 0x58B6 JUMP JUMPDEST SWAP1 POP PUSH0 PUSH2 0x428C DUP11 PUSH2 0x58DA JUMP JUMPDEST SWAP1 POP PUSH0 PUSH2 0x4298 DUP12 PUSH2 0x58FE JUMP JUMPDEST SWAP1 POP DUP5 DUP5 DUP5 DUP5 DUP5 SWAP10 POP SWAP10 POP SWAP10 POP SWAP10 POP SWAP10 POP POP POP POP POP POP SWAP2 SWAP4 SWAP6 SWAP1 SWAP3 SWAP5 POP JUMP JUMPDEST PUSH0 PUSH0 PUSH0 SWAP1 SLOAD SWAP1 PUSH2 0x100 EXP SWAP1 DIV PUSH20 0xFFFFFFFFFFFFFFFFFFFFFFFFFFFFFFFFFFFFFFFF AND SWAP1 POP DUP2 PUSH0 PUSH0 PUSH2 0x100 EXP DUP2 SLOAD DUP2 PUSH20 0xFFFFFFFFFFFFFFFFFFFFFFFFFFFFFFFFFFFFFFFF MUL NOT AND SWAP1 DUP4 PUSH20 0xFFFFFFFFFFFFFFFFFFFFFFFFFFFFFFFFFFFFFFFF AND MUL OR SWAP1 SSTORE POP DUP2 PUSH20 0xFFFFFFFFFFFFFFFFFFFFFFFFFFFFFFFFFFFFFFFF AND DUP2 PUSH20 0xFFFFFFFFFFFFFFFFFFFFFFFFFFFFFFFFFFFFFFFF AND PUSH32 0x8BE0079C531659141344CD1FD0A4F28419497F9722A3DAAFE3B4186F6B6457E0 PUSH1 0x40 MLOAD PUSH1 0x40 MLOAD DUP1 SWAP2 SUB SWAP1 LOG3 POP POP JUMP JUMPDEST PUSH2 0x43F9 DUP4 PUSH4 0xA9059CBB PUSH1 0xE0 SHL DUP5 DUP5 PUSH1 0x40 MLOAD PUSH1 0x24 ADD PUSH2 0x4397 SWAP3 SWAP2 SWAP1 PUSH2 0x72ED JUMP JUMPDEST PUSH1 0x40 MLOAD PUSH1 0x20 DUP2 DUP4 SUB SUB DUP2 MSTORE SWAP1 PUSH1 0x40 MSTORE SWAP1 PUSH28 0xFFFFFFFFFFFFFFFFFFFFFFFFFFFFFFFFFFFFFFFFFFFFFFFFFFFFFFFF NOT AND PUSH1 0x20 DUP3 ADD DUP1 MLOAD PUSH28 0xFFFFFFFFFFFFFFFFFFFFFFFFFFFFFFFFFFFFFFFFFFFFFFFFFFFFFFFF DUP4 DUP2 DUP4 AND OR DUP4 MSTORE POP POP POP POP PUSH2 0x5922 JUMP JUMPDEST POP POP POP JUMP JUMPDEST DUP1 ISZERO ISZERO PUSH1 0x1C PUSH0 DUP5 PUSH20 0xFFFFFFFFFFFFFFFFFFFFFFFFFFFFFFFFFFFFFFFF AND PUSH20 0xFFFFFFFFFFFFFFFFFFFFFFFFFFFFFFFFFFFFFFFF AND DUP2 MSTORE PUSH1 0x20 ADD SWAP1 DUP2 MSTORE PUSH1 0x20 ADD PUSH0 KECCAK256 PUSH0 SWAP1 SLOAD SWAP1 PUSH2 0x100 EXP SWAP1 DIV PUSH1 0xFF AND ISZERO ISZERO SUB PUSH2 0x448D JUMPI PUSH1 0x40 MLOAD PUSH32 0x8C379A000000000000000000000000000000000000000000000000000000000 DUP2 MSTORE PUSH1 0x4 ADD PUSH2 0x4484 SWAP1 PUSH2 0x7384 JUMP JUMPDEST PUSH1 0x40 MLOAD DUP1 SWAP2 SUB SWAP1 REVERT JUMPDEST DUP1 PUSH1 0x1C PUSH0 DUP5 PUSH20 0xFFFFFFFFFFFFFFFFFFFFFFFFFFFFFFFFFFFFFFFF AND PUSH20 0xFFFFFFFFFFFFFFFFFFFFFFFFFFFFFFFFFFFFFFFF AND DUP2 MSTORE PUSH1 0x20 ADD SWAP1 DUP2 MSTORE PUSH1 0x20 ADD PUSH0 KECCAK256 PUSH0 PUSH2 0x100 EXP DUP2 SLOAD DUP2 PUSH1 0xFF MUL NOT AND SWAP1 DUP4 ISZERO ISZERO MUL OR SWAP1 SSTORE POP DUP1 ISZERO PUSH2 0x44F5 JUMPI PUSH2 0x44F0 DUP3 PUSH2 0x15BB JUMP JUMPDEST PUSH2 0x44FF JUMP JUMPDEST PUSH2 0x44FE DUP3 PUSH2 0xDC3 JUMP JUMPDEST JUMPDEST DUP2 PUSH20 0xFFFFFFFFFFFFFFFFFFFFFFFFFFFFFFFFFFFFFFFF AND PUSH32 0xFFA9187BF1F18BF477BD0EA1BCBB64E93B6A98132473929EDFCE215CD9B16FAB DUP3 PUSH1 0x40 MLOAD PUSH2 0x4545 SWAP2 SWAP1 PUSH2 0x600B JUMP JUMPDEST PUSH1 0x40 MLOAD DUP1 SWAP2 SUB SWAP1 LOG2 POP POP JUMP JUMPDEST PUSH1 0x1 PUSH1 0x15 PUSH0 PUSH2 0x100 EXP DUP2 SLOAD DUP2 PUSH1 0xFF MUL NOT AND SWAP1 DUP4 ISZERO ISZERO MUL OR SWAP1 SSTORE POP PUSH0 PUSH1 0x2 PUSH1 0x1D SLOAD PUSH2 0x457B SWAP2 SWAP1 PUSH2 0x64BC JUMP JUMPDEST SWAP1 POP PUSH0 SELFBALANCE SWAP1 POP PUSH0 PUSH0 PUSH0 PUSH1 0x1F SLOAD PUSH1 0x1E SLOAD DUP7 PUSH2 0x4595 SWAP2 SWAP1 PUSH2 0x65C2 JUMP JUMPDEST PUSH2 0x459F SWAP2 SWAP1 PUSH2 0x65C2 JUMP JUMPDEST SWAP1 POP PUSH0 DUP2 GT ISZERO PUSH2 0x45B3 JUMPI PUSH2 0x45B2 DUP2 PUSH2 0x59E8 JUMP JUMPDEST JUMPDEST PUSH0 DUP5 SELFBALANCE PUSH2 0x45C0 SWAP2 SWAP1 PUSH2 0x63CE JUMP JUMPDEST SWAP1 POP PUSH0 DUP3 PUSH1 0x1E SLOAD DUP4 PUSH2 0x45D2 SWAP2 SWAP1 PUSH2 0x6581 JUMP JUMPDEST PUSH2 0x45DC SWAP2 SWAP1 PUSH2 0x64BC JUMP JUMPDEST SWAP1 POP DUP3 DUP8 DUP4 PUSH2 0x45EB SWAP2 SWAP1 PUSH2 0x6581 JUMP JUMPDEST PUSH2 0x45F5 SWAP2 SWAP1 PUSH2 0x64BC JUMP JUMPDEST SWAP5 POP DUP5 DUP2 DUP4 PUSH2 0x4604 SWAP2 SWAP1 PUSH2 0x63CE JUMP JUMPDEST PUSH2 0x460E SWAP2 SWAP1 PUSH2 0x63CE JUMP JUMPDEST SWAP4 POP PUSH0 DUP2 GT ISZERO PUSH2 0x46E3 JUMPI PUSH0 PUSH1 0x16 PUSH0 SWAP1 SLOAD SWAP1 PUSH2 0x100 EXP SWAP1 DIV PUSH20 0xFFFFFFFFFFFFFFFFFFFFFFFFFFFFFFFFFFFFFFFF AND PUSH20 0xFFFFFFFFFFFFFFFFFFFFFFFFFFFFFFFFFFFFFFFF AND DUP3 PUSH1 0x40 MLOAD PUSH2 0x465E SWAP1 PUSH2 0x6F43 JUMP JUMPDEST PUSH0 PUSH1 0x40 MLOAD DUP1 DUP4 SUB DUP2 DUP6 DUP8 GAS CALL SWAP3 POP POP POP RETURNDATASIZE DUP1 PUSH0 DUP2 EQ PUSH2 0x4698 JUMPI PUSH1 0x40 MLOAD SWAP2 POP PUSH1 0x1F NOT PUSH1 0x3F RETURNDATASIZE ADD AND DUP3 ADD PUSH1 0x40 MSTORE RETURNDATASIZE DUP3 MSTORE RETURNDATASIZE PUSH0 PUSH1 0x20 DUP5 ADD RETURNDATACOPY PUSH2 0x469D JUMP JUMPDEST PUSH1 0x60 SWAP2 POP JUMPDEST POP POP SWAP1 POP DUP1 ISZERO PUSH2 0x46E1 JUMPI PUSH32 0x6F92BCE3E91466137AA4D5474FE565C002872FB18ED6AF4A856959BE0A81277A PUSH0 DUP4 PUSH1 0x40 MLOAD PUSH2 0x46D8 SWAP3 SWAP2 SWAP1 PUSH2 0x73A2 JUMP JUMPDEST PUSH1 0x40 MLOAD DUP1 SWAP2 SUB SWAP1 LOG1 JUMPDEST POP JUMPDEST PUSH0 DUP8 GT DUP1 ISZERO PUSH2 0x46F1 JUMPI POP PUSH0 DUP6 GT JUMPDEST ISZERO PUSH2 0x473A JUMPI PUSH2 0x4700 DUP8 DUP7 PUSH2 0x5BF2 JUMP JUMPDEST PUSH32 0x28FC98272CE761178794AD6768050FEA1648E07F1E2FFE15AFD3A290F8381486 DUP8 DUP7 PUSH1 0x40 MLOAD PUSH2 0x4731 SWAP3 SWAP2 SWAP1 PUSH2 0x6A27 JUMP JUMPDEST PUSH1 0x40 MLOAD DUP1 SWAP2 SUB SWAP1 LOG1 JUMPDEST PUSH0 DUP5 GT ISZERO PUSH2 0x480B JUMPI PUSH0 PUSH1 0x17 PUSH0 SWAP1 SLOAD SWAP1 PUSH2 0x100 EXP SWAP1 DIV PUSH20 0xFFFFFFFFFFFFFFFFFFFFFFFFFFFFFFFFFFFFFFFF AND PUSH20 0xFFFFFFFFFFFFFFFFFFFFFFFFFFFFFFFFFFFFFFFF AND DUP6 PUSH1 0x40 MLOAD PUSH2 0x4788 SWAP1 PUSH2 0x6F43 JUMP JUMPDEST PUSH0 PUSH1 0x40 MLOAD DUP1 DUP4 SUB DUP2 DUP6 DUP8 GAS CALL SWAP3 POP POP POP RETURNDATASIZE DUP1 PUSH0 DUP2 EQ PUSH2 0x47C2 JUMPI PUSH1 0x40 MLOAD SWAP2 POP PUSH1 0x1F NOT PUSH1 0x3F RETURNDATASIZE ADD AND DUP3 ADD PUSH1 0x40 MSTORE RETURNDATASIZE DUP3 MSTORE RETURNDATASIZE PUSH0 PUSH1 0x20 DUP5 ADD RETURNDATACOPY PUSH2 0x47C7 JUMP JUMPDEST PUSH1 0x60 SWAP2 POP JUMPDEST POP POP SWAP1 POP DUP1 ISZERO PUSH2 0x4809 JUMPI PUSH32 0xE3630E0003FB3E9F9D835BB839022E52FFD576F9F35C395DD17517106F78CB33 DUP6 PUSH1 0x40 MLOAD PUSH2 0x4800 SWAP2 SWAP1 PUSH2 0x6069 JUMP JUMPDEST PUSH1 0x40 MLOAD DUP1 SWAP2 SUB SWAP1 LOG1 JUMPDEST POP JUMPDEST PUSH0 PUSH1 0x1E DUP2 SWAP1 SSTORE POP PUSH0 PUSH1 0x1F DUP2 SWAP1 SSTORE POP PUSH0 PUSH1 0x1D DUP2 SWAP1 SSTORE POP PUSH0 PUSH2 0x482A ADDRESS PUSH2 0x186E JUMP JUMPDEST GT ISZERO PUSH2 0x48BF JUMPI PUSH0 PUSH20 0xFFFFFFFFFFFFFFFFFFFFFFFFFFFFFFFFFFFFFFFF AND PUSH2 0x484F PUSH2 0x2101 JUMP JUMPDEST PUSH20 0xFFFFFFFFFFFFFFFFFFFFFFFFFFFFFFFFFFFFFFFF AND EQ PUSH2 0x4889 JUMPI PUSH2 0x4884 ADDRESS PUSH2 0x4876 PUSH2 0x2101 JUMP JUMPDEST PUSH2 0x487F ADDRESS PUSH2 0x186E JUMP JUMPDEST PUSH2 0x3D56 JUMP JUMPDEST PUSH2 0x48BE JUMP JUMPDEST PUSH2 0x48BD ADDRESS PUSH1 0x17 PUSH0 SWAP1 SLOAD SWAP1 PUSH2 0x100 EXP SWAP1 DIV PUSH20 0xFFFFFFFFFFFFFFFFFFFFFFFFFFFFFFFFFFFFFFFF AND PUSH2 0x48B8 ADDRESS PUSH2 0x186E JUMP JUMPDEST PUSH2 0x3D56 JUMP JUMPDEST JUMPDEST JUMPDEST POP POP POP POP POP POP POP PUSH0 PUSH1 0x15 PUSH0 PUSH2 0x100 EXP DUP2 SLOAD DUP2 PUSH1 0xFF MUL NOT AND SWAP1 DUP4 ISZERO ISZERO MUL OR SWAP1 SSTORE POP JUMP JUMPDEST PUSH1 0xB SLOAD PUSH1 0xC DUP2 SWAP1 SSTORE POP PUSH1 0xD SLOAD PUSH1 0xE DUP2 SWAP1 SSTORE POP PUSH1 0xF SLOAD PUSH1 0x10 DUP2 SWAP1 SSTORE POP PUSH1 0x11 SLOAD PUSH1 0x12 DUP2 SWAP1 SSTORE POP PUSH1 0x13 SLOAD PUSH1 0x14 DUP2 SWAP1 SSTORE POP PUSH0 PUSH1 0x13 DUP2 SWAP1 SSTORE POP PUSH0 PUSH1 0x11 DUP2 SWAP1 SSTORE POP PUSH0 PUSH1 0xF DUP2 SWAP1 SSTORE POP PUSH0 PUSH1 0xB DUP2 SWAP1 SSTORE POP PUSH0 PUSH1 0xD DUP2 SWAP1 SSTORE POP JUMP JUMPDEST PUSH0 PUSH0 PUSH0 PUSH0 PUSH0 PUSH2 0x4941 DUP7 PUSH2 0x4259 JUMP JUMPDEST SWAP5 POP SWAP5 POP SWAP5 POP SWAP5 POP SWAP5 POP PUSH0 DUP2 DUP4 DUP6 DUP8 DUP10 DUP12 PUSH2 0x495C SWAP2 SWAP1 PUSH2 0x63CE JUMP JUMPDEST PUSH2 0x4966 SWAP2 SWAP1 PUSH2 0x63CE JUMP JUMPDEST PUSH2 0x4970 SWAP2 SWAP1 PUSH2 0x63CE JUMP JUMPDEST PUSH2 0x497A SWAP2 SWAP1 PUSH2 0x63CE JUMP JUMPDEST PUSH2 0x4984 SWAP2 SWAP1 PUSH2 0x63CE JUMP JUMPDEST SWAP1 POP PUSH0 PUSH2 0x498F PUSH2 0x41B9 JUMP JUMPDEST SWAP1 POP DUP3 PUSH1 0x6 SLOAD PUSH2 0x499F SWAP2 SWAP1 PUSH2 0x63CE JUMP JUMPDEST PUSH1 0x6 DUP2 SWAP1 SSTORE POP DUP1 DUP4 PUSH2 0x49B1 SWAP2 SWAP1 PUSH2 0x6581 JUMP JUMPDEST PUSH1 0x7 SLOAD PUSH2 0x49BE SWAP2 SWAP1 PUSH2 0x63CE JUMP JUMPDEST PUSH1 0x7 DUP2 SWAP1 SSTORE POP PUSH0 DUP4 GT ISZERO PUSH2 0x4A32 JUMPI PUSH0 PUSH20 0xFFFFFFFFFFFFFFFFFFFFFFFFFFFFFFFFFFFFFFFF AND DUP11 PUSH20 0xFFFFFFFFFFFFFFFFFFFFFFFFFFFFFFFFFFFFFFFF AND PUSH32 0xDDF252AD1BE2C89B69C2B068FC378DAA952BA7F163C4A11628F55A4DF523B3EF DUP6 PUSH1 0x40 MLOAD PUSH2 0x4A29 SWAP2 SWAP1 PUSH2 0x6069 JUMP JUMPDEST PUSH1 0x40 MLOAD DUP1 SWAP2 SUB SWAP1 LOG3 JUMPDEST DUP6 PUSH1 0x1D SLOAD PUSH2 0x4A40 SWAP2 SWAP1 PUSH2 0x65C2 JUMP JUMPDEST PUSH1 0x1D DUP2 SWAP1 SSTORE POP DUP5 PUSH1 0x1E SLOAD PUSH2 0x4A54 SWAP2 SWAP1 PUSH2 0x65C2 JUMP JUMPDEST PUSH1 0x1E DUP2 SWAP1 SSTORE POP DUP4 PUSH1 0x1F SLOAD PUSH2 0x4A68 SWAP2 SWAP1 PUSH2 0x65C2 JUMP JUMPDEST PUSH1 0x1F DUP2 SWAP1 SSTORE POP PUSH0 DUP5 DUP7 DUP9 PUSH2 0x4A7C SWAP2 SWAP1 PUSH2 0x65C2 JUMP JUMPDEST PUSH2 0x4A86 SWAP2 SWAP1 PUSH2 0x65C2 JUMP JUMPDEST SWAP1 POP DUP2 DUP2 PUSH2 0x4A94 SWAP2 SWAP1 PUSH2 0x6581 JUMP JUMPDEST PUSH1 0x1 PUSH0 ADDRESS PUSH20 0xFFFFFFFFFFFFFFFFFFFFFFFFFFFFFFFFFFFFFFFF AND PUSH20 0xFFFFFFFFFFFFFFFFFFFFFFFFFFFFFFFFFFFFFFFF AND DUP2 MSTORE PUSH1 0x20 ADD SWAP1 DUP2 MSTORE PUSH1 0x20 ADD PUSH0 KECCAK256 SLOAD PUSH2 0x4ADC SWAP2 SWAP1 PUSH2 0x65C2 JUMP JUMPDEST PUSH1 0x1 PUSH0 ADDRESS PUSH20 0xFFFFFFFFFFFFFFFFFFFFFFFFFFFFFFFFFFFFFFFF AND PUSH20 0xFFFFFFFFFFFFFFFFFFFFFFFFFFFFFFFFFFFFFFFF AND DUP2 MSTORE PUSH1 0x20 ADD SWAP1 DUP2 MSTORE PUSH1 0x20 ADD PUSH0 KECCAK256 DUP2 SWAP1 SSTORE POP PUSH1 0x4 PUSH0 ADDRESS PUSH20 0xFFFFFFFFFFFFFFFFFFFFFFFFFFFFFFFFFFFFFFFF AND PUSH20 0xFFFFFFFFFFFFFFFFFFFFFFFFFFFFFFFFFFFFFFFF AND DUP2 MSTORE PUSH1 0x20 ADD SWAP1 DUP2 MSTORE PUSH1 0x20 ADD PUSH0 KECCAK256 PUSH0 SWAP1 SLOAD SWAP1 PUSH2 0x100 EXP SWAP1 DIV PUSH1 0xFF AND ISZERO PUSH2 0x4BF7 JUMPI DUP1 PUSH1 0x2 PUSH0 ADDRESS PUSH20 0xFFFFFFFFFFFFFFFFFFFFFFFFFFFFFFFFFFFFFFFF AND PUSH20 0xFFFFFFFFFFFFFFFFFFFFFFFFFFFFFFFFFFFFFFFF AND DUP2 MSTORE PUSH1 0x20 ADD SWAP1 DUP2 MSTORE PUSH1 0x20 ADD PUSH0 KECCAK256 SLOAD PUSH2 0x4BB5 SWAP2 SWAP1 PUSH2 0x65C2 JUMP JUMPDEST PUSH1 0x2 PUSH0 ADDRESS PUSH20 0xFFFFFFFFFFFFFFFFFFFFFFFFFFFFFFFFFFFFFFFF AND PUSH20 0xFFFFFFFFFFFFFFFFFFFFFFFFFFFFFFFFFFFFFFFF AND DUP2 MSTORE PUSH1 0x20 ADD SWAP1 DUP2 MSTORE PUSH1 0x20 ADD PUSH0 KECCAK256 DUP2 SWAP1 SSTORE POP JUMPDEST PUSH0 DUP2 GT ISZERO PUSH2 0x4C65 JUMPI ADDRESS PUSH20 0xFFFFFFFFFFFFFFFFFFFFFFFFFFFFFFFFFFFFFFFF AND DUP12 PUSH20 0xFFFFFFFFFFFFFFFFFFFFFFFFFFFFFFFFFFFFFFFF AND PUSH32 0xDDF252AD1BE2C89B69C2B068FC378DAA952BA7F163C4A11628F55A4DF523B3EF DUP4 PUSH1 0x40 MLOAD PUSH2 0x4C5C SWAP2 SWAP1 PUSH2 0x6069 JUMP JUMPDEST PUSH1 0x40 MLOAD DUP1 SWAP2 SUB SWAP1 LOG3 JUMPDEST POP PUSH1 0x4 PUSH0 DUP12 PUSH20 0xFFFFFFFFFFFFFFFFFFFFFFFFFFFFFFFFFFFFFFFF AND PUSH20 0xFFFFFFFFFFFFFFFFFFFFFFFFFFFFFFFFFFFFFFFF AND DUP2 MSTORE PUSH1 0x20 ADD SWAP1 DUP2 MSTORE PUSH1 0x20 ADD PUSH0 KECCAK256 PUSH0 SWAP1 SLOAD SWAP1 PUSH2 0x100 EXP SWAP1 DIV PUSH1 0xFF AND DUP1 ISZERO PUSH2 0x4D03 JUMPI POP PUSH1 0x4 PUSH0 DUP11 PUSH20 0xFFFFFFFFFFFFFFFFFFFFFFFFFFFFFFFFFFFFFFFF AND PUSH20 0xFFFFFFFFFFFFFFFFFFFFFFFFFFFFFFFFFFFFFFFF AND DUP2 MSTORE PUSH1 0x20 ADD SWAP1 DUP2 MSTORE PUSH1 0x20 ADD PUSH0 KECCAK256 PUSH0 SWAP1 SLOAD SWAP1 PUSH2 0x100 EXP SWAP1 DIV PUSH1 0xFF AND ISZERO JUMPDEST ISZERO PUSH2 0x4EC1 JUMPI DUP8 PUSH1 0x2 PUSH0 DUP13 PUSH20 0xFFFFFFFFFFFFFFFFFFFFFFFFFFFFFFFFFFFFFFFF AND PUSH20 0xFFFFFFFFFFFFFFFFFFFFFFFFFFFFFFFFFFFFFFFF AND DUP2 MSTORE PUSH1 0x20 ADD SWAP1 DUP2 MSTORE PUSH1 0x20 ADD PUSH0 KECCAK256 SLOAD PUSH2 0x4D51 SWAP2 SWAP1 PUSH2 0x63CE JUMP JUMPDEST PUSH1 0x2 PUSH0 DUP13 PUSH20 0xFFFFFFFFFFFFFFFFFFFFFFFFFFFFFFFFFFFFFFFF AND PUSH20 0xFFFFFFFFFFFFFFFFFFFFFFFFFFFFFFFFFFFFFFFF AND DUP2 MSTORE PUSH1 0x20 ADD SWAP1 DUP2 MSTORE PUSH1 0x20 ADD PUSH0 KECCAK256 DUP2 SWAP1 SSTORE POP DUP1 DUP9 PUSH2 0x4D9E SWAP2 SWAP1 PUSH2 0x6581 JUMP JUMPDEST PUSH1 0x1 PUSH0 DUP13 PUSH20 0xFFFFFFFFFFFFFFFFFFFFFFFFFFFFFFFFFFFFFFFF AND PUSH20 0xFFFFFFFFFFFFFFFFFFFFFFFFFFFFFFFFFFFFFFFF AND DUP2 MSTORE PUSH1 0x20 ADD SWAP1 DUP2 MSTORE PUSH1 0x20 ADD PUSH0 KECCAK256 SLOAD PUSH2 0x4DE6 SWAP2 SWAP1 PUSH2 0x63CE JUMP JUMPDEST PUSH1 0x1 PUSH0 DUP13 PUSH20 0xFFFFFFFFFFFFFFFFFFFFFFFFFFFFFFFFFFFFFFFF AND PUSH20 0xFFFFFFFFFFFFFFFFFFFFFFFFFFFFFFFFFFFFFFFF AND DUP2 MSTORE PUSH1 0x20 ADD SWAP1 DUP2 MSTORE PUSH1 0x20 ADD PUSH0 KECCAK256 DUP2 SWAP1 SSTORE POP DUP1 DUP3 PUSH2 0x4E33 SWAP2 SWAP1 PUSH2 0x6581 JUMP JUMPDEST PUSH1 0x1 PUSH0 DUP12 PUSH20 0xFFFFFFFFFFFFFFFFFFFFFFFFFFFFFFFFFFFFFFFF AND PUSH20 0xFFFFFFFFFFFFFFFFFFFFFFFFFFFFFFFFFFFFFFFF AND DUP2 MSTORE PUSH1 0x20 ADD SWAP1 DUP2 MSTORE PUSH1 0x20 ADD PUSH0 KECCAK256 SLOAD PUSH2 0x4E7B SWAP2 SWAP1 PUSH2 0x65C2 JUMP JUMPDEST PUSH1 0x1 PUSH0 DUP12 PUSH20 0xFFFFFFFFFFFFFFFFFFFFFFFFFFFFFFFFFFFFFFFF AND PUSH20 0xFFFFFFFFFFFFFFFFFFFFFFFFFFFFFFFFFFFFFFFF AND DUP2 MSTORE PUSH1 0x20 ADD SWAP1 DUP2 MSTORE PUSH1 0x20 ADD PUSH0 KECCAK256 DUP2 SWAP1 SSTORE POP PUSH2 0x552D JUMP JUMPDEST PUSH1 0x4 PUSH0 DUP12 PUSH20 0xFFFFFFFFFFFFFFFFFFFFFFFFFFFFFFFFFFFFFFFF AND PUSH20 0xFFFFFFFFFFFFFFFFFFFFFFFFFFFFFFFFFFFFFFFF AND DUP2 MSTORE PUSH1 0x20 ADD SWAP1 DUP2 MSTORE PUSH1 0x20 ADD PUSH0 KECCAK256 PUSH0 SWAP1 SLOAD SWAP1 PUSH2 0x100 EXP SWAP1 DIV PUSH1 0xFF AND ISZERO DUP1 ISZERO PUSH2 0x4F5E JUMPI POP PUSH1 0x4 PUSH0 DUP11 PUSH20 0xFFFFFFFFFFFFFFFFFFFFFFFFFFFFFFFFFFFFFFFF AND PUSH20 0xFFFFFFFFFFFFFFFFFFFFFFFFFFFFFFFFFFFFFFFF AND DUP2 MSTORE PUSH1 0x20 ADD SWAP1 DUP2 MSTORE PUSH1 0x20 ADD PUSH0 KECCAK256 PUSH0 SWAP1 SLOAD SWAP1 PUSH2 0x100 EXP SWAP1 DIV PUSH1 0xFF AND JUMPDEST ISZERO PUSH2 0x511C JUMPI DUP1 DUP9 PUSH2 0x4F6F SWAP2 SWAP1 PUSH2 0x6581 JUMP JUMPDEST PUSH1 0x1 PUSH0 DUP13 PUSH20 0xFFFFFFFFFFFFFFFFFFFFFFFFFFFFFFFFFFFFFFFF AND PUSH20 0xFFFFFFFFFFFFFFFFFFFFFFFFFFFFFFFFFFFFFFFF AND DUP2 MSTORE PUSH1 0x20 ADD SWAP1 DUP2 MSTORE PUSH1 0x20 ADD PUSH0 KECCAK256 SLOAD PUSH2 0x4FB7 SWAP2 SWAP1 PUSH2 0x63CE JUMP JUMPDEST PUSH1 0x1 PUSH0 DUP13 PUSH20 0xFFFFFFFFFFFFFFFFFFFFFFFFFFFFFFFFFFFFFFFF AND PUSH20 0xFFFFFFFFFFFFFFFFFFFFFFFFFFFFFFFFFFFFFFFF AND DUP2 MSTORE PUSH1 0x20 ADD SWAP1 DUP2 MSTORE PUSH1 0x20 ADD PUSH0 KECCAK256 DUP2 SWAP1 SSTORE POP DUP2 PUSH1 0x2 PUSH0 DUP12 PUSH20 0xFFFFFFFFFFFFFFFFFFFFFFFFFFFFFFFFFFFFFFFF AND PUSH20 0xFFFFFFFFFFFFFFFFFFFFFFFFFFFFFFFFFFFFFFFF AND DUP2 MSTORE PUSH1 0x20 ADD SWAP1 DUP2 MSTORE PUSH1 0x20 ADD PUSH0 KECCAK256 SLOAD PUSH2 0x5041 SWAP2 SWAP1 PUSH2 0x65C2 JUMP JUMPDEST PUSH1 0x2 PUSH0 DUP12 PUSH20 0xFFFFFFFFFFFFFFFFFFFFFFFFFFFFFFFFFFFFFFFF AND PUSH20 0xFFFFFFFFFFFFFFFFFFFFFFFFFFFFFFFFFFFFFFFF AND DUP2 MSTORE PUSH1 0x20 ADD SWAP1 DUP2 MSTORE PUSH1 0x20 ADD PUSH0 KECCAK256 DUP2 SWAP1 SSTORE POP DUP1 DUP3 PUSH2 0x508E SWAP2 SWAP1 PUSH2 0x6581 JUMP JUMPDEST PUSH1 0x1 PUSH0 DUP12 PUSH20 0xFFFFFFFFFFFFFFFFFFFFFFFFFFFFFFFFFFFFFFFF AND PUSH20 0xFFFFFFFFFFFFFFFFFFFFFFFFFFFFFFFFFFFFFFFF AND DUP2 MSTORE PUSH1 0x20 ADD SWAP1 DUP2 MSTORE PUSH1 0x20 ADD PUSH0 KECCAK256 SLOAD PUSH2 0x50D6 SWAP2 SWAP1 PUSH2 0x65C2 JUMP JUMPDEST PUSH1 0x1 PUSH0 DUP12 PUSH20 0xFFFFFFFFFFFFFFFFFFFFFFFFFFFFFFFFFFFFFFFF AND PUSH20 0xFFFFFFFFFFFFFFFFFFFFFFFFFFFFFFFFFFFFFFFF AND DUP2 MSTORE PUSH1 0x20 ADD SWAP1 DUP2 MSTORE PUSH1 0x20 ADD PUSH0 KECCAK256 DUP2 SWAP1 SSTORE POP PUSH2 0x552C JUMP JUMPDEST PUSH1 0x4 PUSH0 DUP12 PUSH20 0xFFFFFFFFFFFFFFFFFFFFFFFFFFFFFFFFFFFFFFFF AND PUSH20 0xFFFFFFFFFFFFFFFFFFFFFFFFFFFFFFFFFFFFFFFF AND DUP2 MSTORE PUSH1 0x20 ADD SWAP1 DUP2 MSTORE PUSH1 0x20 ADD PUSH0 KECCAK256 PUSH0 SWAP1 SLOAD SWAP1 PUSH2 0x100 EXP SWAP1 DIV PUSH1 0xFF AND DUP1 ISZERO PUSH2 0x51B8 JUMPI POP PUSH1 0x4 PUSH0 DUP11 PUSH20 0xFFFFFFFFFFFFFFFFFFFFFFFFFFFFFFFFFFFFFFFF AND PUSH20 0xFFFFFFFFFFFFFFFFFFFFFFFFFFFFFFFFFFFFFFFF AND DUP2 MSTORE PUSH1 0x20 ADD SWAP1 DUP2 MSTORE PUSH1 0x20 ADD PUSH0 KECCAK256 PUSH0 SWAP1 SLOAD SWAP1 PUSH2 0x100 EXP SWAP1 DIV PUSH1 0xFF AND JUMPDEST ISZERO PUSH2 0x5400 JUMPI DUP8 PUSH1 0x2 PUSH0 DUP13 PUSH20 0xFFFFFFFFFFFFFFFFFFFFFFFFFFFFFFFFFFFFFFFF AND PUSH20 0xFFFFFFFFFFFFFFFFFFFFFFFFFFFFFFFFFFFFFFFF AND DUP2 MSTORE PUSH1 0x20 ADD SWAP1 DUP2 MSTORE PUSH1 0x20 ADD PUSH0 KECCAK256 SLOAD PUSH2 0x5206 SWAP2 SWAP1 PUSH2 0x63CE JUMP JUMPDEST PUSH1 0x2 PUSH0 DUP13 PUSH20 0xFFFFFFFFFFFFFFFFFFFFFFFFFFFFFFFFFFFFFFFF AND PUSH20 0xFFFFFFFFFFFFFFFFFFFFFFFFFFFFFFFFFFFFFFFF AND DUP2 MSTORE PUSH1 0x20 ADD SWAP1 DUP2 MSTORE PUSH1 0x20 ADD PUSH0 KECCAK256 DUP2 SWAP1 SSTORE POP DUP1 DUP9 PUSH2 0x5253 SWAP2 SWAP1 PUSH2 0x6581 JUMP JUMPDEST PUSH1 0x1 PUSH0 DUP13 PUSH20 0xFFFFFFFFFFFFFFFFFFFFFFFFFFFFFFFFFFFFFFFF AND PUSH20 0xFFFFFFFFFFFFFFFFFFFFFFFFFFFFFFFFFFFFFFFF AND DUP2 MSTORE PUSH1 0x20 ADD SWAP1 DUP2 MSTORE PUSH1 0x20 ADD PUSH0 KECCAK256 SLOAD PUSH2 0x529B SWAP2 SWAP1 PUSH2 0x63CE JUMP JUMPDEST PUSH1 0x1 PUSH0 DUP13 PUSH20 0xFFFFFFFFFFFFFFFFFFFFFFFFFFFFFFFFFFFFFFFF AND PUSH20 0xFFFFFFFFFFFFFFFFFFFFFFFFFFFFFFFFFFFFFFFF AND DUP2 MSTORE PUSH1 0x20 ADD SWAP1 DUP2 MSTORE PUSH1 0x20 ADD PUSH0 KECCAK256 DUP2 SWAP1 SSTORE POP DUP2 PUSH1 0x2 PUSH0 DUP12 PUSH20 0xFFFFFFFFFFFFFFFFFFFFFFFFFFFFFFFFFFFFFFFF AND PUSH20 0xFFFFFFFFFFFFFFFFFFFFFFFFFFFFFFFFFFFFFFFF AND DUP2 MSTORE PUSH1 0x20 ADD SWAP1 DUP2 MSTORE PUSH1 0x20 ADD PUSH0 KECCAK256 SLOAD PUSH2 0x5325 SWAP2 SWAP1 PUSH2 0x65C2 JUMP JUMPDEST PUSH1 0x2 PUSH0 DUP12 PUSH20 0xFFFFFFFFFFFFFFFFFFFFFFFFFFFFFFFFFFFFFFFF AND PUSH20 0xFFFFFFFFFFFFFFFFFFFFFFFFFFFFFFFFFFFFFFFF AND DUP2 MSTORE PUSH1 0x20 ADD SWAP1 DUP2 MSTORE PUSH1 0x20 ADD PUSH0 KECCAK256 DUP2 SWAP1 SSTORE POP DUP1 DUP3 PUSH2 0x5372 SWAP2 SWAP1 PUSH2 0x6581 JUMP JUMPDEST PUSH1 0x1 PUSH0 DUP12 PUSH20 0xFFFFFFFFFFFFFFFFFFFFFFFFFFFFFFFFFFFFFFFF AND PUSH20 0xFFFFFFFFFFFFFFFFFFFFFFFFFFFFFFFFFFFFFFFF AND DUP2 MSTORE PUSH1 0x20 ADD SWAP1 DUP2 MSTORE PUSH1 0x20 ADD PUSH0 KECCAK256 SLOAD PUSH2 0x53BA SWAP2 SWAP1 PUSH2 0x65C2 JUMP JUMPDEST PUSH1 0x1 PUSH0 DUP12 PUSH20 0xFFFFFFFFFFFFFFFFFFFFFFFFFFFFFFFFFFFFFFFF AND PUSH20 0xFFFFFFFFFFFFFFFFFFFFFFFFFFFFFFFFFFFFFFFF AND DUP2 MSTORE PUSH1 0x20 ADD SWAP1 DUP2 MSTORE PUSH1 0x20 ADD PUSH0 KECCAK256 DUP2 SWAP1 SSTORE POP PUSH2 0x552B JUMP JUMPDEST DUP1 DUP9 PUSH2 0x540C SWAP2 SWAP1 PUSH2 0x6581 JUMP JUMPDEST PUSH1 0x1 PUSH0 DUP13 PUSH20 0xFFFFFFFFFFFFFFFFFFFFFFFFFFFFFFFFFFFFFFFF AND PUSH20 0xFFFFFFFFFFFFFFFFFFFFFFFFFFFFFFFFFFFFFFFF AND DUP2 MSTORE PUSH1 0x20 ADD SWAP1 DUP2 MSTORE PUSH1 0x20 ADD PUSH0 KECCAK256 SLOAD PUSH2 0x5454 SWAP2 SWAP1 PUSH2 0x63CE JUMP JUMPDEST PUSH1 0x1 PUSH0 DUP13 PUSH20 0xFFFFFFFFFFFFFFFFFFFFFFFFFFFFFFFFFFFFFFFF AND PUSH20 0xFFFFFFFFFFFFFFFFFFFFFFFFFFFFFFFFFFFFFFFF AND DUP2 MSTORE PUSH1 0x20 ADD SWAP1 DUP2 MSTORE PUSH1 0x20 ADD PUSH0 KECCAK256 DUP2 SWAP1 SSTORE POP DUP1 DUP3 PUSH2 0x54A1 SWAP2 SWAP1 PUSH2 0x6581 JUMP JUMPDEST PUSH1 0x1 PUSH0 DUP12 PUSH20 0xFFFFFFFFFFFFFFFFFFFFFFFFFFFFFFFFFFFFFFFF AND PUSH20 0xFFFFFFFFFFFFFFFFFFFFFFFFFFFFFFFFFFFFFFFF AND DUP2 MSTORE PUSH1 0x20 ADD SWAP1 DUP2 MSTORE PUSH1 0x20 ADD PUSH0 KECCAK256 SLOAD PUSH2 0x54E9 SWAP2 SWAP1 PUSH2 0x65C2 JUMP JUMPDEST PUSH1 0x1 PUSH0 DUP12 PUSH20 0xFFFFFFFFFFFFFFFFFFFFFFFFFFFFFFFFFFFFFFFF AND PUSH20 0xFFFFFFFFFFFFFFFFFFFFFFFFFFFFFFFFFFFFFFFF AND DUP2 MSTORE PUSH1 0x20 ADD SWAP1 DUP2 MSTORE PUSH1 0x20 ADD PUSH0 KECCAK256 DUP2 SWAP1 SSTORE POP JUMPDEST JUMPDEST JUMPDEST PUSH2 0x5542 DUP2 DUP9 PUSH2 0x553C SWAP2 SWAP1 PUSH2 0x6581 JUMP JUMPDEST DUP9 PUSH2 0x5CA1 JUMP JUMPDEST PUSH0 DUP3 GT ISZERO PUSH2 0x55B0 JUMPI DUP9 PUSH20 0xFFFFFFFFFFFFFFFFFFFFFFFFFFFFFFFFFFFFFFFF AND DUP11 PUSH20 0xFFFFFFFFFFFFFFFFFFFFFFFFFFFFFFFFFFFFFFFF AND PUSH32 0xDDF252AD1BE2C89B69C2B068FC378DAA952BA7F163C4A11628F55A4DF523B3EF DUP5 PUSH1 0x40 MLOAD PUSH2 0x55A7 SWAP2 SWAP1 PUSH2 0x6069 JUMP JUMPDEST PUSH1 0x40 MLOAD DUP1 SWAP2 SUB SWAP1 LOG3 JUMPDEST POP POP POP POP POP POP POP POP POP POP JUMP JUMPDEST PUSH1 0x14 SLOAD PUSH1 0x13 DUP2 SWAP1 SSTORE POP PUSH1 0x12 SLOAD PUSH1 0x11 DUP2 SWAP1 SSTORE POP PUSH1 0xC SLOAD PUSH1 0xB DUP2 SWAP1 SSTORE POP PUSH1 0xE SLOAD PUSH1 0xD DUP2 SWAP1 SSTORE POP PUSH1 0x10 SLOAD PUSH1 0xF DUP2 SWAP1 SSTORE POP JUMP JUMPDEST PUSH0 PUSH0 PUSH0 PUSH1 0x7 SLOAD SWAP1 POP PUSH0 PUSH1 0x6 SLOAD SWAP1 POP PUSH0 PUSH0 SWAP1 POP JUMPDEST PUSH1 0x5 DUP1 SLOAD SWAP1 POP DUP2 LT ISZERO PUSH2 0x5838 JUMPI DUP3 PUSH1 0x1 PUSH0 PUSH1 0x5 DUP5 DUP2 SLOAD DUP2 LT PUSH2 0x5623 JUMPI PUSH2 0x5622 PUSH2 0x6554 JUMP JUMPDEST JUMPDEST SWAP1 PUSH0 MSTORE PUSH1 0x20 PUSH0 KECCAK256 ADD PUSH0 SWAP1 SLOAD SWAP1 PUSH2 0x100 EXP SWAP1 DIV PUSH20 0xFFFFFFFFFFFFFFFFFFFFFFFFFFFFFFFFFFFFFFFF AND PUSH20 0xFFFFFFFFFFFFFFFFFFFFFFFFFFFFFFFFFFFFFFFF AND PUSH20 0xFFFFFFFFFFFFFFFFFFFFFFFFFFFFFFFFFFFFFFFF AND DUP2 MSTORE PUSH1 0x20 ADD SWAP1 DUP2 MSTORE PUSH1 0x20 ADD PUSH0 KECCAK256 SLOAD GT DUP1 PUSH2 0x5708 JUMPI POP DUP2 PUSH1 0x2 PUSH0 PUSH1 0x5 DUP5 DUP2 SLOAD DUP2 LT PUSH2 0x56A4 JUMPI PUSH2 0x56A3 PUSH2 0x6554 JUMP JUMPDEST JUMPDEST SWAP1 PUSH0 MSTORE PUSH1 0x20 PUSH0 KECCAK256 ADD PUSH0 SWAP1 SLOAD SWAP1 PUSH2 0x100 EXP SWAP1 DIV PUSH20 0xFFFFFFFFFFFFFFFFFFFFFFFFFFFFFFFFFFFFFFFF AND PUSH20 0xFFFFFFFFFFFFFFFFFFFFFFFFFFFFFFFFFFFFFFFF AND PUSH20 0xFFFFFFFFFFFFFFFFFFFFFFFFFFFFFFFFFFFFFFFF AND DUP2 MSTORE PUSH1 0x20 ADD SWAP1 DUP2 MSTORE PUSH1 0x20 ADD PUSH0 KECCAK256 SLOAD GT JUMPDEST ISZERO PUSH2 0x571F JUMPI PUSH1 0x7 SLOAD PUSH1 0x6 SLOAD SWAP5 POP SWAP5 POP POP POP POP PUSH2 0x586A JUMP JUMPDEST PUSH1 0x1 PUSH0 PUSH1 0x5 DUP4 DUP2 SLOAD DUP2 LT PUSH2 0x5736 JUMPI PUSH2 0x5735 PUSH2 0x6554 JUMP JUMPDEST JUMPDEST SWAP1 PUSH0 MSTORE PUSH1 0x20 PUSH0 KECCAK256 ADD PUSH0 SWAP1 SLOAD SWAP1 PUSH2 0x100 EXP SWAP1 DIV PUSH20 0xFFFFFFFFFFFFFFFFFFFFFFFFFFFFFFFFFFFFFFFF AND PUSH20 0xFFFFFFFFFFFFFFFFFFFFFFFFFFFFFFFFFFFFFFFF AND PUSH20 0xFFFFFFFFFFFFFFFFFFFFFFFFFFFFFFFFFFFFFFFF AND DUP2 MSTORE PUSH1 0x20 ADD SWAP1 DUP2 MSTORE PUSH1 0x20 ADD PUSH0 KECCAK256 SLOAD DUP4 PUSH2 0x57A3 SWAP2 SWAP1 PUSH2 0x63CE JUMP JUMPDEST SWAP3 POP PUSH1 0x2 PUSH0 PUSH1 0x5 DUP4 DUP2 SLOAD DUP2 LT PUSH2 0x57BC JUMPI PUSH2 0x57BB PUSH2 0x6554 JUMP JUMPDEST JUMPDEST SWAP1 PUSH0 MSTORE PUSH1 0x20 PUSH0 KECCAK256 ADD PUSH0 SWAP1 SLOAD SWAP1 PUSH2 0x100 EXP SWAP1 DIV PUSH20 0xFFFFFFFFFFFFFFFFFFFFFFFFFFFFFFFFFFFFFFFF AND PUSH20 0xFFFFFFFFFFFFFFFFFFFFFFFFFFFFFFFFFFFFFFFF AND PUSH20 0xFFFFFFFFFFFFFFFFFFFFFFFFFFFFFFFFFFFFFFFF AND DUP2 MSTORE PUSH1 0x20 ADD SWAP1 DUP2 MSTORE PUSH1 0x20 ADD PUSH0 KECCAK256 SLOAD DUP3 PUSH2 0x5829 SWAP2 SWAP1 PUSH2 0x63CE JUMP JUMPDEST SWAP2 POP DUP1 DUP1 PUSH1 0x1 ADD SWAP2 POP POP PUSH2 0x55FE JUMP JUMPDEST POP PUSH1 0x6 SLOAD PUSH1 0x7 SLOAD PUSH2 0x5849 SWAP2 SWAP1 PUSH2 0x64BC JUMP JUMPDEST DUP3 LT ISZERO PUSH2 0x5861 JUMPI PUSH1 0x7 SLOAD PUSH1 0x6 SLOAD SWAP4 POP SWAP4 POP POP POP PUSH2 0x586A JUMP JUMPDEST DUP2 DUP2 SWAP4 POP SWAP4 POP POP POP JUMPDEST SWAP1 SWAP2 JUMP JUMPDEST PUSH0 PUSH3 0xF4240 PUSH1 0xB SLOAD DUP4 PUSH2 0x5881 SWAP2 SWAP1 PUSH2 0x6581 JUMP JUMPDEST PUSH2 0x588B SWAP2 SWAP1 PUSH2 0x64BC JUMP JUMPDEST SWAP1 POP SWAP2 SWAP1 POP JUMP JUMPDEST PUSH0 PUSH3 0xF4240 PUSH1 0xD SLOAD DUP4 PUSH2 0x58A5 SWAP2 SWAP1 PUSH2 0x6581 JUMP JUMPDEST PUSH2 0x58AF SWAP2 SWAP1 PUSH2 0x64BC JUMP JUMPDEST SWAP1 POP SWAP2 SWAP1 POP JUMP JUMPDEST PUSH0 PUSH3 0xF4240 PUSH1 0xF SLOAD DUP4 PUSH2 0x58C9 SWAP2 SWAP1 PUSH2 0x6581 JUMP JUMPDEST PUSH2 0x58D3 SWAP2 SWAP1 PUSH2 0x64BC JUMP JUMPDEST SWAP1 POP SWAP2 SWAP1 POP JUMP JUMPDEST PUSH0 PUSH3 0xF4240 PUSH1 0x11 SLOAD DUP4 PUSH2 0x58ED SWAP2 SWAP1 PUSH2 0x6581 JUMP JUMPDEST PUSH2 0x58F7 SWAP2 SWAP1 PUSH2 0x64BC JUMP JUMPDEST SWAP1 POP SWAP2 SWAP1 POP JUMP JUMPDEST PUSH0 PUSH3 0xF4240 PUSH1 0x13 SLOAD DUP4 PUSH2 0x5911 SWAP2 SWAP1 PUSH2 0x6581 JUMP JUMPDEST PUSH2 0x591B SWAP2 SWAP1 PUSH2 0x64BC JUMP JUMPDEST SWAP1 POP SWAP2 SWAP1 POP JUMP JUMPDEST PUSH0 PUSH2 0x5983 DUP3 PUSH1 0x40 MLOAD DUP1 PUSH1 0x40 ADD PUSH1 0x40 MSTORE DUP1 PUSH1 0x20 DUP2 MSTORE PUSH1 0x20 ADD PUSH32 0x5361666545524332303A206C6F772D6C6576656C2063616C6C206661696C6564 DUP2 MSTORE POP DUP6 PUSH20 0xFFFFFFFFFFFFFFFFFFFFFFFFFFFFFFFFFFFFFFFF AND PUSH2 0x5CCD SWAP1 SWAP3 SWAP2 SWAP1 PUSH4 0xFFFFFFFF AND JUMP JUMPDEST SWAP1 POP PUSH0 DUP2 MLOAD EQ DUP1 PUSH2 0x59A4 JUMPI POP DUP1 DUP1 PUSH1 0x20 ADD SWAP1 MLOAD DUP2 ADD SWAP1 PUSH2 0x59A3 SWAP2 SWAP1 PUSH2 0x73DD JUMP JUMPDEST JUMPDEST PUSH2 0x59E3 JUMPI PUSH1 0x40 MLOAD PUSH32 0x8C379A000000000000000000000000000000000000000000000000000000000 DUP2 MSTORE PUSH1 0x4 ADD PUSH2 0x59DA SWAP1 PUSH2 0x7478 JUMP JUMPDEST PUSH1 0x40 MLOAD DUP1 SWAP2 SUB SWAP1 REVERT JUMPDEST POP POP POP JUMP JUMPDEST PUSH0 PUSH1 0x2 PUSH8 0xFFFFFFFFFFFFFFFF DUP2 GT ISZERO PUSH2 0x5A04 JUMPI PUSH2 0x5A03 PUSH2 0x6C79 JUMP JUMPDEST JUMPDEST PUSH1 0x40 MLOAD SWAP1 DUP1 DUP3 MSTORE DUP1 PUSH1 0x20 MUL PUSH1 0x20 ADD DUP3 ADD PUSH1 0x40 MSTORE DUP1 ISZERO PUSH2 0x5A32 JUMPI DUP2 PUSH1 0x20 ADD PUSH1 0x20 DUP3 MUL DUP1 CALLDATASIZE DUP4 CALLDATACOPY DUP1 DUP3 ADD SWAP2 POP POP SWAP1 POP JUMPDEST POP SWAP1 POP ADDRESS DUP2 PUSH0 DUP2 MLOAD DUP2 LT PUSH2 0x5A49 JUMPI PUSH2 0x5A48 PUSH2 0x6554 JUMP JUMPDEST JUMPDEST PUSH1 0x20 MUL PUSH1 0x20 ADD ADD SWAP1 PUSH20 0xFFFFFFFFFFFFFFFFFFFFFFFFFFFFFFFFFFFFFFFF AND SWAP1 DUP2 PUSH20 0xFFFFFFFFFFFFFFFFFFFFFFFFFFFFFFFFFFFFFFFF AND DUP2 MSTORE POP POP PUSH1 0x19 PUSH0 SWAP1 SLOAD SWAP1 PUSH2 0x100 EXP SWAP1 DIV PUSH20 0xFFFFFFFFFFFFFFFFFFFFFFFFFFFFFFFFFFFFFFFF AND PUSH20 0xFFFFFFFFFFFFFFFFFFFFFFFFFFFFFFFFFFFFFFFF AND PUSH4 0xAD5C4648 PUSH1 0x40 MLOAD DUP2 PUSH4 0xFFFFFFFF AND PUSH1 0xE0 SHL DUP2 MSTORE PUSH1 0x4 ADD PUSH1 0x20 PUSH1 0x40 MLOAD DUP1 DUP4 SUB DUP2 DUP7 GAS STATICCALL ISZERO DUP1 ISZERO PUSH2 0x5AED JUMPI RETURNDATASIZE PUSH0 PUSH0 RETURNDATACOPY RETURNDATASIZE PUSH0 REVERT JUMPDEST POP POP POP POP PUSH1 0x40 MLOAD RETURNDATASIZE PUSH1 0x1F NOT PUSH1 0x1F DUP3 ADD AND DUP3 ADD DUP1 PUSH1 0x40 MSTORE POP DUP2 ADD SWAP1 PUSH2 0x5B11 SWAP2 SWAP1 PUSH2 0x6CBA JUMP JUMPDEST DUP2 PUSH1 0x1 DUP2 MLOAD DUP2 LT PUSH2 0x5B25 JUMPI PUSH2 0x5B24 PUSH2 0x6554 JUMP JUMPDEST JUMPDEST PUSH1 0x20 MUL PUSH1 0x20 ADD ADD SWAP1 PUSH20 0xFFFFFFFFFFFFFFFFFFFFFFFFFFFFFFFFFFFFFFFF AND SWAP1 DUP2 PUSH20 0xFFFFFFFFFFFFFFFFFFFFFFFFFFFFFFFFFFFFFFFF AND DUP2 MSTORE POP POP PUSH1 0x19 PUSH0 SWAP1 SLOAD SWAP1 PUSH2 0x100 EXP SWAP1 DIV PUSH20 0xFFFFFFFFFFFFFFFFFFFFFFFFFFFFFFFFFFFFFFFF AND PUSH20 0xFFFFFFFFFFFFFFFFFFFFFFFFFFFFFFFFFFFFFFFF AND PUSH4 0x791AC947 DUP4 PUSH0 DUP5 ADDRESS TIMESTAMP PUSH1 0x40 MLOAD DUP7 PUSH4 0xFFFFFFFF AND PUSH1 0xE0 SHL DUP2 MSTORE PUSH1 0x4 ADD PUSH2 0x5BC1 SWAP6 SWAP5 SWAP4 SWAP3 SWAP2 SWAP1 PUSH2 0x7496 JUMP JUMPDEST PUSH0 PUSH1 0x40 MLOAD DUP1 DUP4 SUB DUP2 PUSH0 DUP8 DUP1 EXTCODESIZE ISZERO DUP1 ISZERO PUSH2 0x5BD8 JUMPI PUSH0 PUSH0 REVERT JUMPDEST POP GAS CALL ISZERO DUP1 ISZERO PUSH2 0x5BEA JUMPI RETURNDATASIZE PUSH0 PUSH0 RETURNDATACOPY RETURNDATASIZE PUSH0 REVERT JUMPDEST POP POP POP POP POP POP JUMP JUMPDEST PUSH1 0x19 PUSH0 SWAP1 SLOAD SWAP1 PUSH2 0x100 EXP SWAP1 DIV PUSH20 0xFFFFFFFFFFFFFFFFFFFFFFFFFFFFFFFFFFFFFFFF AND PUSH20 0xFFFFFFFFFFFFFFFFFFFFFFFFFFFFFFFFFFFFFFFF AND PUSH4 0xF305D719 DUP3 ADDRESS DUP6 PUSH0 PUSH0 PUSH2 0xDEAD TIMESTAMP PUSH1 0x40 MLOAD DUP9 PUSH4 0xFFFFFFFF AND PUSH1 0xE0 SHL DUP2 MSTORE PUSH1 0x4 ADD PUSH2 0x5C59 SWAP7 SWAP6 SWAP5 SWAP4 SWAP3 SWAP2 SWAP1 PUSH2 0x74EE JUMP JUMPDEST PUSH1 0x60 PUSH1 0x40 MLOAD DUP1 DUP4 SUB DUP2 DUP6 DUP9 GAS CALL ISZERO DUP1 ISZERO PUSH2 0x5C75 JUMPI RETURNDATASIZE PUSH0 PUSH0 RETURNDATACOPY RETURNDATASIZE PUSH0 REVERT JUMPDEST POP POP POP POP POP PUSH1 0x40 MLOAD RETURNDATASIZE PUSH1 0x1F NOT PUSH1 0x1F DUP3 ADD AND DUP3 ADD DUP1 PUSH1 0x40 MSTORE POP DUP2 ADD SWAP1 PUSH2 0x5C9A SWAP2 SWAP1 PUSH2 0x754D JUMP JUMPDEST POP POP POP POP POP JUMP JUMPDEST DUP2 PUSH1 0x7 SLOAD PUSH2 0x5CAF SWAP2 SWAP1 PUSH2 0x63CE JUMP JUMPDEST PUSH1 0x7 DUP2 SWAP1 SSTORE POP DUP1 PUSH1 0x8 SLOAD PUSH2 0x5CC3 SWAP2 SWAP1 PUSH2 0x65C2 JUMP JUMPDEST PUSH1 0x8 DUP2 SWAP1 SSTORE POP POP POP JUMP JUMPDEST PUSH1 0x60 PUSH2 0x5CDB DUP5 DUP5 PUSH0 DUP6 PUSH2 0x5CE4 JUMP JUMPDEST SWAP1 POP SWAP4 SWAP3 POP POP POP JUMP JUMPDEST PUSH1 0x60 DUP3 SELFBALANCE LT ISZERO PUSH2 0x5D29 JUMPI PUSH1 0x40 MLOAD PUSH32 0x8C379A000000000000000000000000000000000000000000000000000000000 DUP2 MSTORE PUSH1 0x4 ADD PUSH2 0x5D20 SWAP1 PUSH2 0x760D JUMP JUMPDEST PUSH1 0x40 MLOAD DUP1 SWAP2 SUB SWAP1 REVERT JUMPDEST PUSH0 PUSH0 DUP7 PUSH20 0xFFFFFFFFFFFFFFFFFFFFFFFFFFFFFFFFFFFFFFFF AND DUP6 DUP8 PUSH1 0x40 MLOAD PUSH2 0x5D51 SWAP2 SWAP1 PUSH2 0x7665 JUMP JUMPDEST PUSH0 PUSH1 0x40 MLOAD DUP1 DUP4 SUB DUP2 DUP6 DUP8 GAS CALL SWAP3 POP POP POP RETURNDATASIZE DUP1 PUSH0 DUP2 EQ PUSH2 0x5D8B JUMPI PUSH1 0x40 MLOAD SWAP2 POP PUSH1 0x1F NOT PUSH1 0x3F RETURNDATASIZE ADD AND DUP3 ADD PUSH1 0x40 MSTORE RETURNDATASIZE DUP3 MSTORE RETURNDATASIZE PUSH0 PUSH1 0x20 DUP5 ADD RETURNDATACOPY PUSH2 0x5D90 JUMP JUMPDEST PUSH1 0x60 SWAP2 POP JUMPDEST POP SWAP2 POP SWAP2 POP PUSH2 0x5DA1 DUP8 DUP4 DUP4 DUP8 PUSH2 0x5DAD JUMP JUMPDEST SWAP3 POP POP POP SWAP5 SWAP4 POP POP POP POP JUMP JUMPDEST PUSH1 0x60 DUP4 ISZERO PUSH2 0x5E0E JUMPI PUSH0 DUP4 MLOAD SUB PUSH2 0x5E06 JUMPI PUSH2 0x5DC6 DUP6 PUSH2 0x5E21 JUMP JUMPDEST PUSH2 0x5E05 JUMPI PUSH1 0x40 MLOAD PUSH32 0x8C379A000000000000000000000000000000000000000000000000000000000 DUP2 MSTORE PUSH1 0x4 ADD PUSH2 0x5DFC SWAP1 PUSH2 0x76C5 JUMP JUMPDEST PUSH1 0x40 MLOAD DUP1 SWAP2 SUB SWAP1 REVERT JUMPDEST JUMPDEST DUP3 SWAP1 POP PUSH2 0x5E19 JUMP JUMPDEST PUSH2 0x5E18 DUP4 DUP4 PUSH2 0x5E43 JUMP JUMPDEST JUMPDEST SWAP5 SWAP4 POP POP POP POP JUMP JUMPDEST PUSH0 PUSH0 DUP3 PUSH20 0xFFFFFFFFFFFFFFFFFFFFFFFFFFFFFFFFFFFFFFFF AND EXTCODESIZE GT SWAP1 POP SWAP2 SWAP1 POP JUMP JUMPDEST PUSH0 DUP3 MLOAD GT ISZERO PUSH2 0x5E55 JUMPI DUP2 MLOAD DUP1 DUP4 PUSH1 0x20 ADD REVERT JUMPDEST DUP1 PUSH1 0x40 MLOAD PUSH32 0x8C379A000000000000000000000000000000000000000000000000000000000 DUP2 MSTORE PUSH1 0x4 ADD PUSH2 0x5E89 SWAP2 SWAP1 PUSH2 0x5F02 JUMP JUMPDEST PUSH1 0x40 MLOAD DUP1 SWAP2 SUB SWAP1 REVERT JUMPDEST PUSH0 DUP2 MLOAD SWAP1 POP SWAP2 SWAP1 POP JUMP JUMPDEST PUSH0 DUP3 DUP3 MSTORE PUSH1 0x20 DUP3 ADD SWAP1 POP SWAP3 SWAP2 POP POP JUMP JUMPDEST DUP3 DUP2 DUP4 MCOPY PUSH0 DUP4 DUP4 ADD MSTORE POP POP POP JUMP JUMPDEST PUSH0 PUSH1 0x1F NOT PUSH1 0x1F DUP4 ADD AND SWAP1 POP SWAP2 SWAP1 POP JUMP JUMPDEST PUSH0 PUSH2 0x5ED4 DUP3 PUSH2 0x5E92 JUMP JUMPDEST PUSH2 0x5EDE DUP2 DUP6 PUSH2 0x5E9C JUMP JUMPDEST SWAP4 POP PUSH2 0x5EEE DUP2 DUP6 PUSH1 0x20 DUP7 ADD PUSH2 0x5EAC JUMP JUMPDEST PUSH2 0x5EF7 DUP2 PUSH2 0x5EBA JUMP JUMPDEST DUP5 ADD SWAP2 POP POP SWAP3 SWAP2 POP POP JUMP JUMPDEST PUSH0 PUSH1 0x20 DUP3 ADD SWAP1 POP DUP2 DUP2 SUB PUSH0 DUP4 ADD MSTORE PUSH2 0x5F1A DUP2 DUP5 PUSH2 0x5ECA JUMP JUMPDEST SWAP1 POP SWAP3 SWAP2 POP POP JUMP JUMPDEST PUSH0 PUSH0 REVERT JUMPDEST PUSH0 PUSH20 0xFFFFFFFFFFFFFFFFFFFFFFFFFFFFFFFFFFFFFFFF DUP3 AND SWAP1 POP SWAP2 SWAP1 POP JUMP JUMPDEST PUSH0 PUSH2 0x5F4F DUP3 PUSH2 0x5F26 JUMP JUMPDEST SWAP1 POP SWAP2 SWAP1 POP JUMP JUMPDEST PUSH2 0x5F5F DUP2 PUSH2 0x5F45 JUMP JUMPDEST DUP2 EQ PUSH2 0x5F69 JUMPI PUSH0 PUSH0 REVERT JUMPDEST POP JUMP JUMPDEST PUSH0 DUP2 CALLDATALOAD SWAP1 POP PUSH2 0x5F7A DUP2 PUSH2 0x5F56 JUMP JUMPDEST SWAP3 SWAP2 POP POP JUMP JUMPDEST PUSH0 DUP2 SWAP1 POP SWAP2 SWAP1 POP JUMP JUMPDEST PUSH2 0x5F92 DUP2 PUSH2 0x5F80 JUMP JUMPDEST DUP2 EQ PUSH2 0x5F9C JUMPI PUSH0 PUSH0 REVERT JUMPDEST POP JUMP JUMPDEST PUSH0 DUP2 CALLDATALOAD SWAP1 POP PUSH2 0x5FAD DUP2 PUSH2 0x5F89 JUMP JUMPDEST SWAP3 SWAP2 POP POP JUMP JUMPDEST PUSH0 PUSH0 PUSH1 0x40 DUP4 DUP6 SUB SLT ISZERO PUSH2 0x5FC9 JUMPI PUSH2 0x5FC8 PUSH2 0x5F22 JUMP JUMPDEST JUMPDEST PUSH0 PUSH2 0x5FD6 DUP6 DUP3 DUP7 ADD PUSH2 0x5F6C JUMP JUMPDEST SWAP3 POP POP PUSH1 0x20 PUSH2 0x5FE7 DUP6 DUP3 DUP7 ADD PUSH2 0x5F9F JUMP JUMPDEST SWAP2 POP POP SWAP3 POP SWAP3 SWAP1 POP JUMP JUMPDEST PUSH0 DUP2 ISZERO ISZERO SWAP1 POP SWAP2 SWAP1 POP JUMP JUMPDEST PUSH2 0x6005 DUP2 PUSH2 0x5FF1 JUMP JUMPDEST DUP3 MSTORE POP POP JUMP JUMPDEST PUSH0 PUSH1 0x20 DUP3 ADD SWAP1 POP PUSH2 0x601E PUSH0 DUP4 ADD DUP5 PUSH2 0x5FFC JUMP JUMPDEST SWAP3 SWAP2 POP POP JUMP JUMPDEST PUSH0 PUSH3 0xFFFFFF DUP3 AND SWAP1 POP SWAP2 SWAP1 POP JUMP JUMPDEST PUSH2 0x603B DUP2 PUSH2 0x6024 JUMP JUMPDEST DUP3 MSTORE POP POP JUMP JUMPDEST PUSH0 PUSH1 0x20 DUP3 ADD SWAP1 POP PUSH2 0x6054 PUSH0 DUP4 ADD DUP5 PUSH2 0x6032 JUMP JUMPDEST SWAP3 SWAP2 POP POP JUMP JUMPDEST PUSH2 0x6063 DUP2 PUSH2 0x5F80 JUMP JUMPDEST DUP3 MSTORE POP POP JUMP JUMPDEST PUSH0 PUSH1 0x20 DUP3 ADD SWAP1 POP PUSH2 0x607C PUSH0 DUP4 ADD DUP5 PUSH2 0x605A JUMP JUMPDEST SWAP3 SWAP2 POP POP JUMP JUMPDEST PUSH0 PUSH0 PUSH0 PUSH1 0x60 DUP5 DUP7 SUB SLT ISZERO PUSH2 0x6099 JUMPI PUSH2 0x6098 PUSH2 0x5F22 JUMP JUMPDEST JUMPDEST PUSH0 PUSH2 0x60A6 DUP7 DUP3 DUP8 ADD PUSH2 0x5F6C JUMP JUMPDEST SWAP4 POP POP PUSH1 0x20 PUSH2 0x60B7 DUP7 DUP3 DUP8 ADD PUSH2 0x5F6C JUMP JUMPDEST SWAP3 POP POP PUSH1 0x40 PUSH2 0x60C8 DUP7 DUP3 DUP8 ADD PUSH2 0x5F9F JUMP JUMPDEST SWAP2 POP POP SWAP3 POP SWAP3 POP SWAP3 JUMP JUMPDEST PUSH0 PUSH1 0x20 DUP3 DUP5 SUB SLT ISZERO PUSH2 0x60E7 JUMPI PUSH2 0x60E6 PUSH2 0x5F22 JUMP JUMPDEST JUMPDEST PUSH0 PUSH2 0x60F4 DUP5 DUP3 DUP6 ADD PUSH2 0x5F9F JUMP JUMPDEST SWAP2 POP POP SWAP3 SWAP2 POP POP JUMP JUMPDEST PUSH0 PUSH1 0xFF DUP3 AND SWAP1 POP SWAP2 SWAP1 POP JUMP JUMPDEST PUSH2 0x6112 DUP2 PUSH2 0x60FD JUMP JUMPDEST DUP3 MSTORE POP POP JUMP JUMPDEST PUSH0 PUSH1 0x20 DUP3 ADD SWAP1 POP PUSH2 0x612B PUSH0 DUP4 ADD DUP5 PUSH2 0x6109 JUMP JUMPDEST SWAP3 SWAP2 POP POP JUMP JUMPDEST PUSH0 PUSH1 0x20 DUP3 DUP5 SUB SLT ISZERO PUSH2 0x6146 JUMPI PUSH2 0x6145 PUSH2 0x5F22 JUMP JUMPDEST JUMPDEST PUSH0 PUSH2 0x6153 DUP5 DUP3 DUP6 ADD PUSH2 0x5F6C JUMP JUMPDEST SWAP2 POP POP SWAP3 SWAP2 POP POP JUMP JUMPDEST PUSH2 0x6165 DUP2 PUSH2 0x6024 JUMP JUMPDEST DUP2 EQ PUSH2 0x616F JUMPI PUSH0 PUSH0 REVERT JUMPDEST POP JUMP JUMPDEST PUSH0 DUP2 CALLDATALOAD SWAP1 POP PUSH2 0x6180 DUP2 PUSH2 0x615C JUMP JUMPDEST SWAP3 SWAP2 POP POP JUMP JUMPDEST PUSH0 PUSH0 PUSH1 0x40 DUP4 DUP6 SUB SLT ISZERO PUSH2 0x619C JUMPI PUSH2 0x619B PUSH2 0x5F22 JUMP JUMPDEST JUMPDEST PUSH0 PUSH2 0x61A9 DUP6 DUP3 DUP7 ADD PUSH2 0x6172 JUMP JUMPDEST SWAP3 POP POP PUSH1 0x20 PUSH2 0x61BA DUP6 DUP3 DUP7 ADD PUSH2 0x6172 JUMP JUMPDEST SWAP2 POP POP SWAP3 POP SWAP3 SWAP1 POP JUMP JUMPDEST PUSH2 0x61CD DUP2 PUSH2 0x5FF1 JUMP JUMPDEST DUP2 EQ PUSH2 0x61D7 JUMPI PUSH0 PUSH0 REVERT JUMPDEST POP JUMP JUMPDEST PUSH0 DUP2 CALLDATALOAD SWAP1 POP PUSH2 0x61E8 DUP2 PUSH2 0x61C4 JUMP JUMPDEST SWAP3 SWAP2 POP POP JUMP JUMPDEST PUSH0 PUSH0 PUSH1 0x40 DUP4 DUP6 SUB SLT ISZERO PUSH2 0x6204 JUMPI PUSH2 0x6203 PUSH2 0x5F22 JUMP JUMPDEST JUMPDEST PUSH0 PUSH2 0x6211 DUP6 DUP3 DUP7 ADD PUSH2 0x5F9F JUMP JUMPDEST SWAP3 POP POP PUSH1 0x20 PUSH2 0x6222 DUP6 DUP3 DUP7 ADD PUSH2 0x61DA JUMP JUMPDEST SWAP2 POP POP SWAP3 POP SWAP3 SWAP1 POP JUMP JUMPDEST PUSH2 0x6235 DUP2 PUSH2 0x5F45 JUMP JUMPDEST DUP3 MSTORE POP POP JUMP JUMPDEST PUSH0 PUSH1 0x20 DUP3 ADD SWAP1 POP PUSH2 0x624E PUSH0 DUP4 ADD DUP5 PUSH2 0x622C JUMP JUMPDEST SWAP3 SWAP2 POP POP JUMP JUMPDEST PUSH0 PUSH0 PUSH1 0x40 DUP4 DUP6 SUB SLT ISZERO PUSH2 0x626A JUMPI PUSH2 0x6269 PUSH2 0x5F22 JUMP JUMPDEST JUMPDEST PUSH0 PUSH2 0x6277 DUP6 DUP3 DUP7 ADD PUSH2 0x5F6C JUMP JUMPDEST SWAP3 POP POP PUSH1 0x20 PUSH2 0x6288 DUP6 DUP3 DUP7 ADD PUSH2 0x61DA JUMP JUMPDEST SWAP2 POP POP SWAP3 POP SWAP3 SWAP1 POP JUMP JUMPDEST PUSH0 DUP2 SWAP1 POP SWAP2 SWAP1 POP JUMP JUMPDEST PUSH0 PUSH2 0x62B5 PUSH2 0x62B0 PUSH2 0x62AB DUP5 PUSH2 0x5F26 JUMP JUMPDEST PUSH2 0x6292 JUMP JUMPDEST PUSH2 0x5F26 JUMP JUMPDEST SWAP1 POP SWAP2 SWAP1 POP JUMP JUMPDEST PUSH0 PUSH2 0x62C6 DUP3 PUSH2 0x629B JUMP JUMPDEST SWAP1 POP SWAP2 SWAP1 POP JUMP JUMPDEST PUSH0 PUSH2 0x62D7 DUP3 PUSH2 0x62BC JUMP JUMPDEST SWAP1 POP SWAP2 SWAP1 POP JUMP JUMPDEST PUSH2 0x62E7 DUP2 PUSH2 0x62CD JUMP JUMPDEST DUP3 MSTORE POP POP JUMP JUMPDEST PUSH0 PUSH1 0x20 DUP3 ADD SWAP1 POP PUSH2 0x6300 PUSH0 DUP4 ADD DUP5 PUSH2 0x62DE JUMP JUMPDEST SWAP3 SWAP2 POP POP JUMP JUMPDEST PUSH0 PUSH0 PUSH1 0x40 DUP4 DUP6 SUB SLT ISZERO PUSH2 0x631C JUMPI PUSH2 0x631B PUSH2 0x5F22 JUMP JUMPDEST JUMPDEST PUSH0 PUSH2 0x6329 DUP6 DUP3 DUP7 ADD PUSH2 0x5F6C JUMP JUMPDEST SWAP3 POP POP PUSH1 0x20 PUSH2 0x633A DUP6 DUP3 DUP7 ADD PUSH2 0x5F6C JUMP JUMPDEST SWAP2 POP POP SWAP3 POP SWAP3 SWAP1 POP JUMP JUMPDEST PUSH32 0x4E487B7100000000000000000000000000000000000000000000000000000000 PUSH0 MSTORE PUSH1 0x22 PUSH1 0x4 MSTORE PUSH1 0x24 PUSH0 REVERT JUMPDEST PUSH0 PUSH1 0x2 DUP3 DIV SWAP1 POP PUSH1 0x1 DUP3 AND DUP1 PUSH2 0x6388 JUMPI PUSH1 0x7F DUP3 AND SWAP2 POP JUMPDEST PUSH1 0x20 DUP3 LT DUP2 SUB PUSH2 0x639B JUMPI PUSH2 0x639A PUSH2 0x6344 JUMP JUMPDEST JUMPDEST POP SWAP2 SWAP1 POP JUMP JUMPDEST PUSH32 0x4E487B7100000000000000000000000000000000000000000000000000000000 PUSH0 MSTORE PUSH1 0x11 PUSH1 0x4 MSTORE PUSH1 0x24 PUSH0 REVERT JUMPDEST PUSH0 PUSH2 0x63D8 DUP3 PUSH2 0x5F80 JUMP JUMPDEST SWAP2 POP PUSH2 0x63E3 DUP4 PUSH2 0x5F80 JUMP JUMPDEST SWAP3 POP DUP3 DUP3 SUB SWAP1 POP DUP2 DUP2 GT ISZERO PUSH2 0x63FB JUMPI PUSH2 0x63FA PUSH2 0x63A1 JUMP JUMPDEST JUMPDEST SWAP3 SWAP2 POP POP JUMP JUMPDEST PUSH32 0x416D6F756E74206D757374206265206C657373207468616E20746F74616C2072 PUSH0 DUP3 ADD MSTORE PUSH32 0x65666C656374696F6E7300000000000000000000000000000000000000000000 PUSH1 0x20 DUP3 ADD MSTORE POP JUMP JUMPDEST PUSH0 PUSH2 0x645B PUSH1 0x2A DUP4 PUSH2 0x5E9C JUMP JUMPDEST SWAP2 POP PUSH2 0x6466 DUP3 PUSH2 0x6401 JUMP JUMPDEST PUSH1 0x40 DUP3 ADD SWAP1 POP SWAP2 SWAP1 POP JUMP JUMPDEST PUSH0 PUSH1 0x20 DUP3 ADD SWAP1 POP DUP2 DUP2 SUB PUSH0 DUP4 ADD MSTORE PUSH2 0x6488 DUP2 PUSH2 0x644F JUMP JUMPDEST SWAP1 POP SWAP2 SWAP1 POP JUMP JUMPDEST PUSH32 0x4E487B7100000000000000000000000000000000000000000000000000000000 PUSH0 MSTORE PUSH1 0x12 PUSH1 0x4 MSTORE PUSH1 0x24 PUSH0 REVERT JUMPDEST PUSH0 PUSH2 0x64C6 DUP3 PUSH2 0x5F80 JUMP JUMPDEST SWAP2 POP PUSH2 0x64D1 DUP4 PUSH2 0x5F80 JUMP JUMPDEST SWAP3 POP DUP3 PUSH2 0x64E1 JUMPI PUSH2 0x64E0 PUSH2 0x648F JUMP JUMPDEST JUMPDEST DUP3 DUP3 DIV SWAP1 POP SWAP3 SWAP2 POP POP JUMP JUMPDEST PUSH32 0x4163636F756E74206973206E6F74206578636C75646564000000000000000000 PUSH0 DUP3 ADD MSTORE POP JUMP JUMPDEST PUSH0 PUSH2 0x6520 PUSH1 0x17 DUP4 PUSH2 0x5E9C JUMP JUMPDEST SWAP2 POP PUSH2 0x652B DUP3 PUSH2 0x64EC JUMP JUMPDEST PUSH1 0x20 DUP3 ADD SWAP1 POP SWAP2 SWAP1 POP JUMP JUMPDEST PUSH0 PUSH1 0x20 DUP3 ADD SWAP1 POP DUP2 DUP2 SUB PUSH0 DUP4 ADD MSTORE PUSH2 0x654D DUP2 PUSH2 0x6514 JUMP JUMPDEST SWAP1 POP SWAP2 SWAP1 POP JUMP JUMPDEST PUSH32 0x4E487B7100000000000000000000000000000000000000000000000000000000 PUSH0 MSTORE PUSH1 0x32 PUSH1 0x4 MSTORE PUSH1 0x24 PUSH0 REVERT JUMPDEST PUSH0 PUSH2 0x658B DUP3 PUSH2 0x5F80 JUMP JUMPDEST SWAP2 POP PUSH2 0x6596 DUP4 PUSH2 0x5F80 JUMP JUMPDEST SWAP3 POP DUP3 DUP3 MUL PUSH2 0x65A4 DUP2 PUSH2 0x5F80 JUMP JUMPDEST SWAP2 POP DUP3 DUP3 DIV DUP5 EQ DUP4 ISZERO OR PUSH2 0x65BB JUMPI PUSH2 0x65BA PUSH2 0x63A1 JUMP JUMPDEST JUMPDEST POP SWAP3 SWAP2 POP POP JUMP JUMPDEST PUSH0 PUSH2 0x65CC DUP3 PUSH2 0x5F80 JUMP JUMPDEST SWAP2 POP PUSH2 0x65D7 DUP4 PUSH2 0x5F80 JUMP JUMPDEST SWAP3 POP DUP3 DUP3 ADD SWAP1 POP DUP1 DUP3 GT ISZERO PUSH2 0x65EF JUMPI PUSH2 0x65EE PUSH2 0x63A1 JUMP JUMPDEST JUMPDEST SWAP3 SWAP2 POP POP JUMP JUMPDEST PUSH32 0x4E487B7100000000000000000000000000000000000000000000000000000000 PUSH0 MSTORE PUSH1 0x31 PUSH1 0x4 MSTORE PUSH1 0x24 PUSH0 REVERT JUMPDEST PUSH0 PUSH2 0x662C DUP3 PUSH2 0x6024 JUMP JUMPDEST SWAP2 POP PUSH2 0x6637 DUP4 PUSH2 0x6024 JUMP JUMPDEST SWAP3 POP DUP3 DUP3 ADD SWAP1 POP PUSH3 0xFFFFFF DUP2 GT ISZERO PUSH2 0x6652 JUMPI PUSH2 0x6651 PUSH2 0x63A1 JUMP JUMPDEST JUMPDEST SWAP3 SWAP2 POP POP JUMP JUMPDEST PUSH32 0x73656C6C20746F74616C20666565203C3D203330250000000000000000000000 PUSH0 DUP3 ADD MSTORE POP JUMP JUMPDEST PUSH0 PUSH2 0x668C PUSH1 0x15 DUP4 PUSH2 0x5E9C JUMP JUMPDEST SWAP2 POP PUSH2 0x6697 DUP3 PUSH2 0x6658 JUMP JUMPDEST PUSH1 0x20 DUP3 ADD SWAP1 POP SWAP2 SWAP1 POP JUMP JUMPDEST PUSH0 PUSH1 0x20 DUP3 ADD SWAP1 POP DUP2 DUP2 SUB PUSH0 DUP4 ADD MSTORE PUSH2 0x66B9 DUP2 PUSH2 0x6680 JUMP JUMPDEST SWAP1 POP SWAP2 SWAP1 POP JUMP JUMPDEST PUSH32 0x62757920746F74616C20666565203C3D20333025000000000000000000000000 PUSH0 DUP3 ADD MSTORE POP JUMP JUMPDEST PUSH0 PUSH2 0x66F4 PUSH1 0x14 DUP4 PUSH2 0x5E9C JUMP JUMPDEST SWAP2 POP PUSH2 0x66FF DUP3 PUSH2 0x66C0 JUMP JUMPDEST PUSH1 0x20 DUP3 ADD SWAP1 POP SWAP2 SWAP1 POP JUMP JUMPDEST PUSH0 PUSH1 0x20 DUP3 ADD SWAP1 POP DUP2 DUP2 SUB PUSH0 DUP4 ADD MSTORE PUSH2 0x6721 DUP2 PUSH2 0x66E8 JUMP JUMPDEST SWAP1 POP SWAP2 SWAP1 POP JUMP JUMPDEST PUSH32 0x73656C6C20666565203C3D203135250000000000000000000000000000000000 PUSH0 DUP3 ADD MSTORE POP JUMP JUMPDEST PUSH0 PUSH2 0x675C PUSH1 0xF DUP4 PUSH2 0x5E9C JUMP JUMPDEST SWAP2 POP PUSH2 0x6767 DUP3 PUSH2 0x6728 JUMP JUMPDEST PUSH1 0x20 DUP3 ADD SWAP1 POP SWAP2 SWAP1 POP JUMP JUMPDEST PUSH0 PUSH1 0x20 DUP3 ADD SWAP1 POP DUP2 DUP2 SUB PUSH0 DUP4 ADD MSTORE PUSH2 0x6789 DUP2 PUSH2 0x6750 JUMP JUMPDEST SWAP1 POP SWAP2 SWAP1 POP JUMP JUMPDEST PUSH32 0x62757920666565203C3D20313525000000000000000000000000000000000000 PUSH0 DUP3 ADD MSTORE POP JUMP JUMPDEST PUSH0 PUSH2 0x67C4 PUSH1 0xE DUP4 PUSH2 0x5E9C JUMP JUMPDEST SWAP2 POP PUSH2 0x67CF DUP3 PUSH2 0x6790 JUMP JUMPDEST PUSH1 0x20 DUP3 ADD SWAP1 POP SWAP2 SWAP1 POP JUMP JUMPDEST PUSH0 PUSH1 0x20 DUP3 ADD SWAP1 POP DUP2 DUP2 SUB PUSH0 DUP4 ADD MSTORE PUSH2 0x67F1 DUP2 PUSH2 0x67B8 JUMP JUMPDEST SWAP1 POP SWAP2 SWAP1 POP JUMP JUMPDEST PUSH0 PUSH1 0x80 DUP3 ADD SWAP1 POP PUSH2 0x680B PUSH0 DUP4 ADD DUP8 PUSH2 0x6032 JUMP JUMPDEST PUSH2 0x6818 PUSH1 0x20 DUP4 ADD DUP7 PUSH2 0x6032 JUMP JUMPDEST PUSH2 0x6825 PUSH1 0x40 DUP4 ADD DUP6 PUSH2 0x6032 JUMP JUMPDEST PUSH2 0x6832 PUSH1 0x60 DUP4 ADD DUP5 PUSH2 0x6032 JUMP JUMPDEST SWAP6 SWAP5 POP POP POP POP POP JUMP JUMPDEST PUSH32 0x416D6F756E74206D757374206265206C657373207468616E20737570706C7900 PUSH0 DUP3 ADD MSTORE POP JUMP JUMPDEST PUSH0 PUSH2 0x686F PUSH1 0x1F DUP4 PUSH2 0x5E9C JUMP JUMPDEST SWAP2 POP PUSH2 0x687A DUP3 PUSH2 0x683B JUMP JUMPDEST PUSH1 0x20 DUP3 ADD SWAP1 POP SWAP2 SWAP1 POP JUMP JUMPDEST PUSH0 PUSH1 0x20 DUP3 ADD SWAP1 POP DUP2 DUP2 SUB PUSH0 DUP4 ADD MSTORE PUSH2 0x689C DUP2 PUSH2 0x6863 JUMP JUMPDEST SWAP1 POP SWAP2 SWAP1 POP JUMP JUMPDEST PUSH32 0x4163636F756E7420697320616C7265616479206578636C756465640000000000 PUSH0 DUP3 ADD MSTORE POP JUMP JUMPDEST PUSH0 PUSH2 0x68D7 PUSH1 0x1B DUP4 PUSH2 0x5E9C JUMP JUMPDEST SWAP2 POP PUSH2 0x68E2 DUP3 PUSH2 0x68A3 JUMP JUMPDEST PUSH1 0x20 DUP3 ADD SWAP1 POP SWAP2 SWAP1 POP JUMP JUMPDEST PUSH0 PUSH1 0x20 DUP3 ADD SWAP1 POP DUP2 DUP2 SUB PUSH0 DUP4 ADD MSTORE PUSH2 0x6904 DUP2 PUSH2 0x68CB JUMP JUMPDEST SWAP1 POP SWAP2 SWAP1 POP JUMP JUMPDEST PUSH32 0x43616E6E6F74206578636C756465206D6F7265207468616E203530206163636F PUSH0 DUP3 ADD MSTORE PUSH32 0x756E74732E2020496E636C75646520612070726576696F75736C79206578636C PUSH1 0x20 DUP3 ADD MSTORE PUSH32 0x7564656420616464726573732E00000000000000000000000000000000000000 PUSH1 0x40 DUP3 ADD MSTORE POP JUMP JUMPDEST PUSH0 PUSH2 0x698B PUSH1 0x4D DUP4 PUSH2 0x5E9C JUMP JUMPDEST SWAP2 POP PUSH2 0x6996 DUP3 PUSH2 0x690B JUMP JUMPDEST PUSH1 0x60 DUP3 ADD SWAP1 POP SWAP2 SWAP1 POP JUMP JUMPDEST PUSH0 PUSH1 0x20 DUP3 ADD SWAP1 POP DUP2 DUP2 SUB PUSH0 DUP4 ADD MSTORE PUSH2 0x69B8 DUP2 PUSH2 0x697F JUMP JUMPDEST SWAP1 POP SWAP2 SWAP1 POP JUMP JUMPDEST PUSH32 0x6D696E416D6F756E74546F54616B65466565203E203000000000000000000000 PUSH0 DUP3 ADD MSTORE POP JUMP JUMPDEST PUSH0 PUSH2 0x69F3 PUSH1 0x16 DUP4 PUSH2 0x5E9C JUMP JUMPDEST SWAP2 POP PUSH2 0x69FE DUP3 PUSH2 0x69BF JUMP JUMPDEST PUSH1 0x20 DUP3 ADD SWAP1 POP SWAP2 SWAP1 POP JUMP JUMPDEST PUSH0 PUSH1 0x20 DUP3 ADD SWAP1 POP DUP2 DUP2 SUB PUSH0 DUP4 ADD MSTORE PUSH2 0x6A20 DUP2 PUSH2 0x69E7 JUMP JUMPDEST SWAP1 POP SWAP2 SWAP1 POP JUMP JUMPDEST PUSH0 PUSH1 0x40 DUP3 ADD SWAP1 POP PUSH2 0x6A3A PUSH0 DUP4 ADD DUP6 PUSH2 0x605A JUMP JUMPDEST PUSH2 0x6A47 PUSH1 0x20 DUP4 ADD DUP5 PUSH2 0x605A JUMP JUMPDEST SWAP4 SWAP3 POP POP POP JUMP JUMPDEST PUSH32 0x54726561737572792077616C6C65742063616E27742062652030000000000000 PUSH0 DUP3 ADD MSTORE POP JUMP JUMPDEST PUSH0 PUSH2 0x6A82 PUSH1 0x1A DUP4 PUSH2 0x5E9C JUMP JUMPDEST SWAP2 POP PUSH2 0x6A8D DUP3 PUSH2 0x6A4E JUMP JUMPDEST PUSH1 0x20 DUP3 ADD SWAP1 POP SWAP2 SWAP1 POP JUMP JUMPDEST PUSH0 PUSH1 0x20 DUP3 ADD SWAP1 POP DUP2 DUP2 SUB PUSH0 DUP4 ADD MSTORE PUSH2 0x6AAF DUP2 PUSH2 0x6A76 JUMP JUMPDEST SWAP1 POP SWAP2 SWAP1 POP JUMP JUMPDEST PUSH32 0x54726561737572792077616C6C65742063616E2774206265207468652073616D PUSH0 DUP3 ADD MSTORE PUSH32 0x6520617320746F6B656E00000000000000000000000000000000000000000000 PUSH1 0x20 DUP3 ADD MSTORE POP JUMP JUMPDEST PUSH0 PUSH2 0x6B10 PUSH1 0x2A DUP4 PUSH2 0x5E9C JUMP JUMPDEST SWAP2 POP PUSH2 0x6B1B DUP3 PUSH2 0x6AB6 JUMP JUMPDEST PUSH1 0x40 DUP3 ADD SWAP1 POP SWAP2 SWAP1 POP JUMP JUMPDEST PUSH0 PUSH1 0x20 DUP3 ADD SWAP1 POP DUP2 DUP2 SUB PUSH0 DUP4 ADD MSTORE PUSH2 0x6B3D DUP2 PUSH2 0x6B04 JUMP JUMPDEST SWAP1 POP SWAP2 SWAP1 POP JUMP JUMPDEST PUSH32 0x6D61726B6574696E672077616C6C65742063616E27742062652073616D652077 PUSH0 DUP3 ADD MSTORE PUSH32 0x6974682054726561737572792077616C6C657400000000000000000000000000 PUSH1 0x20 DUP3 ADD MSTORE POP JUMP JUMPDEST PUSH0 PUSH2 0x6B9E PUSH1 0x33 DUP4 PUSH2 0x5E9C JUMP JUMPDEST SWAP2 POP PUSH2 0x6BA9 DUP3 PUSH2 0x6B44 JUMP JUMPDEST PUSH1 0x40 DUP3 ADD SWAP1 POP SWAP2 SWAP1 POP JUMP JUMPDEST PUSH0 PUSH1 0x20 DUP3 ADD SWAP1 POP DUP2 DUP2 SUB PUSH0 DUP4 ADD MSTORE PUSH2 0x6BCB DUP2 PUSH2 0x6B92 JUMP JUMPDEST SWAP1 POP SWAP2 SWAP1 POP JUMP JUMPDEST PUSH32 0x4E6F7420616C6C6F776564000000000000000000000000000000000000000000 PUSH0 DUP3 ADD MSTORE POP JUMP JUMPDEST PUSH0 PUSH2 0x6C06 PUSH1 0xB DUP4 PUSH2 0x5E9C JUMP JUMPDEST SWAP2 POP PUSH2 0x6C11 DUP3 PUSH2 0x6BD2 JUMP JUMPDEST PUSH1 0x20 DUP3 ADD SWAP1 POP SWAP2 SWAP1 POP JUMP JUMPDEST PUSH0 PUSH1 0x20 DUP3 ADD SWAP1 POP DUP2 DUP2 SUB PUSH0 DUP4 ADD MSTORE PUSH2 0x6C33 DUP2 PUSH2 0x6BFA JUMP JUMPDEST SWAP1 POP SWAP2 SWAP1 POP JUMP JUMPDEST PUSH0 DUP2 MLOAD SWAP1 POP PUSH2 0x6C48 DUP2 PUSH2 0x5F89 JUMP JUMPDEST SWAP3 SWAP2 POP POP JUMP JUMPDEST PUSH0 PUSH1 0x20 DUP3 DUP5 SUB SLT ISZERO PUSH2 0x6C63 JUMPI PUSH2 0x6C62 PUSH2 0x5F22 JUMP JUMPDEST JUMPDEST PUSH0 PUSH2 0x6C70 DUP5 DUP3 DUP6 ADD PUSH2 0x6C3A JUMP JUMPDEST SWAP2 POP POP SWAP3 SWAP2 POP POP JUMP JUMPDEST PUSH32 0x4E487B7100000000000000000000000000000000000000000000000000000000 PUSH0 MSTORE PUSH1 0x41 PUSH1 0x4 MSTORE PUSH1 0x24 PUSH0 REVERT JUMPDEST PUSH0 DUP2 MLOAD SWAP1 POP PUSH2 0x6CB4 DUP2 PUSH2 0x5F56 JUMP JUMPDEST SWAP3 SWAP2 POP POP JUMP JUMPDEST PUSH0 PUSH1 0x20 DUP3 DUP5 SUB SLT ISZERO PUSH2 0x6CCF JUMPI PUSH2 0x6CCE PUSH2 0x5F22 JUMP JUMPDEST JUMPDEST PUSH0 PUSH2 0x6CDC DUP5 DUP3 DUP6 ADD PUSH2 0x6CA6 JUMP JUMPDEST SWAP2 POP POP SWAP3 SWAP2 POP POP JUMP JUMPDEST PUSH0 DUP2 SWAP1 POP SWAP2 SWAP1 POP JUMP JUMPDEST PUSH0 PUSH2 0x6D08 PUSH2 0x6D03 PUSH2 0x6CFE DUP5 PUSH2 0x6CE5 JUMP JUMPDEST PUSH2 0x6292 JUMP JUMPDEST PUSH2 0x5F80 JUMP JUMPDEST SWAP1 POP SWAP2 SWAP1 POP JUMP JUMPDEST PUSH2 0x6D18 DUP2 PUSH2 0x6CEE JUMP JUMPDEST DUP3 MSTORE POP POP JUMP JUMPDEST PUSH0 DUP2 MLOAD SWAP1 POP SWAP2 SWAP1 POP JUMP JUMPDEST PUSH0 DUP3 DUP3 MSTORE PUSH1 0x20 DUP3 ADD SWAP1 POP SWAP3 SWAP2 POP POP JUMP JUMPDEST PUSH0 DUP2 SWAP1 POP PUSH1 0x20 DUP3 ADD SWAP1 POP SWAP2 SWAP1 POP JUMP JUMPDEST PUSH2 0x6D50 DUP2 PUSH2 0x5F45 JUMP JUMPDEST DUP3 MSTORE POP POP JUMP JUMPDEST PUSH0 PUSH2 0x6D61 DUP4 DUP4 PUSH2 0x6D47 JUMP JUMPDEST PUSH1 0x20 DUP4 ADD SWAP1 POP SWAP3 SWAP2 POP POP JUMP JUMPDEST PUSH0 PUSH1 0x20 DUP3 ADD SWAP1 POP SWAP2 SWAP1 POP JUMP JUMPDEST PUSH0 PUSH2 0x6D83 DUP3 PUSH2 0x6D1E JUMP JUMPDEST PUSH2 0x6D8D DUP2 DUP6 PUSH2 0x6D28 JUMP JUMPDEST SWAP4 POP PUSH2 0x6D98 DUP4 PUSH2 0x6D38 JUMP JUMPDEST DUP1 PUSH0 JUMPDEST DUP4 DUP2 LT ISZERO PUSH2 0x6DC8 JUMPI DUP2 MLOAD PUSH2 0x6DAF DUP9 DUP3 PUSH2 0x6D56 JUMP JUMPDEST SWAP8 POP PUSH2 0x6DBA DUP4 PUSH2 0x6D6D JUMP JUMPDEST SWAP3 POP POP PUSH1 0x1 DUP2 ADD SWAP1 POP PUSH2 0x6D9B JUMP JUMPDEST POP DUP6 SWAP4 POP POP POP POP SWAP3 SWAP2 POP POP JUMP JUMPDEST PUSH0 PUSH1 0x80 DUP3 ADD SWAP1 POP PUSH2 0x6DE8 PUSH0 DUP4 ADD DUP8 PUSH2 0x6D0F JUMP JUMPDEST DUP2 DUP2 SUB PUSH1 0x20 DUP4 ADD MSTORE PUSH2 0x6DFA DUP2 DUP7 PUSH2 0x6D79 JUMP JUMPDEST SWAP1 POP PUSH2 0x6E09 PUSH1 0x40 DUP4 ADD DUP6 PUSH2 0x622C JUMP JUMPDEST PUSH2 0x6E16 PUSH1 0x60 DUP4 ADD DUP5 PUSH2 0x605A JUMP JUMPDEST SWAP6 SWAP5 POP POP POP POP POP JUMP JUMPDEST PUSH32 0x6D61726B6574696E672077616C6C65742063616E277420626520300000000000 PUSH0 DUP3 ADD MSTORE POP JUMP JUMPDEST PUSH0 PUSH2 0x6E53 PUSH1 0x1B DUP4 PUSH2 0x5E9C JUMP JUMPDEST SWAP2 POP PUSH2 0x6E5E DUP3 PUSH2 0x6E1F JUMP JUMPDEST PUSH1 0x20 DUP3 ADD SWAP1 POP SWAP2 SWAP1 POP JUMP JUMPDEST PUSH0 PUSH1 0x20 DUP3 ADD SWAP1 POP DUP2 DUP2 SUB PUSH0 DUP4 ADD MSTORE PUSH2 0x6E80 DUP2 PUSH2 0x6E47 JUMP JUMPDEST SWAP1 POP SWAP2 SWAP1 POP JUMP JUMPDEST PUSH0 PUSH1 0x40 DUP3 ADD SWAP1 POP PUSH2 0x6E9A PUSH0 DUP4 ADD DUP6 PUSH2 0x622C JUMP JUMPDEST PUSH2 0x6EA7 PUSH1 0x20 DUP4 ADD DUP5 PUSH2 0x622C JUMP JUMPDEST SWAP4 SWAP3 POP POP POP JUMP JUMPDEST PUSH32 0x616C726561647900000000000000000000000000000000000000000000000000 PUSH0 DUP3 ADD MSTORE POP JUMP JUMPDEST PUSH0 PUSH2 0x6EE2 PUSH1 0x7 DUP4 PUSH2 0x5E9C JUMP JUMPDEST SWAP2 POP PUSH2 0x6EED DUP3 PUSH2 0x6EAE JUMP JUMPDEST PUSH1 0x20 DUP3 ADD SWAP1 POP SWAP2 SWAP1 POP JUMP JUMPDEST PUSH0 PUSH1 0x20 DUP3 ADD SWAP1 POP DUP2 DUP2 SUB PUSH0 DUP4 ADD MSTORE PUSH2 0x6F0F DUP2 PUSH2 0x6ED6 JUMP JUMPDEST SWAP1 POP SWAP2 SWAP1 POP JUMP JUMPDEST PUSH0 DUP2 SWAP1 POP SWAP3 SWAP2 POP POP JUMP JUMPDEST POP JUMP JUMPDEST PUSH0 PUSH2 0x6F2E PUSH0 DUP4 PUSH2 0x6F16 JUMP JUMPDEST SWAP2 POP PUSH2 0x6F39 DUP3 PUSH2 0x6F20 JUMP JUMPDEST PUSH0 DUP3 ADD SWAP1 POP SWAP2 SWAP1 POP JUMP JUMPDEST PUSH0 PUSH2 0x6F4D DUP3 PUSH2 0x6F23 JUMP JUMPDEST SWAP2 POP DUP2 SWAP1 POP SWAP2 SWAP1 POP JUMP JUMPDEST PUSH32 0x4661696C656420696E207769746864726177616C000000000000000000000000 PUSH0 DUP3 ADD MSTORE POP JUMP JUMPDEST PUSH0 PUSH2 0x6F8B PUSH1 0x14 DUP4 PUSH2 0x5E9C JUMP JUMPDEST SWAP2 POP PUSH2 0x6F96 DUP3 PUSH2 0x6F57 JUMP JUMPDEST PUSH1 0x20 DUP3 ADD SWAP1 POP SWAP2 SWAP1 POP JUMP JUMPDEST PUSH0 PUSH1 0x20 DUP3 ADD SWAP1 POP DUP2 DUP2 SUB PUSH0 DUP4 ADD MSTORE PUSH2 0x6FB8 DUP2 PUSH2 0x6F7F JUMP JUMPDEST SWAP1 POP SWAP2 SWAP1 POP JUMP JUMPDEST PUSH32 0x4F776E61626C653A206E6577206F776E657220697320746865207A65726F2061 PUSH0 DUP3 ADD MSTORE PUSH32 0x6464726573730000000000000000000000000000000000000000000000000000 PUSH1 0x20 DUP3 ADD MSTORE POP JUMP JUMPDEST PUSH0 PUSH2 0x7019 PUSH1 0x26 DUP4 PUSH2 0x5E9C JUMP JUMPDEST SWAP2 POP PUSH2 0x7024 DUP3 PUSH2 0x6FBF JUMP JUMPDEST PUSH1 0x40 DUP3 ADD SWAP1 POP SWAP2 SWAP1 POP JUMP JUMPDEST PUSH0 PUSH1 0x20 DUP3 ADD SWAP1 POP DUP2 DUP2 SUB PUSH0 DUP4 ADD MSTORE PUSH2 0x7046 DUP2 PUSH2 0x700D JUMP JUMPDEST SWAP1 POP SWAP2 SWAP1 POP JUMP JUMPDEST PUSH32 0x45524332303A20617070726F76652066726F6D20746865207A65726F20616464 PUSH0 DUP3 ADD MSTORE PUSH32 0x7265737300000000000000000000000000000000000000000000000000000000 PUSH1 0x20 DUP3 ADD MSTORE POP JUMP JUMPDEST PUSH0 PUSH2 0x70A7 PUSH1 0x24 DUP4 PUSH2 0x5E9C JUMP JUMPDEST SWAP2 POP PUSH2 0x70B2 DUP3 PUSH2 0x704D JUMP JUMPDEST PUSH1 0x40 DUP3 ADD SWAP1 POP SWAP2 SWAP1 POP JUMP JUMPDEST PUSH0 PUSH1 0x20 DUP3 ADD SWAP1 POP DUP2 DUP2 SUB PUSH0 DUP4 ADD MSTORE PUSH2 0x70D4 DUP2 PUSH2 0x709B JUMP JUMPDEST SWAP1 POP SWAP2 SWAP1 POP JUMP JUMPDEST PUSH32 0x45524332303A20617070726F766520746F20746865207A65726F206164647265 PUSH0 DUP3 ADD MSTORE PUSH32 0x7373000000000000000000000000000000000000000000000000000000000000 PUSH1 0x20 DUP3 ADD MSTORE POP JUMP JUMPDEST PUSH0 PUSH2 0x7135 PUSH1 0x22 DUP4 PUSH2 0x5E9C JUMP JUMPDEST SWAP2 POP PUSH2 0x7140 DUP3 PUSH2 0x70DB JUMP JUMPDEST PUSH1 0x40 DUP3 ADD SWAP1 POP SWAP2 SWAP1 POP JUMP JUMPDEST PUSH0 PUSH1 0x20 DUP3 ADD SWAP1 POP DUP2 DUP2 SUB PUSH0 DUP4 ADD MSTORE PUSH2 0x7162 DUP2 PUSH2 0x7129 JUMP JUMPDEST SWAP1 POP SWAP2 SWAP1 POP JUMP JUMPDEST PUSH32 0x45524332303A207472616E736665722066726F6D20746865207A65726F206164 PUSH0 DUP3 ADD MSTORE PUSH32 0x6472657373000000000000000000000000000000000000000000000000000000 PUSH1 0x20 DUP3 ADD MSTORE POP JUMP JUMPDEST PUSH0 PUSH2 0x71C3 PUSH1 0x25 DUP4 PUSH2 0x5E9C JUMP JUMPDEST SWAP2 POP PUSH2 0x71CE DUP3 PUSH2 0x7169 JUMP JUMPDEST PUSH1 0x40 DUP3 ADD SWAP1 POP SWAP2 SWAP1 POP JUMP JUMPDEST PUSH0 PUSH1 0x20 DUP3 ADD SWAP1 POP DUP2 DUP2 SUB PUSH0 DUP4 ADD MSTORE PUSH2 0x71F0 DUP2 PUSH2 0x71B7 JUMP JUMPDEST SWAP1 POP SWAP2 SWAP1 POP JUMP JUMPDEST PUSH32 0x45524332303A207472616E7366657220746F20746865207A65726F2061646472 PUSH0 DUP3 ADD MSTORE PUSH32 0x6573730000000000000000000000000000000000000000000000000000000000 PUSH1 0x20 DUP3 ADD MSTORE POP JUMP JUMPDEST PUSH0 PUSH2 0x7251 PUSH1 0x23 DUP4 PUSH2 0x5E9C JUMP JUMPDEST SWAP2 POP PUSH2 0x725C DUP3 PUSH2 0x71F7 JUMP JUMPDEST PUSH1 0x40 DUP3 ADD SWAP1 POP SWAP2 SWAP1 POP JUMP JUMPDEST PUSH0 PUSH1 0x20 DUP3 ADD SWAP1 POP DUP2 DUP2 SUB PUSH0 DUP4 ADD MSTORE PUSH2 0x727E DUP2 PUSH2 0x7245 JUMP JUMPDEST SWAP1 POP SWAP2 SWAP1 POP JUMP JUMPDEST PUSH32 0x4F776E61626C653A2063616C6C6572206973206E6F7420746865206F776E6572 PUSH0 DUP3 ADD MSTORE POP JUMP JUMPDEST PUSH0 PUSH2 0x72B9 PUSH1 0x20 DUP4 PUSH2 0x5E9C JUMP JUMPDEST SWAP2 POP PUSH2 0x72C4 DUP3 PUSH2 0x7285 JUMP JUMPDEST PUSH1 0x20 DUP3 ADD SWAP1 POP SWAP2 SWAP1 POP JUMP JUMPDEST PUSH0 PUSH1 0x20 DUP3 ADD SWAP1 POP DUP2 DUP2 SUB PUSH0 DUP4 ADD MSTORE PUSH2 0x72E6 DUP2 PUSH2 0x72AD JUMP JUMPDEST SWAP1 POP SWAP2 SWAP1 POP JUMP JUMPDEST PUSH0 PUSH1 0x40 DUP3 ADD SWAP1 POP PUSH2 0x7300 PUSH0 DUP4 ADD DUP6 PUSH2 0x622C JUMP JUMPDEST PUSH2 0x730D PUSH1 0x20 DUP4 ADD DUP5 PUSH2 0x605A JUMP JUMPDEST SWAP4 SWAP3 POP POP POP JUMP JUMPDEST PUSH32 0x4175746F6D61746564206D61726B6574206D616B657220706169722069732061 PUSH0 DUP3 ADD MSTORE PUSH32 0x6C72656164792073657420746F20746861742076616C75650000000000000000 PUSH1 0x20 DUP3 ADD MSTORE POP JUMP JUMPDEST PUSH0 PUSH2 0x736E PUSH1 0x38 DUP4 PUSH2 0x5E9C JUMP JUMPDEST SWAP2 POP PUSH2 0x7379 DUP3 PUSH2 0x7314 JUMP JUMPDEST PUSH1 0x40 DUP3 ADD SWAP1 POP SWAP2 SWAP1 POP JUMP JUMPDEST PUSH0 PUSH1 0x20 DUP3 ADD SWAP1 POP DUP2 DUP2 SUB PUSH0 DUP4 ADD MSTORE PUSH2 0x739B DUP2 PUSH2 0x7362 JUMP JUMPDEST SWAP1 POP SWAP2 SWAP1 POP JUMP JUMPDEST PUSH0 PUSH1 0x40 DUP3 ADD SWAP1 POP PUSH2 0x73B5 PUSH0 DUP4 ADD DUP6 PUSH2 0x6D0F JUMP JUMPDEST PUSH2 0x73C2 PUSH1 0x20 DUP4 ADD DUP5 PUSH2 0x605A JUMP JUMPDEST SWAP4 SWAP3 POP POP POP JUMP JUMPDEST PUSH0 DUP2 MLOAD SWAP1 POP PUSH2 0x73D7 DUP2 PUSH2 0x61C4 JUMP JUMPDEST SWAP3 SWAP2 POP POP JUMP JUMPDEST PUSH0 PUSH1 0x20 DUP3 DUP5 SUB SLT ISZERO PUSH2 0x73F2 JUMPI PUSH2 0x73F1 PUSH2 0x5F22 JUMP JUMPDEST JUMPDEST PUSH0 PUSH2 0x73FF DUP5 DUP3 DUP6 ADD PUSH2 0x73C9 JUMP JUMPDEST SWAP2 POP POP SWAP3 SWAP2 POP POP JUMP JUMPDEST PUSH32 0x5361666545524332303A204552433230206F7065726174696F6E20646964206E PUSH0 DUP3 ADD MSTORE PUSH32 0x6F74207375636365656400000000000000000000000000000000000000000000 PUSH1 0x20 DUP3 ADD MSTORE POP JUMP JUMPDEST PUSH0 PUSH2 0x7462 PUSH1 0x2A DUP4 PUSH2 0x5E9C JUMP JUMPDEST SWAP2 POP PUSH2 0x746D DUP3 PUSH2 0x7408 JUMP JUMPDEST PUSH1 0x40 DUP3 ADD SWAP1 POP SWAP2 SWAP1 POP JUMP JUMPDEST PUSH0 PUSH1 0x20 DUP3 ADD SWAP1 POP DUP2 DUP2 SUB PUSH0 DUP4 ADD MSTORE PUSH2 0x748F DUP2 PUSH2 0x7456 JUMP JUMPDEST SWAP1 POP SWAP2 SWAP1 POP JUMP JUMPDEST PUSH0 PUSH1 0xA0 DUP3 ADD SWAP1 POP PUSH2 0x74A9 PUSH0 DUP4 ADD DUP9 PUSH2 0x605A JUMP JUMPDEST PUSH2 0x74B6 PUSH1 0x20 DUP4 ADD DUP8 PUSH2 0x6D0F JUMP JUMPDEST DUP2 DUP2 SUB PUSH1 0x40 DUP4 ADD MSTORE PUSH2 0x74C8 DUP2 DUP7 PUSH2 0x6D79 JUMP JUMPDEST SWAP1 POP PUSH2 0x74D7 PUSH1 0x60 DUP4 ADD DUP6 PUSH2 0x622C JUMP JUMPDEST PUSH2 0x74E4 PUSH1 0x80 DUP4 ADD DUP5 PUSH2 0x605A JUMP JUMPDEST SWAP7 SWAP6 POP POP POP POP POP POP JUMP JUMPDEST PUSH0 PUSH1 0xC0 DUP3 ADD SWAP1 POP PUSH2 0x7501 PUSH0 DUP4 ADD DUP10 PUSH2 0x622C JUMP JUMPDEST PUSH2 0x750E PUSH1 0x20 DUP4 ADD DUP9 PUSH2 0x605A JUMP JUMPDEST PUSH2 0x751B PUSH1 0x40 DUP4 ADD DUP8 PUSH2 0x6D0F JUMP JUMPDEST PUSH2 0x7528 PUSH1 0x60 DUP4 ADD DUP7 PUSH2 0x6D0F JUMP JUMPDEST PUSH2 0x7535 PUSH1 0x80 DUP4 ADD DUP6 PUSH2 0x622C JUMP JUMPDEST PUSH2 0x7542 PUSH1 0xA0 DUP4 ADD DUP5 PUSH2 0x605A JUMP JUMPDEST SWAP8 SWAP7 POP POP POP POP POP POP POP JUMP JUMPDEST PUSH0 PUSH0 PUSH0 PUSH1 0x60 DUP5 DUP7 SUB SLT ISZERO PUSH2 0x7564 JUMPI PUSH2 0x7563 PUSH2 0x5F22 JUMP JUMPDEST JUMPDEST PUSH0 PUSH2 0x7571 DUP7 DUP3 DUP8 ADD PUSH2 0x6C3A JUMP JUMPDEST SWAP4 POP POP PUSH1 0x20 PUSH2 0x7582 DUP7 DUP3 DUP8 ADD PUSH2 0x6C3A JUMP JUMPDEST SWAP3 POP POP PUSH1 0x40 PUSH2 0x7593 DUP7 DUP3 DUP8 ADD PUSH2 0x6C3A JUMP JUMPDEST SWAP2 POP POP SWAP3 POP SWAP3 POP SWAP3 JUMP JUMPDEST PUSH32 0x416464726573733A20696E73756666696369656E742062616C616E636520666F PUSH0 DUP3 ADD MSTORE PUSH32 0x722063616C6C0000000000000000000000000000000000000000000000000000 PUSH1 0x20 DUP3 ADD MSTORE POP JUMP JUMPDEST PUSH0 PUSH2 0x75F7 PUSH1 0x26 DUP4 PUSH2 0x5E9C JUMP JUMPDEST SWAP2 POP PUSH2 0x7602 DUP3 PUSH2 0x759D JUMP JUMPDEST PUSH1 0x40 DUP3 ADD SWAP1 POP SWAP2 SWAP1 POP JUMP JUMPDEST PUSH0 PUSH1 0x20 DUP3 ADD SWAP1 POP DUP2 DUP2 SUB PUSH0 DUP4 ADD MSTORE PUSH2 0x7624 DUP2 PUSH2 0x75EB JUMP JUMPDEST SWAP1 POP SWAP2 SWAP1 POP JUMP JUMPDEST PUSH0 DUP2 MLOAD SWAP1 POP SWAP2 SWAP1 POP JUMP JUMPDEST PUSH0 PUSH2 0x763F DUP3 PUSH2 0x762B JUMP JUMPDEST PUSH2 0x7649 DUP2 DUP6 PUSH2 0x6F16 JUMP JUMPDEST SWAP4 POP PUSH2 0x7659 DUP2 DUP6 PUSH1 0x20 DUP7 ADD PUSH2 0x5EAC JUMP JUMPDEST DUP1 DUP5 ADD SWAP2 POP POP SWAP3 SWAP2 POP POP JUMP JUMPDEST PUSH0 PUSH2 0x7670 DUP3 DUP5 PUSH2 0x7635 JUMP JUMPDEST SWAP2 POP DUP2 SWAP1 POP SWAP3 SWAP2 POP POP JUMP JUMPDEST PUSH32 0x416464726573733A2063616C6C20746F206E6F6E2D636F6E7472616374000000 PUSH0 DUP3 ADD MSTORE POP JUMP JUMPDEST PUSH0 PUSH2 0x76AF PUSH1 0x1D DUP4 PUSH2 0x5E9C JUMP JUMPDEST SWAP2 POP PUSH2 0x76BA DUP3 PUSH2 0x767B JUMP JUMPDEST PUSH1 0x20 DUP3 ADD SWAP1 POP SWAP2 SWAP1 POP JUMP JUMPDEST PUSH0 PUSH1 0x20 DUP3 ADD SWAP1 POP DUP2 DUP2 SUB PUSH0 DUP4 ADD MSTORE PUSH2 0x76DC DUP2 PUSH2 0x76A3 JUMP JUMPDEST SWAP1 POP SWAP2 SWAP1 POP JUMP INVALID LOG2 PUSH5 0x6970667358 0x22 SLT KECCAK256 RETF MCOPY 0xDF PUSH14 0x39F5627CFA820CC6A8AB8CFC2189 0xD9 CREATE JUMPDEST 0x2A 0xBB PUSH5 0xB510F8F851 SUB 0x4B CALLDATASIZE PUSH5 0x736F6C6343 STOP ADDMOD 0x1E STOP CALLER "
		},
		"gasEstimates": {
			"creation": {
				"codeDepositCost": "6097800",
				"executionCost": "infinite",
				"totalCost": "infinite"
			},
			"external": {
				"allowance(address,address)": "infinite",
				"approve(address,uint256)": "infinite",
				"automatedMarketMakerPairs(address)": "2944",
				"balanceOf(address)": "infinite",
				"buyBurnFee()": "2606",
				"buyLiquidityFee()": "2583",
				"buyMarketingFee()": "2584",
				"buyRewardFee()": "2608",
				"buyTreasuryFee()": "2629",
				"decimals()": "2591",
				"decreaseAllowance(address,uint256)": "infinite",
				"excludeFromFee(address,bool)": "infinite",
				"excludeFromReward(address)": "infinite",
				"includeInReward(address)": "infinite",
				"increaseAllowance(address,uint256)": "infinite",
				"isExcludedFromFee(address)": "2923",
				"isExcludedFromReward(address)": "2916",
				"mainPair()": "2641",
				"mainRouter()": "infinite",
				"marketingWallet()": "2620",
				"minAmountToTakeFee()": "2557",
				"name()": "infinite",
				"owner()": "2604",
				"reflectionFromToken(uint256,bool)": "infinite",
				"renounceOwnership()": "30455",
				"sellBurnFee()": "2606",
				"sellLiquidityFee()": "2627",
				"sellMarketingFee()": "2651",
				"sellRewardFee()": "2650",
				"sellTreasuryFee()": "2651",
				"setAutomatedMarketMakerPair(address,bool)": "infinite",
				"symbol()": "infinite",
				"tokenFromReflection(uint256)": "infinite",
				"totalFees()": "2545",
				"totalSupply()": "2567",
				"transfer(address,uint256)": "infinite",
				"transferFrom(address,address,uint256)": "infinite",
				"transferOwnership(address)": "30816",
				"treasuryBurn()": "infinite",
				"treasuryWallet()": "2554",
				"updateBurnFee(uint24,uint24)": "infinite",
				"updateLiquidityFee(uint24,uint24)": "infinite",
				"updateMainPair(address)": "infinite",
				"updateMarketingFee(uint24,uint24)": "infinite",
				"updateMarketingWallet(address)": "57280",
				"updateMinAmountToTakeFee(uint256)": "infinite",
				"updateRewardFee(uint24,uint24)": "infinite",
				"updateTreasuryFee(uint24,uint24)": "infinite",
				"updateTreasuryWallet(address)": "57336",
				"withdrawETH()": "infinite",
				"withdrawToken(address)": "infinite"
			},
			"internal": {
				"_approve(address,address,uint256)": "infinite",
				"_getCurrentSupply()": "infinite",
				"_getRate()": "infinite",
				"_getTValues(uint256)": "infinite",
				"_reflectFee(uint256,uint256)": "infinite",
				"_setAutomatedMarketMakerPair(address,bool)": "infinite",
				"_tokenTransfer(address,address,uint256)": "infinite",
				"_transfer(address,address,uint256)": "infinite",
				"addLiquidity(uint256,uint256)": "infinite",
				"calculateBurnFee(uint256)": "infinite",
				"calculateLiquidityFee(uint256)": "infinite",
				"calculateMarketingFee(uint256)": "infinite",
				"calculateRewardFee(uint256)": "infinite",
				"calculateTreasuryFee(uint256)": "infinite",
				"removeAllFee()": "146144",
				"restoreAllFee()": "121079",
				"swapTokensForETH(uint256)": "infinite",
				"takeFee()": "infinite"
			}
		},
		"methodIdentifiers": {
			"allowance(address,address)": "dd62ed3e",
			"approve(address,uint256)": "095ea7b3",
			"automatedMarketMakerPairs(address)": "b62496f5",
			"balanceOf(address)": "70a08231",
			"buyBurnFee()": "e71dc3f5",
			"buyLiquidityFee()": "f11a24d3",
			"buyMarketingFee()": "7bce5a04",
			"buyRewardFee()": "0cfe2f3f",
			"buyTreasuryFee()": "5c068a8c",
			"decimals()": "313ce567",
			"decreaseAllowance(address,uint256)": "a457c2d7",
			"excludeFromFee(address,bool)": "df8408fe",
			"excludeFromReward(address)": "52390c02",
			"includeInReward(address)": "3685d419",
			"increaseAllowance(address,uint256)": "39509351",
			"isExcludedFromFee(address)": "5342acb4",
			"isExcludedFromReward(address)": "88f82020",
			"mainPair()": "85af30c5",
			"mainRouter()": "cf188ad0",
			"marketingWallet()": "75f0a874",
			"minAmountToTakeFee()": "fc59d23d",
			"name()": "06fdde03",
			"owner()": "8da5cb5b",
			"reflectionFromToken(uint256,bool)": "4549b039",
			"renounceOwnership()": "715018a6",
			"sellBurnFee()": "adb873bd",
			"sellLiquidityFee()": "f6374342",
			"sellMarketingFee()": "92136913",
			"sellRewardFee()": "de0aad53",
			"sellTreasuryFee()": "6b2fb124",
			"setAutomatedMarketMakerPair(address,bool)": "9a7a23d6",
			"symbol()": "95d89b41",
			"tokenFromReflection(uint256)": "2d838119",
			"totalFees()": "13114a9d",
			"totalSupply()": "18160ddd",
			"transfer(address,uint256)": "a9059cbb",
			"transferFrom(address,address,uint256)": "23b872dd",
			"transferOwnership(address)": "f2fde38b",
			"treasuryBurn()": "8f0bc167",
			"treasuryWallet()": "4626402b",
			"updateBurnFee(uint24,uint24)": "db4091e9",
			"updateLiquidityFee(uint24,uint24)": "d5bf72b7",
			"updateMainPair(address)": "b95d11be",
			"updateMarketingFee(uint24,uint24)": "ec44adc8",
			"updateMarketingWallet(address)": "aacebbe3",
			"updateMinAmountToTakeFee(uint256)": "73b9e82c",
			"updateRewardFee(uint24,uint24)": "82685df5",
			"updateTreasuryFee(uint24,uint24)": "3fd1c86d",
			"updateTreasuryWallet(address)": "809d458d",
			"withdrawETH()": "e086e5ec",
			"withdrawToken(address)": "89476069"
		}
	},
	"abi": [
		{
			"inputs": [
				{
					"components": [
						{
							"internalType": "string",
							"name": "name",
							"type": "string"
						},
						{
							"internalType": "string",
							"name": "symbol",
							"type": "string"
						},
						{
							"internalType": "uint8",
							"name": "decimals",
							"type": "uint8"
						},
						{
							"internalType": "uint256",
							"name": "totalSupply",
							"type": "uint256"
						},
						{
							"internalType": "address",
							"name": "marketingWallet",
							"type": "address"
						},
						{
							"internalType": "address",
							"name": "mainRouter",
							"type": "address"
						},
						{
							"internalType": "address",
							"name": "treasuryWallet",
							"type": "address"
						},
						{
							"internalType": "uint24",
							"name": "sellLiquidityFee",
							"type": "uint24"
						},
						{
							"internalType": "uint24",
							"name": "buyLiquidityFee",
							"type": "uint24"
						},
						{
							"internalType": "uint24",
							"name": "sellMarketingFee",
							"type": "uint24"
						},
						{
							"internalType": "uint24",
							"name": "buyMarketingFee",
							"type": "uint24"
						},
						{
							"internalType": "uint24",
							"name": "sellTreasuryFee",
							"type": "uint24"
						},
						{
							"internalType": "uint24",
							"name": "buyTreasuryFee",
							"type": "uint24"
						},
						{
							"internalType": "uint24",
							"name": "sellRewardFee",
							"type": "uint24"
						},
						{
							"internalType": "uint24",
							"name": "buyRewardFee",
							"type": "uint24"
						},
						{
							"internalType": "uint24",
							"name": "sellBurnFee",
							"type": "uint24"
						},
						{
							"internalType": "uint24",
							"name": "buyBurnFee",
							"type": "uint24"
						}
					],
					"internalType": "struct BadSam.Args",
					"name": "args",
					"type": "tuple"
				}
			],
			"stateMutability": "nonpayable",
			"type": "constructor"
		},
		{
			"anonymous": false,
			"inputs": [
				{
					"indexed": true,
					"internalType": "address",
					"name": "owner",
					"type": "address"
				},
				{
					"indexed": true,
					"internalType": "address",
					"name": "spender",
					"type": "address"
				},
				{
					"indexed": false,
					"internalType": "uint256",
					"name": "value",
					"type": "uint256"
				}
			],
			"name": "Approval",
			"type": "event"
		},
		{
			"anonymous": false,
			"inputs": [
				{
					"indexed": true,
					"internalType": "address",
					"name": "account",
					"type": "address"
				},
				{
					"indexed": false,
					"internalType": "bool",
					"name": "isEx",
					"type": "bool"
				}
			],
			"name": "ExcludedFromFee",
			"type": "event"
		},
		{
			"anonymous": false,
			"inputs": [
				{
					"indexed": false,
					"internalType": "address",
					"name": "mainRouter",
					"type": "address"
				},
				{
					"indexed": false,
					"internalType": "address",
					"name": "mainPair",
					"type": "address"
				}
			],
			"name": "MainRouterUpdated",
			"type": "event"
		},
		{
			"anonymous": false,
			"inputs": [
				{
					"indexed": false,
					"internalType": "uint256",
					"name": "marketingFeeTokens",
					"type": "uint256"
				},
				{
					"indexed": false,
					"internalType": "uint256",
					"name": "marketingFeeETHSwapped",
					"type": "uint256"
				}
			],
			"name": "MarketingFeeTaken",
			"type": "event"
		},
		{
			"anonymous": false,
			"inputs": [
				{
					"indexed": true,
					"internalType": "address",
					"name": "previousOwner",
					"type": "address"
				},
				{
					"indexed": true,
					"internalType": "address",
					"name": "newOwner",
					"type": "address"
				}
			],
			"name": "OwnershipTransferred",
			"type": "event"
		},
		{
			"anonymous": false,
			"inputs": [
				{
					"indexed": true,
					"internalType": "address",
					"name": "pair",
					"type": "address"
				},
				{
					"indexed": false,
					"internalType": "bool",
					"name": "value",
					"type": "bool"
				}
			],
			"name": "SetAutomatedMarketMakerPair",
			"type": "event"
		},
		{
			"anonymous": false,
			"inputs": [
				{
					"indexed": false,
					"internalType": "uint256",
					"name": "tokensForLiquidity",
					"type": "uint256"
				},
				{
					"indexed": false,
					"internalType": "uint256",
					"name": "ETHForLiquidity",
					"type": "uint256"
				}
			],
			"name": "SwapAndLiquify",
			"type": "event"
		},
		{
			"anonymous": false,
			"inputs": [
				{
					"indexed": true,
					"internalType": "address",
					"name": "from",
					"type": "address"
				},
				{
					"indexed": true,
					"internalType": "address",
					"name": "to",
					"type": "address"
				},
				{
					"indexed": false,
					"internalType": "uint256",
					"name": "value",
					"type": "uint256"
				}
			],
			"name": "Transfer",
			"type": "event"
		},
		{
			"anonymous": false,
			"inputs": [
				{
					"indexed": false,
					"internalType": "uint256",
					"name": "amount",
					"type": "uint256"
				}
			],
			"name": "TreasuryFeeTaken",
			"type": "event"
		},
		{
			"anonymous": false,
			"inputs": [
				{
					"indexed": false,
					"internalType": "uint24",
					"name": "newSellBurnFee",
					"type": "uint24"
				},
				{
					"indexed": false,
					"internalType": "uint24",
					"name": "newBuyBurnFee",
					"type": "uint24"
				},
				{
					"indexed": false,
					"internalType": "uint24",
					"name": "oldSellBurnFee",
					"type": "uint24"
				},
				{
					"indexed": false,
					"internalType": "uint24",
					"name": "oldBuyBurnFee",
					"type": "uint24"
				}
			],
			"name": "UpdateBurnFee",
			"type": "event"
		},
		{
			"anonymous": false,
			"inputs": [
				{
					"indexed": false,
					"internalType": "uint24",
					"name": "newSellLiquidityFee",
					"type": "uint24"
				},
				{
					"indexed": false,
					"internalType": "uint24",
					"name": "newBuyLiquidityFee",
					"type": "uint24"
				},
				{
					"indexed": false,
					"internalType": "uint24",
					"name": "oldSellLiquidityFee",
					"type": "uint24"
				},
				{
					"indexed": false,
					"internalType": "uint24",
					"name": "oldBuyLiquidityFee",
					"type": "uint24"
				}
			],
			"name": "UpdateLiquidityFee",
			"type": "event"
		},
		{
			"anonymous": false,
			"inputs": [
				{
					"indexed": false,
					"internalType": "uint24",
					"name": "newSellMarketingFee",
					"type": "uint24"
				},
				{
					"indexed": false,
					"internalType": "uint24",
					"name": "newBuyMarketingFee",
					"type": "uint24"
				},
				{
					"indexed": false,
					"internalType": "uint24",
					"name": "oldSellMarketingFee",
					"type": "uint24"
				},
				{
					"indexed": false,
					"internalType": "uint24",
					"name": "oldBuyMarketingFee",
					"type": "uint24"
				}
			],
			"name": "UpdateMarketingFee",
			"type": "event"
		},
		{
			"anonymous": false,
			"inputs": [
				{
					"indexed": true,
					"internalType": "address",
					"name": "newMarketingWallet",
					"type": "address"
				},
				{
					"indexed": true,
					"internalType": "address",
					"name": "oldMarketingWallet",
					"type": "address"
				}
			],
			"name": "UpdateMarketingWallet",
			"type": "event"
		},
		{
			"anonymous": false,
			"inputs": [
				{
					"indexed": false,
					"internalType": "uint256",
					"name": "newMinAmountToTakeFee",
					"type": "uint256"
				},
				{
					"indexed": false,
					"internalType": "uint256",
					"name": "oldMinAmountToTakeFee",
					"type": "uint256"
				}
			],
			"name": "UpdateMinAmountToTakeFee",
			"type": "event"
		},
		{
			"anonymous": false,
			"inputs": [
				{
					"indexed": false,
					"internalType": "uint24",
					"name": "newSellRewardFee",
					"type": "uint24"
				},
				{
					"indexed": false,
					"internalType": "uint24",
					"name": "newBuyRewardFee",
					"type": "uint24"
				},
				{
					"indexed": false,
					"internalType": "uint24",
					"name": "oldSellRewardFee",
					"type": "uint24"
				},
				{
					"indexed": false,
					"internalType": "uint24",
					"name": "oldBuyRewardFee",
					"type": "uint24"
				}
			],
			"name": "UpdateRewardFee",
			"type": "event"
		},
		{
			"anonymous": false,
			"inputs": [
				{
					"indexed": false,
					"internalType": "uint24",
					"name": "newSellTreasuryFee",
					"type": "uint24"
				},
				{
					"indexed": false,
					"internalType": "uint24",
					"name": "newBuyTreasuryFee",
					"type": "uint24"
				},
				{
					"indexed": false,
					"internalType": "uint24",
					"name": "oldSellTreasuryFee",
					"type": "uint24"
				},
				{
					"indexed": false,
					"internalType": "uint24",
					"name": "oldBuyTreasuryFee",
					"type": "uint24"
				}
			],
			"name": "UpdateTreasuryFee",
			"type": "event"
		},
		{
			"anonymous": false,
			"inputs": [
				{
					"indexed": true,
					"internalType": "address",
					"name": "newTreasuryWallet",
					"type": "address"
				},
				{
					"indexed": true,
					"internalType": "address",
					"name": "oldTreasuryWallet",
					"type": "address"
				}
			],
			"name": "UpdateTreasuryWallet",
			"type": "event"
		},
		{
			"inputs": [
				{
					"internalType": "address",
					"name": "owner",
					"type": "address"
				},
				{
					"internalType": "address",
					"name": "spender",
					"type": "address"
				}
			],
			"name": "allowance",
			"outputs": [
				{
					"internalType": "uint256",
					"name": "",
					"type": "uint256"
				}
			],
			"stateMutability": "view",
			"type": "function"
		},
		{
			"inputs": [
				{
					"internalType": "address",
					"name": "spender",
					"type": "address"
				},
				{
					"internalType": "uint256",
					"name": "amount",
					"type": "uint256"
				}
			],
			"name": "approve",
			"outputs": [
				{
					"internalType": "bool",
					"name": "",
					"type": "bool"
				}
			],
			"stateMutability": "nonpayable",
			"type": "function"
		},
		{
			"inputs": [
				{
					"internalType": "address",
					"name": "",
					"type": "address"
				}
			],
			"name": "automatedMarketMakerPairs",
			"outputs": [
				{
					"internalType": "bool",
					"name": "",
					"type": "bool"
				}
			],
			"stateMutability": "view",
			"type": "function"
		},
		{
			"inputs": [
				{
					"internalType": "address",
					"name": "account",
					"type": "address"
				}
			],
			"name": "balanceOf",
			"outputs": [
				{
					"internalType": "uint256",
					"name": "",
					"type": "uint256"
				}
			],
			"stateMutability": "view",
			"type": "function"
		},
		{
			"inputs": [],
			"name": "buyBurnFee",
			"outputs": [
				{
					"internalType": "uint24",
					"name": "",
					"type": "uint24"
				}
			],
			"stateMutability": "view",
			"type": "function"
		},
		{
			"inputs": [],
			"name": "buyLiquidityFee",
			"outputs": [
				{
					"internalType": "uint24",
					"name": "",
					"type": "uint24"
				}
			],
			"stateMutability": "view",
			"type": "function"
		},
		{
			"inputs": [],
			"name": "buyMarketingFee",
			"outputs": [
				{
					"internalType": "uint24",
					"name": "",
					"type": "uint24"
				}
			],
			"stateMutability": "view",
			"type": "function"
		},
		{
			"inputs": [],
			"name": "buyRewardFee",
			"outputs": [
				{
					"internalType": "uint24",
					"name": "",
					"type": "uint24"
				}
			],
			"stateMutability": "view",
			"type": "function"
		},
		{
			"inputs": [],
			"name": "buyTreasuryFee",
			"outputs": [
				{
					"internalType": "uint24",
					"name": "",
					"type": "uint24"
				}
			],
			"stateMutability": "view",
			"type": "function"
		},
		{
			"inputs": [],
			"name": "decimals",
			"outputs": [
				{
					"internalType": "uint8",
					"name": "",
					"type": "uint8"
				}
			],
			"stateMutability": "view",
			"type": "function"
		},
		{
			"inputs": [
				{
					"internalType": "address",
					"name": "spender",
					"type": "address"
				},
				{
					"internalType": "uint256",
					"name": "subtractedValue",
					"type": "uint256"
				}
			],
			"name": "decreaseAllowance",
			"outputs": [
				{
					"internalType": "bool",
					"name": "",
					"type": "bool"
				}
			],
			"stateMutability": "nonpayable",
			"type": "function"
		},
		{
			"inputs": [
				{
					"internalType": "address",
					"name": "account",
					"type": "address"
				},
				{
					"internalType": "bool",
					"name": "isEx",
					"type": "bool"
				}
			],
			"name": "excludeFromFee",
			"outputs": [],
			"stateMutability": "nonpayable",
			"type": "function"
		},
		{
			"inputs": [
				{
					"internalType": "address",
					"name": "account",
					"type": "address"
				}
			],
			"name": "excludeFromReward",
			"outputs": [],
			"stateMutability": "nonpayable",
			"type": "function"
		},
		{
			"inputs": [
				{
					"internalType": "address",
					"name": "account",
					"type": "address"
				}
			],
			"name": "includeInReward",
			"outputs": [],
			"stateMutability": "nonpayable",
			"type": "function"
		},
		{
			"inputs": [
				{
					"internalType": "address",
					"name": "spender",
					"type": "address"
				},
				{
					"internalType": "uint256",
					"name": "addedValue",
					"type": "uint256"
				}
			],
			"name": "increaseAllowance",
			"outputs": [
				{
					"internalType": "bool",
					"name": "",
					"type": "bool"
				}
			],
			"stateMutability": "nonpayable",
			"type": "function"
		},
		{
			"inputs": [
				{
					"internalType": "address",
					"name": "",
					"type": "address"
				}
			],
			"name": "isExcludedFromFee",
			"outputs": [
				{
					"internalType": "bool",
					"name": "",
					"type": "bool"
				}
			],
			"stateMutability": "view",
			"type": "function"
		},
		{
			"inputs": [
				{
					"internalType": "address",
					"name": "account",
					"type": "address"
				}
			],
			"name": "isExcludedFromReward",
			"outputs": [
				{
					"internalType": "bool",
					"name": "",
					"type": "bool"
				}
			],
			"stateMutability": "view",
			"type": "function"
		},
		{
			"inputs": [],
			"name": "mainPair",
			"outputs": [
				{
					"internalType": "address",
					"name": "",
					"type": "address"
				}
			],
			"stateMutability": "view",
			"type": "function"
		},
		{
			"inputs": [],
			"name": "mainRouter",
			"outputs": [
				{
					"internalType": "contract IUniswapV2Router02",
					"name": "",
					"type": "address"
				}
			],
			"stateMutability": "view",
			"type": "function"
		},
		{
			"inputs": [],
			"name": "marketingWallet",
			"outputs": [
				{
					"internalType": "address",
					"name": "",
					"type": "address"
				}
			],
			"stateMutability": "view",
			"type": "function"
		},
		{
			"inputs": [],
			"name": "minAmountToTakeFee",
			"outputs": [
				{
					"internalType": "uint256",
					"name": "",
					"type": "uint256"
				}
			],
			"stateMutability": "view",
			"type": "function"
		},
		{
			"inputs": [],
			"name": "name",
			"outputs": [
				{
					"internalType": "string",
					"name": "",
					"type": "string"
				}
			],
			"stateMutability": "view",
			"type": "function"
		},
		{
			"inputs": [],
			"name": "owner",
			"outputs": [
				{
					"internalType": "address",
					"name": "",
					"type": "address"
				}
			],
			"stateMutability": "view",
			"type": "function"
		},
		{
			"inputs": [
				{
					"internalType": "uint256",
					"name": "tAmount",
					"type": "uint256"
				},
				{
					"internalType": "bool",
					"name": "deductTransferFee",
					"type": "bool"
				}
			],
			"name": "reflectionFromToken",
			"outputs": [
				{
					"internalType": "uint256",
					"name": "",
					"type": "uint256"
				}
			],
			"stateMutability": "view",
			"type": "function"
		},
		{
			"inputs": [],
			"name": "renounceOwnership",
			"outputs": [],
			"stateMutability": "nonpayable",
			"type": "function"
		},
		{
			"inputs": [],
			"name": "sellBurnFee",
			"outputs": [
				{
					"internalType": "uint24",
					"name": "",
					"type": "uint24"
				}
			],
			"stateMutability": "view",
			"type": "function"
		},
		{
			"inputs": [],
			"name": "sellLiquidityFee",
			"outputs": [
				{
					"internalType": "uint24",
					"name": "",
					"type": "uint24"
				}
			],
			"stateMutability": "view",
			"type": "function"
		},
		{
			"inputs": [],
			"name": "sellMarketingFee",
			"outputs": [
				{
					"internalType": "uint24",
					"name": "",
					"type": "uint24"
				}
			],
			"stateMutability": "view",
			"type": "function"
		},
		{
			"inputs": [],
			"name": "sellRewardFee",
			"outputs": [
				{
					"internalType": "uint24",
					"name": "",
					"type": "uint24"
				}
			],
			"stateMutability": "view",
			"type": "function"
		},
		{
			"inputs": [],
			"name": "sellTreasuryFee",
			"outputs": [
				{
					"internalType": "uint24",
					"name": "",
					"type": "uint24"
				}
			],
			"stateMutability": "view",
			"type": "function"
		},
		{
			"inputs": [
				{
					"internalType": "address",
					"name": "pair",
					"type": "address"
				},
				{
					"internalType": "bool",
					"name": "value",
					"type": "bool"
				}
			],
			"name": "setAutomatedMarketMakerPair",
			"outputs": [],
			"stateMutability": "nonpayable",
			"type": "function"
		},
		{
			"inputs": [],
			"name": "symbol",
			"outputs": [
				{
					"internalType": "string",
					"name": "",
					"type": "string"
				}
			],
			"stateMutability": "view",
			"type": "function"
		},
		{
			"inputs": [
				{
					"internalType": "uint256",
					"name": "rAmount",
					"type": "uint256"
				}
			],
			"name": "tokenFromReflection",
			"outputs": [
				{
					"internalType": "uint256",
					"name": "",
					"type": "uint256"
				}
			],
			"stateMutability": "view",
			"type": "function"
		},
		{
			"inputs": [],
			"name": "totalFees",
			"outputs": [
				{
					"internalType": "uint256",
					"name": "",
					"type": "uint256"
				}
			],
			"stateMutability": "view",
			"type": "function"
		},
		{
			"inputs": [],
			"name": "totalSupply",
			"outputs": [
				{
					"internalType": "uint256",
					"name": "",
					"type": "uint256"
				}
			],
			"stateMutability": "view",
			"type": "function"
		},
		{
			"inputs": [
				{
					"internalType": "address",
					"name": "recipient",
					"type": "address"
				},
				{
					"internalType": "uint256",
					"name": "amount",
					"type": "uint256"
				}
			],
			"name": "transfer",
			"outputs": [
				{
					"internalType": "bool",
					"name": "",
					"type": "bool"
				}
			],
			"stateMutability": "nonpayable",
			"type": "function"
		},
		{
			"inputs": [
				{
					"internalType": "address",
					"name": "sender",
					"type": "address"
				},
				{
					"internalType": "address",
					"name": "recipient",
					"type": "address"
				},
				{
					"internalType": "uint256",
					"name": "amount",
					"type": "uint256"
				}
			],
			"name": "transferFrom",
			"outputs": [
				{
					"internalType": "bool",
					"name": "",
					"type": "bool"
				}
			],
			"stateMutability": "nonpayable",
			"type": "function"
		},
		{
			"inputs": [
				{
					"internalType": "address",
					"name": "newOwner",
					"type": "address"
				}
			],
			"name": "transferOwnership",
			"outputs": [],
			"stateMutability": "nonpayable",
			"type": "function"
		},
		{
			"inputs": [],
			"name": "treasuryBurn",
			"outputs": [],
			"stateMutability": "payable",
			"type": "function"
		},
		{
			"inputs": [],
			"name": "treasuryWallet",
			"outputs": [
				{
					"internalType": "address",
					"name": "",
					"type": "address"
				}
			],
			"stateMutability": "view",
			"type": "function"
		},
		{
			"inputs": [
				{
					"internalType": "uint24",
					"name": "_sellBurnFee",
					"type": "uint24"
				},
				{
					"internalType": "uint24",
					"name": "_buyBurnFee",
					"type": "uint24"
				}
			],
			"name": "updateBurnFee",
			"outputs": [],
			"stateMutability": "nonpayable",
			"type": "function"
		},
		{
			"inputs": [
				{
					"internalType": "uint24",
					"name": "_sellLiquidityFee",
					"type": "uint24"
				},
				{
					"internalType": "uint24",
					"name": "_buyLiquidityFee",
					"type": "uint24"
				}
			],
			"name": "updateLiquidityFee",
			"outputs": [],
			"stateMutability": "nonpayable",
			"type": "function"
		},
		{
			"inputs": [
				{
					"internalType": "address",
					"name": "_mainRouter",
					"type": "address"
				}
			],
			"name": "updateMainPair",
			"outputs": [],
			"stateMutability": "nonpayable",
			"type": "function"
		},
		{
			"inputs": [
				{
					"internalType": "uint24",
					"name": "_sellMarketingFee",
					"type": "uint24"
				},
				{
					"internalType": "uint24",
					"name": "_buyMarketingFee",
					"type": "uint24"
				}
			],
			"name": "updateMarketingFee",
			"outputs": [],
			"stateMutability": "nonpayable",
			"type": "function"
		},
		{
			"inputs": [
				{
					"internalType": "address",
					"name": "_marketingWallet",
					"type": "address"
				}
			],
			"name": "updateMarketingWallet",
			"outputs": [],
			"stateMutability": "nonpayable",
			"type": "function"
		},
		{
			"inputs": [
				{
					"internalType": "uint256",
					"name": "_minAmountToTakeFee",
					"type": "uint256"
				}
			],
			"name": "updateMinAmountToTakeFee",
			"outputs": [],
			"stateMutability": "nonpayable",
			"type": "function"
		},
		{
			"inputs": [
				{
					"internalType": "uint24",
					"name": "_sellRewardFee",
					"type": "uint24"
				},
				{
					"internalType": "uint24",
					"name": "_buyRewardFee",
					"type": "uint24"
				}
			],
			"name": "updateRewardFee",
			"outputs": [],
			"stateMutability": "nonpayable",
			"type": "function"
		},
		{
			"inputs": [
				{
					"internalType": "uint24",
					"name": "_sellTreasuryFee",
					"type": "uint24"
				},
				{
					"internalType": "uint24",
					"name": "_buyTreasuryFee",
					"type": "uint24"
				}
			],
			"name": "updateTreasuryFee",
			"outputs": [],
			"stateMutability": "nonpayable",
			"type": "function"
		},
		{
			"inputs": [
				{
					"internalType": "address",
					"name": "_treasuryWallet",
					"type": "address"
				}
			],
			"name": "updateTreasuryWallet",
			"outputs": [],
			"stateMutability": "nonpayable",
			"type": "function"
		},
		{
			"inputs": [],
			"name": "withdrawETH",
			"outputs": [],
			"stateMutability": "nonpayable",
			"type": "function"
		},
		{
			"inputs": [
				{
					"internalType": "address",
					"name": "token",
					"type": "address"
				}
			],
			"name": "withdrawToken",
			"outputs": [],
			"stateMutability": "nonpayable",
			"type": "function"
		},
		{
			"stateMutability": "payable",
			"type": "receive"
		}
	]
}